{
	"TreasuryManagerBASECCIPsender.sol": {
		"TreasuryManagerBASECCIPsender": {
			"abi": [
				{
					"inputs": [],
					"stateMutability": "nonpayable",
					"type": "constructor"
				},
				{
					"inputs": [
						{
							"internalType": "uint64",
							"name": "destinationChainSelector",
							"type": "uint64"
						}
					],
					"name": "DestinationChainNotAllowlisted",
					"type": "error"
				},
				{
					"inputs": [
						{
							"internalType": "address",
							"name": "owner",
							"type": "address"
						},
						{
							"internalType": "address",
							"name": "target",
							"type": "address"
						},
						{
							"internalType": "uint256",
							"name": "value",
							"type": "uint256"
						}
					],
					"name": "FailedToWithdrawEth",
					"type": "error"
				},
				{
					"inputs": [],
					"name": "InvalidReceiverAddress",
					"type": "error"
				},
				{
					"inputs": [
						{
							"internalType": "uint256",
							"name": "currentBalance",
							"type": "uint256"
						},
						{
							"internalType": "uint256",
							"name": "calculatedFees",
							"type": "uint256"
						}
					],
					"name": "NotEnoughBalance",
					"type": "error"
				},
				{
					"inputs": [],
					"name": "NothingToWithdraw",
					"type": "error"
				},
				{
					"anonymous": false,
					"inputs": [
						{
							"indexed": true,
							"internalType": "address",
							"name": "from",
							"type": "address"
						},
						{
							"indexed": true,
							"internalType": "address",
							"name": "to",
							"type": "address"
						}
					],
					"name": "OwnershipTransferRequested",
					"type": "event"
				},
				{
					"anonymous": false,
					"inputs": [
						{
							"indexed": true,
							"internalType": "address",
							"name": "from",
							"type": "address"
						},
						{
							"indexed": true,
							"internalType": "address",
							"name": "to",
							"type": "address"
						}
					],
					"name": "OwnershipTransferred",
					"type": "event"
				},
				{
					"anonymous": false,
					"inputs": [
						{
							"indexed": true,
							"internalType": "bytes32",
							"name": "messageId",
							"type": "bytes32"
						},
						{
							"indexed": true,
							"internalType": "uint64",
							"name": "destinationChainSelector",
							"type": "uint64"
						},
						{
							"indexed": false,
							"internalType": "address",
							"name": "receiver",
							"type": "address"
						},
						{
							"indexed": false,
							"internalType": "address",
							"name": "token",
							"type": "address"
						},
						{
							"indexed": false,
							"internalType": "uint256",
							"name": "tokenAmount",
							"type": "uint256"
						},
						{
							"indexed": false,
							"internalType": "address",
							"name": "feeToken",
							"type": "address"
						},
						{
							"indexed": false,
							"internalType": "uint256",
							"name": "fees",
							"type": "uint256"
						}
					],
					"name": "TokensTransferred",
					"type": "event"
				},
				{
					"inputs": [],
					"name": "acceptOwnership",
					"outputs": [],
					"stateMutability": "nonpayable",
					"type": "function"
				},
				{
					"inputs": [],
					"name": "owner",
					"outputs": [
						{
							"internalType": "address",
							"name": "",
							"type": "address"
						}
					],
					"stateMutability": "view",
					"type": "function"
				},
				{
					"inputs": [
						{
							"internalType": "address",
							"name": "to",
							"type": "address"
						}
					],
					"name": "transferOwnership",
					"outputs": [],
					"stateMutability": "nonpayable",
					"type": "function"
				},
				{
					"inputs": [
						{
							"internalType": "address",
							"name": "_receiver",
							"type": "address"
						},
						{
							"internalType": "address",
							"name": "_token",
							"type": "address"
						},
						{
							"internalType": "uint256",
							"name": "_amount",
							"type": "uint256"
						}
					],
					"name": "transferTokensPayLINK",
					"outputs": [
						{
							"internalType": "bytes32",
							"name": "messageId",
							"type": "bytes32"
						}
					],
					"stateMutability": "nonpayable",
					"type": "function"
				},
				{
					"inputs": [
						{
							"internalType": "address",
							"name": "_receiver",
							"type": "address"
						},
						{
							"internalType": "address",
							"name": "_token",
							"type": "address"
						},
						{
							"internalType": "uint256",
							"name": "_amount",
							"type": "uint256"
						}
					],
					"name": "transferTokensPayNative",
					"outputs": [
						{
							"internalType": "bytes32",
							"name": "messageId",
							"type": "bytes32"
						}
					],
					"stateMutability": "nonpayable",
					"type": "function"
				},
				{
					"inputs": [
						{
							"internalType": "address",
							"name": "_beneficiary",
							"type": "address"
						}
					],
					"name": "withdraw",
					"outputs": [],
					"stateMutability": "nonpayable",
					"type": "function"
				},
				{
					"inputs": [
						{
							"internalType": "address",
							"name": "_beneficiary",
							"type": "address"
						},
						{
							"internalType": "address",
							"name": "_token",
							"type": "address"
						}
					],
					"name": "withdrawToken",
					"outputs": [],
					"stateMutability": "nonpayable",
					"type": "function"
				},
				{
					"stateMutability": "payable",
					"type": "receive"
				}
			],
			"devdoc": {
				"kind": "dev",
				"methods": {
					"constructor": {
						"details": "Constructor for the contract."
					},
					"transferTokensPayLINK(address,address,uint256)": {
						"details": "Assumes your contract has sufficient LINK tokens to pay for the fees.",
						"params": {
							"_amount": "token amount.",
							"_receiver": "The address of the recipient on the destination blockchain.",
							"_token": "token address."
						},
						"returns": {
							"messageId": "The ID of the message that was sent."
						}
					},
					"transferTokensPayNative(address,address,uint256)": {
						"details": "Assumes your contract has sufficient native gas like ETH on Ethereum or POL on Polygon.",
						"params": {
							"_amount": "token amount.",
							"_receiver": "The address of the recipient on the destination blockchain.",
							"_token": "token address."
						},
						"returns": {
							"messageId": "The ID of the message that was sent."
						}
					},
					"withdraw(address)": {
						"details": "This function reverts if there are no funds to withdraw or if the transfer fails. It should only be callable by the owner of the contract.",
						"params": {
							"_beneficiary": "The address to which the Ether should be transferred."
						}
					},
					"withdrawToken(address,address)": {
						"details": "This function reverts with a 'NothingToWithdraw' error if there are no tokens to withdraw.",
						"params": {
							"_beneficiary": "The address to which the tokens will be sent.",
							"_token": "The contract address of the ERC20 token to be withdrawn."
						}
					}
				},
				"title": "- A simple contract for transferring tokens across chains.",
				"version": 1
			},
			"evm": {
				"assembly": "    /* \"TreasuryManagerBASECCIPsender.sol\":836:12101  contract TreasuryManagerBASECCIPsender is OwnerIsCreator {... */\n  mstore(0x40, 0x80)\n    /* \"TreasuryManagerBASECCIPsender.sol\":1043:1085  0xD3b06cEbF099CE7DA4AcCf578aaebFDBd6e88a93 */\n  0xd3b06cebf099ce7da4accf578aaebfdbd6e88a93\n    /* \"TreasuryManagerBASECCIPsender.sol\":1015:1085  address ccipRouterAddress = 0xD3b06cEbF099CE7DA4AcCf578aaebFDBd6e88a93 */\n  0x02\n  exp(0x0100, 0x00)\n  dup2\n  sload\n  dup2\n  0xffffffffffffffffffffffffffffffffffffffff\n  mul\n  not\n  and\n  swap1\n  dup4\n  0xffffffffffffffffffffffffffffffffffffffff\n  and\n  mul\n  or\n  swap1\n  sstore\n  pop\n    /* \"TreasuryManagerBASECCIPsender.sol\":1197:1239  0xE4aB69C077896252FAFBD49EFD26B5D171A32410 */\n  0xe4ab69c077896252fafbd49efd26b5d171a32410\n    /* \"TreasuryManagerBASECCIPsender.sol\":1175:1239  address linkAddress = 0xE4aB69C077896252FAFBD49EFD26B5D171A32410 */\n  0x03\n  exp(0x0100, 0x00)\n  dup2\n  sload\n  dup2\n  0xffffffffffffffffffffffffffffffffffffffff\n  mul\n  not\n  and\n  swap1\n  dup4\n  0xffffffffffffffffffffffffffffffffffffffff\n  and\n  mul\n  or\n  swap1\n  sstore\n  pop\n    /* \"TreasuryManagerBASECCIPsender.sol\":1366:1386  14767482510784806043 */\n  0xccf0a31a221f3c9b\n    /* \"TreasuryManagerBASECCIPsender.sol\":1331:1386  uint64 _destinationChainSelector = 14767482510784806043 */\n  0x03\n  exp(0x0100, 0x14)\n  dup2\n  sload\n  dup2\n  0xffffffffffffffff\n  mul\n  not\n  and\n  swap1\n  dup4\n  0xffffffffffffffff\n  and\n  mul\n  or\n  swap1\n  sstore\n  pop\n    /* \"TreasuryManagerBASECCIPsender.sol\":2814:2931  constructor() {... */\n  callvalue\n  dup1\n  iszero\n  tag_1\n  jumpi\n  0x00\n  dup1\n  revert\ntag_1:\n  pop\n    /* \"@chainlink/contracts/src/v0.8/shared/access/OwnerIsCreator.sol\":291:301  msg.sender */\n  caller\n    /* \"@chainlink/contracts/src/v0.8/shared/access/ConfirmedOwner.sol\":355:363  newOwner */\n  dup1\n    /* \"@chainlink/contracts/src/v0.8/shared/access/ConfirmedOwner.sol\":373:374  0 */\n  0x00\n    /* \"@chainlink/contracts/src/v0.8/shared/access/ConfirmedOwnerWithProposal.sol\":618:619  0 */\n  dup1\n    /* \"@chainlink/contracts/src/v0.8/shared/access/ConfirmedOwnerWithProposal.sol\":598:620  newOwner != address(0) */\n  0xffffffffffffffffffffffffffffffffffffffff\n  and\n    /* \"@chainlink/contracts/src/v0.8/shared/access/ConfirmedOwnerWithProposal.sol\":598:606  newOwner */\n  dup3\n    /* \"@chainlink/contracts/src/v0.8/shared/access/ConfirmedOwnerWithProposal.sol\":598:620  newOwner != address(0) */\n  0xffffffffffffffffffffffffffffffffffffffff\n  and\n  sub\n    /* \"@chainlink/contracts/src/v0.8/shared/access/ConfirmedOwnerWithProposal.sol\":590:649  require(newOwner != address(0), \"Cannot set owner to zero\") */\n  tag_7\n  jumpi\n  mload(0x40)\n  0x08c379a000000000000000000000000000000000000000000000000000000000\n  dup2\n  mstore\n  0x04\n  add\n  tag_8\n  swap1\n  tag_9\n  jump\t// in\ntag_8:\n  mload(0x40)\n  dup1\n  swap2\n  sub\n  swap1\n  revert\ntag_7:\n    /* \"@chainlink/contracts/src/v0.8/shared/access/ConfirmedOwnerWithProposal.sol\":666:674  newOwner */\n  dup2\n    /* \"@chainlink/contracts/src/v0.8/shared/access/ConfirmedOwnerWithProposal.sol\":656:663  s_owner */\n  0x00\n  dup1\n    /* \"@chainlink/contracts/src/v0.8/shared/access/ConfirmedOwnerWithProposal.sol\":656:674  s_owner = newOwner */\n  0x0100\n  exp\n  dup2\n  sload\n  dup2\n  0xffffffffffffffffffffffffffffffffffffffff\n  mul\n  not\n  and\n  swap1\n  dup4\n  0xffffffffffffffffffffffffffffffffffffffff\n  and\n  mul\n  or\n  swap1\n  sstore\n  pop\n    /* \"@chainlink/contracts/src/v0.8/shared/access/ConfirmedOwnerWithProposal.sol\":708:709  0 */\n  0x00\n    /* \"@chainlink/contracts/src/v0.8/shared/access/ConfirmedOwnerWithProposal.sol\":684:710  pendingOwner != address(0) */\n  0xffffffffffffffffffffffffffffffffffffffff\n  and\n    /* \"@chainlink/contracts/src/v0.8/shared/access/ConfirmedOwnerWithProposal.sol\":684:696  pendingOwner */\n  dup2\n    /* \"@chainlink/contracts/src/v0.8/shared/access/ConfirmedOwnerWithProposal.sol\":684:710  pendingOwner != address(0) */\n  0xffffffffffffffffffffffffffffffffffffffff\n  and\n  eq\n    /* \"@chainlink/contracts/src/v0.8/shared/access/ConfirmedOwnerWithProposal.sol\":680:759  if (pendingOwner != address(0)) {... */\n  tag_10\n  jumpi\n    /* \"@chainlink/contracts/src/v0.8/shared/access/ConfirmedOwnerWithProposal.sol\":720:752  _transferOwnership(pendingOwner) */\n  tag_11\n    /* \"@chainlink/contracts/src/v0.8/shared/access/ConfirmedOwnerWithProposal.sol\":739:751  pendingOwner */\n  dup2\n    /* \"@chainlink/contracts/src/v0.8/shared/access/ConfirmedOwnerWithProposal.sol\":720:738  _transferOwnership */\n  shl(0x20, tag_12)\n    /* \"@chainlink/contracts/src/v0.8/shared/access/ConfirmedOwnerWithProposal.sol\":720:752  _transferOwnership(pendingOwner) */\n  0x20\n  shr\n  jump\t// in\ntag_11:\n    /* \"@chainlink/contracts/src/v0.8/shared/access/ConfirmedOwnerWithProposal.sol\":680:759  if (pendingOwner != address(0)) {... */\ntag_10:\n    /* \"@chainlink/contracts/src/v0.8/shared/access/ConfirmedOwnerWithProposal.sol\":481:763  constructor(address newOwner, address pendingOwner) {... */\n  pop\n  pop\n    /* \"@chainlink/contracts/src/v0.8/shared/access/ConfirmedOwner.sol\":298:379  constructor(address newOwner) ConfirmedOwnerWithProposal(newOwner, address(0)) {} */\n  pop\n    /* \"TreasuryManagerBASECCIPsender.sol\":2863:2880  ccipRouterAddress */\n  0x02\n  0x00\n  swap1\n  sload\n  swap1\n  0x0100\n  exp\n  swap1\n  div\n  0xffffffffffffffffffffffffffffffffffffffff\n  and\n    /* \"TreasuryManagerBASECCIPsender.sol\":2838:2846  s_router */\n  0x04\n  0x00\n    /* \"TreasuryManagerBASECCIPsender.sol\":2838:2881  s_router = IRouterClient(ccipRouterAddress) */\n  0x0100\n  exp\n  dup2\n  sload\n  dup2\n  0xffffffffffffffffffffffffffffffffffffffff\n  mul\n  not\n  and\n  swap1\n  dup4\n  0xffffffffffffffffffffffffffffffffffffffff\n  and\n  mul\n  or\n  swap1\n  sstore\n  pop\n    /* \"TreasuryManagerBASECCIPsender.sol\":2912:2923  linkAddress */\n  0x03\n  0x00\n  swap1\n  sload\n  swap1\n  0x0100\n  exp\n  swap1\n  div\n  0xffffffffffffffffffffffffffffffffffffffff\n  and\n    /* \"TreasuryManagerBASECCIPsender.sol\":2891:2902  s_linkToken */\n  0x05\n  0x00\n    /* \"TreasuryManagerBASECCIPsender.sol\":2891:2924  s_linkToken = IERC20(linkAddress) */\n  0x0100\n  exp\n  dup2\n  sload\n  dup2\n  0xffffffffffffffffffffffffffffffffffffffff\n  mul\n  not\n  and\n  swap1\n  dup4\n  0xffffffffffffffffffffffffffffffffffffffff\n  and\n  mul\n  or\n  swap1\n  sstore\n  pop\n    /* \"TreasuryManagerBASECCIPsender.sol\":836:12101  contract TreasuryManagerBASECCIPsender is OwnerIsCreator {... */\n  jump(tag_16)\n    /* \"@chainlink/contracts/src/v0.8/shared/access/ConfirmedOwnerWithProposal.sol\":1536:1775  function _transferOwnership(address to) private {... */\ntag_12:\n    /* \"@chainlink/contracts/src/v0.8/shared/access/ConfirmedOwnerWithProposal.sol\":1655:1665  msg.sender */\n  caller\n    /* \"@chainlink/contracts/src/v0.8/shared/access/ConfirmedOwnerWithProposal.sol\":1649:1665  to != msg.sender */\n  0xffffffffffffffffffffffffffffffffffffffff\n  and\n    /* \"@chainlink/contracts/src/v0.8/shared/access/ConfirmedOwnerWithProposal.sol\":1649:1651  to */\n  dup2\n    /* \"@chainlink/contracts/src/v0.8/shared/access/ConfirmedOwnerWithProposal.sol\":1649:1665  to != msg.sender */\n  0xffffffffffffffffffffffffffffffffffffffff\n  and\n  sub\n    /* \"@chainlink/contracts/src/v0.8/shared/access/ConfirmedOwnerWithProposal.sol\":1641:1693  require(to != msg.sender, \"Cannot transfer to self\") */\n  tag_18\n  jumpi\n  mload(0x40)\n  0x08c379a000000000000000000000000000000000000000000000000000000000\n  dup2\n  mstore\n  0x04\n  add\n  tag_19\n  swap1\n  tag_20\n  jump\t// in\ntag_19:\n  mload(0x40)\n  dup1\n  swap2\n  sub\n  swap1\n  revert\ntag_18:\n    /* \"@chainlink/contracts/src/v0.8/shared/access/ConfirmedOwnerWithProposal.sol\":1717:1719  to */\n  dup1\n    /* \"@chainlink/contracts/src/v0.8/shared/access/ConfirmedOwnerWithProposal.sol\":1700:1714  s_pendingOwner */\n  0x01\n  0x00\n    /* \"@chainlink/contracts/src/v0.8/shared/access/ConfirmedOwnerWithProposal.sol\":1700:1719  s_pendingOwner = to */\n  0x0100\n  exp\n  dup2\n  sload\n  dup2\n  0xffffffffffffffffffffffffffffffffffffffff\n  mul\n  not\n  and\n  swap1\n  dup4\n  0xffffffffffffffffffffffffffffffffffffffff\n  and\n  mul\n  or\n  swap1\n  sstore\n  pop\n    /* \"@chainlink/contracts/src/v0.8/shared/access/ConfirmedOwnerWithProposal.sol\":1767:1769  to */\n  dup1\n    /* \"@chainlink/contracts/src/v0.8/shared/access/ConfirmedOwnerWithProposal.sol\":1731:1770  OwnershipTransferRequested(s_owner, to) */\n  0xffffffffffffffffffffffffffffffffffffffff\n  and\n    /* \"@chainlink/contracts/src/v0.8/shared/access/ConfirmedOwnerWithProposal.sol\":1758:1765  s_owner */\n  0x00\n  dup1\n  sload\n  swap1\n  0x0100\n  exp\n  swap1\n  div\n  0xffffffffffffffffffffffffffffffffffffffff\n  and\n    /* \"@chainlink/contracts/src/v0.8/shared/access/ConfirmedOwnerWithProposal.sol\":1731:1770  OwnershipTransferRequested(s_owner, to) */\n  0xffffffffffffffffffffffffffffffffffffffff\n  and\n  0xed8889f560326eb138920d842192f0eb3dd22b4f139c87a2c57538e05bae1278\n  mload(0x40)\n  mload(0x40)\n  dup1\n  swap2\n  sub\n  swap1\n  log3\n    /* \"@chainlink/contracts/src/v0.8/shared/access/ConfirmedOwnerWithProposal.sol\":1536:1775  function _transferOwnership(address to) private {... */\n  pop\n  jump\t// out\n    /* \"#utility.yul\":7:176   */\ntag_21:\n    /* \"#utility.yul\":91:102   */\n  0x00\n    /* \"#utility.yul\":125:131   */\n  dup3\n    /* \"#utility.yul\":120:123   */\n  dup3\n    /* \"#utility.yul\":113:132   */\n  mstore\n    /* \"#utility.yul\":165:169   */\n  0x20\n    /* \"#utility.yul\":160:163   */\n  dup3\n    /* \"#utility.yul\":156:170   */\n  add\n    /* \"#utility.yul\":141:170   */\n  swap1\n  pop\n    /* \"#utility.yul\":7:176   */\n  swap3\n  swap2\n  pop\n  pop\n  jump\t// out\n    /* \"#utility.yul\":182:356   */\ntag_22:\n    /* \"#utility.yul\":322:348   */\n  0x43616e6e6f7420736574206f776e657220746f207a65726f0000000000000000\n    /* \"#utility.yul\":318:319   */\n  0x00\n    /* \"#utility.yul\":310:316   */\n  dup3\n    /* \"#utility.yul\":306:320   */\n  add\n    /* \"#utility.yul\":299:349   */\n  mstore\n    /* \"#utility.yul\":182:356   */\n  pop\n  jump\t// out\n    /* \"#utility.yul\":362:728   */\ntag_23:\n    /* \"#utility.yul\":504:507   */\n  0x00\n    /* \"#utility.yul\":525:592   */\n  tag_30\n    /* \"#utility.yul\":589:591   */\n  0x18\n    /* \"#utility.yul\":584:587   */\n  dup4\n    /* \"#utility.yul\":525:592   */\n  tag_21\n  jump\t// in\ntag_30:\n    /* \"#utility.yul\":518:592   */\n  swap2\n  pop\n    /* \"#utility.yul\":601:694   */\n  tag_31\n    /* \"#utility.yul\":690:693   */\n  dup3\n    /* \"#utility.yul\":601:694   */\n  tag_22\n  jump\t// in\ntag_31:\n    /* \"#utility.yul\":719:721   */\n  0x20\n    /* \"#utility.yul\":714:717   */\n  dup3\n    /* \"#utility.yul\":710:722   */\n  add\n    /* \"#utility.yul\":703:722   */\n  swap1\n  pop\n    /* \"#utility.yul\":362:728   */\n  swap2\n  swap1\n  pop\n  jump\t// out\n    /* \"#utility.yul\":734:1153   */\ntag_9:\n    /* \"#utility.yul\":900:904   */\n  0x00\n    /* \"#utility.yul\":938:940   */\n  0x20\n    /* \"#utility.yul\":927:936   */\n  dup3\n    /* \"#utility.yul\":923:941   */\n  add\n    /* \"#utility.yul\":915:941   */\n  swap1\n  pop\n    /* \"#utility.yul\":987:996   */\n  dup2\n    /* \"#utility.yul\":981:985   */\n  dup2\n    /* \"#utility.yul\":977:997   */\n  sub\n    /* \"#utility.yul\":973:974   */\n  0x00\n    /* \"#utility.yul\":962:971   */\n  dup4\n    /* \"#utility.yul\":958:975   */\n  add\n    /* \"#utility.yul\":951:998   */\n  mstore\n    /* \"#utility.yul\":1015:1146   */\n  tag_33\n    /* \"#utility.yul\":1141:1145   */\n  dup2\n    /* \"#utility.yul\":1015:1146   */\n  tag_23\n  jump\t// in\ntag_33:\n    /* \"#utility.yul\":1007:1146   */\n  swap1\n  pop\n    /* \"#utility.yul\":734:1153   */\n  swap2\n  swap1\n  pop\n  jump\t// out\n    /* \"#utility.yul\":1159:1332   */\ntag_24:\n    /* \"#utility.yul\":1299:1324   */\n  0x43616e6e6f74207472616e7366657220746f2073656c66000000000000000000\n    /* \"#utility.yul\":1295:1296   */\n  0x00\n    /* \"#utility.yul\":1287:1293   */\n  dup3\n    /* \"#utility.yul\":1283:1297   */\n  add\n    /* \"#utility.yul\":1276:1325   */\n  mstore\n    /* \"#utility.yul\":1159:1332   */\n  pop\n  jump\t// out\n    /* \"#utility.yul\":1338:1704   */\ntag_25:\n    /* \"#utility.yul\":1480:1483   */\n  0x00\n    /* \"#utility.yul\":1501:1568   */\n  tag_36\n    /* \"#utility.yul\":1565:1567   */\n  0x17\n    /* \"#utility.yul\":1560:1563   */\n  dup4\n    /* \"#utility.yul\":1501:1568   */\n  tag_21\n  jump\t// in\ntag_36:\n    /* \"#utility.yul\":1494:1568   */\n  swap2\n  pop\n    /* \"#utility.yul\":1577:1670   */\n  tag_37\n    /* \"#utility.yul\":1666:1669   */\n  dup3\n    /* \"#utility.yul\":1577:1670   */\n  tag_24\n  jump\t// in\ntag_37:\n    /* \"#utility.yul\":1695:1697   */\n  0x20\n    /* \"#utility.yul\":1690:1693   */\n  dup3\n    /* \"#utility.yul\":1686:1698   */\n  add\n    /* \"#utility.yul\":1679:1698   */\n  swap1\n  pop\n    /* \"#utility.yul\":1338:1704   */\n  swap2\n  swap1\n  pop\n  jump\t// out\n    /* \"#utility.yul\":1710:2129   */\ntag_20:\n    /* \"#utility.yul\":1876:1880   */\n  0x00\n    /* \"#utility.yul\":1914:1916   */\n  0x20\n    /* \"#utility.yul\":1903:1912   */\n  dup3\n    /* \"#utility.yul\":1899:1917   */\n  add\n    /* \"#utility.yul\":1891:1917   */\n  swap1\n  pop\n    /* \"#utility.yul\":1963:1972   */\n  dup2\n    /* \"#utility.yul\":1957:1961   */\n  dup2\n    /* \"#utility.yul\":1953:1973   */\n  sub\n    /* \"#utility.yul\":1949:1950   */\n  0x00\n    /* \"#utility.yul\":1938:1947   */\n  dup4\n    /* \"#utility.yul\":1934:1951   */\n  add\n    /* \"#utility.yul\":1927:1974   */\n  mstore\n    /* \"#utility.yul\":1991:2122   */\n  tag_39\n    /* \"#utility.yul\":2117:2121   */\n  dup2\n    /* \"#utility.yul\":1991:2122   */\n  tag_25\n  jump\t// in\ntag_39:\n    /* \"#utility.yul\":1983:2122   */\n  swap1\n  pop\n    /* \"#utility.yul\":1710:2129   */\n  swap2\n  swap1\n  pop\n  jump\t// out\n    /* \"TreasuryManagerBASECCIPsender.sol\":836:12101  contract TreasuryManagerBASECCIPsender is OwnerIsCreator {... */\ntag_16:\n  dataSize(sub_0)\n  dup1\n  dataOffset(sub_0)\n  0x00\n  codecopy\n  0x00\n  return\nstop\n\nsub_0: assembly {\n        /* \"TreasuryManagerBASECCIPsender.sol\":836:12101  contract TreasuryManagerBASECCIPsender is OwnerIsCreator {... */\n      mstore(0x40, 0x80)\n      jumpi(tag_1, lt(calldatasize, 0x04))\n      shr(0xe0, calldataload(0x00))\n      dup1\n      0x8afe0f51\n      gt\n      tag_10\n      jumpi\n      dup1\n      0x8afe0f51\n      eq\n      tag_6\n      jumpi\n      dup1\n      0x8da5cb5b\n      eq\n      tag_7\n      jumpi\n      dup1\n      0xbbb6eae5\n      eq\n      tag_8\n      jumpi\n      dup1\n      0xf2fde38b\n      eq\n      tag_9\n      jumpi\n      jump(tag_2)\n    tag_10:\n      dup1\n      0x3aeac4e1\n      eq\n      tag_3\n      jumpi\n      dup1\n      0x51cff8d9\n      eq\n      tag_4\n      jumpi\n      dup1\n      0x79ba5097\n      eq\n      tag_5\n      jumpi\n      jump(tag_2)\n    tag_1:\n      jumpi(tag_2, calldatasize)\n      stop\n    tag_2:\n      0x00\n      dup1\n      revert\n        /* \"TreasuryManagerBASECCIPsender.sol\":11713:12099  function withdrawToken(... */\n    tag_3:\n      callvalue\n      dup1\n      iszero\n      tag_13\n      jumpi\n      0x00\n      dup1\n      revert\n    tag_13:\n      pop\n      tag_14\n      0x04\n      dup1\n      calldatasize\n      sub\n      dup2\n      add\n      swap1\n      tag_15\n      swap2\n      swap1\n      tag_16\n      jump\t// in\n    tag_15:\n      tag_17\n      jump\t// in\n    tag_14:\n      stop\n        /* \"TreasuryManagerBASECCIPsender.sol\":10759:11351  function withdraw(address _beneficiary) public onlyOwner {... */\n    tag_4:\n      callvalue\n      dup1\n      iszero\n      tag_18\n      jumpi\n      0x00\n      dup1\n      revert\n    tag_18:\n      pop\n      tag_19\n      0x04\n      dup1\n      calldatasize\n      sub\n      dup2\n      add\n      swap1\n      tag_20\n      swap2\n      swap1\n      tag_21\n      jump\t// in\n    tag_20:\n      tag_22\n      jump\t// in\n    tag_19:\n      stop\n        /* \"@chainlink/contracts/src/v0.8/shared/access/ConfirmedOwnerWithProposal.sol\":1026:1342  function acceptOwnership() external override {... */\n    tag_5:\n      callvalue\n      dup1\n      iszero\n      tag_23\n      jumpi\n      0x00\n      dup1\n      revert\n    tag_23:\n      pop\n      tag_24\n      tag_25\n      jump\t// in\n    tag_24:\n      stop\n        /* \"TreasuryManagerBASECCIPsender.sol\":6083:7637  function transferTokensPayNative(... */\n    tag_6:\n      callvalue\n      dup1\n      iszero\n      tag_26\n      jumpi\n      0x00\n      dup1\n      revert\n    tag_26:\n      pop\n      tag_27\n      0x04\n      dup1\n      calldatasize\n      sub\n      dup2\n      add\n      swap1\n      tag_28\n      swap2\n      swap1\n      tag_29\n      jump\t// in\n    tag_28:\n      tag_30\n      jump\t// in\n    tag_27:\n      mload(0x40)\n      tag_31\n      swap2\n      swap1\n      tag_32\n      jump\t// in\n    tag_31:\n      mload(0x40)\n      dup1\n      swap2\n      sub\n      swap1\n      return\n        /* \"@chainlink/contracts/src/v0.8/shared/access/ConfirmedOwnerWithProposal.sol\":1382:1463  function owner() public view override returns (address) {... */\n    tag_7:\n      callvalue\n      dup1\n      iszero\n      tag_33\n      jumpi\n      0x00\n      dup1\n      revert\n    tag_33:\n      pop\n      tag_34\n      tag_35\n      jump\t// in\n    tag_34:\n      mload(0x40)\n      tag_36\n      swap2\n      swap1\n      tag_37\n      jump\t// in\n    tag_36:\n      mload(0x40)\n      dup1\n      swap2\n      sub\n      swap1\n      return\n        /* \"TreasuryManagerBASECCIPsender.sol\":3723:5477  function transferTokensPayLINK(... */\n    tag_8:\n      callvalue\n      dup1\n      iszero\n      tag_38\n      jumpi\n      0x00\n      dup1\n      revert\n    tag_38:\n      pop\n      tag_39\n      0x04\n      dup1\n      calldatasize\n      sub\n      dup2\n      add\n      swap1\n      tag_40\n      swap2\n      swap1\n      tag_29\n      jump\t// in\n    tag_40:\n      tag_41\n      jump\t// in\n    tag_39:\n      mload(0x40)\n      tag_42\n      swap2\n      swap1\n      tag_32\n      jump\t// in\n    tag_42:\n      mload(0x40)\n      dup1\n      swap2\n      sub\n      swap1\n      return\n        /* \"@chainlink/contracts/src/v0.8/shared/access/ConfirmedOwnerWithProposal.sol\":847:945  function transferOwnership(address to) public override onlyOwner {... */\n    tag_9:\n      callvalue\n      dup1\n      iszero\n      tag_43\n      jumpi\n      0x00\n      dup1\n      revert\n    tag_43:\n      pop\n      tag_44\n      0x04\n      dup1\n      calldatasize\n      sub\n      dup2\n      add\n      swap1\n      tag_45\n      swap2\n      swap1\n      tag_21\n      jump\t// in\n    tag_45:\n      tag_46\n      jump\t// in\n    tag_44:\n      stop\n        /* \"TreasuryManagerBASECCIPsender.sol\":11713:12099  function withdrawToken(... */\n    tag_17:\n        /* \"@chainlink/contracts/src/v0.8/shared/access/ConfirmedOwnerWithProposal.sol\":2075:2095  _validateOwnership() */\n      tag_48\n        /* \"@chainlink/contracts/src/v0.8/shared/access/ConfirmedOwnerWithProposal.sol\":2075:2093  _validateOwnership */\n      tag_49\n        /* \"@chainlink/contracts/src/v0.8/shared/access/ConfirmedOwnerWithProposal.sol\":2075:2095  _validateOwnership() */\n      jump\t// in\n    tag_48:\n        /* \"TreasuryManagerBASECCIPsender.sol\":11872:11886  uint256 amount */\n      0x00\n        /* \"TreasuryManagerBASECCIPsender.sol\":11896:11902  _token */\n      dup2\n        /* \"TreasuryManagerBASECCIPsender.sol\":11889:11913  IERC20(_token).balanceOf */\n      0xffffffffffffffffffffffffffffffffffffffff\n      and\n      0x70a08231\n        /* \"TreasuryManagerBASECCIPsender.sol\":11922:11926  this */\n      address\n        /* \"TreasuryManagerBASECCIPsender.sol\":11889:11928  IERC20(_token).balanceOf(address(this)) */\n      mload(0x40)\n      dup3\n      0xffffffff\n      and\n      0xe0\n      shl\n      dup2\n      mstore\n      0x04\n      add\n      tag_51\n      swap2\n      swap1\n      tag_37\n      jump\t// in\n    tag_51:\n      0x20\n      mload(0x40)\n      dup1\n      dup4\n      sub\n      dup2\n      dup7\n      gas\n      staticcall\n      iszero\n      dup1\n      iszero\n      tag_53\n      jumpi\n      returndatasize\n      0x00\n      dup1\n      returndatacopy\n      revert(0x00, returndatasize)\n    tag_53:\n      pop\n      pop\n      pop\n      pop\n      mload(0x40)\n      returndatasize\n      not(0x1f)\n      0x1f\n      dup3\n      add\n      and\n      dup3\n      add\n      dup1\n      0x40\n      mstore\n      pop\n      dup2\n      add\n      swap1\n      tag_54\n      swap2\n      swap1\n      tag_55\n      jump\t// in\n    tag_54:\n        /* \"TreasuryManagerBASECCIPsender.sol\":11872:11928  uint256 amount = IERC20(_token).balanceOf(address(this)) */\n      swap1\n      pop\n        /* \"TreasuryManagerBASECCIPsender.sol\":12003:12004  0 */\n      0x00\n        /* \"TreasuryManagerBASECCIPsender.sol\":11993:11999  amount */\n      dup2\n        /* \"TreasuryManagerBASECCIPsender.sol\":11993:12004  amount == 0 */\n      sub\n        /* \"TreasuryManagerBASECCIPsender.sol\":11989:12032  if (amount == 0) revert NothingToWithdraw() */\n      tag_56\n      jumpi\n        /* \"TreasuryManagerBASECCIPsender.sol\":12013:12032  NothingToWithdraw() */\n      mload(0x40)\n      0xd0d04f6000000000000000000000000000000000000000000000000000000000\n      dup2\n      mstore\n      0x04\n      add\n      mload(0x40)\n      dup1\n      swap2\n      sub\n      swap1\n      revert\n        /* \"TreasuryManagerBASECCIPsender.sol\":11989:12032  if (amount == 0) revert NothingToWithdraw() */\n    tag_56:\n        /* \"TreasuryManagerBASECCIPsender.sol\":12043:12092  IERC20(_token).safeTransfer(_beneficiary, amount) */\n      tag_57\n        /* \"TreasuryManagerBASECCIPsender.sol\":12071:12083  _beneficiary */\n      dup4\n        /* \"TreasuryManagerBASECCIPsender.sol\":12085:12091  amount */\n      dup3\n        /* \"TreasuryManagerBASECCIPsender.sol\":12050:12056  _token */\n      dup5\n        /* \"TreasuryManagerBASECCIPsender.sol\":12043:12070  IERC20(_token).safeTransfer */\n      0xffffffffffffffffffffffffffffffffffffffff\n      and\n      tag_58\n      swap1\n        /* \"TreasuryManagerBASECCIPsender.sol\":12043:12092  IERC20(_token).safeTransfer(_beneficiary, amount) */\n      swap3\n      swap2\n      swap1\n      0xffffffff\n      and\n      jump\t// in\n    tag_57:\n        /* \"TreasuryManagerBASECCIPsender.sol\":11813:12099  {... */\n      pop\n        /* \"TreasuryManagerBASECCIPsender.sol\":11713:12099  function withdrawToken(... */\n      pop\n      pop\n      jump\t// out\n        /* \"TreasuryManagerBASECCIPsender.sol\":10759:11351  function withdraw(address _beneficiary) public onlyOwner {... */\n    tag_22:\n        /* \"@chainlink/contracts/src/v0.8/shared/access/ConfirmedOwnerWithProposal.sol\":2075:2095  _validateOwnership() */\n      tag_60\n        /* \"@chainlink/contracts/src/v0.8/shared/access/ConfirmedOwnerWithProposal.sol\":2075:2093  _validateOwnership */\n      tag_49\n        /* \"@chainlink/contracts/src/v0.8/shared/access/ConfirmedOwnerWithProposal.sol\":2075:2095  _validateOwnership() */\n      jump\t// in\n    tag_60:\n        /* \"TreasuryManagerBASECCIPsender.sol\":10875:10889  uint256 amount */\n      0x00\n        /* \"TreasuryManagerBASECCIPsender.sol\":10892:10913  address(this).balance */\n      selfbalance\n        /* \"TreasuryManagerBASECCIPsender.sol\":10875:10913  uint256 amount = address(this).balance */\n      swap1\n      pop\n        /* \"TreasuryManagerBASECCIPsender.sol\":10988:10989  0 */\n      0x00\n        /* \"TreasuryManagerBASECCIPsender.sol\":10978:10984  amount */\n      dup2\n        /* \"TreasuryManagerBASECCIPsender.sol\":10978:10989  amount == 0 */\n      sub\n        /* \"TreasuryManagerBASECCIPsender.sol\":10974:11017  if (amount == 0) revert NothingToWithdraw() */\n      tag_62\n      jumpi\n        /* \"TreasuryManagerBASECCIPsender.sol\":10998:11017  NothingToWithdraw() */\n      mload(0x40)\n      0xd0d04f6000000000000000000000000000000000000000000000000000000000\n      dup2\n      mstore\n      0x04\n      add\n      mload(0x40)\n      dup1\n      swap2\n      sub\n      swap1\n      revert\n        /* \"TreasuryManagerBASECCIPsender.sol\":10974:11017  if (amount == 0) revert NothingToWithdraw() */\n    tag_62:\n        /* \"TreasuryManagerBASECCIPsender.sol\":11127:11136  bool sent */\n      0x00\n        /* \"TreasuryManagerBASECCIPsender.sol\":11142:11154  _beneficiary */\n      dup3\n        /* \"TreasuryManagerBASECCIPsender.sol\":11142:11159  _beneficiary.call */\n      0xffffffffffffffffffffffffffffffffffffffff\n      and\n        /* \"TreasuryManagerBASECCIPsender.sol\":11167:11173  amount */\n      dup3\n        /* \"TreasuryManagerBASECCIPsender.sol\":11142:11178  _beneficiary.call{value: amount}(\"\") */\n      mload(0x40)\n      tag_63\n      swap1\n      tag_64\n      jump\t// in\n    tag_63:\n      0x00\n      mload(0x40)\n      dup1\n      dup4\n      sub\n      dup2\n      dup6\n      dup8\n      gas\n      call\n      swap3\n      pop\n      pop\n      pop\n      returndatasize\n      dup1\n      0x00\n      dup2\n      eq\n      tag_67\n      jumpi\n      mload(0x40)\n      swap2\n      pop\n      and(add(returndatasize, 0x3f), not(0x1f))\n      dup3\n      add\n      0x40\n      mstore\n      returndatasize\n      dup3\n      mstore\n      returndatasize\n      0x00\n      0x20\n      dup5\n      add\n      returndatacopy\n      jump(tag_66)\n    tag_67:\n      0x60\n      swap2\n      pop\n    tag_66:\n      pop\n        /* \"TreasuryManagerBASECCIPsender.sol\":11126:11178  (bool sent, ) = _beneficiary.call{value: amount}(\"\") */\n      pop\n      swap1\n      pop\n        /* \"TreasuryManagerBASECCIPsender.sol\":11278:11282  sent */\n      dup1\n        /* \"TreasuryManagerBASECCIPsender.sol\":11273:11344  if (!sent) revert FailedToWithdrawEth(msg.sender, _beneficiary, amount) */\n      tag_68\n      jumpi\n        /* \"TreasuryManagerBASECCIPsender.sol\":11311:11321  msg.sender */\n      caller\n        /* \"TreasuryManagerBASECCIPsender.sol\":11323:11335  _beneficiary */\n      dup4\n        /* \"TreasuryManagerBASECCIPsender.sol\":11337:11343  amount */\n      dup4\n        /* \"TreasuryManagerBASECCIPsender.sol\":11291:11344  FailedToWithdrawEth(msg.sender, _beneficiary, amount) */\n      mload(0x40)\n      0x9d11f56300000000000000000000000000000000000000000000000000000000\n      dup2\n      mstore\n      0x04\n      add\n      tag_69\n      swap4\n      swap3\n      swap2\n      swap1\n      tag_70\n      jump\t// in\n    tag_69:\n      mload(0x40)\n      dup1\n      swap2\n      sub\n      swap1\n      revert\n        /* \"TreasuryManagerBASECCIPsender.sol\":11273:11344  if (!sent) revert FailedToWithdrawEth(msg.sender, _beneficiary, amount) */\n    tag_68:\n        /* \"TreasuryManagerBASECCIPsender.sol\":10816:11351  {... */\n      pop\n      pop\n        /* \"TreasuryManagerBASECCIPsender.sol\":10759:11351  function withdraw(address _beneficiary) public onlyOwner {... */\n      pop\n      jump\t// out\n        /* \"@chainlink/contracts/src/v0.8/shared/access/ConfirmedOwnerWithProposal.sol\":1026:1342  function acceptOwnership() external override {... */\n    tag_25:\n        /* \"@chainlink/contracts/src/v0.8/shared/access/ConfirmedOwnerWithProposal.sol\":1150:1164  s_pendingOwner */\n      0x01\n      0x00\n      swap1\n      sload\n      swap1\n      0x0100\n      exp\n      swap1\n      div\n      0xffffffffffffffffffffffffffffffffffffffff\n      and\n        /* \"@chainlink/contracts/src/v0.8/shared/access/ConfirmedOwnerWithProposal.sol\":1136:1164  msg.sender == s_pendingOwner */\n      0xffffffffffffffffffffffffffffffffffffffff\n      and\n        /* \"@chainlink/contracts/src/v0.8/shared/access/ConfirmedOwnerWithProposal.sol\":1136:1146  msg.sender */\n      caller\n        /* \"@chainlink/contracts/src/v0.8/shared/access/ConfirmedOwnerWithProposal.sol\":1136:1164  msg.sender == s_pendingOwner */\n      0xffffffffffffffffffffffffffffffffffffffff\n      and\n      eq\n        /* \"@chainlink/contracts/src/v0.8/shared/access/ConfirmedOwnerWithProposal.sol\":1128:1191  require(msg.sender == s_pendingOwner, \"Must be proposed owner\") */\n      tag_72\n      jumpi\n      mload(0x40)\n      0x08c379a000000000000000000000000000000000000000000000000000000000\n      dup2\n      mstore\n      0x04\n      add\n      tag_73\n      swap1\n      tag_74\n      jump\t// in\n    tag_73:\n      mload(0x40)\n      dup1\n      swap2\n      sub\n      swap1\n      revert\n    tag_72:\n        /* \"@chainlink/contracts/src/v0.8/shared/access/ConfirmedOwnerWithProposal.sol\":1198:1214  address oldOwner */\n      0x00\n        /* \"@chainlink/contracts/src/v0.8/shared/access/ConfirmedOwnerWithProposal.sol\":1217:1224  s_owner */\n      dup1\n      0x00\n      swap1\n      sload\n      swap1\n      0x0100\n      exp\n      swap1\n      div\n      0xffffffffffffffffffffffffffffffffffffffff\n      and\n        /* \"@chainlink/contracts/src/v0.8/shared/access/ConfirmedOwnerWithProposal.sol\":1198:1224  address oldOwner = s_owner */\n      swap1\n      pop\n        /* \"@chainlink/contracts/src/v0.8/shared/access/ConfirmedOwnerWithProposal.sol\":1240:1250  msg.sender */\n      caller\n        /* \"@chainlink/contracts/src/v0.8/shared/access/ConfirmedOwnerWithProposal.sol\":1230:1237  s_owner */\n      0x00\n      dup1\n        /* \"@chainlink/contracts/src/v0.8/shared/access/ConfirmedOwnerWithProposal.sol\":1230:1250  s_owner = msg.sender */\n      0x0100\n      exp\n      dup2\n      sload\n      dup2\n      0xffffffffffffffffffffffffffffffffffffffff\n      mul\n      not\n      and\n      swap1\n      dup4\n      0xffffffffffffffffffffffffffffffffffffffff\n      and\n      mul\n      or\n      swap1\n      sstore\n      pop\n        /* \"@chainlink/contracts/src/v0.8/shared/access/ConfirmedOwnerWithProposal.sol\":1281:1282  0 */\n      0x00\n        /* \"@chainlink/contracts/src/v0.8/shared/access/ConfirmedOwnerWithProposal.sol\":1256:1270  s_pendingOwner */\n      0x01\n      0x00\n        /* \"@chainlink/contracts/src/v0.8/shared/access/ConfirmedOwnerWithProposal.sol\":1256:1283  s_pendingOwner = address(0) */\n      0x0100\n      exp\n      dup2\n      sload\n      dup2\n      0xffffffffffffffffffffffffffffffffffffffff\n      mul\n      not\n      and\n      swap1\n      dup4\n      0xffffffffffffffffffffffffffffffffffffffff\n      and\n      mul\n      or\n      swap1\n      sstore\n      pop\n        /* \"@chainlink/contracts/src/v0.8/shared/access/ConfirmedOwnerWithProposal.sol\":1326:1336  msg.sender */\n      caller\n        /* \"@chainlink/contracts/src/v0.8/shared/access/ConfirmedOwnerWithProposal.sol\":1295:1337  OwnershipTransferred(oldOwner, msg.sender) */\n      0xffffffffffffffffffffffffffffffffffffffff\n      and\n        /* \"@chainlink/contracts/src/v0.8/shared/access/ConfirmedOwnerWithProposal.sol\":1316:1324  oldOwner */\n      dup2\n        /* \"@chainlink/contracts/src/v0.8/shared/access/ConfirmedOwnerWithProposal.sol\":1295:1337  OwnershipTransferred(oldOwner, msg.sender) */\n      0xffffffffffffffffffffffffffffffffffffffff\n      and\n      0x8be0079c531659141344cd1fd0a4f28419497f9722a3daafe3b4186f6b6457e0\n      mload(0x40)\n      mload(0x40)\n      dup1\n      swap2\n      sub\n      swap1\n      log3\n        /* \"@chainlink/contracts/src/v0.8/shared/access/ConfirmedOwnerWithProposal.sol\":1071:1342  {... */\n      pop\n        /* \"@chainlink/contracts/src/v0.8/shared/access/ConfirmedOwnerWithProposal.sol\":1026:1342  function acceptOwnership() external override {... */\n      jump\t// out\n        /* \"TreasuryManagerBASECCIPsender.sol\":6083:7637  function transferTokensPayNative(... */\n    tag_30:\n        /* \"TreasuryManagerBASECCIPsender.sol\":6286:6303  bytes32 messageId */\n      0x00\n        /* \"@chainlink/contracts/src/v0.8/shared/access/ConfirmedOwnerWithProposal.sol\":2075:2095  _validateOwnership() */\n      tag_76\n        /* \"@chainlink/contracts/src/v0.8/shared/access/ConfirmedOwnerWithProposal.sol\":2075:2093  _validateOwnership */\n      tag_49\n        /* \"@chainlink/contracts/src/v0.8/shared/access/ConfirmedOwnerWithProposal.sol\":2075:2095  _validateOwnership() */\n      jump\t// in\n    tag_76:\n        /* \"TreasuryManagerBASECCIPsender.sol\":6258:6267  _receiver */\n      dup4\n        /* \"TreasuryManagerBASECCIPsender.sol\":3130:3131  0 */\n      0x00\n        /* \"TreasuryManagerBASECCIPsender.sol\":3109:3132  _receiver == address(0) */\n      0xffffffffffffffffffffffffffffffffffffffff\n      and\n        /* \"TreasuryManagerBASECCIPsender.sol\":3109:3118  _receiver */\n      dup2\n        /* \"TreasuryManagerBASECCIPsender.sol\":3109:3132  _receiver == address(0) */\n      0xffffffffffffffffffffffffffffffffffffffff\n      and\n      sub\n        /* \"TreasuryManagerBASECCIPsender.sol\":3105:3165  if (_receiver == address(0)) revert InvalidReceiverAddress() */\n      tag_78\n      jumpi\n        /* \"TreasuryManagerBASECCIPsender.sol\":3141:3165  InvalidReceiverAddress() */\n      mload(0x40)\n      0xa05ff47e00000000000000000000000000000000000000000000000000000000\n      dup2\n      mstore\n      0x04\n      add\n      mload(0x40)\n      dup1\n      swap2\n      sub\n      swap1\n      revert\n        /* \"TreasuryManagerBASECCIPsender.sol\":3105:3165  if (_receiver == address(0)) revert InvalidReceiverAddress() */\n    tag_78:\n        /* \"TreasuryManagerBASECCIPsender.sol\":6489:6532  Client.EVM2AnyMessage memory evm2AnyMessage */\n      0x00\n        /* \"TreasuryManagerBASECCIPsender.sol\":6535:6650  _buildCCIPMessage(... */\n      tag_80\n        /* \"TreasuryManagerBASECCIPsender.sol\":6566:6575  _receiver */\n      dup7\n        /* \"TreasuryManagerBASECCIPsender.sol\":6589:6595  _token */\n      dup7\n        /* \"TreasuryManagerBASECCIPsender.sol\":6609:6616  _amount */\n      dup7\n        /* \"TreasuryManagerBASECCIPsender.sol\":6638:6639  0 */\n      0x00\n        /* \"TreasuryManagerBASECCIPsender.sol\":6535:6552  _buildCCIPMessage */\n      tag_81\n        /* \"TreasuryManagerBASECCIPsender.sol\":6535:6650  _buildCCIPMessage(... */\n      jump\t// in\n    tag_80:\n        /* \"TreasuryManagerBASECCIPsender.sol\":6489:6650  Client.EVM2AnyMessage memory evm2AnyMessage = _buildCCIPMessage(... */\n      swap1\n      pop\n        /* \"TreasuryManagerBASECCIPsender.sol\":6713:6725  uint256 fees */\n      0x00\n        /* \"TreasuryManagerBASECCIPsender.sol\":6728:6736  s_router */\n      0x04\n      0x00\n      swap1\n      sload\n      swap1\n      0x0100\n      exp\n      swap1\n      div\n      0xffffffffffffffffffffffffffffffffffffffff\n      and\n        /* \"TreasuryManagerBASECCIPsender.sol\":6728:6743  s_router.getFee */\n      0xffffffffffffffffffffffffffffffffffffffff\n      and\n      0x20487ded\n        /* \"TreasuryManagerBASECCIPsender.sol\":6757:6782  _destinationChainSelector */\n      0x03\n      0x14\n      swap1\n      sload\n      swap1\n      0x0100\n      exp\n      swap1\n      div\n      0xffffffffffffffff\n      and\n        /* \"TreasuryManagerBASECCIPsender.sol\":6796:6810  evm2AnyMessage */\n      dup5\n        /* \"TreasuryManagerBASECCIPsender.sol\":6728:6820  s_router.getFee(... */\n      mload(0x40)\n      dup4\n      0xffffffff\n      and\n      0xe0\n      shl\n      dup2\n      mstore\n      0x04\n      add\n      tag_82\n      swap3\n      swap2\n      swap1\n      tag_83\n      jump\t// in\n    tag_82:\n      0x20\n      mload(0x40)\n      dup1\n      dup4\n      sub\n      dup2\n      dup7\n      gas\n      staticcall\n      iszero\n      dup1\n      iszero\n      tag_85\n      jumpi\n      returndatasize\n      0x00\n      dup1\n      returndatacopy\n      revert(0x00, returndatasize)\n    tag_85:\n      pop\n      pop\n      pop\n      pop\n      mload(0x40)\n      returndatasize\n      not(0x1f)\n      0x1f\n      dup3\n      add\n      and\n      dup3\n      add\n      dup1\n      0x40\n      mstore\n      pop\n      dup2\n      add\n      swap1\n      tag_86\n      swap2\n      swap1\n      tag_55\n      jump\t// in\n    tag_86:\n        /* \"TreasuryManagerBASECCIPsender.sol\":6713:6820  uint256 fees = s_router.getFee(... */\n      swap1\n      pop\n        /* \"TreasuryManagerBASECCIPsender.sol\":6842:6863  address(this).balance */\n      selfbalance\n        /* \"TreasuryManagerBASECCIPsender.sol\":6835:6839  fees */\n      dup2\n        /* \"TreasuryManagerBASECCIPsender.sol\":6835:6863  fees > address(this).balance */\n      gt\n        /* \"TreasuryManagerBASECCIPsender.sol\":6831:6929  if (fees > address(this).balance)... */\n      iszero\n      tag_87\n      jumpi\n        /* \"TreasuryManagerBASECCIPsender.sol\":6901:6922  address(this).balance */\n      selfbalance\n        /* \"TreasuryManagerBASECCIPsender.sol\":6924:6928  fees */\n      dup2\n        /* \"TreasuryManagerBASECCIPsender.sol\":6884:6929  NotEnoughBalance(address(this).balance, fees) */\n      mload(0x40)\n      0x8f0f420600000000000000000000000000000000000000000000000000000000\n      dup2\n      mstore\n      0x04\n      add\n      tag_88\n      swap3\n      swap2\n      swap1\n      tag_89\n      jump\t// in\n    tag_88:\n      mload(0x40)\n      dup1\n      swap2\n      sub\n      swap1\n      revert\n        /* \"TreasuryManagerBASECCIPsender.sol\":6831:6929  if (fees > address(this).balance)... */\n    tag_87:\n        /* \"TreasuryManagerBASECCIPsender.sol\":7059:7065  _token */\n      dup6\n        /* \"TreasuryManagerBASECCIPsender.sol\":7052:7074  IERC20(_token).approve */\n      0xffffffffffffffffffffffffffffffffffffffff\n      and\n      0x095ea7b3\n        /* \"TreasuryManagerBASECCIPsender.sol\":7083:7091  s_router */\n      0x04\n      0x00\n      swap1\n      sload\n      swap1\n      0x0100\n      exp\n      swap1\n      div\n      0xffffffffffffffffffffffffffffffffffffffff\n      and\n        /* \"TreasuryManagerBASECCIPsender.sol\":7094:7101  _amount */\n      dup8\n        /* \"TreasuryManagerBASECCIPsender.sol\":7052:7102  IERC20(_token).approve(address(s_router), _amount) */\n      mload(0x40)\n      dup4\n      0xffffffff\n      and\n      0xe0\n      shl\n      dup2\n      mstore\n      0x04\n      add\n      tag_90\n      swap3\n      swap2\n      swap1\n      tag_91\n      jump\t// in\n    tag_90:\n      0x20\n      mload(0x40)\n      dup1\n      dup4\n      sub\n      dup2\n      0x00\n      dup8\n      gas\n      call\n      iszero\n      dup1\n      iszero\n      tag_93\n      jumpi\n      returndatasize\n      0x00\n      dup1\n      returndatacopy\n      revert(0x00, returndatasize)\n    tag_93:\n      pop\n      pop\n      pop\n      pop\n      mload(0x40)\n      returndatasize\n      not(0x1f)\n      0x1f\n      dup3\n      add\n      and\n      dup3\n      add\n      dup1\n      0x40\n      mstore\n      pop\n      dup2\n      add\n      swap1\n      tag_94\n      swap2\n      swap1\n      tag_95\n      jump\t// in\n    tag_94:\n      pop\n        /* \"TreasuryManagerBASECCIPsender.sol\":7206:7214  s_router */\n      0x04\n      0x00\n      swap1\n      sload\n      swap1\n      0x0100\n      exp\n      swap1\n      div\n      0xffffffffffffffffffffffffffffffffffffffff\n      and\n        /* \"TreasuryManagerBASECCIPsender.sol\":7206:7223  s_router.ccipSend */\n      0xffffffffffffffffffffffffffffffffffffffff\n      and\n      0x96f4e9f9\n        /* \"TreasuryManagerBASECCIPsender.sol\":7231:7235  fees */\n      dup3\n        /* \"TreasuryManagerBASECCIPsender.sol\":7250:7275  _destinationChainSelector */\n      0x03\n      0x14\n      swap1\n      sload\n      swap1\n      0x0100\n      exp\n      swap1\n      div\n      0xffffffffffffffff\n      and\n        /* \"TreasuryManagerBASECCIPsender.sol\":7289:7303  evm2AnyMessage */\n      dup6\n        /* \"TreasuryManagerBASECCIPsender.sol\":7206:7313  s_router.ccipSend{value: fees}(... */\n      mload(0x40)\n      dup5\n      0xffffffff\n      and\n      0xe0\n      shl\n      dup2\n      mstore\n      0x04\n      add\n      tag_96\n      swap3\n      swap2\n      swap1\n      tag_83\n      jump\t// in\n    tag_96:\n      0x20\n      mload(0x40)\n      dup1\n      dup4\n      sub\n      dup2\n      dup6\n      dup9\n      gas\n      call\n      iszero\n      dup1\n      iszero\n      tag_98\n      jumpi\n      returndatasize\n      0x00\n      dup1\n      returndatacopy\n      revert(0x00, returndatasize)\n    tag_98:\n      pop\n      pop\n      pop\n      pop\n      pop\n      mload(0x40)\n      returndatasize\n      not(0x1f)\n      0x1f\n      dup3\n      add\n      and\n      dup3\n      add\n      dup1\n      0x40\n      mstore\n      pop\n      dup2\n      add\n      swap1\n      tag_99\n      swap2\n      swap1\n      tag_100\n      jump\t// in\n    tag_99:\n        /* \"TreasuryManagerBASECCIPsender.sol\":7194:7313  messageId = s_router.ccipSend{value: fees}(... */\n      swap4\n      pop\n        /* \"TreasuryManagerBASECCIPsender.sol\":7429:7454  _destinationChainSelector */\n      0x03\n      0x14\n      swap1\n      sload\n      swap1\n      0x0100\n      exp\n      swap1\n      div\n      0xffffffffffffffff\n      and\n        /* \"TreasuryManagerBASECCIPsender.sol\":7375:7570  TokensTransferred(... */\n      0xffffffffffffffff\n      and\n        /* \"TreasuryManagerBASECCIPsender.sol\":7406:7415  messageId */\n      dup5\n        /* \"TreasuryManagerBASECCIPsender.sol\":7375:7570  TokensTransferred(... */\n      0xc15fb748c32ba4eb29c1c311e78533f93b4425eab49ea87c6fe4279ecadca043\n        /* \"TreasuryManagerBASECCIPsender.sol\":7468:7477  _receiver */\n      dup10\n        /* \"TreasuryManagerBASECCIPsender.sol\":7491:7497  _token */\n      dup10\n        /* \"TreasuryManagerBASECCIPsender.sol\":7511:7518  _amount */\n      dup10\n        /* \"TreasuryManagerBASECCIPsender.sol\":7540:7541  0 */\n      0x00\n        /* \"TreasuryManagerBASECCIPsender.sol\":7556:7560  fees */\n      dup8\n        /* \"TreasuryManagerBASECCIPsender.sol\":7375:7570  TokensTransferred(... */\n      mload(0x40)\n      tag_101\n      swap6\n      swap5\n      swap4\n      swap3\n      swap2\n      swap1\n      tag_102\n      jump\t// in\n    tag_101:\n      mload(0x40)\n      dup1\n      swap2\n      sub\n      swap1\n      log3\n        /* \"TreasuryManagerBASECCIPsender.sol\":7614:7630  return messageId */\n      pop\n      pop\n        /* \"@chainlink/contracts/src/v0.8/shared/access/ConfirmedOwnerWithProposal.sol\":2101:2102  _ */\n      pop\n        /* \"TreasuryManagerBASECCIPsender.sol\":6083:7637  function transferTokensPayNative(... */\n      swap4\n      swap3\n      pop\n      pop\n      pop\n      jump\t// out\n        /* \"@chainlink/contracts/src/v0.8/shared/access/ConfirmedOwnerWithProposal.sol\":1382:1463  function owner() public view override returns (address) {... */\n    tag_35:\n        /* \"@chainlink/contracts/src/v0.8/shared/access/ConfirmedOwnerWithProposal.sol\":1429:1436  address */\n      0x00\n        /* \"@chainlink/contracts/src/v0.8/shared/access/ConfirmedOwnerWithProposal.sol\":1451:1458  s_owner */\n      dup1\n      0x00\n      swap1\n      sload\n      swap1\n      0x0100\n      exp\n      swap1\n      div\n      0xffffffffffffffffffffffffffffffffffffffff\n      and\n        /* \"@chainlink/contracts/src/v0.8/shared/access/ConfirmedOwnerWithProposal.sol\":1444:1458  return s_owner */\n      swap1\n      pop\n        /* \"@chainlink/contracts/src/v0.8/shared/access/ConfirmedOwnerWithProposal.sol\":1382:1463  function owner() public view override returns (address) {... */\n      swap1\n      jump\t// out\n        /* \"TreasuryManagerBASECCIPsender.sol\":3723:5477  function transferTokensPayLINK(... */\n    tag_41:\n        /* \"TreasuryManagerBASECCIPsender.sol\":3924:3941  bytes32 messageId */\n      0x00\n        /* \"@chainlink/contracts/src/v0.8/shared/access/ConfirmedOwnerWithProposal.sol\":2075:2095  _validateOwnership() */\n      tag_105\n        /* \"@chainlink/contracts/src/v0.8/shared/access/ConfirmedOwnerWithProposal.sol\":2075:2093  _validateOwnership */\n      tag_49\n        /* \"@chainlink/contracts/src/v0.8/shared/access/ConfirmedOwnerWithProposal.sol\":2075:2095  _validateOwnership() */\n      jump\t// in\n    tag_105:\n        /* \"TreasuryManagerBASECCIPsender.sol\":3896:3905  _receiver */\n      dup4\n        /* \"TreasuryManagerBASECCIPsender.sol\":3130:3131  0 */\n      0x00\n        /* \"TreasuryManagerBASECCIPsender.sol\":3109:3132  _receiver == address(0) */\n      0xffffffffffffffffffffffffffffffffffffffff\n      and\n        /* \"TreasuryManagerBASECCIPsender.sol\":3109:3118  _receiver */\n      dup2\n        /* \"TreasuryManagerBASECCIPsender.sol\":3109:3132  _receiver == address(0) */\n      0xffffffffffffffffffffffffffffffffffffffff\n      and\n      sub\n        /* \"TreasuryManagerBASECCIPsender.sol\":3105:3165  if (_receiver == address(0)) revert InvalidReceiverAddress() */\n      tag_107\n      jumpi\n        /* \"TreasuryManagerBASECCIPsender.sol\":3141:3165  InvalidReceiverAddress() */\n      mload(0x40)\n      0xa05ff47e00000000000000000000000000000000000000000000000000000000\n      dup2\n      mstore\n      0x04\n      add\n      mload(0x40)\n      dup1\n      swap2\n      sub\n      swap1\n      revert\n        /* \"TreasuryManagerBASECCIPsender.sol\":3105:3165  if (_receiver == address(0)) revert InvalidReceiverAddress() */\n    tag_107:\n        /* \"TreasuryManagerBASECCIPsender.sol\":4130:4173  Client.EVM2AnyMessage memory evm2AnyMessage */\n      0x00\n        /* \"TreasuryManagerBASECCIPsender.sol\":4176:4301  _buildCCIPMessage(... */\n      tag_109\n        /* \"TreasuryManagerBASECCIPsender.sol\":4207:4216  _receiver */\n      dup7\n        /* \"TreasuryManagerBASECCIPsender.sol\":4230:4236  _token */\n      dup7\n        /* \"TreasuryManagerBASECCIPsender.sol\":4250:4257  _amount */\n      dup7\n        /* \"TreasuryManagerBASECCIPsender.sol\":4279:4290  s_linkToken */\n      0x05\n      0x00\n      swap1\n      sload\n      swap1\n      0x0100\n      exp\n      swap1\n      div\n      0xffffffffffffffffffffffffffffffffffffffff\n      and\n        /* \"TreasuryManagerBASECCIPsender.sol\":4176:4193  _buildCCIPMessage */\n      tag_81\n        /* \"TreasuryManagerBASECCIPsender.sol\":4176:4301  _buildCCIPMessage(... */\n      jump\t// in\n    tag_109:\n        /* \"TreasuryManagerBASECCIPsender.sol\":4130:4301  Client.EVM2AnyMessage memory evm2AnyMessage = _buildCCIPMessage(... */\n      swap1\n      pop\n        /* \"TreasuryManagerBASECCIPsender.sol\":4364:4376  uint256 fees */\n      0x00\n        /* \"TreasuryManagerBASECCIPsender.sol\":4379:4387  s_router */\n      0x04\n      0x00\n      swap1\n      sload\n      swap1\n      0x0100\n      exp\n      swap1\n      div\n      0xffffffffffffffffffffffffffffffffffffffff\n      and\n        /* \"TreasuryManagerBASECCIPsender.sol\":4379:4394  s_router.getFee */\n      0xffffffffffffffffffffffffffffffffffffffff\n      and\n      0x20487ded\n        /* \"TreasuryManagerBASECCIPsender.sol\":4408:4433  _destinationChainSelector */\n      0x03\n      0x14\n      swap1\n      sload\n      swap1\n      0x0100\n      exp\n      swap1\n      div\n      0xffffffffffffffff\n      and\n        /* \"TreasuryManagerBASECCIPsender.sol\":4447:4461  evm2AnyMessage */\n      dup5\n        /* \"TreasuryManagerBASECCIPsender.sol\":4379:4471  s_router.getFee(... */\n      mload(0x40)\n      dup4\n      0xffffffff\n      and\n      0xe0\n      shl\n      dup2\n      mstore\n      0x04\n      add\n      tag_110\n      swap3\n      swap2\n      swap1\n      tag_83\n      jump\t// in\n    tag_110:\n      0x20\n      mload(0x40)\n      dup1\n      dup4\n      sub\n      dup2\n      dup7\n      gas\n      staticcall\n      iszero\n      dup1\n      iszero\n      tag_112\n      jumpi\n      returndatasize\n      0x00\n      dup1\n      returndatacopy\n      revert(0x00, returndatasize)\n    tag_112:\n      pop\n      pop\n      pop\n      pop\n      mload(0x40)\n      returndatasize\n      not(0x1f)\n      0x1f\n      dup3\n      add\n      and\n      dup3\n      add\n      dup1\n      0x40\n      mstore\n      pop\n      dup2\n      add\n      swap1\n      tag_113\n      swap2\n      swap1\n      tag_55\n      jump\t// in\n    tag_113:\n        /* \"TreasuryManagerBASECCIPsender.sol\":4364:4471  uint256 fees = s_router.getFee(... */\n      swap1\n      pop\n        /* \"TreasuryManagerBASECCIPsender.sol\":4493:4504  s_linkToken */\n      0x05\n      0x00\n      swap1\n      sload\n      swap1\n      0x0100\n      exp\n      swap1\n      div\n      0xffffffffffffffffffffffffffffffffffffffff\n      and\n        /* \"TreasuryManagerBASECCIPsender.sol\":4493:4514  s_linkToken.balanceOf */\n      0xffffffffffffffffffffffffffffffffffffffff\n      and\n      0x70a08231\n        /* \"TreasuryManagerBASECCIPsender.sol\":4523:4527  this */\n      address\n        /* \"TreasuryManagerBASECCIPsender.sol\":4493:4529  s_linkToken.balanceOf(address(this)) */\n      mload(0x40)\n      dup3\n      0xffffffff\n      and\n      0xe0\n      shl\n      dup2\n      mstore\n      0x04\n      add\n      tag_114\n      swap2\n      swap1\n      tag_37\n      jump\t// in\n    tag_114:\n      0x20\n      mload(0x40)\n      dup1\n      dup4\n      sub\n      dup2\n      dup7\n      gas\n      staticcall\n      iszero\n      dup1\n      iszero\n      tag_116\n      jumpi\n      returndatasize\n      0x00\n      dup1\n      returndatacopy\n      revert(0x00, returndatasize)\n    tag_116:\n      pop\n      pop\n      pop\n      pop\n      mload(0x40)\n      returndatasize\n      not(0x1f)\n      0x1f\n      dup3\n      add\n      and\n      dup3\n      add\n      dup1\n      0x40\n      mstore\n      pop\n      dup2\n      add\n      swap1\n      tag_117\n      swap2\n      swap1\n      tag_55\n      jump\t// in\n    tag_117:\n        /* \"TreasuryManagerBASECCIPsender.sol\":4486:4490  fees */\n      dup2\n        /* \"TreasuryManagerBASECCIPsender.sol\":4486:4529  fees > s_linkToken.balanceOf(address(this)) */\n      gt\n        /* \"TreasuryManagerBASECCIPsender.sol\":4482:4610  if (fees > s_linkToken.balanceOf(address(this)))... */\n      iszero\n      tag_118\n      jumpi\n        /* \"TreasuryManagerBASECCIPsender.sol\":4567:4578  s_linkToken */\n      0x05\n      0x00\n      swap1\n      sload\n      swap1\n      0x0100\n      exp\n      swap1\n      div\n      0xffffffffffffffffffffffffffffffffffffffff\n      and\n        /* \"TreasuryManagerBASECCIPsender.sol\":4567:4588  s_linkToken.balanceOf */\n      0xffffffffffffffffffffffffffffffffffffffff\n      and\n      0x70a08231\n        /* \"TreasuryManagerBASECCIPsender.sol\":4597:4601  this */\n      address\n        /* \"TreasuryManagerBASECCIPsender.sol\":4567:4603  s_linkToken.balanceOf(address(this)) */\n      mload(0x40)\n      dup3\n      0xffffffff\n      and\n      0xe0\n      shl\n      dup2\n      mstore\n      0x04\n      add\n      tag_119\n      swap2\n      swap1\n      tag_37\n      jump\t// in\n    tag_119:\n      0x20\n      mload(0x40)\n      dup1\n      dup4\n      sub\n      dup2\n      dup7\n      gas\n      staticcall\n      iszero\n      dup1\n      iszero\n      tag_121\n      jumpi\n      returndatasize\n      0x00\n      dup1\n      returndatacopy\n      revert(0x00, returndatasize)\n    tag_121:\n      pop\n      pop\n      pop\n      pop\n      mload(0x40)\n      returndatasize\n      not(0x1f)\n      0x1f\n      dup3\n      add\n      and\n      dup3\n      add\n      dup1\n      0x40\n      mstore\n      pop\n      dup2\n      add\n      swap1\n      tag_122\n      swap2\n      swap1\n      tag_55\n      jump\t// in\n    tag_122:\n        /* \"TreasuryManagerBASECCIPsender.sol\":4605:4609  fees */\n      dup2\n        /* \"TreasuryManagerBASECCIPsender.sol\":4550:4610  NotEnoughBalance(s_linkToken.balanceOf(address(this)), fees) */\n      mload(0x40)\n      0x8f0f420600000000000000000000000000000000000000000000000000000000\n      dup2\n      mstore\n      0x04\n      add\n      tag_123\n      swap3\n      swap2\n      swap1\n      tag_89\n      jump\t// in\n    tag_123:\n      mload(0x40)\n      dup1\n      swap2\n      sub\n      swap1\n      revert\n        /* \"TreasuryManagerBASECCIPsender.sol\":4482:4610  if (fees > s_linkToken.balanceOf(address(this)))... */\n    tag_118:\n        /* \"TreasuryManagerBASECCIPsender.sol\":4728:4739  s_linkToken */\n      0x05\n      0x00\n      swap1\n      sload\n      swap1\n      0x0100\n      exp\n      swap1\n      div\n      0xffffffffffffffffffffffffffffffffffffffff\n      and\n        /* \"TreasuryManagerBASECCIPsender.sol\":4728:4747  s_linkToken.approve */\n      0xffffffffffffffffffffffffffffffffffffffff\n      and\n      0x095ea7b3\n        /* \"TreasuryManagerBASECCIPsender.sol\":4756:4764  s_router */\n      0x04\n      0x00\n      swap1\n      sload\n      swap1\n      0x0100\n      exp\n      swap1\n      div\n      0xffffffffffffffffffffffffffffffffffffffff\n      and\n        /* \"TreasuryManagerBASECCIPsender.sol\":4767:4771  fees */\n      dup4\n        /* \"TreasuryManagerBASECCIPsender.sol\":4728:4772  s_linkToken.approve(address(s_router), fees) */\n      mload(0x40)\n      dup4\n      0xffffffff\n      and\n      0xe0\n      shl\n      dup2\n      mstore\n      0x04\n      add\n      tag_124\n      swap3\n      swap2\n      swap1\n      tag_91\n      jump\t// in\n    tag_124:\n      0x20\n      mload(0x40)\n      dup1\n      dup4\n      sub\n      dup2\n      0x00\n      dup8\n      gas\n      call\n      iszero\n      dup1\n      iszero\n      tag_126\n      jumpi\n      returndatasize\n      0x00\n      dup1\n      returndatacopy\n      revert(0x00, returndatasize)\n    tag_126:\n      pop\n      pop\n      pop\n      pop\n      mload(0x40)\n      returndatasize\n      not(0x1f)\n      0x1f\n      dup3\n      add\n      and\n      dup3\n      add\n      dup1\n      0x40\n      mstore\n      pop\n      dup2\n      add\n      swap1\n      tag_127\n      swap2\n      swap1\n      tag_95\n      jump\t// in\n    tag_127:\n      pop\n        /* \"TreasuryManagerBASECCIPsender.sol\":4902:4908  _token */\n      dup6\n        /* \"TreasuryManagerBASECCIPsender.sol\":4895:4917  IERC20(_token).approve */\n      0xffffffffffffffffffffffffffffffffffffffff\n      and\n      0x095ea7b3\n        /* \"TreasuryManagerBASECCIPsender.sol\":4926:4934  s_router */\n      0x04\n      0x00\n      swap1\n      sload\n      swap1\n      0x0100\n      exp\n      swap1\n      div\n      0xffffffffffffffffffffffffffffffffffffffff\n      and\n        /* \"TreasuryManagerBASECCIPsender.sol\":4937:4944  _amount */\n      dup8\n        /* \"TreasuryManagerBASECCIPsender.sol\":4895:4945  IERC20(_token).approve(address(s_router), _amount) */\n      mload(0x40)\n      dup4\n      0xffffffff\n      and\n      0xe0\n      shl\n      dup2\n      mstore\n      0x04\n      add\n      tag_128\n      swap3\n      swap2\n      swap1\n      tag_91\n      jump\t// in\n    tag_128:\n      0x20\n      mload(0x40)\n      dup1\n      dup4\n      sub\n      dup2\n      0x00\n      dup8\n      gas\n      call\n      iszero\n      dup1\n      iszero\n      tag_130\n      jumpi\n      returndatasize\n      0x00\n      dup1\n      returndatacopy\n      revert(0x00, returndatasize)\n    tag_130:\n      pop\n      pop\n      pop\n      pop\n      mload(0x40)\n      returndatasize\n      not(0x1f)\n      0x1f\n      dup3\n      add\n      and\n      dup3\n      add\n      dup1\n      0x40\n      mstore\n      pop\n      dup2\n      add\n      swap1\n      tag_131\n      swap2\n      swap1\n      tag_95\n      jump\t// in\n    tag_131:\n      pop\n        /* \"TreasuryManagerBASECCIPsender.sol\":5049:5057  s_router */\n      0x04\n      0x00\n      swap1\n      sload\n      swap1\n      0x0100\n      exp\n      swap1\n      div\n      0xffffffffffffffffffffffffffffffffffffffff\n      and\n        /* \"TreasuryManagerBASECCIPsender.sol\":5049:5066  s_router.ccipSend */\n      0xffffffffffffffffffffffffffffffffffffffff\n      and\n      0x96f4e9f9\n        /* \"TreasuryManagerBASECCIPsender.sol\":5080:5105  _destinationChainSelector */\n      0x03\n      0x14\n      swap1\n      sload\n      swap1\n      0x0100\n      exp\n      swap1\n      div\n      0xffffffffffffffff\n      and\n        /* \"TreasuryManagerBASECCIPsender.sol\":5119:5133  evm2AnyMessage */\n      dup5\n        /* \"TreasuryManagerBASECCIPsender.sol\":5049:5143  s_router.ccipSend(... */\n      mload(0x40)\n      dup4\n      0xffffffff\n      and\n      0xe0\n      shl\n      dup2\n      mstore\n      0x04\n      add\n      tag_132\n      swap3\n      swap2\n      swap1\n      tag_83\n      jump\t// in\n    tag_132:\n      0x20\n      mload(0x40)\n      dup1\n      dup4\n      sub\n      dup2\n      0x00\n      dup8\n      gas\n      call\n      iszero\n      dup1\n      iszero\n      tag_134\n      jumpi\n      returndatasize\n      0x00\n      dup1\n      returndatacopy\n      revert(0x00, returndatasize)\n    tag_134:\n      pop\n      pop\n      pop\n      pop\n      mload(0x40)\n      returndatasize\n      not(0x1f)\n      0x1f\n      dup3\n      add\n      and\n      dup3\n      add\n      dup1\n      0x40\n      mstore\n      pop\n      dup2\n      add\n      swap1\n      tag_135\n      swap2\n      swap1\n      tag_100\n      jump\t// in\n    tag_135:\n        /* \"TreasuryManagerBASECCIPsender.sol\":5037:5143  messageId = s_router.ccipSend(... */\n      swap4\n      pop\n        /* \"TreasuryManagerBASECCIPsender.sol\":5259:5284  _destinationChainSelector */\n      0x03\n      0x14\n      swap1\n      sload\n      swap1\n      0x0100\n      exp\n      swap1\n      div\n      0xffffffffffffffff\n      and\n        /* \"TreasuryManagerBASECCIPsender.sol\":5205:5410  TokensTransferred(... */\n      0xffffffffffffffff\n      and\n        /* \"TreasuryManagerBASECCIPsender.sol\":5236:5245  messageId */\n      dup5\n        /* \"TreasuryManagerBASECCIPsender.sol\":5205:5410  TokensTransferred(... */\n      0xc15fb748c32ba4eb29c1c311e78533f93b4425eab49ea87c6fe4279ecadca043\n        /* \"TreasuryManagerBASECCIPsender.sol\":5298:5307  _receiver */\n      dup10\n        /* \"TreasuryManagerBASECCIPsender.sol\":5321:5327  _token */\n      dup10\n        /* \"TreasuryManagerBASECCIPsender.sol\":5341:5348  _amount */\n      dup10\n        /* \"TreasuryManagerBASECCIPsender.sol\":5370:5381  s_linkToken */\n      0x05\n      0x00\n      swap1\n      sload\n      swap1\n      0x0100\n      exp\n      swap1\n      div\n      0xffffffffffffffffffffffffffffffffffffffff\n      and\n        /* \"TreasuryManagerBASECCIPsender.sol\":5396:5400  fees */\n      dup8\n        /* \"TreasuryManagerBASECCIPsender.sol\":5205:5410  TokensTransferred(... */\n      mload(0x40)\n      tag_136\n      swap6\n      swap5\n      swap4\n      swap3\n      swap2\n      swap1\n      tag_102\n      jump\t// in\n    tag_136:\n      mload(0x40)\n      dup1\n      swap2\n      sub\n      swap1\n      log3\n        /* \"TreasuryManagerBASECCIPsender.sol\":5454:5470  return messageId */\n      pop\n      pop\n        /* \"@chainlink/contracts/src/v0.8/shared/access/ConfirmedOwnerWithProposal.sol\":2101:2102  _ */\n      pop\n        /* \"TreasuryManagerBASECCIPsender.sol\":3723:5477  function transferTokensPayLINK(... */\n      swap4\n      swap3\n      pop\n      pop\n      pop\n      jump\t// out\n        /* \"@chainlink/contracts/src/v0.8/shared/access/ConfirmedOwnerWithProposal.sol\":847:945  function transferOwnership(address to) public override onlyOwner {... */\n    tag_46:\n        /* \"@chainlink/contracts/src/v0.8/shared/access/ConfirmedOwnerWithProposal.sol\":2075:2095  _validateOwnership() */\n      tag_138\n        /* \"@chainlink/contracts/src/v0.8/shared/access/ConfirmedOwnerWithProposal.sol\":2075:2093  _validateOwnership */\n      tag_49\n        /* \"@chainlink/contracts/src/v0.8/shared/access/ConfirmedOwnerWithProposal.sol\":2075:2095  _validateOwnership() */\n      jump\t// in\n    tag_138:\n        /* \"@chainlink/contracts/src/v0.8/shared/access/ConfirmedOwnerWithProposal.sol\":918:940  _transferOwnership(to) */\n      tag_140\n        /* \"@chainlink/contracts/src/v0.8/shared/access/ConfirmedOwnerWithProposal.sol\":937:939  to */\n      dup2\n        /* \"@chainlink/contracts/src/v0.8/shared/access/ConfirmedOwnerWithProposal.sol\":918:936  _transferOwnership */\n      tag_141\n        /* \"@chainlink/contracts/src/v0.8/shared/access/ConfirmedOwnerWithProposal.sol\":918:940  _transferOwnership(to) */\n      jump\t// in\n    tag_140:\n        /* \"@chainlink/contracts/src/v0.8/shared/access/ConfirmedOwnerWithProposal.sol\":847:945  function transferOwnership(address to) public override onlyOwner {... */\n      pop\n      jump\t// out\n        /* \"@chainlink/contracts/src/v0.8/shared/access/ConfirmedOwnerWithProposal.sol\":1809:1971  function _validateOwnership() internal view {... */\n    tag_49:\n        /* \"@chainlink/contracts/src/v0.8/shared/access/ConfirmedOwnerWithProposal.sol\":1932:1939  s_owner */\n      0x00\n      dup1\n      sload\n      swap1\n      0x0100\n      exp\n      swap1\n      div\n      0xffffffffffffffffffffffffffffffffffffffff\n      and\n        /* \"@chainlink/contracts/src/v0.8/shared/access/ConfirmedOwnerWithProposal.sol\":1918:1939  msg.sender == s_owner */\n      0xffffffffffffffffffffffffffffffffffffffff\n      and\n        /* \"@chainlink/contracts/src/v0.8/shared/access/ConfirmedOwnerWithProposal.sol\":1918:1928  msg.sender */\n      caller\n        /* \"@chainlink/contracts/src/v0.8/shared/access/ConfirmedOwnerWithProposal.sol\":1918:1939  msg.sender == s_owner */\n      0xffffffffffffffffffffffffffffffffffffffff\n      and\n      eq\n        /* \"@chainlink/contracts/src/v0.8/shared/access/ConfirmedOwnerWithProposal.sol\":1910:1966  require(msg.sender == s_owner, \"Only callable by owner\") */\n      tag_143\n      jumpi\n      mload(0x40)\n      0x08c379a000000000000000000000000000000000000000000000000000000000\n      dup2\n      mstore\n      0x04\n      add\n      tag_144\n      swap1\n      tag_145\n      jump\t// in\n    tag_144:\n      mload(0x40)\n      dup1\n      swap2\n      sub\n      swap1\n      revert\n    tag_143:\n        /* \"@chainlink/contracts/src/v0.8/shared/access/ConfirmedOwnerWithProposal.sol\":1809:1971  function _validateOwnership() internal view {... */\n      jump\t// out\n        /* \"@chainlink/contracts/src/v0.8/vendor/openzeppelin-solidity/v4.8.3/contracts/token/ERC20/utils/SafeERC20.sol\":759:928  function safeTransfer(IERC20 token, address to, uint256 value) internal {... */\n    tag_58:\n        /* \"@chainlink/contracts/src/v0.8/vendor/openzeppelin-solidity/v4.8.3/contracts/token/ERC20/utils/SafeERC20.sol\":837:923  _callOptionalReturn(token, abi.encodeWithSelector(token.transfer.selector, to, value)) */\n      tag_147\n        /* \"@chainlink/contracts/src/v0.8/vendor/openzeppelin-solidity/v4.8.3/contracts/token/ERC20/utils/SafeERC20.sol\":857:862  token */\n      dup4\n        /* \"@chainlink/contracts/src/v0.8/vendor/openzeppelin-solidity/v4.8.3/contracts/token/ERC20/utils/SafeERC20.sol\":887:910  token.transfer.selector */\n      shl(0xe0, 0xa9059cbb)\n        /* \"@chainlink/contracts/src/v0.8/vendor/openzeppelin-solidity/v4.8.3/contracts/token/ERC20/utils/SafeERC20.sol\":912:914  to */\n      dup5\n        /* \"@chainlink/contracts/src/v0.8/vendor/openzeppelin-solidity/v4.8.3/contracts/token/ERC20/utils/SafeERC20.sol\":916:921  value */\n      dup5\n        /* \"@chainlink/contracts/src/v0.8/vendor/openzeppelin-solidity/v4.8.3/contracts/token/ERC20/utils/SafeERC20.sol\":864:922  abi.encodeWithSelector(token.transfer.selector, to, value) */\n      add(0x24, mload(0x40))\n      tag_148\n      swap3\n      swap2\n      swap1\n      tag_91\n      jump\t// in\n    tag_148:\n      mload(0x40)\n      0x20\n      dup2\n      dup4\n      sub\n      sub\n      dup2\n      mstore\n      swap1\n      0x40\n      mstore\n      swap1\n      not(0xffffffffffffffffffffffffffffffffffffffffffffffffffffffff)\n      and\n      0x20\n      dup3\n      add\n      dup1\n      mload\n      0xffffffffffffffffffffffffffffffffffffffffffffffffffffffff\n      dup4\n      dup2\n      dup4\n      and\n      or\n      dup4\n      mstore\n      pop\n      pop\n      pop\n      pop\n        /* \"@chainlink/contracts/src/v0.8/vendor/openzeppelin-solidity/v4.8.3/contracts/token/ERC20/utils/SafeERC20.sol\":837:856  _callOptionalReturn */\n      tag_149\n        /* \"@chainlink/contracts/src/v0.8/vendor/openzeppelin-solidity/v4.8.3/contracts/token/ERC20/utils/SafeERC20.sol\":837:923  _callOptionalReturn(token, abi.encodeWithSelector(token.transfer.selector, to, value)) */\n      jump\t// in\n    tag_147:\n        /* \"@chainlink/contracts/src/v0.8/vendor/openzeppelin-solidity/v4.8.3/contracts/token/ERC20/utils/SafeERC20.sol\":759:928  function safeTransfer(IERC20 token, address to, uint256 value) internal {... */\n      pop\n      pop\n      pop\n      jump\t// out\n        /* \"TreasuryManagerBASECCIPsender.sol\":8205:10107  function _buildCCIPMessage(... */\n    tag_81:\n        /* \"TreasuryManagerBASECCIPsender.sol\":8370:8398  Client.EVM2AnyMessage memory */\n      tag_150\n      tag_151\n      jump\t// in\n    tag_150:\n        /* \"TreasuryManagerBASECCIPsender.sol\":8443:8498  Client.EVMTokenAmount[]... */\n      0x00\n        /* \"TreasuryManagerBASECCIPsender.sol\":8529:8530  1 */\n      0x01\n        /* \"TreasuryManagerBASECCIPsender.sol\":8501:8531  new Client.EVMTokenAmount[](1) */\n      0xffffffffffffffff\n      dup2\n      gt\n      iszero\n      tag_153\n      jumpi\n      tag_154\n      tag_155\n      jump\t// in\n    tag_154:\n    tag_153:\n      mload(0x40)\n      swap1\n      dup1\n      dup3\n      mstore\n      dup1\n      0x20\n      mul\n      0x20\n      add\n      dup3\n      add\n      0x40\n      mstore\n      dup1\n      iszero\n      tag_156\n      jumpi\n      dup2\n      0x20\n      add\n    tag_157:\n      tag_158\n      tag_159\n      jump\t// in\n    tag_158:\n      dup2\n      mstore\n      0x20\n      add\n      swap1\n      0x01\n      swap1\n      sub\n      swap1\n      dup2\n      tag_157\n      jumpi\n      swap1\n      pop\n    tag_156:\n      pop\n        /* \"TreasuryManagerBASECCIPsender.sol\":8443:8531  Client.EVMTokenAmount[]... */\n      swap1\n      pop\n        /* \"TreasuryManagerBASECCIPsender.sol\":8559:8648  Client.EVMTokenAmount({... */\n      mload(0x40)\n      dup1\n      0x40\n      add\n      0x40\n      mstore\n      dup1\n        /* \"TreasuryManagerBASECCIPsender.sol\":8602:8608  _token */\n      dup7\n        /* \"TreasuryManagerBASECCIPsender.sol\":8559:8648  Client.EVMTokenAmount({... */\n      0xffffffffffffffffffffffffffffffffffffffff\n      and\n      dup2\n      mstore\n      0x20\n      add\n        /* \"TreasuryManagerBASECCIPsender.sol\":8630:8637  _amount */\n      dup6\n        /* \"TreasuryManagerBASECCIPsender.sol\":8559:8648  Client.EVMTokenAmount({... */\n      dup2\n      mstore\n      pop\n        /* \"TreasuryManagerBASECCIPsender.sol\":8541:8553  tokenAmounts */\n      dup2\n        /* \"TreasuryManagerBASECCIPsender.sol\":8554:8555  0 */\n      0x00\n        /* \"TreasuryManagerBASECCIPsender.sol\":8541:8556  tokenAmounts[0] */\n      dup2\n      mload\n      dup2\n      lt\n      tag_160\n      jumpi\n      tag_161\n      tag_162\n      jump\t// in\n    tag_161:\n    tag_160:\n      0x20\n      mul\n      0x20\n      add\n      add\n        /* \"TreasuryManagerBASECCIPsender.sol\":8541:8648  tokenAmounts[0] = Client.EVMTokenAmount({... */\n      dup2\n      swap1\n      mstore\n      pop\n        /* \"TreasuryManagerBASECCIPsender.sol\":8792:10100  Client.EVM2AnyMessage({... */\n      mload(0x40)\n      dup1\n      0xa0\n      add\n      0x40\n      mstore\n      dup1\n        /* \"TreasuryManagerBASECCIPsender.sol\":8853:8862  _receiver */\n      dup8\n        /* \"TreasuryManagerBASECCIPsender.sol\":8842:8863  abi.encode(_receiver) */\n      add(0x20, mload(0x40))\n      tag_163\n      swap2\n      swap1\n      tag_37\n      jump\t// in\n    tag_163:\n      mload(0x40)\n      0x20\n      dup2\n      dup4\n      sub\n      sub\n      dup2\n      mstore\n      swap1\n      0x40\n      mstore\n        /* \"TreasuryManagerBASECCIPsender.sol\":8792:10100  Client.EVM2AnyMessage({... */\n      dup2\n      mstore\n      0x20\n      add\n      mload(0x40)\n      dup1\n      0x20\n      add\n      0x40\n      mstore\n      dup1\n      0x00\n      dup2\n      mstore\n      pop\n      dup2\n      mstore\n      0x20\n      add\n        /* \"TreasuryManagerBASECCIPsender.sol\":8964:8976  tokenAmounts */\n      dup3\n        /* \"TreasuryManagerBASECCIPsender.sol\":8792:10100  Client.EVM2AnyMessage({... */\n      dup2\n      mstore\n      0x20\n      add\n        /* \"TreasuryManagerBASECCIPsender.sol\":10069:10085  _feeTokenAddress */\n      dup5\n        /* \"TreasuryManagerBASECCIPsender.sol\":8792:10100  Client.EVM2AnyMessage({... */\n      0xffffffffffffffffffffffffffffffffffffffff\n      and\n      dup2\n      mstore\n      0x20\n      add\n        /* \"TreasuryManagerBASECCIPsender.sol\":9055:9935  Client._argsToBytes(... */\n      tag_164\n        /* \"TreasuryManagerBASECCIPsender.sol\":9622:9917  Client.GenericExtraArgsV2({... */\n      mload(0x40)\n      dup1\n      0x40\n      add\n      0x40\n      mstore\n      dup1\n        /* \"TreasuryManagerBASECCIPsender.sol\":9684:9685  0 */\n      0x00\n        /* \"TreasuryManagerBASECCIPsender.sol\":9622:9917  Client.GenericExtraArgsV2({... */\n      dup2\n      mstore\n      0x20\n      add\n        /* \"TreasuryManagerBASECCIPsender.sol\":9792:9796  true */\n      0x01\n        /* \"TreasuryManagerBASECCIPsender.sol\":9622:9917  Client.GenericExtraArgsV2({... */\n      iszero\n      iszero\n      dup2\n      mstore\n      pop\n        /* \"TreasuryManagerBASECCIPsender.sol\":9055:9074  Client._argsToBytes */\n      tag_165\n        /* \"TreasuryManagerBASECCIPsender.sol\":9055:9935  Client._argsToBytes(... */\n      jump\t// in\n    tag_164:\n        /* \"TreasuryManagerBASECCIPsender.sol\":8792:10100  Client.EVM2AnyMessage({... */\n      dup2\n      mstore\n      pop\n        /* \"TreasuryManagerBASECCIPsender.sol\":8773:10100  return... */\n      swap2\n      pop\n      pop\n        /* \"TreasuryManagerBASECCIPsender.sol\":8205:10107  function _buildCCIPMessage(... */\n      swap5\n      swap4\n      pop\n      pop\n      pop\n      pop\n      jump\t// out\n        /* \"@chainlink/contracts/src/v0.8/shared/access/ConfirmedOwnerWithProposal.sol\":1536:1775  function _transferOwnership(address to) private {... */\n    tag_141:\n        /* \"@chainlink/contracts/src/v0.8/shared/access/ConfirmedOwnerWithProposal.sol\":1655:1665  msg.sender */\n      caller\n        /* \"@chainlink/contracts/src/v0.8/shared/access/ConfirmedOwnerWithProposal.sol\":1649:1665  to != msg.sender */\n      0xffffffffffffffffffffffffffffffffffffffff\n      and\n        /* \"@chainlink/contracts/src/v0.8/shared/access/ConfirmedOwnerWithProposal.sol\":1649:1651  to */\n      dup2\n        /* \"@chainlink/contracts/src/v0.8/shared/access/ConfirmedOwnerWithProposal.sol\":1649:1665  to != msg.sender */\n      0xffffffffffffffffffffffffffffffffffffffff\n      and\n      sub\n        /* \"@chainlink/contracts/src/v0.8/shared/access/ConfirmedOwnerWithProposal.sol\":1641:1693  require(to != msg.sender, \"Cannot transfer to self\") */\n      tag_167\n      jumpi\n      mload(0x40)\n      0x08c379a000000000000000000000000000000000000000000000000000000000\n      dup2\n      mstore\n      0x04\n      add\n      tag_168\n      swap1\n      tag_169\n      jump\t// in\n    tag_168:\n      mload(0x40)\n      dup1\n      swap2\n      sub\n      swap1\n      revert\n    tag_167:\n        /* \"@chainlink/contracts/src/v0.8/shared/access/ConfirmedOwnerWithProposal.sol\":1717:1719  to */\n      dup1\n        /* \"@chainlink/contracts/src/v0.8/shared/access/ConfirmedOwnerWithProposal.sol\":1700:1714  s_pendingOwner */\n      0x01\n      0x00\n        /* \"@chainlink/contracts/src/v0.8/shared/access/ConfirmedOwnerWithProposal.sol\":1700:1719  s_pendingOwner = to */\n      0x0100\n      exp\n      dup2\n      sload\n      dup2\n      0xffffffffffffffffffffffffffffffffffffffff\n      mul\n      not\n      and\n      swap1\n      dup4\n      0xffffffffffffffffffffffffffffffffffffffff\n      and\n      mul\n      or\n      swap1\n      sstore\n      pop\n        /* \"@chainlink/contracts/src/v0.8/shared/access/ConfirmedOwnerWithProposal.sol\":1767:1769  to */\n      dup1\n        /* \"@chainlink/contracts/src/v0.8/shared/access/ConfirmedOwnerWithProposal.sol\":1731:1770  OwnershipTransferRequested(s_owner, to) */\n      0xffffffffffffffffffffffffffffffffffffffff\n      and\n        /* \"@chainlink/contracts/src/v0.8/shared/access/ConfirmedOwnerWithProposal.sol\":1758:1765  s_owner */\n      0x00\n      dup1\n      sload\n      swap1\n      0x0100\n      exp\n      swap1\n      div\n      0xffffffffffffffffffffffffffffffffffffffff\n      and\n        /* \"@chainlink/contracts/src/v0.8/shared/access/ConfirmedOwnerWithProposal.sol\":1731:1770  OwnershipTransferRequested(s_owner, to) */\n      0xffffffffffffffffffffffffffffffffffffffff\n      and\n      0xed8889f560326eb138920d842192f0eb3dd22b4f139c87a2c57538e05bae1278\n      mload(0x40)\n      mload(0x40)\n      dup1\n      swap2\n      sub\n      swap1\n      log3\n        /* \"@chainlink/contracts/src/v0.8/shared/access/ConfirmedOwnerWithProposal.sol\":1536:1775  function _transferOwnership(address to) private {... */\n      pop\n      jump\t// out\n        /* \"@chainlink/contracts/src/v0.8/vendor/openzeppelin-solidity/v4.8.3/contracts/token/ERC20/utils/SafeERC20.sol\":3401:4069  function _callOptionalReturn(IERC20 token, bytes memory data) private {... */\n    tag_149:\n        /* \"@chainlink/contracts/src/v0.8/vendor/openzeppelin-solidity/v4.8.3/contracts/token/ERC20/utils/SafeERC20.sol\":3804:3827  bytes memory returndata */\n      0x00\n        /* \"@chainlink/contracts/src/v0.8/vendor/openzeppelin-solidity/v4.8.3/contracts/token/ERC20/utils/SafeERC20.sol\":3830:3899  address(token).functionCall(data, \"SafeERC20: low-level call failed\") */\n      tag_171\n        /* \"@chainlink/contracts/src/v0.8/vendor/openzeppelin-solidity/v4.8.3/contracts/token/ERC20/utils/SafeERC20.sol\":3858:3862  data */\n      dup3\n        /* \"@chainlink/contracts/src/v0.8/vendor/openzeppelin-solidity/v4.8.3/contracts/token/ERC20/utils/SafeERC20.sol\":3830:3899  address(token).functionCall(data, \"SafeERC20: low-level call failed\") */\n      mload(0x40)\n      dup1\n      0x40\n      add\n      0x40\n      mstore\n      dup1\n      0x20\n      dup2\n      mstore\n      0x20\n      add\n      0x5361666545524332303a206c6f772d6c6576656c2063616c6c206661696c6564\n      dup2\n      mstore\n      pop\n        /* \"@chainlink/contracts/src/v0.8/vendor/openzeppelin-solidity/v4.8.3/contracts/token/ERC20/utils/SafeERC20.sol\":3838:3843  token */\n      dup6\n        /* \"@chainlink/contracts/src/v0.8/vendor/openzeppelin-solidity/v4.8.3/contracts/token/ERC20/utils/SafeERC20.sol\":3830:3857  address(token).functionCall */\n      0xffffffffffffffffffffffffffffffffffffffff\n      and\n      tag_172\n      swap1\n        /* \"@chainlink/contracts/src/v0.8/vendor/openzeppelin-solidity/v4.8.3/contracts/token/ERC20/utils/SafeERC20.sol\":3830:3899  address(token).functionCall(data, \"SafeERC20: low-level call failed\") */\n      swap3\n      swap2\n      swap1\n      0xffffffff\n      and\n      jump\t// in\n    tag_171:\n        /* \"@chainlink/contracts/src/v0.8/vendor/openzeppelin-solidity/v4.8.3/contracts/token/ERC20/utils/SafeERC20.sol\":3804:3899  bytes memory returndata = address(token).functionCall(data, \"SafeERC20: low-level call failed\") */\n      swap1\n      pop\n        /* \"@chainlink/contracts/src/v0.8/vendor/openzeppelin-solidity/v4.8.3/contracts/token/ERC20/utils/SafeERC20.sol\":3929:3930  0 */\n      0x00\n        /* \"@chainlink/contracts/src/v0.8/vendor/openzeppelin-solidity/v4.8.3/contracts/token/ERC20/utils/SafeERC20.sol\":3909:3919  returndata */\n      dup2\n        /* \"@chainlink/contracts/src/v0.8/vendor/openzeppelin-solidity/v4.8.3/contracts/token/ERC20/utils/SafeERC20.sol\":3909:3926  returndata.length */\n      mload\n        /* \"@chainlink/contracts/src/v0.8/vendor/openzeppelin-solidity/v4.8.3/contracts/token/ERC20/utils/SafeERC20.sol\":3909:3930  returndata.length > 0 */\n      gt\n        /* \"@chainlink/contracts/src/v0.8/vendor/openzeppelin-solidity/v4.8.3/contracts/token/ERC20/utils/SafeERC20.sol\":3905:4065  if (returndata.length > 0) {... */\n      iszero\n      tag_173\n      jumpi\n        /* \"@chainlink/contracts/src/v0.8/vendor/openzeppelin-solidity/v4.8.3/contracts/token/ERC20/utils/SafeERC20.sol\":3992:4002  returndata */\n      dup1\n        /* \"@chainlink/contracts/src/v0.8/vendor/openzeppelin-solidity/v4.8.3/contracts/token/ERC20/utils/SafeERC20.sol\":3981:4011  abi.decode(returndata, (bool)) */\n      dup1\n      0x20\n      add\n      swap1\n      mload\n      dup2\n      add\n      swap1\n      tag_174\n      swap2\n      swap1\n      tag_95\n      jump\t// in\n    tag_174:\n        /* \"@chainlink/contracts/src/v0.8/vendor/openzeppelin-solidity/v4.8.3/contracts/token/ERC20/utils/SafeERC20.sol\":3973:4058  require(abi.decode(returndata, (bool)), \"SafeERC20: ERC20 operation did not succeed\") */\n      tag_175\n      jumpi\n      mload(0x40)\n      0x08c379a000000000000000000000000000000000000000000000000000000000\n      dup2\n      mstore\n      0x04\n      add\n      tag_176\n      swap1\n      tag_177\n      jump\t// in\n    tag_176:\n      mload(0x40)\n      dup1\n      swap2\n      sub\n      swap1\n      revert\n    tag_175:\n        /* \"@chainlink/contracts/src/v0.8/vendor/openzeppelin-solidity/v4.8.3/contracts/token/ERC20/utils/SafeERC20.sol\":3905:4065  if (returndata.length > 0) {... */\n    tag_173:\n        /* \"@chainlink/contracts/src/v0.8/vendor/openzeppelin-solidity/v4.8.3/contracts/token/ERC20/utils/SafeERC20.sol\":3471:4069  {... */\n      pop\n        /* \"@chainlink/contracts/src/v0.8/vendor/openzeppelin-solidity/v4.8.3/contracts/token/ERC20/utils/SafeERC20.sol\":3401:4069  function _callOptionalReturn(IERC20 token, bytes memory data) private {... */\n      pop\n      pop\n      jump\t// out\n        /* \"@chainlink/contracts-ccip/contracts/libraries/Client.sol\":4328:4514  function _argsToBytes(... */\n    tag_165:\n        /* \"@chainlink/contracts-ccip/contracts/libraries/Client.sol\":4418:4434  bytes memory bts */\n      0x60\n        /* \"@chainlink/contracts-ccip/contracts/libraries/Client.sol\":1861:1871  0x181dcf10 */\n      0x181dcf10\n        /* \"@chainlink/contracts-ccip/contracts/libraries/Client.sol\":4472:4497  GENERIC_EXTRA_ARGS_V2_TAG */\n      0xe0\n      shl\n        /* \"@chainlink/contracts-ccip/contracts/libraries/Client.sol\":4499:4508  extraArgs */\n      dup3\n        /* \"@chainlink/contracts-ccip/contracts/libraries/Client.sol\":4449:4509  abi.encodeWithSelector(GENERIC_EXTRA_ARGS_V2_TAG, extraArgs) */\n      add(0x24, mload(0x40))\n      tag_179\n      swap2\n      swap1\n      tag_180\n      jump\t// in\n    tag_179:\n      mload(0x40)\n      0x20\n      dup2\n      dup4\n      sub\n      sub\n      dup2\n      mstore\n      swap1\n      0x40\n      mstore\n      swap1\n      not(0xffffffffffffffffffffffffffffffffffffffffffffffffffffffff)\n      and\n      0x20\n      dup3\n      add\n      dup1\n      mload\n      0xffffffffffffffffffffffffffffffffffffffffffffffffffffffff\n      dup4\n      dup2\n      dup4\n      and\n      or\n      dup4\n      mstore\n      pop\n      pop\n      pop\n      pop\n        /* \"@chainlink/contracts-ccip/contracts/libraries/Client.sol\":4442:4509  return abi.encodeWithSelector(GENERIC_EXTRA_ARGS_V2_TAG, extraArgs) */\n      swap1\n      pop\n        /* \"@chainlink/contracts-ccip/contracts/libraries/Client.sol\":4328:4514  function _argsToBytes(... */\n      swap2\n      swap1\n      pop\n      jump\t// out\n        /* \"@chainlink/contracts/src/v0.8/vendor/openzeppelin-solidity/v4.8.3/contracts/utils/Address.sol\":3695:3882  function functionCall(address target, bytes memory data, string memory errorMessage) internal returns (bytes memory) {... */\n    tag_172:\n        /* \"@chainlink/contracts/src/v0.8/vendor/openzeppelin-solidity/v4.8.3/contracts/utils/Address.sol\":3798:3810  bytes memory */\n      0x60\n        /* \"@chainlink/contracts/src/v0.8/vendor/openzeppelin-solidity/v4.8.3/contracts/utils/Address.sol\":3825:3877  functionCallWithValue(target, data, 0, errorMessage) */\n      tag_182\n        /* \"@chainlink/contracts/src/v0.8/vendor/openzeppelin-solidity/v4.8.3/contracts/utils/Address.sol\":3847:3853  target */\n      dup5\n        /* \"@chainlink/contracts/src/v0.8/vendor/openzeppelin-solidity/v4.8.3/contracts/utils/Address.sol\":3855:3859  data */\n      dup5\n        /* \"@chainlink/contracts/src/v0.8/vendor/openzeppelin-solidity/v4.8.3/contracts/utils/Address.sol\":3861:3862  0 */\n      0x00\n        /* \"@chainlink/contracts/src/v0.8/vendor/openzeppelin-solidity/v4.8.3/contracts/utils/Address.sol\":3864:3876  errorMessage */\n      dup6\n        /* \"@chainlink/contracts/src/v0.8/vendor/openzeppelin-solidity/v4.8.3/contracts/utils/Address.sol\":3825:3846  functionCallWithValue */\n      tag_183\n        /* \"@chainlink/contracts/src/v0.8/vendor/openzeppelin-solidity/v4.8.3/contracts/utils/Address.sol\":3825:3877  functionCallWithValue(target, data, 0, errorMessage) */\n      jump\t// in\n    tag_182:\n        /* \"@chainlink/contracts/src/v0.8/vendor/openzeppelin-solidity/v4.8.3/contracts/utils/Address.sol\":3818:3877  return functionCallWithValue(target, data, 0, errorMessage) */\n      swap1\n      pop\n        /* \"@chainlink/contracts/src/v0.8/vendor/openzeppelin-solidity/v4.8.3/contracts/utils/Address.sol\":3695:3882  function functionCall(address target, bytes memory data, string memory errorMessage) internal returns (bytes memory) {... */\n      swap4\n      swap3\n      pop\n      pop\n      pop\n      jump\t// out\n        /* \"@chainlink/contracts/src/v0.8/vendor/openzeppelin-solidity/v4.8.3/contracts/utils/Address.sol\":4672:5086  function functionCallWithValue(... */\n    tag_183:\n        /* \"@chainlink/contracts/src/v0.8/vendor/openzeppelin-solidity/v4.8.3/contracts/utils/Address.sol\":4819:4831  bytes memory */\n      0x60\n        /* \"@chainlink/contracts/src/v0.8/vendor/openzeppelin-solidity/v4.8.3/contracts/utils/Address.sol\":4872:4877  value */\n      dup3\n        /* \"@chainlink/contracts/src/v0.8/vendor/openzeppelin-solidity/v4.8.3/contracts/utils/Address.sol\":4847:4868  address(this).balance */\n      selfbalance\n        /* \"@chainlink/contracts/src/v0.8/vendor/openzeppelin-solidity/v4.8.3/contracts/utils/Address.sol\":4847:4877  address(this).balance >= value */\n      lt\n      iszero\n        /* \"@chainlink/contracts/src/v0.8/vendor/openzeppelin-solidity/v4.8.3/contracts/utils/Address.sol\":4839:4920  require(address(this).balance >= value, \"Address: insufficient balance for call\") */\n      tag_185\n      jumpi\n      mload(0x40)\n      0x08c379a000000000000000000000000000000000000000000000000000000000\n      dup2\n      mstore\n      0x04\n      add\n      tag_186\n      swap1\n      tag_187\n      jump\t// in\n    tag_186:\n      mload(0x40)\n      dup1\n      swap2\n      sub\n      swap1\n      revert\n    tag_185:\n        /* \"@chainlink/contracts/src/v0.8/vendor/openzeppelin-solidity/v4.8.3/contracts/utils/Address.sol\":4927:4939  bool success */\n      0x00\n        /* \"@chainlink/contracts/src/v0.8/vendor/openzeppelin-solidity/v4.8.3/contracts/utils/Address.sol\":4941:4964  bytes memory returndata */\n      dup1\n        /* \"@chainlink/contracts/src/v0.8/vendor/openzeppelin-solidity/v4.8.3/contracts/utils/Address.sol\":4968:4974  target */\n      dup7\n        /* \"@chainlink/contracts/src/v0.8/vendor/openzeppelin-solidity/v4.8.3/contracts/utils/Address.sol\":4968:4979  target.call */\n      0xffffffffffffffffffffffffffffffffffffffff\n      and\n        /* \"@chainlink/contracts/src/v0.8/vendor/openzeppelin-solidity/v4.8.3/contracts/utils/Address.sol\":4987:4992  value */\n      dup6\n        /* \"@chainlink/contracts/src/v0.8/vendor/openzeppelin-solidity/v4.8.3/contracts/utils/Address.sol\":4994:4998  data */\n      dup8\n        /* \"@chainlink/contracts/src/v0.8/vendor/openzeppelin-solidity/v4.8.3/contracts/utils/Address.sol\":4968:4999  target.call{value: value}(data) */\n      mload(0x40)\n      tag_188\n      swap2\n      swap1\n      tag_189\n      jump\t// in\n    tag_188:\n      0x00\n      mload(0x40)\n      dup1\n      dup4\n      sub\n      dup2\n      dup6\n      dup8\n      gas\n      call\n      swap3\n      pop\n      pop\n      pop\n      returndatasize\n      dup1\n      0x00\n      dup2\n      eq\n      tag_192\n      jumpi\n      mload(0x40)\n      swap2\n      pop\n      and(add(returndatasize, 0x3f), not(0x1f))\n      dup3\n      add\n      0x40\n      mstore\n      returndatasize\n      dup3\n      mstore\n      returndatasize\n      0x00\n      0x20\n      dup5\n      add\n      returndatacopy\n      jump(tag_191)\n    tag_192:\n      0x60\n      swap2\n      pop\n    tag_191:\n      pop\n        /* \"@chainlink/contracts/src/v0.8/vendor/openzeppelin-solidity/v4.8.3/contracts/utils/Address.sol\":4926:4999  (bool success, bytes memory returndata) = target.call{value: value}(data) */\n      swap2\n      pop\n      swap2\n      pop\n        /* \"@chainlink/contracts/src/v0.8/vendor/openzeppelin-solidity/v4.8.3/contracts/utils/Address.sol\":5012:5081  verifyCallResultFromTarget(target, success, returndata, errorMessage) */\n      tag_193\n        /* \"@chainlink/contracts/src/v0.8/vendor/openzeppelin-solidity/v4.8.3/contracts/utils/Address.sol\":5039:5045  target */\n      dup8\n        /* \"@chainlink/contracts/src/v0.8/vendor/openzeppelin-solidity/v4.8.3/contracts/utils/Address.sol\":5047:5054  success */\n      dup4\n        /* \"@chainlink/contracts/src/v0.8/vendor/openzeppelin-solidity/v4.8.3/contracts/utils/Address.sol\":5056:5066  returndata */\n      dup4\n        /* \"@chainlink/contracts/src/v0.8/vendor/openzeppelin-solidity/v4.8.3/contracts/utils/Address.sol\":5068:5080  errorMessage */\n      dup8\n        /* \"@chainlink/contracts/src/v0.8/vendor/openzeppelin-solidity/v4.8.3/contracts/utils/Address.sol\":5012:5038  verifyCallResultFromTarget */\n      tag_194\n        /* \"@chainlink/contracts/src/v0.8/vendor/openzeppelin-solidity/v4.8.3/contracts/utils/Address.sol\":5012:5081  verifyCallResultFromTarget(target, success, returndata, errorMessage) */\n      jump\t// in\n    tag_193:\n        /* \"@chainlink/contracts/src/v0.8/vendor/openzeppelin-solidity/v4.8.3/contracts/utils/Address.sol\":5005:5081  return verifyCallResultFromTarget(target, success, returndata, errorMessage) */\n      swap3\n      pop\n      pop\n      pop\n        /* \"@chainlink/contracts/src/v0.8/vendor/openzeppelin-solidity/v4.8.3/contracts/utils/Address.sol\":4672:5086  function functionCallWithValue(... */\n      swap5\n      swap4\n      pop\n      pop\n      pop\n      pop\n      jump\t// out\n        /* \"@chainlink/contracts/src/v0.8/vendor/openzeppelin-solidity/v4.8.3/contracts/utils/Address.sol\":7016:7564  function verifyCallResultFromTarget(... */\n    tag_194:\n        /* \"@chainlink/contracts/src/v0.8/vendor/openzeppelin-solidity/v4.8.3/contracts/utils/Address.sol\":7178:7190  bytes memory */\n      0x60\n        /* \"@chainlink/contracts/src/v0.8/vendor/openzeppelin-solidity/v4.8.3/contracts/utils/Address.sol\":7202:7209  success */\n      dup4\n        /* \"@chainlink/contracts/src/v0.8/vendor/openzeppelin-solidity/v4.8.3/contracts/utils/Address.sol\":7198:7560  if (success) {... */\n      iszero\n      tag_196\n      jumpi\n        /* \"@chainlink/contracts/src/v0.8/vendor/openzeppelin-solidity/v4.8.3/contracts/utils/Address.sol\":7244:7245  0 */\n      0x00\n        /* \"@chainlink/contracts/src/v0.8/vendor/openzeppelin-solidity/v4.8.3/contracts/utils/Address.sol\":7223:7233  returndata */\n      dup4\n        /* \"@chainlink/contracts/src/v0.8/vendor/openzeppelin-solidity/v4.8.3/contracts/utils/Address.sol\":7223:7240  returndata.length */\n      mload\n        /* \"@chainlink/contracts/src/v0.8/vendor/openzeppelin-solidity/v4.8.3/contracts/utils/Address.sol\":7223:7245  returndata.length == 0 */\n      sub\n        /* \"@chainlink/contracts/src/v0.8/vendor/openzeppelin-solidity/v4.8.3/contracts/utils/Address.sol\":7219:7475  if (returndata.length == 0) {... */\n      tag_197\n      jumpi\n        /* \"@chainlink/contracts/src/v0.8/vendor/openzeppelin-solidity/v4.8.3/contracts/utils/Address.sol\":7414:7432  isContract(target) */\n      tag_198\n        /* \"@chainlink/contracts/src/v0.8/vendor/openzeppelin-solidity/v4.8.3/contracts/utils/Address.sol\":7425:7431  target */\n      dup6\n        /* \"@chainlink/contracts/src/v0.8/vendor/openzeppelin-solidity/v4.8.3/contracts/utils/Address.sol\":7414:7424  isContract */\n      tag_199\n        /* \"@chainlink/contracts/src/v0.8/vendor/openzeppelin-solidity/v4.8.3/contracts/utils/Address.sol\":7414:7432  isContract(target) */\n      jump\t// in\n    tag_198:\n        /* \"@chainlink/contracts/src/v0.8/vendor/openzeppelin-solidity/v4.8.3/contracts/utils/Address.sol\":7406:7466  require(isContract(target), \"Address: call to non-contract\") */\n      tag_200\n      jumpi\n      mload(0x40)\n      0x08c379a000000000000000000000000000000000000000000000000000000000\n      dup2\n      mstore\n      0x04\n      add\n      tag_201\n      swap1\n      tag_202\n      jump\t// in\n    tag_201:\n      mload(0x40)\n      dup1\n      swap2\n      sub\n      swap1\n      revert\n    tag_200:\n        /* \"@chainlink/contracts/src/v0.8/vendor/openzeppelin-solidity/v4.8.3/contracts/utils/Address.sol\":7219:7475  if (returndata.length == 0) {... */\n    tag_197:\n        /* \"@chainlink/contracts/src/v0.8/vendor/openzeppelin-solidity/v4.8.3/contracts/utils/Address.sol\":7489:7499  returndata */\n      dup3\n        /* \"@chainlink/contracts/src/v0.8/vendor/openzeppelin-solidity/v4.8.3/contracts/utils/Address.sol\":7482:7499  return returndata */\n      swap1\n      pop\n      jump(tag_195)\n        /* \"@chainlink/contracts/src/v0.8/vendor/openzeppelin-solidity/v4.8.3/contracts/utils/Address.sol\":7198:7560  if (success) {... */\n    tag_196:\n        /* \"@chainlink/contracts/src/v0.8/vendor/openzeppelin-solidity/v4.8.3/contracts/utils/Address.sol\":7520:7553  _revert(returndata, errorMessage) */\n      tag_204\n        /* \"@chainlink/contracts/src/v0.8/vendor/openzeppelin-solidity/v4.8.3/contracts/utils/Address.sol\":7528:7538  returndata */\n      dup4\n        /* \"@chainlink/contracts/src/v0.8/vendor/openzeppelin-solidity/v4.8.3/contracts/utils/Address.sol\":7540:7552  errorMessage */\n      dup4\n        /* \"@chainlink/contracts/src/v0.8/vendor/openzeppelin-solidity/v4.8.3/contracts/utils/Address.sol\":7520:7527  _revert */\n      tag_205\n        /* \"@chainlink/contracts/src/v0.8/vendor/openzeppelin-solidity/v4.8.3/contracts/utils/Address.sol\":7520:7553  _revert(returndata, errorMessage) */\n      jump\t// in\n    tag_204:\n        /* \"@chainlink/contracts/src/v0.8/vendor/openzeppelin-solidity/v4.8.3/contracts/utils/Address.sol\":7016:7564  function verifyCallResultFromTarget(... */\n    tag_195:\n      swap5\n      swap4\n      pop\n      pop\n      pop\n      pop\n      jump\t// out\n        /* \"@chainlink/contracts/src/v0.8/vendor/openzeppelin-solidity/v4.8.3/contracts/utils/Address.sol\":1121:1423  function isContract(address account) internal view returns (bool) {... */\n    tag_199:\n        /* \"@chainlink/contracts/src/v0.8/vendor/openzeppelin-solidity/v4.8.3/contracts/utils/Address.sol\":1181:1185  bool */\n      0x00\n        /* \"@chainlink/contracts/src/v0.8/vendor/openzeppelin-solidity/v4.8.3/contracts/utils/Address.sol\":1417:1418  0 */\n      dup1\n        /* \"@chainlink/contracts/src/v0.8/vendor/openzeppelin-solidity/v4.8.3/contracts/utils/Address.sol\":1395:1402  account */\n      dup3\n        /* \"@chainlink/contracts/src/v0.8/vendor/openzeppelin-solidity/v4.8.3/contracts/utils/Address.sol\":1395:1414  account.code.length */\n      0xffffffffffffffffffffffffffffffffffffffff\n      and\n      extcodesize\n        /* \"@chainlink/contracts/src/v0.8/vendor/openzeppelin-solidity/v4.8.3/contracts/utils/Address.sol\":1395:1418  account.code.length > 0 */\n      gt\n        /* \"@chainlink/contracts/src/v0.8/vendor/openzeppelin-solidity/v4.8.3/contracts/utils/Address.sol\":1388:1418  return account.code.length > 0 */\n      swap1\n      pop\n        /* \"@chainlink/contracts/src/v0.8/vendor/openzeppelin-solidity/v4.8.3/contracts/utils/Address.sol\":1121:1423  function isContract(address account) internal view returns (bool) {... */\n      swap2\n      swap1\n      pop\n      jump\t// out\n        /* \"@chainlink/contracts/src/v0.8/vendor/openzeppelin-solidity/v4.8.3/contracts/utils/Address.sol\":8030:8506  function _revert(bytes memory returndata, string memory errorMessage) private pure {... */\n    tag_205:\n        /* \"@chainlink/contracts/src/v0.8/vendor/openzeppelin-solidity/v4.8.3/contracts/utils/Address.sol\":8201:8202  0 */\n      0x00\n        /* \"@chainlink/contracts/src/v0.8/vendor/openzeppelin-solidity/v4.8.3/contracts/utils/Address.sol\":8181:8191  returndata */\n      dup3\n        /* \"@chainlink/contracts/src/v0.8/vendor/openzeppelin-solidity/v4.8.3/contracts/utils/Address.sol\":8181:8198  returndata.length */\n      mload\n        /* \"@chainlink/contracts/src/v0.8/vendor/openzeppelin-solidity/v4.8.3/contracts/utils/Address.sol\":8181:8202  returndata.length > 0 */\n      gt\n        /* \"@chainlink/contracts/src/v0.8/vendor/openzeppelin-solidity/v4.8.3/contracts/utils/Address.sol\":8177:8502  if (returndata.length > 0) {... */\n      iszero\n      tag_208\n      jumpi\n        /* \"@chainlink/contracts/src/v0.8/vendor/openzeppelin-solidity/v4.8.3/contracts/utils/Address.sol\":8383:8393  returndata */\n      dup2\n        /* \"@chainlink/contracts/src/v0.8/vendor/openzeppelin-solidity/v4.8.3/contracts/utils/Address.sol\":8377:8394  mload(returndata) */\n      mload\n        /* \"@chainlink/contracts/src/v0.8/vendor/openzeppelin-solidity/v4.8.3/contracts/utils/Address.sol\":8431:8446  returndata_size */\n      dup1\n        /* \"@chainlink/contracts/src/v0.8/vendor/openzeppelin-solidity/v4.8.3/contracts/utils/Address.sol\":8418:8428  returndata */\n      dup4\n        /* \"@chainlink/contracts/src/v0.8/vendor/openzeppelin-solidity/v4.8.3/contracts/utils/Address.sol\":8414:8416  32 */\n      0x20\n        /* \"@chainlink/contracts/src/v0.8/vendor/openzeppelin-solidity/v4.8.3/contracts/utils/Address.sol\":8410:8429  add(32, returndata) */\n      add\n        /* \"@chainlink/contracts/src/v0.8/vendor/openzeppelin-solidity/v4.8.3/contracts/utils/Address.sol\":8403:8447  revert(add(32, returndata), returndata_size) */\n      revert\n        /* \"@chainlink/contracts/src/v0.8/vendor/openzeppelin-solidity/v4.8.3/contracts/utils/Address.sol\":8177:8502  if (returndata.length > 0) {... */\n    tag_208:\n        /* \"@chainlink/contracts/src/v0.8/vendor/openzeppelin-solidity/v4.8.3/contracts/utils/Address.sol\":8482:8494  errorMessage */\n      dup1\n        /* \"@chainlink/contracts/src/v0.8/vendor/openzeppelin-solidity/v4.8.3/contracts/utils/Address.sol\":8475:8495  revert(errorMessage) */\n      mload(0x40)\n      0x08c379a000000000000000000000000000000000000000000000000000000000\n      dup2\n      mstore\n      0x04\n      add\n      tag_210\n      swap2\n      swap1\n      tag_211\n      jump\t// in\n    tag_210:\n      mload(0x40)\n      dup1\n      swap2\n      sub\n      swap1\n      revert\n    tag_151:\n      mload(0x40)\n      dup1\n      0xa0\n      add\n      0x40\n      mstore\n      dup1\n      0x60\n      dup2\n      mstore\n      0x20\n      add\n      0x60\n      dup2\n      mstore\n      0x20\n      add\n      0x60\n      dup2\n      mstore\n      0x20\n      add\n      and(0xffffffffffffffffffffffffffffffffffffffff, 0x00)\n      dup2\n      mstore\n      0x20\n      add\n      0x60\n      dup2\n      mstore\n      pop\n      swap1\n      jump\t// out\n    tag_159:\n      mload(0x40)\n      dup1\n      0x40\n      add\n      0x40\n      mstore\n      dup1\n      and(0xffffffffffffffffffffffffffffffffffffffff, 0x00)\n      dup2\n      mstore\n      0x20\n      add\n      0x00\n      dup2\n      mstore\n      pop\n      swap1\n      jump\t// out\n        /* \"#utility.yul\":88:205   */\n    tag_213:\n        /* \"#utility.yul\":197:198   */\n      0x00\n        /* \"#utility.yul\":194:195   */\n      dup1\n        /* \"#utility.yul\":187:199   */\n      revert\n        /* \"#utility.yul\":334:460   */\n    tag_215:\n        /* \"#utility.yul\":371:378   */\n      0x00\n        /* \"#utility.yul\":411:453   */\n      0xffffffffffffffffffffffffffffffffffffffff\n        /* \"#utility.yul\":404:409   */\n      dup3\n        /* \"#utility.yul\":400:454   */\n      and\n        /* \"#utility.yul\":389:454   */\n      swap1\n      pop\n        /* \"#utility.yul\":334:460   */\n      swap2\n      swap1\n      pop\n      jump\t// out\n        /* \"#utility.yul\":466:562   */\n    tag_216:\n        /* \"#utility.yul\":503:510   */\n      0x00\n        /* \"#utility.yul\":532:556   */\n      tag_276\n        /* \"#utility.yul\":550:555   */\n      dup3\n        /* \"#utility.yul\":532:556   */\n      tag_215\n      jump\t// in\n    tag_276:\n        /* \"#utility.yul\":521:556   */\n      swap1\n      pop\n        /* \"#utility.yul\":466:562   */\n      swap2\n      swap1\n      pop\n      jump\t// out\n        /* \"#utility.yul\":568:690   */\n    tag_217:\n        /* \"#utility.yul\":641:665   */\n      tag_278\n        /* \"#utility.yul\":659:664   */\n      dup2\n        /* \"#utility.yul\":641:665   */\n      tag_216\n      jump\t// in\n    tag_278:\n        /* \"#utility.yul\":634:639   */\n      dup2\n        /* \"#utility.yul\":631:666   */\n      eq\n        /* \"#utility.yul\":621:684   */\n      tag_279\n      jumpi\n        /* \"#utility.yul\":680:681   */\n      0x00\n        /* \"#utility.yul\":677:678   */\n      dup1\n        /* \"#utility.yul\":670:682   */\n      revert\n        /* \"#utility.yul\":621:684   */\n    tag_279:\n        /* \"#utility.yul\":568:690   */\n      pop\n      jump\t// out\n        /* \"#utility.yul\":696:835   */\n    tag_218:\n        /* \"#utility.yul\":742:747   */\n      0x00\n        /* \"#utility.yul\":780:786   */\n      dup2\n        /* \"#utility.yul\":767:787   */\n      calldataload\n        /* \"#utility.yul\":758:787   */\n      swap1\n      pop\n        /* \"#utility.yul\":796:829   */\n      tag_281\n        /* \"#utility.yul\":823:828   */\n      dup2\n        /* \"#utility.yul\":796:829   */\n      tag_217\n      jump\t// in\n    tag_281:\n        /* \"#utility.yul\":696:835   */\n      swap3\n      swap2\n      pop\n      pop\n      jump\t// out\n        /* \"#utility.yul\":841:1315   */\n    tag_16:\n        /* \"#utility.yul\":909:915   */\n      0x00\n        /* \"#utility.yul\":917:923   */\n      dup1\n        /* \"#utility.yul\":966:968   */\n      0x40\n        /* \"#utility.yul\":954:963   */\n      dup4\n        /* \"#utility.yul\":945:952   */\n      dup6\n        /* \"#utility.yul\":941:964   */\n      sub\n        /* \"#utility.yul\":937:969   */\n      slt\n        /* \"#utility.yul\":934:1053   */\n      iszero\n      tag_283\n      jumpi\n        /* \"#utility.yul\":972:1051   */\n      tag_284\n      tag_213\n      jump\t// in\n    tag_284:\n        /* \"#utility.yul\":934:1053   */\n    tag_283:\n        /* \"#utility.yul\":1092:1093   */\n      0x00\n        /* \"#utility.yul\":1117:1170   */\n      tag_285\n        /* \"#utility.yul\":1162:1169   */\n      dup6\n        /* \"#utility.yul\":1153:1159   */\n      dup3\n        /* \"#utility.yul\":1142:1151   */\n      dup7\n        /* \"#utility.yul\":1138:1160   */\n      add\n        /* \"#utility.yul\":1117:1170   */\n      tag_218\n      jump\t// in\n    tag_285:\n        /* \"#utility.yul\":1107:1170   */\n      swap3\n      pop\n        /* \"#utility.yul\":1063:1180   */\n      pop\n        /* \"#utility.yul\":1219:1221   */\n      0x20\n        /* \"#utility.yul\":1245:1298   */\n      tag_286\n        /* \"#utility.yul\":1290:1297   */\n      dup6\n        /* \"#utility.yul\":1281:1287   */\n      dup3\n        /* \"#utility.yul\":1270:1279   */\n      dup7\n        /* \"#utility.yul\":1266:1288   */\n      add\n        /* \"#utility.yul\":1245:1298   */\n      tag_218\n      jump\t// in\n    tag_286:\n        /* \"#utility.yul\":1235:1298   */\n      swap2\n      pop\n        /* \"#utility.yul\":1190:1308   */\n      pop\n        /* \"#utility.yul\":841:1315   */\n      swap3\n      pop\n      swap3\n      swap1\n      pop\n      jump\t// out\n        /* \"#utility.yul\":1321:1650   */\n    tag_21:\n        /* \"#utility.yul\":1380:1386   */\n      0x00\n        /* \"#utility.yul\":1429:1431   */\n      0x20\n        /* \"#utility.yul\":1417:1426   */\n      dup3\n        /* \"#utility.yul\":1408:1415   */\n      dup5\n        /* \"#utility.yul\":1404:1427   */\n      sub\n        /* \"#utility.yul\":1400:1432   */\n      slt\n        /* \"#utility.yul\":1397:1516   */\n      iszero\n      tag_288\n      jumpi\n        /* \"#utility.yul\":1435:1514   */\n      tag_289\n      tag_213\n      jump\t// in\n    tag_289:\n        /* \"#utility.yul\":1397:1516   */\n    tag_288:\n        /* \"#utility.yul\":1555:1556   */\n      0x00\n        /* \"#utility.yul\":1580:1633   */\n      tag_290\n        /* \"#utility.yul\":1625:1632   */\n      dup5\n        /* \"#utility.yul\":1616:1622   */\n      dup3\n        /* \"#utility.yul\":1605:1614   */\n      dup6\n        /* \"#utility.yul\":1601:1623   */\n      add\n        /* \"#utility.yul\":1580:1633   */\n      tag_218\n      jump\t// in\n    tag_290:\n        /* \"#utility.yul\":1570:1633   */\n      swap2\n      pop\n        /* \"#utility.yul\":1526:1643   */\n      pop\n        /* \"#utility.yul\":1321:1650   */\n      swap3\n      swap2\n      pop\n      pop\n      jump\t// out\n        /* \"#utility.yul\":1656:1733   */\n    tag_219:\n        /* \"#utility.yul\":1693:1700   */\n      0x00\n        /* \"#utility.yul\":1722:1727   */\n      dup2\n        /* \"#utility.yul\":1711:1727   */\n      swap1\n      pop\n        /* \"#utility.yul\":1656:1733   */\n      swap2\n      swap1\n      pop\n      jump\t// out\n        /* \"#utility.yul\":1739:1861   */\n    tag_220:\n        /* \"#utility.yul\":1812:1836   */\n      tag_293\n        /* \"#utility.yul\":1830:1835   */\n      dup2\n        /* \"#utility.yul\":1812:1836   */\n      tag_219\n      jump\t// in\n    tag_293:\n        /* \"#utility.yul\":1805:1810   */\n      dup2\n        /* \"#utility.yul\":1802:1837   */\n      eq\n        /* \"#utility.yul\":1792:1855   */\n      tag_294\n      jumpi\n        /* \"#utility.yul\":1851:1852   */\n      0x00\n        /* \"#utility.yul\":1848:1849   */\n      dup1\n        /* \"#utility.yul\":1841:1853   */\n      revert\n        /* \"#utility.yul\":1792:1855   */\n    tag_294:\n        /* \"#utility.yul\":1739:1861   */\n      pop\n      jump\t// out\n        /* \"#utility.yul\":1867:2006   */\n    tag_221:\n        /* \"#utility.yul\":1913:1918   */\n      0x00\n        /* \"#utility.yul\":1951:1957   */\n      dup2\n        /* \"#utility.yul\":1938:1958   */\n      calldataload\n        /* \"#utility.yul\":1929:1958   */\n      swap1\n      pop\n        /* \"#utility.yul\":1967:2000   */\n      tag_296\n        /* \"#utility.yul\":1994:1999   */\n      dup2\n        /* \"#utility.yul\":1967:2000   */\n      tag_220\n      jump\t// in\n    tag_296:\n        /* \"#utility.yul\":1867:2006   */\n      swap3\n      swap2\n      pop\n      pop\n      jump\t// out\n        /* \"#utility.yul\":2012:2631   */\n    tag_29:\n        /* \"#utility.yul\":2089:2095   */\n      0x00\n        /* \"#utility.yul\":2097:2103   */\n      dup1\n        /* \"#utility.yul\":2105:2111   */\n      0x00\n        /* \"#utility.yul\":2154:2156   */\n      0x60\n        /* \"#utility.yul\":2142:2151   */\n      dup5\n        /* \"#utility.yul\":2133:2140   */\n      dup7\n        /* \"#utility.yul\":2129:2152   */\n      sub\n        /* \"#utility.yul\":2125:2157   */\n      slt\n        /* \"#utility.yul\":2122:2241   */\n      iszero\n      tag_298\n      jumpi\n        /* \"#utility.yul\":2160:2239   */\n      tag_299\n      tag_213\n      jump\t// in\n    tag_299:\n        /* \"#utility.yul\":2122:2241   */\n    tag_298:\n        /* \"#utility.yul\":2280:2281   */\n      0x00\n        /* \"#utility.yul\":2305:2358   */\n      tag_300\n        /* \"#utility.yul\":2350:2357   */\n      dup7\n        /* \"#utility.yul\":2341:2347   */\n      dup3\n        /* \"#utility.yul\":2330:2339   */\n      dup8\n        /* \"#utility.yul\":2326:2348   */\n      add\n        /* \"#utility.yul\":2305:2358   */\n      tag_218\n      jump\t// in\n    tag_300:\n        /* \"#utility.yul\":2295:2358   */\n      swap4\n      pop\n        /* \"#utility.yul\":2251:2368   */\n      pop\n        /* \"#utility.yul\":2407:2409   */\n      0x20\n        /* \"#utility.yul\":2433:2486   */\n      tag_301\n        /* \"#utility.yul\":2478:2485   */\n      dup7\n        /* \"#utility.yul\":2469:2475   */\n      dup3\n        /* \"#utility.yul\":2458:2467   */\n      dup8\n        /* \"#utility.yul\":2454:2476   */\n      add\n        /* \"#utility.yul\":2433:2486   */\n      tag_218\n      jump\t// in\n    tag_301:\n        /* \"#utility.yul\":2423:2486   */\n      swap3\n      pop\n        /* \"#utility.yul\":2378:2496   */\n      pop\n        /* \"#utility.yul\":2535:2537   */\n      0x40\n        /* \"#utility.yul\":2561:2614   */\n      tag_302\n        /* \"#utility.yul\":2606:2613   */\n      dup7\n        /* \"#utility.yul\":2597:2603   */\n      dup3\n        /* \"#utility.yul\":2586:2595   */\n      dup8\n        /* \"#utility.yul\":2582:2604   */\n      add\n        /* \"#utility.yul\":2561:2614   */\n      tag_221\n      jump\t// in\n    tag_302:\n        /* \"#utility.yul\":2551:2614   */\n      swap2\n      pop\n        /* \"#utility.yul\":2506:2624   */\n      pop\n        /* \"#utility.yul\":2012:2631   */\n      swap3\n      pop\n      swap3\n      pop\n      swap3\n      jump\t// out\n        /* \"#utility.yul\":2637:2714   */\n    tag_222:\n        /* \"#utility.yul\":2674:2681   */\n      0x00\n        /* \"#utility.yul\":2703:2708   */\n      dup2\n        /* \"#utility.yul\":2692:2708   */\n      swap1\n      pop\n        /* \"#utility.yul\":2637:2714   */\n      swap2\n      swap1\n      pop\n      jump\t// out\n        /* \"#utility.yul\":2720:2838   */\n    tag_223:\n        /* \"#utility.yul\":2807:2831   */\n      tag_305\n        /* \"#utility.yul\":2825:2830   */\n      dup2\n        /* \"#utility.yul\":2807:2831   */\n      tag_222\n      jump\t// in\n    tag_305:\n        /* \"#utility.yul\":2802:2805   */\n      dup3\n        /* \"#utility.yul\":2795:2832   */\n      mstore\n        /* \"#utility.yul\":2720:2838   */\n      pop\n      pop\n      jump\t// out\n        /* \"#utility.yul\":2844:3066   */\n    tag_32:\n        /* \"#utility.yul\":2937:2941   */\n      0x00\n        /* \"#utility.yul\":2975:2977   */\n      0x20\n        /* \"#utility.yul\":2964:2973   */\n      dup3\n        /* \"#utility.yul\":2960:2978   */\n      add\n        /* \"#utility.yul\":2952:2978   */\n      swap1\n      pop\n        /* \"#utility.yul\":2988:3059   */\n      tag_307\n        /* \"#utility.yul\":3056:3057   */\n      0x00\n        /* \"#utility.yul\":3045:3054   */\n      dup4\n        /* \"#utility.yul\":3041:3058   */\n      add\n        /* \"#utility.yul\":3032:3038   */\n      dup5\n        /* \"#utility.yul\":2988:3059   */\n      tag_223\n      jump\t// in\n    tag_307:\n        /* \"#utility.yul\":2844:3066   */\n      swap3\n      swap2\n      pop\n      pop\n      jump\t// out\n        /* \"#utility.yul\":3072:3190   */\n    tag_224:\n        /* \"#utility.yul\":3159:3183   */\n      tag_309\n        /* \"#utility.yul\":3177:3182   */\n      dup2\n        /* \"#utility.yul\":3159:3183   */\n      tag_216\n      jump\t// in\n    tag_309:\n        /* \"#utility.yul\":3154:3157   */\n      dup3\n        /* \"#utility.yul\":3147:3184   */\n      mstore\n        /* \"#utility.yul\":3072:3190   */\n      pop\n      pop\n      jump\t// out\n        /* \"#utility.yul\":3196:3418   */\n    tag_37:\n        /* \"#utility.yul\":3289:3293   */\n      0x00\n        /* \"#utility.yul\":3327:3329   */\n      0x20\n        /* \"#utility.yul\":3316:3325   */\n      dup3\n        /* \"#utility.yul\":3312:3330   */\n      add\n        /* \"#utility.yul\":3304:3330   */\n      swap1\n      pop\n        /* \"#utility.yul\":3340:3411   */\n      tag_311\n        /* \"#utility.yul\":3408:3409   */\n      0x00\n        /* \"#utility.yul\":3397:3406   */\n      dup4\n        /* \"#utility.yul\":3393:3410   */\n      add\n        /* \"#utility.yul\":3384:3390   */\n      dup5\n        /* \"#utility.yul\":3340:3411   */\n      tag_224\n      jump\t// in\n    tag_311:\n        /* \"#utility.yul\":3196:3418   */\n      swap3\n      swap2\n      pop\n      pop\n      jump\t// out\n        /* \"#utility.yul\":3424:3567   */\n    tag_225:\n        /* \"#utility.yul\":3481:3486   */\n      0x00\n        /* \"#utility.yul\":3512:3518   */\n      dup2\n        /* \"#utility.yul\":3506:3519   */\n      mload\n        /* \"#utility.yul\":3497:3519   */\n      swap1\n      pop\n        /* \"#utility.yul\":3528:3561   */\n      tag_313\n        /* \"#utility.yul\":3555:3560   */\n      dup2\n        /* \"#utility.yul\":3528:3561   */\n      tag_220\n      jump\t// in\n    tag_313:\n        /* \"#utility.yul\":3424:3567   */\n      swap3\n      swap2\n      pop\n      pop\n      jump\t// out\n        /* \"#utility.yul\":3573:3924   */\n    tag_55:\n        /* \"#utility.yul\":3643:3649   */\n      0x00\n        /* \"#utility.yul\":3692:3694   */\n      0x20\n        /* \"#utility.yul\":3680:3689   */\n      dup3\n        /* \"#utility.yul\":3671:3678   */\n      dup5\n        /* \"#utility.yul\":3667:3690   */\n      sub\n        /* \"#utility.yul\":3663:3695   */\n      slt\n        /* \"#utility.yul\":3660:3779   */\n      iszero\n      tag_315\n      jumpi\n        /* \"#utility.yul\":3698:3777   */\n      tag_316\n      tag_213\n      jump\t// in\n    tag_316:\n        /* \"#utility.yul\":3660:3779   */\n    tag_315:\n        /* \"#utility.yul\":3818:3819   */\n      0x00\n        /* \"#utility.yul\":3843:3907   */\n      tag_317\n        /* \"#utility.yul\":3899:3906   */\n      dup5\n        /* \"#utility.yul\":3890:3896   */\n      dup3\n        /* \"#utility.yul\":3879:3888   */\n      dup6\n        /* \"#utility.yul\":3875:3897   */\n      add\n        /* \"#utility.yul\":3843:3907   */\n      tag_225\n      jump\t// in\n    tag_317:\n        /* \"#utility.yul\":3833:3907   */\n      swap2\n      pop\n        /* \"#utility.yul\":3789:3917   */\n      pop\n        /* \"#utility.yul\":3573:3924   */\n      swap3\n      swap2\n      pop\n      pop\n      jump\t// out\n        /* \"#utility.yul\":3930:4077   */\n    tag_226:\n        /* \"#utility.yul\":4031:4042   */\n      0x00\n        /* \"#utility.yul\":4068:4071   */\n      dup2\n        /* \"#utility.yul\":4053:4071   */\n      swap1\n      pop\n        /* \"#utility.yul\":3930:4077   */\n      swap3\n      swap2\n      pop\n      pop\n      jump\t// out\n        /* \"#utility.yul\":4083:4197   */\n    tag_227:\n      pop\n      jump\t// out\n        /* \"#utility.yul\":4203:4601   */\n    tag_228:\n        /* \"#utility.yul\":4362:4365   */\n      0x00\n        /* \"#utility.yul\":4383:4466   */\n      tag_321\n        /* \"#utility.yul\":4464:4465   */\n      0x00\n        /* \"#utility.yul\":4459:4462   */\n      dup4\n        /* \"#utility.yul\":4383:4466   */\n      tag_226\n      jump\t// in\n    tag_321:\n        /* \"#utility.yul\":4376:4466   */\n      swap2\n      pop\n        /* \"#utility.yul\":4475:4568   */\n      tag_322\n        /* \"#utility.yul\":4564:4567   */\n      dup3\n        /* \"#utility.yul\":4475:4568   */\n      tag_227\n      jump\t// in\n    tag_322:\n        /* \"#utility.yul\":4593:4594   */\n      0x00\n        /* \"#utility.yul\":4588:4591   */\n      dup3\n        /* \"#utility.yul\":4584:4595   */\n      add\n        /* \"#utility.yul\":4577:4595   */\n      swap1\n      pop\n        /* \"#utility.yul\":4203:4601   */\n      swap2\n      swap1\n      pop\n      jump\t// out\n        /* \"#utility.yul\":4607:4986   */\n    tag_64:\n        /* \"#utility.yul\":4791:4794   */\n      0x00\n        /* \"#utility.yul\":4813:4960   */\n      tag_324\n        /* \"#utility.yul\":4956:4959   */\n      dup3\n        /* \"#utility.yul\":4813:4960   */\n      tag_228\n      jump\t// in\n    tag_324:\n        /* \"#utility.yul\":4806:4960   */\n      swap2\n      pop\n        /* \"#utility.yul\":4977:4980   */\n      dup2\n        /* \"#utility.yul\":4970:4980   */\n      swap1\n      pop\n        /* \"#utility.yul\":4607:4986   */\n      swap2\n      swap1\n      pop\n      jump\t// out\n        /* \"#utility.yul\":4992:5110   */\n    tag_229:\n        /* \"#utility.yul\":5079:5103   */\n      tag_326\n        /* \"#utility.yul\":5097:5102   */\n      dup2\n        /* \"#utility.yul\":5079:5103   */\n      tag_219\n      jump\t// in\n    tag_326:\n        /* \"#utility.yul\":5074:5077   */\n      dup3\n        /* \"#utility.yul\":5067:5104   */\n      mstore\n        /* \"#utility.yul\":4992:5110   */\n      pop\n      pop\n      jump\t// out\n        /* \"#utility.yul\":5116:5558   */\n    tag_70:\n        /* \"#utility.yul\":5265:5269   */\n      0x00\n        /* \"#utility.yul\":5303:5305   */\n      0x60\n        /* \"#utility.yul\":5292:5301   */\n      dup3\n        /* \"#utility.yul\":5288:5306   */\n      add\n        /* \"#utility.yul\":5280:5306   */\n      swap1\n      pop\n        /* \"#utility.yul\":5316:5387   */\n      tag_328\n        /* \"#utility.yul\":5384:5385   */\n      0x00\n        /* \"#utility.yul\":5373:5382   */\n      dup4\n        /* \"#utility.yul\":5369:5386   */\n      add\n        /* \"#utility.yul\":5360:5366   */\n      dup7\n        /* \"#utility.yul\":5316:5387   */\n      tag_224\n      jump\t// in\n    tag_328:\n        /* \"#utility.yul\":5397:5469   */\n      tag_329\n        /* \"#utility.yul\":5465:5467   */\n      0x20\n        /* \"#utility.yul\":5454:5463   */\n      dup4\n        /* \"#utility.yul\":5450:5468   */\n      add\n        /* \"#utility.yul\":5441:5447   */\n      dup6\n        /* \"#utility.yul\":5397:5469   */\n      tag_224\n      jump\t// in\n    tag_329:\n        /* \"#utility.yul\":5479:5551   */\n      tag_330\n        /* \"#utility.yul\":5547:5549   */\n      0x40\n        /* \"#utility.yul\":5536:5545   */\n      dup4\n        /* \"#utility.yul\":5532:5550   */\n      add\n        /* \"#utility.yul\":5523:5529   */\n      dup5\n        /* \"#utility.yul\":5479:5551   */\n      tag_229\n      jump\t// in\n    tag_330:\n        /* \"#utility.yul\":5116:5558   */\n      swap5\n      swap4\n      pop\n      pop\n      pop\n      pop\n      jump\t// out\n        /* \"#utility.yul\":5564:5733   */\n    tag_230:\n        /* \"#utility.yul\":5648:5659   */\n      0x00\n        /* \"#utility.yul\":5682:5688   */\n      dup3\n        /* \"#utility.yul\":5677:5680   */\n      dup3\n        /* \"#utility.yul\":5670:5689   */\n      mstore\n        /* \"#utility.yul\":5722:5726   */\n      0x20\n        /* \"#utility.yul\":5717:5720   */\n      dup3\n        /* \"#utility.yul\":5713:5727   */\n      add\n        /* \"#utility.yul\":5698:5727   */\n      swap1\n      pop\n        /* \"#utility.yul\":5564:5733   */\n      swap3\n      swap2\n      pop\n      pop\n      jump\t// out\n        /* \"#utility.yul\":5739:5911   */\n    tag_231:\n        /* \"#utility.yul\":5879:5903   */\n      0x4d7573742062652070726f706f736564206f776e657200000000000000000000\n        /* \"#utility.yul\":5875:5876   */\n      0x00\n        /* \"#utility.yul\":5867:5873   */\n      dup3\n        /* \"#utility.yul\":5863:5877   */\n      add\n        /* \"#utility.yul\":5856:5904   */\n      mstore\n        /* \"#utility.yul\":5739:5911   */\n      pop\n      jump\t// out\n        /* \"#utility.yul\":5917:6283   */\n    tag_232:\n        /* \"#utility.yul\":6059:6062   */\n      0x00\n        /* \"#utility.yul\":6080:6147   */\n      tag_334\n        /* \"#utility.yul\":6144:6146   */\n      0x16\n        /* \"#utility.yul\":6139:6142   */\n      dup4\n        /* \"#utility.yul\":6080:6147   */\n      tag_230\n      jump\t// in\n    tag_334:\n        /* \"#utility.yul\":6073:6147   */\n      swap2\n      pop\n        /* \"#utility.yul\":6156:6249   */\n      tag_335\n        /* \"#utility.yul\":6245:6248   */\n      dup3\n        /* \"#utility.yul\":6156:6249   */\n      tag_231\n      jump\t// in\n    tag_335:\n        /* \"#utility.yul\":6274:6276   */\n      0x20\n        /* \"#utility.yul\":6269:6272   */\n      dup3\n        /* \"#utility.yul\":6265:6277   */\n      add\n        /* \"#utility.yul\":6258:6277   */\n      swap1\n      pop\n        /* \"#utility.yul\":5917:6283   */\n      swap2\n      swap1\n      pop\n      jump\t// out\n        /* \"#utility.yul\":6289:6708   */\n    tag_74:\n        /* \"#utility.yul\":6455:6459   */\n      0x00\n        /* \"#utility.yul\":6493:6495   */\n      0x20\n        /* \"#utility.yul\":6482:6491   */\n      dup3\n        /* \"#utility.yul\":6478:6496   */\n      add\n        /* \"#utility.yul\":6470:6496   */\n      swap1\n      pop\n        /* \"#utility.yul\":6542:6551   */\n      dup2\n        /* \"#utility.yul\":6536:6540   */\n      dup2\n        /* \"#utility.yul\":6532:6552   */\n      sub\n        /* \"#utility.yul\":6528:6529   */\n      0x00\n        /* \"#utility.yul\":6517:6526   */\n      dup4\n        /* \"#utility.yul\":6513:6530   */\n      add\n        /* \"#utility.yul\":6506:6553   */\n      mstore\n        /* \"#utility.yul\":6570:6701   */\n      tag_337\n        /* \"#utility.yul\":6696:6700   */\n      dup2\n        /* \"#utility.yul\":6570:6701   */\n      tag_232\n      jump\t// in\n    tag_337:\n        /* \"#utility.yul\":6562:6701   */\n      swap1\n      pop\n        /* \"#utility.yul\":6289:6708   */\n      swap2\n      swap1\n      pop\n      jump\t// out\n        /* \"#utility.yul\":6714:6815   */\n    tag_233:\n        /* \"#utility.yul\":6750:6757   */\n      0x00\n        /* \"#utility.yul\":6790:6808   */\n      0xffffffffffffffff\n        /* \"#utility.yul\":6783:6788   */\n      dup3\n        /* \"#utility.yul\":6779:6809   */\n      and\n        /* \"#utility.yul\":6768:6809   */\n      swap1\n      pop\n        /* \"#utility.yul\":6714:6815   */\n      swap2\n      swap1\n      pop\n      jump\t// out\n        /* \"#utility.yul\":6821:6936   */\n    tag_234:\n        /* \"#utility.yul\":6906:6929   */\n      tag_340\n        /* \"#utility.yul\":6923:6928   */\n      dup2\n        /* \"#utility.yul\":6906:6929   */\n      tag_233\n      jump\t// in\n    tag_340:\n        /* \"#utility.yul\":6901:6904   */\n      dup3\n        /* \"#utility.yul\":6894:6930   */\n      mstore\n        /* \"#utility.yul\":6821:6936   */\n      pop\n      pop\n      jump\t// out\n        /* \"#utility.yul\":6942:7040   */\n    tag_235:\n        /* \"#utility.yul\":6993:6999   */\n      0x00\n        /* \"#utility.yul\":7027:7032   */\n      dup2\n        /* \"#utility.yul\":7021:7033   */\n      mload\n        /* \"#utility.yul\":7011:7033   */\n      swap1\n      pop\n        /* \"#utility.yul\":6942:7040   */\n      swap2\n      swap1\n      pop\n      jump\t// out\n        /* \"#utility.yul\":7046:7204   */\n    tag_236:\n        /* \"#utility.yul\":7119:7130   */\n      0x00\n        /* \"#utility.yul\":7153:7159   */\n      dup3\n        /* \"#utility.yul\":7148:7151   */\n      dup3\n        /* \"#utility.yul\":7141:7160   */\n      mstore\n        /* \"#utility.yul\":7193:7197   */\n      0x20\n        /* \"#utility.yul\":7188:7191   */\n      dup3\n        /* \"#utility.yul\":7184:7198   */\n      add\n        /* \"#utility.yul\":7169:7198   */\n      swap1\n      pop\n        /* \"#utility.yul\":7046:7204   */\n      swap3\n      swap2\n      pop\n      pop\n      jump\t// out\n        /* \"#utility.yul\":7210:7456   */\n    tag_237:\n        /* \"#utility.yul\":7291:7292   */\n      0x00\n        /* \"#utility.yul\":7301:7414   */\n    tag_344:\n        /* \"#utility.yul\":7315:7321   */\n      dup4\n        /* \"#utility.yul\":7312:7313   */\n      dup2\n        /* \"#utility.yul\":7309:7322   */\n      lt\n        /* \"#utility.yul\":7301:7414   */\n      iszero\n      tag_346\n      jumpi\n        /* \"#utility.yul\":7400:7401   */\n      dup1\n        /* \"#utility.yul\":7395:7398   */\n      dup3\n        /* \"#utility.yul\":7391:7402   */\n      add\n        /* \"#utility.yul\":7385:7403   */\n      mload\n        /* \"#utility.yul\":7381:7382   */\n      dup2\n        /* \"#utility.yul\":7376:7379   */\n      dup5\n        /* \"#utility.yul\":7372:7383   */\n      add\n        /* \"#utility.yul\":7365:7404   */\n      mstore\n        /* \"#utility.yul\":7337:7339   */\n      0x20\n        /* \"#utility.yul\":7334:7335   */\n      dup2\n        /* \"#utility.yul\":7330:7340   */\n      add\n        /* \"#utility.yul\":7325:7340   */\n      swap1\n      pop\n        /* \"#utility.yul\":7301:7414   */\n      jump(tag_344)\n    tag_346:\n        /* \"#utility.yul\":7448:7449   */\n      0x00\n        /* \"#utility.yul\":7439:7445   */\n      dup5\n        /* \"#utility.yul\":7434:7437   */\n      dup5\n        /* \"#utility.yul\":7430:7446   */\n      add\n        /* \"#utility.yul\":7423:7450   */\n      mstore\n        /* \"#utility.yul\":7272:7456   */\n      pop\n        /* \"#utility.yul\":7210:7456   */\n      pop\n      pop\n      pop\n      jump\t// out\n        /* \"#utility.yul\":7462:7564   */\n    tag_238:\n        /* \"#utility.yul\":7503:7509   */\n      0x00\n        /* \"#utility.yul\":7554:7556   */\n      0x1f\n        /* \"#utility.yul\":7550:7557   */\n      not\n        /* \"#utility.yul\":7545:7547   */\n      0x1f\n        /* \"#utility.yul\":7538:7543   */\n      dup4\n        /* \"#utility.yul\":7534:7548   */\n      add\n        /* \"#utility.yul\":7530:7558   */\n      and\n        /* \"#utility.yul\":7520:7558   */\n      swap1\n      pop\n        /* \"#utility.yul\":7462:7564   */\n      swap2\n      swap1\n      pop\n      jump\t// out\n        /* \"#utility.yul\":7570:7923   */\n    tag_239:\n        /* \"#utility.yul\":7646:7649   */\n      0x00\n        /* \"#utility.yul\":7674:7712   */\n      tag_349\n        /* \"#utility.yul\":7706:7711   */\n      dup3\n        /* \"#utility.yul\":7674:7712   */\n      tag_235\n      jump\t// in\n    tag_349:\n        /* \"#utility.yul\":7728:7788   */\n      tag_350\n        /* \"#utility.yul\":7781:7787   */\n      dup2\n        /* \"#utility.yul\":7776:7779   */\n      dup6\n        /* \"#utility.yul\":7728:7788   */\n      tag_236\n      jump\t// in\n    tag_350:\n        /* \"#utility.yul\":7721:7788   */\n      swap4\n      pop\n        /* \"#utility.yul\":7797:7862   */\n      tag_351\n        /* \"#utility.yul\":7855:7861   */\n      dup2\n        /* \"#utility.yul\":7850:7853   */\n      dup6\n        /* \"#utility.yul\":7843:7847   */\n      0x20\n        /* \"#utility.yul\":7836:7841   */\n      dup7\n        /* \"#utility.yul\":7832:7848   */\n      add\n        /* \"#utility.yul\":7797:7862   */\n      tag_237\n      jump\t// in\n    tag_351:\n        /* \"#utility.yul\":7887:7916   */\n      tag_352\n        /* \"#utility.yul\":7909:7915   */\n      dup2\n        /* \"#utility.yul\":7887:7916   */\n      tag_238\n      jump\t// in\n    tag_352:\n        /* \"#utility.yul\":7882:7885   */\n      dup5\n        /* \"#utility.yul\":7878:7917   */\n      add\n        /* \"#utility.yul\":7871:7917   */\n      swap2\n      pop\n        /* \"#utility.yul\":7650:7923   */\n      pop\n        /* \"#utility.yul\":7570:7923   */\n      swap3\n      swap2\n      pop\n      pop\n      jump\t// out\n        /* \"#utility.yul\":7929:8073   */\n    tag_240:\n        /* \"#utility.yul\":8026:8032   */\n      0x00\n        /* \"#utility.yul\":8060:8065   */\n      dup2\n        /* \"#utility.yul\":8054:8066   */\n      mload\n        /* \"#utility.yul\":8044:8066   */\n      swap1\n      pop\n        /* \"#utility.yul\":7929:8073   */\n      swap2\n      swap1\n      pop\n      jump\t// out\n        /* \"#utility.yul\":8079:8283   */\n    tag_241:\n        /* \"#utility.yul\":8198:8209   */\n      0x00\n        /* \"#utility.yul\":8232:8238   */\n      dup3\n        /* \"#utility.yul\":8227:8230   */\n      dup3\n        /* \"#utility.yul\":8220:8239   */\n      mstore\n        /* \"#utility.yul\":8272:8276   */\n      0x20\n        /* \"#utility.yul\":8267:8270   */\n      dup3\n        /* \"#utility.yul\":8263:8277   */\n      add\n        /* \"#utility.yul\":8248:8277   */\n      swap1\n      pop\n        /* \"#utility.yul\":8079:8283   */\n      swap3\n      swap2\n      pop\n      pop\n      jump\t// out\n        /* \"#utility.yul\":8289:8451   */\n    tag_242:\n        /* \"#utility.yul\":8386:8390   */\n      0x00\n        /* \"#utility.yul\":8409:8412   */\n      dup2\n        /* \"#utility.yul\":8401:8412   */\n      swap1\n      pop\n        /* \"#utility.yul\":8439:8443   */\n      0x20\n        /* \"#utility.yul\":8434:8437   */\n      dup3\n        /* \"#utility.yul\":8430:8444   */\n      add\n        /* \"#utility.yul\":8422:8444   */\n      swap1\n      pop\n        /* \"#utility.yul\":8289:8451   */\n      swap2\n      swap1\n      pop\n      jump\t// out\n        /* \"#utility.yul\":8457:8565   */\n    tag_243:\n        /* \"#utility.yul\":8534:8558   */\n      tag_357\n        /* \"#utility.yul\":8552:8557   */\n      dup2\n        /* \"#utility.yul\":8534:8558   */\n      tag_216\n      jump\t// in\n    tag_357:\n        /* \"#utility.yul\":8529:8532   */\n      dup3\n        /* \"#utility.yul\":8522:8559   */\n      mstore\n        /* \"#utility.yul\":8457:8565   */\n      pop\n      pop\n      jump\t// out\n        /* \"#utility.yul\":8571:8679   */\n    tag_244:\n        /* \"#utility.yul\":8648:8672   */\n      tag_359\n        /* \"#utility.yul\":8666:8671   */\n      dup2\n        /* \"#utility.yul\":8648:8672   */\n      tag_219\n      jump\t// in\n    tag_359:\n        /* \"#utility.yul\":8643:8646   */\n      dup3\n        /* \"#utility.yul\":8636:8673   */\n      mstore\n        /* \"#utility.yul\":8571:8679   */\n      pop\n      pop\n      jump\t// out\n        /* \"#utility.yul\":8753:9263   */\n    tag_245:\n        /* \"#utility.yul\":8900:8904   */\n      0x40\n        /* \"#utility.yul\":8895:8898   */\n      dup3\n        /* \"#utility.yul\":8891:8905   */\n      add\n        /* \"#utility.yul\":8988:8992   */\n      0x00\n        /* \"#utility.yul\":8981:8986   */\n      dup3\n        /* \"#utility.yul\":8977:8993   */\n      add\n        /* \"#utility.yul\":8971:8994   */\n      mload\n        /* \"#utility.yul\":9007:9070   */\n      tag_361\n        /* \"#utility.yul\":9064:9068   */\n      0x00\n        /* \"#utility.yul\":9059:9062   */\n      dup6\n        /* \"#utility.yul\":9055:9069   */\n      add\n        /* \"#utility.yul\":9041:9053   */\n      dup3\n        /* \"#utility.yul\":9007:9070   */\n      tag_243\n      jump\t// in\n    tag_361:\n        /* \"#utility.yul\":8915:9080   */\n      pop\n        /* \"#utility.yul\":9164:9168   */\n      0x20\n        /* \"#utility.yul\":9157:9162   */\n      dup3\n        /* \"#utility.yul\":9153:9169   */\n      add\n        /* \"#utility.yul\":9147:9170   */\n      mload\n        /* \"#utility.yul\":9183:9246   */\n      tag_362\n        /* \"#utility.yul\":9240:9244   */\n      0x20\n        /* \"#utility.yul\":9235:9238   */\n      dup6\n        /* \"#utility.yul\":9231:9245   */\n      add\n        /* \"#utility.yul\":9217:9229   */\n      dup3\n        /* \"#utility.yul\":9183:9246   */\n      tag_244\n      jump\t// in\n    tag_362:\n        /* \"#utility.yul\":9090:9256   */\n      pop\n        /* \"#utility.yul\":8869:9263   */\n      pop\n        /* \"#utility.yul\":8753:9263   */\n      pop\n      pop\n      jump\t// out\n        /* \"#utility.yul\":9269:9568   */\n    tag_246:\n        /* \"#utility.yul\":9398:9408   */\n      0x00\n        /* \"#utility.yul\":9419:9525   */\n      tag_364\n        /* \"#utility.yul\":9521:9524   */\n      dup4\n        /* \"#utility.yul\":9513:9519   */\n      dup4\n        /* \"#utility.yul\":9419:9525   */\n      tag_245\n      jump\t// in\n    tag_364:\n        /* \"#utility.yul\":9557:9561   */\n      0x40\n        /* \"#utility.yul\":9552:9555   */\n      dup4\n        /* \"#utility.yul\":9548:9562   */\n      add\n        /* \"#utility.yul\":9534:9562   */\n      swap1\n      pop\n        /* \"#utility.yul\":9269:9568   */\n      swap3\n      swap2\n      pop\n      pop\n      jump\t// out\n        /* \"#utility.yul\":9574:9717   */\n    tag_247:\n        /* \"#utility.yul\":9674:9678   */\n      0x00\n        /* \"#utility.yul\":9706:9710   */\n      0x20\n        /* \"#utility.yul\":9701:9704   */\n      dup3\n        /* \"#utility.yul\":9697:9711   */\n      add\n        /* \"#utility.yul\":9689:9711   */\n      swap1\n      pop\n        /* \"#utility.yul\":9574:9717   */\n      swap2\n      swap1\n      pop\n      jump\t// out\n        /* \"#utility.yul\":9795:10747   */\n    tag_248:\n        /* \"#utility.yul\":9964:9967   */\n      0x00\n        /* \"#utility.yul\":9993:10077   */\n      tag_367\n        /* \"#utility.yul\":10071:10076   */\n      dup3\n        /* \"#utility.yul\":9993:10077   */\n      tag_240\n      jump\t// in\n    tag_367:\n        /* \"#utility.yul\":10093:10199   */\n      tag_368\n        /* \"#utility.yul\":10192:10198   */\n      dup2\n        /* \"#utility.yul\":10187:10190   */\n      dup6\n        /* \"#utility.yul\":10093:10199   */\n      tag_241\n      jump\t// in\n    tag_368:\n        /* \"#utility.yul\":10086:10199   */\n      swap4\n      pop\n        /* \"#utility.yul\":10223:10309   */\n      tag_369\n        /* \"#utility.yul\":10303:10308   */\n      dup4\n        /* \"#utility.yul\":10223:10309   */\n      tag_242\n      jump\t// in\n    tag_369:\n        /* \"#utility.yul\":10332:10339   */\n      dup1\n        /* \"#utility.yul\":10363:10364   */\n      0x00\n        /* \"#utility.yul\":10348:10722   */\n    tag_370:\n        /* \"#utility.yul\":10373:10379   */\n      dup4\n        /* \"#utility.yul\":10370:10371   */\n      dup2\n        /* \"#utility.yul\":10367:10380   */\n      lt\n        /* \"#utility.yul\":10348:10722   */\n      iszero\n      tag_372\n      jumpi\n        /* \"#utility.yul\":10449:10455   */\n      dup2\n        /* \"#utility.yul\":10443:10456   */\n      mload\n        /* \"#utility.yul\":10476:10599   */\n      tag_373\n        /* \"#utility.yul\":10595:10598   */\n      dup9\n        /* \"#utility.yul\":10580:10593   */\n      dup3\n        /* \"#utility.yul\":10476:10599   */\n      tag_246\n      jump\t// in\n    tag_373:\n        /* \"#utility.yul\":10469:10599   */\n      swap8\n      pop\n        /* \"#utility.yul\":10622:10712   */\n      tag_374\n        /* \"#utility.yul\":10705:10711   */\n      dup4\n        /* \"#utility.yul\":10622:10712   */\n      tag_247\n      jump\t// in\n    tag_374:\n        /* \"#utility.yul\":10612:10712   */\n      swap3\n      pop\n        /* \"#utility.yul\":10408:10722   */\n      pop\n        /* \"#utility.yul\":10395:10396   */\n      0x01\n        /* \"#utility.yul\":10392:10393   */\n      dup2\n        /* \"#utility.yul\":10388:10397   */\n      add\n        /* \"#utility.yul\":10383:10397   */\n      swap1\n      pop\n        /* \"#utility.yul\":10348:10722   */\n      jump(tag_370)\n    tag_372:\n        /* \"#utility.yul\":10352:10366   */\n      pop\n        /* \"#utility.yul\":10738:10741   */\n      dup6\n        /* \"#utility.yul\":10731:10741   */\n      swap4\n      pop\n        /* \"#utility.yul\":9969:10747   */\n      pop\n      pop\n      pop\n        /* \"#utility.yul\":9795:10747   */\n      swap3\n      swap2\n      pop\n      pop\n      jump\t// out\n        /* \"#utility.yul\":10821:12277   */\n    tag_249:\n        /* \"#utility.yul\":10950:10953   */\n      0x00\n        /* \"#utility.yul\":10986:10990   */\n      0xa0\n        /* \"#utility.yul\":10981:10984   */\n      dup4\n        /* \"#utility.yul\":10977:10991   */\n      add\n        /* \"#utility.yul\":11077:11081   */\n      0x00\n        /* \"#utility.yul\":11070:11075   */\n      dup4\n        /* \"#utility.yul\":11066:11082   */\n      add\n        /* \"#utility.yul\":11060:11083   */\n      mload\n        /* \"#utility.yul\":11130:11133   */\n      dup5\n        /* \"#utility.yul\":11124:11128   */\n      dup3\n        /* \"#utility.yul\":11120:11134   */\n      sub\n        /* \"#utility.yul\":11113:11117   */\n      0x00\n        /* \"#utility.yul\":11108:11111   */\n      dup7\n        /* \"#utility.yul\":11104:11118   */\n      add\n        /* \"#utility.yul\":11097:11135   */\n      mstore\n        /* \"#utility.yul\":11156:11227   */\n      tag_376\n        /* \"#utility.yul\":11222:11226   */\n      dup3\n        /* \"#utility.yul\":11208:11220   */\n      dup3\n        /* \"#utility.yul\":11156:11227   */\n      tag_239\n      jump\t// in\n    tag_376:\n        /* \"#utility.yul\":11148:11227   */\n      swap2\n      pop\n        /* \"#utility.yul\":11001:11238   */\n      pop\n        /* \"#utility.yul\":11320:11324   */\n      0x20\n        /* \"#utility.yul\":11313:11318   */\n      dup4\n        /* \"#utility.yul\":11309:11325   */\n      add\n        /* \"#utility.yul\":11303:11326   */\n      mload\n        /* \"#utility.yul\":11373:11376   */\n      dup5\n        /* \"#utility.yul\":11367:11371   */\n      dup3\n        /* \"#utility.yul\":11363:11377   */\n      sub\n        /* \"#utility.yul\":11356:11360   */\n      0x20\n        /* \"#utility.yul\":11351:11354   */\n      dup7\n        /* \"#utility.yul\":11347:11361   */\n      add\n        /* \"#utility.yul\":11340:11378   */\n      mstore\n        /* \"#utility.yul\":11399:11470   */\n      tag_377\n        /* \"#utility.yul\":11465:11469   */\n      dup3\n        /* \"#utility.yul\":11451:11463   */\n      dup3\n        /* \"#utility.yul\":11399:11470   */\n      tag_239\n      jump\t// in\n    tag_377:\n        /* \"#utility.yul\":11391:11470   */\n      swap2\n      pop\n        /* \"#utility.yul\":11248:11481   */\n      pop\n        /* \"#utility.yul\":11571:11575   */\n      0x40\n        /* \"#utility.yul\":11564:11569   */\n      dup4\n        /* \"#utility.yul\":11560:11576   */\n      add\n        /* \"#utility.yul\":11554:11577   */\n      mload\n        /* \"#utility.yul\":11624:11627   */\n      dup5\n        /* \"#utility.yul\":11618:11622   */\n      dup3\n        /* \"#utility.yul\":11614:11628   */\n      sub\n        /* \"#utility.yul\":11607:11611   */\n      0x40\n        /* \"#utility.yul\":11602:11605   */\n      dup7\n        /* \"#utility.yul\":11598:11612   */\n      add\n        /* \"#utility.yul\":11591:11629   */\n      mstore\n        /* \"#utility.yul\":11650:11813   */\n      tag_378\n        /* \"#utility.yul\":11808:11812   */\n      dup3\n        /* \"#utility.yul\":11794:11806   */\n      dup3\n        /* \"#utility.yul\":11650:11813   */\n      tag_248\n      jump\t// in\n    tag_378:\n        /* \"#utility.yul\":11642:11813   */\n      swap2\n      pop\n        /* \"#utility.yul\":11491:11824   */\n      pop\n        /* \"#utility.yul\":11910:11914   */\n      0x60\n        /* \"#utility.yul\":11903:11908   */\n      dup4\n        /* \"#utility.yul\":11899:11915   */\n      add\n        /* \"#utility.yul\":11893:11916   */\n      mload\n        /* \"#utility.yul\":11929:11992   */\n      tag_379\n        /* \"#utility.yul\":11986:11990   */\n      0x60\n        /* \"#utility.yul\":11981:11984   */\n      dup7\n        /* \"#utility.yul\":11977:11991   */\n      add\n        /* \"#utility.yul\":11963:11975   */\n      dup3\n        /* \"#utility.yul\":11929:11992   */\n      tag_243\n      jump\t// in\n    tag_379:\n        /* \"#utility.yul\":11834:12002   */\n      pop\n        /* \"#utility.yul\":12089:12093   */\n      0x80\n        /* \"#utility.yul\":12082:12087   */\n      dup4\n        /* \"#utility.yul\":12078:12094   */\n      add\n        /* \"#utility.yul\":12072:12095   */\n      mload\n        /* \"#utility.yul\":12142:12145   */\n      dup5\n        /* \"#utility.yul\":12136:12140   */\n      dup3\n        /* \"#utility.yul\":12132:12146   */\n      sub\n        /* \"#utility.yul\":12125:12129   */\n      0x80\n        /* \"#utility.yul\":12120:12123   */\n      dup7\n        /* \"#utility.yul\":12116:12130   */\n      add\n        /* \"#utility.yul\":12109:12147   */\n      mstore\n        /* \"#utility.yul\":12168:12239   */\n      tag_380\n        /* \"#utility.yul\":12234:12238   */\n      dup3\n        /* \"#utility.yul\":12220:12232   */\n      dup3\n        /* \"#utility.yul\":12168:12239   */\n      tag_239\n      jump\t// in\n    tag_380:\n        /* \"#utility.yul\":12160:12239   */\n      swap2\n      pop\n        /* \"#utility.yul\":12012:12250   */\n      pop\n        /* \"#utility.yul\":12267:12271   */\n      dup1\n        /* \"#utility.yul\":12260:12271   */\n      swap2\n      pop\n        /* \"#utility.yul\":10955:12277   */\n      pop\n        /* \"#utility.yul\":10821:12277   */\n      swap3\n      swap2\n      pop\n      pop\n      jump\t// out\n        /* \"#utility.yul\":12283:12782   */\n    tag_83:\n        /* \"#utility.yul\":12462:12466   */\n      0x00\n        /* \"#utility.yul\":12500:12502   */\n      0x40\n        /* \"#utility.yul\":12489:12498   */\n      dup3\n        /* \"#utility.yul\":12485:12503   */\n      add\n        /* \"#utility.yul\":12477:12503   */\n      swap1\n      pop\n        /* \"#utility.yul\":12513:12582   */\n      tag_382\n        /* \"#utility.yul\":12579:12580   */\n      0x00\n        /* \"#utility.yul\":12568:12577   */\n      dup4\n        /* \"#utility.yul\":12564:12581   */\n      add\n        /* \"#utility.yul\":12555:12561   */\n      dup6\n        /* \"#utility.yul\":12513:12582   */\n      tag_234\n      jump\t// in\n    tag_382:\n        /* \"#utility.yul\":12629:12638   */\n      dup2\n        /* \"#utility.yul\":12623:12627   */\n      dup2\n        /* \"#utility.yul\":12619:12639   */\n      sub\n        /* \"#utility.yul\":12614:12616   */\n      0x20\n        /* \"#utility.yul\":12603:12612   */\n      dup4\n        /* \"#utility.yul\":12599:12617   */\n      add\n        /* \"#utility.yul\":12592:12640   */\n      mstore\n        /* \"#utility.yul\":12657:12775   */\n      tag_383\n        /* \"#utility.yul\":12770:12774   */\n      dup2\n        /* \"#utility.yul\":12761:12767   */\n      dup5\n        /* \"#utility.yul\":12657:12775   */\n      tag_249\n      jump\t// in\n    tag_383:\n        /* \"#utility.yul\":12649:12775   */\n      swap1\n      pop\n        /* \"#utility.yul\":12283:12782   */\n      swap4\n      swap3\n      pop\n      pop\n      pop\n      jump\t// out\n        /* \"#utility.yul\":12788:13120   */\n    tag_89:\n        /* \"#utility.yul\":12909:12913   */\n      0x00\n        /* \"#utility.yul\":12947:12949   */\n      0x40\n        /* \"#utility.yul\":12936:12945   */\n      dup3\n        /* \"#utility.yul\":12932:12950   */\n      add\n        /* \"#utility.yul\":12924:12950   */\n      swap1\n      pop\n        /* \"#utility.yul\":12960:13031   */\n      tag_385\n        /* \"#utility.yul\":13028:13029   */\n      0x00\n        /* \"#utility.yul\":13017:13026   */\n      dup4\n        /* \"#utility.yul\":13013:13030   */\n      add\n        /* \"#utility.yul\":13004:13010   */\n      dup6\n        /* \"#utility.yul\":12960:13031   */\n      tag_229\n      jump\t// in\n    tag_385:\n        /* \"#utility.yul\":13041:13113   */\n      tag_386\n        /* \"#utility.yul\":13109:13111   */\n      0x20\n        /* \"#utility.yul\":13098:13107   */\n      dup4\n        /* \"#utility.yul\":13094:13112   */\n      add\n        /* \"#utility.yul\":13085:13091   */\n      dup5\n        /* \"#utility.yul\":13041:13113   */\n      tag_229\n      jump\t// in\n    tag_386:\n        /* \"#utility.yul\":12788:13120   */\n      swap4\n      swap3\n      pop\n      pop\n      pop\n      jump\t// out\n        /* \"#utility.yul\":13126:13458   */\n    tag_91:\n        /* \"#utility.yul\":13247:13251   */\n      0x00\n        /* \"#utility.yul\":13285:13287   */\n      0x40\n        /* \"#utility.yul\":13274:13283   */\n      dup3\n        /* \"#utility.yul\":13270:13288   */\n      add\n        /* \"#utility.yul\":13262:13288   */\n      swap1\n      pop\n        /* \"#utility.yul\":13298:13369   */\n      tag_388\n        /* \"#utility.yul\":13366:13367   */\n      0x00\n        /* \"#utility.yul\":13355:13364   */\n      dup4\n        /* \"#utility.yul\":13351:13368   */\n      add\n        /* \"#utility.yul\":13342:13348   */\n      dup6\n        /* \"#utility.yul\":13298:13369   */\n      tag_224\n      jump\t// in\n    tag_388:\n        /* \"#utility.yul\":13379:13451   */\n      tag_389\n        /* \"#utility.yul\":13447:13449   */\n      0x20\n        /* \"#utility.yul\":13436:13445   */\n      dup4\n        /* \"#utility.yul\":13432:13450   */\n      add\n        /* \"#utility.yul\":13423:13429   */\n      dup5\n        /* \"#utility.yul\":13379:13451   */\n      tag_229\n      jump\t// in\n    tag_389:\n        /* \"#utility.yul\":13126:13458   */\n      swap4\n      swap3\n      pop\n      pop\n      pop\n      jump\t// out\n        /* \"#utility.yul\":13464:13554   */\n    tag_250:\n        /* \"#utility.yul\":13498:13505   */\n      0x00\n        /* \"#utility.yul\":13541:13546   */\n      dup2\n        /* \"#utility.yul\":13534:13547   */\n      iszero\n        /* \"#utility.yul\":13527:13548   */\n      iszero\n        /* \"#utility.yul\":13516:13548   */\n      swap1\n      pop\n        /* \"#utility.yul\":13464:13554   */\n      swap2\n      swap1\n      pop\n      jump\t// out\n        /* \"#utility.yul\":13560:13676   */\n    tag_251:\n        /* \"#utility.yul\":13630:13651   */\n      tag_392\n        /* \"#utility.yul\":13645:13650   */\n      dup2\n        /* \"#utility.yul\":13630:13651   */\n      tag_250\n      jump\t// in\n    tag_392:\n        /* \"#utility.yul\":13623:13628   */\n      dup2\n        /* \"#utility.yul\":13620:13652   */\n      eq\n        /* \"#utility.yul\":13610:13670   */\n      tag_393\n      jumpi\n        /* \"#utility.yul\":13666:13667   */\n      0x00\n        /* \"#utility.yul\":13663:13664   */\n      dup1\n        /* \"#utility.yul\":13656:13668   */\n      revert\n        /* \"#utility.yul\":13610:13670   */\n    tag_393:\n        /* \"#utility.yul\":13560:13676   */\n      pop\n      jump\t// out\n        /* \"#utility.yul\":13682:13819   */\n    tag_252:\n        /* \"#utility.yul\":13736:13741   */\n      0x00\n        /* \"#utility.yul\":13767:13773   */\n      dup2\n        /* \"#utility.yul\":13761:13774   */\n      mload\n        /* \"#utility.yul\":13752:13774   */\n      swap1\n      pop\n        /* \"#utility.yul\":13783:13813   */\n      tag_395\n        /* \"#utility.yul\":13807:13812   */\n      dup2\n        /* \"#utility.yul\":13783:13813   */\n      tag_251\n      jump\t// in\n    tag_395:\n        /* \"#utility.yul\":13682:13819   */\n      swap3\n      swap2\n      pop\n      pop\n      jump\t// out\n        /* \"#utility.yul\":13825:14170   */\n    tag_95:\n        /* \"#utility.yul\":13892:13898   */\n      0x00\n        /* \"#utility.yul\":13941:13943   */\n      0x20\n        /* \"#utility.yul\":13929:13938   */\n      dup3\n        /* \"#utility.yul\":13920:13927   */\n      dup5\n        /* \"#utility.yul\":13916:13939   */\n      sub\n        /* \"#utility.yul\":13912:13944   */\n      slt\n        /* \"#utility.yul\":13909:14028   */\n      iszero\n      tag_397\n      jumpi\n        /* \"#utility.yul\":13947:14026   */\n      tag_398\n      tag_213\n      jump\t// in\n    tag_398:\n        /* \"#utility.yul\":13909:14028   */\n    tag_397:\n        /* \"#utility.yul\":14067:14068   */\n      0x00\n        /* \"#utility.yul\":14092:14153   */\n      tag_399\n        /* \"#utility.yul\":14145:14152   */\n      dup5\n        /* \"#utility.yul\":14136:14142   */\n      dup3\n        /* \"#utility.yul\":14125:14134   */\n      dup6\n        /* \"#utility.yul\":14121:14143   */\n      add\n        /* \"#utility.yul\":14092:14153   */\n      tag_252\n      jump\t// in\n    tag_399:\n        /* \"#utility.yul\":14082:14153   */\n      swap2\n      pop\n        /* \"#utility.yul\":14038:14163   */\n      pop\n        /* \"#utility.yul\":13825:14170   */\n      swap3\n      swap2\n      pop\n      pop\n      jump\t// out\n        /* \"#utility.yul\":14176:14298   */\n    tag_253:\n        /* \"#utility.yul\":14249:14273   */\n      tag_401\n        /* \"#utility.yul\":14267:14272   */\n      dup2\n        /* \"#utility.yul\":14249:14273   */\n      tag_222\n      jump\t// in\n    tag_401:\n        /* \"#utility.yul\":14242:14247   */\n      dup2\n        /* \"#utility.yul\":14239:14274   */\n      eq\n        /* \"#utility.yul\":14229:14292   */\n      tag_402\n      jumpi\n        /* \"#utility.yul\":14288:14289   */\n      0x00\n        /* \"#utility.yul\":14285:14286   */\n      dup1\n        /* \"#utility.yul\":14278:14290   */\n      revert\n        /* \"#utility.yul\":14229:14292   */\n    tag_402:\n        /* \"#utility.yul\":14176:14298   */\n      pop\n      jump\t// out\n        /* \"#utility.yul\":14304:14447   */\n    tag_254:\n        /* \"#utility.yul\":14361:14366   */\n      0x00\n        /* \"#utility.yul\":14392:14398   */\n      dup2\n        /* \"#utility.yul\":14386:14399   */\n      mload\n        /* \"#utility.yul\":14377:14399   */\n      swap1\n      pop\n        /* \"#utility.yul\":14408:14441   */\n      tag_404\n        /* \"#utility.yul\":14435:14440   */\n      dup2\n        /* \"#utility.yul\":14408:14441   */\n      tag_253\n      jump\t// in\n    tag_404:\n        /* \"#utility.yul\":14304:14447   */\n      swap3\n      swap2\n      pop\n      pop\n      jump\t// out\n        /* \"#utility.yul\":14453:14804   */\n    tag_100:\n        /* \"#utility.yul\":14523:14529   */\n      0x00\n        /* \"#utility.yul\":14572:14574   */\n      0x20\n        /* \"#utility.yul\":14560:14569   */\n      dup3\n        /* \"#utility.yul\":14551:14558   */\n      dup5\n        /* \"#utility.yul\":14547:14570   */\n      sub\n        /* \"#utility.yul\":14543:14575   */\n      slt\n        /* \"#utility.yul\":14540:14659   */\n      iszero\n      tag_406\n      jumpi\n        /* \"#utility.yul\":14578:14657   */\n      tag_407\n      tag_213\n      jump\t// in\n    tag_407:\n        /* \"#utility.yul\":14540:14659   */\n    tag_406:\n        /* \"#utility.yul\":14698:14699   */\n      0x00\n        /* \"#utility.yul\":14723:14787   */\n      tag_408\n        /* \"#utility.yul\":14779:14786   */\n      dup5\n        /* \"#utility.yul\":14770:14776   */\n      dup3\n        /* \"#utility.yul\":14759:14768   */\n      dup6\n        /* \"#utility.yul\":14755:14777   */\n      add\n        /* \"#utility.yul\":14723:14787   */\n      tag_254\n      jump\t// in\n    tag_408:\n        /* \"#utility.yul\":14713:14787   */\n      swap2\n      pop\n        /* \"#utility.yul\":14669:14797   */\n      pop\n        /* \"#utility.yul\":14453:14804   */\n      swap3\n      swap2\n      pop\n      pop\n      jump\t// out\n        /* \"#utility.yul\":14810:15474   */\n    tag_102:\n        /* \"#utility.yul\":15015:15019   */\n      0x00\n        /* \"#utility.yul\":15053:15056   */\n      0xa0\n        /* \"#utility.yul\":15042:15051   */\n      dup3\n        /* \"#utility.yul\":15038:15057   */\n      add\n        /* \"#utility.yul\":15030:15057   */\n      swap1\n      pop\n        /* \"#utility.yul\":15067:15138   */\n      tag_410\n        /* \"#utility.yul\":15135:15136   */\n      0x00\n        /* \"#utility.yul\":15124:15133   */\n      dup4\n        /* \"#utility.yul\":15120:15137   */\n      add\n        /* \"#utility.yul\":15111:15117   */\n      dup9\n        /* \"#utility.yul\":15067:15138   */\n      tag_224\n      jump\t// in\n    tag_410:\n        /* \"#utility.yul\":15148:15220   */\n      tag_411\n        /* \"#utility.yul\":15216:15218   */\n      0x20\n        /* \"#utility.yul\":15205:15214   */\n      dup4\n        /* \"#utility.yul\":15201:15219   */\n      add\n        /* \"#utility.yul\":15192:15198   */\n      dup8\n        /* \"#utility.yul\":15148:15220   */\n      tag_224\n      jump\t// in\n    tag_411:\n        /* \"#utility.yul\":15230:15302   */\n      tag_412\n        /* \"#utility.yul\":15298:15300   */\n      0x40\n        /* \"#utility.yul\":15287:15296   */\n      dup4\n        /* \"#utility.yul\":15283:15301   */\n      add\n        /* \"#utility.yul\":15274:15280   */\n      dup7\n        /* \"#utility.yul\":15230:15302   */\n      tag_229\n      jump\t// in\n    tag_412:\n        /* \"#utility.yul\":15312:15384   */\n      tag_413\n        /* \"#utility.yul\":15380:15382   */\n      0x60\n        /* \"#utility.yul\":15369:15378   */\n      dup4\n        /* \"#utility.yul\":15365:15383   */\n      add\n        /* \"#utility.yul\":15356:15362   */\n      dup6\n        /* \"#utility.yul\":15312:15384   */\n      tag_224\n      jump\t// in\n    tag_413:\n        /* \"#utility.yul\":15394:15467   */\n      tag_414\n        /* \"#utility.yul\":15462:15465   */\n      0x80\n        /* \"#utility.yul\":15451:15460   */\n      dup4\n        /* \"#utility.yul\":15447:15466   */\n      add\n        /* \"#utility.yul\":15438:15444   */\n      dup5\n        /* \"#utility.yul\":15394:15467   */\n      tag_229\n      jump\t// in\n    tag_414:\n        /* \"#utility.yul\":14810:15474   */\n      swap7\n      swap6\n      pop\n      pop\n      pop\n      pop\n      pop\n      pop\n      jump\t// out\n        /* \"#utility.yul\":15480:15652   */\n    tag_255:\n        /* \"#utility.yul\":15620:15644   */\n      0x4f6e6c792063616c6c61626c65206279206f776e657200000000000000000000\n        /* \"#utility.yul\":15616:15617   */\n      0x00\n        /* \"#utility.yul\":15608:15614   */\n      dup3\n        /* \"#utility.yul\":15604:15618   */\n      add\n        /* \"#utility.yul\":15597:15645   */\n      mstore\n        /* \"#utility.yul\":15480:15652   */\n      pop\n      jump\t// out\n        /* \"#utility.yul\":15658:16024   */\n    tag_256:\n        /* \"#utility.yul\":15800:15803   */\n      0x00\n        /* \"#utility.yul\":15821:15888   */\n      tag_417\n        /* \"#utility.yul\":15885:15887   */\n      0x16\n        /* \"#utility.yul\":15880:15883   */\n      dup4\n        /* \"#utility.yul\":15821:15888   */\n      tag_230\n      jump\t// in\n    tag_417:\n        /* \"#utility.yul\":15814:15888   */\n      swap2\n      pop\n        /* \"#utility.yul\":15897:15990   */\n      tag_418\n        /* \"#utility.yul\":15986:15989   */\n      dup3\n        /* \"#utility.yul\":15897:15990   */\n      tag_255\n      jump\t// in\n    tag_418:\n        /* \"#utility.yul\":16015:16017   */\n      0x20\n        /* \"#utility.yul\":16010:16013   */\n      dup3\n        /* \"#utility.yul\":16006:16018   */\n      add\n        /* \"#utility.yul\":15999:16018   */\n      swap1\n      pop\n        /* \"#utility.yul\":15658:16024   */\n      swap2\n      swap1\n      pop\n      jump\t// out\n        /* \"#utility.yul\":16030:16449   */\n    tag_145:\n        /* \"#utility.yul\":16196:16200   */\n      0x00\n        /* \"#utility.yul\":16234:16236   */\n      0x20\n        /* \"#utility.yul\":16223:16232   */\n      dup3\n        /* \"#utility.yul\":16219:16237   */\n      add\n        /* \"#utility.yul\":16211:16237   */\n      swap1\n      pop\n        /* \"#utility.yul\":16283:16292   */\n      dup2\n        /* \"#utility.yul\":16277:16281   */\n      dup2\n        /* \"#utility.yul\":16273:16293   */\n      sub\n        /* \"#utility.yul\":16269:16270   */\n      0x00\n        /* \"#utility.yul\":16258:16267   */\n      dup4\n        /* \"#utility.yul\":16254:16271   */\n      add\n        /* \"#utility.yul\":16247:16294   */\n      mstore\n        /* \"#utility.yul\":16311:16442   */\n      tag_420\n        /* \"#utility.yul\":16437:16441   */\n      dup2\n        /* \"#utility.yul\":16311:16442   */\n      tag_256\n      jump\t// in\n    tag_420:\n        /* \"#utility.yul\":16303:16442   */\n      swap1\n      pop\n        /* \"#utility.yul\":16030:16449   */\n      swap2\n      swap1\n      pop\n      jump\t// out\n        /* \"#utility.yul\":16455:16635   */\n    tag_155:\n        /* \"#utility.yul\":16503:16580   */\n      0x4e487b7100000000000000000000000000000000000000000000000000000000\n        /* \"#utility.yul\":16500:16501   */\n      0x00\n        /* \"#utility.yul\":16493:16581   */\n      mstore\n        /* \"#utility.yul\":16600:16604   */\n      0x41\n        /* \"#utility.yul\":16597:16598   */\n      0x04\n        /* \"#utility.yul\":16590:16605   */\n      mstore\n        /* \"#utility.yul\":16624:16628   */\n      0x24\n        /* \"#utility.yul\":16621:16622   */\n      0x00\n        /* \"#utility.yul\":16614:16629   */\n      revert\n        /* \"#utility.yul\":16641:16821   */\n    tag_162:\n        /* \"#utility.yul\":16689:16766   */\n      0x4e487b7100000000000000000000000000000000000000000000000000000000\n        /* \"#utility.yul\":16686:16687   */\n      0x00\n        /* \"#utility.yul\":16679:16767   */\n      mstore\n        /* \"#utility.yul\":16786:16790   */\n      0x32\n        /* \"#utility.yul\":16783:16784   */\n      0x04\n        /* \"#utility.yul\":16776:16791   */\n      mstore\n        /* \"#utility.yul\":16810:16814   */\n      0x24\n        /* \"#utility.yul\":16807:16808   */\n      0x00\n        /* \"#utility.yul\":16800:16815   */\n      revert\n        /* \"#utility.yul\":16827:17000   */\n    tag_257:\n        /* \"#utility.yul\":16967:16992   */\n      0x43616e6e6f74207472616e7366657220746f2073656c66000000000000000000\n        /* \"#utility.yul\":16963:16964   */\n      0x00\n        /* \"#utility.yul\":16955:16961   */\n      dup3\n        /* \"#utility.yul\":16951:16965   */\n      add\n        /* \"#utility.yul\":16944:16993   */\n      mstore\n        /* \"#utility.yul\":16827:17000   */\n      pop\n      jump\t// out\n        /* \"#utility.yul\":17006:17372   */\n    tag_258:\n        /* \"#utility.yul\":17148:17151   */\n      0x00\n        /* \"#utility.yul\":17169:17236   */\n      tag_425\n        /* \"#utility.yul\":17233:17235   */\n      0x17\n        /* \"#utility.yul\":17228:17231   */\n      dup4\n        /* \"#utility.yul\":17169:17236   */\n      tag_230\n      jump\t// in\n    tag_425:\n        /* \"#utility.yul\":17162:17236   */\n      swap2\n      pop\n        /* \"#utility.yul\":17245:17338   */\n      tag_426\n        /* \"#utility.yul\":17334:17337   */\n      dup3\n        /* \"#utility.yul\":17245:17338   */\n      tag_257\n      jump\t// in\n    tag_426:\n        /* \"#utility.yul\":17363:17365   */\n      0x20\n        /* \"#utility.yul\":17358:17361   */\n      dup3\n        /* \"#utility.yul\":17354:17366   */\n      add\n        /* \"#utility.yul\":17347:17366   */\n      swap1\n      pop\n        /* \"#utility.yul\":17006:17372   */\n      swap2\n      swap1\n      pop\n      jump\t// out\n        /* \"#utility.yul\":17378:17797   */\n    tag_169:\n        /* \"#utility.yul\":17544:17548   */\n      0x00\n        /* \"#utility.yul\":17582:17584   */\n      0x20\n        /* \"#utility.yul\":17571:17580   */\n      dup3\n        /* \"#utility.yul\":17567:17585   */\n      add\n        /* \"#utility.yul\":17559:17585   */\n      swap1\n      pop\n        /* \"#utility.yul\":17631:17640   */\n      dup2\n        /* \"#utility.yul\":17625:17629   */\n      dup2\n        /* \"#utility.yul\":17621:17641   */\n      sub\n        /* \"#utility.yul\":17617:17618   */\n      0x00\n        /* \"#utility.yul\":17606:17615   */\n      dup4\n        /* \"#utility.yul\":17602:17619   */\n      add\n        /* \"#utility.yul\":17595:17642   */\n      mstore\n        /* \"#utility.yul\":17659:17790   */\n      tag_428\n        /* \"#utility.yul\":17785:17789   */\n      dup2\n        /* \"#utility.yul\":17659:17790   */\n      tag_258\n      jump\t// in\n    tag_428:\n        /* \"#utility.yul\":17651:17790   */\n      swap1\n      pop\n        /* \"#utility.yul\":17378:17797   */\n      swap2\n      swap1\n      pop\n      jump\t// out\n        /* \"#utility.yul\":17803:18032   */\n    tag_259:\n        /* \"#utility.yul\":17943:17977   */\n      0x5361666545524332303a204552433230206f7065726174696f6e20646964206e\n        /* \"#utility.yul\":17939:17940   */\n      0x00\n        /* \"#utility.yul\":17931:17937   */\n      dup3\n        /* \"#utility.yul\":17927:17941   */\n      add\n        /* \"#utility.yul\":17920:17978   */\n      mstore\n        /* \"#utility.yul\":18012:18024   */\n      0x6f74207375636365656400000000000000000000000000000000000000000000\n        /* \"#utility.yul\":18007:18009   */\n      0x20\n        /* \"#utility.yul\":17999:18005   */\n      dup3\n        /* \"#utility.yul\":17995:18010   */\n      add\n        /* \"#utility.yul\":17988:18025   */\n      mstore\n        /* \"#utility.yul\":17803:18032   */\n      pop\n      jump\t// out\n        /* \"#utility.yul\":18038:18404   */\n    tag_260:\n        /* \"#utility.yul\":18180:18183   */\n      0x00\n        /* \"#utility.yul\":18201:18268   */\n      tag_431\n        /* \"#utility.yul\":18265:18267   */\n      0x2a\n        /* \"#utility.yul\":18260:18263   */\n      dup4\n        /* \"#utility.yul\":18201:18268   */\n      tag_230\n      jump\t// in\n    tag_431:\n        /* \"#utility.yul\":18194:18268   */\n      swap2\n      pop\n        /* \"#utility.yul\":18277:18370   */\n      tag_432\n        /* \"#utility.yul\":18366:18369   */\n      dup3\n        /* \"#utility.yul\":18277:18370   */\n      tag_259\n      jump\t// in\n    tag_432:\n        /* \"#utility.yul\":18395:18397   */\n      0x40\n        /* \"#utility.yul\":18390:18393   */\n      dup3\n        /* \"#utility.yul\":18386:18398   */\n      add\n        /* \"#utility.yul\":18379:18398   */\n      swap1\n      pop\n        /* \"#utility.yul\":18038:18404   */\n      swap2\n      swap1\n      pop\n      jump\t// out\n        /* \"#utility.yul\":18410:18829   */\n    tag_177:\n        /* \"#utility.yul\":18576:18580   */\n      0x00\n        /* \"#utility.yul\":18614:18616   */\n      0x20\n        /* \"#utility.yul\":18603:18612   */\n      dup3\n        /* \"#utility.yul\":18599:18617   */\n      add\n        /* \"#utility.yul\":18591:18617   */\n      swap1\n      pop\n        /* \"#utility.yul\":18663:18672   */\n      dup2\n        /* \"#utility.yul\":18657:18661   */\n      dup2\n        /* \"#utility.yul\":18653:18673   */\n      sub\n        /* \"#utility.yul\":18649:18650   */\n      0x00\n        /* \"#utility.yul\":18638:18647   */\n      dup4\n        /* \"#utility.yul\":18634:18651   */\n      add\n        /* \"#utility.yul\":18627:18674   */\n      mstore\n        /* \"#utility.yul\":18691:18822   */\n      tag_434\n        /* \"#utility.yul\":18817:18821   */\n      dup2\n        /* \"#utility.yul\":18691:18822   */\n      tag_260\n      jump\t// in\n    tag_434:\n        /* \"#utility.yul\":18683:18822   */\n      swap1\n      pop\n        /* \"#utility.yul\":18410:18829   */\n      swap2\n      swap1\n      pop\n      jump\t// out\n        /* \"#utility.yul\":18835:18934   */\n    tag_261:\n        /* \"#utility.yul\":18906:18927   */\n      tag_436\n        /* \"#utility.yul\":18921:18926   */\n      dup2\n        /* \"#utility.yul\":18906:18927   */\n      tag_250\n      jump\t// in\n    tag_436:\n        /* \"#utility.yul\":18901:18904   */\n      dup3\n        /* \"#utility.yul\":18894:18928   */\n      mstore\n        /* \"#utility.yul\":18835:18934   */\n      pop\n      pop\n      jump\t// out\n        /* \"#utility.yul\":19016:19561   */\n    tag_262:\n        /* \"#utility.yul\":19183:19187   */\n      0x40\n        /* \"#utility.yul\":19178:19181   */\n      dup3\n        /* \"#utility.yul\":19174:19188   */\n      add\n        /* \"#utility.yul\":19274:19278   */\n      0x00\n        /* \"#utility.yul\":19267:19272   */\n      dup3\n        /* \"#utility.yul\":19263:19279   */\n      add\n        /* \"#utility.yul\":19257:19280   */\n      mload\n        /* \"#utility.yul\":19293:19356   */\n      tag_438\n        /* \"#utility.yul\":19350:19354   */\n      0x00\n        /* \"#utility.yul\":19345:19348   */\n      dup6\n        /* \"#utility.yul\":19341:19355   */\n      add\n        /* \"#utility.yul\":19327:19339   */\n      dup3\n        /* \"#utility.yul\":19293:19356   */\n      tag_244\n      jump\t// in\n    tag_438:\n        /* \"#utility.yul\":19198:19366   */\n      pop\n        /* \"#utility.yul\":19468:19472   */\n      0x20\n        /* \"#utility.yul\":19461:19466   */\n      dup3\n        /* \"#utility.yul\":19457:19473   */\n      add\n        /* \"#utility.yul\":19451:19474   */\n      mload\n        /* \"#utility.yul\":19487:19544   */\n      tag_439\n        /* \"#utility.yul\":19538:19542   */\n      0x20\n        /* \"#utility.yul\":19533:19536   */\n      dup6\n        /* \"#utility.yul\":19529:19543   */\n      add\n        /* \"#utility.yul\":19515:19527   */\n      dup3\n        /* \"#utility.yul\":19487:19544   */\n      tag_261\n      jump\t// in\n    tag_439:\n        /* \"#utility.yul\":19376:19554   */\n      pop\n        /* \"#utility.yul\":19152:19561   */\n      pop\n        /* \"#utility.yul\":19016:19561   */\n      pop\n      pop\n      jump\t// out\n        /* \"#utility.yul\":19567:19929   */\n    tag_180:\n        /* \"#utility.yul\":19730:19734   */\n      0x00\n        /* \"#utility.yul\":19768:19770   */\n      0x40\n        /* \"#utility.yul\":19757:19766   */\n      dup3\n        /* \"#utility.yul\":19753:19771   */\n      add\n        /* \"#utility.yul\":19745:19771   */\n      swap1\n      pop\n        /* \"#utility.yul\":19781:19922   */\n      tag_441\n        /* \"#utility.yul\":19919:19920   */\n      0x00\n        /* \"#utility.yul\":19908:19917   */\n      dup4\n        /* \"#utility.yul\":19904:19921   */\n      add\n        /* \"#utility.yul\":19895:19901   */\n      dup5\n        /* \"#utility.yul\":19781:19922   */\n      tag_262\n      jump\t// in\n    tag_441:\n        /* \"#utility.yul\":19567:19929   */\n      swap3\n      swap2\n      pop\n      pop\n      jump\t// out\n        /* \"#utility.yul\":19935:20160   */\n    tag_263:\n        /* \"#utility.yul\":20075:20109   */\n      0x416464726573733a20696e73756666696369656e742062616c616e636520666f\n        /* \"#utility.yul\":20071:20072   */\n      0x00\n        /* \"#utility.yul\":20063:20069   */\n      dup3\n        /* \"#utility.yul\":20059:20073   */\n      add\n        /* \"#utility.yul\":20052:20110   */\n      mstore\n        /* \"#utility.yul\":20144:20152   */\n      0x722063616c6c0000000000000000000000000000000000000000000000000000\n        /* \"#utility.yul\":20139:20141   */\n      0x20\n        /* \"#utility.yul\":20131:20137   */\n      dup3\n        /* \"#utility.yul\":20127:20142   */\n      add\n        /* \"#utility.yul\":20120:20153   */\n      mstore\n        /* \"#utility.yul\":19935:20160   */\n      pop\n      jump\t// out\n        /* \"#utility.yul\":20166:20532   */\n    tag_264:\n        /* \"#utility.yul\":20308:20311   */\n      0x00\n        /* \"#utility.yul\":20329:20396   */\n      tag_444\n        /* \"#utility.yul\":20393:20395   */\n      0x26\n        /* \"#utility.yul\":20388:20391   */\n      dup4\n        /* \"#utility.yul\":20329:20396   */\n      tag_230\n      jump\t// in\n    tag_444:\n        /* \"#utility.yul\":20322:20396   */\n      swap2\n      pop\n        /* \"#utility.yul\":20405:20498   */\n      tag_445\n        /* \"#utility.yul\":20494:20497   */\n      dup3\n        /* \"#utility.yul\":20405:20498   */\n      tag_263\n      jump\t// in\n    tag_445:\n        /* \"#utility.yul\":20523:20525   */\n      0x40\n        /* \"#utility.yul\":20518:20521   */\n      dup3\n        /* \"#utility.yul\":20514:20526   */\n      add\n        /* \"#utility.yul\":20507:20526   */\n      swap1\n      pop\n        /* \"#utility.yul\":20166:20532   */\n      swap2\n      swap1\n      pop\n      jump\t// out\n        /* \"#utility.yul\":20538:20957   */\n    tag_187:\n        /* \"#utility.yul\":20704:20708   */\n      0x00\n        /* \"#utility.yul\":20742:20744   */\n      0x20\n        /* \"#utility.yul\":20731:20740   */\n      dup3\n        /* \"#utility.yul\":20727:20745   */\n      add\n        /* \"#utility.yul\":20719:20745   */\n      swap1\n      pop\n        /* \"#utility.yul\":20791:20800   */\n      dup2\n        /* \"#utility.yul\":20785:20789   */\n      dup2\n        /* \"#utility.yul\":20781:20801   */\n      sub\n        /* \"#utility.yul\":20777:20778   */\n      0x00\n        /* \"#utility.yul\":20766:20775   */\n      dup4\n        /* \"#utility.yul\":20762:20779   */\n      add\n        /* \"#utility.yul\":20755:20802   */\n      mstore\n        /* \"#utility.yul\":20819:20950   */\n      tag_447\n        /* \"#utility.yul\":20945:20949   */\n      dup2\n        /* \"#utility.yul\":20819:20950   */\n      tag_264\n      jump\t// in\n    tag_447:\n        /* \"#utility.yul\":20811:20950   */\n      swap1\n      pop\n        /* \"#utility.yul\":20538:20957   */\n      swap2\n      swap1\n      pop\n      jump\t// out\n        /* \"#utility.yul\":20963:21349   */\n    tag_265:\n        /* \"#utility.yul\":21067:21070   */\n      0x00\n        /* \"#utility.yul\":21095:21133   */\n      tag_449\n        /* \"#utility.yul\":21127:21132   */\n      dup3\n        /* \"#utility.yul\":21095:21133   */\n      tag_235\n      jump\t// in\n    tag_449:\n        /* \"#utility.yul\":21149:21237   */\n      tag_450\n        /* \"#utility.yul\":21230:21236   */\n      dup2\n        /* \"#utility.yul\":21225:21228   */\n      dup6\n        /* \"#utility.yul\":21149:21237   */\n      tag_226\n      jump\t// in\n    tag_450:\n        /* \"#utility.yul\":21142:21237   */\n      swap4\n      pop\n        /* \"#utility.yul\":21246:21311   */\n      tag_451\n        /* \"#utility.yul\":21304:21310   */\n      dup2\n        /* \"#utility.yul\":21299:21302   */\n      dup6\n        /* \"#utility.yul\":21292:21296   */\n      0x20\n        /* \"#utility.yul\":21285:21290   */\n      dup7\n        /* \"#utility.yul\":21281:21297   */\n      add\n        /* \"#utility.yul\":21246:21311   */\n      tag_237\n      jump\t// in\n    tag_451:\n        /* \"#utility.yul\":21336:21342   */\n      dup1\n        /* \"#utility.yul\":21331:21334   */\n      dup5\n        /* \"#utility.yul\":21327:21343   */\n      add\n        /* \"#utility.yul\":21320:21343   */\n      swap2\n      pop\n        /* \"#utility.yul\":21071:21349   */\n      pop\n        /* \"#utility.yul\":20963:21349   */\n      swap3\n      swap2\n      pop\n      pop\n      jump\t// out\n        /* \"#utility.yul\":21355:21626   */\n    tag_189:\n        /* \"#utility.yul\":21485:21488   */\n      0x00\n        /* \"#utility.yul\":21507:21600   */\n      tag_453\n        /* \"#utility.yul\":21596:21599   */\n      dup3\n        /* \"#utility.yul\":21587:21593   */\n      dup5\n        /* \"#utility.yul\":21507:21600   */\n      tag_265\n      jump\t// in\n    tag_453:\n        /* \"#utility.yul\":21500:21600   */\n      swap2\n      pop\n        /* \"#utility.yul\":21617:21620   */\n      dup2\n        /* \"#utility.yul\":21610:21620   */\n      swap1\n      pop\n        /* \"#utility.yul\":21355:21626   */\n      swap3\n      swap2\n      pop\n      pop\n      jump\t// out\n        /* \"#utility.yul\":21632:21811   */\n    tag_266:\n        /* \"#utility.yul\":21772:21803   */\n      0x416464726573733a2063616c6c20746f206e6f6e2d636f6e7472616374000000\n        /* \"#utility.yul\":21768:21769   */\n      0x00\n        /* \"#utility.yul\":21760:21766   */\n      dup3\n        /* \"#utility.yul\":21756:21770   */\n      add\n        /* \"#utility.yul\":21749:21804   */\n      mstore\n        /* \"#utility.yul\":21632:21811   */\n      pop\n      jump\t// out\n        /* \"#utility.yul\":21817:22183   */\n    tag_267:\n        /* \"#utility.yul\":21959:21962   */\n      0x00\n        /* \"#utility.yul\":21980:22047   */\n      tag_456\n        /* \"#utility.yul\":22044:22046   */\n      0x1d\n        /* \"#utility.yul\":22039:22042   */\n      dup4\n        /* \"#utility.yul\":21980:22047   */\n      tag_230\n      jump\t// in\n    tag_456:\n        /* \"#utility.yul\":21973:22047   */\n      swap2\n      pop\n        /* \"#utility.yul\":22056:22149   */\n      tag_457\n        /* \"#utility.yul\":22145:22148   */\n      dup3\n        /* \"#utility.yul\":22056:22149   */\n      tag_266\n      jump\t// in\n    tag_457:\n        /* \"#utility.yul\":22174:22176   */\n      0x20\n        /* \"#utility.yul\":22169:22172   */\n      dup3\n        /* \"#utility.yul\":22165:22177   */\n      add\n        /* \"#utility.yul\":22158:22177   */\n      swap1\n      pop\n        /* \"#utility.yul\":21817:22183   */\n      swap2\n      swap1\n      pop\n      jump\t// out\n        /* \"#utility.yul\":22189:22608   */\n    tag_202:\n        /* \"#utility.yul\":22355:22359   */\n      0x00\n        /* \"#utility.yul\":22393:22395   */\n      0x20\n        /* \"#utility.yul\":22382:22391   */\n      dup3\n        /* \"#utility.yul\":22378:22396   */\n      add\n        /* \"#utility.yul\":22370:22396   */\n      swap1\n      pop\n        /* \"#utility.yul\":22442:22451   */\n      dup2\n        /* \"#utility.yul\":22436:22440   */\n      dup2\n        /* \"#utility.yul\":22432:22452   */\n      sub\n        /* \"#utility.yul\":22428:22429   */\n      0x00\n        /* \"#utility.yul\":22417:22426   */\n      dup4\n        /* \"#utility.yul\":22413:22430   */\n      add\n        /* \"#utility.yul\":22406:22453   */\n      mstore\n        /* \"#utility.yul\":22470:22601   */\n      tag_459\n        /* \"#utility.yul\":22596:22600   */\n      dup2\n        /* \"#utility.yul\":22470:22601   */\n      tag_267\n      jump\t// in\n    tag_459:\n        /* \"#utility.yul\":22462:22601   */\n      swap1\n      pop\n        /* \"#utility.yul\":22189:22608   */\n      swap2\n      swap1\n      pop\n      jump\t// out\n        /* \"#utility.yul\":22614:22713   */\n    tag_268:\n        /* \"#utility.yul\":22666:22672   */\n      0x00\n        /* \"#utility.yul\":22700:22705   */\n      dup2\n        /* \"#utility.yul\":22694:22706   */\n      mload\n        /* \"#utility.yul\":22684:22706   */\n      swap1\n      pop\n        /* \"#utility.yul\":22614:22713   */\n      swap2\n      swap1\n      pop\n      jump\t// out\n        /* \"#utility.yul\":22719:23096   */\n    tag_269:\n        /* \"#utility.yul\":22807:22810   */\n      0x00\n        /* \"#utility.yul\":22835:22874   */\n      tag_462\n        /* \"#utility.yul\":22868:22873   */\n      dup3\n        /* \"#utility.yul\":22835:22874   */\n      tag_268\n      jump\t// in\n    tag_462:\n        /* \"#utility.yul\":22890:22961   */\n      tag_463\n        /* \"#utility.yul\":22954:22960   */\n      dup2\n        /* \"#utility.yul\":22949:22952   */\n      dup6\n        /* \"#utility.yul\":22890:22961   */\n      tag_230\n      jump\t// in\n    tag_463:\n        /* \"#utility.yul\":22883:22961   */\n      swap4\n      pop\n        /* \"#utility.yul\":22970:23035   */\n      tag_464\n        /* \"#utility.yul\":23028:23034   */\n      dup2\n        /* \"#utility.yul\":23023:23026   */\n      dup6\n        /* \"#utility.yul\":23016:23020   */\n      0x20\n        /* \"#utility.yul\":23009:23014   */\n      dup7\n        /* \"#utility.yul\":23005:23021   */\n      add\n        /* \"#utility.yul\":22970:23035   */\n      tag_237\n      jump\t// in\n    tag_464:\n        /* \"#utility.yul\":23060:23089   */\n      tag_465\n        /* \"#utility.yul\":23082:23088   */\n      dup2\n        /* \"#utility.yul\":23060:23089   */\n      tag_238\n      jump\t// in\n    tag_465:\n        /* \"#utility.yul\":23055:23058   */\n      dup5\n        /* \"#utility.yul\":23051:23090   */\n      add\n        /* \"#utility.yul\":23044:23090   */\n      swap2\n      pop\n        /* \"#utility.yul\":22811:23096   */\n      pop\n        /* \"#utility.yul\":22719:23096   */\n      swap3\n      swap2\n      pop\n      pop\n      jump\t// out\n        /* \"#utility.yul\":23102:23415   */\n    tag_211:\n        /* \"#utility.yul\":23215:23219   */\n      0x00\n        /* \"#utility.yul\":23253:23255   */\n      0x20\n        /* \"#utility.yul\":23242:23251   */\n      dup3\n        /* \"#utility.yul\":23238:23256   */\n      add\n        /* \"#utility.yul\":23230:23256   */\n      swap1\n      pop\n        /* \"#utility.yul\":23302:23311   */\n      dup2\n        /* \"#utility.yul\":23296:23300   */\n      dup2\n        /* \"#utility.yul\":23292:23312   */\n      sub\n        /* \"#utility.yul\":23288:23289   */\n      0x00\n        /* \"#utility.yul\":23277:23286   */\n      dup4\n        /* \"#utility.yul\":23273:23290   */\n      add\n        /* \"#utility.yul\":23266:23313   */\n      mstore\n        /* \"#utility.yul\":23330:23408   */\n      tag_467\n        /* \"#utility.yul\":23403:23407   */\n      dup2\n        /* \"#utility.yul\":23394:23400   */\n      dup5\n        /* \"#utility.yul\":23330:23408   */\n      tag_269\n      jump\t// in\n    tag_467:\n        /* \"#utility.yul\":23322:23408   */\n      swap1\n      pop\n        /* \"#utility.yul\":23102:23415   */\n      swap3\n      swap2\n      pop\n      pop\n      jump\t// out\n\n    auxdata: 0xa26469706673582212207ada17d85963227b56e2cdf409d70ca0564f3e0cfbd33e4863872d77864b826964736f6c63430008180033\n}\n",
				"bytecode": {
					"linkReferences": {},
					"object": "608060405273d3b06cebf099ce7da4accf578aaebfdbd6e88a9360025f6101000a81548173ffffffffffffffffffffffffffffffffffffffff021916908373ffffffffffffffffffffffffffffffffffffffff16021790555073e4ab69c077896252fafbd49efd26b5d171a3241060035f6101000a81548173ffffffffffffffffffffffffffffffffffffffff021916908373ffffffffffffffffffffffffffffffffffffffff16021790555067ccf0a31a221f3c9b600360146101000a81548167ffffffffffffffff021916908367ffffffffffffffff160217905550348015620000e9575f80fd5b5033805f8073ffffffffffffffffffffffffffffffffffffffff168273ffffffffffffffffffffffffffffffffffffffff16036200015e576040517f08c379a0000000000000000000000000000000000000000000000000000000008152600401620001559062000439565b60405180910390fd5b815f806101000a81548173ffffffffffffffffffffffffffffffffffffffff021916908373ffffffffffffffffffffffffffffffffffffffff1602179055505f73ffffffffffffffffffffffffffffffffffffffff168173ffffffffffffffffffffffffffffffffffffffff1614620001e357620001e281620002ae60201b60201c565b5b50505060025f9054906101000a900473ffffffffffffffffffffffffffffffffffffffff1660045f6101000a81548173ffffffffffffffffffffffffffffffffffffffff021916908373ffffffffffffffffffffffffffffffffffffffff16021790555060035f9054906101000a900473ffffffffffffffffffffffffffffffffffffffff1660055f6101000a81548173ffffffffffffffffffffffffffffffffffffffff021916908373ffffffffffffffffffffffffffffffffffffffff160217905550620004c7565b3373ffffffffffffffffffffffffffffffffffffffff168173ffffffffffffffffffffffffffffffffffffffff16036200031f576040517f08c379a00000000000000000000000000000000000000000000000000000000081526004016200031690620004a7565b60405180910390fd5b8060015f6101000a81548173ffffffffffffffffffffffffffffffffffffffff021916908373ffffffffffffffffffffffffffffffffffffffff1602179055508073ffffffffffffffffffffffffffffffffffffffff165f8054906101000a900473ffffffffffffffffffffffffffffffffffffffff1673ffffffffffffffffffffffffffffffffffffffff167fed8889f560326eb138920d842192f0eb3dd22b4f139c87a2c57538e05bae127860405160405180910390a350565b5f82825260208201905092915050565b7f43616e6e6f7420736574206f776e657220746f207a65726f00000000000000005f82015250565b5f62000421601883620003db565b91506200042e82620003eb565b602082019050919050565b5f6020820190508181035f830152620004528162000413565b9050919050565b7f43616e6e6f74207472616e7366657220746f2073656c660000000000000000005f82015250565b5f6200048f601783620003db565b91506200049c8262000459565b602082019050919050565b5f6020820190508181035f830152620004c08162000481565b9050919050565b611f5880620004d55f395ff3fe608060405260043610610073575f3560e01c80638afe0f511161004d5780638afe0f51146100e45780638da5cb5b14610120578063bbb6eae51461014a578063f2fde38b146101865761007a565b80633aeac4e11461007e57806351cff8d9146100a657806379ba5097146100ce5761007a565b3661007a57005b5f80fd5b348015610089575f80fd5b506100a4600480360381019061009f919061154d565b6101ae565b005b3480156100b1575f80fd5b506100cc60048036038101906100c7919061158b565b61029a565b005b3480156100d9575f80fd5b506100e2610392565b005b3480156100ef575f80fd5b5061010a600480360381019061010591906115e9565b610521565b6040516101179190611651565b60405180910390f35b34801561012b575f80fd5b50610134610858565b6040516101419190611679565b60405180910390f35b348015610155575f80fd5b50610170600480360381019061016b91906115e9565b61087f565b60405161017d9190611651565b60405180910390f35b348015610191575f80fd5b506101ac60048036038101906101a7919061158b565b610de4565b005b6101b6610df8565b5f8173ffffffffffffffffffffffffffffffffffffffff166370a08231306040518263ffffffff1660e01b81526004016101f09190611679565b602060405180830381865afa15801561020b573d5f803e3d5ffd5b505050506040513d601f19601f8201168201806040525081019061022f91906116a6565b90505f810361026a576040517fd0d04f6000000000000000000000000000000000000000000000000000000000815260040160405180910390fd5b61029583828473ffffffffffffffffffffffffffffffffffffffff16610e879092919063ffffffff16565b505050565b6102a2610df8565b5f4790505f81036102df576040517fd0d04f6000000000000000000000000000000000000000000000000000000000815260040160405180910390fd5b5f8273ffffffffffffffffffffffffffffffffffffffff1682604051610304906116fe565b5f6040518083038185875af1925050503d805f811461033e576040519150601f19603f3d011682016040523d82523d5f602084013e610343565b606091505b505090508061038d573383836040517f9d11f56300000000000000000000000000000000000000000000000000000000815260040161038493929190611721565b60405180910390fd5b505050565b60015f9054906101000a900473ffffffffffffffffffffffffffffffffffffffff1673ffffffffffffffffffffffffffffffffffffffff163373ffffffffffffffffffffffffffffffffffffffff1614610421576040517f08c379a0000000000000000000000000000000000000000000000000000000008152600401610418906117b0565b60405180910390fd5b5f805f9054906101000a900473ffffffffffffffffffffffffffffffffffffffff169050335f806101000a81548173ffffffffffffffffffffffffffffffffffffffff021916908373ffffffffffffffffffffffffffffffffffffffff1602179055505f60015f6101000a81548173ffffffffffffffffffffffffffffffffffffffff021916908373ffffffffffffffffffffffffffffffffffffffff1602179055503373ffffffffffffffffffffffffffffffffffffffff168173ffffffffffffffffffffffffffffffffffffffff167f8be0079c531659141344cd1fd0a4f28419497f9722a3daafe3b4186f6b6457e060405160405180910390a350565b5f61052a610df8565b835f73ffffffffffffffffffffffffffffffffffffffff168173ffffffffffffffffffffffffffffffffffffffff1603610590576040517fa05ff47e00000000000000000000000000000000000000000000000000000000815260040160405180910390fd5b5f61059d8686865f610f0d565b90505f60045f9054906101000a900473ffffffffffffffffffffffffffffffffffffffff1673ffffffffffffffffffffffffffffffffffffffff166320487ded600360149054906101000a900467ffffffffffffffff16846040518363ffffffff1660e01b81526004016106129291906119f5565b602060405180830381865afa15801561062d573d5f803e3d5ffd5b505050506040513d601f19601f8201168201806040525081019061065191906116a6565b90504781111561069a5747816040517f8f0f4206000000000000000000000000000000000000000000000000000000008152600401610691929190611a23565b60405180910390fd5b8573ffffffffffffffffffffffffffffffffffffffff1663095ea7b360045f9054906101000a900473ffffffffffffffffffffffffffffffffffffffff16876040518363ffffffff1660e01b81526004016106f6929190611a4a565b6020604051808303815f875af1158015610712573d5f803e3d5ffd5b505050506040513d601f19601f820116820180604052508101906107369190611aa6565b5060045f9054906101000a900473ffffffffffffffffffffffffffffffffffffffff1673ffffffffffffffffffffffffffffffffffffffff166396f4e9f982600360149054906101000a900467ffffffffffffffff16856040518463ffffffff1660e01b81526004016107aa9291906119f5565b60206040518083038185885af11580156107c6573d5f803e3d5ffd5b50505050506040513d601f19601f820116820180604052508101906107eb9190611afb565b9350600360149054906101000a900467ffffffffffffffff1667ffffffffffffffff16847fc15fb748c32ba4eb29c1c311e78533f93b4425eab49ea87c6fe4279ecadca0438989895f87604051610846959493929190611b26565b60405180910390a35050509392505050565b5f805f9054906101000a900473ffffffffffffffffffffffffffffffffffffffff16905090565b5f610888610df8565b835f73ffffffffffffffffffffffffffffffffffffffff168173ffffffffffffffffffffffffffffffffffffffff16036108ee576040517fa05ff47e00000000000000000000000000000000000000000000000000000000815260040160405180910390fd5b5f61091c86868660055f9054906101000a900473ffffffffffffffffffffffffffffffffffffffff16610f0d565b90505f60045f9054906101000a900473ffffffffffffffffffffffffffffffffffffffff1673ffffffffffffffffffffffffffffffffffffffff166320487ded600360149054906101000a900467ffffffffffffffff16846040518363ffffffff1660e01b81526004016109919291906119f5565b602060405180830381865afa1580156109ac573d5f803e3d5ffd5b505050506040513d601f19601f820116820180604052508101906109d091906116a6565b905060055f9054906101000a900473ffffffffffffffffffffffffffffffffffffffff1673ffffffffffffffffffffffffffffffffffffffff166370a08231306040518263ffffffff1660e01b8152600401610a2c9190611679565b602060405180830381865afa158015610a47573d5f803e3d5ffd5b505050506040513d601f19601f82011682018060405250810190610a6b91906116a6565b811115610b495760055f9054906101000a900473ffffffffffffffffffffffffffffffffffffffff1673ffffffffffffffffffffffffffffffffffffffff166370a08231306040518263ffffffff1660e01b8152600401610acc9190611679565b602060405180830381865afa158015610ae7573d5f803e3d5ffd5b505050506040513d601f19601f82011682018060405250810190610b0b91906116a6565b816040517f8f0f4206000000000000000000000000000000000000000000000000000000008152600401610b40929190611a23565b60405180910390fd5b60055f9054906101000a900473ffffffffffffffffffffffffffffffffffffffff1673ffffffffffffffffffffffffffffffffffffffff1663095ea7b360045f9054906101000a900473ffffffffffffffffffffffffffffffffffffffff16836040518363ffffffff1660e01b8152600401610bc6929190611a4a565b6020604051808303815f875af1158015610be2573d5f803e3d5ffd5b505050506040513d601f19601f82011682018060405250810190610c069190611aa6565b508573ffffffffffffffffffffffffffffffffffffffff1663095ea7b360045f9054906101000a900473ffffffffffffffffffffffffffffffffffffffff16876040518363ffffffff1660e01b8152600401610c63929190611a4a565b6020604051808303815f875af1158015610c7f573d5f803e3d5ffd5b505050506040513d601f19601f82011682018060405250810190610ca39190611aa6565b5060045f9054906101000a900473ffffffffffffffffffffffffffffffffffffffff1673ffffffffffffffffffffffffffffffffffffffff166396f4e9f9600360149054906101000a900467ffffffffffffffff16846040518363ffffffff1660e01b8152600401610d169291906119f5565b6020604051808303815f875af1158015610d32573d5f803e3d5ffd5b505050506040513d601f19601f82011682018060405250810190610d569190611afb565b9350600360149054906101000a900467ffffffffffffffff1667ffffffffffffffff16847fc15fb748c32ba4eb29c1c311e78533f93b4425eab49ea87c6fe4279ecadca04389898960055f9054906101000a900473ffffffffffffffffffffffffffffffffffffffff1687604051610dd2959493929190611b26565b60405180910390a35050509392505050565b610dec610df8565b610df58161104a565b50565b5f8054906101000a900473ffffffffffffffffffffffffffffffffffffffff1673ffffffffffffffffffffffffffffffffffffffff163373ffffffffffffffffffffffffffffffffffffffff1614610e85576040517f08c379a0000000000000000000000000000000000000000000000000000000008152600401610e7c90611bc1565b60405180910390fd5b565b610f088363a9059cbb60e01b8484604051602401610ea6929190611a4a565b604051602081830303815290604052907bffffffffffffffffffffffffffffffffffffffffffffffffffffffff19166020820180517bffffffffffffffffffffffffffffffffffffffffffffffffffffffff8381831617835250505050611174565b505050565b610f1561147d565b5f600167ffffffffffffffff811115610f3157610f30611bdf565b5b604051908082528060200260200182016040528015610f6a57816020015b610f576114c1565b815260200190600190039081610f4f5790505b50905060405180604001604052808673ffffffffffffffffffffffffffffffffffffffff16815260200185815250815f81518110610fab57610faa611c0c565b5b60200260200101819052506040518060a0016040528087604051602001610fd29190611679565b604051602081830303815290604052815260200160405180602001604052805f81525081526020018281526020018473ffffffffffffffffffffffffffffffffffffffff16815260200161103c60405180604001604052805f815260200160011515815250611239565b815250915050949350505050565b3373ffffffffffffffffffffffffffffffffffffffff168173ffffffffffffffffffffffffffffffffffffffff16036110b8576040517f08c379a00000000000000000000000000000000000000000000000000000000081526004016110af90611c83565b60405180910390fd5b8060015f6101000a81548173ffffffffffffffffffffffffffffffffffffffff021916908373ffffffffffffffffffffffffffffffffffffffff1602179055508073ffffffffffffffffffffffffffffffffffffffff165f8054906101000a900473ffffffffffffffffffffffffffffffffffffffff1673ffffffffffffffffffffffffffffffffffffffff167fed8889f560326eb138920d842192f0eb3dd22b4f139c87a2c57538e05bae127860405160405180910390a350565b5f6111d5826040518060400160405280602081526020017f5361666545524332303a206c6f772d6c6576656c2063616c6c206661696c65648152508573ffffffffffffffffffffffffffffffffffffffff166112b89092919063ffffffff16565b90505f8151111561123457808060200190518101906111f49190611aa6565b611233576040517f08c379a000000000000000000000000000000000000000000000000000000000815260040161122a90611d11565b60405180910390fd5b5b505050565b606063181dcf1060e01b826040516024016112549190611d6b565b604051602081830303815290604052907bffffffffffffffffffffffffffffffffffffffffffffffffffffffff19166020820180517bffffffffffffffffffffffffffffffffffffffffffffffffffffffff83818316178352505050509050919050565b60606112c684845f856112cf565b90509392505050565b606082471015611314576040517f08c379a000000000000000000000000000000000000000000000000000000000815260040161130b90611df4565b60405180910390fd5b5f808673ffffffffffffffffffffffffffffffffffffffff16858760405161133c9190611e42565b5f6040518083038185875af1925050503d805f8114611376576040519150601f19603f3d011682016040523d82523d5f602084013e61137b565b606091505b509150915061138c87838387611398565b92505050949350505050565b606083156113f9575f8351036113f1576113b18561140c565b6113f0576040517f08c379a00000000000000000000000000000000000000000000000000000000081526004016113e790611ea2565b60405180910390fd5b5b829050611404565b611403838361142e565b5b949350505050565b5f808273ffffffffffffffffffffffffffffffffffffffff163b119050919050565b5f825111156114405781518083602001fd5b806040517f08c379a00000000000000000000000000000000000000000000000000000000081526004016114749190611f02565b60405180910390fd5b6040518060a001604052806060815260200160608152602001606081526020015f73ffffffffffffffffffffffffffffffffffffffff168152602001606081525090565b60405180604001604052805f73ffffffffffffffffffffffffffffffffffffffff1681526020015f81525090565b5f80fd5b5f73ffffffffffffffffffffffffffffffffffffffff82169050919050565b5f61151c826114f3565b9050919050565b61152c81611512565b8114611536575f80fd5b50565b5f8135905061154781611523565b92915050565b5f8060408385031215611563576115626114ef565b5b5f61157085828601611539565b925050602061158185828601611539565b9150509250929050565b5f602082840312156115a05761159f6114ef565b5b5f6115ad84828501611539565b91505092915050565b5f819050919050565b6115c8816115b6565b81146115d2575f80fd5b50565b5f813590506115e3816115bf565b92915050565b5f805f60608486031215611600576115ff6114ef565b5b5f61160d86828701611539565b935050602061161e86828701611539565b925050604061162f868287016115d5565b9150509250925092565b5f819050919050565b61164b81611639565b82525050565b5f6020820190506116645f830184611642565b92915050565b61167381611512565b82525050565b5f60208201905061168c5f83018461166a565b92915050565b5f815190506116a0816115bf565b92915050565b5f602082840312156116bb576116ba6114ef565b5b5f6116c884828501611692565b91505092915050565b5f81905092915050565b50565b5f6116e95f836116d1565b91506116f4826116db565b5f82019050919050565b5f611708826116de565b9150819050919050565b61171b816115b6565b82525050565b5f6060820190506117345f83018661166a565b611741602083018561166a565b61174e6040830184611712565b949350505050565b5f82825260208201905092915050565b7f4d7573742062652070726f706f736564206f776e6572000000000000000000005f82015250565b5f61179a601683611756565b91506117a582611766565b602082019050919050565b5f6020820190508181035f8301526117c78161178e565b9050919050565b5f67ffffffffffffffff82169050919050565b6117ea816117ce565b82525050565b5f81519050919050565b5f82825260208201905092915050565b5f5b8381101561182757808201518184015260208101905061180c565b5f8484015250505050565b5f601f19601f8301169050919050565b5f61184c826117f0565b61185681856117fa565b935061186681856020860161180a565b61186f81611832565b840191505092915050565b5f81519050919050565b5f82825260208201905092915050565b5f819050602082019050919050565b6118ac81611512565b82525050565b6118bb816115b6565b82525050565b604082015f8201516118d55f8501826118a3565b5060208201516118e860208501826118b2565b50505050565b5f6118f983836118c1565b60408301905092915050565b5f602082019050919050565b5f61191b8261187a565b6119258185611884565b935061193083611894565b805f5b8381101561196057815161194788826118ee565b975061195283611905565b925050600181019050611933565b5085935050505092915050565b5f60a083015f8301518482035f8601526119878282611842565b915050602083015184820360208601526119a18282611842565b915050604083015184820360408601526119bb8282611911565b91505060608301516119d060608601826118a3565b50608083015184820360808601526119e88282611842565b9150508091505092915050565b5f604082019050611a085f8301856117e1565b8181036020830152611a1a818461196d565b90509392505050565b5f604082019050611a365f830185611712565b611a436020830184611712565b9392505050565b5f604082019050611a5d5f83018561166a565b611a6a6020830184611712565b9392505050565b5f8115159050919050565b611a8581611a71565b8114611a8f575f80fd5b50565b5f81519050611aa081611a7c565b92915050565b5f60208284031215611abb57611aba6114ef565b5b5f611ac884828501611a92565b91505092915050565b611ada81611639565b8114611ae4575f80fd5b50565b5f81519050611af581611ad1565b92915050565b5f60208284031215611b1057611b0f6114ef565b5b5f611b1d84828501611ae7565b91505092915050565b5f60a082019050611b395f83018861166a565b611b46602083018761166a565b611b536040830186611712565b611b60606083018561166a565b611b6d6080830184611712565b9695505050505050565b7f4f6e6c792063616c6c61626c65206279206f776e6572000000000000000000005f82015250565b5f611bab601683611756565b9150611bb682611b77565b602082019050919050565b5f6020820190508181035f830152611bd881611b9f565b9050919050565b7f4e487b71000000000000000000000000000000000000000000000000000000005f52604160045260245ffd5b7f4e487b71000000000000000000000000000000000000000000000000000000005f52603260045260245ffd5b7f43616e6e6f74207472616e7366657220746f2073656c660000000000000000005f82015250565b5f611c6d601783611756565b9150611c7882611c39565b602082019050919050565b5f6020820190508181035f830152611c9a81611c61565b9050919050565b7f5361666545524332303a204552433230206f7065726174696f6e20646964206e5f8201527f6f74207375636365656400000000000000000000000000000000000000000000602082015250565b5f611cfb602a83611756565b9150611d0682611ca1565b604082019050919050565b5f6020820190508181035f830152611d2881611cef565b9050919050565b611d3881611a71565b82525050565b604082015f820151611d525f8501826118b2565b506020820151611d656020850182611d2f565b50505050565b5f604082019050611d7e5f830184611d3e565b92915050565b7f416464726573733a20696e73756666696369656e742062616c616e636520666f5f8201527f722063616c6c0000000000000000000000000000000000000000000000000000602082015250565b5f611dde602683611756565b9150611de982611d84565b604082019050919050565b5f6020820190508181035f830152611e0b81611dd2565b9050919050565b5f611e1c826117f0565b611e2681856116d1565b9350611e3681856020860161180a565b80840191505092915050565b5f611e4d8284611e12565b915081905092915050565b7f416464726573733a2063616c6c20746f206e6f6e2d636f6e74726163740000005f82015250565b5f611e8c601d83611756565b9150611e9782611e58565b602082019050919050565b5f6020820190508181035f830152611eb981611e80565b9050919050565b5f81519050919050565b5f611ed482611ec0565b611ede8185611756565b9350611eee81856020860161180a565b611ef781611832565b840191505092915050565b5f6020820190508181035f830152611f1a8184611eca565b90509291505056fea26469706673582212207ada17d85963227b56e2cdf409d70ca0564f3e0cfbd33e4863872d77864b826964736f6c63430008180033",
					"opcodes": "PUSH1 0x80 PUSH1 0x40 MSTORE PUSH20 0xD3B06CEBF099CE7DA4ACCF578AAEBFDBD6E88A93 PUSH1 0x2 PUSH0 PUSH2 0x100 EXP DUP2 SLOAD DUP2 PUSH20 0xFFFFFFFFFFFFFFFFFFFFFFFFFFFFFFFFFFFFFFFF MUL NOT AND SWAP1 DUP4 PUSH20 0xFFFFFFFFFFFFFFFFFFFFFFFFFFFFFFFFFFFFFFFF AND MUL OR SWAP1 SSTORE POP PUSH20 0xE4AB69C077896252FAFBD49EFD26B5D171A32410 PUSH1 0x3 PUSH0 PUSH2 0x100 EXP DUP2 SLOAD DUP2 PUSH20 0xFFFFFFFFFFFFFFFFFFFFFFFFFFFFFFFFFFFFFFFF MUL NOT AND SWAP1 DUP4 PUSH20 0xFFFFFFFFFFFFFFFFFFFFFFFFFFFFFFFFFFFFFFFF AND MUL OR SWAP1 SSTORE POP PUSH8 0xCCF0A31A221F3C9B PUSH1 0x3 PUSH1 0x14 PUSH2 0x100 EXP DUP2 SLOAD DUP2 PUSH8 0xFFFFFFFFFFFFFFFF MUL NOT AND SWAP1 DUP4 PUSH8 0xFFFFFFFFFFFFFFFF AND MUL OR SWAP1 SSTORE POP CALLVALUE DUP1 ISZERO PUSH3 0xE9 JUMPI PUSH0 DUP1 REVERT JUMPDEST POP CALLER DUP1 PUSH0 DUP1 PUSH20 0xFFFFFFFFFFFFFFFFFFFFFFFFFFFFFFFFFFFFFFFF AND DUP3 PUSH20 0xFFFFFFFFFFFFFFFFFFFFFFFFFFFFFFFFFFFFFFFF AND SUB PUSH3 0x15E JUMPI PUSH1 0x40 MLOAD PUSH32 0x8C379A000000000000000000000000000000000000000000000000000000000 DUP2 MSTORE PUSH1 0x4 ADD PUSH3 0x155 SWAP1 PUSH3 0x439 JUMP JUMPDEST PUSH1 0x40 MLOAD DUP1 SWAP2 SUB SWAP1 REVERT JUMPDEST DUP2 PUSH0 DUP1 PUSH2 0x100 EXP DUP2 SLOAD DUP2 PUSH20 0xFFFFFFFFFFFFFFFFFFFFFFFFFFFFFFFFFFFFFFFF MUL NOT AND SWAP1 DUP4 PUSH20 0xFFFFFFFFFFFFFFFFFFFFFFFFFFFFFFFFFFFFFFFF AND MUL OR SWAP1 SSTORE POP PUSH0 PUSH20 0xFFFFFFFFFFFFFFFFFFFFFFFFFFFFFFFFFFFFFFFF AND DUP2 PUSH20 0xFFFFFFFFFFFFFFFFFFFFFFFFFFFFFFFFFFFFFFFF AND EQ PUSH3 0x1E3 JUMPI PUSH3 0x1E2 DUP2 PUSH3 0x2AE PUSH1 0x20 SHL PUSH1 0x20 SHR JUMP JUMPDEST JUMPDEST POP POP POP PUSH1 0x2 PUSH0 SWAP1 SLOAD SWAP1 PUSH2 0x100 EXP SWAP1 DIV PUSH20 0xFFFFFFFFFFFFFFFFFFFFFFFFFFFFFFFFFFFFFFFF AND PUSH1 0x4 PUSH0 PUSH2 0x100 EXP DUP2 SLOAD DUP2 PUSH20 0xFFFFFFFFFFFFFFFFFFFFFFFFFFFFFFFFFFFFFFFF MUL NOT AND SWAP1 DUP4 PUSH20 0xFFFFFFFFFFFFFFFFFFFFFFFFFFFFFFFFFFFFFFFF AND MUL OR SWAP1 SSTORE POP PUSH1 0x3 PUSH0 SWAP1 SLOAD SWAP1 PUSH2 0x100 EXP SWAP1 DIV PUSH20 0xFFFFFFFFFFFFFFFFFFFFFFFFFFFFFFFFFFFFFFFF AND PUSH1 0x5 PUSH0 PUSH2 0x100 EXP DUP2 SLOAD DUP2 PUSH20 0xFFFFFFFFFFFFFFFFFFFFFFFFFFFFFFFFFFFFFFFF MUL NOT AND SWAP1 DUP4 PUSH20 0xFFFFFFFFFFFFFFFFFFFFFFFFFFFFFFFFFFFFFFFF AND MUL OR SWAP1 SSTORE POP PUSH3 0x4C7 JUMP JUMPDEST CALLER PUSH20 0xFFFFFFFFFFFFFFFFFFFFFFFFFFFFFFFFFFFFFFFF AND DUP2 PUSH20 0xFFFFFFFFFFFFFFFFFFFFFFFFFFFFFFFFFFFFFFFF AND SUB PUSH3 0x31F JUMPI PUSH1 0x40 MLOAD PUSH32 0x8C379A000000000000000000000000000000000000000000000000000000000 DUP2 MSTORE PUSH1 0x4 ADD PUSH3 0x316 SWAP1 PUSH3 0x4A7 JUMP JUMPDEST PUSH1 0x40 MLOAD DUP1 SWAP2 SUB SWAP1 REVERT JUMPDEST DUP1 PUSH1 0x1 PUSH0 PUSH2 0x100 EXP DUP2 SLOAD DUP2 PUSH20 0xFFFFFFFFFFFFFFFFFFFFFFFFFFFFFFFFFFFFFFFF MUL NOT AND SWAP1 DUP4 PUSH20 0xFFFFFFFFFFFFFFFFFFFFFFFFFFFFFFFFFFFFFFFF AND MUL OR SWAP1 SSTORE POP DUP1 PUSH20 0xFFFFFFFFFFFFFFFFFFFFFFFFFFFFFFFFFFFFFFFF AND PUSH0 DUP1 SLOAD SWAP1 PUSH2 0x100 EXP SWAP1 DIV PUSH20 0xFFFFFFFFFFFFFFFFFFFFFFFFFFFFFFFFFFFFFFFF AND PUSH20 0xFFFFFFFFFFFFFFFFFFFFFFFFFFFFFFFFFFFFFFFF AND PUSH32 0xED8889F560326EB138920D842192F0EB3DD22B4F139C87A2C57538E05BAE1278 PUSH1 0x40 MLOAD PUSH1 0x40 MLOAD DUP1 SWAP2 SUB SWAP1 LOG3 POP JUMP JUMPDEST PUSH0 DUP3 DUP3 MSTORE PUSH1 0x20 DUP3 ADD SWAP1 POP SWAP3 SWAP2 POP POP JUMP JUMPDEST PUSH32 0x43616E6E6F7420736574206F776E657220746F207A65726F0000000000000000 PUSH0 DUP3 ADD MSTORE POP JUMP JUMPDEST PUSH0 PUSH3 0x421 PUSH1 0x18 DUP4 PUSH3 0x3DB JUMP JUMPDEST SWAP2 POP PUSH3 0x42E DUP3 PUSH3 0x3EB JUMP JUMPDEST PUSH1 0x20 DUP3 ADD SWAP1 POP SWAP2 SWAP1 POP JUMP JUMPDEST PUSH0 PUSH1 0x20 DUP3 ADD SWAP1 POP DUP2 DUP2 SUB PUSH0 DUP4 ADD MSTORE PUSH3 0x452 DUP2 PUSH3 0x413 JUMP JUMPDEST SWAP1 POP SWAP2 SWAP1 POP JUMP JUMPDEST PUSH32 0x43616E6E6F74207472616E7366657220746F2073656C66000000000000000000 PUSH0 DUP3 ADD MSTORE POP JUMP JUMPDEST PUSH0 PUSH3 0x48F PUSH1 0x17 DUP4 PUSH3 0x3DB JUMP JUMPDEST SWAP2 POP PUSH3 0x49C DUP3 PUSH3 0x459 JUMP JUMPDEST PUSH1 0x20 DUP3 ADD SWAP1 POP SWAP2 SWAP1 POP JUMP JUMPDEST PUSH0 PUSH1 0x20 DUP3 ADD SWAP1 POP DUP2 DUP2 SUB PUSH0 DUP4 ADD MSTORE PUSH3 0x4C0 DUP2 PUSH3 0x481 JUMP JUMPDEST SWAP1 POP SWAP2 SWAP1 POP JUMP JUMPDEST PUSH2 0x1F58 DUP1 PUSH3 0x4D5 PUSH0 CODECOPY PUSH0 RETURN INVALID PUSH1 0x80 PUSH1 0x40 MSTORE PUSH1 0x4 CALLDATASIZE LT PUSH2 0x73 JUMPI PUSH0 CALLDATALOAD PUSH1 0xE0 SHR DUP1 PUSH4 0x8AFE0F51 GT PUSH2 0x4D JUMPI DUP1 PUSH4 0x8AFE0F51 EQ PUSH2 0xE4 JUMPI DUP1 PUSH4 0x8DA5CB5B EQ PUSH2 0x120 JUMPI DUP1 PUSH4 0xBBB6EAE5 EQ PUSH2 0x14A JUMPI DUP1 PUSH4 0xF2FDE38B EQ PUSH2 0x186 JUMPI PUSH2 0x7A JUMP JUMPDEST DUP1 PUSH4 0x3AEAC4E1 EQ PUSH2 0x7E JUMPI DUP1 PUSH4 0x51CFF8D9 EQ PUSH2 0xA6 JUMPI DUP1 PUSH4 0x79BA5097 EQ PUSH2 0xCE JUMPI PUSH2 0x7A JUMP JUMPDEST CALLDATASIZE PUSH2 0x7A JUMPI STOP JUMPDEST PUSH0 DUP1 REVERT JUMPDEST CALLVALUE DUP1 ISZERO PUSH2 0x89 JUMPI PUSH0 DUP1 REVERT JUMPDEST POP PUSH2 0xA4 PUSH1 0x4 DUP1 CALLDATASIZE SUB DUP2 ADD SWAP1 PUSH2 0x9F SWAP2 SWAP1 PUSH2 0x154D JUMP JUMPDEST PUSH2 0x1AE JUMP JUMPDEST STOP JUMPDEST CALLVALUE DUP1 ISZERO PUSH2 0xB1 JUMPI PUSH0 DUP1 REVERT JUMPDEST POP PUSH2 0xCC PUSH1 0x4 DUP1 CALLDATASIZE SUB DUP2 ADD SWAP1 PUSH2 0xC7 SWAP2 SWAP1 PUSH2 0x158B JUMP JUMPDEST PUSH2 0x29A JUMP JUMPDEST STOP JUMPDEST CALLVALUE DUP1 ISZERO PUSH2 0xD9 JUMPI PUSH0 DUP1 REVERT JUMPDEST POP PUSH2 0xE2 PUSH2 0x392 JUMP JUMPDEST STOP JUMPDEST CALLVALUE DUP1 ISZERO PUSH2 0xEF JUMPI PUSH0 DUP1 REVERT JUMPDEST POP PUSH2 0x10A PUSH1 0x4 DUP1 CALLDATASIZE SUB DUP2 ADD SWAP1 PUSH2 0x105 SWAP2 SWAP1 PUSH2 0x15E9 JUMP JUMPDEST PUSH2 0x521 JUMP JUMPDEST PUSH1 0x40 MLOAD PUSH2 0x117 SWAP2 SWAP1 PUSH2 0x1651 JUMP JUMPDEST PUSH1 0x40 MLOAD DUP1 SWAP2 SUB SWAP1 RETURN JUMPDEST CALLVALUE DUP1 ISZERO PUSH2 0x12B JUMPI PUSH0 DUP1 REVERT JUMPDEST POP PUSH2 0x134 PUSH2 0x858 JUMP JUMPDEST PUSH1 0x40 MLOAD PUSH2 0x141 SWAP2 SWAP1 PUSH2 0x1679 JUMP JUMPDEST PUSH1 0x40 MLOAD DUP1 SWAP2 SUB SWAP1 RETURN JUMPDEST CALLVALUE DUP1 ISZERO PUSH2 0x155 JUMPI PUSH0 DUP1 REVERT JUMPDEST POP PUSH2 0x170 PUSH1 0x4 DUP1 CALLDATASIZE SUB DUP2 ADD SWAP1 PUSH2 0x16B SWAP2 SWAP1 PUSH2 0x15E9 JUMP JUMPDEST PUSH2 0x87F JUMP JUMPDEST PUSH1 0x40 MLOAD PUSH2 0x17D SWAP2 SWAP1 PUSH2 0x1651 JUMP JUMPDEST PUSH1 0x40 MLOAD DUP1 SWAP2 SUB SWAP1 RETURN JUMPDEST CALLVALUE DUP1 ISZERO PUSH2 0x191 JUMPI PUSH0 DUP1 REVERT JUMPDEST POP PUSH2 0x1AC PUSH1 0x4 DUP1 CALLDATASIZE SUB DUP2 ADD SWAP1 PUSH2 0x1A7 SWAP2 SWAP1 PUSH2 0x158B JUMP JUMPDEST PUSH2 0xDE4 JUMP JUMPDEST STOP JUMPDEST PUSH2 0x1B6 PUSH2 0xDF8 JUMP JUMPDEST PUSH0 DUP2 PUSH20 0xFFFFFFFFFFFFFFFFFFFFFFFFFFFFFFFFFFFFFFFF AND PUSH4 0x70A08231 ADDRESS PUSH1 0x40 MLOAD DUP3 PUSH4 0xFFFFFFFF AND PUSH1 0xE0 SHL DUP2 MSTORE PUSH1 0x4 ADD PUSH2 0x1F0 SWAP2 SWAP1 PUSH2 0x1679 JUMP JUMPDEST PUSH1 0x20 PUSH1 0x40 MLOAD DUP1 DUP4 SUB DUP2 DUP7 GAS STATICCALL ISZERO DUP1 ISZERO PUSH2 0x20B JUMPI RETURNDATASIZE PUSH0 DUP1 RETURNDATACOPY RETURNDATASIZE PUSH0 REVERT JUMPDEST POP POP POP POP PUSH1 0x40 MLOAD RETURNDATASIZE PUSH1 0x1F NOT PUSH1 0x1F DUP3 ADD AND DUP3 ADD DUP1 PUSH1 0x40 MSTORE POP DUP2 ADD SWAP1 PUSH2 0x22F SWAP2 SWAP1 PUSH2 0x16A6 JUMP JUMPDEST SWAP1 POP PUSH0 DUP2 SUB PUSH2 0x26A JUMPI PUSH1 0x40 MLOAD PUSH32 0xD0D04F6000000000000000000000000000000000000000000000000000000000 DUP2 MSTORE PUSH1 0x4 ADD PUSH1 0x40 MLOAD DUP1 SWAP2 SUB SWAP1 REVERT JUMPDEST PUSH2 0x295 DUP4 DUP3 DUP5 PUSH20 0xFFFFFFFFFFFFFFFFFFFFFFFFFFFFFFFFFFFFFFFF AND PUSH2 0xE87 SWAP1 SWAP3 SWAP2 SWAP1 PUSH4 0xFFFFFFFF AND JUMP JUMPDEST POP POP POP JUMP JUMPDEST PUSH2 0x2A2 PUSH2 0xDF8 JUMP JUMPDEST PUSH0 SELFBALANCE SWAP1 POP PUSH0 DUP2 SUB PUSH2 0x2DF JUMPI PUSH1 0x40 MLOAD PUSH32 0xD0D04F6000000000000000000000000000000000000000000000000000000000 DUP2 MSTORE PUSH1 0x4 ADD PUSH1 0x40 MLOAD DUP1 SWAP2 SUB SWAP1 REVERT JUMPDEST PUSH0 DUP3 PUSH20 0xFFFFFFFFFFFFFFFFFFFFFFFFFFFFFFFFFFFFFFFF AND DUP3 PUSH1 0x40 MLOAD PUSH2 0x304 SWAP1 PUSH2 0x16FE JUMP JUMPDEST PUSH0 PUSH1 0x40 MLOAD DUP1 DUP4 SUB DUP2 DUP6 DUP8 GAS CALL SWAP3 POP POP POP RETURNDATASIZE DUP1 PUSH0 DUP2 EQ PUSH2 0x33E JUMPI PUSH1 0x40 MLOAD SWAP2 POP PUSH1 0x1F NOT PUSH1 0x3F RETURNDATASIZE ADD AND DUP3 ADD PUSH1 0x40 MSTORE RETURNDATASIZE DUP3 MSTORE RETURNDATASIZE PUSH0 PUSH1 0x20 DUP5 ADD RETURNDATACOPY PUSH2 0x343 JUMP JUMPDEST PUSH1 0x60 SWAP2 POP JUMPDEST POP POP SWAP1 POP DUP1 PUSH2 0x38D JUMPI CALLER DUP4 DUP4 PUSH1 0x40 MLOAD PUSH32 0x9D11F56300000000000000000000000000000000000000000000000000000000 DUP2 MSTORE PUSH1 0x4 ADD PUSH2 0x384 SWAP4 SWAP3 SWAP2 SWAP1 PUSH2 0x1721 JUMP JUMPDEST PUSH1 0x40 MLOAD DUP1 SWAP2 SUB SWAP1 REVERT JUMPDEST POP POP POP JUMP JUMPDEST PUSH1 0x1 PUSH0 SWAP1 SLOAD SWAP1 PUSH2 0x100 EXP SWAP1 DIV PUSH20 0xFFFFFFFFFFFFFFFFFFFFFFFFFFFFFFFFFFFFFFFF AND PUSH20 0xFFFFFFFFFFFFFFFFFFFFFFFFFFFFFFFFFFFFFFFF AND CALLER PUSH20 0xFFFFFFFFFFFFFFFFFFFFFFFFFFFFFFFFFFFFFFFF AND EQ PUSH2 0x421 JUMPI PUSH1 0x40 MLOAD PUSH32 0x8C379A000000000000000000000000000000000000000000000000000000000 DUP2 MSTORE PUSH1 0x4 ADD PUSH2 0x418 SWAP1 PUSH2 0x17B0 JUMP JUMPDEST PUSH1 0x40 MLOAD DUP1 SWAP2 SUB SWAP1 REVERT JUMPDEST PUSH0 DUP1 PUSH0 SWAP1 SLOAD SWAP1 PUSH2 0x100 EXP SWAP1 DIV PUSH20 0xFFFFFFFFFFFFFFFFFFFFFFFFFFFFFFFFFFFFFFFF AND SWAP1 POP CALLER PUSH0 DUP1 PUSH2 0x100 EXP DUP2 SLOAD DUP2 PUSH20 0xFFFFFFFFFFFFFFFFFFFFFFFFFFFFFFFFFFFFFFFF MUL NOT AND SWAP1 DUP4 PUSH20 0xFFFFFFFFFFFFFFFFFFFFFFFFFFFFFFFFFFFFFFFF AND MUL OR SWAP1 SSTORE POP PUSH0 PUSH1 0x1 PUSH0 PUSH2 0x100 EXP DUP2 SLOAD DUP2 PUSH20 0xFFFFFFFFFFFFFFFFFFFFFFFFFFFFFFFFFFFFFFFF MUL NOT AND SWAP1 DUP4 PUSH20 0xFFFFFFFFFFFFFFFFFFFFFFFFFFFFFFFFFFFFFFFF AND MUL OR SWAP1 SSTORE POP CALLER PUSH20 0xFFFFFFFFFFFFFFFFFFFFFFFFFFFFFFFFFFFFFFFF AND DUP2 PUSH20 0xFFFFFFFFFFFFFFFFFFFFFFFFFFFFFFFFFFFFFFFF AND PUSH32 0x8BE0079C531659141344CD1FD0A4F28419497F9722A3DAAFE3B4186F6B6457E0 PUSH1 0x40 MLOAD PUSH1 0x40 MLOAD DUP1 SWAP2 SUB SWAP1 LOG3 POP JUMP JUMPDEST PUSH0 PUSH2 0x52A PUSH2 0xDF8 JUMP JUMPDEST DUP4 PUSH0 PUSH20 0xFFFFFFFFFFFFFFFFFFFFFFFFFFFFFFFFFFFFFFFF AND DUP2 PUSH20 0xFFFFFFFFFFFFFFFFFFFFFFFFFFFFFFFFFFFFFFFF AND SUB PUSH2 0x590 JUMPI PUSH1 0x40 MLOAD PUSH32 0xA05FF47E00000000000000000000000000000000000000000000000000000000 DUP2 MSTORE PUSH1 0x4 ADD PUSH1 0x40 MLOAD DUP1 SWAP2 SUB SWAP1 REVERT JUMPDEST PUSH0 PUSH2 0x59D DUP7 DUP7 DUP7 PUSH0 PUSH2 0xF0D JUMP JUMPDEST SWAP1 POP PUSH0 PUSH1 0x4 PUSH0 SWAP1 SLOAD SWAP1 PUSH2 0x100 EXP SWAP1 DIV PUSH20 0xFFFFFFFFFFFFFFFFFFFFFFFFFFFFFFFFFFFFFFFF AND PUSH20 0xFFFFFFFFFFFFFFFFFFFFFFFFFFFFFFFFFFFFFFFF AND PUSH4 0x20487DED PUSH1 0x3 PUSH1 0x14 SWAP1 SLOAD SWAP1 PUSH2 0x100 EXP SWAP1 DIV PUSH8 0xFFFFFFFFFFFFFFFF AND DUP5 PUSH1 0x40 MLOAD DUP4 PUSH4 0xFFFFFFFF AND PUSH1 0xE0 SHL DUP2 MSTORE PUSH1 0x4 ADD PUSH2 0x612 SWAP3 SWAP2 SWAP1 PUSH2 0x19F5 JUMP JUMPDEST PUSH1 0x20 PUSH1 0x40 MLOAD DUP1 DUP4 SUB DUP2 DUP7 GAS STATICCALL ISZERO DUP1 ISZERO PUSH2 0x62D JUMPI RETURNDATASIZE PUSH0 DUP1 RETURNDATACOPY RETURNDATASIZE PUSH0 REVERT JUMPDEST POP POP POP POP PUSH1 0x40 MLOAD RETURNDATASIZE PUSH1 0x1F NOT PUSH1 0x1F DUP3 ADD AND DUP3 ADD DUP1 PUSH1 0x40 MSTORE POP DUP2 ADD SWAP1 PUSH2 0x651 SWAP2 SWAP1 PUSH2 0x16A6 JUMP JUMPDEST SWAP1 POP SELFBALANCE DUP2 GT ISZERO PUSH2 0x69A JUMPI SELFBALANCE DUP2 PUSH1 0x40 MLOAD PUSH32 0x8F0F420600000000000000000000000000000000000000000000000000000000 DUP2 MSTORE PUSH1 0x4 ADD PUSH2 0x691 SWAP3 SWAP2 SWAP1 PUSH2 0x1A23 JUMP JUMPDEST PUSH1 0x40 MLOAD DUP1 SWAP2 SUB SWAP1 REVERT JUMPDEST DUP6 PUSH20 0xFFFFFFFFFFFFFFFFFFFFFFFFFFFFFFFFFFFFFFFF AND PUSH4 0x95EA7B3 PUSH1 0x4 PUSH0 SWAP1 SLOAD SWAP1 PUSH2 0x100 EXP SWAP1 DIV PUSH20 0xFFFFFFFFFFFFFFFFFFFFFFFFFFFFFFFFFFFFFFFF AND DUP8 PUSH1 0x40 MLOAD DUP4 PUSH4 0xFFFFFFFF AND PUSH1 0xE0 SHL DUP2 MSTORE PUSH1 0x4 ADD PUSH2 0x6F6 SWAP3 SWAP2 SWAP1 PUSH2 0x1A4A JUMP JUMPDEST PUSH1 0x20 PUSH1 0x40 MLOAD DUP1 DUP4 SUB DUP2 PUSH0 DUP8 GAS CALL ISZERO DUP1 ISZERO PUSH2 0x712 JUMPI RETURNDATASIZE PUSH0 DUP1 RETURNDATACOPY RETURNDATASIZE PUSH0 REVERT JUMPDEST POP POP POP POP PUSH1 0x40 MLOAD RETURNDATASIZE PUSH1 0x1F NOT PUSH1 0x1F DUP3 ADD AND DUP3 ADD DUP1 PUSH1 0x40 MSTORE POP DUP2 ADD SWAP1 PUSH2 0x736 SWAP2 SWAP1 PUSH2 0x1AA6 JUMP JUMPDEST POP PUSH1 0x4 PUSH0 SWAP1 SLOAD SWAP1 PUSH2 0x100 EXP SWAP1 DIV PUSH20 0xFFFFFFFFFFFFFFFFFFFFFFFFFFFFFFFFFFFFFFFF AND PUSH20 0xFFFFFFFFFFFFFFFFFFFFFFFFFFFFFFFFFFFFFFFF AND PUSH4 0x96F4E9F9 DUP3 PUSH1 0x3 PUSH1 0x14 SWAP1 SLOAD SWAP1 PUSH2 0x100 EXP SWAP1 DIV PUSH8 0xFFFFFFFFFFFFFFFF AND DUP6 PUSH1 0x40 MLOAD DUP5 PUSH4 0xFFFFFFFF AND PUSH1 0xE0 SHL DUP2 MSTORE PUSH1 0x4 ADD PUSH2 0x7AA SWAP3 SWAP2 SWAP1 PUSH2 0x19F5 JUMP JUMPDEST PUSH1 0x20 PUSH1 0x40 MLOAD DUP1 DUP4 SUB DUP2 DUP6 DUP9 GAS CALL ISZERO DUP1 ISZERO PUSH2 0x7C6 JUMPI RETURNDATASIZE PUSH0 DUP1 RETURNDATACOPY RETURNDATASIZE PUSH0 REVERT JUMPDEST POP POP POP POP POP PUSH1 0x40 MLOAD RETURNDATASIZE PUSH1 0x1F NOT PUSH1 0x1F DUP3 ADD AND DUP3 ADD DUP1 PUSH1 0x40 MSTORE POP DUP2 ADD SWAP1 PUSH2 0x7EB SWAP2 SWAP1 PUSH2 0x1AFB JUMP JUMPDEST SWAP4 POP PUSH1 0x3 PUSH1 0x14 SWAP1 SLOAD SWAP1 PUSH2 0x100 EXP SWAP1 DIV PUSH8 0xFFFFFFFFFFFFFFFF AND PUSH8 0xFFFFFFFFFFFFFFFF AND DUP5 PUSH32 0xC15FB748C32BA4EB29C1C311E78533F93B4425EAB49EA87C6FE4279ECADCA043 DUP10 DUP10 DUP10 PUSH0 DUP8 PUSH1 0x40 MLOAD PUSH2 0x846 SWAP6 SWAP5 SWAP4 SWAP3 SWAP2 SWAP1 PUSH2 0x1B26 JUMP JUMPDEST PUSH1 0x40 MLOAD DUP1 SWAP2 SUB SWAP1 LOG3 POP POP POP SWAP4 SWAP3 POP POP POP JUMP JUMPDEST PUSH0 DUP1 PUSH0 SWAP1 SLOAD SWAP1 PUSH2 0x100 EXP SWAP1 DIV PUSH20 0xFFFFFFFFFFFFFFFFFFFFFFFFFFFFFFFFFFFFFFFF AND SWAP1 POP SWAP1 JUMP JUMPDEST PUSH0 PUSH2 0x888 PUSH2 0xDF8 JUMP JUMPDEST DUP4 PUSH0 PUSH20 0xFFFFFFFFFFFFFFFFFFFFFFFFFFFFFFFFFFFFFFFF AND DUP2 PUSH20 0xFFFFFFFFFFFFFFFFFFFFFFFFFFFFFFFFFFFFFFFF AND SUB PUSH2 0x8EE JUMPI PUSH1 0x40 MLOAD PUSH32 0xA05FF47E00000000000000000000000000000000000000000000000000000000 DUP2 MSTORE PUSH1 0x4 ADD PUSH1 0x40 MLOAD DUP1 SWAP2 SUB SWAP1 REVERT JUMPDEST PUSH0 PUSH2 0x91C DUP7 DUP7 DUP7 PUSH1 0x5 PUSH0 SWAP1 SLOAD SWAP1 PUSH2 0x100 EXP SWAP1 DIV PUSH20 0xFFFFFFFFFFFFFFFFFFFFFFFFFFFFFFFFFFFFFFFF AND PUSH2 0xF0D JUMP JUMPDEST SWAP1 POP PUSH0 PUSH1 0x4 PUSH0 SWAP1 SLOAD SWAP1 PUSH2 0x100 EXP SWAP1 DIV PUSH20 0xFFFFFFFFFFFFFFFFFFFFFFFFFFFFFFFFFFFFFFFF AND PUSH20 0xFFFFFFFFFFFFFFFFFFFFFFFFFFFFFFFFFFFFFFFF AND PUSH4 0x20487DED PUSH1 0x3 PUSH1 0x14 SWAP1 SLOAD SWAP1 PUSH2 0x100 EXP SWAP1 DIV PUSH8 0xFFFFFFFFFFFFFFFF AND DUP5 PUSH1 0x40 MLOAD DUP4 PUSH4 0xFFFFFFFF AND PUSH1 0xE0 SHL DUP2 MSTORE PUSH1 0x4 ADD PUSH2 0x991 SWAP3 SWAP2 SWAP1 PUSH2 0x19F5 JUMP JUMPDEST PUSH1 0x20 PUSH1 0x40 MLOAD DUP1 DUP4 SUB DUP2 DUP7 GAS STATICCALL ISZERO DUP1 ISZERO PUSH2 0x9AC JUMPI RETURNDATASIZE PUSH0 DUP1 RETURNDATACOPY RETURNDATASIZE PUSH0 REVERT JUMPDEST POP POP POP POP PUSH1 0x40 MLOAD RETURNDATASIZE PUSH1 0x1F NOT PUSH1 0x1F DUP3 ADD AND DUP3 ADD DUP1 PUSH1 0x40 MSTORE POP DUP2 ADD SWAP1 PUSH2 0x9D0 SWAP2 SWAP1 PUSH2 0x16A6 JUMP JUMPDEST SWAP1 POP PUSH1 0x5 PUSH0 SWAP1 SLOAD SWAP1 PUSH2 0x100 EXP SWAP1 DIV PUSH20 0xFFFFFFFFFFFFFFFFFFFFFFFFFFFFFFFFFFFFFFFF AND PUSH20 0xFFFFFFFFFFFFFFFFFFFFFFFFFFFFFFFFFFFFFFFF AND PUSH4 0x70A08231 ADDRESS PUSH1 0x40 MLOAD DUP3 PUSH4 0xFFFFFFFF AND PUSH1 0xE0 SHL DUP2 MSTORE PUSH1 0x4 ADD PUSH2 0xA2C SWAP2 SWAP1 PUSH2 0x1679 JUMP JUMPDEST PUSH1 0x20 PUSH1 0x40 MLOAD DUP1 DUP4 SUB DUP2 DUP7 GAS STATICCALL ISZERO DUP1 ISZERO PUSH2 0xA47 JUMPI RETURNDATASIZE PUSH0 DUP1 RETURNDATACOPY RETURNDATASIZE PUSH0 REVERT JUMPDEST POP POP POP POP PUSH1 0x40 MLOAD RETURNDATASIZE PUSH1 0x1F NOT PUSH1 0x1F DUP3 ADD AND DUP3 ADD DUP1 PUSH1 0x40 MSTORE POP DUP2 ADD SWAP1 PUSH2 0xA6B SWAP2 SWAP1 PUSH2 0x16A6 JUMP JUMPDEST DUP2 GT ISZERO PUSH2 0xB49 JUMPI PUSH1 0x5 PUSH0 SWAP1 SLOAD SWAP1 PUSH2 0x100 EXP SWAP1 DIV PUSH20 0xFFFFFFFFFFFFFFFFFFFFFFFFFFFFFFFFFFFFFFFF AND PUSH20 0xFFFFFFFFFFFFFFFFFFFFFFFFFFFFFFFFFFFFFFFF AND PUSH4 0x70A08231 ADDRESS PUSH1 0x40 MLOAD DUP3 PUSH4 0xFFFFFFFF AND PUSH1 0xE0 SHL DUP2 MSTORE PUSH1 0x4 ADD PUSH2 0xACC SWAP2 SWAP1 PUSH2 0x1679 JUMP JUMPDEST PUSH1 0x20 PUSH1 0x40 MLOAD DUP1 DUP4 SUB DUP2 DUP7 GAS STATICCALL ISZERO DUP1 ISZERO PUSH2 0xAE7 JUMPI RETURNDATASIZE PUSH0 DUP1 RETURNDATACOPY RETURNDATASIZE PUSH0 REVERT JUMPDEST POP POP POP POP PUSH1 0x40 MLOAD RETURNDATASIZE PUSH1 0x1F NOT PUSH1 0x1F DUP3 ADD AND DUP3 ADD DUP1 PUSH1 0x40 MSTORE POP DUP2 ADD SWAP1 PUSH2 0xB0B SWAP2 SWAP1 PUSH2 0x16A6 JUMP JUMPDEST DUP2 PUSH1 0x40 MLOAD PUSH32 0x8F0F420600000000000000000000000000000000000000000000000000000000 DUP2 MSTORE PUSH1 0x4 ADD PUSH2 0xB40 SWAP3 SWAP2 SWAP1 PUSH2 0x1A23 JUMP JUMPDEST PUSH1 0x40 MLOAD DUP1 SWAP2 SUB SWAP1 REVERT JUMPDEST PUSH1 0x5 PUSH0 SWAP1 SLOAD SWAP1 PUSH2 0x100 EXP SWAP1 DIV PUSH20 0xFFFFFFFFFFFFFFFFFFFFFFFFFFFFFFFFFFFFFFFF AND PUSH20 0xFFFFFFFFFFFFFFFFFFFFFFFFFFFFFFFFFFFFFFFF AND PUSH4 0x95EA7B3 PUSH1 0x4 PUSH0 SWAP1 SLOAD SWAP1 PUSH2 0x100 EXP SWAP1 DIV PUSH20 0xFFFFFFFFFFFFFFFFFFFFFFFFFFFFFFFFFFFFFFFF AND DUP4 PUSH1 0x40 MLOAD DUP4 PUSH4 0xFFFFFFFF AND PUSH1 0xE0 SHL DUP2 MSTORE PUSH1 0x4 ADD PUSH2 0xBC6 SWAP3 SWAP2 SWAP1 PUSH2 0x1A4A JUMP JUMPDEST PUSH1 0x20 PUSH1 0x40 MLOAD DUP1 DUP4 SUB DUP2 PUSH0 DUP8 GAS CALL ISZERO DUP1 ISZERO PUSH2 0xBE2 JUMPI RETURNDATASIZE PUSH0 DUP1 RETURNDATACOPY RETURNDATASIZE PUSH0 REVERT JUMPDEST POP POP POP POP PUSH1 0x40 MLOAD RETURNDATASIZE PUSH1 0x1F NOT PUSH1 0x1F DUP3 ADD AND DUP3 ADD DUP1 PUSH1 0x40 MSTORE POP DUP2 ADD SWAP1 PUSH2 0xC06 SWAP2 SWAP1 PUSH2 0x1AA6 JUMP JUMPDEST POP DUP6 PUSH20 0xFFFFFFFFFFFFFFFFFFFFFFFFFFFFFFFFFFFFFFFF AND PUSH4 0x95EA7B3 PUSH1 0x4 PUSH0 SWAP1 SLOAD SWAP1 PUSH2 0x100 EXP SWAP1 DIV PUSH20 0xFFFFFFFFFFFFFFFFFFFFFFFFFFFFFFFFFFFFFFFF AND DUP8 PUSH1 0x40 MLOAD DUP4 PUSH4 0xFFFFFFFF AND PUSH1 0xE0 SHL DUP2 MSTORE PUSH1 0x4 ADD PUSH2 0xC63 SWAP3 SWAP2 SWAP1 PUSH2 0x1A4A JUMP JUMPDEST PUSH1 0x20 PUSH1 0x40 MLOAD DUP1 DUP4 SUB DUP2 PUSH0 DUP8 GAS CALL ISZERO DUP1 ISZERO PUSH2 0xC7F JUMPI RETURNDATASIZE PUSH0 DUP1 RETURNDATACOPY RETURNDATASIZE PUSH0 REVERT JUMPDEST POP POP POP POP PUSH1 0x40 MLOAD RETURNDATASIZE PUSH1 0x1F NOT PUSH1 0x1F DUP3 ADD AND DUP3 ADD DUP1 PUSH1 0x40 MSTORE POP DUP2 ADD SWAP1 PUSH2 0xCA3 SWAP2 SWAP1 PUSH2 0x1AA6 JUMP JUMPDEST POP PUSH1 0x4 PUSH0 SWAP1 SLOAD SWAP1 PUSH2 0x100 EXP SWAP1 DIV PUSH20 0xFFFFFFFFFFFFFFFFFFFFFFFFFFFFFFFFFFFFFFFF AND PUSH20 0xFFFFFFFFFFFFFFFFFFFFFFFFFFFFFFFFFFFFFFFF AND PUSH4 0x96F4E9F9 PUSH1 0x3 PUSH1 0x14 SWAP1 SLOAD SWAP1 PUSH2 0x100 EXP SWAP1 DIV PUSH8 0xFFFFFFFFFFFFFFFF AND DUP5 PUSH1 0x40 MLOAD DUP4 PUSH4 0xFFFFFFFF AND PUSH1 0xE0 SHL DUP2 MSTORE PUSH1 0x4 ADD PUSH2 0xD16 SWAP3 SWAP2 SWAP1 PUSH2 0x19F5 JUMP JUMPDEST PUSH1 0x20 PUSH1 0x40 MLOAD DUP1 DUP4 SUB DUP2 PUSH0 DUP8 GAS CALL ISZERO DUP1 ISZERO PUSH2 0xD32 JUMPI RETURNDATASIZE PUSH0 DUP1 RETURNDATACOPY RETURNDATASIZE PUSH0 REVERT JUMPDEST POP POP POP POP PUSH1 0x40 MLOAD RETURNDATASIZE PUSH1 0x1F NOT PUSH1 0x1F DUP3 ADD AND DUP3 ADD DUP1 PUSH1 0x40 MSTORE POP DUP2 ADD SWAP1 PUSH2 0xD56 SWAP2 SWAP1 PUSH2 0x1AFB JUMP JUMPDEST SWAP4 POP PUSH1 0x3 PUSH1 0x14 SWAP1 SLOAD SWAP1 PUSH2 0x100 EXP SWAP1 DIV PUSH8 0xFFFFFFFFFFFFFFFF AND PUSH8 0xFFFFFFFFFFFFFFFF AND DUP5 PUSH32 0xC15FB748C32BA4EB29C1C311E78533F93B4425EAB49EA87C6FE4279ECADCA043 DUP10 DUP10 DUP10 PUSH1 0x5 PUSH0 SWAP1 SLOAD SWAP1 PUSH2 0x100 EXP SWAP1 DIV PUSH20 0xFFFFFFFFFFFFFFFFFFFFFFFFFFFFFFFFFFFFFFFF AND DUP8 PUSH1 0x40 MLOAD PUSH2 0xDD2 SWAP6 SWAP5 SWAP4 SWAP3 SWAP2 SWAP1 PUSH2 0x1B26 JUMP JUMPDEST PUSH1 0x40 MLOAD DUP1 SWAP2 SUB SWAP1 LOG3 POP POP POP SWAP4 SWAP3 POP POP POP JUMP JUMPDEST PUSH2 0xDEC PUSH2 0xDF8 JUMP JUMPDEST PUSH2 0xDF5 DUP2 PUSH2 0x104A JUMP JUMPDEST POP JUMP JUMPDEST PUSH0 DUP1 SLOAD SWAP1 PUSH2 0x100 EXP SWAP1 DIV PUSH20 0xFFFFFFFFFFFFFFFFFFFFFFFFFFFFFFFFFFFFFFFF AND PUSH20 0xFFFFFFFFFFFFFFFFFFFFFFFFFFFFFFFFFFFFFFFF AND CALLER PUSH20 0xFFFFFFFFFFFFFFFFFFFFFFFFFFFFFFFFFFFFFFFF AND EQ PUSH2 0xE85 JUMPI PUSH1 0x40 MLOAD PUSH32 0x8C379A000000000000000000000000000000000000000000000000000000000 DUP2 MSTORE PUSH1 0x4 ADD PUSH2 0xE7C SWAP1 PUSH2 0x1BC1 JUMP JUMPDEST PUSH1 0x40 MLOAD DUP1 SWAP2 SUB SWAP1 REVERT JUMPDEST JUMP JUMPDEST PUSH2 0xF08 DUP4 PUSH4 0xA9059CBB PUSH1 0xE0 SHL DUP5 DUP5 PUSH1 0x40 MLOAD PUSH1 0x24 ADD PUSH2 0xEA6 SWAP3 SWAP2 SWAP1 PUSH2 0x1A4A JUMP JUMPDEST PUSH1 0x40 MLOAD PUSH1 0x20 DUP2 DUP4 SUB SUB DUP2 MSTORE SWAP1 PUSH1 0x40 MSTORE SWAP1 PUSH28 0xFFFFFFFFFFFFFFFFFFFFFFFFFFFFFFFFFFFFFFFFFFFFFFFFFFFFFFFF NOT AND PUSH1 0x20 DUP3 ADD DUP1 MLOAD PUSH28 0xFFFFFFFFFFFFFFFFFFFFFFFFFFFFFFFFFFFFFFFFFFFFFFFFFFFFFFFF DUP4 DUP2 DUP4 AND OR DUP4 MSTORE POP POP POP POP PUSH2 0x1174 JUMP JUMPDEST POP POP POP JUMP JUMPDEST PUSH2 0xF15 PUSH2 0x147D JUMP JUMPDEST PUSH0 PUSH1 0x1 PUSH8 0xFFFFFFFFFFFFFFFF DUP2 GT ISZERO PUSH2 0xF31 JUMPI PUSH2 0xF30 PUSH2 0x1BDF JUMP JUMPDEST JUMPDEST PUSH1 0x40 MLOAD SWAP1 DUP1 DUP3 MSTORE DUP1 PUSH1 0x20 MUL PUSH1 0x20 ADD DUP3 ADD PUSH1 0x40 MSTORE DUP1 ISZERO PUSH2 0xF6A JUMPI DUP2 PUSH1 0x20 ADD JUMPDEST PUSH2 0xF57 PUSH2 0x14C1 JUMP JUMPDEST DUP2 MSTORE PUSH1 0x20 ADD SWAP1 PUSH1 0x1 SWAP1 SUB SWAP1 DUP2 PUSH2 0xF4F JUMPI SWAP1 POP JUMPDEST POP SWAP1 POP PUSH1 0x40 MLOAD DUP1 PUSH1 0x40 ADD PUSH1 0x40 MSTORE DUP1 DUP7 PUSH20 0xFFFFFFFFFFFFFFFFFFFFFFFFFFFFFFFFFFFFFFFF AND DUP2 MSTORE PUSH1 0x20 ADD DUP6 DUP2 MSTORE POP DUP2 PUSH0 DUP2 MLOAD DUP2 LT PUSH2 0xFAB JUMPI PUSH2 0xFAA PUSH2 0x1C0C JUMP JUMPDEST JUMPDEST PUSH1 0x20 MUL PUSH1 0x20 ADD ADD DUP2 SWAP1 MSTORE POP PUSH1 0x40 MLOAD DUP1 PUSH1 0xA0 ADD PUSH1 0x40 MSTORE DUP1 DUP8 PUSH1 0x40 MLOAD PUSH1 0x20 ADD PUSH2 0xFD2 SWAP2 SWAP1 PUSH2 0x1679 JUMP JUMPDEST PUSH1 0x40 MLOAD PUSH1 0x20 DUP2 DUP4 SUB SUB DUP2 MSTORE SWAP1 PUSH1 0x40 MSTORE DUP2 MSTORE PUSH1 0x20 ADD PUSH1 0x40 MLOAD DUP1 PUSH1 0x20 ADD PUSH1 0x40 MSTORE DUP1 PUSH0 DUP2 MSTORE POP DUP2 MSTORE PUSH1 0x20 ADD DUP3 DUP2 MSTORE PUSH1 0x20 ADD DUP5 PUSH20 0xFFFFFFFFFFFFFFFFFFFFFFFFFFFFFFFFFFFFFFFF AND DUP2 MSTORE PUSH1 0x20 ADD PUSH2 0x103C PUSH1 0x40 MLOAD DUP1 PUSH1 0x40 ADD PUSH1 0x40 MSTORE DUP1 PUSH0 DUP2 MSTORE PUSH1 0x20 ADD PUSH1 0x1 ISZERO ISZERO DUP2 MSTORE POP PUSH2 0x1239 JUMP JUMPDEST DUP2 MSTORE POP SWAP2 POP POP SWAP5 SWAP4 POP POP POP POP JUMP JUMPDEST CALLER PUSH20 0xFFFFFFFFFFFFFFFFFFFFFFFFFFFFFFFFFFFFFFFF AND DUP2 PUSH20 0xFFFFFFFFFFFFFFFFFFFFFFFFFFFFFFFFFFFFFFFF AND SUB PUSH2 0x10B8 JUMPI PUSH1 0x40 MLOAD PUSH32 0x8C379A000000000000000000000000000000000000000000000000000000000 DUP2 MSTORE PUSH1 0x4 ADD PUSH2 0x10AF SWAP1 PUSH2 0x1C83 JUMP JUMPDEST PUSH1 0x40 MLOAD DUP1 SWAP2 SUB SWAP1 REVERT JUMPDEST DUP1 PUSH1 0x1 PUSH0 PUSH2 0x100 EXP DUP2 SLOAD DUP2 PUSH20 0xFFFFFFFFFFFFFFFFFFFFFFFFFFFFFFFFFFFFFFFF MUL NOT AND SWAP1 DUP4 PUSH20 0xFFFFFFFFFFFFFFFFFFFFFFFFFFFFFFFFFFFFFFFF AND MUL OR SWAP1 SSTORE POP DUP1 PUSH20 0xFFFFFFFFFFFFFFFFFFFFFFFFFFFFFFFFFFFFFFFF AND PUSH0 DUP1 SLOAD SWAP1 PUSH2 0x100 EXP SWAP1 DIV PUSH20 0xFFFFFFFFFFFFFFFFFFFFFFFFFFFFFFFFFFFFFFFF AND PUSH20 0xFFFFFFFFFFFFFFFFFFFFFFFFFFFFFFFFFFFFFFFF AND PUSH32 0xED8889F560326EB138920D842192F0EB3DD22B4F139C87A2C57538E05BAE1278 PUSH1 0x40 MLOAD PUSH1 0x40 MLOAD DUP1 SWAP2 SUB SWAP1 LOG3 POP JUMP JUMPDEST PUSH0 PUSH2 0x11D5 DUP3 PUSH1 0x40 MLOAD DUP1 PUSH1 0x40 ADD PUSH1 0x40 MSTORE DUP1 PUSH1 0x20 DUP2 MSTORE PUSH1 0x20 ADD PUSH32 0x5361666545524332303A206C6F772D6C6576656C2063616C6C206661696C6564 DUP2 MSTORE POP DUP6 PUSH20 0xFFFFFFFFFFFFFFFFFFFFFFFFFFFFFFFFFFFFFFFF AND PUSH2 0x12B8 SWAP1 SWAP3 SWAP2 SWAP1 PUSH4 0xFFFFFFFF AND JUMP JUMPDEST SWAP1 POP PUSH0 DUP2 MLOAD GT ISZERO PUSH2 0x1234 JUMPI DUP1 DUP1 PUSH1 0x20 ADD SWAP1 MLOAD DUP2 ADD SWAP1 PUSH2 0x11F4 SWAP2 SWAP1 PUSH2 0x1AA6 JUMP JUMPDEST PUSH2 0x1233 JUMPI PUSH1 0x40 MLOAD PUSH32 0x8C379A000000000000000000000000000000000000000000000000000000000 DUP2 MSTORE PUSH1 0x4 ADD PUSH2 0x122A SWAP1 PUSH2 0x1D11 JUMP JUMPDEST PUSH1 0x40 MLOAD DUP1 SWAP2 SUB SWAP1 REVERT JUMPDEST JUMPDEST POP POP POP JUMP JUMPDEST PUSH1 0x60 PUSH4 0x181DCF10 PUSH1 0xE0 SHL DUP3 PUSH1 0x40 MLOAD PUSH1 0x24 ADD PUSH2 0x1254 SWAP2 SWAP1 PUSH2 0x1D6B JUMP JUMPDEST PUSH1 0x40 MLOAD PUSH1 0x20 DUP2 DUP4 SUB SUB DUP2 MSTORE SWAP1 PUSH1 0x40 MSTORE SWAP1 PUSH28 0xFFFFFFFFFFFFFFFFFFFFFFFFFFFFFFFFFFFFFFFFFFFFFFFFFFFFFFFF NOT AND PUSH1 0x20 DUP3 ADD DUP1 MLOAD PUSH28 0xFFFFFFFFFFFFFFFFFFFFFFFFFFFFFFFFFFFFFFFFFFFFFFFFFFFFFFFF DUP4 DUP2 DUP4 AND OR DUP4 MSTORE POP POP POP POP SWAP1 POP SWAP2 SWAP1 POP JUMP JUMPDEST PUSH1 0x60 PUSH2 0x12C6 DUP5 DUP5 PUSH0 DUP6 PUSH2 0x12CF JUMP JUMPDEST SWAP1 POP SWAP4 SWAP3 POP POP POP JUMP JUMPDEST PUSH1 0x60 DUP3 SELFBALANCE LT ISZERO PUSH2 0x1314 JUMPI PUSH1 0x40 MLOAD PUSH32 0x8C379A000000000000000000000000000000000000000000000000000000000 DUP2 MSTORE PUSH1 0x4 ADD PUSH2 0x130B SWAP1 PUSH2 0x1DF4 JUMP JUMPDEST PUSH1 0x40 MLOAD DUP1 SWAP2 SUB SWAP1 REVERT JUMPDEST PUSH0 DUP1 DUP7 PUSH20 0xFFFFFFFFFFFFFFFFFFFFFFFFFFFFFFFFFFFFFFFF AND DUP6 DUP8 PUSH1 0x40 MLOAD PUSH2 0x133C SWAP2 SWAP1 PUSH2 0x1E42 JUMP JUMPDEST PUSH0 PUSH1 0x40 MLOAD DUP1 DUP4 SUB DUP2 DUP6 DUP8 GAS CALL SWAP3 POP POP POP RETURNDATASIZE DUP1 PUSH0 DUP2 EQ PUSH2 0x1376 JUMPI PUSH1 0x40 MLOAD SWAP2 POP PUSH1 0x1F NOT PUSH1 0x3F RETURNDATASIZE ADD AND DUP3 ADD PUSH1 0x40 MSTORE RETURNDATASIZE DUP3 MSTORE RETURNDATASIZE PUSH0 PUSH1 0x20 DUP5 ADD RETURNDATACOPY PUSH2 0x137B JUMP JUMPDEST PUSH1 0x60 SWAP2 POP JUMPDEST POP SWAP2 POP SWAP2 POP PUSH2 0x138C DUP8 DUP4 DUP4 DUP8 PUSH2 0x1398 JUMP JUMPDEST SWAP3 POP POP POP SWAP5 SWAP4 POP POP POP POP JUMP JUMPDEST PUSH1 0x60 DUP4 ISZERO PUSH2 0x13F9 JUMPI PUSH0 DUP4 MLOAD SUB PUSH2 0x13F1 JUMPI PUSH2 0x13B1 DUP6 PUSH2 0x140C JUMP JUMPDEST PUSH2 0x13F0 JUMPI PUSH1 0x40 MLOAD PUSH32 0x8C379A000000000000000000000000000000000000000000000000000000000 DUP2 MSTORE PUSH1 0x4 ADD PUSH2 0x13E7 SWAP1 PUSH2 0x1EA2 JUMP JUMPDEST PUSH1 0x40 MLOAD DUP1 SWAP2 SUB SWAP1 REVERT JUMPDEST JUMPDEST DUP3 SWAP1 POP PUSH2 0x1404 JUMP JUMPDEST PUSH2 0x1403 DUP4 DUP4 PUSH2 0x142E JUMP JUMPDEST JUMPDEST SWAP5 SWAP4 POP POP POP POP JUMP JUMPDEST PUSH0 DUP1 DUP3 PUSH20 0xFFFFFFFFFFFFFFFFFFFFFFFFFFFFFFFFFFFFFFFF AND EXTCODESIZE GT SWAP1 POP SWAP2 SWAP1 POP JUMP JUMPDEST PUSH0 DUP3 MLOAD GT ISZERO PUSH2 0x1440 JUMPI DUP2 MLOAD DUP1 DUP4 PUSH1 0x20 ADD REVERT JUMPDEST DUP1 PUSH1 0x40 MLOAD PUSH32 0x8C379A000000000000000000000000000000000000000000000000000000000 DUP2 MSTORE PUSH1 0x4 ADD PUSH2 0x1474 SWAP2 SWAP1 PUSH2 0x1F02 JUMP JUMPDEST PUSH1 0x40 MLOAD DUP1 SWAP2 SUB SWAP1 REVERT JUMPDEST PUSH1 0x40 MLOAD DUP1 PUSH1 0xA0 ADD PUSH1 0x40 MSTORE DUP1 PUSH1 0x60 DUP2 MSTORE PUSH1 0x20 ADD PUSH1 0x60 DUP2 MSTORE PUSH1 0x20 ADD PUSH1 0x60 DUP2 MSTORE PUSH1 0x20 ADD PUSH0 PUSH20 0xFFFFFFFFFFFFFFFFFFFFFFFFFFFFFFFFFFFFFFFF AND DUP2 MSTORE PUSH1 0x20 ADD PUSH1 0x60 DUP2 MSTORE POP SWAP1 JUMP JUMPDEST PUSH1 0x40 MLOAD DUP1 PUSH1 0x40 ADD PUSH1 0x40 MSTORE DUP1 PUSH0 PUSH20 0xFFFFFFFFFFFFFFFFFFFFFFFFFFFFFFFFFFFFFFFF AND DUP2 MSTORE PUSH1 0x20 ADD PUSH0 DUP2 MSTORE POP SWAP1 JUMP JUMPDEST PUSH0 DUP1 REVERT JUMPDEST PUSH0 PUSH20 0xFFFFFFFFFFFFFFFFFFFFFFFFFFFFFFFFFFFFFFFF DUP3 AND SWAP1 POP SWAP2 SWAP1 POP JUMP JUMPDEST PUSH0 PUSH2 0x151C DUP3 PUSH2 0x14F3 JUMP JUMPDEST SWAP1 POP SWAP2 SWAP1 POP JUMP JUMPDEST PUSH2 0x152C DUP2 PUSH2 0x1512 JUMP JUMPDEST DUP2 EQ PUSH2 0x1536 JUMPI PUSH0 DUP1 REVERT JUMPDEST POP JUMP JUMPDEST PUSH0 DUP2 CALLDATALOAD SWAP1 POP PUSH2 0x1547 DUP2 PUSH2 0x1523 JUMP JUMPDEST SWAP3 SWAP2 POP POP JUMP JUMPDEST PUSH0 DUP1 PUSH1 0x40 DUP4 DUP6 SUB SLT ISZERO PUSH2 0x1563 JUMPI PUSH2 0x1562 PUSH2 0x14EF JUMP JUMPDEST JUMPDEST PUSH0 PUSH2 0x1570 DUP6 DUP3 DUP7 ADD PUSH2 0x1539 JUMP JUMPDEST SWAP3 POP POP PUSH1 0x20 PUSH2 0x1581 DUP6 DUP3 DUP7 ADD PUSH2 0x1539 JUMP JUMPDEST SWAP2 POP POP SWAP3 POP SWAP3 SWAP1 POP JUMP JUMPDEST PUSH0 PUSH1 0x20 DUP3 DUP5 SUB SLT ISZERO PUSH2 0x15A0 JUMPI PUSH2 0x159F PUSH2 0x14EF JUMP JUMPDEST JUMPDEST PUSH0 PUSH2 0x15AD DUP5 DUP3 DUP6 ADD PUSH2 0x1539 JUMP JUMPDEST SWAP2 POP POP SWAP3 SWAP2 POP POP JUMP JUMPDEST PUSH0 DUP2 SWAP1 POP SWAP2 SWAP1 POP JUMP JUMPDEST PUSH2 0x15C8 DUP2 PUSH2 0x15B6 JUMP JUMPDEST DUP2 EQ PUSH2 0x15D2 JUMPI PUSH0 DUP1 REVERT JUMPDEST POP JUMP JUMPDEST PUSH0 DUP2 CALLDATALOAD SWAP1 POP PUSH2 0x15E3 DUP2 PUSH2 0x15BF JUMP JUMPDEST SWAP3 SWAP2 POP POP JUMP JUMPDEST PUSH0 DUP1 PUSH0 PUSH1 0x60 DUP5 DUP7 SUB SLT ISZERO PUSH2 0x1600 JUMPI PUSH2 0x15FF PUSH2 0x14EF JUMP JUMPDEST JUMPDEST PUSH0 PUSH2 0x160D DUP7 DUP3 DUP8 ADD PUSH2 0x1539 JUMP JUMPDEST SWAP4 POP POP PUSH1 0x20 PUSH2 0x161E DUP7 DUP3 DUP8 ADD PUSH2 0x1539 JUMP JUMPDEST SWAP3 POP POP PUSH1 0x40 PUSH2 0x162F DUP7 DUP3 DUP8 ADD PUSH2 0x15D5 JUMP JUMPDEST SWAP2 POP POP SWAP3 POP SWAP3 POP SWAP3 JUMP JUMPDEST PUSH0 DUP2 SWAP1 POP SWAP2 SWAP1 POP JUMP JUMPDEST PUSH2 0x164B DUP2 PUSH2 0x1639 JUMP JUMPDEST DUP3 MSTORE POP POP JUMP JUMPDEST PUSH0 PUSH1 0x20 DUP3 ADD SWAP1 POP PUSH2 0x1664 PUSH0 DUP4 ADD DUP5 PUSH2 0x1642 JUMP JUMPDEST SWAP3 SWAP2 POP POP JUMP JUMPDEST PUSH2 0x1673 DUP2 PUSH2 0x1512 JUMP JUMPDEST DUP3 MSTORE POP POP JUMP JUMPDEST PUSH0 PUSH1 0x20 DUP3 ADD SWAP1 POP PUSH2 0x168C PUSH0 DUP4 ADD DUP5 PUSH2 0x166A JUMP JUMPDEST SWAP3 SWAP2 POP POP JUMP JUMPDEST PUSH0 DUP2 MLOAD SWAP1 POP PUSH2 0x16A0 DUP2 PUSH2 0x15BF JUMP JUMPDEST SWAP3 SWAP2 POP POP JUMP JUMPDEST PUSH0 PUSH1 0x20 DUP3 DUP5 SUB SLT ISZERO PUSH2 0x16BB JUMPI PUSH2 0x16BA PUSH2 0x14EF JUMP JUMPDEST JUMPDEST PUSH0 PUSH2 0x16C8 DUP5 DUP3 DUP6 ADD PUSH2 0x1692 JUMP JUMPDEST SWAP2 POP POP SWAP3 SWAP2 POP POP JUMP JUMPDEST PUSH0 DUP2 SWAP1 POP SWAP3 SWAP2 POP POP JUMP JUMPDEST POP JUMP JUMPDEST PUSH0 PUSH2 0x16E9 PUSH0 DUP4 PUSH2 0x16D1 JUMP JUMPDEST SWAP2 POP PUSH2 0x16F4 DUP3 PUSH2 0x16DB JUMP JUMPDEST PUSH0 DUP3 ADD SWAP1 POP SWAP2 SWAP1 POP JUMP JUMPDEST PUSH0 PUSH2 0x1708 DUP3 PUSH2 0x16DE JUMP JUMPDEST SWAP2 POP DUP2 SWAP1 POP SWAP2 SWAP1 POP JUMP JUMPDEST PUSH2 0x171B DUP2 PUSH2 0x15B6 JUMP JUMPDEST DUP3 MSTORE POP POP JUMP JUMPDEST PUSH0 PUSH1 0x60 DUP3 ADD SWAP1 POP PUSH2 0x1734 PUSH0 DUP4 ADD DUP7 PUSH2 0x166A JUMP JUMPDEST PUSH2 0x1741 PUSH1 0x20 DUP4 ADD DUP6 PUSH2 0x166A JUMP JUMPDEST PUSH2 0x174E PUSH1 0x40 DUP4 ADD DUP5 PUSH2 0x1712 JUMP JUMPDEST SWAP5 SWAP4 POP POP POP POP JUMP JUMPDEST PUSH0 DUP3 DUP3 MSTORE PUSH1 0x20 DUP3 ADD SWAP1 POP SWAP3 SWAP2 POP POP JUMP JUMPDEST PUSH32 0x4D7573742062652070726F706F736564206F776E657200000000000000000000 PUSH0 DUP3 ADD MSTORE POP JUMP JUMPDEST PUSH0 PUSH2 0x179A PUSH1 0x16 DUP4 PUSH2 0x1756 JUMP JUMPDEST SWAP2 POP PUSH2 0x17A5 DUP3 PUSH2 0x1766 JUMP JUMPDEST PUSH1 0x20 DUP3 ADD SWAP1 POP SWAP2 SWAP1 POP JUMP JUMPDEST PUSH0 PUSH1 0x20 DUP3 ADD SWAP1 POP DUP2 DUP2 SUB PUSH0 DUP4 ADD MSTORE PUSH2 0x17C7 DUP2 PUSH2 0x178E JUMP JUMPDEST SWAP1 POP SWAP2 SWAP1 POP JUMP JUMPDEST PUSH0 PUSH8 0xFFFFFFFFFFFFFFFF DUP3 AND SWAP1 POP SWAP2 SWAP1 POP JUMP JUMPDEST PUSH2 0x17EA DUP2 PUSH2 0x17CE JUMP JUMPDEST DUP3 MSTORE POP POP JUMP JUMPDEST PUSH0 DUP2 MLOAD SWAP1 POP SWAP2 SWAP1 POP JUMP JUMPDEST PUSH0 DUP3 DUP3 MSTORE PUSH1 0x20 DUP3 ADD SWAP1 POP SWAP3 SWAP2 POP POP JUMP JUMPDEST PUSH0 JUMPDEST DUP4 DUP2 LT ISZERO PUSH2 0x1827 JUMPI DUP1 DUP3 ADD MLOAD DUP2 DUP5 ADD MSTORE PUSH1 0x20 DUP2 ADD SWAP1 POP PUSH2 0x180C JUMP JUMPDEST PUSH0 DUP5 DUP5 ADD MSTORE POP POP POP POP JUMP JUMPDEST PUSH0 PUSH1 0x1F NOT PUSH1 0x1F DUP4 ADD AND SWAP1 POP SWAP2 SWAP1 POP JUMP JUMPDEST PUSH0 PUSH2 0x184C DUP3 PUSH2 0x17F0 JUMP JUMPDEST PUSH2 0x1856 DUP2 DUP6 PUSH2 0x17FA JUMP JUMPDEST SWAP4 POP PUSH2 0x1866 DUP2 DUP6 PUSH1 0x20 DUP7 ADD PUSH2 0x180A JUMP JUMPDEST PUSH2 0x186F DUP2 PUSH2 0x1832 JUMP JUMPDEST DUP5 ADD SWAP2 POP POP SWAP3 SWAP2 POP POP JUMP JUMPDEST PUSH0 DUP2 MLOAD SWAP1 POP SWAP2 SWAP1 POP JUMP JUMPDEST PUSH0 DUP3 DUP3 MSTORE PUSH1 0x20 DUP3 ADD SWAP1 POP SWAP3 SWAP2 POP POP JUMP JUMPDEST PUSH0 DUP2 SWAP1 POP PUSH1 0x20 DUP3 ADD SWAP1 POP SWAP2 SWAP1 POP JUMP JUMPDEST PUSH2 0x18AC DUP2 PUSH2 0x1512 JUMP JUMPDEST DUP3 MSTORE POP POP JUMP JUMPDEST PUSH2 0x18BB DUP2 PUSH2 0x15B6 JUMP JUMPDEST DUP3 MSTORE POP POP JUMP JUMPDEST PUSH1 0x40 DUP3 ADD PUSH0 DUP3 ADD MLOAD PUSH2 0x18D5 PUSH0 DUP6 ADD DUP3 PUSH2 0x18A3 JUMP JUMPDEST POP PUSH1 0x20 DUP3 ADD MLOAD PUSH2 0x18E8 PUSH1 0x20 DUP6 ADD DUP3 PUSH2 0x18B2 JUMP JUMPDEST POP POP POP POP JUMP JUMPDEST PUSH0 PUSH2 0x18F9 DUP4 DUP4 PUSH2 0x18C1 JUMP JUMPDEST PUSH1 0x40 DUP4 ADD SWAP1 POP SWAP3 SWAP2 POP POP JUMP JUMPDEST PUSH0 PUSH1 0x20 DUP3 ADD SWAP1 POP SWAP2 SWAP1 POP JUMP JUMPDEST PUSH0 PUSH2 0x191B DUP3 PUSH2 0x187A JUMP JUMPDEST PUSH2 0x1925 DUP2 DUP6 PUSH2 0x1884 JUMP JUMPDEST SWAP4 POP PUSH2 0x1930 DUP4 PUSH2 0x1894 JUMP JUMPDEST DUP1 PUSH0 JUMPDEST DUP4 DUP2 LT ISZERO PUSH2 0x1960 JUMPI DUP2 MLOAD PUSH2 0x1947 DUP9 DUP3 PUSH2 0x18EE JUMP JUMPDEST SWAP8 POP PUSH2 0x1952 DUP4 PUSH2 0x1905 JUMP JUMPDEST SWAP3 POP POP PUSH1 0x1 DUP2 ADD SWAP1 POP PUSH2 0x1933 JUMP JUMPDEST POP DUP6 SWAP4 POP POP POP POP SWAP3 SWAP2 POP POP JUMP JUMPDEST PUSH0 PUSH1 0xA0 DUP4 ADD PUSH0 DUP4 ADD MLOAD DUP5 DUP3 SUB PUSH0 DUP7 ADD MSTORE PUSH2 0x1987 DUP3 DUP3 PUSH2 0x1842 JUMP JUMPDEST SWAP2 POP POP PUSH1 0x20 DUP4 ADD MLOAD DUP5 DUP3 SUB PUSH1 0x20 DUP7 ADD MSTORE PUSH2 0x19A1 DUP3 DUP3 PUSH2 0x1842 JUMP JUMPDEST SWAP2 POP POP PUSH1 0x40 DUP4 ADD MLOAD DUP5 DUP3 SUB PUSH1 0x40 DUP7 ADD MSTORE PUSH2 0x19BB DUP3 DUP3 PUSH2 0x1911 JUMP JUMPDEST SWAP2 POP POP PUSH1 0x60 DUP4 ADD MLOAD PUSH2 0x19D0 PUSH1 0x60 DUP7 ADD DUP3 PUSH2 0x18A3 JUMP JUMPDEST POP PUSH1 0x80 DUP4 ADD MLOAD DUP5 DUP3 SUB PUSH1 0x80 DUP7 ADD MSTORE PUSH2 0x19E8 DUP3 DUP3 PUSH2 0x1842 JUMP JUMPDEST SWAP2 POP POP DUP1 SWAP2 POP POP SWAP3 SWAP2 POP POP JUMP JUMPDEST PUSH0 PUSH1 0x40 DUP3 ADD SWAP1 POP PUSH2 0x1A08 PUSH0 DUP4 ADD DUP6 PUSH2 0x17E1 JUMP JUMPDEST DUP2 DUP2 SUB PUSH1 0x20 DUP4 ADD MSTORE PUSH2 0x1A1A DUP2 DUP5 PUSH2 0x196D JUMP JUMPDEST SWAP1 POP SWAP4 SWAP3 POP POP POP JUMP JUMPDEST PUSH0 PUSH1 0x40 DUP3 ADD SWAP1 POP PUSH2 0x1A36 PUSH0 DUP4 ADD DUP6 PUSH2 0x1712 JUMP JUMPDEST PUSH2 0x1A43 PUSH1 0x20 DUP4 ADD DUP5 PUSH2 0x1712 JUMP JUMPDEST SWAP4 SWAP3 POP POP POP JUMP JUMPDEST PUSH0 PUSH1 0x40 DUP3 ADD SWAP1 POP PUSH2 0x1A5D PUSH0 DUP4 ADD DUP6 PUSH2 0x166A JUMP JUMPDEST PUSH2 0x1A6A PUSH1 0x20 DUP4 ADD DUP5 PUSH2 0x1712 JUMP JUMPDEST SWAP4 SWAP3 POP POP POP JUMP JUMPDEST PUSH0 DUP2 ISZERO ISZERO SWAP1 POP SWAP2 SWAP1 POP JUMP JUMPDEST PUSH2 0x1A85 DUP2 PUSH2 0x1A71 JUMP JUMPDEST DUP2 EQ PUSH2 0x1A8F JUMPI PUSH0 DUP1 REVERT JUMPDEST POP JUMP JUMPDEST PUSH0 DUP2 MLOAD SWAP1 POP PUSH2 0x1AA0 DUP2 PUSH2 0x1A7C JUMP JUMPDEST SWAP3 SWAP2 POP POP JUMP JUMPDEST PUSH0 PUSH1 0x20 DUP3 DUP5 SUB SLT ISZERO PUSH2 0x1ABB JUMPI PUSH2 0x1ABA PUSH2 0x14EF JUMP JUMPDEST JUMPDEST PUSH0 PUSH2 0x1AC8 DUP5 DUP3 DUP6 ADD PUSH2 0x1A92 JUMP JUMPDEST SWAP2 POP POP SWAP3 SWAP2 POP POP JUMP JUMPDEST PUSH2 0x1ADA DUP2 PUSH2 0x1639 JUMP JUMPDEST DUP2 EQ PUSH2 0x1AE4 JUMPI PUSH0 DUP1 REVERT JUMPDEST POP JUMP JUMPDEST PUSH0 DUP2 MLOAD SWAP1 POP PUSH2 0x1AF5 DUP2 PUSH2 0x1AD1 JUMP JUMPDEST SWAP3 SWAP2 POP POP JUMP JUMPDEST PUSH0 PUSH1 0x20 DUP3 DUP5 SUB SLT ISZERO PUSH2 0x1B10 JUMPI PUSH2 0x1B0F PUSH2 0x14EF JUMP JUMPDEST JUMPDEST PUSH0 PUSH2 0x1B1D DUP5 DUP3 DUP6 ADD PUSH2 0x1AE7 JUMP JUMPDEST SWAP2 POP POP SWAP3 SWAP2 POP POP JUMP JUMPDEST PUSH0 PUSH1 0xA0 DUP3 ADD SWAP1 POP PUSH2 0x1B39 PUSH0 DUP4 ADD DUP9 PUSH2 0x166A JUMP JUMPDEST PUSH2 0x1B46 PUSH1 0x20 DUP4 ADD DUP8 PUSH2 0x166A JUMP JUMPDEST PUSH2 0x1B53 PUSH1 0x40 DUP4 ADD DUP7 PUSH2 0x1712 JUMP JUMPDEST PUSH2 0x1B60 PUSH1 0x60 DUP4 ADD DUP6 PUSH2 0x166A JUMP JUMPDEST PUSH2 0x1B6D PUSH1 0x80 DUP4 ADD DUP5 PUSH2 0x1712 JUMP JUMPDEST SWAP7 SWAP6 POP POP POP POP POP POP JUMP JUMPDEST PUSH32 0x4F6E6C792063616C6C61626C65206279206F776E657200000000000000000000 PUSH0 DUP3 ADD MSTORE POP JUMP JUMPDEST PUSH0 PUSH2 0x1BAB PUSH1 0x16 DUP4 PUSH2 0x1756 JUMP JUMPDEST SWAP2 POP PUSH2 0x1BB6 DUP3 PUSH2 0x1B77 JUMP JUMPDEST PUSH1 0x20 DUP3 ADD SWAP1 POP SWAP2 SWAP1 POP JUMP JUMPDEST PUSH0 PUSH1 0x20 DUP3 ADD SWAP1 POP DUP2 DUP2 SUB PUSH0 DUP4 ADD MSTORE PUSH2 0x1BD8 DUP2 PUSH2 0x1B9F JUMP JUMPDEST SWAP1 POP SWAP2 SWAP1 POP JUMP JUMPDEST PUSH32 0x4E487B7100000000000000000000000000000000000000000000000000000000 PUSH0 MSTORE PUSH1 0x41 PUSH1 0x4 MSTORE PUSH1 0x24 PUSH0 REVERT JUMPDEST PUSH32 0x4E487B7100000000000000000000000000000000000000000000000000000000 PUSH0 MSTORE PUSH1 0x32 PUSH1 0x4 MSTORE PUSH1 0x24 PUSH0 REVERT JUMPDEST PUSH32 0x43616E6E6F74207472616E7366657220746F2073656C66000000000000000000 PUSH0 DUP3 ADD MSTORE POP JUMP JUMPDEST PUSH0 PUSH2 0x1C6D PUSH1 0x17 DUP4 PUSH2 0x1756 JUMP JUMPDEST SWAP2 POP PUSH2 0x1C78 DUP3 PUSH2 0x1C39 JUMP JUMPDEST PUSH1 0x20 DUP3 ADD SWAP1 POP SWAP2 SWAP1 POP JUMP JUMPDEST PUSH0 PUSH1 0x20 DUP3 ADD SWAP1 POP DUP2 DUP2 SUB PUSH0 DUP4 ADD MSTORE PUSH2 0x1C9A DUP2 PUSH2 0x1C61 JUMP JUMPDEST SWAP1 POP SWAP2 SWAP1 POP JUMP JUMPDEST PUSH32 0x5361666545524332303A204552433230206F7065726174696F6E20646964206E PUSH0 DUP3 ADD MSTORE PUSH32 0x6F74207375636365656400000000000000000000000000000000000000000000 PUSH1 0x20 DUP3 ADD MSTORE POP JUMP JUMPDEST PUSH0 PUSH2 0x1CFB PUSH1 0x2A DUP4 PUSH2 0x1756 JUMP JUMPDEST SWAP2 POP PUSH2 0x1D06 DUP3 PUSH2 0x1CA1 JUMP JUMPDEST PUSH1 0x40 DUP3 ADD SWAP1 POP SWAP2 SWAP1 POP JUMP JUMPDEST PUSH0 PUSH1 0x20 DUP3 ADD SWAP1 POP DUP2 DUP2 SUB PUSH0 DUP4 ADD MSTORE PUSH2 0x1D28 DUP2 PUSH2 0x1CEF JUMP JUMPDEST SWAP1 POP SWAP2 SWAP1 POP JUMP JUMPDEST PUSH2 0x1D38 DUP2 PUSH2 0x1A71 JUMP JUMPDEST DUP3 MSTORE POP POP JUMP JUMPDEST PUSH1 0x40 DUP3 ADD PUSH0 DUP3 ADD MLOAD PUSH2 0x1D52 PUSH0 DUP6 ADD DUP3 PUSH2 0x18B2 JUMP JUMPDEST POP PUSH1 0x20 DUP3 ADD MLOAD PUSH2 0x1D65 PUSH1 0x20 DUP6 ADD DUP3 PUSH2 0x1D2F JUMP JUMPDEST POP POP POP POP JUMP JUMPDEST PUSH0 PUSH1 0x40 DUP3 ADD SWAP1 POP PUSH2 0x1D7E PUSH0 DUP4 ADD DUP5 PUSH2 0x1D3E JUMP JUMPDEST SWAP3 SWAP2 POP POP JUMP JUMPDEST PUSH32 0x416464726573733A20696E73756666696369656E742062616C616E636520666F PUSH0 DUP3 ADD MSTORE PUSH32 0x722063616C6C0000000000000000000000000000000000000000000000000000 PUSH1 0x20 DUP3 ADD MSTORE POP JUMP JUMPDEST PUSH0 PUSH2 0x1DDE PUSH1 0x26 DUP4 PUSH2 0x1756 JUMP JUMPDEST SWAP2 POP PUSH2 0x1DE9 DUP3 PUSH2 0x1D84 JUMP JUMPDEST PUSH1 0x40 DUP3 ADD SWAP1 POP SWAP2 SWAP1 POP JUMP JUMPDEST PUSH0 PUSH1 0x20 DUP3 ADD SWAP1 POP DUP2 DUP2 SUB PUSH0 DUP4 ADD MSTORE PUSH2 0x1E0B DUP2 PUSH2 0x1DD2 JUMP JUMPDEST SWAP1 POP SWAP2 SWAP1 POP JUMP JUMPDEST PUSH0 PUSH2 0x1E1C DUP3 PUSH2 0x17F0 JUMP JUMPDEST PUSH2 0x1E26 DUP2 DUP6 PUSH2 0x16D1 JUMP JUMPDEST SWAP4 POP PUSH2 0x1E36 DUP2 DUP6 PUSH1 0x20 DUP7 ADD PUSH2 0x180A JUMP JUMPDEST DUP1 DUP5 ADD SWAP2 POP POP SWAP3 SWAP2 POP POP JUMP JUMPDEST PUSH0 PUSH2 0x1E4D DUP3 DUP5 PUSH2 0x1E12 JUMP JUMPDEST SWAP2 POP DUP2 SWAP1 POP SWAP3 SWAP2 POP POP JUMP JUMPDEST PUSH32 0x416464726573733A2063616C6C20746F206E6F6E2D636F6E7472616374000000 PUSH0 DUP3 ADD MSTORE POP JUMP JUMPDEST PUSH0 PUSH2 0x1E8C PUSH1 0x1D DUP4 PUSH2 0x1756 JUMP JUMPDEST SWAP2 POP PUSH2 0x1E97 DUP3 PUSH2 0x1E58 JUMP JUMPDEST PUSH1 0x20 DUP3 ADD SWAP1 POP SWAP2 SWAP1 POP JUMP JUMPDEST PUSH0 PUSH1 0x20 DUP3 ADD SWAP1 POP DUP2 DUP2 SUB PUSH0 DUP4 ADD MSTORE PUSH2 0x1EB9 DUP2 PUSH2 0x1E80 JUMP JUMPDEST SWAP1 POP SWAP2 SWAP1 POP JUMP JUMPDEST PUSH0 DUP2 MLOAD SWAP1 POP SWAP2 SWAP1 POP JUMP JUMPDEST PUSH0 PUSH2 0x1ED4 DUP3 PUSH2 0x1EC0 JUMP JUMPDEST PUSH2 0x1EDE DUP2 DUP6 PUSH2 0x1756 JUMP JUMPDEST SWAP4 POP PUSH2 0x1EEE DUP2 DUP6 PUSH1 0x20 DUP7 ADD PUSH2 0x180A JUMP JUMPDEST PUSH2 0x1EF7 DUP2 PUSH2 0x1832 JUMP JUMPDEST DUP5 ADD SWAP2 POP POP SWAP3 SWAP2 POP POP JUMP JUMPDEST PUSH0 PUSH1 0x20 DUP3 ADD SWAP1 POP DUP2 DUP2 SUB PUSH0 DUP4 ADD MSTORE PUSH2 0x1F1A DUP2 DUP5 PUSH2 0x1ECA JUMP JUMPDEST SWAP1 POP SWAP3 SWAP2 POP POP JUMP INVALID LOG2 PUSH5 0x6970667358 0x22 SLT KECCAK256 PUSH27 0xDA17D85963227B56E2CDF409D70CA0564F3E0CFBD33E4863872D77 DUP7 0x4B DUP3 PUSH10 0x64736F6C634300081800 CALLER "
				},
				"gasEstimates": {
					"creation": {
						"codeDepositCost": "1604800",
						"executionCost": "151689",
						"totalCost": "1756489"
					},
					"external": {
						"acceptOwnership()": "54578",
						"owner()": "2537",
						"transferOwnership(address)": "30711",
						"transferTokensPayLINK(address,address,uint256)": "infinite",
						"transferTokensPayNative(address,address,uint256)": "infinite",
						"withdraw(address)": "infinite",
						"withdrawToken(address,address)": "infinite"
					},
					"internal": {
						"_buildCCIPMessage(address,address,uint256,address)": "infinite"
					}
				},
				"methodIdentifiers": {
					"acceptOwnership()": "79ba5097",
					"owner()": "8da5cb5b",
					"transferOwnership(address)": "f2fde38b",
					"transferTokensPayLINK(address,address,uint256)": "bbb6eae5",
					"transferTokensPayNative(address,address,uint256)": "8afe0f51",
					"withdraw(address)": "51cff8d9",
					"withdrawToken(address,address)": "3aeac4e1"
				}
			},
			"storageLayout": {
				"storage": [
					{
						"astId": 221,
						"contract": "TreasuryManagerBASECCIPsender.sol:TreasuryManagerBASECCIPsender",
						"label": "s_owner",
						"offset": 0,
						"slot": "0",
						"type": "t_address"
					},
					{
						"astId": 223,
						"contract": "TreasuryManagerBASECCIPsender.sol:TreasuryManagerBASECCIPsender",
						"label": "s_pendingOwner",
						"offset": 0,
						"slot": "1",
						"type": "t_address"
					},
					{
						"astId": 1154,
						"contract": "TreasuryManagerBASECCIPsender.sol:TreasuryManagerBASECCIPsender",
						"label": "ccipRouterAddress",
						"offset": 0,
						"slot": "2",
						"type": "t_address"
					},
					{
						"astId": 1157,
						"contract": "TreasuryManagerBASECCIPsender.sol:TreasuryManagerBASECCIPsender",
						"label": "linkAddress",
						"offset": 0,
						"slot": "3",
						"type": "t_address"
					},
					{
						"astId": 1160,
						"contract": "TreasuryManagerBASECCIPsender.sol:TreasuryManagerBASECCIPsender",
						"label": "_destinationChainSelector",
						"offset": 20,
						"slot": "3",
						"type": "t_uint64"
					},
					{
						"astId": 1201,
						"contract": "TreasuryManagerBASECCIPsender.sol:TreasuryManagerBASECCIPsender",
						"label": "s_router",
						"offset": 0,
						"slot": "4",
						"type": "t_contract(IRouterClient)42"
					},
					{
						"astId": 1204,
						"contract": "TreasuryManagerBASECCIPsender.sol:TreasuryManagerBASECCIPsender",
						"label": "s_linkToken",
						"offset": 0,
						"slot": "5",
						"type": "t_contract(IERC20)485"
					}
				],
				"types": {
					"t_address": {
						"encoding": "inplace",
						"label": "address",
						"numberOfBytes": "20"
					},
					"t_contract(IERC20)485": {
						"encoding": "inplace",
						"label": "contract IERC20",
						"numberOfBytes": "20"
					},
					"t_contract(IRouterClient)42": {
						"encoding": "inplace",
						"label": "contract IRouterClient",
						"numberOfBytes": "20"
					},
					"t_uint64": {
						"encoding": "inplace",
						"label": "uint64",
						"numberOfBytes": "8"
					}
				}
			},
			"userdoc": {
				"kind": "user",
				"methods": {
					"acceptOwnership()": {
						"notice": "Allows an ownership transfer to be completed by the recipient."
					},
					"owner()": {
						"notice": "Get the current owner"
					},
					"transferOwnership(address)": {
						"notice": "Allows an owner to begin transferring ownership to a new address."
					},
					"transferTokensPayLINK(address,address,uint256)": {
						"notice": "Transfer tokens to receiver on the destination chain.pay in LINK.the token must be in the list of supported tokens.This function can only be called by the owner."
					},
					"transferTokensPayNative(address,address,uint256)": {
						"notice": "Transfer tokens to receiver on the destination chain.Pay in native gas such as ETH on Ethereum or POL on Polygon.the token must be in the list of supported tokens.This function can only be called by the owner."
					},
					"withdraw(address)": {
						"notice": "Allows the contract owner to withdraw the entire balance of Ether from the contract."
					},
					"withdrawToken(address,address)": {
						"notice": "Allows the owner of the contract to withdraw all tokens of a specific ERC20 token."
					}
				},
				"version": 1
			}
		}
	}
}