{
	"TreasuryManagerAVA.sol": {
		"TreasuryManagerAVACCIPsender": {
			"abi": [
				{
					"inputs": [],
					"stateMutability": "nonpayable",
					"type": "constructor"
				},
				{
					"inputs": [
						{
							"internalType": "uint64",
							"name": "destinationChainSelector",
							"type": "uint64"
						}
					],
					"name": "DestinationChainNotAllowlisted",
					"type": "error"
				},
				{
					"inputs": [
						{
							"internalType": "address",
							"name": "owner",
							"type": "address"
						},
						{
							"internalType": "address",
							"name": "target",
							"type": "address"
						},
						{
							"internalType": "uint256",
							"name": "value",
							"type": "uint256"
						}
					],
					"name": "FailedToWithdrawEth",
					"type": "error"
				},
				{
					"inputs": [],
					"name": "InvalidReceiverAddress",
					"type": "error"
				},
				{
					"inputs": [
						{
							"internalType": "uint256",
							"name": "currentBalance",
							"type": "uint256"
						},
						{
							"internalType": "uint256",
							"name": "calculatedFees",
							"type": "uint256"
						}
					],
					"name": "NotEnoughBalance",
					"type": "error"
				},
				{
					"inputs": [],
					"name": "NothingToWithdraw",
					"type": "error"
				},
				{
					"anonymous": false,
					"inputs": [
						{
							"indexed": true,
							"internalType": "address",
							"name": "from",
							"type": "address"
						},
						{
							"indexed": true,
							"internalType": "address",
							"name": "to",
							"type": "address"
						}
					],
					"name": "OwnershipTransferRequested",
					"type": "event"
				},
				{
					"anonymous": false,
					"inputs": [
						{
							"indexed": true,
							"internalType": "address",
							"name": "from",
							"type": "address"
						},
						{
							"indexed": true,
							"internalType": "address",
							"name": "to",
							"type": "address"
						}
					],
					"name": "OwnershipTransferred",
					"type": "event"
				},
				{
					"anonymous": false,
					"inputs": [
						{
							"indexed": true,
							"internalType": "bytes32",
							"name": "messageId",
							"type": "bytes32"
						},
						{
							"indexed": true,
							"internalType": "uint64",
							"name": "destinationChainSelector",
							"type": "uint64"
						},
						{
							"indexed": false,
							"internalType": "address",
							"name": "receiver",
							"type": "address"
						},
						{
							"indexed": false,
							"internalType": "address",
							"name": "token",
							"type": "address"
						},
						{
							"indexed": false,
							"internalType": "uint256",
							"name": "tokenAmount",
							"type": "uint256"
						},
						{
							"indexed": false,
							"internalType": "address",
							"name": "feeToken",
							"type": "address"
						},
						{
							"indexed": false,
							"internalType": "uint256",
							"name": "fees",
							"type": "uint256"
						}
					],
					"name": "TokensTransferred",
					"type": "event"
				},
				{
					"inputs": [],
					"name": "acceptOwnership",
					"outputs": [],
					"stateMutability": "nonpayable",
					"type": "function"
				},
				{
					"inputs": [],
					"name": "owner",
					"outputs": [
						{
							"internalType": "address",
							"name": "",
							"type": "address"
						}
					],
					"stateMutability": "view",
					"type": "function"
				},
				{
					"inputs": [
						{
							"internalType": "address",
							"name": "to",
							"type": "address"
						}
					],
					"name": "transferOwnership",
					"outputs": [],
					"stateMutability": "nonpayable",
					"type": "function"
				},
				{
					"inputs": [
						{
							"internalType": "address",
							"name": "_receiver",
							"type": "address"
						},
						{
							"internalType": "address",
							"name": "_token",
							"type": "address"
						},
						{
							"internalType": "uint256",
							"name": "_amount",
							"type": "uint256"
						}
					],
					"name": "transferTokensPayLINK",
					"outputs": [
						{
							"internalType": "bytes32",
							"name": "messageId",
							"type": "bytes32"
						}
					],
					"stateMutability": "nonpayable",
					"type": "function"
				},
				{
					"inputs": [
						{
							"internalType": "uint64",
							"name": "_destinationChainSelector",
							"type": "uint64"
						},
						{
							"internalType": "address",
							"name": "_receiver",
							"type": "address"
						},
						{
							"internalType": "address",
							"name": "_token",
							"type": "address"
						},
						{
							"internalType": "uint256",
							"name": "_amount",
							"type": "uint256"
						}
					],
					"name": "transferTokensPayNative",
					"outputs": [
						{
							"internalType": "bytes32",
							"name": "messageId",
							"type": "bytes32"
						}
					],
					"stateMutability": "nonpayable",
					"type": "function"
				},
				{
					"inputs": [
						{
							"internalType": "address",
							"name": "_beneficiary",
							"type": "address"
						}
					],
					"name": "withdraw",
					"outputs": [],
					"stateMutability": "nonpayable",
					"type": "function"
				},
				{
					"inputs": [
						{
							"internalType": "address",
							"name": "_beneficiary",
							"type": "address"
						},
						{
							"internalType": "address",
							"name": "_token",
							"type": "address"
						}
					],
					"name": "withdrawToken",
					"outputs": [],
					"stateMutability": "nonpayable",
					"type": "function"
				},
				{
					"stateMutability": "payable",
					"type": "receive"
				}
			],
			"devdoc": {
				"kind": "dev",
				"methods": {
					"constructor": {
						"details": "Constructor for the contract."
					},
					"transferTokensPayLINK(address,address,uint256)": {
						"details": "Assumes your contract has sufficient LINK tokens to pay for the fees.",
						"params": {
							"_amount": "token amount.",
							"_receiver": "The address of the recipient on the destination blockchain.",
							"_token": "token address."
						},
						"returns": {
							"messageId": "The ID of the message that was sent."
						}
					},
					"transferTokensPayNative(uint64,address,address,uint256)": {
						"details": "Assumes your contract has sufficient native gas like ETH on Ethereum or POL on Polygon.",
						"params": {
							"_amount": "token amount.",
							"_destinationChainSelector": "The identifier (aka selector) for the destination blockchain.",
							"_receiver": "The address of the recipient on the destination blockchain.",
							"_token": "token address."
						},
						"returns": {
							"messageId": "The ID of the message that was sent."
						}
					},
					"withdraw(address)": {
						"details": "This function reverts if there are no funds to withdraw or if the transfer fails. It should only be callable by the owner of the contract.",
						"params": {
							"_beneficiary": "The address to which the Ether should be transferred."
						}
					},
					"withdrawToken(address,address)": {
						"details": "This function reverts with a 'NothingToWithdraw' error if there are no tokens to withdraw.",
						"params": {
							"_beneficiary": "The address to which the tokens will be sent.",
							"_token": "The contract address of the ERC20 token to be withdrawn."
						}
					}
				},
				"title": "- A simple contract for transferring tokens across chains.",
				"version": 1
			},
			"evm": {
				"assembly": "    /* \"TreasuryManagerAVA.sol\":836:12241  contract TreasuryManagerAVACCIPsender is OwnerIsCreator {... */\n  mstore(0x40, 0x80)\n    /* \"TreasuryManagerAVA.sol\":1048:1090  0xF694E193200268f9a4868e4Aa017A0118C9a8177 */\n  0xf694e193200268f9a4868e4aa017a0118c9a8177\n    /* \"TreasuryManagerAVA.sol\":1020:1090  address ccipRouterAddress = 0xF694E193200268f9a4868e4Aa017A0118C9a8177 */\n  0x02\n  exp(0x0100, 0x00)\n  dup2\n  sload\n  dup2\n  0xffffffffffffffffffffffffffffffffffffffff\n  mul\n  not\n  and\n  swap1\n  dup4\n  0xffffffffffffffffffffffffffffffffffffffff\n  and\n  mul\n  or\n  swap1\n  sstore\n  pop\n    /* \"TreasuryManagerAVA.sol\":1194:1236  0x0b9d5D9136855f6FEc3c0993feE6E9CE8a297846 */\n  0x0b9d5d9136855f6fec3c0993fee6e9ce8a297846\n    /* \"TreasuryManagerAVA.sol\":1172:1236  address linkAddress = 0x0b9d5D9136855f6FEc3c0993feE6E9CE8a297846 */\n  0x03\n  exp(0x0100, 0x00)\n  dup2\n  sload\n  dup2\n  0xffffffffffffffffffffffffffffffffffffffff\n  mul\n  not\n  and\n  swap1\n  dup4\n  0xffffffffffffffffffffffffffffffffffffffff\n  and\n  mul\n  or\n  swap1\n  sstore\n  pop\n    /* \"TreasuryManagerAVA.sol\":1361:1381  10344971235874465080 */\n  0x8f90b8876dee6538\n    /* \"TreasuryManagerAVA.sol\":1326:1381  uint64 _destinationChainSelector = 10344971235874465080 */\n  0x03\n  exp(0x0100, 0x14)\n  dup2\n  sload\n  dup2\n  0xffffffffffffffff\n  mul\n  not\n  and\n  swap1\n  dup4\n  0xffffffffffffffff\n  and\n  mul\n  or\n  swap1\n  sstore\n  pop\n    /* \"TreasuryManagerAVA.sol\":2809:2926  constructor() {... */\n  callvalue\n  dup1\n  iszero\n  tag_1\n  jumpi\n  0x00\n  dup1\n  revert\ntag_1:\n  pop\n    /* \"@chainlink/contracts/src/v0.8/shared/access/OwnerIsCreator.sol\":291:301  msg.sender */\n  caller\n    /* \"@chainlink/contracts/src/v0.8/shared/access/ConfirmedOwner.sol\":355:363  newOwner */\n  dup1\n    /* \"@chainlink/contracts/src/v0.8/shared/access/ConfirmedOwner.sol\":373:374  0 */\n  0x00\n    /* \"@chainlink/contracts/src/v0.8/shared/access/ConfirmedOwnerWithProposal.sol\":618:619  0 */\n  dup1\n    /* \"@chainlink/contracts/src/v0.8/shared/access/ConfirmedOwnerWithProposal.sol\":598:620  newOwner != address(0) */\n  0xffffffffffffffffffffffffffffffffffffffff\n  and\n    /* \"@chainlink/contracts/src/v0.8/shared/access/ConfirmedOwnerWithProposal.sol\":598:606  newOwner */\n  dup3\n    /* \"@chainlink/contracts/src/v0.8/shared/access/ConfirmedOwnerWithProposal.sol\":598:620  newOwner != address(0) */\n  0xffffffffffffffffffffffffffffffffffffffff\n  and\n  sub\n    /* \"@chainlink/contracts/src/v0.8/shared/access/ConfirmedOwnerWithProposal.sol\":590:649  require(newOwner != address(0), \"Cannot set owner to zero\") */\n  tag_7\n  jumpi\n  mload(0x40)\n  0x08c379a000000000000000000000000000000000000000000000000000000000\n  dup2\n  mstore\n  0x04\n  add\n  tag_8\n  swap1\n  tag_9\n  jump\t// in\ntag_8:\n  mload(0x40)\n  dup1\n  swap2\n  sub\n  swap1\n  revert\ntag_7:\n    /* \"@chainlink/contracts/src/v0.8/shared/access/ConfirmedOwnerWithProposal.sol\":666:674  newOwner */\n  dup2\n    /* \"@chainlink/contracts/src/v0.8/shared/access/ConfirmedOwnerWithProposal.sol\":656:663  s_owner */\n  0x00\n  dup1\n    /* \"@chainlink/contracts/src/v0.8/shared/access/ConfirmedOwnerWithProposal.sol\":656:674  s_owner = newOwner */\n  0x0100\n  exp\n  dup2\n  sload\n  dup2\n  0xffffffffffffffffffffffffffffffffffffffff\n  mul\n  not\n  and\n  swap1\n  dup4\n  0xffffffffffffffffffffffffffffffffffffffff\n  and\n  mul\n  or\n  swap1\n  sstore\n  pop\n    /* \"@chainlink/contracts/src/v0.8/shared/access/ConfirmedOwnerWithProposal.sol\":708:709  0 */\n  0x00\n    /* \"@chainlink/contracts/src/v0.8/shared/access/ConfirmedOwnerWithProposal.sol\":684:710  pendingOwner != address(0) */\n  0xffffffffffffffffffffffffffffffffffffffff\n  and\n    /* \"@chainlink/contracts/src/v0.8/shared/access/ConfirmedOwnerWithProposal.sol\":684:696  pendingOwner */\n  dup2\n    /* \"@chainlink/contracts/src/v0.8/shared/access/ConfirmedOwnerWithProposal.sol\":684:710  pendingOwner != address(0) */\n  0xffffffffffffffffffffffffffffffffffffffff\n  and\n  eq\n    /* \"@chainlink/contracts/src/v0.8/shared/access/ConfirmedOwnerWithProposal.sol\":680:759  if (pendingOwner != address(0)) {... */\n  tag_10\n  jumpi\n    /* \"@chainlink/contracts/src/v0.8/shared/access/ConfirmedOwnerWithProposal.sol\":720:752  _transferOwnership(pendingOwner) */\n  tag_11\n    /* \"@chainlink/contracts/src/v0.8/shared/access/ConfirmedOwnerWithProposal.sol\":739:751  pendingOwner */\n  dup2\n    /* \"@chainlink/contracts/src/v0.8/shared/access/ConfirmedOwnerWithProposal.sol\":720:738  _transferOwnership */\n  shl(0x20, tag_12)\n    /* \"@chainlink/contracts/src/v0.8/shared/access/ConfirmedOwnerWithProposal.sol\":720:752  _transferOwnership(pendingOwner) */\n  0x20\n  shr\n  jump\t// in\ntag_11:\n    /* \"@chainlink/contracts/src/v0.8/shared/access/ConfirmedOwnerWithProposal.sol\":680:759  if (pendingOwner != address(0)) {... */\ntag_10:\n    /* \"@chainlink/contracts/src/v0.8/shared/access/ConfirmedOwnerWithProposal.sol\":481:763  constructor(address newOwner, address pendingOwner) {... */\n  pop\n  pop\n    /* \"@chainlink/contracts/src/v0.8/shared/access/ConfirmedOwner.sol\":298:379  constructor(address newOwner) ConfirmedOwnerWithProposal(newOwner, address(0)) {} */\n  pop\n    /* \"TreasuryManagerAVA.sol\":2858:2875  ccipRouterAddress */\n  0x02\n  0x00\n  swap1\n  sload\n  swap1\n  0x0100\n  exp\n  swap1\n  div\n  0xffffffffffffffffffffffffffffffffffffffff\n  and\n    /* \"TreasuryManagerAVA.sol\":2833:2841  s_router */\n  0x04\n  0x00\n    /* \"TreasuryManagerAVA.sol\":2833:2876  s_router = IRouterClient(ccipRouterAddress) */\n  0x0100\n  exp\n  dup2\n  sload\n  dup2\n  0xffffffffffffffffffffffffffffffffffffffff\n  mul\n  not\n  and\n  swap1\n  dup4\n  0xffffffffffffffffffffffffffffffffffffffff\n  and\n  mul\n  or\n  swap1\n  sstore\n  pop\n    /* \"TreasuryManagerAVA.sol\":2907:2918  linkAddress */\n  0x03\n  0x00\n  swap1\n  sload\n  swap1\n  0x0100\n  exp\n  swap1\n  div\n  0xffffffffffffffffffffffffffffffffffffffff\n  and\n    /* \"TreasuryManagerAVA.sol\":2886:2897  s_linkToken */\n  0x05\n  0x00\n    /* \"TreasuryManagerAVA.sol\":2886:2919  s_linkToken = IERC20(linkAddress) */\n  0x0100\n  exp\n  dup2\n  sload\n  dup2\n  0xffffffffffffffffffffffffffffffffffffffff\n  mul\n  not\n  and\n  swap1\n  dup4\n  0xffffffffffffffffffffffffffffffffffffffff\n  and\n  mul\n  or\n  swap1\n  sstore\n  pop\n    /* \"TreasuryManagerAVA.sol\":836:12241  contract TreasuryManagerAVACCIPsender is OwnerIsCreator {... */\n  jump(tag_16)\n    /* \"@chainlink/contracts/src/v0.8/shared/access/ConfirmedOwnerWithProposal.sol\":1536:1775  function _transferOwnership(address to) private {... */\ntag_12:\n    /* \"@chainlink/contracts/src/v0.8/shared/access/ConfirmedOwnerWithProposal.sol\":1655:1665  msg.sender */\n  caller\n    /* \"@chainlink/contracts/src/v0.8/shared/access/ConfirmedOwnerWithProposal.sol\":1649:1665  to != msg.sender */\n  0xffffffffffffffffffffffffffffffffffffffff\n  and\n    /* \"@chainlink/contracts/src/v0.8/shared/access/ConfirmedOwnerWithProposal.sol\":1649:1651  to */\n  dup2\n    /* \"@chainlink/contracts/src/v0.8/shared/access/ConfirmedOwnerWithProposal.sol\":1649:1665  to != msg.sender */\n  0xffffffffffffffffffffffffffffffffffffffff\n  and\n  sub\n    /* \"@chainlink/contracts/src/v0.8/shared/access/ConfirmedOwnerWithProposal.sol\":1641:1693  require(to != msg.sender, \"Cannot transfer to self\") */\n  tag_18\n  jumpi\n  mload(0x40)\n  0x08c379a000000000000000000000000000000000000000000000000000000000\n  dup2\n  mstore\n  0x04\n  add\n  tag_19\n  swap1\n  tag_20\n  jump\t// in\ntag_19:\n  mload(0x40)\n  dup1\n  swap2\n  sub\n  swap1\n  revert\ntag_18:\n    /* \"@chainlink/contracts/src/v0.8/shared/access/ConfirmedOwnerWithProposal.sol\":1717:1719  to */\n  dup1\n    /* \"@chainlink/contracts/src/v0.8/shared/access/ConfirmedOwnerWithProposal.sol\":1700:1714  s_pendingOwner */\n  0x01\n  0x00\n    /* \"@chainlink/contracts/src/v0.8/shared/access/ConfirmedOwnerWithProposal.sol\":1700:1719  s_pendingOwner = to */\n  0x0100\n  exp\n  dup2\n  sload\n  dup2\n  0xffffffffffffffffffffffffffffffffffffffff\n  mul\n  not\n  and\n  swap1\n  dup4\n  0xffffffffffffffffffffffffffffffffffffffff\n  and\n  mul\n  or\n  swap1\n  sstore\n  pop\n    /* \"@chainlink/contracts/src/v0.8/shared/access/ConfirmedOwnerWithProposal.sol\":1767:1769  to */\n  dup1\n    /* \"@chainlink/contracts/src/v0.8/shared/access/ConfirmedOwnerWithProposal.sol\":1731:1770  OwnershipTransferRequested(s_owner, to) */\n  0xffffffffffffffffffffffffffffffffffffffff\n  and\n    /* \"@chainlink/contracts/src/v0.8/shared/access/ConfirmedOwnerWithProposal.sol\":1758:1765  s_owner */\n  0x00\n  dup1\n  sload\n  swap1\n  0x0100\n  exp\n  swap1\n  div\n  0xffffffffffffffffffffffffffffffffffffffff\n  and\n    /* \"@chainlink/contracts/src/v0.8/shared/access/ConfirmedOwnerWithProposal.sol\":1731:1770  OwnershipTransferRequested(s_owner, to) */\n  0xffffffffffffffffffffffffffffffffffffffff\n  and\n  0xed8889f560326eb138920d842192f0eb3dd22b4f139c87a2c57538e05bae1278\n  mload(0x40)\n  mload(0x40)\n  dup1\n  swap2\n  sub\n  swap1\n  log3\n    /* \"@chainlink/contracts/src/v0.8/shared/access/ConfirmedOwnerWithProposal.sol\":1536:1775  function _transferOwnership(address to) private {... */\n  pop\n  jump\t// out\n    /* \"#utility.yul\":7:176   */\ntag_21:\n    /* \"#utility.yul\":91:102   */\n  0x00\n    /* \"#utility.yul\":125:131   */\n  dup3\n    /* \"#utility.yul\":120:123   */\n  dup3\n    /* \"#utility.yul\":113:132   */\n  mstore\n    /* \"#utility.yul\":165:169   */\n  0x20\n    /* \"#utility.yul\":160:163   */\n  dup3\n    /* \"#utility.yul\":156:170   */\n  add\n    /* \"#utility.yul\":141:170   */\n  swap1\n  pop\n    /* \"#utility.yul\":7:176   */\n  swap3\n  swap2\n  pop\n  pop\n  jump\t// out\n    /* \"#utility.yul\":182:356   */\ntag_22:\n    /* \"#utility.yul\":322:348   */\n  0x43616e6e6f7420736574206f776e657220746f207a65726f0000000000000000\n    /* \"#utility.yul\":318:319   */\n  0x00\n    /* \"#utility.yul\":310:316   */\n  dup3\n    /* \"#utility.yul\":306:320   */\n  add\n    /* \"#utility.yul\":299:349   */\n  mstore\n    /* \"#utility.yul\":182:356   */\n  pop\n  jump\t// out\n    /* \"#utility.yul\":362:728   */\ntag_23:\n    /* \"#utility.yul\":504:507   */\n  0x00\n    /* \"#utility.yul\":525:592   */\n  tag_30\n    /* \"#utility.yul\":589:591   */\n  0x18\n    /* \"#utility.yul\":584:587   */\n  dup4\n    /* \"#utility.yul\":525:592   */\n  tag_21\n  jump\t// in\ntag_30:\n    /* \"#utility.yul\":518:592   */\n  swap2\n  pop\n    /* \"#utility.yul\":601:694   */\n  tag_31\n    /* \"#utility.yul\":690:693   */\n  dup3\n    /* \"#utility.yul\":601:694   */\n  tag_22\n  jump\t// in\ntag_31:\n    /* \"#utility.yul\":719:721   */\n  0x20\n    /* \"#utility.yul\":714:717   */\n  dup3\n    /* \"#utility.yul\":710:722   */\n  add\n    /* \"#utility.yul\":703:722   */\n  swap1\n  pop\n    /* \"#utility.yul\":362:728   */\n  swap2\n  swap1\n  pop\n  jump\t// out\n    /* \"#utility.yul\":734:1153   */\ntag_9:\n    /* \"#utility.yul\":900:904   */\n  0x00\n    /* \"#utility.yul\":938:940   */\n  0x20\n    /* \"#utility.yul\":927:936   */\n  dup3\n    /* \"#utility.yul\":923:941   */\n  add\n    /* \"#utility.yul\":915:941   */\n  swap1\n  pop\n    /* \"#utility.yul\":987:996   */\n  dup2\n    /* \"#utility.yul\":981:985   */\n  dup2\n    /* \"#utility.yul\":977:997   */\n  sub\n    /* \"#utility.yul\":973:974   */\n  0x00\n    /* \"#utility.yul\":962:971   */\n  dup4\n    /* \"#utility.yul\":958:975   */\n  add\n    /* \"#utility.yul\":951:998   */\n  mstore\n    /* \"#utility.yul\":1015:1146   */\n  tag_33\n    /* \"#utility.yul\":1141:1145   */\n  dup2\n    /* \"#utility.yul\":1015:1146   */\n  tag_23\n  jump\t// in\ntag_33:\n    /* \"#utility.yul\":1007:1146   */\n  swap1\n  pop\n    /* \"#utility.yul\":734:1153   */\n  swap2\n  swap1\n  pop\n  jump\t// out\n    /* \"#utility.yul\":1159:1332   */\ntag_24:\n    /* \"#utility.yul\":1299:1324   */\n  0x43616e6e6f74207472616e7366657220746f2073656c66000000000000000000\n    /* \"#utility.yul\":1295:1296   */\n  0x00\n    /* \"#utility.yul\":1287:1293   */\n  dup3\n    /* \"#utility.yul\":1283:1297   */\n  add\n    /* \"#utility.yul\":1276:1325   */\n  mstore\n    /* \"#utility.yul\":1159:1332   */\n  pop\n  jump\t// out\n    /* \"#utility.yul\":1338:1704   */\ntag_25:\n    /* \"#utility.yul\":1480:1483   */\n  0x00\n    /* \"#utility.yul\":1501:1568   */\n  tag_36\n    /* \"#utility.yul\":1565:1567   */\n  0x17\n    /* \"#utility.yul\":1560:1563   */\n  dup4\n    /* \"#utility.yul\":1501:1568   */\n  tag_21\n  jump\t// in\ntag_36:\n    /* \"#utility.yul\":1494:1568   */\n  swap2\n  pop\n    /* \"#utility.yul\":1577:1670   */\n  tag_37\n    /* \"#utility.yul\":1666:1669   */\n  dup3\n    /* \"#utility.yul\":1577:1670   */\n  tag_24\n  jump\t// in\ntag_37:\n    /* \"#utility.yul\":1695:1697   */\n  0x20\n    /* \"#utility.yul\":1690:1693   */\n  dup3\n    /* \"#utility.yul\":1686:1698   */\n  add\n    /* \"#utility.yul\":1679:1698   */\n  swap1\n  pop\n    /* \"#utility.yul\":1338:1704   */\n  swap2\n  swap1\n  pop\n  jump\t// out\n    /* \"#utility.yul\":1710:2129   */\ntag_20:\n    /* \"#utility.yul\":1876:1880   */\n  0x00\n    /* \"#utility.yul\":1914:1916   */\n  0x20\n    /* \"#utility.yul\":1903:1912   */\n  dup3\n    /* \"#utility.yul\":1899:1917   */\n  add\n    /* \"#utility.yul\":1891:1917   */\n  swap1\n  pop\n    /* \"#utility.yul\":1963:1972   */\n  dup2\n    /* \"#utility.yul\":1957:1961   */\n  dup2\n    /* \"#utility.yul\":1953:1973   */\n  sub\n    /* \"#utility.yul\":1949:1950   */\n  0x00\n    /* \"#utility.yul\":1938:1947   */\n  dup4\n    /* \"#utility.yul\":1934:1951   */\n  add\n    /* \"#utility.yul\":1927:1974   */\n  mstore\n    /* \"#utility.yul\":1991:2122   */\n  tag_39\n    /* \"#utility.yul\":2117:2121   */\n  dup2\n    /* \"#utility.yul\":1991:2122   */\n  tag_25\n  jump\t// in\ntag_39:\n    /* \"#utility.yul\":1983:2122   */\n  swap1\n  pop\n    /* \"#utility.yul\":1710:2129   */\n  swap2\n  swap1\n  pop\n  jump\t// out\n    /* \"TreasuryManagerAVA.sol\":836:12241  contract TreasuryManagerAVACCIPsender is OwnerIsCreator {... */\ntag_16:\n  dataSize(sub_0)\n  dup1\n  dataOffset(sub_0)\n  0x00\n  codecopy\n  0x00\n  return\nstop\n\nsub_0: assembly {\n        /* \"TreasuryManagerAVA.sol\":836:12241  contract TreasuryManagerAVACCIPsender is OwnerIsCreator {... */\n      mstore(0x40, 0x80)\n      jumpi(tag_1, lt(calldatasize, 0x04))\n      shr(0xe0, calldataload(0x00))\n      dup1\n      0x79ba5097\n      gt\n      tag_10\n      jumpi\n      dup1\n      0x79ba5097\n      eq\n      tag_6\n      jumpi\n      dup1\n      0x8da5cb5b\n      eq\n      tag_7\n      jumpi\n      dup1\n      0xbbb6eae5\n      eq\n      tag_8\n      jumpi\n      dup1\n      0xf2fde38b\n      eq\n      tag_9\n      jumpi\n      jump(tag_2)\n    tag_10:\n      dup1\n      0x3aeac4e1\n      eq\n      tag_3\n      jumpi\n      dup1\n      0x51419b4b\n      eq\n      tag_4\n      jumpi\n      dup1\n      0x51cff8d9\n      eq\n      tag_5\n      jumpi\n      jump(tag_2)\n    tag_1:\n      jumpi(tag_2, calldatasize)\n      stop\n    tag_2:\n      0x00\n      dup1\n      revert\n        /* \"TreasuryManagerAVA.sol\":11853:12239  function withdrawToken(... */\n    tag_3:\n      callvalue\n      dup1\n      iszero\n      tag_13\n      jumpi\n      0x00\n      dup1\n      revert\n    tag_13:\n      pop\n      tag_14\n      0x04\n      dup1\n      calldatasize\n      sub\n      dup2\n      add\n      swap1\n      tag_15\n      swap2\n      swap1\n      tag_16\n      jump\t// in\n    tag_15:\n      tag_17\n      jump\t// in\n    tag_14:\n      stop\n        /* \"TreasuryManagerAVA.sol\":6181:7777  function transferTokensPayNative(... */\n    tag_4:\n      callvalue\n      dup1\n      iszero\n      tag_18\n      jumpi\n      0x00\n      dup1\n      revert\n    tag_18:\n      pop\n      tag_19\n      0x04\n      dup1\n      calldatasize\n      sub\n      dup2\n      add\n      swap1\n      tag_20\n      swap2\n      swap1\n      tag_21\n      jump\t// in\n    tag_20:\n      tag_22\n      jump\t// in\n    tag_19:\n      mload(0x40)\n      tag_23\n      swap2\n      swap1\n      tag_24\n      jump\t// in\n    tag_23:\n      mload(0x40)\n      dup1\n      swap2\n      sub\n      swap1\n      return\n        /* \"TreasuryManagerAVA.sol\":10899:11491  function withdraw(address _beneficiary) public onlyOwner {... */\n    tag_5:\n      callvalue\n      dup1\n      iszero\n      tag_25\n      jumpi\n      0x00\n      dup1\n      revert\n    tag_25:\n      pop\n      tag_26\n      0x04\n      dup1\n      calldatasize\n      sub\n      dup2\n      add\n      swap1\n      tag_27\n      swap2\n      swap1\n      tag_28\n      jump\t// in\n    tag_27:\n      tag_29\n      jump\t// in\n    tag_26:\n      stop\n        /* \"@chainlink/contracts/src/v0.8/shared/access/ConfirmedOwnerWithProposal.sol\":1026:1342  function acceptOwnership() external override {... */\n    tag_6:\n      callvalue\n      dup1\n      iszero\n      tag_30\n      jumpi\n      0x00\n      dup1\n      revert\n    tag_30:\n      pop\n      tag_31\n      tag_32\n      jump\t// in\n    tag_31:\n      stop\n        /* \"@chainlink/contracts/src/v0.8/shared/access/ConfirmedOwnerWithProposal.sol\":1382:1463  function owner() public view override returns (address) {... */\n    tag_7:\n      callvalue\n      dup1\n      iszero\n      tag_33\n      jumpi\n      0x00\n      dup1\n      revert\n    tag_33:\n      pop\n      tag_34\n      tag_35\n      jump\t// in\n    tag_34:\n      mload(0x40)\n      tag_36\n      swap2\n      swap1\n      tag_37\n      jump\t// in\n    tag_36:\n      mload(0x40)\n      dup1\n      swap2\n      sub\n      swap1\n      return\n        /* \"TreasuryManagerAVA.sol\":3718:5472  function transferTokensPayLINK(... */\n    tag_8:\n      callvalue\n      dup1\n      iszero\n      tag_38\n      jumpi\n      0x00\n      dup1\n      revert\n    tag_38:\n      pop\n      tag_39\n      0x04\n      dup1\n      calldatasize\n      sub\n      dup2\n      add\n      swap1\n      tag_40\n      swap2\n      swap1\n      tag_41\n      jump\t// in\n    tag_40:\n      tag_42\n      jump\t// in\n    tag_39:\n      mload(0x40)\n      tag_43\n      swap2\n      swap1\n      tag_24\n      jump\t// in\n    tag_43:\n      mload(0x40)\n      dup1\n      swap2\n      sub\n      swap1\n      return\n        /* \"@chainlink/contracts/src/v0.8/shared/access/ConfirmedOwnerWithProposal.sol\":847:945  function transferOwnership(address to) public override onlyOwner {... */\n    tag_9:\n      callvalue\n      dup1\n      iszero\n      tag_44\n      jumpi\n      0x00\n      dup1\n      revert\n    tag_44:\n      pop\n      tag_45\n      0x04\n      dup1\n      calldatasize\n      sub\n      dup2\n      add\n      swap1\n      tag_46\n      swap2\n      swap1\n      tag_28\n      jump\t// in\n    tag_46:\n      tag_47\n      jump\t// in\n    tag_45:\n      stop\n        /* \"TreasuryManagerAVA.sol\":11853:12239  function withdrawToken(... */\n    tag_17:\n        /* \"@chainlink/contracts/src/v0.8/shared/access/ConfirmedOwnerWithProposal.sol\":2075:2095  _validateOwnership() */\n      tag_49\n        /* \"@chainlink/contracts/src/v0.8/shared/access/ConfirmedOwnerWithProposal.sol\":2075:2093  _validateOwnership */\n      tag_50\n        /* \"@chainlink/contracts/src/v0.8/shared/access/ConfirmedOwnerWithProposal.sol\":2075:2095  _validateOwnership() */\n      jump\t// in\n    tag_49:\n        /* \"TreasuryManagerAVA.sol\":12012:12026  uint256 amount */\n      0x00\n        /* \"TreasuryManagerAVA.sol\":12036:12042  _token */\n      dup2\n        /* \"TreasuryManagerAVA.sol\":12029:12053  IERC20(_token).balanceOf */\n      0xffffffffffffffffffffffffffffffffffffffff\n      and\n      0x70a08231\n        /* \"TreasuryManagerAVA.sol\":12062:12066  this */\n      address\n        /* \"TreasuryManagerAVA.sol\":12029:12068  IERC20(_token).balanceOf(address(this)) */\n      mload(0x40)\n      dup3\n      0xffffffff\n      and\n      0xe0\n      shl\n      dup2\n      mstore\n      0x04\n      add\n      tag_52\n      swap2\n      swap1\n      tag_37\n      jump\t// in\n    tag_52:\n      0x20\n      mload(0x40)\n      dup1\n      dup4\n      sub\n      dup2\n      dup7\n      gas\n      staticcall\n      iszero\n      dup1\n      iszero\n      tag_54\n      jumpi\n      returndatasize\n      0x00\n      dup1\n      returndatacopy\n      revert(0x00, returndatasize)\n    tag_54:\n      pop\n      pop\n      pop\n      pop\n      mload(0x40)\n      returndatasize\n      not(0x1f)\n      0x1f\n      dup3\n      add\n      and\n      dup3\n      add\n      dup1\n      0x40\n      mstore\n      pop\n      dup2\n      add\n      swap1\n      tag_55\n      swap2\n      swap1\n      tag_56\n      jump\t// in\n    tag_55:\n        /* \"TreasuryManagerAVA.sol\":12012:12068  uint256 amount = IERC20(_token).balanceOf(address(this)) */\n      swap1\n      pop\n        /* \"TreasuryManagerAVA.sol\":12143:12144  0 */\n      0x00\n        /* \"TreasuryManagerAVA.sol\":12133:12139  amount */\n      dup2\n        /* \"TreasuryManagerAVA.sol\":12133:12144  amount == 0 */\n      sub\n        /* \"TreasuryManagerAVA.sol\":12129:12172  if (amount == 0) revert NothingToWithdraw() */\n      tag_57\n      jumpi\n        /* \"TreasuryManagerAVA.sol\":12153:12172  NothingToWithdraw() */\n      mload(0x40)\n      0xd0d04f6000000000000000000000000000000000000000000000000000000000\n      dup2\n      mstore\n      0x04\n      add\n      mload(0x40)\n      dup1\n      swap2\n      sub\n      swap1\n      revert\n        /* \"TreasuryManagerAVA.sol\":12129:12172  if (amount == 0) revert NothingToWithdraw() */\n    tag_57:\n        /* \"TreasuryManagerAVA.sol\":12183:12232  IERC20(_token).safeTransfer(_beneficiary, amount) */\n      tag_58\n        /* \"TreasuryManagerAVA.sol\":12211:12223  _beneficiary */\n      dup4\n        /* \"TreasuryManagerAVA.sol\":12225:12231  amount */\n      dup3\n        /* \"TreasuryManagerAVA.sol\":12190:12196  _token */\n      dup5\n        /* \"TreasuryManagerAVA.sol\":12183:12210  IERC20(_token).safeTransfer */\n      0xffffffffffffffffffffffffffffffffffffffff\n      and\n      tag_59\n      swap1\n        /* \"TreasuryManagerAVA.sol\":12183:12232  IERC20(_token).safeTransfer(_beneficiary, amount) */\n      swap3\n      swap2\n      swap1\n      0xffffffff\n      and\n      jump\t// in\n    tag_58:\n        /* \"TreasuryManagerAVA.sol\":11953:12239  {... */\n      pop\n        /* \"TreasuryManagerAVA.sol\":11853:12239  function withdrawToken(... */\n      pop\n      pop\n      jump\t// out\n        /* \"TreasuryManagerAVA.sol\":6181:7777  function transferTokensPayNative(... */\n    tag_22:\n        /* \"TreasuryManagerAVA.sol\":6426:6443  bytes32 messageId */\n      0x00\n        /* \"@chainlink/contracts/src/v0.8/shared/access/ConfirmedOwnerWithProposal.sol\":2075:2095  _validateOwnership() */\n      tag_61\n        /* \"@chainlink/contracts/src/v0.8/shared/access/ConfirmedOwnerWithProposal.sol\":2075:2093  _validateOwnership */\n      tag_50\n        /* \"@chainlink/contracts/src/v0.8/shared/access/ConfirmedOwnerWithProposal.sol\":2075:2095  _validateOwnership() */\n      jump\t// in\n    tag_61:\n        /* \"TreasuryManagerAVA.sol\":6398:6407  _receiver */\n      dup4\n        /* \"TreasuryManagerAVA.sol\":3125:3126  0 */\n      0x00\n        /* \"TreasuryManagerAVA.sol\":3104:3127  _receiver == address(0) */\n      0xffffffffffffffffffffffffffffffffffffffff\n      and\n        /* \"TreasuryManagerAVA.sol\":3104:3113  _receiver */\n      dup2\n        /* \"TreasuryManagerAVA.sol\":3104:3127  _receiver == address(0) */\n      0xffffffffffffffffffffffffffffffffffffffff\n      and\n      sub\n        /* \"TreasuryManagerAVA.sol\":3100:3160  if (_receiver == address(0)) revert InvalidReceiverAddress() */\n      tag_63\n      jumpi\n        /* \"TreasuryManagerAVA.sol\":3136:3160  InvalidReceiverAddress() */\n      mload(0x40)\n      0xa05ff47e00000000000000000000000000000000000000000000000000000000\n      dup2\n      mstore\n      0x04\n      add\n      mload(0x40)\n      dup1\n      swap2\n      sub\n      swap1\n      revert\n        /* \"TreasuryManagerAVA.sol\":3100:3160  if (_receiver == address(0)) revert InvalidReceiverAddress() */\n    tag_63:\n        /* \"TreasuryManagerAVA.sol\":6629:6672  Client.EVM2AnyMessage memory evm2AnyMessage */\n      0x00\n        /* \"TreasuryManagerAVA.sol\":6675:6790  _buildCCIPMessage(... */\n      tag_65\n        /* \"TreasuryManagerAVA.sol\":6706:6715  _receiver */\n      dup7\n        /* \"TreasuryManagerAVA.sol\":6729:6735  _token */\n      dup7\n        /* \"TreasuryManagerAVA.sol\":6749:6756  _amount */\n      dup7\n        /* \"TreasuryManagerAVA.sol\":6778:6779  0 */\n      0x00\n        /* \"TreasuryManagerAVA.sol\":6675:6692  _buildCCIPMessage */\n      tag_66\n        /* \"TreasuryManagerAVA.sol\":6675:6790  _buildCCIPMessage(... */\n      jump\t// in\n    tag_65:\n        /* \"TreasuryManagerAVA.sol\":6629:6790  Client.EVM2AnyMessage memory evm2AnyMessage = _buildCCIPMessage(... */\n      swap1\n      pop\n        /* \"TreasuryManagerAVA.sol\":6853:6865  uint256 fees */\n      0x00\n        /* \"TreasuryManagerAVA.sol\":6868:6876  s_router */\n      0x04\n      0x00\n      swap1\n      sload\n      swap1\n      0x0100\n      exp\n      swap1\n      div\n      0xffffffffffffffffffffffffffffffffffffffff\n      and\n        /* \"TreasuryManagerAVA.sol\":6868:6883  s_router.getFee */\n      0xffffffffffffffffffffffffffffffffffffffff\n      and\n      0x20487ded\n        /* \"TreasuryManagerAVA.sol\":6897:6922  _destinationChainSelector */\n      dup10\n        /* \"TreasuryManagerAVA.sol\":6936:6950  evm2AnyMessage */\n      dup5\n        /* \"TreasuryManagerAVA.sol\":6868:6960  s_router.getFee(... */\n      mload(0x40)\n      dup4\n      0xffffffff\n      and\n      0xe0\n      shl\n      dup2\n      mstore\n      0x04\n      add\n      tag_67\n      swap3\n      swap2\n      swap1\n      tag_68\n      jump\t// in\n    tag_67:\n      0x20\n      mload(0x40)\n      dup1\n      dup4\n      sub\n      dup2\n      dup7\n      gas\n      staticcall\n      iszero\n      dup1\n      iszero\n      tag_70\n      jumpi\n      returndatasize\n      0x00\n      dup1\n      returndatacopy\n      revert(0x00, returndatasize)\n    tag_70:\n      pop\n      pop\n      pop\n      pop\n      mload(0x40)\n      returndatasize\n      not(0x1f)\n      0x1f\n      dup3\n      add\n      and\n      dup3\n      add\n      dup1\n      0x40\n      mstore\n      pop\n      dup2\n      add\n      swap1\n      tag_71\n      swap2\n      swap1\n      tag_56\n      jump\t// in\n    tag_71:\n        /* \"TreasuryManagerAVA.sol\":6853:6960  uint256 fees = s_router.getFee(... */\n      swap1\n      pop\n        /* \"TreasuryManagerAVA.sol\":6982:7003  address(this).balance */\n      selfbalance\n        /* \"TreasuryManagerAVA.sol\":6975:6979  fees */\n      dup2\n        /* \"TreasuryManagerAVA.sol\":6975:7003  fees > address(this).balance */\n      gt\n        /* \"TreasuryManagerAVA.sol\":6971:7069  if (fees > address(this).balance)... */\n      iszero\n      tag_72\n      jumpi\n        /* \"TreasuryManagerAVA.sol\":7041:7062  address(this).balance */\n      selfbalance\n        /* \"TreasuryManagerAVA.sol\":7064:7068  fees */\n      dup2\n        /* \"TreasuryManagerAVA.sol\":7024:7069  NotEnoughBalance(address(this).balance, fees) */\n      mload(0x40)\n      0x8f0f420600000000000000000000000000000000000000000000000000000000\n      dup2\n      mstore\n      0x04\n      add\n      tag_73\n      swap3\n      swap2\n      swap1\n      tag_74\n      jump\t// in\n    tag_73:\n      mload(0x40)\n      dup1\n      swap2\n      sub\n      swap1\n      revert\n        /* \"TreasuryManagerAVA.sol\":6971:7069  if (fees > address(this).balance)... */\n    tag_72:\n        /* \"TreasuryManagerAVA.sol\":7199:7205  _token */\n      dup6\n        /* \"TreasuryManagerAVA.sol\":7192:7214  IERC20(_token).approve */\n      0xffffffffffffffffffffffffffffffffffffffff\n      and\n      0x095ea7b3\n        /* \"TreasuryManagerAVA.sol\":7223:7231  s_router */\n      0x04\n      0x00\n      swap1\n      sload\n      swap1\n      0x0100\n      exp\n      swap1\n      div\n      0xffffffffffffffffffffffffffffffffffffffff\n      and\n        /* \"TreasuryManagerAVA.sol\":7234:7241  _amount */\n      dup8\n        /* \"TreasuryManagerAVA.sol\":7192:7242  IERC20(_token).approve(address(s_router), _amount) */\n      mload(0x40)\n      dup4\n      0xffffffff\n      and\n      0xe0\n      shl\n      dup2\n      mstore\n      0x04\n      add\n      tag_75\n      swap3\n      swap2\n      swap1\n      tag_76\n      jump\t// in\n    tag_75:\n      0x20\n      mload(0x40)\n      dup1\n      dup4\n      sub\n      dup2\n      0x00\n      dup8\n      gas\n      call\n      iszero\n      dup1\n      iszero\n      tag_78\n      jumpi\n      returndatasize\n      0x00\n      dup1\n      returndatacopy\n      revert(0x00, returndatasize)\n    tag_78:\n      pop\n      pop\n      pop\n      pop\n      mload(0x40)\n      returndatasize\n      not(0x1f)\n      0x1f\n      dup3\n      add\n      and\n      dup3\n      add\n      dup1\n      0x40\n      mstore\n      pop\n      dup2\n      add\n      swap1\n      tag_79\n      swap2\n      swap1\n      tag_80\n      jump\t// in\n    tag_79:\n      pop\n        /* \"TreasuryManagerAVA.sol\":7346:7354  s_router */\n      0x04\n      0x00\n      swap1\n      sload\n      swap1\n      0x0100\n      exp\n      swap1\n      div\n      0xffffffffffffffffffffffffffffffffffffffff\n      and\n        /* \"TreasuryManagerAVA.sol\":7346:7363  s_router.ccipSend */\n      0xffffffffffffffffffffffffffffffffffffffff\n      and\n      0x96f4e9f9\n        /* \"TreasuryManagerAVA.sol\":7371:7375  fees */\n      dup3\n        /* \"TreasuryManagerAVA.sol\":7390:7415  _destinationChainSelector */\n      dup11\n        /* \"TreasuryManagerAVA.sol\":7429:7443  evm2AnyMessage */\n      dup6\n        /* \"TreasuryManagerAVA.sol\":7346:7453  s_router.ccipSend{value: fees}(... */\n      mload(0x40)\n      dup5\n      0xffffffff\n      and\n      0xe0\n      shl\n      dup2\n      mstore\n      0x04\n      add\n      tag_81\n      swap3\n      swap2\n      swap1\n      tag_68\n      jump\t// in\n    tag_81:\n      0x20\n      mload(0x40)\n      dup1\n      dup4\n      sub\n      dup2\n      dup6\n      dup9\n      gas\n      call\n      iszero\n      dup1\n      iszero\n      tag_83\n      jumpi\n      returndatasize\n      0x00\n      dup1\n      returndatacopy\n      revert(0x00, returndatasize)\n    tag_83:\n      pop\n      pop\n      pop\n      pop\n      pop\n      mload(0x40)\n      returndatasize\n      not(0x1f)\n      0x1f\n      dup3\n      add\n      and\n      dup3\n      add\n      dup1\n      0x40\n      mstore\n      pop\n      dup2\n      add\n      swap1\n      tag_84\n      swap2\n      swap1\n      tag_85\n      jump\t// in\n    tag_84:\n        /* \"TreasuryManagerAVA.sol\":7334:7453  messageId = s_router.ccipSend{value: fees}(... */\n      swap4\n      pop\n        /* \"TreasuryManagerAVA.sol\":7569:7594  _destinationChainSelector */\n      dup8\n        /* \"TreasuryManagerAVA.sol\":7515:7710  TokensTransferred(... */\n      0xffffffffffffffff\n      and\n        /* \"TreasuryManagerAVA.sol\":7546:7555  messageId */\n      dup5\n        /* \"TreasuryManagerAVA.sol\":7515:7710  TokensTransferred(... */\n      0xc15fb748c32ba4eb29c1c311e78533f93b4425eab49ea87c6fe4279ecadca043\n        /* \"TreasuryManagerAVA.sol\":7608:7617  _receiver */\n      dup10\n        /* \"TreasuryManagerAVA.sol\":7631:7637  _token */\n      dup10\n        /* \"TreasuryManagerAVA.sol\":7651:7658  _amount */\n      dup10\n        /* \"TreasuryManagerAVA.sol\":7680:7681  0 */\n      0x00\n        /* \"TreasuryManagerAVA.sol\":7696:7700  fees */\n      dup8\n        /* \"TreasuryManagerAVA.sol\":7515:7710  TokensTransferred(... */\n      mload(0x40)\n      tag_86\n      swap6\n      swap5\n      swap4\n      swap3\n      swap2\n      swap1\n      tag_87\n      jump\t// in\n    tag_86:\n      mload(0x40)\n      dup1\n      swap2\n      sub\n      swap1\n      log3\n        /* \"TreasuryManagerAVA.sol\":7754:7770  return messageId */\n      pop\n      pop\n        /* \"@chainlink/contracts/src/v0.8/shared/access/ConfirmedOwnerWithProposal.sol\":2101:2102  _ */\n      pop\n        /* \"TreasuryManagerAVA.sol\":6181:7777  function transferTokensPayNative(... */\n      swap5\n      swap4\n      pop\n      pop\n      pop\n      pop\n      jump\t// out\n        /* \"TreasuryManagerAVA.sol\":10899:11491  function withdraw(address _beneficiary) public onlyOwner {... */\n    tag_29:\n        /* \"@chainlink/contracts/src/v0.8/shared/access/ConfirmedOwnerWithProposal.sol\":2075:2095  _validateOwnership() */\n      tag_89\n        /* \"@chainlink/contracts/src/v0.8/shared/access/ConfirmedOwnerWithProposal.sol\":2075:2093  _validateOwnership */\n      tag_50\n        /* \"@chainlink/contracts/src/v0.8/shared/access/ConfirmedOwnerWithProposal.sol\":2075:2095  _validateOwnership() */\n      jump\t// in\n    tag_89:\n        /* \"TreasuryManagerAVA.sol\":11015:11029  uint256 amount */\n      0x00\n        /* \"TreasuryManagerAVA.sol\":11032:11053  address(this).balance */\n      selfbalance\n        /* \"TreasuryManagerAVA.sol\":11015:11053  uint256 amount = address(this).balance */\n      swap1\n      pop\n        /* \"TreasuryManagerAVA.sol\":11128:11129  0 */\n      0x00\n        /* \"TreasuryManagerAVA.sol\":11118:11124  amount */\n      dup2\n        /* \"TreasuryManagerAVA.sol\":11118:11129  amount == 0 */\n      sub\n        /* \"TreasuryManagerAVA.sol\":11114:11157  if (amount == 0) revert NothingToWithdraw() */\n      tag_91\n      jumpi\n        /* \"TreasuryManagerAVA.sol\":11138:11157  NothingToWithdraw() */\n      mload(0x40)\n      0xd0d04f6000000000000000000000000000000000000000000000000000000000\n      dup2\n      mstore\n      0x04\n      add\n      mload(0x40)\n      dup1\n      swap2\n      sub\n      swap1\n      revert\n        /* \"TreasuryManagerAVA.sol\":11114:11157  if (amount == 0) revert NothingToWithdraw() */\n    tag_91:\n        /* \"TreasuryManagerAVA.sol\":11267:11276  bool sent */\n      0x00\n        /* \"TreasuryManagerAVA.sol\":11282:11294  _beneficiary */\n      dup3\n        /* \"TreasuryManagerAVA.sol\":11282:11299  _beneficiary.call */\n      0xffffffffffffffffffffffffffffffffffffffff\n      and\n        /* \"TreasuryManagerAVA.sol\":11307:11313  amount */\n      dup3\n        /* \"TreasuryManagerAVA.sol\":11282:11318  _beneficiary.call{value: amount}(\"\") */\n      mload(0x40)\n      tag_92\n      swap1\n      tag_93\n      jump\t// in\n    tag_92:\n      0x00\n      mload(0x40)\n      dup1\n      dup4\n      sub\n      dup2\n      dup6\n      dup8\n      gas\n      call\n      swap3\n      pop\n      pop\n      pop\n      returndatasize\n      dup1\n      0x00\n      dup2\n      eq\n      tag_96\n      jumpi\n      mload(0x40)\n      swap2\n      pop\n      and(add(returndatasize, 0x3f), not(0x1f))\n      dup3\n      add\n      0x40\n      mstore\n      returndatasize\n      dup3\n      mstore\n      returndatasize\n      0x00\n      0x20\n      dup5\n      add\n      returndatacopy\n      jump(tag_95)\n    tag_96:\n      0x60\n      swap2\n      pop\n    tag_95:\n      pop\n        /* \"TreasuryManagerAVA.sol\":11266:11318  (bool sent, ) = _beneficiary.call{value: amount}(\"\") */\n      pop\n      swap1\n      pop\n        /* \"TreasuryManagerAVA.sol\":11418:11422  sent */\n      dup1\n        /* \"TreasuryManagerAVA.sol\":11413:11484  if (!sent) revert FailedToWithdrawEth(msg.sender, _beneficiary, amount) */\n      tag_97\n      jumpi\n        /* \"TreasuryManagerAVA.sol\":11451:11461  msg.sender */\n      caller\n        /* \"TreasuryManagerAVA.sol\":11463:11475  _beneficiary */\n      dup4\n        /* \"TreasuryManagerAVA.sol\":11477:11483  amount */\n      dup4\n        /* \"TreasuryManagerAVA.sol\":11431:11484  FailedToWithdrawEth(msg.sender, _beneficiary, amount) */\n      mload(0x40)\n      0x9d11f56300000000000000000000000000000000000000000000000000000000\n      dup2\n      mstore\n      0x04\n      add\n      tag_98\n      swap4\n      swap3\n      swap2\n      swap1\n      tag_99\n      jump\t// in\n    tag_98:\n      mload(0x40)\n      dup1\n      swap2\n      sub\n      swap1\n      revert\n        /* \"TreasuryManagerAVA.sol\":11413:11484  if (!sent) revert FailedToWithdrawEth(msg.sender, _beneficiary, amount) */\n    tag_97:\n        /* \"TreasuryManagerAVA.sol\":10956:11491  {... */\n      pop\n      pop\n        /* \"TreasuryManagerAVA.sol\":10899:11491  function withdraw(address _beneficiary) public onlyOwner {... */\n      pop\n      jump\t// out\n        /* \"@chainlink/contracts/src/v0.8/shared/access/ConfirmedOwnerWithProposal.sol\":1026:1342  function acceptOwnership() external override {... */\n    tag_32:\n        /* \"@chainlink/contracts/src/v0.8/shared/access/ConfirmedOwnerWithProposal.sol\":1150:1164  s_pendingOwner */\n      0x01\n      0x00\n      swap1\n      sload\n      swap1\n      0x0100\n      exp\n      swap1\n      div\n      0xffffffffffffffffffffffffffffffffffffffff\n      and\n        /* \"@chainlink/contracts/src/v0.8/shared/access/ConfirmedOwnerWithProposal.sol\":1136:1164  msg.sender == s_pendingOwner */\n      0xffffffffffffffffffffffffffffffffffffffff\n      and\n        /* \"@chainlink/contracts/src/v0.8/shared/access/ConfirmedOwnerWithProposal.sol\":1136:1146  msg.sender */\n      caller\n        /* \"@chainlink/contracts/src/v0.8/shared/access/ConfirmedOwnerWithProposal.sol\":1136:1164  msg.sender == s_pendingOwner */\n      0xffffffffffffffffffffffffffffffffffffffff\n      and\n      eq\n        /* \"@chainlink/contracts/src/v0.8/shared/access/ConfirmedOwnerWithProposal.sol\":1128:1191  require(msg.sender == s_pendingOwner, \"Must be proposed owner\") */\n      tag_101\n      jumpi\n      mload(0x40)\n      0x08c379a000000000000000000000000000000000000000000000000000000000\n      dup2\n      mstore\n      0x04\n      add\n      tag_102\n      swap1\n      tag_103\n      jump\t// in\n    tag_102:\n      mload(0x40)\n      dup1\n      swap2\n      sub\n      swap1\n      revert\n    tag_101:\n        /* \"@chainlink/contracts/src/v0.8/shared/access/ConfirmedOwnerWithProposal.sol\":1198:1214  address oldOwner */\n      0x00\n        /* \"@chainlink/contracts/src/v0.8/shared/access/ConfirmedOwnerWithProposal.sol\":1217:1224  s_owner */\n      dup1\n      0x00\n      swap1\n      sload\n      swap1\n      0x0100\n      exp\n      swap1\n      div\n      0xffffffffffffffffffffffffffffffffffffffff\n      and\n        /* \"@chainlink/contracts/src/v0.8/shared/access/ConfirmedOwnerWithProposal.sol\":1198:1224  address oldOwner = s_owner */\n      swap1\n      pop\n        /* \"@chainlink/contracts/src/v0.8/shared/access/ConfirmedOwnerWithProposal.sol\":1240:1250  msg.sender */\n      caller\n        /* \"@chainlink/contracts/src/v0.8/shared/access/ConfirmedOwnerWithProposal.sol\":1230:1237  s_owner */\n      0x00\n      dup1\n        /* \"@chainlink/contracts/src/v0.8/shared/access/ConfirmedOwnerWithProposal.sol\":1230:1250  s_owner = msg.sender */\n      0x0100\n      exp\n      dup2\n      sload\n      dup2\n      0xffffffffffffffffffffffffffffffffffffffff\n      mul\n      not\n      and\n      swap1\n      dup4\n      0xffffffffffffffffffffffffffffffffffffffff\n      and\n      mul\n      or\n      swap1\n      sstore\n      pop\n        /* \"@chainlink/contracts/src/v0.8/shared/access/ConfirmedOwnerWithProposal.sol\":1281:1282  0 */\n      0x00\n        /* \"@chainlink/contracts/src/v0.8/shared/access/ConfirmedOwnerWithProposal.sol\":1256:1270  s_pendingOwner */\n      0x01\n      0x00\n        /* \"@chainlink/contracts/src/v0.8/shared/access/ConfirmedOwnerWithProposal.sol\":1256:1283  s_pendingOwner = address(0) */\n      0x0100\n      exp\n      dup2\n      sload\n      dup2\n      0xffffffffffffffffffffffffffffffffffffffff\n      mul\n      not\n      and\n      swap1\n      dup4\n      0xffffffffffffffffffffffffffffffffffffffff\n      and\n      mul\n      or\n      swap1\n      sstore\n      pop\n        /* \"@chainlink/contracts/src/v0.8/shared/access/ConfirmedOwnerWithProposal.sol\":1326:1336  msg.sender */\n      caller\n        /* \"@chainlink/contracts/src/v0.8/shared/access/ConfirmedOwnerWithProposal.sol\":1295:1337  OwnershipTransferred(oldOwner, msg.sender) */\n      0xffffffffffffffffffffffffffffffffffffffff\n      and\n        /* \"@chainlink/contracts/src/v0.8/shared/access/ConfirmedOwnerWithProposal.sol\":1316:1324  oldOwner */\n      dup2\n        /* \"@chainlink/contracts/src/v0.8/shared/access/ConfirmedOwnerWithProposal.sol\":1295:1337  OwnershipTransferred(oldOwner, msg.sender) */\n      0xffffffffffffffffffffffffffffffffffffffff\n      and\n      0x8be0079c531659141344cd1fd0a4f28419497f9722a3daafe3b4186f6b6457e0\n      mload(0x40)\n      mload(0x40)\n      dup1\n      swap2\n      sub\n      swap1\n      log3\n        /* \"@chainlink/contracts/src/v0.8/shared/access/ConfirmedOwnerWithProposal.sol\":1071:1342  {... */\n      pop\n        /* \"@chainlink/contracts/src/v0.8/shared/access/ConfirmedOwnerWithProposal.sol\":1026:1342  function acceptOwnership() external override {... */\n      jump\t// out\n        /* \"@chainlink/contracts/src/v0.8/shared/access/ConfirmedOwnerWithProposal.sol\":1382:1463  function owner() public view override returns (address) {... */\n    tag_35:\n        /* \"@chainlink/contracts/src/v0.8/shared/access/ConfirmedOwnerWithProposal.sol\":1429:1436  address */\n      0x00\n        /* \"@chainlink/contracts/src/v0.8/shared/access/ConfirmedOwnerWithProposal.sol\":1451:1458  s_owner */\n      dup1\n      0x00\n      swap1\n      sload\n      swap1\n      0x0100\n      exp\n      swap1\n      div\n      0xffffffffffffffffffffffffffffffffffffffff\n      and\n        /* \"@chainlink/contracts/src/v0.8/shared/access/ConfirmedOwnerWithProposal.sol\":1444:1458  return s_owner */\n      swap1\n      pop\n        /* \"@chainlink/contracts/src/v0.8/shared/access/ConfirmedOwnerWithProposal.sol\":1382:1463  function owner() public view override returns (address) {... */\n      swap1\n      jump\t// out\n        /* \"TreasuryManagerAVA.sol\":3718:5472  function transferTokensPayLINK(... */\n    tag_42:\n        /* \"TreasuryManagerAVA.sol\":3919:3936  bytes32 messageId */\n      0x00\n        /* \"@chainlink/contracts/src/v0.8/shared/access/ConfirmedOwnerWithProposal.sol\":2075:2095  _validateOwnership() */\n      tag_106\n        /* \"@chainlink/contracts/src/v0.8/shared/access/ConfirmedOwnerWithProposal.sol\":2075:2093  _validateOwnership */\n      tag_50\n        /* \"@chainlink/contracts/src/v0.8/shared/access/ConfirmedOwnerWithProposal.sol\":2075:2095  _validateOwnership() */\n      jump\t// in\n    tag_106:\n        /* \"TreasuryManagerAVA.sol\":3891:3900  _receiver */\n      dup4\n        /* \"TreasuryManagerAVA.sol\":3125:3126  0 */\n      0x00\n        /* \"TreasuryManagerAVA.sol\":3104:3127  _receiver == address(0) */\n      0xffffffffffffffffffffffffffffffffffffffff\n      and\n        /* \"TreasuryManagerAVA.sol\":3104:3113  _receiver */\n      dup2\n        /* \"TreasuryManagerAVA.sol\":3104:3127  _receiver == address(0) */\n      0xffffffffffffffffffffffffffffffffffffffff\n      and\n      sub\n        /* \"TreasuryManagerAVA.sol\":3100:3160  if (_receiver == address(0)) revert InvalidReceiverAddress() */\n      tag_108\n      jumpi\n        /* \"TreasuryManagerAVA.sol\":3136:3160  InvalidReceiverAddress() */\n      mload(0x40)\n      0xa05ff47e00000000000000000000000000000000000000000000000000000000\n      dup2\n      mstore\n      0x04\n      add\n      mload(0x40)\n      dup1\n      swap2\n      sub\n      swap1\n      revert\n        /* \"TreasuryManagerAVA.sol\":3100:3160  if (_receiver == address(0)) revert InvalidReceiverAddress() */\n    tag_108:\n        /* \"TreasuryManagerAVA.sol\":4125:4168  Client.EVM2AnyMessage memory evm2AnyMessage */\n      0x00\n        /* \"TreasuryManagerAVA.sol\":4171:4296  _buildCCIPMessage(... */\n      tag_110\n        /* \"TreasuryManagerAVA.sol\":4202:4211  _receiver */\n      dup7\n        /* \"TreasuryManagerAVA.sol\":4225:4231  _token */\n      dup7\n        /* \"TreasuryManagerAVA.sol\":4245:4252  _amount */\n      dup7\n        /* \"TreasuryManagerAVA.sol\":4274:4285  s_linkToken */\n      0x05\n      0x00\n      swap1\n      sload\n      swap1\n      0x0100\n      exp\n      swap1\n      div\n      0xffffffffffffffffffffffffffffffffffffffff\n      and\n        /* \"TreasuryManagerAVA.sol\":4171:4188  _buildCCIPMessage */\n      tag_66\n        /* \"TreasuryManagerAVA.sol\":4171:4296  _buildCCIPMessage(... */\n      jump\t// in\n    tag_110:\n        /* \"TreasuryManagerAVA.sol\":4125:4296  Client.EVM2AnyMessage memory evm2AnyMessage = _buildCCIPMessage(... */\n      swap1\n      pop\n        /* \"TreasuryManagerAVA.sol\":4359:4371  uint256 fees */\n      0x00\n        /* \"TreasuryManagerAVA.sol\":4374:4382  s_router */\n      0x04\n      0x00\n      swap1\n      sload\n      swap1\n      0x0100\n      exp\n      swap1\n      div\n      0xffffffffffffffffffffffffffffffffffffffff\n      and\n        /* \"TreasuryManagerAVA.sol\":4374:4389  s_router.getFee */\n      0xffffffffffffffffffffffffffffffffffffffff\n      and\n      0x20487ded\n        /* \"TreasuryManagerAVA.sol\":4403:4428  _destinationChainSelector */\n      0x03\n      0x14\n      swap1\n      sload\n      swap1\n      0x0100\n      exp\n      swap1\n      div\n      0xffffffffffffffff\n      and\n        /* \"TreasuryManagerAVA.sol\":4442:4456  evm2AnyMessage */\n      dup5\n        /* \"TreasuryManagerAVA.sol\":4374:4466  s_router.getFee(... */\n      mload(0x40)\n      dup4\n      0xffffffff\n      and\n      0xe0\n      shl\n      dup2\n      mstore\n      0x04\n      add\n      tag_111\n      swap3\n      swap2\n      swap1\n      tag_68\n      jump\t// in\n    tag_111:\n      0x20\n      mload(0x40)\n      dup1\n      dup4\n      sub\n      dup2\n      dup7\n      gas\n      staticcall\n      iszero\n      dup1\n      iszero\n      tag_113\n      jumpi\n      returndatasize\n      0x00\n      dup1\n      returndatacopy\n      revert(0x00, returndatasize)\n    tag_113:\n      pop\n      pop\n      pop\n      pop\n      mload(0x40)\n      returndatasize\n      not(0x1f)\n      0x1f\n      dup3\n      add\n      and\n      dup3\n      add\n      dup1\n      0x40\n      mstore\n      pop\n      dup2\n      add\n      swap1\n      tag_114\n      swap2\n      swap1\n      tag_56\n      jump\t// in\n    tag_114:\n        /* \"TreasuryManagerAVA.sol\":4359:4466  uint256 fees = s_router.getFee(... */\n      swap1\n      pop\n        /* \"TreasuryManagerAVA.sol\":4488:4499  s_linkToken */\n      0x05\n      0x00\n      swap1\n      sload\n      swap1\n      0x0100\n      exp\n      swap1\n      div\n      0xffffffffffffffffffffffffffffffffffffffff\n      and\n        /* \"TreasuryManagerAVA.sol\":4488:4509  s_linkToken.balanceOf */\n      0xffffffffffffffffffffffffffffffffffffffff\n      and\n      0x70a08231\n        /* \"TreasuryManagerAVA.sol\":4518:4522  this */\n      address\n        /* \"TreasuryManagerAVA.sol\":4488:4524  s_linkToken.balanceOf(address(this)) */\n      mload(0x40)\n      dup3\n      0xffffffff\n      and\n      0xe0\n      shl\n      dup2\n      mstore\n      0x04\n      add\n      tag_115\n      swap2\n      swap1\n      tag_37\n      jump\t// in\n    tag_115:\n      0x20\n      mload(0x40)\n      dup1\n      dup4\n      sub\n      dup2\n      dup7\n      gas\n      staticcall\n      iszero\n      dup1\n      iszero\n      tag_117\n      jumpi\n      returndatasize\n      0x00\n      dup1\n      returndatacopy\n      revert(0x00, returndatasize)\n    tag_117:\n      pop\n      pop\n      pop\n      pop\n      mload(0x40)\n      returndatasize\n      not(0x1f)\n      0x1f\n      dup3\n      add\n      and\n      dup3\n      add\n      dup1\n      0x40\n      mstore\n      pop\n      dup2\n      add\n      swap1\n      tag_118\n      swap2\n      swap1\n      tag_56\n      jump\t// in\n    tag_118:\n        /* \"TreasuryManagerAVA.sol\":4481:4485  fees */\n      dup2\n        /* \"TreasuryManagerAVA.sol\":4481:4524  fees > s_linkToken.balanceOf(address(this)) */\n      gt\n        /* \"TreasuryManagerAVA.sol\":4477:4605  if (fees > s_linkToken.balanceOf(address(this)))... */\n      iszero\n      tag_119\n      jumpi\n        /* \"TreasuryManagerAVA.sol\":4562:4573  s_linkToken */\n      0x05\n      0x00\n      swap1\n      sload\n      swap1\n      0x0100\n      exp\n      swap1\n      div\n      0xffffffffffffffffffffffffffffffffffffffff\n      and\n        /* \"TreasuryManagerAVA.sol\":4562:4583  s_linkToken.balanceOf */\n      0xffffffffffffffffffffffffffffffffffffffff\n      and\n      0x70a08231\n        /* \"TreasuryManagerAVA.sol\":4592:4596  this */\n      address\n        /* \"TreasuryManagerAVA.sol\":4562:4598  s_linkToken.balanceOf(address(this)) */\n      mload(0x40)\n      dup3\n      0xffffffff\n      and\n      0xe0\n      shl\n      dup2\n      mstore\n      0x04\n      add\n      tag_120\n      swap2\n      swap1\n      tag_37\n      jump\t// in\n    tag_120:\n      0x20\n      mload(0x40)\n      dup1\n      dup4\n      sub\n      dup2\n      dup7\n      gas\n      staticcall\n      iszero\n      dup1\n      iszero\n      tag_122\n      jumpi\n      returndatasize\n      0x00\n      dup1\n      returndatacopy\n      revert(0x00, returndatasize)\n    tag_122:\n      pop\n      pop\n      pop\n      pop\n      mload(0x40)\n      returndatasize\n      not(0x1f)\n      0x1f\n      dup3\n      add\n      and\n      dup3\n      add\n      dup1\n      0x40\n      mstore\n      pop\n      dup2\n      add\n      swap1\n      tag_123\n      swap2\n      swap1\n      tag_56\n      jump\t// in\n    tag_123:\n        /* \"TreasuryManagerAVA.sol\":4600:4604  fees */\n      dup2\n        /* \"TreasuryManagerAVA.sol\":4545:4605  NotEnoughBalance(s_linkToken.balanceOf(address(this)), fees) */\n      mload(0x40)\n      0x8f0f420600000000000000000000000000000000000000000000000000000000\n      dup2\n      mstore\n      0x04\n      add\n      tag_124\n      swap3\n      swap2\n      swap1\n      tag_74\n      jump\t// in\n    tag_124:\n      mload(0x40)\n      dup1\n      swap2\n      sub\n      swap1\n      revert\n        /* \"TreasuryManagerAVA.sol\":4477:4605  if (fees > s_linkToken.balanceOf(address(this)))... */\n    tag_119:\n        /* \"TreasuryManagerAVA.sol\":4723:4734  s_linkToken */\n      0x05\n      0x00\n      swap1\n      sload\n      swap1\n      0x0100\n      exp\n      swap1\n      div\n      0xffffffffffffffffffffffffffffffffffffffff\n      and\n        /* \"TreasuryManagerAVA.sol\":4723:4742  s_linkToken.approve */\n      0xffffffffffffffffffffffffffffffffffffffff\n      and\n      0x095ea7b3\n        /* \"TreasuryManagerAVA.sol\":4751:4759  s_router */\n      0x04\n      0x00\n      swap1\n      sload\n      swap1\n      0x0100\n      exp\n      swap1\n      div\n      0xffffffffffffffffffffffffffffffffffffffff\n      and\n        /* \"TreasuryManagerAVA.sol\":4762:4766  fees */\n      dup4\n        /* \"TreasuryManagerAVA.sol\":4723:4767  s_linkToken.approve(address(s_router), fees) */\n      mload(0x40)\n      dup4\n      0xffffffff\n      and\n      0xe0\n      shl\n      dup2\n      mstore\n      0x04\n      add\n      tag_125\n      swap3\n      swap2\n      swap1\n      tag_76\n      jump\t// in\n    tag_125:\n      0x20\n      mload(0x40)\n      dup1\n      dup4\n      sub\n      dup2\n      0x00\n      dup8\n      gas\n      call\n      iszero\n      dup1\n      iszero\n      tag_127\n      jumpi\n      returndatasize\n      0x00\n      dup1\n      returndatacopy\n      revert(0x00, returndatasize)\n    tag_127:\n      pop\n      pop\n      pop\n      pop\n      mload(0x40)\n      returndatasize\n      not(0x1f)\n      0x1f\n      dup3\n      add\n      and\n      dup3\n      add\n      dup1\n      0x40\n      mstore\n      pop\n      dup2\n      add\n      swap1\n      tag_128\n      swap2\n      swap1\n      tag_80\n      jump\t// in\n    tag_128:\n      pop\n        /* \"TreasuryManagerAVA.sol\":4897:4903  _token */\n      dup6\n        /* \"TreasuryManagerAVA.sol\":4890:4912  IERC20(_token).approve */\n      0xffffffffffffffffffffffffffffffffffffffff\n      and\n      0x095ea7b3\n        /* \"TreasuryManagerAVA.sol\":4921:4929  s_router */\n      0x04\n      0x00\n      swap1\n      sload\n      swap1\n      0x0100\n      exp\n      swap1\n      div\n      0xffffffffffffffffffffffffffffffffffffffff\n      and\n        /* \"TreasuryManagerAVA.sol\":4932:4939  _amount */\n      dup8\n        /* \"TreasuryManagerAVA.sol\":4890:4940  IERC20(_token).approve(address(s_router), _amount) */\n      mload(0x40)\n      dup4\n      0xffffffff\n      and\n      0xe0\n      shl\n      dup2\n      mstore\n      0x04\n      add\n      tag_129\n      swap3\n      swap2\n      swap1\n      tag_76\n      jump\t// in\n    tag_129:\n      0x20\n      mload(0x40)\n      dup1\n      dup4\n      sub\n      dup2\n      0x00\n      dup8\n      gas\n      call\n      iszero\n      dup1\n      iszero\n      tag_131\n      jumpi\n      returndatasize\n      0x00\n      dup1\n      returndatacopy\n      revert(0x00, returndatasize)\n    tag_131:\n      pop\n      pop\n      pop\n      pop\n      mload(0x40)\n      returndatasize\n      not(0x1f)\n      0x1f\n      dup3\n      add\n      and\n      dup3\n      add\n      dup1\n      0x40\n      mstore\n      pop\n      dup2\n      add\n      swap1\n      tag_132\n      swap2\n      swap1\n      tag_80\n      jump\t// in\n    tag_132:\n      pop\n        /* \"TreasuryManagerAVA.sol\":5044:5052  s_router */\n      0x04\n      0x00\n      swap1\n      sload\n      swap1\n      0x0100\n      exp\n      swap1\n      div\n      0xffffffffffffffffffffffffffffffffffffffff\n      and\n        /* \"TreasuryManagerAVA.sol\":5044:5061  s_router.ccipSend */\n      0xffffffffffffffffffffffffffffffffffffffff\n      and\n      0x96f4e9f9\n        /* \"TreasuryManagerAVA.sol\":5075:5100  _destinationChainSelector */\n      0x03\n      0x14\n      swap1\n      sload\n      swap1\n      0x0100\n      exp\n      swap1\n      div\n      0xffffffffffffffff\n      and\n        /* \"TreasuryManagerAVA.sol\":5114:5128  evm2AnyMessage */\n      dup5\n        /* \"TreasuryManagerAVA.sol\":5044:5138  s_router.ccipSend(... */\n      mload(0x40)\n      dup4\n      0xffffffff\n      and\n      0xe0\n      shl\n      dup2\n      mstore\n      0x04\n      add\n      tag_133\n      swap3\n      swap2\n      swap1\n      tag_68\n      jump\t// in\n    tag_133:\n      0x20\n      mload(0x40)\n      dup1\n      dup4\n      sub\n      dup2\n      0x00\n      dup8\n      gas\n      call\n      iszero\n      dup1\n      iszero\n      tag_135\n      jumpi\n      returndatasize\n      0x00\n      dup1\n      returndatacopy\n      revert(0x00, returndatasize)\n    tag_135:\n      pop\n      pop\n      pop\n      pop\n      mload(0x40)\n      returndatasize\n      not(0x1f)\n      0x1f\n      dup3\n      add\n      and\n      dup3\n      add\n      dup1\n      0x40\n      mstore\n      pop\n      dup2\n      add\n      swap1\n      tag_136\n      swap2\n      swap1\n      tag_85\n      jump\t// in\n    tag_136:\n        /* \"TreasuryManagerAVA.sol\":5032:5138  messageId = s_router.ccipSend(... */\n      swap4\n      pop\n        /* \"TreasuryManagerAVA.sol\":5254:5279  _destinationChainSelector */\n      0x03\n      0x14\n      swap1\n      sload\n      swap1\n      0x0100\n      exp\n      swap1\n      div\n      0xffffffffffffffff\n      and\n        /* \"TreasuryManagerAVA.sol\":5200:5405  TokensTransferred(... */\n      0xffffffffffffffff\n      and\n        /* \"TreasuryManagerAVA.sol\":5231:5240  messageId */\n      dup5\n        /* \"TreasuryManagerAVA.sol\":5200:5405  TokensTransferred(... */\n      0xc15fb748c32ba4eb29c1c311e78533f93b4425eab49ea87c6fe4279ecadca043\n        /* \"TreasuryManagerAVA.sol\":5293:5302  _receiver */\n      dup10\n        /* \"TreasuryManagerAVA.sol\":5316:5322  _token */\n      dup10\n        /* \"TreasuryManagerAVA.sol\":5336:5343  _amount */\n      dup10\n        /* \"TreasuryManagerAVA.sol\":5365:5376  s_linkToken */\n      0x05\n      0x00\n      swap1\n      sload\n      swap1\n      0x0100\n      exp\n      swap1\n      div\n      0xffffffffffffffffffffffffffffffffffffffff\n      and\n        /* \"TreasuryManagerAVA.sol\":5391:5395  fees */\n      dup8\n        /* \"TreasuryManagerAVA.sol\":5200:5405  TokensTransferred(... */\n      mload(0x40)\n      tag_137\n      swap6\n      swap5\n      swap4\n      swap3\n      swap2\n      swap1\n      tag_87\n      jump\t// in\n    tag_137:\n      mload(0x40)\n      dup1\n      swap2\n      sub\n      swap1\n      log3\n        /* \"TreasuryManagerAVA.sol\":5449:5465  return messageId */\n      pop\n      pop\n        /* \"@chainlink/contracts/src/v0.8/shared/access/ConfirmedOwnerWithProposal.sol\":2101:2102  _ */\n      pop\n        /* \"TreasuryManagerAVA.sol\":3718:5472  function transferTokensPayLINK(... */\n      swap4\n      swap3\n      pop\n      pop\n      pop\n      jump\t// out\n        /* \"@chainlink/contracts/src/v0.8/shared/access/ConfirmedOwnerWithProposal.sol\":847:945  function transferOwnership(address to) public override onlyOwner {... */\n    tag_47:\n        /* \"@chainlink/contracts/src/v0.8/shared/access/ConfirmedOwnerWithProposal.sol\":2075:2095  _validateOwnership() */\n      tag_139\n        /* \"@chainlink/contracts/src/v0.8/shared/access/ConfirmedOwnerWithProposal.sol\":2075:2093  _validateOwnership */\n      tag_50\n        /* \"@chainlink/contracts/src/v0.8/shared/access/ConfirmedOwnerWithProposal.sol\":2075:2095  _validateOwnership() */\n      jump\t// in\n    tag_139:\n        /* \"@chainlink/contracts/src/v0.8/shared/access/ConfirmedOwnerWithProposal.sol\":918:940  _transferOwnership(to) */\n      tag_141\n        /* \"@chainlink/contracts/src/v0.8/shared/access/ConfirmedOwnerWithProposal.sol\":937:939  to */\n      dup2\n        /* \"@chainlink/contracts/src/v0.8/shared/access/ConfirmedOwnerWithProposal.sol\":918:936  _transferOwnership */\n      tag_142\n        /* \"@chainlink/contracts/src/v0.8/shared/access/ConfirmedOwnerWithProposal.sol\":918:940  _transferOwnership(to) */\n      jump\t// in\n    tag_141:\n        /* \"@chainlink/contracts/src/v0.8/shared/access/ConfirmedOwnerWithProposal.sol\":847:945  function transferOwnership(address to) public override onlyOwner {... */\n      pop\n      jump\t// out\n        /* \"@chainlink/contracts/src/v0.8/shared/access/ConfirmedOwnerWithProposal.sol\":1809:1971  function _validateOwnership() internal view {... */\n    tag_50:\n        /* \"@chainlink/contracts/src/v0.8/shared/access/ConfirmedOwnerWithProposal.sol\":1932:1939  s_owner */\n      0x00\n      dup1\n      sload\n      swap1\n      0x0100\n      exp\n      swap1\n      div\n      0xffffffffffffffffffffffffffffffffffffffff\n      and\n        /* \"@chainlink/contracts/src/v0.8/shared/access/ConfirmedOwnerWithProposal.sol\":1918:1939  msg.sender == s_owner */\n      0xffffffffffffffffffffffffffffffffffffffff\n      and\n        /* \"@chainlink/contracts/src/v0.8/shared/access/ConfirmedOwnerWithProposal.sol\":1918:1928  msg.sender */\n      caller\n        /* \"@chainlink/contracts/src/v0.8/shared/access/ConfirmedOwnerWithProposal.sol\":1918:1939  msg.sender == s_owner */\n      0xffffffffffffffffffffffffffffffffffffffff\n      and\n      eq\n        /* \"@chainlink/contracts/src/v0.8/shared/access/ConfirmedOwnerWithProposal.sol\":1910:1966  require(msg.sender == s_owner, \"Only callable by owner\") */\n      tag_144\n      jumpi\n      mload(0x40)\n      0x08c379a000000000000000000000000000000000000000000000000000000000\n      dup2\n      mstore\n      0x04\n      add\n      tag_145\n      swap1\n      tag_146\n      jump\t// in\n    tag_145:\n      mload(0x40)\n      dup1\n      swap2\n      sub\n      swap1\n      revert\n    tag_144:\n        /* \"@chainlink/contracts/src/v0.8/shared/access/ConfirmedOwnerWithProposal.sol\":1809:1971  function _validateOwnership() internal view {... */\n      jump\t// out\n        /* \"@chainlink/contracts/src/v0.8/vendor/openzeppelin-solidity/v4.8.3/contracts/token/ERC20/utils/SafeERC20.sol\":759:928  function safeTransfer(IERC20 token, address to, uint256 value) internal {... */\n    tag_59:\n        /* \"@chainlink/contracts/src/v0.8/vendor/openzeppelin-solidity/v4.8.3/contracts/token/ERC20/utils/SafeERC20.sol\":837:923  _callOptionalReturn(token, abi.encodeWithSelector(token.transfer.selector, to, value)) */\n      tag_148\n        /* \"@chainlink/contracts/src/v0.8/vendor/openzeppelin-solidity/v4.8.3/contracts/token/ERC20/utils/SafeERC20.sol\":857:862  token */\n      dup4\n        /* \"@chainlink/contracts/src/v0.8/vendor/openzeppelin-solidity/v4.8.3/contracts/token/ERC20/utils/SafeERC20.sol\":887:910  token.transfer.selector */\n      shl(0xe0, 0xa9059cbb)\n        /* \"@chainlink/contracts/src/v0.8/vendor/openzeppelin-solidity/v4.8.3/contracts/token/ERC20/utils/SafeERC20.sol\":912:914  to */\n      dup5\n        /* \"@chainlink/contracts/src/v0.8/vendor/openzeppelin-solidity/v4.8.3/contracts/token/ERC20/utils/SafeERC20.sol\":916:921  value */\n      dup5\n        /* \"@chainlink/contracts/src/v0.8/vendor/openzeppelin-solidity/v4.8.3/contracts/token/ERC20/utils/SafeERC20.sol\":864:922  abi.encodeWithSelector(token.transfer.selector, to, value) */\n      add(0x24, mload(0x40))\n      tag_149\n      swap3\n      swap2\n      swap1\n      tag_76\n      jump\t// in\n    tag_149:\n      mload(0x40)\n      0x20\n      dup2\n      dup4\n      sub\n      sub\n      dup2\n      mstore\n      swap1\n      0x40\n      mstore\n      swap1\n      not(0xffffffffffffffffffffffffffffffffffffffffffffffffffffffff)\n      and\n      0x20\n      dup3\n      add\n      dup1\n      mload\n      0xffffffffffffffffffffffffffffffffffffffffffffffffffffffff\n      dup4\n      dup2\n      dup4\n      and\n      or\n      dup4\n      mstore\n      pop\n      pop\n      pop\n      pop\n        /* \"@chainlink/contracts/src/v0.8/vendor/openzeppelin-solidity/v4.8.3/contracts/token/ERC20/utils/SafeERC20.sol\":837:856  _callOptionalReturn */\n      tag_150\n        /* \"@chainlink/contracts/src/v0.8/vendor/openzeppelin-solidity/v4.8.3/contracts/token/ERC20/utils/SafeERC20.sol\":837:923  _callOptionalReturn(token, abi.encodeWithSelector(token.transfer.selector, to, value)) */\n      jump\t// in\n    tag_148:\n        /* \"@chainlink/contracts/src/v0.8/vendor/openzeppelin-solidity/v4.8.3/contracts/token/ERC20/utils/SafeERC20.sol\":759:928  function safeTransfer(IERC20 token, address to, uint256 value) internal {... */\n      pop\n      pop\n      pop\n      jump\t// out\n        /* \"TreasuryManagerAVA.sol\":8345:10247  function _buildCCIPMessage(... */\n    tag_66:\n        /* \"TreasuryManagerAVA.sol\":8510:8538  Client.EVM2AnyMessage memory */\n      tag_151\n      tag_152\n      jump\t// in\n    tag_151:\n        /* \"TreasuryManagerAVA.sol\":8583:8638  Client.EVMTokenAmount[]... */\n      0x00\n        /* \"TreasuryManagerAVA.sol\":8669:8670  1 */\n      0x01\n        /* \"TreasuryManagerAVA.sol\":8641:8671  new Client.EVMTokenAmount[](1) */\n      0xffffffffffffffff\n      dup2\n      gt\n      iszero\n      tag_154\n      jumpi\n      tag_155\n      tag_156\n      jump\t// in\n    tag_155:\n    tag_154:\n      mload(0x40)\n      swap1\n      dup1\n      dup3\n      mstore\n      dup1\n      0x20\n      mul\n      0x20\n      add\n      dup3\n      add\n      0x40\n      mstore\n      dup1\n      iszero\n      tag_157\n      jumpi\n      dup2\n      0x20\n      add\n    tag_158:\n      tag_159\n      tag_160\n      jump\t// in\n    tag_159:\n      dup2\n      mstore\n      0x20\n      add\n      swap1\n      0x01\n      swap1\n      sub\n      swap1\n      dup2\n      tag_158\n      jumpi\n      swap1\n      pop\n    tag_157:\n      pop\n        /* \"TreasuryManagerAVA.sol\":8583:8671  Client.EVMTokenAmount[]... */\n      swap1\n      pop\n        /* \"TreasuryManagerAVA.sol\":8699:8788  Client.EVMTokenAmount({... */\n      mload(0x40)\n      dup1\n      0x40\n      add\n      0x40\n      mstore\n      dup1\n        /* \"TreasuryManagerAVA.sol\":8742:8748  _token */\n      dup7\n        /* \"TreasuryManagerAVA.sol\":8699:8788  Client.EVMTokenAmount({... */\n      0xffffffffffffffffffffffffffffffffffffffff\n      and\n      dup2\n      mstore\n      0x20\n      add\n        /* \"TreasuryManagerAVA.sol\":8770:8777  _amount */\n      dup6\n        /* \"TreasuryManagerAVA.sol\":8699:8788  Client.EVMTokenAmount({... */\n      dup2\n      mstore\n      pop\n        /* \"TreasuryManagerAVA.sol\":8681:8693  tokenAmounts */\n      dup2\n        /* \"TreasuryManagerAVA.sol\":8694:8695  0 */\n      0x00\n        /* \"TreasuryManagerAVA.sol\":8681:8696  tokenAmounts[0] */\n      dup2\n      mload\n      dup2\n      lt\n      tag_161\n      jumpi\n      tag_162\n      tag_163\n      jump\t// in\n    tag_162:\n    tag_161:\n      0x20\n      mul\n      0x20\n      add\n      add\n        /* \"TreasuryManagerAVA.sol\":8681:8788  tokenAmounts[0] = Client.EVMTokenAmount({... */\n      dup2\n      swap1\n      mstore\n      pop\n        /* \"TreasuryManagerAVA.sol\":8932:10240  Client.EVM2AnyMessage({... */\n      mload(0x40)\n      dup1\n      0xa0\n      add\n      0x40\n      mstore\n      dup1\n        /* \"TreasuryManagerAVA.sol\":8993:9002  _receiver */\n      dup8\n        /* \"TreasuryManagerAVA.sol\":8982:9003  abi.encode(_receiver) */\n      add(0x20, mload(0x40))\n      tag_164\n      swap2\n      swap1\n      tag_37\n      jump\t// in\n    tag_164:\n      mload(0x40)\n      0x20\n      dup2\n      dup4\n      sub\n      sub\n      dup2\n      mstore\n      swap1\n      0x40\n      mstore\n        /* \"TreasuryManagerAVA.sol\":8932:10240  Client.EVM2AnyMessage({... */\n      dup2\n      mstore\n      0x20\n      add\n      mload(0x40)\n      dup1\n      0x20\n      add\n      0x40\n      mstore\n      dup1\n      0x00\n      dup2\n      mstore\n      pop\n      dup2\n      mstore\n      0x20\n      add\n        /* \"TreasuryManagerAVA.sol\":9104:9116  tokenAmounts */\n      dup3\n        /* \"TreasuryManagerAVA.sol\":8932:10240  Client.EVM2AnyMessage({... */\n      dup2\n      mstore\n      0x20\n      add\n        /* \"TreasuryManagerAVA.sol\":10209:10225  _feeTokenAddress */\n      dup5\n        /* \"TreasuryManagerAVA.sol\":8932:10240  Client.EVM2AnyMessage({... */\n      0xffffffffffffffffffffffffffffffffffffffff\n      and\n      dup2\n      mstore\n      0x20\n      add\n        /* \"TreasuryManagerAVA.sol\":9195:10075  Client._argsToBytes(... */\n      tag_165\n        /* \"TreasuryManagerAVA.sol\":9762:10057  Client.GenericExtraArgsV2({... */\n      mload(0x40)\n      dup1\n      0x40\n      add\n      0x40\n      mstore\n      dup1\n        /* \"TreasuryManagerAVA.sol\":9824:9825  0 */\n      0x00\n        /* \"TreasuryManagerAVA.sol\":9762:10057  Client.GenericExtraArgsV2({... */\n      dup2\n      mstore\n      0x20\n      add\n        /* \"TreasuryManagerAVA.sol\":9932:9936  true */\n      0x01\n        /* \"TreasuryManagerAVA.sol\":9762:10057  Client.GenericExtraArgsV2({... */\n      iszero\n      iszero\n      dup2\n      mstore\n      pop\n        /* \"TreasuryManagerAVA.sol\":9195:9214  Client._argsToBytes */\n      tag_166\n        /* \"TreasuryManagerAVA.sol\":9195:10075  Client._argsToBytes(... */\n      jump\t// in\n    tag_165:\n        /* \"TreasuryManagerAVA.sol\":8932:10240  Client.EVM2AnyMessage({... */\n      dup2\n      mstore\n      pop\n        /* \"TreasuryManagerAVA.sol\":8913:10240  return... */\n      swap2\n      pop\n      pop\n        /* \"TreasuryManagerAVA.sol\":8345:10247  function _buildCCIPMessage(... */\n      swap5\n      swap4\n      pop\n      pop\n      pop\n      pop\n      jump\t// out\n        /* \"@chainlink/contracts/src/v0.8/shared/access/ConfirmedOwnerWithProposal.sol\":1536:1775  function _transferOwnership(address to) private {... */\n    tag_142:\n        /* \"@chainlink/contracts/src/v0.8/shared/access/ConfirmedOwnerWithProposal.sol\":1655:1665  msg.sender */\n      caller\n        /* \"@chainlink/contracts/src/v0.8/shared/access/ConfirmedOwnerWithProposal.sol\":1649:1665  to != msg.sender */\n      0xffffffffffffffffffffffffffffffffffffffff\n      and\n        /* \"@chainlink/contracts/src/v0.8/shared/access/ConfirmedOwnerWithProposal.sol\":1649:1651  to */\n      dup2\n        /* \"@chainlink/contracts/src/v0.8/shared/access/ConfirmedOwnerWithProposal.sol\":1649:1665  to != msg.sender */\n      0xffffffffffffffffffffffffffffffffffffffff\n      and\n      sub\n        /* \"@chainlink/contracts/src/v0.8/shared/access/ConfirmedOwnerWithProposal.sol\":1641:1693  require(to != msg.sender, \"Cannot transfer to self\") */\n      tag_168\n      jumpi\n      mload(0x40)\n      0x08c379a000000000000000000000000000000000000000000000000000000000\n      dup2\n      mstore\n      0x04\n      add\n      tag_169\n      swap1\n      tag_170\n      jump\t// in\n    tag_169:\n      mload(0x40)\n      dup1\n      swap2\n      sub\n      swap1\n      revert\n    tag_168:\n        /* \"@chainlink/contracts/src/v0.8/shared/access/ConfirmedOwnerWithProposal.sol\":1717:1719  to */\n      dup1\n        /* \"@chainlink/contracts/src/v0.8/shared/access/ConfirmedOwnerWithProposal.sol\":1700:1714  s_pendingOwner */\n      0x01\n      0x00\n        /* \"@chainlink/contracts/src/v0.8/shared/access/ConfirmedOwnerWithProposal.sol\":1700:1719  s_pendingOwner = to */\n      0x0100\n      exp\n      dup2\n      sload\n      dup2\n      0xffffffffffffffffffffffffffffffffffffffff\n      mul\n      not\n      and\n      swap1\n      dup4\n      0xffffffffffffffffffffffffffffffffffffffff\n      and\n      mul\n      or\n      swap1\n      sstore\n      pop\n        /* \"@chainlink/contracts/src/v0.8/shared/access/ConfirmedOwnerWithProposal.sol\":1767:1769  to */\n      dup1\n        /* \"@chainlink/contracts/src/v0.8/shared/access/ConfirmedOwnerWithProposal.sol\":1731:1770  OwnershipTransferRequested(s_owner, to) */\n      0xffffffffffffffffffffffffffffffffffffffff\n      and\n        /* \"@chainlink/contracts/src/v0.8/shared/access/ConfirmedOwnerWithProposal.sol\":1758:1765  s_owner */\n      0x00\n      dup1\n      sload\n      swap1\n      0x0100\n      exp\n      swap1\n      div\n      0xffffffffffffffffffffffffffffffffffffffff\n      and\n        /* \"@chainlink/contracts/src/v0.8/shared/access/ConfirmedOwnerWithProposal.sol\":1731:1770  OwnershipTransferRequested(s_owner, to) */\n      0xffffffffffffffffffffffffffffffffffffffff\n      and\n      0xed8889f560326eb138920d842192f0eb3dd22b4f139c87a2c57538e05bae1278\n      mload(0x40)\n      mload(0x40)\n      dup1\n      swap2\n      sub\n      swap1\n      log3\n        /* \"@chainlink/contracts/src/v0.8/shared/access/ConfirmedOwnerWithProposal.sol\":1536:1775  function _transferOwnership(address to) private {... */\n      pop\n      jump\t// out\n        /* \"@chainlink/contracts/src/v0.8/vendor/openzeppelin-solidity/v4.8.3/contracts/token/ERC20/utils/SafeERC20.sol\":3401:4069  function _callOptionalReturn(IERC20 token, bytes memory data) private {... */\n    tag_150:\n        /* \"@chainlink/contracts/src/v0.8/vendor/openzeppelin-solidity/v4.8.3/contracts/token/ERC20/utils/SafeERC20.sol\":3804:3827  bytes memory returndata */\n      0x00\n        /* \"@chainlink/contracts/src/v0.8/vendor/openzeppelin-solidity/v4.8.3/contracts/token/ERC20/utils/SafeERC20.sol\":3830:3899  address(token).functionCall(data, \"SafeERC20: low-level call failed\") */\n      tag_172\n        /* \"@chainlink/contracts/src/v0.8/vendor/openzeppelin-solidity/v4.8.3/contracts/token/ERC20/utils/SafeERC20.sol\":3858:3862  data */\n      dup3\n        /* \"@chainlink/contracts/src/v0.8/vendor/openzeppelin-solidity/v4.8.3/contracts/token/ERC20/utils/SafeERC20.sol\":3830:3899  address(token).functionCall(data, \"SafeERC20: low-level call failed\") */\n      mload(0x40)\n      dup1\n      0x40\n      add\n      0x40\n      mstore\n      dup1\n      0x20\n      dup2\n      mstore\n      0x20\n      add\n      0x5361666545524332303a206c6f772d6c6576656c2063616c6c206661696c6564\n      dup2\n      mstore\n      pop\n        /* \"@chainlink/contracts/src/v0.8/vendor/openzeppelin-solidity/v4.8.3/contracts/token/ERC20/utils/SafeERC20.sol\":3838:3843  token */\n      dup6\n        /* \"@chainlink/contracts/src/v0.8/vendor/openzeppelin-solidity/v4.8.3/contracts/token/ERC20/utils/SafeERC20.sol\":3830:3857  address(token).functionCall */\n      0xffffffffffffffffffffffffffffffffffffffff\n      and\n      tag_173\n      swap1\n        /* \"@chainlink/contracts/src/v0.8/vendor/openzeppelin-solidity/v4.8.3/contracts/token/ERC20/utils/SafeERC20.sol\":3830:3899  address(token).functionCall(data, \"SafeERC20: low-level call failed\") */\n      swap3\n      swap2\n      swap1\n      0xffffffff\n      and\n      jump\t// in\n    tag_172:\n        /* \"@chainlink/contracts/src/v0.8/vendor/openzeppelin-solidity/v4.8.3/contracts/token/ERC20/utils/SafeERC20.sol\":3804:3899  bytes memory returndata = address(token).functionCall(data, \"SafeERC20: low-level call failed\") */\n      swap1\n      pop\n        /* \"@chainlink/contracts/src/v0.8/vendor/openzeppelin-solidity/v4.8.3/contracts/token/ERC20/utils/SafeERC20.sol\":3929:3930  0 */\n      0x00\n        /* \"@chainlink/contracts/src/v0.8/vendor/openzeppelin-solidity/v4.8.3/contracts/token/ERC20/utils/SafeERC20.sol\":3909:3919  returndata */\n      dup2\n        /* \"@chainlink/contracts/src/v0.8/vendor/openzeppelin-solidity/v4.8.3/contracts/token/ERC20/utils/SafeERC20.sol\":3909:3926  returndata.length */\n      mload\n        /* \"@chainlink/contracts/src/v0.8/vendor/openzeppelin-solidity/v4.8.3/contracts/token/ERC20/utils/SafeERC20.sol\":3909:3930  returndata.length > 0 */\n      gt\n        /* \"@chainlink/contracts/src/v0.8/vendor/openzeppelin-solidity/v4.8.3/contracts/token/ERC20/utils/SafeERC20.sol\":3905:4065  if (returndata.length > 0) {... */\n      iszero\n      tag_174\n      jumpi\n        /* \"@chainlink/contracts/src/v0.8/vendor/openzeppelin-solidity/v4.8.3/contracts/token/ERC20/utils/SafeERC20.sol\":3992:4002  returndata */\n      dup1\n        /* \"@chainlink/contracts/src/v0.8/vendor/openzeppelin-solidity/v4.8.3/contracts/token/ERC20/utils/SafeERC20.sol\":3981:4011  abi.decode(returndata, (bool)) */\n      dup1\n      0x20\n      add\n      swap1\n      mload\n      dup2\n      add\n      swap1\n      tag_175\n      swap2\n      swap1\n      tag_80\n      jump\t// in\n    tag_175:\n        /* \"@chainlink/contracts/src/v0.8/vendor/openzeppelin-solidity/v4.8.3/contracts/token/ERC20/utils/SafeERC20.sol\":3973:4058  require(abi.decode(returndata, (bool)), \"SafeERC20: ERC20 operation did not succeed\") */\n      tag_176\n      jumpi\n      mload(0x40)\n      0x08c379a000000000000000000000000000000000000000000000000000000000\n      dup2\n      mstore\n      0x04\n      add\n      tag_177\n      swap1\n      tag_178\n      jump\t// in\n    tag_177:\n      mload(0x40)\n      dup1\n      swap2\n      sub\n      swap1\n      revert\n    tag_176:\n        /* \"@chainlink/contracts/src/v0.8/vendor/openzeppelin-solidity/v4.8.3/contracts/token/ERC20/utils/SafeERC20.sol\":3905:4065  if (returndata.length > 0) {... */\n    tag_174:\n        /* \"@chainlink/contracts/src/v0.8/vendor/openzeppelin-solidity/v4.8.3/contracts/token/ERC20/utils/SafeERC20.sol\":3471:4069  {... */\n      pop\n        /* \"@chainlink/contracts/src/v0.8/vendor/openzeppelin-solidity/v4.8.3/contracts/token/ERC20/utils/SafeERC20.sol\":3401:4069  function _callOptionalReturn(IERC20 token, bytes memory data) private {... */\n      pop\n      pop\n      jump\t// out\n        /* \"@chainlink/contracts-ccip/contracts/libraries/Client.sol\":4328:4514  function _argsToBytes(... */\n    tag_166:\n        /* \"@chainlink/contracts-ccip/contracts/libraries/Client.sol\":4418:4434  bytes memory bts */\n      0x60\n        /* \"@chainlink/contracts-ccip/contracts/libraries/Client.sol\":1861:1871  0x181dcf10 */\n      0x181dcf10\n        /* \"@chainlink/contracts-ccip/contracts/libraries/Client.sol\":4472:4497  GENERIC_EXTRA_ARGS_V2_TAG */\n      0xe0\n      shl\n        /* \"@chainlink/contracts-ccip/contracts/libraries/Client.sol\":4499:4508  extraArgs */\n      dup3\n        /* \"@chainlink/contracts-ccip/contracts/libraries/Client.sol\":4449:4509  abi.encodeWithSelector(GENERIC_EXTRA_ARGS_V2_TAG, extraArgs) */\n      add(0x24, mload(0x40))\n      tag_180\n      swap2\n      swap1\n      tag_181\n      jump\t// in\n    tag_180:\n      mload(0x40)\n      0x20\n      dup2\n      dup4\n      sub\n      sub\n      dup2\n      mstore\n      swap1\n      0x40\n      mstore\n      swap1\n      not(0xffffffffffffffffffffffffffffffffffffffffffffffffffffffff)\n      and\n      0x20\n      dup3\n      add\n      dup1\n      mload\n      0xffffffffffffffffffffffffffffffffffffffffffffffffffffffff\n      dup4\n      dup2\n      dup4\n      and\n      or\n      dup4\n      mstore\n      pop\n      pop\n      pop\n      pop\n        /* \"@chainlink/contracts-ccip/contracts/libraries/Client.sol\":4442:4509  return abi.encodeWithSelector(GENERIC_EXTRA_ARGS_V2_TAG, extraArgs) */\n      swap1\n      pop\n        /* \"@chainlink/contracts-ccip/contracts/libraries/Client.sol\":4328:4514  function _argsToBytes(... */\n      swap2\n      swap1\n      pop\n      jump\t// out\n        /* \"@chainlink/contracts/src/v0.8/vendor/openzeppelin-solidity/v4.8.3/contracts/utils/Address.sol\":3695:3882  function functionCall(address target, bytes memory data, string memory errorMessage) internal returns (bytes memory) {... */\n    tag_173:\n        /* \"@chainlink/contracts/src/v0.8/vendor/openzeppelin-solidity/v4.8.3/contracts/utils/Address.sol\":3798:3810  bytes memory */\n      0x60\n        /* \"@chainlink/contracts/src/v0.8/vendor/openzeppelin-solidity/v4.8.3/contracts/utils/Address.sol\":3825:3877  functionCallWithValue(target, data, 0, errorMessage) */\n      tag_183\n        /* \"@chainlink/contracts/src/v0.8/vendor/openzeppelin-solidity/v4.8.3/contracts/utils/Address.sol\":3847:3853  target */\n      dup5\n        /* \"@chainlink/contracts/src/v0.8/vendor/openzeppelin-solidity/v4.8.3/contracts/utils/Address.sol\":3855:3859  data */\n      dup5\n        /* \"@chainlink/contracts/src/v0.8/vendor/openzeppelin-solidity/v4.8.3/contracts/utils/Address.sol\":3861:3862  0 */\n      0x00\n        /* \"@chainlink/contracts/src/v0.8/vendor/openzeppelin-solidity/v4.8.3/contracts/utils/Address.sol\":3864:3876  errorMessage */\n      dup6\n        /* \"@chainlink/contracts/src/v0.8/vendor/openzeppelin-solidity/v4.8.3/contracts/utils/Address.sol\":3825:3846  functionCallWithValue */\n      tag_184\n        /* \"@chainlink/contracts/src/v0.8/vendor/openzeppelin-solidity/v4.8.3/contracts/utils/Address.sol\":3825:3877  functionCallWithValue(target, data, 0, errorMessage) */\n      jump\t// in\n    tag_183:\n        /* \"@chainlink/contracts/src/v0.8/vendor/openzeppelin-solidity/v4.8.3/contracts/utils/Address.sol\":3818:3877  return functionCallWithValue(target, data, 0, errorMessage) */\n      swap1\n      pop\n        /* \"@chainlink/contracts/src/v0.8/vendor/openzeppelin-solidity/v4.8.3/contracts/utils/Address.sol\":3695:3882  function functionCall(address target, bytes memory data, string memory errorMessage) internal returns (bytes memory) {... */\n      swap4\n      swap3\n      pop\n      pop\n      pop\n      jump\t// out\n        /* \"@chainlink/contracts/src/v0.8/vendor/openzeppelin-solidity/v4.8.3/contracts/utils/Address.sol\":4672:5086  function functionCallWithValue(... */\n    tag_184:\n        /* \"@chainlink/contracts/src/v0.8/vendor/openzeppelin-solidity/v4.8.3/contracts/utils/Address.sol\":4819:4831  bytes memory */\n      0x60\n        /* \"@chainlink/contracts/src/v0.8/vendor/openzeppelin-solidity/v4.8.3/contracts/utils/Address.sol\":4872:4877  value */\n      dup3\n        /* \"@chainlink/contracts/src/v0.8/vendor/openzeppelin-solidity/v4.8.3/contracts/utils/Address.sol\":4847:4868  address(this).balance */\n      selfbalance\n        /* \"@chainlink/contracts/src/v0.8/vendor/openzeppelin-solidity/v4.8.3/contracts/utils/Address.sol\":4847:4877  address(this).balance >= value */\n      lt\n      iszero\n        /* \"@chainlink/contracts/src/v0.8/vendor/openzeppelin-solidity/v4.8.3/contracts/utils/Address.sol\":4839:4920  require(address(this).balance >= value, \"Address: insufficient balance for call\") */\n      tag_186\n      jumpi\n      mload(0x40)\n      0x08c379a000000000000000000000000000000000000000000000000000000000\n      dup2\n      mstore\n      0x04\n      add\n      tag_187\n      swap1\n      tag_188\n      jump\t// in\n    tag_187:\n      mload(0x40)\n      dup1\n      swap2\n      sub\n      swap1\n      revert\n    tag_186:\n        /* \"@chainlink/contracts/src/v0.8/vendor/openzeppelin-solidity/v4.8.3/contracts/utils/Address.sol\":4927:4939  bool success */\n      0x00\n        /* \"@chainlink/contracts/src/v0.8/vendor/openzeppelin-solidity/v4.8.3/contracts/utils/Address.sol\":4941:4964  bytes memory returndata */\n      dup1\n        /* \"@chainlink/contracts/src/v0.8/vendor/openzeppelin-solidity/v4.8.3/contracts/utils/Address.sol\":4968:4974  target */\n      dup7\n        /* \"@chainlink/contracts/src/v0.8/vendor/openzeppelin-solidity/v4.8.3/contracts/utils/Address.sol\":4968:4979  target.call */\n      0xffffffffffffffffffffffffffffffffffffffff\n      and\n        /* \"@chainlink/contracts/src/v0.8/vendor/openzeppelin-solidity/v4.8.3/contracts/utils/Address.sol\":4987:4992  value */\n      dup6\n        /* \"@chainlink/contracts/src/v0.8/vendor/openzeppelin-solidity/v4.8.3/contracts/utils/Address.sol\":4994:4998  data */\n      dup8\n        /* \"@chainlink/contracts/src/v0.8/vendor/openzeppelin-solidity/v4.8.3/contracts/utils/Address.sol\":4968:4999  target.call{value: value}(data) */\n      mload(0x40)\n      tag_189\n      swap2\n      swap1\n      tag_190\n      jump\t// in\n    tag_189:\n      0x00\n      mload(0x40)\n      dup1\n      dup4\n      sub\n      dup2\n      dup6\n      dup8\n      gas\n      call\n      swap3\n      pop\n      pop\n      pop\n      returndatasize\n      dup1\n      0x00\n      dup2\n      eq\n      tag_193\n      jumpi\n      mload(0x40)\n      swap2\n      pop\n      and(add(returndatasize, 0x3f), not(0x1f))\n      dup3\n      add\n      0x40\n      mstore\n      returndatasize\n      dup3\n      mstore\n      returndatasize\n      0x00\n      0x20\n      dup5\n      add\n      returndatacopy\n      jump(tag_192)\n    tag_193:\n      0x60\n      swap2\n      pop\n    tag_192:\n      pop\n        /* \"@chainlink/contracts/src/v0.8/vendor/openzeppelin-solidity/v4.8.3/contracts/utils/Address.sol\":4926:4999  (bool success, bytes memory returndata) = target.call{value: value}(data) */\n      swap2\n      pop\n      swap2\n      pop\n        /* \"@chainlink/contracts/src/v0.8/vendor/openzeppelin-solidity/v4.8.3/contracts/utils/Address.sol\":5012:5081  verifyCallResultFromTarget(target, success, returndata, errorMessage) */\n      tag_194\n        /* \"@chainlink/contracts/src/v0.8/vendor/openzeppelin-solidity/v4.8.3/contracts/utils/Address.sol\":5039:5045  target */\n      dup8\n        /* \"@chainlink/contracts/src/v0.8/vendor/openzeppelin-solidity/v4.8.3/contracts/utils/Address.sol\":5047:5054  success */\n      dup4\n        /* \"@chainlink/contracts/src/v0.8/vendor/openzeppelin-solidity/v4.8.3/contracts/utils/Address.sol\":5056:5066  returndata */\n      dup4\n        /* \"@chainlink/contracts/src/v0.8/vendor/openzeppelin-solidity/v4.8.3/contracts/utils/Address.sol\":5068:5080  errorMessage */\n      dup8\n        /* \"@chainlink/contracts/src/v0.8/vendor/openzeppelin-solidity/v4.8.3/contracts/utils/Address.sol\":5012:5038  verifyCallResultFromTarget */\n      tag_195\n        /* \"@chainlink/contracts/src/v0.8/vendor/openzeppelin-solidity/v4.8.3/contracts/utils/Address.sol\":5012:5081  verifyCallResultFromTarget(target, success, returndata, errorMessage) */\n      jump\t// in\n    tag_194:\n        /* \"@chainlink/contracts/src/v0.8/vendor/openzeppelin-solidity/v4.8.3/contracts/utils/Address.sol\":5005:5081  return verifyCallResultFromTarget(target, success, returndata, errorMessage) */\n      swap3\n      pop\n      pop\n      pop\n        /* \"@chainlink/contracts/src/v0.8/vendor/openzeppelin-solidity/v4.8.3/contracts/utils/Address.sol\":4672:5086  function functionCallWithValue(... */\n      swap5\n      swap4\n      pop\n      pop\n      pop\n      pop\n      jump\t// out\n        /* \"@chainlink/contracts/src/v0.8/vendor/openzeppelin-solidity/v4.8.3/contracts/utils/Address.sol\":7016:7564  function verifyCallResultFromTarget(... */\n    tag_195:\n        /* \"@chainlink/contracts/src/v0.8/vendor/openzeppelin-solidity/v4.8.3/contracts/utils/Address.sol\":7178:7190  bytes memory */\n      0x60\n        /* \"@chainlink/contracts/src/v0.8/vendor/openzeppelin-solidity/v4.8.3/contracts/utils/Address.sol\":7202:7209  success */\n      dup4\n        /* \"@chainlink/contracts/src/v0.8/vendor/openzeppelin-solidity/v4.8.3/contracts/utils/Address.sol\":7198:7560  if (success) {... */\n      iszero\n      tag_197\n      jumpi\n        /* \"@chainlink/contracts/src/v0.8/vendor/openzeppelin-solidity/v4.8.3/contracts/utils/Address.sol\":7244:7245  0 */\n      0x00\n        /* \"@chainlink/contracts/src/v0.8/vendor/openzeppelin-solidity/v4.8.3/contracts/utils/Address.sol\":7223:7233  returndata */\n      dup4\n        /* \"@chainlink/contracts/src/v0.8/vendor/openzeppelin-solidity/v4.8.3/contracts/utils/Address.sol\":7223:7240  returndata.length */\n      mload\n        /* \"@chainlink/contracts/src/v0.8/vendor/openzeppelin-solidity/v4.8.3/contracts/utils/Address.sol\":7223:7245  returndata.length == 0 */\n      sub\n        /* \"@chainlink/contracts/src/v0.8/vendor/openzeppelin-solidity/v4.8.3/contracts/utils/Address.sol\":7219:7475  if (returndata.length == 0) {... */\n      tag_198\n      jumpi\n        /* \"@chainlink/contracts/src/v0.8/vendor/openzeppelin-solidity/v4.8.3/contracts/utils/Address.sol\":7414:7432  isContract(target) */\n      tag_199\n        /* \"@chainlink/contracts/src/v0.8/vendor/openzeppelin-solidity/v4.8.3/contracts/utils/Address.sol\":7425:7431  target */\n      dup6\n        /* \"@chainlink/contracts/src/v0.8/vendor/openzeppelin-solidity/v4.8.3/contracts/utils/Address.sol\":7414:7424  isContract */\n      tag_200\n        /* \"@chainlink/contracts/src/v0.8/vendor/openzeppelin-solidity/v4.8.3/contracts/utils/Address.sol\":7414:7432  isContract(target) */\n      jump\t// in\n    tag_199:\n        /* \"@chainlink/contracts/src/v0.8/vendor/openzeppelin-solidity/v4.8.3/contracts/utils/Address.sol\":7406:7466  require(isContract(target), \"Address: call to non-contract\") */\n      tag_201\n      jumpi\n      mload(0x40)\n      0x08c379a000000000000000000000000000000000000000000000000000000000\n      dup2\n      mstore\n      0x04\n      add\n      tag_202\n      swap1\n      tag_203\n      jump\t// in\n    tag_202:\n      mload(0x40)\n      dup1\n      swap2\n      sub\n      swap1\n      revert\n    tag_201:\n        /* \"@chainlink/contracts/src/v0.8/vendor/openzeppelin-solidity/v4.8.3/contracts/utils/Address.sol\":7219:7475  if (returndata.length == 0) {... */\n    tag_198:\n        /* \"@chainlink/contracts/src/v0.8/vendor/openzeppelin-solidity/v4.8.3/contracts/utils/Address.sol\":7489:7499  returndata */\n      dup3\n        /* \"@chainlink/contracts/src/v0.8/vendor/openzeppelin-solidity/v4.8.3/contracts/utils/Address.sol\":7482:7499  return returndata */\n      swap1\n      pop\n      jump(tag_196)\n        /* \"@chainlink/contracts/src/v0.8/vendor/openzeppelin-solidity/v4.8.3/contracts/utils/Address.sol\":7198:7560  if (success) {... */\n    tag_197:\n        /* \"@chainlink/contracts/src/v0.8/vendor/openzeppelin-solidity/v4.8.3/contracts/utils/Address.sol\":7520:7553  _revert(returndata, errorMessage) */\n      tag_205\n        /* \"@chainlink/contracts/src/v0.8/vendor/openzeppelin-solidity/v4.8.3/contracts/utils/Address.sol\":7528:7538  returndata */\n      dup4\n        /* \"@chainlink/contracts/src/v0.8/vendor/openzeppelin-solidity/v4.8.3/contracts/utils/Address.sol\":7540:7552  errorMessage */\n      dup4\n        /* \"@chainlink/contracts/src/v0.8/vendor/openzeppelin-solidity/v4.8.3/contracts/utils/Address.sol\":7520:7527  _revert */\n      tag_206\n        /* \"@chainlink/contracts/src/v0.8/vendor/openzeppelin-solidity/v4.8.3/contracts/utils/Address.sol\":7520:7553  _revert(returndata, errorMessage) */\n      jump\t// in\n    tag_205:\n        /* \"@chainlink/contracts/src/v0.8/vendor/openzeppelin-solidity/v4.8.3/contracts/utils/Address.sol\":7016:7564  function verifyCallResultFromTarget(... */\n    tag_196:\n      swap5\n      swap4\n      pop\n      pop\n      pop\n      pop\n      jump\t// out\n        /* \"@chainlink/contracts/src/v0.8/vendor/openzeppelin-solidity/v4.8.3/contracts/utils/Address.sol\":1121:1423  function isContract(address account) internal view returns (bool) {... */\n    tag_200:\n        /* \"@chainlink/contracts/src/v0.8/vendor/openzeppelin-solidity/v4.8.3/contracts/utils/Address.sol\":1181:1185  bool */\n      0x00\n        /* \"@chainlink/contracts/src/v0.8/vendor/openzeppelin-solidity/v4.8.3/contracts/utils/Address.sol\":1417:1418  0 */\n      dup1\n        /* \"@chainlink/contracts/src/v0.8/vendor/openzeppelin-solidity/v4.8.3/contracts/utils/Address.sol\":1395:1402  account */\n      dup3\n        /* \"@chainlink/contracts/src/v0.8/vendor/openzeppelin-solidity/v4.8.3/contracts/utils/Address.sol\":1395:1414  account.code.length */\n      0xffffffffffffffffffffffffffffffffffffffff\n      and\n      extcodesize\n        /* \"@chainlink/contracts/src/v0.8/vendor/openzeppelin-solidity/v4.8.3/contracts/utils/Address.sol\":1395:1418  account.code.length > 0 */\n      gt\n        /* \"@chainlink/contracts/src/v0.8/vendor/openzeppelin-solidity/v4.8.3/contracts/utils/Address.sol\":1388:1418  return account.code.length > 0 */\n      swap1\n      pop\n        /* \"@chainlink/contracts/src/v0.8/vendor/openzeppelin-solidity/v4.8.3/contracts/utils/Address.sol\":1121:1423  function isContract(address account) internal view returns (bool) {... */\n      swap2\n      swap1\n      pop\n      jump\t// out\n        /* \"@chainlink/contracts/src/v0.8/vendor/openzeppelin-solidity/v4.8.3/contracts/utils/Address.sol\":8030:8506  function _revert(bytes memory returndata, string memory errorMessage) private pure {... */\n    tag_206:\n        /* \"@chainlink/contracts/src/v0.8/vendor/openzeppelin-solidity/v4.8.3/contracts/utils/Address.sol\":8201:8202  0 */\n      0x00\n        /* \"@chainlink/contracts/src/v0.8/vendor/openzeppelin-solidity/v4.8.3/contracts/utils/Address.sol\":8181:8191  returndata */\n      dup3\n        /* \"@chainlink/contracts/src/v0.8/vendor/openzeppelin-solidity/v4.8.3/contracts/utils/Address.sol\":8181:8198  returndata.length */\n      mload\n        /* \"@chainlink/contracts/src/v0.8/vendor/openzeppelin-solidity/v4.8.3/contracts/utils/Address.sol\":8181:8202  returndata.length > 0 */\n      gt\n        /* \"@chainlink/contracts/src/v0.8/vendor/openzeppelin-solidity/v4.8.3/contracts/utils/Address.sol\":8177:8502  if (returndata.length > 0) {... */\n      iszero\n      tag_209\n      jumpi\n        /* \"@chainlink/contracts/src/v0.8/vendor/openzeppelin-solidity/v4.8.3/contracts/utils/Address.sol\":8383:8393  returndata */\n      dup2\n        /* \"@chainlink/contracts/src/v0.8/vendor/openzeppelin-solidity/v4.8.3/contracts/utils/Address.sol\":8377:8394  mload(returndata) */\n      mload\n        /* \"@chainlink/contracts/src/v0.8/vendor/openzeppelin-solidity/v4.8.3/contracts/utils/Address.sol\":8431:8446  returndata_size */\n      dup1\n        /* \"@chainlink/contracts/src/v0.8/vendor/openzeppelin-solidity/v4.8.3/contracts/utils/Address.sol\":8418:8428  returndata */\n      dup4\n        /* \"@chainlink/contracts/src/v0.8/vendor/openzeppelin-solidity/v4.8.3/contracts/utils/Address.sol\":8414:8416  32 */\n      0x20\n        /* \"@chainlink/contracts/src/v0.8/vendor/openzeppelin-solidity/v4.8.3/contracts/utils/Address.sol\":8410:8429  add(32, returndata) */\n      add\n        /* \"@chainlink/contracts/src/v0.8/vendor/openzeppelin-solidity/v4.8.3/contracts/utils/Address.sol\":8403:8447  revert(add(32, returndata), returndata_size) */\n      revert\n        /* \"@chainlink/contracts/src/v0.8/vendor/openzeppelin-solidity/v4.8.3/contracts/utils/Address.sol\":8177:8502  if (returndata.length > 0) {... */\n    tag_209:\n        /* \"@chainlink/contracts/src/v0.8/vendor/openzeppelin-solidity/v4.8.3/contracts/utils/Address.sol\":8482:8494  errorMessage */\n      dup1\n        /* \"@chainlink/contracts/src/v0.8/vendor/openzeppelin-solidity/v4.8.3/contracts/utils/Address.sol\":8475:8495  revert(errorMessage) */\n      mload(0x40)\n      0x08c379a000000000000000000000000000000000000000000000000000000000\n      dup2\n      mstore\n      0x04\n      add\n      tag_211\n      swap2\n      swap1\n      tag_212\n      jump\t// in\n    tag_211:\n      mload(0x40)\n      dup1\n      swap2\n      sub\n      swap1\n      revert\n    tag_152:\n      mload(0x40)\n      dup1\n      0xa0\n      add\n      0x40\n      mstore\n      dup1\n      0x60\n      dup2\n      mstore\n      0x20\n      add\n      0x60\n      dup2\n      mstore\n      0x20\n      add\n      0x60\n      dup2\n      mstore\n      0x20\n      add\n      and(0xffffffffffffffffffffffffffffffffffffffff, 0x00)\n      dup2\n      mstore\n      0x20\n      add\n      0x60\n      dup2\n      mstore\n      pop\n      swap1\n      jump\t// out\n    tag_160:\n      mload(0x40)\n      dup1\n      0x40\n      add\n      0x40\n      mstore\n      dup1\n      and(0xffffffffffffffffffffffffffffffffffffffff, 0x00)\n      dup2\n      mstore\n      0x20\n      add\n      0x00\n      dup2\n      mstore\n      pop\n      swap1\n      jump\t// out\n        /* \"#utility.yul\":88:205   */\n    tag_214:\n        /* \"#utility.yul\":197:198   */\n      0x00\n        /* \"#utility.yul\":194:195   */\n      dup1\n        /* \"#utility.yul\":187:199   */\n      revert\n        /* \"#utility.yul\":334:460   */\n    tag_216:\n        /* \"#utility.yul\":371:378   */\n      0x00\n        /* \"#utility.yul\":411:453   */\n      0xffffffffffffffffffffffffffffffffffffffff\n        /* \"#utility.yul\":404:409   */\n      dup3\n        /* \"#utility.yul\":400:454   */\n      and\n        /* \"#utility.yul\":389:454   */\n      swap1\n      pop\n        /* \"#utility.yul\":334:460   */\n      swap2\n      swap1\n      pop\n      jump\t// out\n        /* \"#utility.yul\":466:562   */\n    tag_217:\n        /* \"#utility.yul\":503:510   */\n      0x00\n        /* \"#utility.yul\":532:556   */\n      tag_279\n        /* \"#utility.yul\":550:555   */\n      dup3\n        /* \"#utility.yul\":532:556   */\n      tag_216\n      jump\t// in\n    tag_279:\n        /* \"#utility.yul\":521:556   */\n      swap1\n      pop\n        /* \"#utility.yul\":466:562   */\n      swap2\n      swap1\n      pop\n      jump\t// out\n        /* \"#utility.yul\":568:690   */\n    tag_218:\n        /* \"#utility.yul\":641:665   */\n      tag_281\n        /* \"#utility.yul\":659:664   */\n      dup2\n        /* \"#utility.yul\":641:665   */\n      tag_217\n      jump\t// in\n    tag_281:\n        /* \"#utility.yul\":634:639   */\n      dup2\n        /* \"#utility.yul\":631:666   */\n      eq\n        /* \"#utility.yul\":621:684   */\n      tag_282\n      jumpi\n        /* \"#utility.yul\":680:681   */\n      0x00\n        /* \"#utility.yul\":677:678   */\n      dup1\n        /* \"#utility.yul\":670:682   */\n      revert\n        /* \"#utility.yul\":621:684   */\n    tag_282:\n        /* \"#utility.yul\":568:690   */\n      pop\n      jump\t// out\n        /* \"#utility.yul\":696:835   */\n    tag_219:\n        /* \"#utility.yul\":742:747   */\n      0x00\n        /* \"#utility.yul\":780:786   */\n      dup2\n        /* \"#utility.yul\":767:787   */\n      calldataload\n        /* \"#utility.yul\":758:787   */\n      swap1\n      pop\n        /* \"#utility.yul\":796:829   */\n      tag_284\n        /* \"#utility.yul\":823:828   */\n      dup2\n        /* \"#utility.yul\":796:829   */\n      tag_218\n      jump\t// in\n    tag_284:\n        /* \"#utility.yul\":696:835   */\n      swap3\n      swap2\n      pop\n      pop\n      jump\t// out\n        /* \"#utility.yul\":841:1315   */\n    tag_16:\n        /* \"#utility.yul\":909:915   */\n      0x00\n        /* \"#utility.yul\":917:923   */\n      dup1\n        /* \"#utility.yul\":966:968   */\n      0x40\n        /* \"#utility.yul\":954:963   */\n      dup4\n        /* \"#utility.yul\":945:952   */\n      dup6\n        /* \"#utility.yul\":941:964   */\n      sub\n        /* \"#utility.yul\":937:969   */\n      slt\n        /* \"#utility.yul\":934:1053   */\n      iszero\n      tag_286\n      jumpi\n        /* \"#utility.yul\":972:1051   */\n      tag_287\n      tag_214\n      jump\t// in\n    tag_287:\n        /* \"#utility.yul\":934:1053   */\n    tag_286:\n        /* \"#utility.yul\":1092:1093   */\n      0x00\n        /* \"#utility.yul\":1117:1170   */\n      tag_288\n        /* \"#utility.yul\":1162:1169   */\n      dup6\n        /* \"#utility.yul\":1153:1159   */\n      dup3\n        /* \"#utility.yul\":1142:1151   */\n      dup7\n        /* \"#utility.yul\":1138:1160   */\n      add\n        /* \"#utility.yul\":1117:1170   */\n      tag_219\n      jump\t// in\n    tag_288:\n        /* \"#utility.yul\":1107:1170   */\n      swap3\n      pop\n        /* \"#utility.yul\":1063:1180   */\n      pop\n        /* \"#utility.yul\":1219:1221   */\n      0x20\n        /* \"#utility.yul\":1245:1298   */\n      tag_289\n        /* \"#utility.yul\":1290:1297   */\n      dup6\n        /* \"#utility.yul\":1281:1287   */\n      dup3\n        /* \"#utility.yul\":1270:1279   */\n      dup7\n        /* \"#utility.yul\":1266:1288   */\n      add\n        /* \"#utility.yul\":1245:1298   */\n      tag_219\n      jump\t// in\n    tag_289:\n        /* \"#utility.yul\":1235:1298   */\n      swap2\n      pop\n        /* \"#utility.yul\":1190:1308   */\n      pop\n        /* \"#utility.yul\":841:1315   */\n      swap3\n      pop\n      swap3\n      swap1\n      pop\n      jump\t// out\n        /* \"#utility.yul\":1321:1422   */\n    tag_220:\n        /* \"#utility.yul\":1357:1364   */\n      0x00\n        /* \"#utility.yul\":1397:1415   */\n      0xffffffffffffffff\n        /* \"#utility.yul\":1390:1395   */\n      dup3\n        /* \"#utility.yul\":1386:1416   */\n      and\n        /* \"#utility.yul\":1375:1416   */\n      swap1\n      pop\n        /* \"#utility.yul\":1321:1422   */\n      swap2\n      swap1\n      pop\n      jump\t// out\n        /* \"#utility.yul\":1428:1548   */\n    tag_221:\n        /* \"#utility.yul\":1500:1523   */\n      tag_292\n        /* \"#utility.yul\":1517:1522   */\n      dup2\n        /* \"#utility.yul\":1500:1523   */\n      tag_220\n      jump\t// in\n    tag_292:\n        /* \"#utility.yul\":1493:1498   */\n      dup2\n        /* \"#utility.yul\":1490:1524   */\n      eq\n        /* \"#utility.yul\":1480:1542   */\n      tag_293\n      jumpi\n        /* \"#utility.yul\":1538:1539   */\n      0x00\n        /* \"#utility.yul\":1535:1536   */\n      dup1\n        /* \"#utility.yul\":1528:1540   */\n      revert\n        /* \"#utility.yul\":1480:1542   */\n    tag_293:\n        /* \"#utility.yul\":1428:1548   */\n      pop\n      jump\t// out\n        /* \"#utility.yul\":1554:1691   */\n    tag_222:\n        /* \"#utility.yul\":1599:1604   */\n      0x00\n        /* \"#utility.yul\":1637:1643   */\n      dup2\n        /* \"#utility.yul\":1624:1644   */\n      calldataload\n        /* \"#utility.yul\":1615:1644   */\n      swap1\n      pop\n        /* \"#utility.yul\":1653:1685   */\n      tag_295\n        /* \"#utility.yul\":1679:1684   */\n      dup2\n        /* \"#utility.yul\":1653:1685   */\n      tag_221\n      jump\t// in\n    tag_295:\n        /* \"#utility.yul\":1554:1691   */\n      swap3\n      swap2\n      pop\n      pop\n      jump\t// out\n        /* \"#utility.yul\":1697:1774   */\n    tag_223:\n        /* \"#utility.yul\":1734:1741   */\n      0x00\n        /* \"#utility.yul\":1763:1768   */\n      dup2\n        /* \"#utility.yul\":1752:1768   */\n      swap1\n      pop\n        /* \"#utility.yul\":1697:1774   */\n      swap2\n      swap1\n      pop\n      jump\t// out\n        /* \"#utility.yul\":1780:1902   */\n    tag_224:\n        /* \"#utility.yul\":1853:1877   */\n      tag_298\n        /* \"#utility.yul\":1871:1876   */\n      dup2\n        /* \"#utility.yul\":1853:1877   */\n      tag_223\n      jump\t// in\n    tag_298:\n        /* \"#utility.yul\":1846:1851   */\n      dup2\n        /* \"#utility.yul\":1843:1878   */\n      eq\n        /* \"#utility.yul\":1833:1896   */\n      tag_299\n      jumpi\n        /* \"#utility.yul\":1892:1893   */\n      0x00\n        /* \"#utility.yul\":1889:1890   */\n      dup1\n        /* \"#utility.yul\":1882:1894   */\n      revert\n        /* \"#utility.yul\":1833:1896   */\n    tag_299:\n        /* \"#utility.yul\":1780:1902   */\n      pop\n      jump\t// out\n        /* \"#utility.yul\":1908:2047   */\n    tag_225:\n        /* \"#utility.yul\":1954:1959   */\n      0x00\n        /* \"#utility.yul\":1992:1998   */\n      dup2\n        /* \"#utility.yul\":1979:1999   */\n      calldataload\n        /* \"#utility.yul\":1970:1999   */\n      swap1\n      pop\n        /* \"#utility.yul\":2008:2041   */\n      tag_301\n        /* \"#utility.yul\":2035:2040   */\n      dup2\n        /* \"#utility.yul\":2008:2041   */\n      tag_224\n      jump\t// in\n    tag_301:\n        /* \"#utility.yul\":1908:2047   */\n      swap3\n      swap2\n      pop\n      pop\n      jump\t// out\n        /* \"#utility.yul\":2053:2816   */\n    tag_21:\n        /* \"#utility.yul\":2138:2144   */\n      0x00\n        /* \"#utility.yul\":2146:2152   */\n      dup1\n        /* \"#utility.yul\":2154:2160   */\n      0x00\n        /* \"#utility.yul\":2162:2168   */\n      dup1\n        /* \"#utility.yul\":2211:2214   */\n      0x80\n        /* \"#utility.yul\":2199:2208   */\n      dup6\n        /* \"#utility.yul\":2190:2197   */\n      dup8\n        /* \"#utility.yul\":2186:2209   */\n      sub\n        /* \"#utility.yul\":2182:2215   */\n      slt\n        /* \"#utility.yul\":2179:2299   */\n      iszero\n      tag_303\n      jumpi\n        /* \"#utility.yul\":2218:2297   */\n      tag_304\n      tag_214\n      jump\t// in\n    tag_304:\n        /* \"#utility.yul\":2179:2299   */\n    tag_303:\n        /* \"#utility.yul\":2338:2339   */\n      0x00\n        /* \"#utility.yul\":2363:2415   */\n      tag_305\n        /* \"#utility.yul\":2407:2414   */\n      dup8\n        /* \"#utility.yul\":2398:2404   */\n      dup3\n        /* \"#utility.yul\":2387:2396   */\n      dup9\n        /* \"#utility.yul\":2383:2405   */\n      add\n        /* \"#utility.yul\":2363:2415   */\n      tag_222\n      jump\t// in\n    tag_305:\n        /* \"#utility.yul\":2353:2415   */\n      swap5\n      pop\n        /* \"#utility.yul\":2309:2425   */\n      pop\n        /* \"#utility.yul\":2464:2466   */\n      0x20\n        /* \"#utility.yul\":2490:2543   */\n      tag_306\n        /* \"#utility.yul\":2535:2542   */\n      dup8\n        /* \"#utility.yul\":2526:2532   */\n      dup3\n        /* \"#utility.yul\":2515:2524   */\n      dup9\n        /* \"#utility.yul\":2511:2533   */\n      add\n        /* \"#utility.yul\":2490:2543   */\n      tag_219\n      jump\t// in\n    tag_306:\n        /* \"#utility.yul\":2480:2543   */\n      swap4\n      pop\n        /* \"#utility.yul\":2435:2553   */\n      pop\n        /* \"#utility.yul\":2592:2594   */\n      0x40\n        /* \"#utility.yul\":2618:2671   */\n      tag_307\n        /* \"#utility.yul\":2663:2670   */\n      dup8\n        /* \"#utility.yul\":2654:2660   */\n      dup3\n        /* \"#utility.yul\":2643:2652   */\n      dup9\n        /* \"#utility.yul\":2639:2661   */\n      add\n        /* \"#utility.yul\":2618:2671   */\n      tag_219\n      jump\t// in\n    tag_307:\n        /* \"#utility.yul\":2608:2671   */\n      swap3\n      pop\n        /* \"#utility.yul\":2563:2681   */\n      pop\n        /* \"#utility.yul\":2720:2722   */\n      0x60\n        /* \"#utility.yul\":2746:2799   */\n      tag_308\n        /* \"#utility.yul\":2791:2798   */\n      dup8\n        /* \"#utility.yul\":2782:2788   */\n      dup3\n        /* \"#utility.yul\":2771:2780   */\n      dup9\n        /* \"#utility.yul\":2767:2789   */\n      add\n        /* \"#utility.yul\":2746:2799   */\n      tag_225\n      jump\t// in\n    tag_308:\n        /* \"#utility.yul\":2736:2799   */\n      swap2\n      pop\n        /* \"#utility.yul\":2691:2809   */\n      pop\n        /* \"#utility.yul\":2053:2816   */\n      swap3\n      swap6\n      swap2\n      swap5\n      pop\n      swap3\n      pop\n      jump\t// out\n        /* \"#utility.yul\":2822:2899   */\n    tag_226:\n        /* \"#utility.yul\":2859:2866   */\n      0x00\n        /* \"#utility.yul\":2888:2893   */\n      dup2\n        /* \"#utility.yul\":2877:2893   */\n      swap1\n      pop\n        /* \"#utility.yul\":2822:2899   */\n      swap2\n      swap1\n      pop\n      jump\t// out\n        /* \"#utility.yul\":2905:3023   */\n    tag_227:\n        /* \"#utility.yul\":2992:3016   */\n      tag_311\n        /* \"#utility.yul\":3010:3015   */\n      dup2\n        /* \"#utility.yul\":2992:3016   */\n      tag_226\n      jump\t// in\n    tag_311:\n        /* \"#utility.yul\":2987:2990   */\n      dup3\n        /* \"#utility.yul\":2980:3017   */\n      mstore\n        /* \"#utility.yul\":2905:3023   */\n      pop\n      pop\n      jump\t// out\n        /* \"#utility.yul\":3029:3251   */\n    tag_24:\n        /* \"#utility.yul\":3122:3126   */\n      0x00\n        /* \"#utility.yul\":3160:3162   */\n      0x20\n        /* \"#utility.yul\":3149:3158   */\n      dup3\n        /* \"#utility.yul\":3145:3163   */\n      add\n        /* \"#utility.yul\":3137:3163   */\n      swap1\n      pop\n        /* \"#utility.yul\":3173:3244   */\n      tag_313\n        /* \"#utility.yul\":3241:3242   */\n      0x00\n        /* \"#utility.yul\":3230:3239   */\n      dup4\n        /* \"#utility.yul\":3226:3243   */\n      add\n        /* \"#utility.yul\":3217:3223   */\n      dup5\n        /* \"#utility.yul\":3173:3244   */\n      tag_227\n      jump\t// in\n    tag_313:\n        /* \"#utility.yul\":3029:3251   */\n      swap3\n      swap2\n      pop\n      pop\n      jump\t// out\n        /* \"#utility.yul\":3257:3586   */\n    tag_28:\n        /* \"#utility.yul\":3316:3322   */\n      0x00\n        /* \"#utility.yul\":3365:3367   */\n      0x20\n        /* \"#utility.yul\":3353:3362   */\n      dup3\n        /* \"#utility.yul\":3344:3351   */\n      dup5\n        /* \"#utility.yul\":3340:3363   */\n      sub\n        /* \"#utility.yul\":3336:3368   */\n      slt\n        /* \"#utility.yul\":3333:3452   */\n      iszero\n      tag_315\n      jumpi\n        /* \"#utility.yul\":3371:3450   */\n      tag_316\n      tag_214\n      jump\t// in\n    tag_316:\n        /* \"#utility.yul\":3333:3452   */\n    tag_315:\n        /* \"#utility.yul\":3491:3492   */\n      0x00\n        /* \"#utility.yul\":3516:3569   */\n      tag_317\n        /* \"#utility.yul\":3561:3568   */\n      dup5\n        /* \"#utility.yul\":3552:3558   */\n      dup3\n        /* \"#utility.yul\":3541:3550   */\n      dup6\n        /* \"#utility.yul\":3537:3559   */\n      add\n        /* \"#utility.yul\":3516:3569   */\n      tag_219\n      jump\t// in\n    tag_317:\n        /* \"#utility.yul\":3506:3569   */\n      swap2\n      pop\n        /* \"#utility.yul\":3462:3579   */\n      pop\n        /* \"#utility.yul\":3257:3586   */\n      swap3\n      swap2\n      pop\n      pop\n      jump\t// out\n        /* \"#utility.yul\":3592:3710   */\n    tag_228:\n        /* \"#utility.yul\":3679:3703   */\n      tag_319\n        /* \"#utility.yul\":3697:3702   */\n      dup2\n        /* \"#utility.yul\":3679:3703   */\n      tag_217\n      jump\t// in\n    tag_319:\n        /* \"#utility.yul\":3674:3677   */\n      dup3\n        /* \"#utility.yul\":3667:3704   */\n      mstore\n        /* \"#utility.yul\":3592:3710   */\n      pop\n      pop\n      jump\t// out\n        /* \"#utility.yul\":3716:3938   */\n    tag_37:\n        /* \"#utility.yul\":3809:3813   */\n      0x00\n        /* \"#utility.yul\":3847:3849   */\n      0x20\n        /* \"#utility.yul\":3836:3845   */\n      dup3\n        /* \"#utility.yul\":3832:3850   */\n      add\n        /* \"#utility.yul\":3824:3850   */\n      swap1\n      pop\n        /* \"#utility.yul\":3860:3931   */\n      tag_321\n        /* \"#utility.yul\":3928:3929   */\n      0x00\n        /* \"#utility.yul\":3917:3926   */\n      dup4\n        /* \"#utility.yul\":3913:3930   */\n      add\n        /* \"#utility.yul\":3904:3910   */\n      dup5\n        /* \"#utility.yul\":3860:3931   */\n      tag_228\n      jump\t// in\n    tag_321:\n        /* \"#utility.yul\":3716:3938   */\n      swap3\n      swap2\n      pop\n      pop\n      jump\t// out\n        /* \"#utility.yul\":3944:4563   */\n    tag_41:\n        /* \"#utility.yul\":4021:4027   */\n      0x00\n        /* \"#utility.yul\":4029:4035   */\n      dup1\n        /* \"#utility.yul\":4037:4043   */\n      0x00\n        /* \"#utility.yul\":4086:4088   */\n      0x60\n        /* \"#utility.yul\":4074:4083   */\n      dup5\n        /* \"#utility.yul\":4065:4072   */\n      dup7\n        /* \"#utility.yul\":4061:4084   */\n      sub\n        /* \"#utility.yul\":4057:4089   */\n      slt\n        /* \"#utility.yul\":4054:4173   */\n      iszero\n      tag_323\n      jumpi\n        /* \"#utility.yul\":4092:4171   */\n      tag_324\n      tag_214\n      jump\t// in\n    tag_324:\n        /* \"#utility.yul\":4054:4173   */\n    tag_323:\n        /* \"#utility.yul\":4212:4213   */\n      0x00\n        /* \"#utility.yul\":4237:4290   */\n      tag_325\n        /* \"#utility.yul\":4282:4289   */\n      dup7\n        /* \"#utility.yul\":4273:4279   */\n      dup3\n        /* \"#utility.yul\":4262:4271   */\n      dup8\n        /* \"#utility.yul\":4258:4280   */\n      add\n        /* \"#utility.yul\":4237:4290   */\n      tag_219\n      jump\t// in\n    tag_325:\n        /* \"#utility.yul\":4227:4290   */\n      swap4\n      pop\n        /* \"#utility.yul\":4183:4300   */\n      pop\n        /* \"#utility.yul\":4339:4341   */\n      0x20\n        /* \"#utility.yul\":4365:4418   */\n      tag_326\n        /* \"#utility.yul\":4410:4417   */\n      dup7\n        /* \"#utility.yul\":4401:4407   */\n      dup3\n        /* \"#utility.yul\":4390:4399   */\n      dup8\n        /* \"#utility.yul\":4386:4408   */\n      add\n        /* \"#utility.yul\":4365:4418   */\n      tag_219\n      jump\t// in\n    tag_326:\n        /* \"#utility.yul\":4355:4418   */\n      swap3\n      pop\n        /* \"#utility.yul\":4310:4428   */\n      pop\n        /* \"#utility.yul\":4467:4469   */\n      0x40\n        /* \"#utility.yul\":4493:4546   */\n      tag_327\n        /* \"#utility.yul\":4538:4545   */\n      dup7\n        /* \"#utility.yul\":4529:4535   */\n      dup3\n        /* \"#utility.yul\":4518:4527   */\n      dup8\n        /* \"#utility.yul\":4514:4536   */\n      add\n        /* \"#utility.yul\":4493:4546   */\n      tag_225\n      jump\t// in\n    tag_327:\n        /* \"#utility.yul\":4483:4546   */\n      swap2\n      pop\n        /* \"#utility.yul\":4438:4556   */\n      pop\n        /* \"#utility.yul\":3944:4563   */\n      swap3\n      pop\n      swap3\n      pop\n      swap3\n      jump\t// out\n        /* \"#utility.yul\":4569:4712   */\n    tag_229:\n        /* \"#utility.yul\":4626:4631   */\n      0x00\n        /* \"#utility.yul\":4657:4663   */\n      dup2\n        /* \"#utility.yul\":4651:4664   */\n      mload\n        /* \"#utility.yul\":4642:4664   */\n      swap1\n      pop\n        /* \"#utility.yul\":4673:4706   */\n      tag_329\n        /* \"#utility.yul\":4700:4705   */\n      dup2\n        /* \"#utility.yul\":4673:4706   */\n      tag_224\n      jump\t// in\n    tag_329:\n        /* \"#utility.yul\":4569:4712   */\n      swap3\n      swap2\n      pop\n      pop\n      jump\t// out\n        /* \"#utility.yul\":4718:5069   */\n    tag_56:\n        /* \"#utility.yul\":4788:4794   */\n      0x00\n        /* \"#utility.yul\":4837:4839   */\n      0x20\n        /* \"#utility.yul\":4825:4834   */\n      dup3\n        /* \"#utility.yul\":4816:4823   */\n      dup5\n        /* \"#utility.yul\":4812:4835   */\n      sub\n        /* \"#utility.yul\":4808:4840   */\n      slt\n        /* \"#utility.yul\":4805:4924   */\n      iszero\n      tag_331\n      jumpi\n        /* \"#utility.yul\":4843:4922   */\n      tag_332\n      tag_214\n      jump\t// in\n    tag_332:\n        /* \"#utility.yul\":4805:4924   */\n    tag_331:\n        /* \"#utility.yul\":4963:4964   */\n      0x00\n        /* \"#utility.yul\":4988:5052   */\n      tag_333\n        /* \"#utility.yul\":5044:5051   */\n      dup5\n        /* \"#utility.yul\":5035:5041   */\n      dup3\n        /* \"#utility.yul\":5024:5033   */\n      dup6\n        /* \"#utility.yul\":5020:5042   */\n      add\n        /* \"#utility.yul\":4988:5052   */\n      tag_229\n      jump\t// in\n    tag_333:\n        /* \"#utility.yul\":4978:5052   */\n      swap2\n      pop\n        /* \"#utility.yul\":4934:5062   */\n      pop\n        /* \"#utility.yul\":4718:5069   */\n      swap3\n      swap2\n      pop\n      pop\n      jump\t// out\n        /* \"#utility.yul\":5075:5190   */\n    tag_230:\n        /* \"#utility.yul\":5160:5183   */\n      tag_335\n        /* \"#utility.yul\":5177:5182   */\n      dup2\n        /* \"#utility.yul\":5160:5183   */\n      tag_220\n      jump\t// in\n    tag_335:\n        /* \"#utility.yul\":5155:5158   */\n      dup3\n        /* \"#utility.yul\":5148:5184   */\n      mstore\n        /* \"#utility.yul\":5075:5190   */\n      pop\n      pop\n      jump\t// out\n        /* \"#utility.yul\":5196:5294   */\n    tag_231:\n        /* \"#utility.yul\":5247:5253   */\n      0x00\n        /* \"#utility.yul\":5281:5286   */\n      dup2\n        /* \"#utility.yul\":5275:5287   */\n      mload\n        /* \"#utility.yul\":5265:5287   */\n      swap1\n      pop\n        /* \"#utility.yul\":5196:5294   */\n      swap2\n      swap1\n      pop\n      jump\t// out\n        /* \"#utility.yul\":5300:5458   */\n    tag_232:\n        /* \"#utility.yul\":5373:5384   */\n      0x00\n        /* \"#utility.yul\":5407:5413   */\n      dup3\n        /* \"#utility.yul\":5402:5405   */\n      dup3\n        /* \"#utility.yul\":5395:5414   */\n      mstore\n        /* \"#utility.yul\":5447:5451   */\n      0x20\n        /* \"#utility.yul\":5442:5445   */\n      dup3\n        /* \"#utility.yul\":5438:5452   */\n      add\n        /* \"#utility.yul\":5423:5452   */\n      swap1\n      pop\n        /* \"#utility.yul\":5300:5458   */\n      swap3\n      swap2\n      pop\n      pop\n      jump\t// out\n        /* \"#utility.yul\":5464:5710   */\n    tag_233:\n        /* \"#utility.yul\":5545:5546   */\n      0x00\n        /* \"#utility.yul\":5555:5668   */\n    tag_339:\n        /* \"#utility.yul\":5569:5575   */\n      dup4\n        /* \"#utility.yul\":5566:5567   */\n      dup2\n        /* \"#utility.yul\":5563:5576   */\n      lt\n        /* \"#utility.yul\":5555:5668   */\n      iszero\n      tag_341\n      jumpi\n        /* \"#utility.yul\":5654:5655   */\n      dup1\n        /* \"#utility.yul\":5649:5652   */\n      dup3\n        /* \"#utility.yul\":5645:5656   */\n      add\n        /* \"#utility.yul\":5639:5657   */\n      mload\n        /* \"#utility.yul\":5635:5636   */\n      dup2\n        /* \"#utility.yul\":5630:5633   */\n      dup5\n        /* \"#utility.yul\":5626:5637   */\n      add\n        /* \"#utility.yul\":5619:5658   */\n      mstore\n        /* \"#utility.yul\":5591:5593   */\n      0x20\n        /* \"#utility.yul\":5588:5589   */\n      dup2\n        /* \"#utility.yul\":5584:5594   */\n      add\n        /* \"#utility.yul\":5579:5594   */\n      swap1\n      pop\n        /* \"#utility.yul\":5555:5668   */\n      jump(tag_339)\n    tag_341:\n        /* \"#utility.yul\":5702:5703   */\n      0x00\n        /* \"#utility.yul\":5693:5699   */\n      dup5\n        /* \"#utility.yul\":5688:5691   */\n      dup5\n        /* \"#utility.yul\":5684:5700   */\n      add\n        /* \"#utility.yul\":5677:5704   */\n      mstore\n        /* \"#utility.yul\":5526:5710   */\n      pop\n        /* \"#utility.yul\":5464:5710   */\n      pop\n      pop\n      pop\n      jump\t// out\n        /* \"#utility.yul\":5716:5818   */\n    tag_234:\n        /* \"#utility.yul\":5757:5763   */\n      0x00\n        /* \"#utility.yul\":5808:5810   */\n      0x1f\n        /* \"#utility.yul\":5804:5811   */\n      not\n        /* \"#utility.yul\":5799:5801   */\n      0x1f\n        /* \"#utility.yul\":5792:5797   */\n      dup4\n        /* \"#utility.yul\":5788:5802   */\n      add\n        /* \"#utility.yul\":5784:5812   */\n      and\n        /* \"#utility.yul\":5774:5812   */\n      swap1\n      pop\n        /* \"#utility.yul\":5716:5818   */\n      swap2\n      swap1\n      pop\n      jump\t// out\n        /* \"#utility.yul\":5824:6177   */\n    tag_235:\n        /* \"#utility.yul\":5900:5903   */\n      0x00\n        /* \"#utility.yul\":5928:5966   */\n      tag_344\n        /* \"#utility.yul\":5960:5965   */\n      dup3\n        /* \"#utility.yul\":5928:5966   */\n      tag_231\n      jump\t// in\n    tag_344:\n        /* \"#utility.yul\":5982:6042   */\n      tag_345\n        /* \"#utility.yul\":6035:6041   */\n      dup2\n        /* \"#utility.yul\":6030:6033   */\n      dup6\n        /* \"#utility.yul\":5982:6042   */\n      tag_232\n      jump\t// in\n    tag_345:\n        /* \"#utility.yul\":5975:6042   */\n      swap4\n      pop\n        /* \"#utility.yul\":6051:6116   */\n      tag_346\n        /* \"#utility.yul\":6109:6115   */\n      dup2\n        /* \"#utility.yul\":6104:6107   */\n      dup6\n        /* \"#utility.yul\":6097:6101   */\n      0x20\n        /* \"#utility.yul\":6090:6095   */\n      dup7\n        /* \"#utility.yul\":6086:6102   */\n      add\n        /* \"#utility.yul\":6051:6116   */\n      tag_233\n      jump\t// in\n    tag_346:\n        /* \"#utility.yul\":6141:6170   */\n      tag_347\n        /* \"#utility.yul\":6163:6169   */\n      dup2\n        /* \"#utility.yul\":6141:6170   */\n      tag_234\n      jump\t// in\n    tag_347:\n        /* \"#utility.yul\":6136:6139   */\n      dup5\n        /* \"#utility.yul\":6132:6171   */\n      add\n        /* \"#utility.yul\":6125:6171   */\n      swap2\n      pop\n        /* \"#utility.yul\":5904:6177   */\n      pop\n        /* \"#utility.yul\":5824:6177   */\n      swap3\n      swap2\n      pop\n      pop\n      jump\t// out\n        /* \"#utility.yul\":6183:6327   */\n    tag_236:\n        /* \"#utility.yul\":6280:6286   */\n      0x00\n        /* \"#utility.yul\":6314:6319   */\n      dup2\n        /* \"#utility.yul\":6308:6320   */\n      mload\n        /* \"#utility.yul\":6298:6320   */\n      swap1\n      pop\n        /* \"#utility.yul\":6183:6327   */\n      swap2\n      swap1\n      pop\n      jump\t// out\n        /* \"#utility.yul\":6333:6537   */\n    tag_237:\n        /* \"#utility.yul\":6452:6463   */\n      0x00\n        /* \"#utility.yul\":6486:6492   */\n      dup3\n        /* \"#utility.yul\":6481:6484   */\n      dup3\n        /* \"#utility.yul\":6474:6493   */\n      mstore\n        /* \"#utility.yul\":6526:6530   */\n      0x20\n        /* \"#utility.yul\":6521:6524   */\n      dup3\n        /* \"#utility.yul\":6517:6531   */\n      add\n        /* \"#utility.yul\":6502:6531   */\n      swap1\n      pop\n        /* \"#utility.yul\":6333:6537   */\n      swap3\n      swap2\n      pop\n      pop\n      jump\t// out\n        /* \"#utility.yul\":6543:6705   */\n    tag_238:\n        /* \"#utility.yul\":6640:6644   */\n      0x00\n        /* \"#utility.yul\":6663:6666   */\n      dup2\n        /* \"#utility.yul\":6655:6666   */\n      swap1\n      pop\n        /* \"#utility.yul\":6693:6697   */\n      0x20\n        /* \"#utility.yul\":6688:6691   */\n      dup3\n        /* \"#utility.yul\":6684:6698   */\n      add\n        /* \"#utility.yul\":6676:6698   */\n      swap1\n      pop\n        /* \"#utility.yul\":6543:6705   */\n      swap2\n      swap1\n      pop\n      jump\t// out\n        /* \"#utility.yul\":6711:6819   */\n    tag_239:\n        /* \"#utility.yul\":6788:6812   */\n      tag_352\n        /* \"#utility.yul\":6806:6811   */\n      dup2\n        /* \"#utility.yul\":6788:6812   */\n      tag_217\n      jump\t// in\n    tag_352:\n        /* \"#utility.yul\":6783:6786   */\n      dup3\n        /* \"#utility.yul\":6776:6813   */\n      mstore\n        /* \"#utility.yul\":6711:6819   */\n      pop\n      pop\n      jump\t// out\n        /* \"#utility.yul\":6825:6933   */\n    tag_240:\n        /* \"#utility.yul\":6902:6926   */\n      tag_354\n        /* \"#utility.yul\":6920:6925   */\n      dup2\n        /* \"#utility.yul\":6902:6926   */\n      tag_223\n      jump\t// in\n    tag_354:\n        /* \"#utility.yul\":6897:6900   */\n      dup3\n        /* \"#utility.yul\":6890:6927   */\n      mstore\n        /* \"#utility.yul\":6825:6933   */\n      pop\n      pop\n      jump\t// out\n        /* \"#utility.yul\":7007:7517   */\n    tag_241:\n        /* \"#utility.yul\":7154:7158   */\n      0x40\n        /* \"#utility.yul\":7149:7152   */\n      dup3\n        /* \"#utility.yul\":7145:7159   */\n      add\n        /* \"#utility.yul\":7242:7246   */\n      0x00\n        /* \"#utility.yul\":7235:7240   */\n      dup3\n        /* \"#utility.yul\":7231:7247   */\n      add\n        /* \"#utility.yul\":7225:7248   */\n      mload\n        /* \"#utility.yul\":7261:7324   */\n      tag_356\n        /* \"#utility.yul\":7318:7322   */\n      0x00\n        /* \"#utility.yul\":7313:7316   */\n      dup6\n        /* \"#utility.yul\":7309:7323   */\n      add\n        /* \"#utility.yul\":7295:7307   */\n      dup3\n        /* \"#utility.yul\":7261:7324   */\n      tag_239\n      jump\t// in\n    tag_356:\n        /* \"#utility.yul\":7169:7334   */\n      pop\n        /* \"#utility.yul\":7418:7422   */\n      0x20\n        /* \"#utility.yul\":7411:7416   */\n      dup3\n        /* \"#utility.yul\":7407:7423   */\n      add\n        /* \"#utility.yul\":7401:7424   */\n      mload\n        /* \"#utility.yul\":7437:7500   */\n      tag_357\n        /* \"#utility.yul\":7494:7498   */\n      0x20\n        /* \"#utility.yul\":7489:7492   */\n      dup6\n        /* \"#utility.yul\":7485:7499   */\n      add\n        /* \"#utility.yul\":7471:7483   */\n      dup3\n        /* \"#utility.yul\":7437:7500   */\n      tag_240\n      jump\t// in\n    tag_357:\n        /* \"#utility.yul\":7344:7510   */\n      pop\n        /* \"#utility.yul\":7123:7517   */\n      pop\n        /* \"#utility.yul\":7007:7517   */\n      pop\n      pop\n      jump\t// out\n        /* \"#utility.yul\":7523:7822   */\n    tag_242:\n        /* \"#utility.yul\":7652:7662   */\n      0x00\n        /* \"#utility.yul\":7673:7779   */\n      tag_359\n        /* \"#utility.yul\":7775:7778   */\n      dup4\n        /* \"#utility.yul\":7767:7773   */\n      dup4\n        /* \"#utility.yul\":7673:7779   */\n      tag_241\n      jump\t// in\n    tag_359:\n        /* \"#utility.yul\":7811:7815   */\n      0x40\n        /* \"#utility.yul\":7806:7809   */\n      dup4\n        /* \"#utility.yul\":7802:7816   */\n      add\n        /* \"#utility.yul\":7788:7816   */\n      swap1\n      pop\n        /* \"#utility.yul\":7523:7822   */\n      swap3\n      swap2\n      pop\n      pop\n      jump\t// out\n        /* \"#utility.yul\":7828:7971   */\n    tag_243:\n        /* \"#utility.yul\":7928:7932   */\n      0x00\n        /* \"#utility.yul\":7960:7964   */\n      0x20\n        /* \"#utility.yul\":7955:7958   */\n      dup3\n        /* \"#utility.yul\":7951:7965   */\n      add\n        /* \"#utility.yul\":7943:7965   */\n      swap1\n      pop\n        /* \"#utility.yul\":7828:7971   */\n      swap2\n      swap1\n      pop\n      jump\t// out\n        /* \"#utility.yul\":8049:9001   */\n    tag_244:\n        /* \"#utility.yul\":8218:8221   */\n      0x00\n        /* \"#utility.yul\":8247:8331   */\n      tag_362\n        /* \"#utility.yul\":8325:8330   */\n      dup3\n        /* \"#utility.yul\":8247:8331   */\n      tag_236\n      jump\t// in\n    tag_362:\n        /* \"#utility.yul\":8347:8453   */\n      tag_363\n        /* \"#utility.yul\":8446:8452   */\n      dup2\n        /* \"#utility.yul\":8441:8444   */\n      dup6\n        /* \"#utility.yul\":8347:8453   */\n      tag_237\n      jump\t// in\n    tag_363:\n        /* \"#utility.yul\":8340:8453   */\n      swap4\n      pop\n        /* \"#utility.yul\":8477:8563   */\n      tag_364\n        /* \"#utility.yul\":8557:8562   */\n      dup4\n        /* \"#utility.yul\":8477:8563   */\n      tag_238\n      jump\t// in\n    tag_364:\n        /* \"#utility.yul\":8586:8593   */\n      dup1\n        /* \"#utility.yul\":8617:8618   */\n      0x00\n        /* \"#utility.yul\":8602:8976   */\n    tag_365:\n        /* \"#utility.yul\":8627:8633   */\n      dup4\n        /* \"#utility.yul\":8624:8625   */\n      dup2\n        /* \"#utility.yul\":8621:8634   */\n      lt\n        /* \"#utility.yul\":8602:8976   */\n      iszero\n      tag_367\n      jumpi\n        /* \"#utility.yul\":8703:8709   */\n      dup2\n        /* \"#utility.yul\":8697:8710   */\n      mload\n        /* \"#utility.yul\":8730:8853   */\n      tag_368\n        /* \"#utility.yul\":8849:8852   */\n      dup9\n        /* \"#utility.yul\":8834:8847   */\n      dup3\n        /* \"#utility.yul\":8730:8853   */\n      tag_242\n      jump\t// in\n    tag_368:\n        /* \"#utility.yul\":8723:8853   */\n      swap8\n      pop\n        /* \"#utility.yul\":8876:8966   */\n      tag_369\n        /* \"#utility.yul\":8959:8965   */\n      dup4\n        /* \"#utility.yul\":8876:8966   */\n      tag_243\n      jump\t// in\n    tag_369:\n        /* \"#utility.yul\":8866:8966   */\n      swap3\n      pop\n        /* \"#utility.yul\":8662:8976   */\n      pop\n        /* \"#utility.yul\":8649:8650   */\n      0x01\n        /* \"#utility.yul\":8646:8647   */\n      dup2\n        /* \"#utility.yul\":8642:8651   */\n      add\n        /* \"#utility.yul\":8637:8651   */\n      swap1\n      pop\n        /* \"#utility.yul\":8602:8976   */\n      jump(tag_365)\n    tag_367:\n        /* \"#utility.yul\":8606:8620   */\n      pop\n        /* \"#utility.yul\":8992:8995   */\n      dup6\n        /* \"#utility.yul\":8985:8995   */\n      swap4\n      pop\n        /* \"#utility.yul\":8223:9001   */\n      pop\n      pop\n      pop\n        /* \"#utility.yul\":8049:9001   */\n      swap3\n      swap2\n      pop\n      pop\n      jump\t// out\n        /* \"#utility.yul\":9075:10531   */\n    tag_245:\n        /* \"#utility.yul\":9204:9207   */\n      0x00\n        /* \"#utility.yul\":9240:9244   */\n      0xa0\n        /* \"#utility.yul\":9235:9238   */\n      dup4\n        /* \"#utility.yul\":9231:9245   */\n      add\n        /* \"#utility.yul\":9331:9335   */\n      0x00\n        /* \"#utility.yul\":9324:9329   */\n      dup4\n        /* \"#utility.yul\":9320:9336   */\n      add\n        /* \"#utility.yul\":9314:9337   */\n      mload\n        /* \"#utility.yul\":9384:9387   */\n      dup5\n        /* \"#utility.yul\":9378:9382   */\n      dup3\n        /* \"#utility.yul\":9374:9388   */\n      sub\n        /* \"#utility.yul\":9367:9371   */\n      0x00\n        /* \"#utility.yul\":9362:9365   */\n      dup7\n        /* \"#utility.yul\":9358:9372   */\n      add\n        /* \"#utility.yul\":9351:9389   */\n      mstore\n        /* \"#utility.yul\":9410:9481   */\n      tag_371\n        /* \"#utility.yul\":9476:9480   */\n      dup3\n        /* \"#utility.yul\":9462:9474   */\n      dup3\n        /* \"#utility.yul\":9410:9481   */\n      tag_235\n      jump\t// in\n    tag_371:\n        /* \"#utility.yul\":9402:9481   */\n      swap2\n      pop\n        /* \"#utility.yul\":9255:9492   */\n      pop\n        /* \"#utility.yul\":9574:9578   */\n      0x20\n        /* \"#utility.yul\":9567:9572   */\n      dup4\n        /* \"#utility.yul\":9563:9579   */\n      add\n        /* \"#utility.yul\":9557:9580   */\n      mload\n        /* \"#utility.yul\":9627:9630   */\n      dup5\n        /* \"#utility.yul\":9621:9625   */\n      dup3\n        /* \"#utility.yul\":9617:9631   */\n      sub\n        /* \"#utility.yul\":9610:9614   */\n      0x20\n        /* \"#utility.yul\":9605:9608   */\n      dup7\n        /* \"#utility.yul\":9601:9615   */\n      add\n        /* \"#utility.yul\":9594:9632   */\n      mstore\n        /* \"#utility.yul\":9653:9724   */\n      tag_372\n        /* \"#utility.yul\":9719:9723   */\n      dup3\n        /* \"#utility.yul\":9705:9717   */\n      dup3\n        /* \"#utility.yul\":9653:9724   */\n      tag_235\n      jump\t// in\n    tag_372:\n        /* \"#utility.yul\":9645:9724   */\n      swap2\n      pop\n        /* \"#utility.yul\":9502:9735   */\n      pop\n        /* \"#utility.yul\":9825:9829   */\n      0x40\n        /* \"#utility.yul\":9818:9823   */\n      dup4\n        /* \"#utility.yul\":9814:9830   */\n      add\n        /* \"#utility.yul\":9808:9831   */\n      mload\n        /* \"#utility.yul\":9878:9881   */\n      dup5\n        /* \"#utility.yul\":9872:9876   */\n      dup3\n        /* \"#utility.yul\":9868:9882   */\n      sub\n        /* \"#utility.yul\":9861:9865   */\n      0x40\n        /* \"#utility.yul\":9856:9859   */\n      dup7\n        /* \"#utility.yul\":9852:9866   */\n      add\n        /* \"#utility.yul\":9845:9883   */\n      mstore\n        /* \"#utility.yul\":9904:10067   */\n      tag_373\n        /* \"#utility.yul\":10062:10066   */\n      dup3\n        /* \"#utility.yul\":10048:10060   */\n      dup3\n        /* \"#utility.yul\":9904:10067   */\n      tag_244\n      jump\t// in\n    tag_373:\n        /* \"#utility.yul\":9896:10067   */\n      swap2\n      pop\n        /* \"#utility.yul\":9745:10078   */\n      pop\n        /* \"#utility.yul\":10164:10168   */\n      0x60\n        /* \"#utility.yul\":10157:10162   */\n      dup4\n        /* \"#utility.yul\":10153:10169   */\n      add\n        /* \"#utility.yul\":10147:10170   */\n      mload\n        /* \"#utility.yul\":10183:10246   */\n      tag_374\n        /* \"#utility.yul\":10240:10244   */\n      0x60\n        /* \"#utility.yul\":10235:10238   */\n      dup7\n        /* \"#utility.yul\":10231:10245   */\n      add\n        /* \"#utility.yul\":10217:10229   */\n      dup3\n        /* \"#utility.yul\":10183:10246   */\n      tag_239\n      jump\t// in\n    tag_374:\n        /* \"#utility.yul\":10088:10256   */\n      pop\n        /* \"#utility.yul\":10343:10347   */\n      0x80\n        /* \"#utility.yul\":10336:10341   */\n      dup4\n        /* \"#utility.yul\":10332:10348   */\n      add\n        /* \"#utility.yul\":10326:10349   */\n      mload\n        /* \"#utility.yul\":10396:10399   */\n      dup5\n        /* \"#utility.yul\":10390:10394   */\n      dup3\n        /* \"#utility.yul\":10386:10400   */\n      sub\n        /* \"#utility.yul\":10379:10383   */\n      0x80\n        /* \"#utility.yul\":10374:10377   */\n      dup7\n        /* \"#utility.yul\":10370:10384   */\n      add\n        /* \"#utility.yul\":10363:10401   */\n      mstore\n        /* \"#utility.yul\":10422:10493   */\n      tag_375\n        /* \"#utility.yul\":10488:10492   */\n      dup3\n        /* \"#utility.yul\":10474:10486   */\n      dup3\n        /* \"#utility.yul\":10422:10493   */\n      tag_235\n      jump\t// in\n    tag_375:\n        /* \"#utility.yul\":10414:10493   */\n      swap2\n      pop\n        /* \"#utility.yul\":10266:10504   */\n      pop\n        /* \"#utility.yul\":10521:10525   */\n      dup1\n        /* \"#utility.yul\":10514:10525   */\n      swap2\n      pop\n        /* \"#utility.yul\":9209:10531   */\n      pop\n        /* \"#utility.yul\":9075:10531   */\n      swap3\n      swap2\n      pop\n      pop\n      jump\t// out\n        /* \"#utility.yul\":10537:11036   */\n    tag_68:\n        /* \"#utility.yul\":10716:10720   */\n      0x00\n        /* \"#utility.yul\":10754:10756   */\n      0x40\n        /* \"#utility.yul\":10743:10752   */\n      dup3\n        /* \"#utility.yul\":10739:10757   */\n      add\n        /* \"#utility.yul\":10731:10757   */\n      swap1\n      pop\n        /* \"#utility.yul\":10767:10836   */\n      tag_377\n        /* \"#utility.yul\":10833:10834   */\n      0x00\n        /* \"#utility.yul\":10822:10831   */\n      dup4\n        /* \"#utility.yul\":10818:10835   */\n      add\n        /* \"#utility.yul\":10809:10815   */\n      dup6\n        /* \"#utility.yul\":10767:10836   */\n      tag_230\n      jump\t// in\n    tag_377:\n        /* \"#utility.yul\":10883:10892   */\n      dup2\n        /* \"#utility.yul\":10877:10881   */\n      dup2\n        /* \"#utility.yul\":10873:10893   */\n      sub\n        /* \"#utility.yul\":10868:10870   */\n      0x20\n        /* \"#utility.yul\":10857:10866   */\n      dup4\n        /* \"#utility.yul\":10853:10871   */\n      add\n        /* \"#utility.yul\":10846:10894   */\n      mstore\n        /* \"#utility.yul\":10911:11029   */\n      tag_378\n        /* \"#utility.yul\":11024:11028   */\n      dup2\n        /* \"#utility.yul\":11015:11021   */\n      dup5\n        /* \"#utility.yul\":10911:11029   */\n      tag_245\n      jump\t// in\n    tag_378:\n        /* \"#utility.yul\":10903:11029   */\n      swap1\n      pop\n        /* \"#utility.yul\":10537:11036   */\n      swap4\n      swap3\n      pop\n      pop\n      pop\n      jump\t// out\n        /* \"#utility.yul\":11042:11160   */\n    tag_246:\n        /* \"#utility.yul\":11129:11153   */\n      tag_380\n        /* \"#utility.yul\":11147:11152   */\n      dup2\n        /* \"#utility.yul\":11129:11153   */\n      tag_223\n      jump\t// in\n    tag_380:\n        /* \"#utility.yul\":11124:11127   */\n      dup3\n        /* \"#utility.yul\":11117:11154   */\n      mstore\n        /* \"#utility.yul\":11042:11160   */\n      pop\n      pop\n      jump\t// out\n        /* \"#utility.yul\":11166:11498   */\n    tag_74:\n        /* \"#utility.yul\":11287:11291   */\n      0x00\n        /* \"#utility.yul\":11325:11327   */\n      0x40\n        /* \"#utility.yul\":11314:11323   */\n      dup3\n        /* \"#utility.yul\":11310:11328   */\n      add\n        /* \"#utility.yul\":11302:11328   */\n      swap1\n      pop\n        /* \"#utility.yul\":11338:11409   */\n      tag_382\n        /* \"#utility.yul\":11406:11407   */\n      0x00\n        /* \"#utility.yul\":11395:11404   */\n      dup4\n        /* \"#utility.yul\":11391:11408   */\n      add\n        /* \"#utility.yul\":11382:11388   */\n      dup6\n        /* \"#utility.yul\":11338:11409   */\n      tag_246\n      jump\t// in\n    tag_382:\n        /* \"#utility.yul\":11419:11491   */\n      tag_383\n        /* \"#utility.yul\":11487:11489   */\n      0x20\n        /* \"#utility.yul\":11476:11485   */\n      dup4\n        /* \"#utility.yul\":11472:11490   */\n      add\n        /* \"#utility.yul\":11463:11469   */\n      dup5\n        /* \"#utility.yul\":11419:11491   */\n      tag_246\n      jump\t// in\n    tag_383:\n        /* \"#utility.yul\":11166:11498   */\n      swap4\n      swap3\n      pop\n      pop\n      pop\n      jump\t// out\n        /* \"#utility.yul\":11504:11836   */\n    tag_76:\n        /* \"#utility.yul\":11625:11629   */\n      0x00\n        /* \"#utility.yul\":11663:11665   */\n      0x40\n        /* \"#utility.yul\":11652:11661   */\n      dup3\n        /* \"#utility.yul\":11648:11666   */\n      add\n        /* \"#utility.yul\":11640:11666   */\n      swap1\n      pop\n        /* \"#utility.yul\":11676:11747   */\n      tag_385\n        /* \"#utility.yul\":11744:11745   */\n      0x00\n        /* \"#utility.yul\":11733:11742   */\n      dup4\n        /* \"#utility.yul\":11729:11746   */\n      add\n        /* \"#utility.yul\":11720:11726   */\n      dup6\n        /* \"#utility.yul\":11676:11747   */\n      tag_228\n      jump\t// in\n    tag_385:\n        /* \"#utility.yul\":11757:11829   */\n      tag_386\n        /* \"#utility.yul\":11825:11827   */\n      0x20\n        /* \"#utility.yul\":11814:11823   */\n      dup4\n        /* \"#utility.yul\":11810:11828   */\n      add\n        /* \"#utility.yul\":11801:11807   */\n      dup5\n        /* \"#utility.yul\":11757:11829   */\n      tag_246\n      jump\t// in\n    tag_386:\n        /* \"#utility.yul\":11504:11836   */\n      swap4\n      swap3\n      pop\n      pop\n      pop\n      jump\t// out\n        /* \"#utility.yul\":11842:11932   */\n    tag_247:\n        /* \"#utility.yul\":11876:11883   */\n      0x00\n        /* \"#utility.yul\":11919:11924   */\n      dup2\n        /* \"#utility.yul\":11912:11925   */\n      iszero\n        /* \"#utility.yul\":11905:11926   */\n      iszero\n        /* \"#utility.yul\":11894:11926   */\n      swap1\n      pop\n        /* \"#utility.yul\":11842:11932   */\n      swap2\n      swap1\n      pop\n      jump\t// out\n        /* \"#utility.yul\":11938:12054   */\n    tag_248:\n        /* \"#utility.yul\":12008:12029   */\n      tag_389\n        /* \"#utility.yul\":12023:12028   */\n      dup2\n        /* \"#utility.yul\":12008:12029   */\n      tag_247\n      jump\t// in\n    tag_389:\n        /* \"#utility.yul\":12001:12006   */\n      dup2\n        /* \"#utility.yul\":11998:12030   */\n      eq\n        /* \"#utility.yul\":11988:12048   */\n      tag_390\n      jumpi\n        /* \"#utility.yul\":12044:12045   */\n      0x00\n        /* \"#utility.yul\":12041:12042   */\n      dup1\n        /* \"#utility.yul\":12034:12046   */\n      revert\n        /* \"#utility.yul\":11988:12048   */\n    tag_390:\n        /* \"#utility.yul\":11938:12054   */\n      pop\n      jump\t// out\n        /* \"#utility.yul\":12060:12197   */\n    tag_249:\n        /* \"#utility.yul\":12114:12119   */\n      0x00\n        /* \"#utility.yul\":12145:12151   */\n      dup2\n        /* \"#utility.yul\":12139:12152   */\n      mload\n        /* \"#utility.yul\":12130:12152   */\n      swap1\n      pop\n        /* \"#utility.yul\":12161:12191   */\n      tag_392\n        /* \"#utility.yul\":12185:12190   */\n      dup2\n        /* \"#utility.yul\":12161:12191   */\n      tag_248\n      jump\t// in\n    tag_392:\n        /* \"#utility.yul\":12060:12197   */\n      swap3\n      swap2\n      pop\n      pop\n      jump\t// out\n        /* \"#utility.yul\":12203:12548   */\n    tag_80:\n        /* \"#utility.yul\":12270:12276   */\n      0x00\n        /* \"#utility.yul\":12319:12321   */\n      0x20\n        /* \"#utility.yul\":12307:12316   */\n      dup3\n        /* \"#utility.yul\":12298:12305   */\n      dup5\n        /* \"#utility.yul\":12294:12317   */\n      sub\n        /* \"#utility.yul\":12290:12322   */\n      slt\n        /* \"#utility.yul\":12287:12406   */\n      iszero\n      tag_394\n      jumpi\n        /* \"#utility.yul\":12325:12404   */\n      tag_395\n      tag_214\n      jump\t// in\n    tag_395:\n        /* \"#utility.yul\":12287:12406   */\n    tag_394:\n        /* \"#utility.yul\":12445:12446   */\n      0x00\n        /* \"#utility.yul\":12470:12531   */\n      tag_396\n        /* \"#utility.yul\":12523:12530   */\n      dup5\n        /* \"#utility.yul\":12514:12520   */\n      dup3\n        /* \"#utility.yul\":12503:12512   */\n      dup6\n        /* \"#utility.yul\":12499:12521   */\n      add\n        /* \"#utility.yul\":12470:12531   */\n      tag_249\n      jump\t// in\n    tag_396:\n        /* \"#utility.yul\":12460:12531   */\n      swap2\n      pop\n        /* \"#utility.yul\":12416:12541   */\n      pop\n        /* \"#utility.yul\":12203:12548   */\n      swap3\n      swap2\n      pop\n      pop\n      jump\t// out\n        /* \"#utility.yul\":12554:12676   */\n    tag_250:\n        /* \"#utility.yul\":12627:12651   */\n      tag_398\n        /* \"#utility.yul\":12645:12650   */\n      dup2\n        /* \"#utility.yul\":12627:12651   */\n      tag_226\n      jump\t// in\n    tag_398:\n        /* \"#utility.yul\":12620:12625   */\n      dup2\n        /* \"#utility.yul\":12617:12652   */\n      eq\n        /* \"#utility.yul\":12607:12670   */\n      tag_399\n      jumpi\n        /* \"#utility.yul\":12666:12667   */\n      0x00\n        /* \"#utility.yul\":12663:12664   */\n      dup1\n        /* \"#utility.yul\":12656:12668   */\n      revert\n        /* \"#utility.yul\":12607:12670   */\n    tag_399:\n        /* \"#utility.yul\":12554:12676   */\n      pop\n      jump\t// out\n        /* \"#utility.yul\":12682:12825   */\n    tag_251:\n        /* \"#utility.yul\":12739:12744   */\n      0x00\n        /* \"#utility.yul\":12770:12776   */\n      dup2\n        /* \"#utility.yul\":12764:12777   */\n      mload\n        /* \"#utility.yul\":12755:12777   */\n      swap1\n      pop\n        /* \"#utility.yul\":12786:12819   */\n      tag_401\n        /* \"#utility.yul\":12813:12818   */\n      dup2\n        /* \"#utility.yul\":12786:12819   */\n      tag_250\n      jump\t// in\n    tag_401:\n        /* \"#utility.yul\":12682:12825   */\n      swap3\n      swap2\n      pop\n      pop\n      jump\t// out\n        /* \"#utility.yul\":12831:13182   */\n    tag_85:\n        /* \"#utility.yul\":12901:12907   */\n      0x00\n        /* \"#utility.yul\":12950:12952   */\n      0x20\n        /* \"#utility.yul\":12938:12947   */\n      dup3\n        /* \"#utility.yul\":12929:12936   */\n      dup5\n        /* \"#utility.yul\":12925:12948   */\n      sub\n        /* \"#utility.yul\":12921:12953   */\n      slt\n        /* \"#utility.yul\":12918:13037   */\n      iszero\n      tag_403\n      jumpi\n        /* \"#utility.yul\":12956:13035   */\n      tag_404\n      tag_214\n      jump\t// in\n    tag_404:\n        /* \"#utility.yul\":12918:13037   */\n    tag_403:\n        /* \"#utility.yul\":13076:13077   */\n      0x00\n        /* \"#utility.yul\":13101:13165   */\n      tag_405\n        /* \"#utility.yul\":13157:13164   */\n      dup5\n        /* \"#utility.yul\":13148:13154   */\n      dup3\n        /* \"#utility.yul\":13137:13146   */\n      dup6\n        /* \"#utility.yul\":13133:13155   */\n      add\n        /* \"#utility.yul\":13101:13165   */\n      tag_251\n      jump\t// in\n    tag_405:\n        /* \"#utility.yul\":13091:13165   */\n      swap2\n      pop\n        /* \"#utility.yul\":13047:13175   */\n      pop\n        /* \"#utility.yul\":12831:13182   */\n      swap3\n      swap2\n      pop\n      pop\n      jump\t// out\n        /* \"#utility.yul\":13188:13852   */\n    tag_87:\n        /* \"#utility.yul\":13393:13397   */\n      0x00\n        /* \"#utility.yul\":13431:13434   */\n      0xa0\n        /* \"#utility.yul\":13420:13429   */\n      dup3\n        /* \"#utility.yul\":13416:13435   */\n      add\n        /* \"#utility.yul\":13408:13435   */\n      swap1\n      pop\n        /* \"#utility.yul\":13445:13516   */\n      tag_407\n        /* \"#utility.yul\":13513:13514   */\n      0x00\n        /* \"#utility.yul\":13502:13511   */\n      dup4\n        /* \"#utility.yul\":13498:13515   */\n      add\n        /* \"#utility.yul\":13489:13495   */\n      dup9\n        /* \"#utility.yul\":13445:13516   */\n      tag_228\n      jump\t// in\n    tag_407:\n        /* \"#utility.yul\":13526:13598   */\n      tag_408\n        /* \"#utility.yul\":13594:13596   */\n      0x20\n        /* \"#utility.yul\":13583:13592   */\n      dup4\n        /* \"#utility.yul\":13579:13597   */\n      add\n        /* \"#utility.yul\":13570:13576   */\n      dup8\n        /* \"#utility.yul\":13526:13598   */\n      tag_228\n      jump\t// in\n    tag_408:\n        /* \"#utility.yul\":13608:13680   */\n      tag_409\n        /* \"#utility.yul\":13676:13678   */\n      0x40\n        /* \"#utility.yul\":13665:13674   */\n      dup4\n        /* \"#utility.yul\":13661:13679   */\n      add\n        /* \"#utility.yul\":13652:13658   */\n      dup7\n        /* \"#utility.yul\":13608:13680   */\n      tag_246\n      jump\t// in\n    tag_409:\n        /* \"#utility.yul\":13690:13762   */\n      tag_410\n        /* \"#utility.yul\":13758:13760   */\n      0x60\n        /* \"#utility.yul\":13747:13756   */\n      dup4\n        /* \"#utility.yul\":13743:13761   */\n      add\n        /* \"#utility.yul\":13734:13740   */\n      dup6\n        /* \"#utility.yul\":13690:13762   */\n      tag_228\n      jump\t// in\n    tag_410:\n        /* \"#utility.yul\":13772:13845   */\n      tag_411\n        /* \"#utility.yul\":13840:13843   */\n      0x80\n        /* \"#utility.yul\":13829:13838   */\n      dup4\n        /* \"#utility.yul\":13825:13844   */\n      add\n        /* \"#utility.yul\":13816:13822   */\n      dup5\n        /* \"#utility.yul\":13772:13845   */\n      tag_246\n      jump\t// in\n    tag_411:\n        /* \"#utility.yul\":13188:13852   */\n      swap7\n      swap6\n      pop\n      pop\n      pop\n      pop\n      pop\n      pop\n      jump\t// out\n        /* \"#utility.yul\":13858:14005   */\n    tag_252:\n        /* \"#utility.yul\":13959:13970   */\n      0x00\n        /* \"#utility.yul\":13996:13999   */\n      dup2\n        /* \"#utility.yul\":13981:13999   */\n      swap1\n      pop\n        /* \"#utility.yul\":13858:14005   */\n      swap3\n      swap2\n      pop\n      pop\n      jump\t// out\n        /* \"#utility.yul\":14011:14125   */\n    tag_253:\n      pop\n      jump\t// out\n        /* \"#utility.yul\":14131:14529   */\n    tag_254:\n        /* \"#utility.yul\":14290:14293   */\n      0x00\n        /* \"#utility.yul\":14311:14394   */\n      tag_415\n        /* \"#utility.yul\":14392:14393   */\n      0x00\n        /* \"#utility.yul\":14387:14390   */\n      dup4\n        /* \"#utility.yul\":14311:14394   */\n      tag_252\n      jump\t// in\n    tag_415:\n        /* \"#utility.yul\":14304:14394   */\n      swap2\n      pop\n        /* \"#utility.yul\":14403:14496   */\n      tag_416\n        /* \"#utility.yul\":14492:14495   */\n      dup3\n        /* \"#utility.yul\":14403:14496   */\n      tag_253\n      jump\t// in\n    tag_416:\n        /* \"#utility.yul\":14521:14522   */\n      0x00\n        /* \"#utility.yul\":14516:14519   */\n      dup3\n        /* \"#utility.yul\":14512:14523   */\n      add\n        /* \"#utility.yul\":14505:14523   */\n      swap1\n      pop\n        /* \"#utility.yul\":14131:14529   */\n      swap2\n      swap1\n      pop\n      jump\t// out\n        /* \"#utility.yul\":14535:14914   */\n    tag_93:\n        /* \"#utility.yul\":14719:14722   */\n      0x00\n        /* \"#utility.yul\":14741:14888   */\n      tag_418\n        /* \"#utility.yul\":14884:14887   */\n      dup3\n        /* \"#utility.yul\":14741:14888   */\n      tag_254\n      jump\t// in\n    tag_418:\n        /* \"#utility.yul\":14734:14888   */\n      swap2\n      pop\n        /* \"#utility.yul\":14905:14908   */\n      dup2\n        /* \"#utility.yul\":14898:14908   */\n      swap1\n      pop\n        /* \"#utility.yul\":14535:14914   */\n      swap2\n      swap1\n      pop\n      jump\t// out\n        /* \"#utility.yul\":14920:15362   */\n    tag_99:\n        /* \"#utility.yul\":15069:15073   */\n      0x00\n        /* \"#utility.yul\":15107:15109   */\n      0x60\n        /* \"#utility.yul\":15096:15105   */\n      dup3\n        /* \"#utility.yul\":15092:15110   */\n      add\n        /* \"#utility.yul\":15084:15110   */\n      swap1\n      pop\n        /* \"#utility.yul\":15120:15191   */\n      tag_420\n        /* \"#utility.yul\":15188:15189   */\n      0x00\n        /* \"#utility.yul\":15177:15186   */\n      dup4\n        /* \"#utility.yul\":15173:15190   */\n      add\n        /* \"#utility.yul\":15164:15170   */\n      dup7\n        /* \"#utility.yul\":15120:15191   */\n      tag_228\n      jump\t// in\n    tag_420:\n        /* \"#utility.yul\":15201:15273   */\n      tag_421\n        /* \"#utility.yul\":15269:15271   */\n      0x20\n        /* \"#utility.yul\":15258:15267   */\n      dup4\n        /* \"#utility.yul\":15254:15272   */\n      add\n        /* \"#utility.yul\":15245:15251   */\n      dup6\n        /* \"#utility.yul\":15201:15273   */\n      tag_228\n      jump\t// in\n    tag_421:\n        /* \"#utility.yul\":15283:15355   */\n      tag_422\n        /* \"#utility.yul\":15351:15353   */\n      0x40\n        /* \"#utility.yul\":15340:15349   */\n      dup4\n        /* \"#utility.yul\":15336:15354   */\n      add\n        /* \"#utility.yul\":15327:15333   */\n      dup5\n        /* \"#utility.yul\":15283:15355   */\n      tag_246\n      jump\t// in\n    tag_422:\n        /* \"#utility.yul\":14920:15362   */\n      swap5\n      swap4\n      pop\n      pop\n      pop\n      pop\n      jump\t// out\n        /* \"#utility.yul\":15368:15537   */\n    tag_255:\n        /* \"#utility.yul\":15452:15463   */\n      0x00\n        /* \"#utility.yul\":15486:15492   */\n      dup3\n        /* \"#utility.yul\":15481:15484   */\n      dup3\n        /* \"#utility.yul\":15474:15493   */\n      mstore\n        /* \"#utility.yul\":15526:15530   */\n      0x20\n        /* \"#utility.yul\":15521:15524   */\n      dup3\n        /* \"#utility.yul\":15517:15531   */\n      add\n        /* \"#utility.yul\":15502:15531   */\n      swap1\n      pop\n        /* \"#utility.yul\":15368:15537   */\n      swap3\n      swap2\n      pop\n      pop\n      jump\t// out\n        /* \"#utility.yul\":15543:15715   */\n    tag_256:\n        /* \"#utility.yul\":15683:15707   */\n      0x4d7573742062652070726f706f736564206f776e657200000000000000000000\n        /* \"#utility.yul\":15679:15680   */\n      0x00\n        /* \"#utility.yul\":15671:15677   */\n      dup3\n        /* \"#utility.yul\":15667:15681   */\n      add\n        /* \"#utility.yul\":15660:15708   */\n      mstore\n        /* \"#utility.yul\":15543:15715   */\n      pop\n      jump\t// out\n        /* \"#utility.yul\":15721:16087   */\n    tag_257:\n        /* \"#utility.yul\":15863:15866   */\n      0x00\n        /* \"#utility.yul\":15884:15951   */\n      tag_426\n        /* \"#utility.yul\":15948:15950   */\n      0x16\n        /* \"#utility.yul\":15943:15946   */\n      dup4\n        /* \"#utility.yul\":15884:15951   */\n      tag_255\n      jump\t// in\n    tag_426:\n        /* \"#utility.yul\":15877:15951   */\n      swap2\n      pop\n        /* \"#utility.yul\":15960:16053   */\n      tag_427\n        /* \"#utility.yul\":16049:16052   */\n      dup3\n        /* \"#utility.yul\":15960:16053   */\n      tag_256\n      jump\t// in\n    tag_427:\n        /* \"#utility.yul\":16078:16080   */\n      0x20\n        /* \"#utility.yul\":16073:16076   */\n      dup3\n        /* \"#utility.yul\":16069:16081   */\n      add\n        /* \"#utility.yul\":16062:16081   */\n      swap1\n      pop\n        /* \"#utility.yul\":15721:16087   */\n      swap2\n      swap1\n      pop\n      jump\t// out\n        /* \"#utility.yul\":16093:16512   */\n    tag_103:\n        /* \"#utility.yul\":16259:16263   */\n      0x00\n        /* \"#utility.yul\":16297:16299   */\n      0x20\n        /* \"#utility.yul\":16286:16295   */\n      dup3\n        /* \"#utility.yul\":16282:16300   */\n      add\n        /* \"#utility.yul\":16274:16300   */\n      swap1\n      pop\n        /* \"#utility.yul\":16346:16355   */\n      dup2\n        /* \"#utility.yul\":16340:16344   */\n      dup2\n        /* \"#utility.yul\":16336:16356   */\n      sub\n        /* \"#utility.yul\":16332:16333   */\n      0x00\n        /* \"#utility.yul\":16321:16330   */\n      dup4\n        /* \"#utility.yul\":16317:16334   */\n      add\n        /* \"#utility.yul\":16310:16357   */\n      mstore\n        /* \"#utility.yul\":16374:16505   */\n      tag_429\n        /* \"#utility.yul\":16500:16504   */\n      dup2\n        /* \"#utility.yul\":16374:16505   */\n      tag_257\n      jump\t// in\n    tag_429:\n        /* \"#utility.yul\":16366:16505   */\n      swap1\n      pop\n        /* \"#utility.yul\":16093:16512   */\n      swap2\n      swap1\n      pop\n      jump\t// out\n        /* \"#utility.yul\":16518:16690   */\n    tag_258:\n        /* \"#utility.yul\":16658:16682   */\n      0x4f6e6c792063616c6c61626c65206279206f776e657200000000000000000000\n        /* \"#utility.yul\":16654:16655   */\n      0x00\n        /* \"#utility.yul\":16646:16652   */\n      dup3\n        /* \"#utility.yul\":16642:16656   */\n      add\n        /* \"#utility.yul\":16635:16683   */\n      mstore\n        /* \"#utility.yul\":16518:16690   */\n      pop\n      jump\t// out\n        /* \"#utility.yul\":16696:17062   */\n    tag_259:\n        /* \"#utility.yul\":16838:16841   */\n      0x00\n        /* \"#utility.yul\":16859:16926   */\n      tag_432\n        /* \"#utility.yul\":16923:16925   */\n      0x16\n        /* \"#utility.yul\":16918:16921   */\n      dup4\n        /* \"#utility.yul\":16859:16926   */\n      tag_255\n      jump\t// in\n    tag_432:\n        /* \"#utility.yul\":16852:16926   */\n      swap2\n      pop\n        /* \"#utility.yul\":16935:17028   */\n      tag_433\n        /* \"#utility.yul\":17024:17027   */\n      dup3\n        /* \"#utility.yul\":16935:17028   */\n      tag_258\n      jump\t// in\n    tag_433:\n        /* \"#utility.yul\":17053:17055   */\n      0x20\n        /* \"#utility.yul\":17048:17051   */\n      dup3\n        /* \"#utility.yul\":17044:17056   */\n      add\n        /* \"#utility.yul\":17037:17056   */\n      swap1\n      pop\n        /* \"#utility.yul\":16696:17062   */\n      swap2\n      swap1\n      pop\n      jump\t// out\n        /* \"#utility.yul\":17068:17487   */\n    tag_146:\n        /* \"#utility.yul\":17234:17238   */\n      0x00\n        /* \"#utility.yul\":17272:17274   */\n      0x20\n        /* \"#utility.yul\":17261:17270   */\n      dup3\n        /* \"#utility.yul\":17257:17275   */\n      add\n        /* \"#utility.yul\":17249:17275   */\n      swap1\n      pop\n        /* \"#utility.yul\":17321:17330   */\n      dup2\n        /* \"#utility.yul\":17315:17319   */\n      dup2\n        /* \"#utility.yul\":17311:17331   */\n      sub\n        /* \"#utility.yul\":17307:17308   */\n      0x00\n        /* \"#utility.yul\":17296:17305   */\n      dup4\n        /* \"#utility.yul\":17292:17309   */\n      add\n        /* \"#utility.yul\":17285:17332   */\n      mstore\n        /* \"#utility.yul\":17349:17480   */\n      tag_435\n        /* \"#utility.yul\":17475:17479   */\n      dup2\n        /* \"#utility.yul\":17349:17480   */\n      tag_259\n      jump\t// in\n    tag_435:\n        /* \"#utility.yul\":17341:17480   */\n      swap1\n      pop\n        /* \"#utility.yul\":17068:17487   */\n      swap2\n      swap1\n      pop\n      jump\t// out\n        /* \"#utility.yul\":17493:17673   */\n    tag_156:\n        /* \"#utility.yul\":17541:17618   */\n      0x4e487b7100000000000000000000000000000000000000000000000000000000\n        /* \"#utility.yul\":17538:17539   */\n      0x00\n        /* \"#utility.yul\":17531:17619   */\n      mstore\n        /* \"#utility.yul\":17638:17642   */\n      0x41\n        /* \"#utility.yul\":17635:17636   */\n      0x04\n        /* \"#utility.yul\":17628:17643   */\n      mstore\n        /* \"#utility.yul\":17662:17666   */\n      0x24\n        /* \"#utility.yul\":17659:17660   */\n      0x00\n        /* \"#utility.yul\":17652:17667   */\n      revert\n        /* \"#utility.yul\":17679:17859   */\n    tag_163:\n        /* \"#utility.yul\":17727:17804   */\n      0x4e487b7100000000000000000000000000000000000000000000000000000000\n        /* \"#utility.yul\":17724:17725   */\n      0x00\n        /* \"#utility.yul\":17717:17805   */\n      mstore\n        /* \"#utility.yul\":17824:17828   */\n      0x32\n        /* \"#utility.yul\":17821:17822   */\n      0x04\n        /* \"#utility.yul\":17814:17829   */\n      mstore\n        /* \"#utility.yul\":17848:17852   */\n      0x24\n        /* \"#utility.yul\":17845:17846   */\n      0x00\n        /* \"#utility.yul\":17838:17853   */\n      revert\n        /* \"#utility.yul\":17865:18038   */\n    tag_260:\n        /* \"#utility.yul\":18005:18030   */\n      0x43616e6e6f74207472616e7366657220746f2073656c66000000000000000000\n        /* \"#utility.yul\":18001:18002   */\n      0x00\n        /* \"#utility.yul\":17993:17999   */\n      dup3\n        /* \"#utility.yul\":17989:18003   */\n      add\n        /* \"#utility.yul\":17982:18031   */\n      mstore\n        /* \"#utility.yul\":17865:18038   */\n      pop\n      jump\t// out\n        /* \"#utility.yul\":18044:18410   */\n    tag_261:\n        /* \"#utility.yul\":18186:18189   */\n      0x00\n        /* \"#utility.yul\":18207:18274   */\n      tag_440\n        /* \"#utility.yul\":18271:18273   */\n      0x17\n        /* \"#utility.yul\":18266:18269   */\n      dup4\n        /* \"#utility.yul\":18207:18274   */\n      tag_255\n      jump\t// in\n    tag_440:\n        /* \"#utility.yul\":18200:18274   */\n      swap2\n      pop\n        /* \"#utility.yul\":18283:18376   */\n      tag_441\n        /* \"#utility.yul\":18372:18375   */\n      dup3\n        /* \"#utility.yul\":18283:18376   */\n      tag_260\n      jump\t// in\n    tag_441:\n        /* \"#utility.yul\":18401:18403   */\n      0x20\n        /* \"#utility.yul\":18396:18399   */\n      dup3\n        /* \"#utility.yul\":18392:18404   */\n      add\n        /* \"#utility.yul\":18385:18404   */\n      swap1\n      pop\n        /* \"#utility.yul\":18044:18410   */\n      swap2\n      swap1\n      pop\n      jump\t// out\n        /* \"#utility.yul\":18416:18835   */\n    tag_170:\n        /* \"#utility.yul\":18582:18586   */\n      0x00\n        /* \"#utility.yul\":18620:18622   */\n      0x20\n        /* \"#utility.yul\":18609:18618   */\n      dup3\n        /* \"#utility.yul\":18605:18623   */\n      add\n        /* \"#utility.yul\":18597:18623   */\n      swap1\n      pop\n        /* \"#utility.yul\":18669:18678   */\n      dup2\n        /* \"#utility.yul\":18663:18667   */\n      dup2\n        /* \"#utility.yul\":18659:18679   */\n      sub\n        /* \"#utility.yul\":18655:18656   */\n      0x00\n        /* \"#utility.yul\":18644:18653   */\n      dup4\n        /* \"#utility.yul\":18640:18657   */\n      add\n        /* \"#utility.yul\":18633:18680   */\n      mstore\n        /* \"#utility.yul\":18697:18828   */\n      tag_443\n        /* \"#utility.yul\":18823:18827   */\n      dup2\n        /* \"#utility.yul\":18697:18828   */\n      tag_261\n      jump\t// in\n    tag_443:\n        /* \"#utility.yul\":18689:18828   */\n      swap1\n      pop\n        /* \"#utility.yul\":18416:18835   */\n      swap2\n      swap1\n      pop\n      jump\t// out\n        /* \"#utility.yul\":18841:19070   */\n    tag_262:\n        /* \"#utility.yul\":18981:19015   */\n      0x5361666545524332303a204552433230206f7065726174696f6e20646964206e\n        /* \"#utility.yul\":18977:18978   */\n      0x00\n        /* \"#utility.yul\":18969:18975   */\n      dup3\n        /* \"#utility.yul\":18965:18979   */\n      add\n        /* \"#utility.yul\":18958:19016   */\n      mstore\n        /* \"#utility.yul\":19050:19062   */\n      0x6f74207375636365656400000000000000000000000000000000000000000000\n        /* \"#utility.yul\":19045:19047   */\n      0x20\n        /* \"#utility.yul\":19037:19043   */\n      dup3\n        /* \"#utility.yul\":19033:19048   */\n      add\n        /* \"#utility.yul\":19026:19063   */\n      mstore\n        /* \"#utility.yul\":18841:19070   */\n      pop\n      jump\t// out\n        /* \"#utility.yul\":19076:19442   */\n    tag_263:\n        /* \"#utility.yul\":19218:19221   */\n      0x00\n        /* \"#utility.yul\":19239:19306   */\n      tag_446\n        /* \"#utility.yul\":19303:19305   */\n      0x2a\n        /* \"#utility.yul\":19298:19301   */\n      dup4\n        /* \"#utility.yul\":19239:19306   */\n      tag_255\n      jump\t// in\n    tag_446:\n        /* \"#utility.yul\":19232:19306   */\n      swap2\n      pop\n        /* \"#utility.yul\":19315:19408   */\n      tag_447\n        /* \"#utility.yul\":19404:19407   */\n      dup3\n        /* \"#utility.yul\":19315:19408   */\n      tag_262\n      jump\t// in\n    tag_447:\n        /* \"#utility.yul\":19433:19435   */\n      0x40\n        /* \"#utility.yul\":19428:19431   */\n      dup3\n        /* \"#utility.yul\":19424:19436   */\n      add\n        /* \"#utility.yul\":19417:19436   */\n      swap1\n      pop\n        /* \"#utility.yul\":19076:19442   */\n      swap2\n      swap1\n      pop\n      jump\t// out\n        /* \"#utility.yul\":19448:19867   */\n    tag_178:\n        /* \"#utility.yul\":19614:19618   */\n      0x00\n        /* \"#utility.yul\":19652:19654   */\n      0x20\n        /* \"#utility.yul\":19641:19650   */\n      dup3\n        /* \"#utility.yul\":19637:19655   */\n      add\n        /* \"#utility.yul\":19629:19655   */\n      swap1\n      pop\n        /* \"#utility.yul\":19701:19710   */\n      dup2\n        /* \"#utility.yul\":19695:19699   */\n      dup2\n        /* \"#utility.yul\":19691:19711   */\n      sub\n        /* \"#utility.yul\":19687:19688   */\n      0x00\n        /* \"#utility.yul\":19676:19685   */\n      dup4\n        /* \"#utility.yul\":19672:19689   */\n      add\n        /* \"#utility.yul\":19665:19712   */\n      mstore\n        /* \"#utility.yul\":19729:19860   */\n      tag_449\n        /* \"#utility.yul\":19855:19859   */\n      dup2\n        /* \"#utility.yul\":19729:19860   */\n      tag_263\n      jump\t// in\n    tag_449:\n        /* \"#utility.yul\":19721:19860   */\n      swap1\n      pop\n        /* \"#utility.yul\":19448:19867   */\n      swap2\n      swap1\n      pop\n      jump\t// out\n        /* \"#utility.yul\":19873:19972   */\n    tag_264:\n        /* \"#utility.yul\":19944:19965   */\n      tag_451\n        /* \"#utility.yul\":19959:19964   */\n      dup2\n        /* \"#utility.yul\":19944:19965   */\n      tag_247\n      jump\t// in\n    tag_451:\n        /* \"#utility.yul\":19939:19942   */\n      dup3\n        /* \"#utility.yul\":19932:19966   */\n      mstore\n        /* \"#utility.yul\":19873:19972   */\n      pop\n      pop\n      jump\t// out\n        /* \"#utility.yul\":20054:20599   */\n    tag_265:\n        /* \"#utility.yul\":20221:20225   */\n      0x40\n        /* \"#utility.yul\":20216:20219   */\n      dup3\n        /* \"#utility.yul\":20212:20226   */\n      add\n        /* \"#utility.yul\":20312:20316   */\n      0x00\n        /* \"#utility.yul\":20305:20310   */\n      dup3\n        /* \"#utility.yul\":20301:20317   */\n      add\n        /* \"#utility.yul\":20295:20318   */\n      mload\n        /* \"#utility.yul\":20331:20394   */\n      tag_453\n        /* \"#utility.yul\":20388:20392   */\n      0x00\n        /* \"#utility.yul\":20383:20386   */\n      dup6\n        /* \"#utility.yul\":20379:20393   */\n      add\n        /* \"#utility.yul\":20365:20377   */\n      dup3\n        /* \"#utility.yul\":20331:20394   */\n      tag_240\n      jump\t// in\n    tag_453:\n        /* \"#utility.yul\":20236:20404   */\n      pop\n        /* \"#utility.yul\":20506:20510   */\n      0x20\n        /* \"#utility.yul\":20499:20504   */\n      dup3\n        /* \"#utility.yul\":20495:20511   */\n      add\n        /* \"#utility.yul\":20489:20512   */\n      mload\n        /* \"#utility.yul\":20525:20582   */\n      tag_454\n        /* \"#utility.yul\":20576:20580   */\n      0x20\n        /* \"#utility.yul\":20571:20574   */\n      dup6\n        /* \"#utility.yul\":20567:20581   */\n      add\n        /* \"#utility.yul\":20553:20565   */\n      dup3\n        /* \"#utility.yul\":20525:20582   */\n      tag_264\n      jump\t// in\n    tag_454:\n        /* \"#utility.yul\":20414:20592   */\n      pop\n        /* \"#utility.yul\":20190:20599   */\n      pop\n        /* \"#utility.yul\":20054:20599   */\n      pop\n      pop\n      jump\t// out\n        /* \"#utility.yul\":20605:20967   */\n    tag_181:\n        /* \"#utility.yul\":20768:20772   */\n      0x00\n        /* \"#utility.yul\":20806:20808   */\n      0x40\n        /* \"#utility.yul\":20795:20804   */\n      dup3\n        /* \"#utility.yul\":20791:20809   */\n      add\n        /* \"#utility.yul\":20783:20809   */\n      swap1\n      pop\n        /* \"#utility.yul\":20819:20960   */\n      tag_456\n        /* \"#utility.yul\":20957:20958   */\n      0x00\n        /* \"#utility.yul\":20946:20955   */\n      dup4\n        /* \"#utility.yul\":20942:20959   */\n      add\n        /* \"#utility.yul\":20933:20939   */\n      dup5\n        /* \"#utility.yul\":20819:20960   */\n      tag_265\n      jump\t// in\n    tag_456:\n        /* \"#utility.yul\":20605:20967   */\n      swap3\n      swap2\n      pop\n      pop\n      jump\t// out\n        /* \"#utility.yul\":20973:21198   */\n    tag_266:\n        /* \"#utility.yul\":21113:21147   */\n      0x416464726573733a20696e73756666696369656e742062616c616e636520666f\n        /* \"#utility.yul\":21109:21110   */\n      0x00\n        /* \"#utility.yul\":21101:21107   */\n      dup3\n        /* \"#utility.yul\":21097:21111   */\n      add\n        /* \"#utility.yul\":21090:21148   */\n      mstore\n        /* \"#utility.yul\":21182:21190   */\n      0x722063616c6c0000000000000000000000000000000000000000000000000000\n        /* \"#utility.yul\":21177:21179   */\n      0x20\n        /* \"#utility.yul\":21169:21175   */\n      dup3\n        /* \"#utility.yul\":21165:21180   */\n      add\n        /* \"#utility.yul\":21158:21191   */\n      mstore\n        /* \"#utility.yul\":20973:21198   */\n      pop\n      jump\t// out\n        /* \"#utility.yul\":21204:21570   */\n    tag_267:\n        /* \"#utility.yul\":21346:21349   */\n      0x00\n        /* \"#utility.yul\":21367:21434   */\n      tag_459\n        /* \"#utility.yul\":21431:21433   */\n      0x26\n        /* \"#utility.yul\":21426:21429   */\n      dup4\n        /* \"#utility.yul\":21367:21434   */\n      tag_255\n      jump\t// in\n    tag_459:\n        /* \"#utility.yul\":21360:21434   */\n      swap2\n      pop\n        /* \"#utility.yul\":21443:21536   */\n      tag_460\n        /* \"#utility.yul\":21532:21535   */\n      dup3\n        /* \"#utility.yul\":21443:21536   */\n      tag_266\n      jump\t// in\n    tag_460:\n        /* \"#utility.yul\":21561:21563   */\n      0x40\n        /* \"#utility.yul\":21556:21559   */\n      dup3\n        /* \"#utility.yul\":21552:21564   */\n      add\n        /* \"#utility.yul\":21545:21564   */\n      swap1\n      pop\n        /* \"#utility.yul\":21204:21570   */\n      swap2\n      swap1\n      pop\n      jump\t// out\n        /* \"#utility.yul\":21576:21995   */\n    tag_188:\n        /* \"#utility.yul\":21742:21746   */\n      0x00\n        /* \"#utility.yul\":21780:21782   */\n      0x20\n        /* \"#utility.yul\":21769:21778   */\n      dup3\n        /* \"#utility.yul\":21765:21783   */\n      add\n        /* \"#utility.yul\":21757:21783   */\n      swap1\n      pop\n        /* \"#utility.yul\":21829:21838   */\n      dup2\n        /* \"#utility.yul\":21823:21827   */\n      dup2\n        /* \"#utility.yul\":21819:21839   */\n      sub\n        /* \"#utility.yul\":21815:21816   */\n      0x00\n        /* \"#utility.yul\":21804:21813   */\n      dup4\n        /* \"#utility.yul\":21800:21817   */\n      add\n        /* \"#utility.yul\":21793:21840   */\n      mstore\n        /* \"#utility.yul\":21857:21988   */\n      tag_462\n        /* \"#utility.yul\":21983:21987   */\n      dup2\n        /* \"#utility.yul\":21857:21988   */\n      tag_267\n      jump\t// in\n    tag_462:\n        /* \"#utility.yul\":21849:21988   */\n      swap1\n      pop\n        /* \"#utility.yul\":21576:21995   */\n      swap2\n      swap1\n      pop\n      jump\t// out\n        /* \"#utility.yul\":22001:22387   */\n    tag_268:\n        /* \"#utility.yul\":22105:22108   */\n      0x00\n        /* \"#utility.yul\":22133:22171   */\n      tag_464\n        /* \"#utility.yul\":22165:22170   */\n      dup3\n        /* \"#utility.yul\":22133:22171   */\n      tag_231\n      jump\t// in\n    tag_464:\n        /* \"#utility.yul\":22187:22275   */\n      tag_465\n        /* \"#utility.yul\":22268:22274   */\n      dup2\n        /* \"#utility.yul\":22263:22266   */\n      dup6\n        /* \"#utility.yul\":22187:22275   */\n      tag_252\n      jump\t// in\n    tag_465:\n        /* \"#utility.yul\":22180:22275   */\n      swap4\n      pop\n        /* \"#utility.yul\":22284:22349   */\n      tag_466\n        /* \"#utility.yul\":22342:22348   */\n      dup2\n        /* \"#utility.yul\":22337:22340   */\n      dup6\n        /* \"#utility.yul\":22330:22334   */\n      0x20\n        /* \"#utility.yul\":22323:22328   */\n      dup7\n        /* \"#utility.yul\":22319:22335   */\n      add\n        /* \"#utility.yul\":22284:22349   */\n      tag_233\n      jump\t// in\n    tag_466:\n        /* \"#utility.yul\":22374:22380   */\n      dup1\n        /* \"#utility.yul\":22369:22372   */\n      dup5\n        /* \"#utility.yul\":22365:22381   */\n      add\n        /* \"#utility.yul\":22358:22381   */\n      swap2\n      pop\n        /* \"#utility.yul\":22109:22387   */\n      pop\n        /* \"#utility.yul\":22001:22387   */\n      swap3\n      swap2\n      pop\n      pop\n      jump\t// out\n        /* \"#utility.yul\":22393:22664   */\n    tag_190:\n        /* \"#utility.yul\":22523:22526   */\n      0x00\n        /* \"#utility.yul\":22545:22638   */\n      tag_468\n        /* \"#utility.yul\":22634:22637   */\n      dup3\n        /* \"#utility.yul\":22625:22631   */\n      dup5\n        /* \"#utility.yul\":22545:22638   */\n      tag_268\n      jump\t// in\n    tag_468:\n        /* \"#utility.yul\":22538:22638   */\n      swap2\n      pop\n        /* \"#utility.yul\":22655:22658   */\n      dup2\n        /* \"#utility.yul\":22648:22658   */\n      swap1\n      pop\n        /* \"#utility.yul\":22393:22664   */\n      swap3\n      swap2\n      pop\n      pop\n      jump\t// out\n        /* \"#utility.yul\":22670:22849   */\n    tag_269:\n        /* \"#utility.yul\":22810:22841   */\n      0x416464726573733a2063616c6c20746f206e6f6e2d636f6e7472616374000000\n        /* \"#utility.yul\":22806:22807   */\n      0x00\n        /* \"#utility.yul\":22798:22804   */\n      dup3\n        /* \"#utility.yul\":22794:22808   */\n      add\n        /* \"#utility.yul\":22787:22842   */\n      mstore\n        /* \"#utility.yul\":22670:22849   */\n      pop\n      jump\t// out\n        /* \"#utility.yul\":22855:23221   */\n    tag_270:\n        /* \"#utility.yul\":22997:23000   */\n      0x00\n        /* \"#utility.yul\":23018:23085   */\n      tag_471\n        /* \"#utility.yul\":23082:23084   */\n      0x1d\n        /* \"#utility.yul\":23077:23080   */\n      dup4\n        /* \"#utility.yul\":23018:23085   */\n      tag_255\n      jump\t// in\n    tag_471:\n        /* \"#utility.yul\":23011:23085   */\n      swap2\n      pop\n        /* \"#utility.yul\":23094:23187   */\n      tag_472\n        /* \"#utility.yul\":23183:23186   */\n      dup3\n        /* \"#utility.yul\":23094:23187   */\n      tag_269\n      jump\t// in\n    tag_472:\n        /* \"#utility.yul\":23212:23214   */\n      0x20\n        /* \"#utility.yul\":23207:23210   */\n      dup3\n        /* \"#utility.yul\":23203:23215   */\n      add\n        /* \"#utility.yul\":23196:23215   */\n      swap1\n      pop\n        /* \"#utility.yul\":22855:23221   */\n      swap2\n      swap1\n      pop\n      jump\t// out\n        /* \"#utility.yul\":23227:23646   */\n    tag_203:\n        /* \"#utility.yul\":23393:23397   */\n      0x00\n        /* \"#utility.yul\":23431:23433   */\n      0x20\n        /* \"#utility.yul\":23420:23429   */\n      dup3\n        /* \"#utility.yul\":23416:23434   */\n      add\n        /* \"#utility.yul\":23408:23434   */\n      swap1\n      pop\n        /* \"#utility.yul\":23480:23489   */\n      dup2\n        /* \"#utility.yul\":23474:23478   */\n      dup2\n        /* \"#utility.yul\":23470:23490   */\n      sub\n        /* \"#utility.yul\":23466:23467   */\n      0x00\n        /* \"#utility.yul\":23455:23464   */\n      dup4\n        /* \"#utility.yul\":23451:23468   */\n      add\n        /* \"#utility.yul\":23444:23491   */\n      mstore\n        /* \"#utility.yul\":23508:23639   */\n      tag_474\n        /* \"#utility.yul\":23634:23638   */\n      dup2\n        /* \"#utility.yul\":23508:23639   */\n      tag_270\n      jump\t// in\n    tag_474:\n        /* \"#utility.yul\":23500:23639   */\n      swap1\n      pop\n        /* \"#utility.yul\":23227:23646   */\n      swap2\n      swap1\n      pop\n      jump\t// out\n        /* \"#utility.yul\":23652:23751   */\n    tag_271:\n        /* \"#utility.yul\":23704:23710   */\n      0x00\n        /* \"#utility.yul\":23738:23743   */\n      dup2\n        /* \"#utility.yul\":23732:23744   */\n      mload\n        /* \"#utility.yul\":23722:23744   */\n      swap1\n      pop\n        /* \"#utility.yul\":23652:23751   */\n      swap2\n      swap1\n      pop\n      jump\t// out\n        /* \"#utility.yul\":23757:24134   */\n    tag_272:\n        /* \"#utility.yul\":23845:23848   */\n      0x00\n        /* \"#utility.yul\":23873:23912   */\n      tag_477\n        /* \"#utility.yul\":23906:23911   */\n      dup3\n        /* \"#utility.yul\":23873:23912   */\n      tag_271\n      jump\t// in\n    tag_477:\n        /* \"#utility.yul\":23928:23999   */\n      tag_478\n        /* \"#utility.yul\":23992:23998   */\n      dup2\n        /* \"#utility.yul\":23987:23990   */\n      dup6\n        /* \"#utility.yul\":23928:23999   */\n      tag_255\n      jump\t// in\n    tag_478:\n        /* \"#utility.yul\":23921:23999   */\n      swap4\n      pop\n        /* \"#utility.yul\":24008:24073   */\n      tag_479\n        /* \"#utility.yul\":24066:24072   */\n      dup2\n        /* \"#utility.yul\":24061:24064   */\n      dup6\n        /* \"#utility.yul\":24054:24058   */\n      0x20\n        /* \"#utility.yul\":24047:24052   */\n      dup7\n        /* \"#utility.yul\":24043:24059   */\n      add\n        /* \"#utility.yul\":24008:24073   */\n      tag_233\n      jump\t// in\n    tag_479:\n        /* \"#utility.yul\":24098:24127   */\n      tag_480\n        /* \"#utility.yul\":24120:24126   */\n      dup2\n        /* \"#utility.yul\":24098:24127   */\n      tag_234\n      jump\t// in\n    tag_480:\n        /* \"#utility.yul\":24093:24096   */\n      dup5\n        /* \"#utility.yul\":24089:24128   */\n      add\n        /* \"#utility.yul\":24082:24128   */\n      swap2\n      pop\n        /* \"#utility.yul\":23849:24134   */\n      pop\n        /* \"#utility.yul\":23757:24134   */\n      swap3\n      swap2\n      pop\n      pop\n      jump\t// out\n        /* \"#utility.yul\":24140:24453   */\n    tag_212:\n        /* \"#utility.yul\":24253:24257   */\n      0x00\n        /* \"#utility.yul\":24291:24293   */\n      0x20\n        /* \"#utility.yul\":24280:24289   */\n      dup3\n        /* \"#utility.yul\":24276:24294   */\n      add\n        /* \"#utility.yul\":24268:24294   */\n      swap1\n      pop\n        /* \"#utility.yul\":24340:24349   */\n      dup2\n        /* \"#utility.yul\":24334:24338   */\n      dup2\n        /* \"#utility.yul\":24330:24350   */\n      sub\n        /* \"#utility.yul\":24326:24327   */\n      0x00\n        /* \"#utility.yul\":24315:24324   */\n      dup4\n        /* \"#utility.yul\":24311:24328   */\n      add\n        /* \"#utility.yul\":24304:24351   */\n      mstore\n        /* \"#utility.yul\":24368:24446   */\n      tag_482\n        /* \"#utility.yul\":24441:24445   */\n      dup2\n        /* \"#utility.yul\":24432:24438   */\n      dup5\n        /* \"#utility.yul\":24368:24446   */\n      tag_272\n      jump\t// in\n    tag_482:\n        /* \"#utility.yul\":24360:24446   */\n      swap1\n      pop\n        /* \"#utility.yul\":24140:24453   */\n      swap3\n      swap2\n      pop\n      pop\n      jump\t// out\n\n    auxdata: 0xa2646970667358221220b748439faadfcf421d0c0c643256b8d0bff317fda0b8c933c0da66c44cd07ab964736f6c63430008180033\n}\n",
				"bytecode": {
					"linkReferences": {},
					"object": "608060405273f694e193200268f9a4868e4aa017a0118c9a817760025f6101000a81548173ffffffffffffffffffffffffffffffffffffffff021916908373ffffffffffffffffffffffffffffffffffffffff160217905550730b9d5d9136855f6fec3c0993fee6e9ce8a29784660035f6101000a81548173ffffffffffffffffffffffffffffffffffffffff021916908373ffffffffffffffffffffffffffffffffffffffff160217905550678f90b8876dee6538600360146101000a81548167ffffffffffffffff021916908367ffffffffffffffff160217905550348015620000e9575f80fd5b5033805f8073ffffffffffffffffffffffffffffffffffffffff168273ffffffffffffffffffffffffffffffffffffffff16036200015e576040517f08c379a0000000000000000000000000000000000000000000000000000000008152600401620001559062000439565b60405180910390fd5b815f806101000a81548173ffffffffffffffffffffffffffffffffffffffff021916908373ffffffffffffffffffffffffffffffffffffffff1602179055505f73ffffffffffffffffffffffffffffffffffffffff168173ffffffffffffffffffffffffffffffffffffffff1614620001e357620001e281620002ae60201b60201c565b5b50505060025f9054906101000a900473ffffffffffffffffffffffffffffffffffffffff1660045f6101000a81548173ffffffffffffffffffffffffffffffffffffffff021916908373ffffffffffffffffffffffffffffffffffffffff16021790555060035f9054906101000a900473ffffffffffffffffffffffffffffffffffffffff1660055f6101000a81548173ffffffffffffffffffffffffffffffffffffffff021916908373ffffffffffffffffffffffffffffffffffffffff160217905550620004c7565b3373ffffffffffffffffffffffffffffffffffffffff168173ffffffffffffffffffffffffffffffffffffffff16036200031f576040517f08c379a00000000000000000000000000000000000000000000000000000000081526004016200031690620004a7565b60405180910390fd5b8060015f6101000a81548173ffffffffffffffffffffffffffffffffffffffff021916908373ffffffffffffffffffffffffffffffffffffffff1602179055508073ffffffffffffffffffffffffffffffffffffffff165f8054906101000a900473ffffffffffffffffffffffffffffffffffffffff1673ffffffffffffffffffffffffffffffffffffffff167fed8889f560326eb138920d842192f0eb3dd22b4f139c87a2c57538e05bae127860405160405180910390a350565b5f82825260208201905092915050565b7f43616e6e6f7420736574206f776e657220746f207a65726f00000000000000005f82015250565b5f62000421601883620003db565b91506200042e82620003eb565b602082019050919050565b5f6020820190508181035f830152620004528162000413565b9050919050565b7f43616e6e6f74207472616e7366657220746f2073656c660000000000000000005f82015250565b5f6200048f601783620003db565b91506200049c8262000459565b602082019050919050565b5f6020820190508181035f830152620004c08162000481565b9050919050565b611fa580620004d55f395ff3fe608060405260043610610073575f3560e01c806379ba50971161004d57806379ba50971461010a5780638da5cb5b14610120578063bbb6eae51461014a578063f2fde38b146101865761007a565b80633aeac4e11461007e57806351419b4b146100a657806351cff8d9146100e25761007a565b3661007a57005b5f80fd5b348015610089575f80fd5b506100a4600480360381019061009f919061150c565b6101ae565b005b3480156100b1575f80fd5b506100cc60048036038101906100c791906115ba565b61029a565b6040516100d99190611636565b60405180910390f35b3480156100ed575f80fd5b506101086004803603810190610103919061164f565b610590565b005b348015610115575f80fd5b5061011e610688565b005b34801561012b575f80fd5b50610134610817565b6040516101419190611689565b60405180910390f35b348015610155575f80fd5b50610170600480360381019061016b91906116a2565b61083e565b60405161017d9190611636565b60405180910390f35b348015610191575f80fd5b506101ac60048036038101906101a7919061164f565b610da3565b005b6101b6610db7565b5f8173ffffffffffffffffffffffffffffffffffffffff166370a08231306040518263ffffffff1660e01b81526004016101f09190611689565b602060405180830381865afa15801561020b573d5f803e3d5ffd5b505050506040513d601f19601f8201168201806040525081019061022f9190611706565b90505f810361026a576040517fd0d04f6000000000000000000000000000000000000000000000000000000000815260040160405180910390fd5b61029583828473ffffffffffffffffffffffffffffffffffffffff16610e469092919063ffffffff16565b505050565b5f6102a3610db7565b835f73ffffffffffffffffffffffffffffffffffffffff168173ffffffffffffffffffffffffffffffffffffffff1603610309576040517fa05ff47e00000000000000000000000000000000000000000000000000000000815260040160405180910390fd5b5f6103168686865f610ecc565b90505f60045f9054906101000a900473ffffffffffffffffffffffffffffffffffffffff1673ffffffffffffffffffffffffffffffffffffffff166320487ded89846040518363ffffffff1660e01b8152600401610375929190611945565b602060405180830381865afa158015610390573d5f803e3d5ffd5b505050506040513d601f19601f820116820180604052508101906103b49190611706565b9050478111156103fd5747816040517f8f0f42060000000000000000000000000000000000000000000000000000000081526004016103f4929190611982565b60405180910390fd5b8573ffffffffffffffffffffffffffffffffffffffff1663095ea7b360045f9054906101000a900473ffffffffffffffffffffffffffffffffffffffff16876040518363ffffffff1660e01b81526004016104599291906119a9565b6020604051808303815f875af1158015610475573d5f803e3d5ffd5b505050506040513d601f19601f820116820180604052508101906104999190611a05565b5060045f9054906101000a900473ffffffffffffffffffffffffffffffffffffffff1673ffffffffffffffffffffffffffffffffffffffff166396f4e9f9828a856040518463ffffffff1660e01b81526004016104f7929190611945565b60206040518083038185885af1158015610513573d5f803e3d5ffd5b50505050506040513d601f19601f820116820180604052508101906105389190611a5a565b93508767ffffffffffffffff16847fc15fb748c32ba4eb29c1c311e78533f93b4425eab49ea87c6fe4279ecadca0438989895f8760405161057d959493929190611a85565b60405180910390a3505050949350505050565b610598610db7565b5f4790505f81036105d5576040517fd0d04f6000000000000000000000000000000000000000000000000000000000815260040160405180910390fd5b5f8273ffffffffffffffffffffffffffffffffffffffff16826040516105fa90611b03565b5f6040518083038185875af1925050503d805f8114610634576040519150601f19603f3d011682016040523d82523d5f602084013e610639565b606091505b5050905080610683573383836040517f9d11f56300000000000000000000000000000000000000000000000000000000815260040161067a93929190611b17565b60405180910390fd5b505050565b60015f9054906101000a900473ffffffffffffffffffffffffffffffffffffffff1673ffffffffffffffffffffffffffffffffffffffff163373ffffffffffffffffffffffffffffffffffffffff1614610717576040517f08c379a000000000000000000000000000000000000000000000000000000000815260040161070e90611ba6565b60405180910390fd5b5f805f9054906101000a900473ffffffffffffffffffffffffffffffffffffffff169050335f806101000a81548173ffffffffffffffffffffffffffffffffffffffff021916908373ffffffffffffffffffffffffffffffffffffffff1602179055505f60015f6101000a81548173ffffffffffffffffffffffffffffffffffffffff021916908373ffffffffffffffffffffffffffffffffffffffff1602179055503373ffffffffffffffffffffffffffffffffffffffff168173ffffffffffffffffffffffffffffffffffffffff167f8be0079c531659141344cd1fd0a4f28419497f9722a3daafe3b4186f6b6457e060405160405180910390a350565b5f805f9054906101000a900473ffffffffffffffffffffffffffffffffffffffff16905090565b5f610847610db7565b835f73ffffffffffffffffffffffffffffffffffffffff168173ffffffffffffffffffffffffffffffffffffffff16036108ad576040517fa05ff47e00000000000000000000000000000000000000000000000000000000815260040160405180910390fd5b5f6108db86868660055f9054906101000a900473ffffffffffffffffffffffffffffffffffffffff16610ecc565b90505f60045f9054906101000a900473ffffffffffffffffffffffffffffffffffffffff1673ffffffffffffffffffffffffffffffffffffffff166320487ded600360149054906101000a900467ffffffffffffffff16846040518363ffffffff1660e01b8152600401610950929190611945565b602060405180830381865afa15801561096b573d5f803e3d5ffd5b505050506040513d601f19601f8201168201806040525081019061098f9190611706565b905060055f9054906101000a900473ffffffffffffffffffffffffffffffffffffffff1673ffffffffffffffffffffffffffffffffffffffff166370a08231306040518263ffffffff1660e01b81526004016109eb9190611689565b602060405180830381865afa158015610a06573d5f803e3d5ffd5b505050506040513d601f19601f82011682018060405250810190610a2a9190611706565b811115610b085760055f9054906101000a900473ffffffffffffffffffffffffffffffffffffffff1673ffffffffffffffffffffffffffffffffffffffff166370a08231306040518263ffffffff1660e01b8152600401610a8b9190611689565b602060405180830381865afa158015610aa6573d5f803e3d5ffd5b505050506040513d601f19601f82011682018060405250810190610aca9190611706565b816040517f8f0f4206000000000000000000000000000000000000000000000000000000008152600401610aff929190611982565b60405180910390fd5b60055f9054906101000a900473ffffffffffffffffffffffffffffffffffffffff1673ffffffffffffffffffffffffffffffffffffffff1663095ea7b360045f9054906101000a900473ffffffffffffffffffffffffffffffffffffffff16836040518363ffffffff1660e01b8152600401610b859291906119a9565b6020604051808303815f875af1158015610ba1573d5f803e3d5ffd5b505050506040513d601f19601f82011682018060405250810190610bc59190611a05565b508573ffffffffffffffffffffffffffffffffffffffff1663095ea7b360045f9054906101000a900473ffffffffffffffffffffffffffffffffffffffff16876040518363ffffffff1660e01b8152600401610c229291906119a9565b6020604051808303815f875af1158015610c3e573d5f803e3d5ffd5b505050506040513d601f19601f82011682018060405250810190610c629190611a05565b5060045f9054906101000a900473ffffffffffffffffffffffffffffffffffffffff1673ffffffffffffffffffffffffffffffffffffffff166396f4e9f9600360149054906101000a900467ffffffffffffffff16846040518363ffffffff1660e01b8152600401610cd5929190611945565b6020604051808303815f875af1158015610cf1573d5f803e3d5ffd5b505050506040513d601f19601f82011682018060405250810190610d159190611a5a565b9350600360149054906101000a900467ffffffffffffffff1667ffffffffffffffff16847fc15fb748c32ba4eb29c1c311e78533f93b4425eab49ea87c6fe4279ecadca04389898960055f9054906101000a900473ffffffffffffffffffffffffffffffffffffffff1687604051610d91959493929190611a85565b60405180910390a35050509392505050565b610dab610db7565b610db481611009565b50565b5f8054906101000a900473ffffffffffffffffffffffffffffffffffffffff1673ffffffffffffffffffffffffffffffffffffffff163373ffffffffffffffffffffffffffffffffffffffff1614610e44576040517f08c379a0000000000000000000000000000000000000000000000000000000008152600401610e3b90611c0e565b60405180910390fd5b565b610ec78363a9059cbb60e01b8484604051602401610e659291906119a9565b604051602081830303815290604052907bffffffffffffffffffffffffffffffffffffffffffffffffffffffff19166020820180517bffffffffffffffffffffffffffffffffffffffffffffffffffffffff8381831617835250505050611133565b505050565b610ed461143c565b5f600167ffffffffffffffff811115610ef057610eef611c2c565b5b604051908082528060200260200182016040528015610f2957816020015b610f16611480565b815260200190600190039081610f0e5790505b50905060405180604001604052808673ffffffffffffffffffffffffffffffffffffffff16815260200185815250815f81518110610f6a57610f69611c59565b5b60200260200101819052506040518060a0016040528087604051602001610f919190611689565b604051602081830303815290604052815260200160405180602001604052805f81525081526020018281526020018473ffffffffffffffffffffffffffffffffffffffff168152602001610ffb60405180604001604052805f8152602001600115158152506111f8565b815250915050949350505050565b3373ffffffffffffffffffffffffffffffffffffffff168173ffffffffffffffffffffffffffffffffffffffff1603611077576040517f08c379a000000000000000000000000000000000000000000000000000000000815260040161106e90611cd0565b60405180910390fd5b8060015f6101000a81548173ffffffffffffffffffffffffffffffffffffffff021916908373ffffffffffffffffffffffffffffffffffffffff1602179055508073ffffffffffffffffffffffffffffffffffffffff165f8054906101000a900473ffffffffffffffffffffffffffffffffffffffff1673ffffffffffffffffffffffffffffffffffffffff167fed8889f560326eb138920d842192f0eb3dd22b4f139c87a2c57538e05bae127860405160405180910390a350565b5f611194826040518060400160405280602081526020017f5361666545524332303a206c6f772d6c6576656c2063616c6c206661696c65648152508573ffffffffffffffffffffffffffffffffffffffff166112779092919063ffffffff16565b90505f815111156111f357808060200190518101906111b39190611a05565b6111f2576040517f08c379a00000000000000000000000000000000000000000000000000000000081526004016111e990611d5e565b60405180910390fd5b5b505050565b606063181dcf1060e01b826040516024016112139190611db8565b604051602081830303815290604052907bffffffffffffffffffffffffffffffffffffffffffffffffffffffff19166020820180517bffffffffffffffffffffffffffffffffffffffffffffffffffffffff83818316178352505050509050919050565b606061128584845f8561128e565b90509392505050565b6060824710156112d3576040517f08c379a00000000000000000000000000000000000000000000000000000000081526004016112ca90611e41565b60405180910390fd5b5f808673ffffffffffffffffffffffffffffffffffffffff1685876040516112fb9190611e8f565b5f6040518083038185875af1925050503d805f8114611335576040519150601f19603f3d011682016040523d82523d5f602084013e61133a565b606091505b509150915061134b87838387611357565b92505050949350505050565b606083156113b8575f8351036113b057611370856113cb565b6113af576040517f08c379a00000000000000000000000000000000000000000000000000000000081526004016113a690611eef565b60405180910390fd5b5b8290506113c3565b6113c283836113ed565b5b949350505050565b5f808273ffffffffffffffffffffffffffffffffffffffff163b119050919050565b5f825111156113ff5781518083602001fd5b806040517f08c379a00000000000000000000000000000000000000000000000000000000081526004016114339190611f4f565b60405180910390fd5b6040518060a001604052806060815260200160608152602001606081526020015f73ffffffffffffffffffffffffffffffffffffffff168152602001606081525090565b60405180604001604052805f73ffffffffffffffffffffffffffffffffffffffff1681526020015f81525090565b5f80fd5b5f73ffffffffffffffffffffffffffffffffffffffff82169050919050565b5f6114db826114b2565b9050919050565b6114eb816114d1565b81146114f5575f80fd5b50565b5f81359050611506816114e2565b92915050565b5f8060408385031215611522576115216114ae565b5b5f61152f858286016114f8565b9250506020611540858286016114f8565b9150509250929050565b5f67ffffffffffffffff82169050919050565b6115668161154a565b8114611570575f80fd5b50565b5f813590506115818161155d565b92915050565b5f819050919050565b61159981611587565b81146115a3575f80fd5b50565b5f813590506115b481611590565b92915050565b5f805f80608085870312156115d2576115d16114ae565b5b5f6115df87828801611573565b94505060206115f0878288016114f8565b9350506040611601878288016114f8565b9250506060611612878288016115a6565b91505092959194509250565b5f819050919050565b6116308161161e565b82525050565b5f6020820190506116495f830184611627565b92915050565b5f60208284031215611664576116636114ae565b5b5f611671848285016114f8565b91505092915050565b611683816114d1565b82525050565b5f60208201905061169c5f83018461167a565b92915050565b5f805f606084860312156116b9576116b86114ae565b5b5f6116c6868287016114f8565b93505060206116d7868287016114f8565b92505060406116e8868287016115a6565b9150509250925092565b5f8151905061170081611590565b92915050565b5f6020828403121561171b5761171a6114ae565b5b5f611728848285016116f2565b91505092915050565b61173a8161154a565b82525050565b5f81519050919050565b5f82825260208201905092915050565b5f5b8381101561177757808201518184015260208101905061175c565b5f8484015250505050565b5f601f19601f8301169050919050565b5f61179c82611740565b6117a6818561174a565b93506117b681856020860161175a565b6117bf81611782565b840191505092915050565b5f81519050919050565b5f82825260208201905092915050565b5f819050602082019050919050565b6117fc816114d1565b82525050565b61180b81611587565b82525050565b604082015f8201516118255f8501826117f3565b5060208201516118386020850182611802565b50505050565b5f6118498383611811565b60408301905092915050565b5f602082019050919050565b5f61186b826117ca565b61187581856117d4565b9350611880836117e4565b805f5b838110156118b0578151611897888261183e565b97506118a283611855565b925050600181019050611883565b5085935050505092915050565b5f60a083015f8301518482035f8601526118d78282611792565b915050602083015184820360208601526118f18282611792565b9150506040830151848203604086015261190b8282611861565b915050606083015161192060608601826117f3565b50608083015184820360808601526119388282611792565b9150508091505092915050565b5f6040820190506119585f830185611731565b818103602083015261196a81846118bd565b90509392505050565b61197c81611587565b82525050565b5f6040820190506119955f830185611973565b6119a26020830184611973565b9392505050565b5f6040820190506119bc5f83018561167a565b6119c96020830184611973565b9392505050565b5f8115159050919050565b6119e4816119d0565b81146119ee575f80fd5b50565b5f815190506119ff816119db565b92915050565b5f60208284031215611a1a57611a196114ae565b5b5f611a27848285016119f1565b91505092915050565b611a398161161e565b8114611a43575f80fd5b50565b5f81519050611a5481611a30565b92915050565b5f60208284031215611a6f57611a6e6114ae565b5b5f611a7c84828501611a46565b91505092915050565b5f60a082019050611a985f83018861167a565b611aa5602083018761167a565b611ab26040830186611973565b611abf606083018561167a565b611acc6080830184611973565b9695505050505050565b5f81905092915050565b50565b5f611aee5f83611ad6565b9150611af982611ae0565b5f82019050919050565b5f611b0d82611ae3565b9150819050919050565b5f606082019050611b2a5f83018661167a565b611b37602083018561167a565b611b446040830184611973565b949350505050565b5f82825260208201905092915050565b7f4d7573742062652070726f706f736564206f776e6572000000000000000000005f82015250565b5f611b90601683611b4c565b9150611b9b82611b5c565b602082019050919050565b5f6020820190508181035f830152611bbd81611b84565b9050919050565b7f4f6e6c792063616c6c61626c65206279206f776e6572000000000000000000005f82015250565b5f611bf8601683611b4c565b9150611c0382611bc4565b602082019050919050565b5f6020820190508181035f830152611c2581611bec565b9050919050565b7f4e487b71000000000000000000000000000000000000000000000000000000005f52604160045260245ffd5b7f4e487b71000000000000000000000000000000000000000000000000000000005f52603260045260245ffd5b7f43616e6e6f74207472616e7366657220746f2073656c660000000000000000005f82015250565b5f611cba601783611b4c565b9150611cc582611c86565b602082019050919050565b5f6020820190508181035f830152611ce781611cae565b9050919050565b7f5361666545524332303a204552433230206f7065726174696f6e20646964206e5f8201527f6f74207375636365656400000000000000000000000000000000000000000000602082015250565b5f611d48602a83611b4c565b9150611d5382611cee565b604082019050919050565b5f6020820190508181035f830152611d7581611d3c565b9050919050565b611d85816119d0565b82525050565b604082015f820151611d9f5f850182611802565b506020820151611db26020850182611d7c565b50505050565b5f604082019050611dcb5f830184611d8b565b92915050565b7f416464726573733a20696e73756666696369656e742062616c616e636520666f5f8201527f722063616c6c0000000000000000000000000000000000000000000000000000602082015250565b5f611e2b602683611b4c565b9150611e3682611dd1565b604082019050919050565b5f6020820190508181035f830152611e5881611e1f565b9050919050565b5f611e6982611740565b611e738185611ad6565b9350611e8381856020860161175a565b80840191505092915050565b5f611e9a8284611e5f565b915081905092915050565b7f416464726573733a2063616c6c20746f206e6f6e2d636f6e74726163740000005f82015250565b5f611ed9601d83611b4c565b9150611ee482611ea5565b602082019050919050565b5f6020820190508181035f830152611f0681611ecd565b9050919050565b5f81519050919050565b5f611f2182611f0d565b611f2b8185611b4c565b9350611f3b81856020860161175a565b611f4481611782565b840191505092915050565b5f6020820190508181035f830152611f678184611f17565b90509291505056fea2646970667358221220b748439faadfcf421d0c0c643256b8d0bff317fda0b8c933c0da66c44cd07ab964736f6c63430008180033",
					"opcodes": "PUSH1 0x80 PUSH1 0x40 MSTORE PUSH20 0xF694E193200268F9A4868E4AA017A0118C9A8177 PUSH1 0x2 PUSH0 PUSH2 0x100 EXP DUP2 SLOAD DUP2 PUSH20 0xFFFFFFFFFFFFFFFFFFFFFFFFFFFFFFFFFFFFFFFF MUL NOT AND SWAP1 DUP4 PUSH20 0xFFFFFFFFFFFFFFFFFFFFFFFFFFFFFFFFFFFFFFFF AND MUL OR SWAP1 SSTORE POP PUSH20 0xB9D5D9136855F6FEC3C0993FEE6E9CE8A297846 PUSH1 0x3 PUSH0 PUSH2 0x100 EXP DUP2 SLOAD DUP2 PUSH20 0xFFFFFFFFFFFFFFFFFFFFFFFFFFFFFFFFFFFFFFFF MUL NOT AND SWAP1 DUP4 PUSH20 0xFFFFFFFFFFFFFFFFFFFFFFFFFFFFFFFFFFFFFFFF AND MUL OR SWAP1 SSTORE POP PUSH8 0x8F90B8876DEE6538 PUSH1 0x3 PUSH1 0x14 PUSH2 0x100 EXP DUP2 SLOAD DUP2 PUSH8 0xFFFFFFFFFFFFFFFF MUL NOT AND SWAP1 DUP4 PUSH8 0xFFFFFFFFFFFFFFFF AND MUL OR SWAP1 SSTORE POP CALLVALUE DUP1 ISZERO PUSH3 0xE9 JUMPI PUSH0 DUP1 REVERT JUMPDEST POP CALLER DUP1 PUSH0 DUP1 PUSH20 0xFFFFFFFFFFFFFFFFFFFFFFFFFFFFFFFFFFFFFFFF AND DUP3 PUSH20 0xFFFFFFFFFFFFFFFFFFFFFFFFFFFFFFFFFFFFFFFF AND SUB PUSH3 0x15E JUMPI PUSH1 0x40 MLOAD PUSH32 0x8C379A000000000000000000000000000000000000000000000000000000000 DUP2 MSTORE PUSH1 0x4 ADD PUSH3 0x155 SWAP1 PUSH3 0x439 JUMP JUMPDEST PUSH1 0x40 MLOAD DUP1 SWAP2 SUB SWAP1 REVERT JUMPDEST DUP2 PUSH0 DUP1 PUSH2 0x100 EXP DUP2 SLOAD DUP2 PUSH20 0xFFFFFFFFFFFFFFFFFFFFFFFFFFFFFFFFFFFFFFFF MUL NOT AND SWAP1 DUP4 PUSH20 0xFFFFFFFFFFFFFFFFFFFFFFFFFFFFFFFFFFFFFFFF AND MUL OR SWAP1 SSTORE POP PUSH0 PUSH20 0xFFFFFFFFFFFFFFFFFFFFFFFFFFFFFFFFFFFFFFFF AND DUP2 PUSH20 0xFFFFFFFFFFFFFFFFFFFFFFFFFFFFFFFFFFFFFFFF AND EQ PUSH3 0x1E3 JUMPI PUSH3 0x1E2 DUP2 PUSH3 0x2AE PUSH1 0x20 SHL PUSH1 0x20 SHR JUMP JUMPDEST JUMPDEST POP POP POP PUSH1 0x2 PUSH0 SWAP1 SLOAD SWAP1 PUSH2 0x100 EXP SWAP1 DIV PUSH20 0xFFFFFFFFFFFFFFFFFFFFFFFFFFFFFFFFFFFFFFFF AND PUSH1 0x4 PUSH0 PUSH2 0x100 EXP DUP2 SLOAD DUP2 PUSH20 0xFFFFFFFFFFFFFFFFFFFFFFFFFFFFFFFFFFFFFFFF MUL NOT AND SWAP1 DUP4 PUSH20 0xFFFFFFFFFFFFFFFFFFFFFFFFFFFFFFFFFFFFFFFF AND MUL OR SWAP1 SSTORE POP PUSH1 0x3 PUSH0 SWAP1 SLOAD SWAP1 PUSH2 0x100 EXP SWAP1 DIV PUSH20 0xFFFFFFFFFFFFFFFFFFFFFFFFFFFFFFFFFFFFFFFF AND PUSH1 0x5 PUSH0 PUSH2 0x100 EXP DUP2 SLOAD DUP2 PUSH20 0xFFFFFFFFFFFFFFFFFFFFFFFFFFFFFFFFFFFFFFFF MUL NOT AND SWAP1 DUP4 PUSH20 0xFFFFFFFFFFFFFFFFFFFFFFFFFFFFFFFFFFFFFFFF AND MUL OR SWAP1 SSTORE POP PUSH3 0x4C7 JUMP JUMPDEST CALLER PUSH20 0xFFFFFFFFFFFFFFFFFFFFFFFFFFFFFFFFFFFFFFFF AND DUP2 PUSH20 0xFFFFFFFFFFFFFFFFFFFFFFFFFFFFFFFFFFFFFFFF AND SUB PUSH3 0x31F JUMPI PUSH1 0x40 MLOAD PUSH32 0x8C379A000000000000000000000000000000000000000000000000000000000 DUP2 MSTORE PUSH1 0x4 ADD PUSH3 0x316 SWAP1 PUSH3 0x4A7 JUMP JUMPDEST PUSH1 0x40 MLOAD DUP1 SWAP2 SUB SWAP1 REVERT JUMPDEST DUP1 PUSH1 0x1 PUSH0 PUSH2 0x100 EXP DUP2 SLOAD DUP2 PUSH20 0xFFFFFFFFFFFFFFFFFFFFFFFFFFFFFFFFFFFFFFFF MUL NOT AND SWAP1 DUP4 PUSH20 0xFFFFFFFFFFFFFFFFFFFFFFFFFFFFFFFFFFFFFFFF AND MUL OR SWAP1 SSTORE POP DUP1 PUSH20 0xFFFFFFFFFFFFFFFFFFFFFFFFFFFFFFFFFFFFFFFF AND PUSH0 DUP1 SLOAD SWAP1 PUSH2 0x100 EXP SWAP1 DIV PUSH20 0xFFFFFFFFFFFFFFFFFFFFFFFFFFFFFFFFFFFFFFFF AND PUSH20 0xFFFFFFFFFFFFFFFFFFFFFFFFFFFFFFFFFFFFFFFF AND PUSH32 0xED8889F560326EB138920D842192F0EB3DD22B4F139C87A2C57538E05BAE1278 PUSH1 0x40 MLOAD PUSH1 0x40 MLOAD DUP1 SWAP2 SUB SWAP1 LOG3 POP JUMP JUMPDEST PUSH0 DUP3 DUP3 MSTORE PUSH1 0x20 DUP3 ADD SWAP1 POP SWAP3 SWAP2 POP POP JUMP JUMPDEST PUSH32 0x43616E6E6F7420736574206F776E657220746F207A65726F0000000000000000 PUSH0 DUP3 ADD MSTORE POP JUMP JUMPDEST PUSH0 PUSH3 0x421 PUSH1 0x18 DUP4 PUSH3 0x3DB JUMP JUMPDEST SWAP2 POP PUSH3 0x42E DUP3 PUSH3 0x3EB JUMP JUMPDEST PUSH1 0x20 DUP3 ADD SWAP1 POP SWAP2 SWAP1 POP JUMP JUMPDEST PUSH0 PUSH1 0x20 DUP3 ADD SWAP1 POP DUP2 DUP2 SUB PUSH0 DUP4 ADD MSTORE PUSH3 0x452 DUP2 PUSH3 0x413 JUMP JUMPDEST SWAP1 POP SWAP2 SWAP1 POP JUMP JUMPDEST PUSH32 0x43616E6E6F74207472616E7366657220746F2073656C66000000000000000000 PUSH0 DUP3 ADD MSTORE POP JUMP JUMPDEST PUSH0 PUSH3 0x48F PUSH1 0x17 DUP4 PUSH3 0x3DB JUMP JUMPDEST SWAP2 POP PUSH3 0x49C DUP3 PUSH3 0x459 JUMP JUMPDEST PUSH1 0x20 DUP3 ADD SWAP1 POP SWAP2 SWAP1 POP JUMP JUMPDEST PUSH0 PUSH1 0x20 DUP3 ADD SWAP1 POP DUP2 DUP2 SUB PUSH0 DUP4 ADD MSTORE PUSH3 0x4C0 DUP2 PUSH3 0x481 JUMP JUMPDEST SWAP1 POP SWAP2 SWAP1 POP JUMP JUMPDEST PUSH2 0x1FA5 DUP1 PUSH3 0x4D5 PUSH0 CODECOPY PUSH0 RETURN INVALID PUSH1 0x80 PUSH1 0x40 MSTORE PUSH1 0x4 CALLDATASIZE LT PUSH2 0x73 JUMPI PUSH0 CALLDATALOAD PUSH1 0xE0 SHR DUP1 PUSH4 0x79BA5097 GT PUSH2 0x4D JUMPI DUP1 PUSH4 0x79BA5097 EQ PUSH2 0x10A JUMPI DUP1 PUSH4 0x8DA5CB5B EQ PUSH2 0x120 JUMPI DUP1 PUSH4 0xBBB6EAE5 EQ PUSH2 0x14A JUMPI DUP1 PUSH4 0xF2FDE38B EQ PUSH2 0x186 JUMPI PUSH2 0x7A JUMP JUMPDEST DUP1 PUSH4 0x3AEAC4E1 EQ PUSH2 0x7E JUMPI DUP1 PUSH4 0x51419B4B EQ PUSH2 0xA6 JUMPI DUP1 PUSH4 0x51CFF8D9 EQ PUSH2 0xE2 JUMPI PUSH2 0x7A JUMP JUMPDEST CALLDATASIZE PUSH2 0x7A JUMPI STOP JUMPDEST PUSH0 DUP1 REVERT JUMPDEST CALLVALUE DUP1 ISZERO PUSH2 0x89 JUMPI PUSH0 DUP1 REVERT JUMPDEST POP PUSH2 0xA4 PUSH1 0x4 DUP1 CALLDATASIZE SUB DUP2 ADD SWAP1 PUSH2 0x9F SWAP2 SWAP1 PUSH2 0x150C JUMP JUMPDEST PUSH2 0x1AE JUMP JUMPDEST STOP JUMPDEST CALLVALUE DUP1 ISZERO PUSH2 0xB1 JUMPI PUSH0 DUP1 REVERT JUMPDEST POP PUSH2 0xCC PUSH1 0x4 DUP1 CALLDATASIZE SUB DUP2 ADD SWAP1 PUSH2 0xC7 SWAP2 SWAP1 PUSH2 0x15BA JUMP JUMPDEST PUSH2 0x29A JUMP JUMPDEST PUSH1 0x40 MLOAD PUSH2 0xD9 SWAP2 SWAP1 PUSH2 0x1636 JUMP JUMPDEST PUSH1 0x40 MLOAD DUP1 SWAP2 SUB SWAP1 RETURN JUMPDEST CALLVALUE DUP1 ISZERO PUSH2 0xED JUMPI PUSH0 DUP1 REVERT JUMPDEST POP PUSH2 0x108 PUSH1 0x4 DUP1 CALLDATASIZE SUB DUP2 ADD SWAP1 PUSH2 0x103 SWAP2 SWAP1 PUSH2 0x164F JUMP JUMPDEST PUSH2 0x590 JUMP JUMPDEST STOP JUMPDEST CALLVALUE DUP1 ISZERO PUSH2 0x115 JUMPI PUSH0 DUP1 REVERT JUMPDEST POP PUSH2 0x11E PUSH2 0x688 JUMP JUMPDEST STOP JUMPDEST CALLVALUE DUP1 ISZERO PUSH2 0x12B JUMPI PUSH0 DUP1 REVERT JUMPDEST POP PUSH2 0x134 PUSH2 0x817 JUMP JUMPDEST PUSH1 0x40 MLOAD PUSH2 0x141 SWAP2 SWAP1 PUSH2 0x1689 JUMP JUMPDEST PUSH1 0x40 MLOAD DUP1 SWAP2 SUB SWAP1 RETURN JUMPDEST CALLVALUE DUP1 ISZERO PUSH2 0x155 JUMPI PUSH0 DUP1 REVERT JUMPDEST POP PUSH2 0x170 PUSH1 0x4 DUP1 CALLDATASIZE SUB DUP2 ADD SWAP1 PUSH2 0x16B SWAP2 SWAP1 PUSH2 0x16A2 JUMP JUMPDEST PUSH2 0x83E JUMP JUMPDEST PUSH1 0x40 MLOAD PUSH2 0x17D SWAP2 SWAP1 PUSH2 0x1636 JUMP JUMPDEST PUSH1 0x40 MLOAD DUP1 SWAP2 SUB SWAP1 RETURN JUMPDEST CALLVALUE DUP1 ISZERO PUSH2 0x191 JUMPI PUSH0 DUP1 REVERT JUMPDEST POP PUSH2 0x1AC PUSH1 0x4 DUP1 CALLDATASIZE SUB DUP2 ADD SWAP1 PUSH2 0x1A7 SWAP2 SWAP1 PUSH2 0x164F JUMP JUMPDEST PUSH2 0xDA3 JUMP JUMPDEST STOP JUMPDEST PUSH2 0x1B6 PUSH2 0xDB7 JUMP JUMPDEST PUSH0 DUP2 PUSH20 0xFFFFFFFFFFFFFFFFFFFFFFFFFFFFFFFFFFFFFFFF AND PUSH4 0x70A08231 ADDRESS PUSH1 0x40 MLOAD DUP3 PUSH4 0xFFFFFFFF AND PUSH1 0xE0 SHL DUP2 MSTORE PUSH1 0x4 ADD PUSH2 0x1F0 SWAP2 SWAP1 PUSH2 0x1689 JUMP JUMPDEST PUSH1 0x20 PUSH1 0x40 MLOAD DUP1 DUP4 SUB DUP2 DUP7 GAS STATICCALL ISZERO DUP1 ISZERO PUSH2 0x20B JUMPI RETURNDATASIZE PUSH0 DUP1 RETURNDATACOPY RETURNDATASIZE PUSH0 REVERT JUMPDEST POP POP POP POP PUSH1 0x40 MLOAD RETURNDATASIZE PUSH1 0x1F NOT PUSH1 0x1F DUP3 ADD AND DUP3 ADD DUP1 PUSH1 0x40 MSTORE POP DUP2 ADD SWAP1 PUSH2 0x22F SWAP2 SWAP1 PUSH2 0x1706 JUMP JUMPDEST SWAP1 POP PUSH0 DUP2 SUB PUSH2 0x26A JUMPI PUSH1 0x40 MLOAD PUSH32 0xD0D04F6000000000000000000000000000000000000000000000000000000000 DUP2 MSTORE PUSH1 0x4 ADD PUSH1 0x40 MLOAD DUP1 SWAP2 SUB SWAP1 REVERT JUMPDEST PUSH2 0x295 DUP4 DUP3 DUP5 PUSH20 0xFFFFFFFFFFFFFFFFFFFFFFFFFFFFFFFFFFFFFFFF AND PUSH2 0xE46 SWAP1 SWAP3 SWAP2 SWAP1 PUSH4 0xFFFFFFFF AND JUMP JUMPDEST POP POP POP JUMP JUMPDEST PUSH0 PUSH2 0x2A3 PUSH2 0xDB7 JUMP JUMPDEST DUP4 PUSH0 PUSH20 0xFFFFFFFFFFFFFFFFFFFFFFFFFFFFFFFFFFFFFFFF AND DUP2 PUSH20 0xFFFFFFFFFFFFFFFFFFFFFFFFFFFFFFFFFFFFFFFF AND SUB PUSH2 0x309 JUMPI PUSH1 0x40 MLOAD PUSH32 0xA05FF47E00000000000000000000000000000000000000000000000000000000 DUP2 MSTORE PUSH1 0x4 ADD PUSH1 0x40 MLOAD DUP1 SWAP2 SUB SWAP1 REVERT JUMPDEST PUSH0 PUSH2 0x316 DUP7 DUP7 DUP7 PUSH0 PUSH2 0xECC JUMP JUMPDEST SWAP1 POP PUSH0 PUSH1 0x4 PUSH0 SWAP1 SLOAD SWAP1 PUSH2 0x100 EXP SWAP1 DIV PUSH20 0xFFFFFFFFFFFFFFFFFFFFFFFFFFFFFFFFFFFFFFFF AND PUSH20 0xFFFFFFFFFFFFFFFFFFFFFFFFFFFFFFFFFFFFFFFF AND PUSH4 0x20487DED DUP10 DUP5 PUSH1 0x40 MLOAD DUP4 PUSH4 0xFFFFFFFF AND PUSH1 0xE0 SHL DUP2 MSTORE PUSH1 0x4 ADD PUSH2 0x375 SWAP3 SWAP2 SWAP1 PUSH2 0x1945 JUMP JUMPDEST PUSH1 0x20 PUSH1 0x40 MLOAD DUP1 DUP4 SUB DUP2 DUP7 GAS STATICCALL ISZERO DUP1 ISZERO PUSH2 0x390 JUMPI RETURNDATASIZE PUSH0 DUP1 RETURNDATACOPY RETURNDATASIZE PUSH0 REVERT JUMPDEST POP POP POP POP PUSH1 0x40 MLOAD RETURNDATASIZE PUSH1 0x1F NOT PUSH1 0x1F DUP3 ADD AND DUP3 ADD DUP1 PUSH1 0x40 MSTORE POP DUP2 ADD SWAP1 PUSH2 0x3B4 SWAP2 SWAP1 PUSH2 0x1706 JUMP JUMPDEST SWAP1 POP SELFBALANCE DUP2 GT ISZERO PUSH2 0x3FD JUMPI SELFBALANCE DUP2 PUSH1 0x40 MLOAD PUSH32 0x8F0F420600000000000000000000000000000000000000000000000000000000 DUP2 MSTORE PUSH1 0x4 ADD PUSH2 0x3F4 SWAP3 SWAP2 SWAP1 PUSH2 0x1982 JUMP JUMPDEST PUSH1 0x40 MLOAD DUP1 SWAP2 SUB SWAP1 REVERT JUMPDEST DUP6 PUSH20 0xFFFFFFFFFFFFFFFFFFFFFFFFFFFFFFFFFFFFFFFF AND PUSH4 0x95EA7B3 PUSH1 0x4 PUSH0 SWAP1 SLOAD SWAP1 PUSH2 0x100 EXP SWAP1 DIV PUSH20 0xFFFFFFFFFFFFFFFFFFFFFFFFFFFFFFFFFFFFFFFF AND DUP8 PUSH1 0x40 MLOAD DUP4 PUSH4 0xFFFFFFFF AND PUSH1 0xE0 SHL DUP2 MSTORE PUSH1 0x4 ADD PUSH2 0x459 SWAP3 SWAP2 SWAP1 PUSH2 0x19A9 JUMP JUMPDEST PUSH1 0x20 PUSH1 0x40 MLOAD DUP1 DUP4 SUB DUP2 PUSH0 DUP8 GAS CALL ISZERO DUP1 ISZERO PUSH2 0x475 JUMPI RETURNDATASIZE PUSH0 DUP1 RETURNDATACOPY RETURNDATASIZE PUSH0 REVERT JUMPDEST POP POP POP POP PUSH1 0x40 MLOAD RETURNDATASIZE PUSH1 0x1F NOT PUSH1 0x1F DUP3 ADD AND DUP3 ADD DUP1 PUSH1 0x40 MSTORE POP DUP2 ADD SWAP1 PUSH2 0x499 SWAP2 SWAP1 PUSH2 0x1A05 JUMP JUMPDEST POP PUSH1 0x4 PUSH0 SWAP1 SLOAD SWAP1 PUSH2 0x100 EXP SWAP1 DIV PUSH20 0xFFFFFFFFFFFFFFFFFFFFFFFFFFFFFFFFFFFFFFFF AND PUSH20 0xFFFFFFFFFFFFFFFFFFFFFFFFFFFFFFFFFFFFFFFF AND PUSH4 0x96F4E9F9 DUP3 DUP11 DUP6 PUSH1 0x40 MLOAD DUP5 PUSH4 0xFFFFFFFF AND PUSH1 0xE0 SHL DUP2 MSTORE PUSH1 0x4 ADD PUSH2 0x4F7 SWAP3 SWAP2 SWAP1 PUSH2 0x1945 JUMP JUMPDEST PUSH1 0x20 PUSH1 0x40 MLOAD DUP1 DUP4 SUB DUP2 DUP6 DUP9 GAS CALL ISZERO DUP1 ISZERO PUSH2 0x513 JUMPI RETURNDATASIZE PUSH0 DUP1 RETURNDATACOPY RETURNDATASIZE PUSH0 REVERT JUMPDEST POP POP POP POP POP PUSH1 0x40 MLOAD RETURNDATASIZE PUSH1 0x1F NOT PUSH1 0x1F DUP3 ADD AND DUP3 ADD DUP1 PUSH1 0x40 MSTORE POP DUP2 ADD SWAP1 PUSH2 0x538 SWAP2 SWAP1 PUSH2 0x1A5A JUMP JUMPDEST SWAP4 POP DUP8 PUSH8 0xFFFFFFFFFFFFFFFF AND DUP5 PUSH32 0xC15FB748C32BA4EB29C1C311E78533F93B4425EAB49EA87C6FE4279ECADCA043 DUP10 DUP10 DUP10 PUSH0 DUP8 PUSH1 0x40 MLOAD PUSH2 0x57D SWAP6 SWAP5 SWAP4 SWAP3 SWAP2 SWAP1 PUSH2 0x1A85 JUMP JUMPDEST PUSH1 0x40 MLOAD DUP1 SWAP2 SUB SWAP1 LOG3 POP POP POP SWAP5 SWAP4 POP POP POP POP JUMP JUMPDEST PUSH2 0x598 PUSH2 0xDB7 JUMP JUMPDEST PUSH0 SELFBALANCE SWAP1 POP PUSH0 DUP2 SUB PUSH2 0x5D5 JUMPI PUSH1 0x40 MLOAD PUSH32 0xD0D04F6000000000000000000000000000000000000000000000000000000000 DUP2 MSTORE PUSH1 0x4 ADD PUSH1 0x40 MLOAD DUP1 SWAP2 SUB SWAP1 REVERT JUMPDEST PUSH0 DUP3 PUSH20 0xFFFFFFFFFFFFFFFFFFFFFFFFFFFFFFFFFFFFFFFF AND DUP3 PUSH1 0x40 MLOAD PUSH2 0x5FA SWAP1 PUSH2 0x1B03 JUMP JUMPDEST PUSH0 PUSH1 0x40 MLOAD DUP1 DUP4 SUB DUP2 DUP6 DUP8 GAS CALL SWAP3 POP POP POP RETURNDATASIZE DUP1 PUSH0 DUP2 EQ PUSH2 0x634 JUMPI PUSH1 0x40 MLOAD SWAP2 POP PUSH1 0x1F NOT PUSH1 0x3F RETURNDATASIZE ADD AND DUP3 ADD PUSH1 0x40 MSTORE RETURNDATASIZE DUP3 MSTORE RETURNDATASIZE PUSH0 PUSH1 0x20 DUP5 ADD RETURNDATACOPY PUSH2 0x639 JUMP JUMPDEST PUSH1 0x60 SWAP2 POP JUMPDEST POP POP SWAP1 POP DUP1 PUSH2 0x683 JUMPI CALLER DUP4 DUP4 PUSH1 0x40 MLOAD PUSH32 0x9D11F56300000000000000000000000000000000000000000000000000000000 DUP2 MSTORE PUSH1 0x4 ADD PUSH2 0x67A SWAP4 SWAP3 SWAP2 SWAP1 PUSH2 0x1B17 JUMP JUMPDEST PUSH1 0x40 MLOAD DUP1 SWAP2 SUB SWAP1 REVERT JUMPDEST POP POP POP JUMP JUMPDEST PUSH1 0x1 PUSH0 SWAP1 SLOAD SWAP1 PUSH2 0x100 EXP SWAP1 DIV PUSH20 0xFFFFFFFFFFFFFFFFFFFFFFFFFFFFFFFFFFFFFFFF AND PUSH20 0xFFFFFFFFFFFFFFFFFFFFFFFFFFFFFFFFFFFFFFFF AND CALLER PUSH20 0xFFFFFFFFFFFFFFFFFFFFFFFFFFFFFFFFFFFFFFFF AND EQ PUSH2 0x717 JUMPI PUSH1 0x40 MLOAD PUSH32 0x8C379A000000000000000000000000000000000000000000000000000000000 DUP2 MSTORE PUSH1 0x4 ADD PUSH2 0x70E SWAP1 PUSH2 0x1BA6 JUMP JUMPDEST PUSH1 0x40 MLOAD DUP1 SWAP2 SUB SWAP1 REVERT JUMPDEST PUSH0 DUP1 PUSH0 SWAP1 SLOAD SWAP1 PUSH2 0x100 EXP SWAP1 DIV PUSH20 0xFFFFFFFFFFFFFFFFFFFFFFFFFFFFFFFFFFFFFFFF AND SWAP1 POP CALLER PUSH0 DUP1 PUSH2 0x100 EXP DUP2 SLOAD DUP2 PUSH20 0xFFFFFFFFFFFFFFFFFFFFFFFFFFFFFFFFFFFFFFFF MUL NOT AND SWAP1 DUP4 PUSH20 0xFFFFFFFFFFFFFFFFFFFFFFFFFFFFFFFFFFFFFFFF AND MUL OR SWAP1 SSTORE POP PUSH0 PUSH1 0x1 PUSH0 PUSH2 0x100 EXP DUP2 SLOAD DUP2 PUSH20 0xFFFFFFFFFFFFFFFFFFFFFFFFFFFFFFFFFFFFFFFF MUL NOT AND SWAP1 DUP4 PUSH20 0xFFFFFFFFFFFFFFFFFFFFFFFFFFFFFFFFFFFFFFFF AND MUL OR SWAP1 SSTORE POP CALLER PUSH20 0xFFFFFFFFFFFFFFFFFFFFFFFFFFFFFFFFFFFFFFFF AND DUP2 PUSH20 0xFFFFFFFFFFFFFFFFFFFFFFFFFFFFFFFFFFFFFFFF AND PUSH32 0x8BE0079C531659141344CD1FD0A4F28419497F9722A3DAAFE3B4186F6B6457E0 PUSH1 0x40 MLOAD PUSH1 0x40 MLOAD DUP1 SWAP2 SUB SWAP1 LOG3 POP JUMP JUMPDEST PUSH0 DUP1 PUSH0 SWAP1 SLOAD SWAP1 PUSH2 0x100 EXP SWAP1 DIV PUSH20 0xFFFFFFFFFFFFFFFFFFFFFFFFFFFFFFFFFFFFFFFF AND SWAP1 POP SWAP1 JUMP JUMPDEST PUSH0 PUSH2 0x847 PUSH2 0xDB7 JUMP JUMPDEST DUP4 PUSH0 PUSH20 0xFFFFFFFFFFFFFFFFFFFFFFFFFFFFFFFFFFFFFFFF AND DUP2 PUSH20 0xFFFFFFFFFFFFFFFFFFFFFFFFFFFFFFFFFFFFFFFF AND SUB PUSH2 0x8AD JUMPI PUSH1 0x40 MLOAD PUSH32 0xA05FF47E00000000000000000000000000000000000000000000000000000000 DUP2 MSTORE PUSH1 0x4 ADD PUSH1 0x40 MLOAD DUP1 SWAP2 SUB SWAP1 REVERT JUMPDEST PUSH0 PUSH2 0x8DB DUP7 DUP7 DUP7 PUSH1 0x5 PUSH0 SWAP1 SLOAD SWAP1 PUSH2 0x100 EXP SWAP1 DIV PUSH20 0xFFFFFFFFFFFFFFFFFFFFFFFFFFFFFFFFFFFFFFFF AND PUSH2 0xECC JUMP JUMPDEST SWAP1 POP PUSH0 PUSH1 0x4 PUSH0 SWAP1 SLOAD SWAP1 PUSH2 0x100 EXP SWAP1 DIV PUSH20 0xFFFFFFFFFFFFFFFFFFFFFFFFFFFFFFFFFFFFFFFF AND PUSH20 0xFFFFFFFFFFFFFFFFFFFFFFFFFFFFFFFFFFFFFFFF AND PUSH4 0x20487DED PUSH1 0x3 PUSH1 0x14 SWAP1 SLOAD SWAP1 PUSH2 0x100 EXP SWAP1 DIV PUSH8 0xFFFFFFFFFFFFFFFF AND DUP5 PUSH1 0x40 MLOAD DUP4 PUSH4 0xFFFFFFFF AND PUSH1 0xE0 SHL DUP2 MSTORE PUSH1 0x4 ADD PUSH2 0x950 SWAP3 SWAP2 SWAP1 PUSH2 0x1945 JUMP JUMPDEST PUSH1 0x20 PUSH1 0x40 MLOAD DUP1 DUP4 SUB DUP2 DUP7 GAS STATICCALL ISZERO DUP1 ISZERO PUSH2 0x96B JUMPI RETURNDATASIZE PUSH0 DUP1 RETURNDATACOPY RETURNDATASIZE PUSH0 REVERT JUMPDEST POP POP POP POP PUSH1 0x40 MLOAD RETURNDATASIZE PUSH1 0x1F NOT PUSH1 0x1F DUP3 ADD AND DUP3 ADD DUP1 PUSH1 0x40 MSTORE POP DUP2 ADD SWAP1 PUSH2 0x98F SWAP2 SWAP1 PUSH2 0x1706 JUMP JUMPDEST SWAP1 POP PUSH1 0x5 PUSH0 SWAP1 SLOAD SWAP1 PUSH2 0x100 EXP SWAP1 DIV PUSH20 0xFFFFFFFFFFFFFFFFFFFFFFFFFFFFFFFFFFFFFFFF AND PUSH20 0xFFFFFFFFFFFFFFFFFFFFFFFFFFFFFFFFFFFFFFFF AND PUSH4 0x70A08231 ADDRESS PUSH1 0x40 MLOAD DUP3 PUSH4 0xFFFFFFFF AND PUSH1 0xE0 SHL DUP2 MSTORE PUSH1 0x4 ADD PUSH2 0x9EB SWAP2 SWAP1 PUSH2 0x1689 JUMP JUMPDEST PUSH1 0x20 PUSH1 0x40 MLOAD DUP1 DUP4 SUB DUP2 DUP7 GAS STATICCALL ISZERO DUP1 ISZERO PUSH2 0xA06 JUMPI RETURNDATASIZE PUSH0 DUP1 RETURNDATACOPY RETURNDATASIZE PUSH0 REVERT JUMPDEST POP POP POP POP PUSH1 0x40 MLOAD RETURNDATASIZE PUSH1 0x1F NOT PUSH1 0x1F DUP3 ADD AND DUP3 ADD DUP1 PUSH1 0x40 MSTORE POP DUP2 ADD SWAP1 PUSH2 0xA2A SWAP2 SWAP1 PUSH2 0x1706 JUMP JUMPDEST DUP2 GT ISZERO PUSH2 0xB08 JUMPI PUSH1 0x5 PUSH0 SWAP1 SLOAD SWAP1 PUSH2 0x100 EXP SWAP1 DIV PUSH20 0xFFFFFFFFFFFFFFFFFFFFFFFFFFFFFFFFFFFFFFFF AND PUSH20 0xFFFFFFFFFFFFFFFFFFFFFFFFFFFFFFFFFFFFFFFF AND PUSH4 0x70A08231 ADDRESS PUSH1 0x40 MLOAD DUP3 PUSH4 0xFFFFFFFF AND PUSH1 0xE0 SHL DUP2 MSTORE PUSH1 0x4 ADD PUSH2 0xA8B SWAP2 SWAP1 PUSH2 0x1689 JUMP JUMPDEST PUSH1 0x20 PUSH1 0x40 MLOAD DUP1 DUP4 SUB DUP2 DUP7 GAS STATICCALL ISZERO DUP1 ISZERO PUSH2 0xAA6 JUMPI RETURNDATASIZE PUSH0 DUP1 RETURNDATACOPY RETURNDATASIZE PUSH0 REVERT JUMPDEST POP POP POP POP PUSH1 0x40 MLOAD RETURNDATASIZE PUSH1 0x1F NOT PUSH1 0x1F DUP3 ADD AND DUP3 ADD DUP1 PUSH1 0x40 MSTORE POP DUP2 ADD SWAP1 PUSH2 0xACA SWAP2 SWAP1 PUSH2 0x1706 JUMP JUMPDEST DUP2 PUSH1 0x40 MLOAD PUSH32 0x8F0F420600000000000000000000000000000000000000000000000000000000 DUP2 MSTORE PUSH1 0x4 ADD PUSH2 0xAFF SWAP3 SWAP2 SWAP1 PUSH2 0x1982 JUMP JUMPDEST PUSH1 0x40 MLOAD DUP1 SWAP2 SUB SWAP1 REVERT JUMPDEST PUSH1 0x5 PUSH0 SWAP1 SLOAD SWAP1 PUSH2 0x100 EXP SWAP1 DIV PUSH20 0xFFFFFFFFFFFFFFFFFFFFFFFFFFFFFFFFFFFFFFFF AND PUSH20 0xFFFFFFFFFFFFFFFFFFFFFFFFFFFFFFFFFFFFFFFF AND PUSH4 0x95EA7B3 PUSH1 0x4 PUSH0 SWAP1 SLOAD SWAP1 PUSH2 0x100 EXP SWAP1 DIV PUSH20 0xFFFFFFFFFFFFFFFFFFFFFFFFFFFFFFFFFFFFFFFF AND DUP4 PUSH1 0x40 MLOAD DUP4 PUSH4 0xFFFFFFFF AND PUSH1 0xE0 SHL DUP2 MSTORE PUSH1 0x4 ADD PUSH2 0xB85 SWAP3 SWAP2 SWAP1 PUSH2 0x19A9 JUMP JUMPDEST PUSH1 0x20 PUSH1 0x40 MLOAD DUP1 DUP4 SUB DUP2 PUSH0 DUP8 GAS CALL ISZERO DUP1 ISZERO PUSH2 0xBA1 JUMPI RETURNDATASIZE PUSH0 DUP1 RETURNDATACOPY RETURNDATASIZE PUSH0 REVERT JUMPDEST POP POP POP POP PUSH1 0x40 MLOAD RETURNDATASIZE PUSH1 0x1F NOT PUSH1 0x1F DUP3 ADD AND DUP3 ADD DUP1 PUSH1 0x40 MSTORE POP DUP2 ADD SWAP1 PUSH2 0xBC5 SWAP2 SWAP1 PUSH2 0x1A05 JUMP JUMPDEST POP DUP6 PUSH20 0xFFFFFFFFFFFFFFFFFFFFFFFFFFFFFFFFFFFFFFFF AND PUSH4 0x95EA7B3 PUSH1 0x4 PUSH0 SWAP1 SLOAD SWAP1 PUSH2 0x100 EXP SWAP1 DIV PUSH20 0xFFFFFFFFFFFFFFFFFFFFFFFFFFFFFFFFFFFFFFFF AND DUP8 PUSH1 0x40 MLOAD DUP4 PUSH4 0xFFFFFFFF AND PUSH1 0xE0 SHL DUP2 MSTORE PUSH1 0x4 ADD PUSH2 0xC22 SWAP3 SWAP2 SWAP1 PUSH2 0x19A9 JUMP JUMPDEST PUSH1 0x20 PUSH1 0x40 MLOAD DUP1 DUP4 SUB DUP2 PUSH0 DUP8 GAS CALL ISZERO DUP1 ISZERO PUSH2 0xC3E JUMPI RETURNDATASIZE PUSH0 DUP1 RETURNDATACOPY RETURNDATASIZE PUSH0 REVERT JUMPDEST POP POP POP POP PUSH1 0x40 MLOAD RETURNDATASIZE PUSH1 0x1F NOT PUSH1 0x1F DUP3 ADD AND DUP3 ADD DUP1 PUSH1 0x40 MSTORE POP DUP2 ADD SWAP1 PUSH2 0xC62 SWAP2 SWAP1 PUSH2 0x1A05 JUMP JUMPDEST POP PUSH1 0x4 PUSH0 SWAP1 SLOAD SWAP1 PUSH2 0x100 EXP SWAP1 DIV PUSH20 0xFFFFFFFFFFFFFFFFFFFFFFFFFFFFFFFFFFFFFFFF AND PUSH20 0xFFFFFFFFFFFFFFFFFFFFFFFFFFFFFFFFFFFFFFFF AND PUSH4 0x96F4E9F9 PUSH1 0x3 PUSH1 0x14 SWAP1 SLOAD SWAP1 PUSH2 0x100 EXP SWAP1 DIV PUSH8 0xFFFFFFFFFFFFFFFF AND DUP5 PUSH1 0x40 MLOAD DUP4 PUSH4 0xFFFFFFFF AND PUSH1 0xE0 SHL DUP2 MSTORE PUSH1 0x4 ADD PUSH2 0xCD5 SWAP3 SWAP2 SWAP1 PUSH2 0x1945 JUMP JUMPDEST PUSH1 0x20 PUSH1 0x40 MLOAD DUP1 DUP4 SUB DUP2 PUSH0 DUP8 GAS CALL ISZERO DUP1 ISZERO PUSH2 0xCF1 JUMPI RETURNDATASIZE PUSH0 DUP1 RETURNDATACOPY RETURNDATASIZE PUSH0 REVERT JUMPDEST POP POP POP POP PUSH1 0x40 MLOAD RETURNDATASIZE PUSH1 0x1F NOT PUSH1 0x1F DUP3 ADD AND DUP3 ADD DUP1 PUSH1 0x40 MSTORE POP DUP2 ADD SWAP1 PUSH2 0xD15 SWAP2 SWAP1 PUSH2 0x1A5A JUMP JUMPDEST SWAP4 POP PUSH1 0x3 PUSH1 0x14 SWAP1 SLOAD SWAP1 PUSH2 0x100 EXP SWAP1 DIV PUSH8 0xFFFFFFFFFFFFFFFF AND PUSH8 0xFFFFFFFFFFFFFFFF AND DUP5 PUSH32 0xC15FB748C32BA4EB29C1C311E78533F93B4425EAB49EA87C6FE4279ECADCA043 DUP10 DUP10 DUP10 PUSH1 0x5 PUSH0 SWAP1 SLOAD SWAP1 PUSH2 0x100 EXP SWAP1 DIV PUSH20 0xFFFFFFFFFFFFFFFFFFFFFFFFFFFFFFFFFFFFFFFF AND DUP8 PUSH1 0x40 MLOAD PUSH2 0xD91 SWAP6 SWAP5 SWAP4 SWAP3 SWAP2 SWAP1 PUSH2 0x1A85 JUMP JUMPDEST PUSH1 0x40 MLOAD DUP1 SWAP2 SUB SWAP1 LOG3 POP POP POP SWAP4 SWAP3 POP POP POP JUMP JUMPDEST PUSH2 0xDAB PUSH2 0xDB7 JUMP JUMPDEST PUSH2 0xDB4 DUP2 PUSH2 0x1009 JUMP JUMPDEST POP JUMP JUMPDEST PUSH0 DUP1 SLOAD SWAP1 PUSH2 0x100 EXP SWAP1 DIV PUSH20 0xFFFFFFFFFFFFFFFFFFFFFFFFFFFFFFFFFFFFFFFF AND PUSH20 0xFFFFFFFFFFFFFFFFFFFFFFFFFFFFFFFFFFFFFFFF AND CALLER PUSH20 0xFFFFFFFFFFFFFFFFFFFFFFFFFFFFFFFFFFFFFFFF AND EQ PUSH2 0xE44 JUMPI PUSH1 0x40 MLOAD PUSH32 0x8C379A000000000000000000000000000000000000000000000000000000000 DUP2 MSTORE PUSH1 0x4 ADD PUSH2 0xE3B SWAP1 PUSH2 0x1C0E JUMP JUMPDEST PUSH1 0x40 MLOAD DUP1 SWAP2 SUB SWAP1 REVERT JUMPDEST JUMP JUMPDEST PUSH2 0xEC7 DUP4 PUSH4 0xA9059CBB PUSH1 0xE0 SHL DUP5 DUP5 PUSH1 0x40 MLOAD PUSH1 0x24 ADD PUSH2 0xE65 SWAP3 SWAP2 SWAP1 PUSH2 0x19A9 JUMP JUMPDEST PUSH1 0x40 MLOAD PUSH1 0x20 DUP2 DUP4 SUB SUB DUP2 MSTORE SWAP1 PUSH1 0x40 MSTORE SWAP1 PUSH28 0xFFFFFFFFFFFFFFFFFFFFFFFFFFFFFFFFFFFFFFFFFFFFFFFFFFFFFFFF NOT AND PUSH1 0x20 DUP3 ADD DUP1 MLOAD PUSH28 0xFFFFFFFFFFFFFFFFFFFFFFFFFFFFFFFFFFFFFFFFFFFFFFFFFFFFFFFF DUP4 DUP2 DUP4 AND OR DUP4 MSTORE POP POP POP POP PUSH2 0x1133 JUMP JUMPDEST POP POP POP JUMP JUMPDEST PUSH2 0xED4 PUSH2 0x143C JUMP JUMPDEST PUSH0 PUSH1 0x1 PUSH8 0xFFFFFFFFFFFFFFFF DUP2 GT ISZERO PUSH2 0xEF0 JUMPI PUSH2 0xEEF PUSH2 0x1C2C JUMP JUMPDEST JUMPDEST PUSH1 0x40 MLOAD SWAP1 DUP1 DUP3 MSTORE DUP1 PUSH1 0x20 MUL PUSH1 0x20 ADD DUP3 ADD PUSH1 0x40 MSTORE DUP1 ISZERO PUSH2 0xF29 JUMPI DUP2 PUSH1 0x20 ADD JUMPDEST PUSH2 0xF16 PUSH2 0x1480 JUMP JUMPDEST DUP2 MSTORE PUSH1 0x20 ADD SWAP1 PUSH1 0x1 SWAP1 SUB SWAP1 DUP2 PUSH2 0xF0E JUMPI SWAP1 POP JUMPDEST POP SWAP1 POP PUSH1 0x40 MLOAD DUP1 PUSH1 0x40 ADD PUSH1 0x40 MSTORE DUP1 DUP7 PUSH20 0xFFFFFFFFFFFFFFFFFFFFFFFFFFFFFFFFFFFFFFFF AND DUP2 MSTORE PUSH1 0x20 ADD DUP6 DUP2 MSTORE POP DUP2 PUSH0 DUP2 MLOAD DUP2 LT PUSH2 0xF6A JUMPI PUSH2 0xF69 PUSH2 0x1C59 JUMP JUMPDEST JUMPDEST PUSH1 0x20 MUL PUSH1 0x20 ADD ADD DUP2 SWAP1 MSTORE POP PUSH1 0x40 MLOAD DUP1 PUSH1 0xA0 ADD PUSH1 0x40 MSTORE DUP1 DUP8 PUSH1 0x40 MLOAD PUSH1 0x20 ADD PUSH2 0xF91 SWAP2 SWAP1 PUSH2 0x1689 JUMP JUMPDEST PUSH1 0x40 MLOAD PUSH1 0x20 DUP2 DUP4 SUB SUB DUP2 MSTORE SWAP1 PUSH1 0x40 MSTORE DUP2 MSTORE PUSH1 0x20 ADD PUSH1 0x40 MLOAD DUP1 PUSH1 0x20 ADD PUSH1 0x40 MSTORE DUP1 PUSH0 DUP2 MSTORE POP DUP2 MSTORE PUSH1 0x20 ADD DUP3 DUP2 MSTORE PUSH1 0x20 ADD DUP5 PUSH20 0xFFFFFFFFFFFFFFFFFFFFFFFFFFFFFFFFFFFFFFFF AND DUP2 MSTORE PUSH1 0x20 ADD PUSH2 0xFFB PUSH1 0x40 MLOAD DUP1 PUSH1 0x40 ADD PUSH1 0x40 MSTORE DUP1 PUSH0 DUP2 MSTORE PUSH1 0x20 ADD PUSH1 0x1 ISZERO ISZERO DUP2 MSTORE POP PUSH2 0x11F8 JUMP JUMPDEST DUP2 MSTORE POP SWAP2 POP POP SWAP5 SWAP4 POP POP POP POP JUMP JUMPDEST CALLER PUSH20 0xFFFFFFFFFFFFFFFFFFFFFFFFFFFFFFFFFFFFFFFF AND DUP2 PUSH20 0xFFFFFFFFFFFFFFFFFFFFFFFFFFFFFFFFFFFFFFFF AND SUB PUSH2 0x1077 JUMPI PUSH1 0x40 MLOAD PUSH32 0x8C379A000000000000000000000000000000000000000000000000000000000 DUP2 MSTORE PUSH1 0x4 ADD PUSH2 0x106E SWAP1 PUSH2 0x1CD0 JUMP JUMPDEST PUSH1 0x40 MLOAD DUP1 SWAP2 SUB SWAP1 REVERT JUMPDEST DUP1 PUSH1 0x1 PUSH0 PUSH2 0x100 EXP DUP2 SLOAD DUP2 PUSH20 0xFFFFFFFFFFFFFFFFFFFFFFFFFFFFFFFFFFFFFFFF MUL NOT AND SWAP1 DUP4 PUSH20 0xFFFFFFFFFFFFFFFFFFFFFFFFFFFFFFFFFFFFFFFF AND MUL OR SWAP1 SSTORE POP DUP1 PUSH20 0xFFFFFFFFFFFFFFFFFFFFFFFFFFFFFFFFFFFFFFFF AND PUSH0 DUP1 SLOAD SWAP1 PUSH2 0x100 EXP SWAP1 DIV PUSH20 0xFFFFFFFFFFFFFFFFFFFFFFFFFFFFFFFFFFFFFFFF AND PUSH20 0xFFFFFFFFFFFFFFFFFFFFFFFFFFFFFFFFFFFFFFFF AND PUSH32 0xED8889F560326EB138920D842192F0EB3DD22B4F139C87A2C57538E05BAE1278 PUSH1 0x40 MLOAD PUSH1 0x40 MLOAD DUP1 SWAP2 SUB SWAP1 LOG3 POP JUMP JUMPDEST PUSH0 PUSH2 0x1194 DUP3 PUSH1 0x40 MLOAD DUP1 PUSH1 0x40 ADD PUSH1 0x40 MSTORE DUP1 PUSH1 0x20 DUP2 MSTORE PUSH1 0x20 ADD PUSH32 0x5361666545524332303A206C6F772D6C6576656C2063616C6C206661696C6564 DUP2 MSTORE POP DUP6 PUSH20 0xFFFFFFFFFFFFFFFFFFFFFFFFFFFFFFFFFFFFFFFF AND PUSH2 0x1277 SWAP1 SWAP3 SWAP2 SWAP1 PUSH4 0xFFFFFFFF AND JUMP JUMPDEST SWAP1 POP PUSH0 DUP2 MLOAD GT ISZERO PUSH2 0x11F3 JUMPI DUP1 DUP1 PUSH1 0x20 ADD SWAP1 MLOAD DUP2 ADD SWAP1 PUSH2 0x11B3 SWAP2 SWAP1 PUSH2 0x1A05 JUMP JUMPDEST PUSH2 0x11F2 JUMPI PUSH1 0x40 MLOAD PUSH32 0x8C379A000000000000000000000000000000000000000000000000000000000 DUP2 MSTORE PUSH1 0x4 ADD PUSH2 0x11E9 SWAP1 PUSH2 0x1D5E JUMP JUMPDEST PUSH1 0x40 MLOAD DUP1 SWAP2 SUB SWAP1 REVERT JUMPDEST JUMPDEST POP POP POP JUMP JUMPDEST PUSH1 0x60 PUSH4 0x181DCF10 PUSH1 0xE0 SHL DUP3 PUSH1 0x40 MLOAD PUSH1 0x24 ADD PUSH2 0x1213 SWAP2 SWAP1 PUSH2 0x1DB8 JUMP JUMPDEST PUSH1 0x40 MLOAD PUSH1 0x20 DUP2 DUP4 SUB SUB DUP2 MSTORE SWAP1 PUSH1 0x40 MSTORE SWAP1 PUSH28 0xFFFFFFFFFFFFFFFFFFFFFFFFFFFFFFFFFFFFFFFFFFFFFFFFFFFFFFFF NOT AND PUSH1 0x20 DUP3 ADD DUP1 MLOAD PUSH28 0xFFFFFFFFFFFFFFFFFFFFFFFFFFFFFFFFFFFFFFFFFFFFFFFFFFFFFFFF DUP4 DUP2 DUP4 AND OR DUP4 MSTORE POP POP POP POP SWAP1 POP SWAP2 SWAP1 POP JUMP JUMPDEST PUSH1 0x60 PUSH2 0x1285 DUP5 DUP5 PUSH0 DUP6 PUSH2 0x128E JUMP JUMPDEST SWAP1 POP SWAP4 SWAP3 POP POP POP JUMP JUMPDEST PUSH1 0x60 DUP3 SELFBALANCE LT ISZERO PUSH2 0x12D3 JUMPI PUSH1 0x40 MLOAD PUSH32 0x8C379A000000000000000000000000000000000000000000000000000000000 DUP2 MSTORE PUSH1 0x4 ADD PUSH2 0x12CA SWAP1 PUSH2 0x1E41 JUMP JUMPDEST PUSH1 0x40 MLOAD DUP1 SWAP2 SUB SWAP1 REVERT JUMPDEST PUSH0 DUP1 DUP7 PUSH20 0xFFFFFFFFFFFFFFFFFFFFFFFFFFFFFFFFFFFFFFFF AND DUP6 DUP8 PUSH1 0x40 MLOAD PUSH2 0x12FB SWAP2 SWAP1 PUSH2 0x1E8F JUMP JUMPDEST PUSH0 PUSH1 0x40 MLOAD DUP1 DUP4 SUB DUP2 DUP6 DUP8 GAS CALL SWAP3 POP POP POP RETURNDATASIZE DUP1 PUSH0 DUP2 EQ PUSH2 0x1335 JUMPI PUSH1 0x40 MLOAD SWAP2 POP PUSH1 0x1F NOT PUSH1 0x3F RETURNDATASIZE ADD AND DUP3 ADD PUSH1 0x40 MSTORE RETURNDATASIZE DUP3 MSTORE RETURNDATASIZE PUSH0 PUSH1 0x20 DUP5 ADD RETURNDATACOPY PUSH2 0x133A JUMP JUMPDEST PUSH1 0x60 SWAP2 POP JUMPDEST POP SWAP2 POP SWAP2 POP PUSH2 0x134B DUP8 DUP4 DUP4 DUP8 PUSH2 0x1357 JUMP JUMPDEST SWAP3 POP POP POP SWAP5 SWAP4 POP POP POP POP JUMP JUMPDEST PUSH1 0x60 DUP4 ISZERO PUSH2 0x13B8 JUMPI PUSH0 DUP4 MLOAD SUB PUSH2 0x13B0 JUMPI PUSH2 0x1370 DUP6 PUSH2 0x13CB JUMP JUMPDEST PUSH2 0x13AF JUMPI PUSH1 0x40 MLOAD PUSH32 0x8C379A000000000000000000000000000000000000000000000000000000000 DUP2 MSTORE PUSH1 0x4 ADD PUSH2 0x13A6 SWAP1 PUSH2 0x1EEF JUMP JUMPDEST PUSH1 0x40 MLOAD DUP1 SWAP2 SUB SWAP1 REVERT JUMPDEST JUMPDEST DUP3 SWAP1 POP PUSH2 0x13C3 JUMP JUMPDEST PUSH2 0x13C2 DUP4 DUP4 PUSH2 0x13ED JUMP JUMPDEST JUMPDEST SWAP5 SWAP4 POP POP POP POP JUMP JUMPDEST PUSH0 DUP1 DUP3 PUSH20 0xFFFFFFFFFFFFFFFFFFFFFFFFFFFFFFFFFFFFFFFF AND EXTCODESIZE GT SWAP1 POP SWAP2 SWAP1 POP JUMP JUMPDEST PUSH0 DUP3 MLOAD GT ISZERO PUSH2 0x13FF JUMPI DUP2 MLOAD DUP1 DUP4 PUSH1 0x20 ADD REVERT JUMPDEST DUP1 PUSH1 0x40 MLOAD PUSH32 0x8C379A000000000000000000000000000000000000000000000000000000000 DUP2 MSTORE PUSH1 0x4 ADD PUSH2 0x1433 SWAP2 SWAP1 PUSH2 0x1F4F JUMP JUMPDEST PUSH1 0x40 MLOAD DUP1 SWAP2 SUB SWAP1 REVERT JUMPDEST PUSH1 0x40 MLOAD DUP1 PUSH1 0xA0 ADD PUSH1 0x40 MSTORE DUP1 PUSH1 0x60 DUP2 MSTORE PUSH1 0x20 ADD PUSH1 0x60 DUP2 MSTORE PUSH1 0x20 ADD PUSH1 0x60 DUP2 MSTORE PUSH1 0x20 ADD PUSH0 PUSH20 0xFFFFFFFFFFFFFFFFFFFFFFFFFFFFFFFFFFFFFFFF AND DUP2 MSTORE PUSH1 0x20 ADD PUSH1 0x60 DUP2 MSTORE POP SWAP1 JUMP JUMPDEST PUSH1 0x40 MLOAD DUP1 PUSH1 0x40 ADD PUSH1 0x40 MSTORE DUP1 PUSH0 PUSH20 0xFFFFFFFFFFFFFFFFFFFFFFFFFFFFFFFFFFFFFFFF AND DUP2 MSTORE PUSH1 0x20 ADD PUSH0 DUP2 MSTORE POP SWAP1 JUMP JUMPDEST PUSH0 DUP1 REVERT JUMPDEST PUSH0 PUSH20 0xFFFFFFFFFFFFFFFFFFFFFFFFFFFFFFFFFFFFFFFF DUP3 AND SWAP1 POP SWAP2 SWAP1 POP JUMP JUMPDEST PUSH0 PUSH2 0x14DB DUP3 PUSH2 0x14B2 JUMP JUMPDEST SWAP1 POP SWAP2 SWAP1 POP JUMP JUMPDEST PUSH2 0x14EB DUP2 PUSH2 0x14D1 JUMP JUMPDEST DUP2 EQ PUSH2 0x14F5 JUMPI PUSH0 DUP1 REVERT JUMPDEST POP JUMP JUMPDEST PUSH0 DUP2 CALLDATALOAD SWAP1 POP PUSH2 0x1506 DUP2 PUSH2 0x14E2 JUMP JUMPDEST SWAP3 SWAP2 POP POP JUMP JUMPDEST PUSH0 DUP1 PUSH1 0x40 DUP4 DUP6 SUB SLT ISZERO PUSH2 0x1522 JUMPI PUSH2 0x1521 PUSH2 0x14AE JUMP JUMPDEST JUMPDEST PUSH0 PUSH2 0x152F DUP6 DUP3 DUP7 ADD PUSH2 0x14F8 JUMP JUMPDEST SWAP3 POP POP PUSH1 0x20 PUSH2 0x1540 DUP6 DUP3 DUP7 ADD PUSH2 0x14F8 JUMP JUMPDEST SWAP2 POP POP SWAP3 POP SWAP3 SWAP1 POP JUMP JUMPDEST PUSH0 PUSH8 0xFFFFFFFFFFFFFFFF DUP3 AND SWAP1 POP SWAP2 SWAP1 POP JUMP JUMPDEST PUSH2 0x1566 DUP2 PUSH2 0x154A JUMP JUMPDEST DUP2 EQ PUSH2 0x1570 JUMPI PUSH0 DUP1 REVERT JUMPDEST POP JUMP JUMPDEST PUSH0 DUP2 CALLDATALOAD SWAP1 POP PUSH2 0x1581 DUP2 PUSH2 0x155D JUMP JUMPDEST SWAP3 SWAP2 POP POP JUMP JUMPDEST PUSH0 DUP2 SWAP1 POP SWAP2 SWAP1 POP JUMP JUMPDEST PUSH2 0x1599 DUP2 PUSH2 0x1587 JUMP JUMPDEST DUP2 EQ PUSH2 0x15A3 JUMPI PUSH0 DUP1 REVERT JUMPDEST POP JUMP JUMPDEST PUSH0 DUP2 CALLDATALOAD SWAP1 POP PUSH2 0x15B4 DUP2 PUSH2 0x1590 JUMP JUMPDEST SWAP3 SWAP2 POP POP JUMP JUMPDEST PUSH0 DUP1 PUSH0 DUP1 PUSH1 0x80 DUP6 DUP8 SUB SLT ISZERO PUSH2 0x15D2 JUMPI PUSH2 0x15D1 PUSH2 0x14AE JUMP JUMPDEST JUMPDEST PUSH0 PUSH2 0x15DF DUP8 DUP3 DUP9 ADD PUSH2 0x1573 JUMP JUMPDEST SWAP5 POP POP PUSH1 0x20 PUSH2 0x15F0 DUP8 DUP3 DUP9 ADD PUSH2 0x14F8 JUMP JUMPDEST SWAP4 POP POP PUSH1 0x40 PUSH2 0x1601 DUP8 DUP3 DUP9 ADD PUSH2 0x14F8 JUMP JUMPDEST SWAP3 POP POP PUSH1 0x60 PUSH2 0x1612 DUP8 DUP3 DUP9 ADD PUSH2 0x15A6 JUMP JUMPDEST SWAP2 POP POP SWAP3 SWAP6 SWAP2 SWAP5 POP SWAP3 POP JUMP JUMPDEST PUSH0 DUP2 SWAP1 POP SWAP2 SWAP1 POP JUMP JUMPDEST PUSH2 0x1630 DUP2 PUSH2 0x161E JUMP JUMPDEST DUP3 MSTORE POP POP JUMP JUMPDEST PUSH0 PUSH1 0x20 DUP3 ADD SWAP1 POP PUSH2 0x1649 PUSH0 DUP4 ADD DUP5 PUSH2 0x1627 JUMP JUMPDEST SWAP3 SWAP2 POP POP JUMP JUMPDEST PUSH0 PUSH1 0x20 DUP3 DUP5 SUB SLT ISZERO PUSH2 0x1664 JUMPI PUSH2 0x1663 PUSH2 0x14AE JUMP JUMPDEST JUMPDEST PUSH0 PUSH2 0x1671 DUP5 DUP3 DUP6 ADD PUSH2 0x14F8 JUMP JUMPDEST SWAP2 POP POP SWAP3 SWAP2 POP POP JUMP JUMPDEST PUSH2 0x1683 DUP2 PUSH2 0x14D1 JUMP JUMPDEST DUP3 MSTORE POP POP JUMP JUMPDEST PUSH0 PUSH1 0x20 DUP3 ADD SWAP1 POP PUSH2 0x169C PUSH0 DUP4 ADD DUP5 PUSH2 0x167A JUMP JUMPDEST SWAP3 SWAP2 POP POP JUMP JUMPDEST PUSH0 DUP1 PUSH0 PUSH1 0x60 DUP5 DUP7 SUB SLT ISZERO PUSH2 0x16B9 JUMPI PUSH2 0x16B8 PUSH2 0x14AE JUMP JUMPDEST JUMPDEST PUSH0 PUSH2 0x16C6 DUP7 DUP3 DUP8 ADD PUSH2 0x14F8 JUMP JUMPDEST SWAP4 POP POP PUSH1 0x20 PUSH2 0x16D7 DUP7 DUP3 DUP8 ADD PUSH2 0x14F8 JUMP JUMPDEST SWAP3 POP POP PUSH1 0x40 PUSH2 0x16E8 DUP7 DUP3 DUP8 ADD PUSH2 0x15A6 JUMP JUMPDEST SWAP2 POP POP SWAP3 POP SWAP3 POP SWAP3 JUMP JUMPDEST PUSH0 DUP2 MLOAD SWAP1 POP PUSH2 0x1700 DUP2 PUSH2 0x1590 JUMP JUMPDEST SWAP3 SWAP2 POP POP JUMP JUMPDEST PUSH0 PUSH1 0x20 DUP3 DUP5 SUB SLT ISZERO PUSH2 0x171B JUMPI PUSH2 0x171A PUSH2 0x14AE JUMP JUMPDEST JUMPDEST PUSH0 PUSH2 0x1728 DUP5 DUP3 DUP6 ADD PUSH2 0x16F2 JUMP JUMPDEST SWAP2 POP POP SWAP3 SWAP2 POP POP JUMP JUMPDEST PUSH2 0x173A DUP2 PUSH2 0x154A JUMP JUMPDEST DUP3 MSTORE POP POP JUMP JUMPDEST PUSH0 DUP2 MLOAD SWAP1 POP SWAP2 SWAP1 POP JUMP JUMPDEST PUSH0 DUP3 DUP3 MSTORE PUSH1 0x20 DUP3 ADD SWAP1 POP SWAP3 SWAP2 POP POP JUMP JUMPDEST PUSH0 JUMPDEST DUP4 DUP2 LT ISZERO PUSH2 0x1777 JUMPI DUP1 DUP3 ADD MLOAD DUP2 DUP5 ADD MSTORE PUSH1 0x20 DUP2 ADD SWAP1 POP PUSH2 0x175C JUMP JUMPDEST PUSH0 DUP5 DUP5 ADD MSTORE POP POP POP POP JUMP JUMPDEST PUSH0 PUSH1 0x1F NOT PUSH1 0x1F DUP4 ADD AND SWAP1 POP SWAP2 SWAP1 POP JUMP JUMPDEST PUSH0 PUSH2 0x179C DUP3 PUSH2 0x1740 JUMP JUMPDEST PUSH2 0x17A6 DUP2 DUP6 PUSH2 0x174A JUMP JUMPDEST SWAP4 POP PUSH2 0x17B6 DUP2 DUP6 PUSH1 0x20 DUP7 ADD PUSH2 0x175A JUMP JUMPDEST PUSH2 0x17BF DUP2 PUSH2 0x1782 JUMP JUMPDEST DUP5 ADD SWAP2 POP POP SWAP3 SWAP2 POP POP JUMP JUMPDEST PUSH0 DUP2 MLOAD SWAP1 POP SWAP2 SWAP1 POP JUMP JUMPDEST PUSH0 DUP3 DUP3 MSTORE PUSH1 0x20 DUP3 ADD SWAP1 POP SWAP3 SWAP2 POP POP JUMP JUMPDEST PUSH0 DUP2 SWAP1 POP PUSH1 0x20 DUP3 ADD SWAP1 POP SWAP2 SWAP1 POP JUMP JUMPDEST PUSH2 0x17FC DUP2 PUSH2 0x14D1 JUMP JUMPDEST DUP3 MSTORE POP POP JUMP JUMPDEST PUSH2 0x180B DUP2 PUSH2 0x1587 JUMP JUMPDEST DUP3 MSTORE POP POP JUMP JUMPDEST PUSH1 0x40 DUP3 ADD PUSH0 DUP3 ADD MLOAD PUSH2 0x1825 PUSH0 DUP6 ADD DUP3 PUSH2 0x17F3 JUMP JUMPDEST POP PUSH1 0x20 DUP3 ADD MLOAD PUSH2 0x1838 PUSH1 0x20 DUP6 ADD DUP3 PUSH2 0x1802 JUMP JUMPDEST POP POP POP POP JUMP JUMPDEST PUSH0 PUSH2 0x1849 DUP4 DUP4 PUSH2 0x1811 JUMP JUMPDEST PUSH1 0x40 DUP4 ADD SWAP1 POP SWAP3 SWAP2 POP POP JUMP JUMPDEST PUSH0 PUSH1 0x20 DUP3 ADD SWAP1 POP SWAP2 SWAP1 POP JUMP JUMPDEST PUSH0 PUSH2 0x186B DUP3 PUSH2 0x17CA JUMP JUMPDEST PUSH2 0x1875 DUP2 DUP6 PUSH2 0x17D4 JUMP JUMPDEST SWAP4 POP PUSH2 0x1880 DUP4 PUSH2 0x17E4 JUMP JUMPDEST DUP1 PUSH0 JUMPDEST DUP4 DUP2 LT ISZERO PUSH2 0x18B0 JUMPI DUP2 MLOAD PUSH2 0x1897 DUP9 DUP3 PUSH2 0x183E JUMP JUMPDEST SWAP8 POP PUSH2 0x18A2 DUP4 PUSH2 0x1855 JUMP JUMPDEST SWAP3 POP POP PUSH1 0x1 DUP2 ADD SWAP1 POP PUSH2 0x1883 JUMP JUMPDEST POP DUP6 SWAP4 POP POP POP POP SWAP3 SWAP2 POP POP JUMP JUMPDEST PUSH0 PUSH1 0xA0 DUP4 ADD PUSH0 DUP4 ADD MLOAD DUP5 DUP3 SUB PUSH0 DUP7 ADD MSTORE PUSH2 0x18D7 DUP3 DUP3 PUSH2 0x1792 JUMP JUMPDEST SWAP2 POP POP PUSH1 0x20 DUP4 ADD MLOAD DUP5 DUP3 SUB PUSH1 0x20 DUP7 ADD MSTORE PUSH2 0x18F1 DUP3 DUP3 PUSH2 0x1792 JUMP JUMPDEST SWAP2 POP POP PUSH1 0x40 DUP4 ADD MLOAD DUP5 DUP3 SUB PUSH1 0x40 DUP7 ADD MSTORE PUSH2 0x190B DUP3 DUP3 PUSH2 0x1861 JUMP JUMPDEST SWAP2 POP POP PUSH1 0x60 DUP4 ADD MLOAD PUSH2 0x1920 PUSH1 0x60 DUP7 ADD DUP3 PUSH2 0x17F3 JUMP JUMPDEST POP PUSH1 0x80 DUP4 ADD MLOAD DUP5 DUP3 SUB PUSH1 0x80 DUP7 ADD MSTORE PUSH2 0x1938 DUP3 DUP3 PUSH2 0x1792 JUMP JUMPDEST SWAP2 POP POP DUP1 SWAP2 POP POP SWAP3 SWAP2 POP POP JUMP JUMPDEST PUSH0 PUSH1 0x40 DUP3 ADD SWAP1 POP PUSH2 0x1958 PUSH0 DUP4 ADD DUP6 PUSH2 0x1731 JUMP JUMPDEST DUP2 DUP2 SUB PUSH1 0x20 DUP4 ADD MSTORE PUSH2 0x196A DUP2 DUP5 PUSH2 0x18BD JUMP JUMPDEST SWAP1 POP SWAP4 SWAP3 POP POP POP JUMP JUMPDEST PUSH2 0x197C DUP2 PUSH2 0x1587 JUMP JUMPDEST DUP3 MSTORE POP POP JUMP JUMPDEST PUSH0 PUSH1 0x40 DUP3 ADD SWAP1 POP PUSH2 0x1995 PUSH0 DUP4 ADD DUP6 PUSH2 0x1973 JUMP JUMPDEST PUSH2 0x19A2 PUSH1 0x20 DUP4 ADD DUP5 PUSH2 0x1973 JUMP JUMPDEST SWAP4 SWAP3 POP POP POP JUMP JUMPDEST PUSH0 PUSH1 0x40 DUP3 ADD SWAP1 POP PUSH2 0x19BC PUSH0 DUP4 ADD DUP6 PUSH2 0x167A JUMP JUMPDEST PUSH2 0x19C9 PUSH1 0x20 DUP4 ADD DUP5 PUSH2 0x1973 JUMP JUMPDEST SWAP4 SWAP3 POP POP POP JUMP JUMPDEST PUSH0 DUP2 ISZERO ISZERO SWAP1 POP SWAP2 SWAP1 POP JUMP JUMPDEST PUSH2 0x19E4 DUP2 PUSH2 0x19D0 JUMP JUMPDEST DUP2 EQ PUSH2 0x19EE JUMPI PUSH0 DUP1 REVERT JUMPDEST POP JUMP JUMPDEST PUSH0 DUP2 MLOAD SWAP1 POP PUSH2 0x19FF DUP2 PUSH2 0x19DB JUMP JUMPDEST SWAP3 SWAP2 POP POP JUMP JUMPDEST PUSH0 PUSH1 0x20 DUP3 DUP5 SUB SLT ISZERO PUSH2 0x1A1A JUMPI PUSH2 0x1A19 PUSH2 0x14AE JUMP JUMPDEST JUMPDEST PUSH0 PUSH2 0x1A27 DUP5 DUP3 DUP6 ADD PUSH2 0x19F1 JUMP JUMPDEST SWAP2 POP POP SWAP3 SWAP2 POP POP JUMP JUMPDEST PUSH2 0x1A39 DUP2 PUSH2 0x161E JUMP JUMPDEST DUP2 EQ PUSH2 0x1A43 JUMPI PUSH0 DUP1 REVERT JUMPDEST POP JUMP JUMPDEST PUSH0 DUP2 MLOAD SWAP1 POP PUSH2 0x1A54 DUP2 PUSH2 0x1A30 JUMP JUMPDEST SWAP3 SWAP2 POP POP JUMP JUMPDEST PUSH0 PUSH1 0x20 DUP3 DUP5 SUB SLT ISZERO PUSH2 0x1A6F JUMPI PUSH2 0x1A6E PUSH2 0x14AE JUMP JUMPDEST JUMPDEST PUSH0 PUSH2 0x1A7C DUP5 DUP3 DUP6 ADD PUSH2 0x1A46 JUMP JUMPDEST SWAP2 POP POP SWAP3 SWAP2 POP POP JUMP JUMPDEST PUSH0 PUSH1 0xA0 DUP3 ADD SWAP1 POP PUSH2 0x1A98 PUSH0 DUP4 ADD DUP9 PUSH2 0x167A JUMP JUMPDEST PUSH2 0x1AA5 PUSH1 0x20 DUP4 ADD DUP8 PUSH2 0x167A JUMP JUMPDEST PUSH2 0x1AB2 PUSH1 0x40 DUP4 ADD DUP7 PUSH2 0x1973 JUMP JUMPDEST PUSH2 0x1ABF PUSH1 0x60 DUP4 ADD DUP6 PUSH2 0x167A JUMP JUMPDEST PUSH2 0x1ACC PUSH1 0x80 DUP4 ADD DUP5 PUSH2 0x1973 JUMP JUMPDEST SWAP7 SWAP6 POP POP POP POP POP POP JUMP JUMPDEST PUSH0 DUP2 SWAP1 POP SWAP3 SWAP2 POP POP JUMP JUMPDEST POP JUMP JUMPDEST PUSH0 PUSH2 0x1AEE PUSH0 DUP4 PUSH2 0x1AD6 JUMP JUMPDEST SWAP2 POP PUSH2 0x1AF9 DUP3 PUSH2 0x1AE0 JUMP JUMPDEST PUSH0 DUP3 ADD SWAP1 POP SWAP2 SWAP1 POP JUMP JUMPDEST PUSH0 PUSH2 0x1B0D DUP3 PUSH2 0x1AE3 JUMP JUMPDEST SWAP2 POP DUP2 SWAP1 POP SWAP2 SWAP1 POP JUMP JUMPDEST PUSH0 PUSH1 0x60 DUP3 ADD SWAP1 POP PUSH2 0x1B2A PUSH0 DUP4 ADD DUP7 PUSH2 0x167A JUMP JUMPDEST PUSH2 0x1B37 PUSH1 0x20 DUP4 ADD DUP6 PUSH2 0x167A JUMP JUMPDEST PUSH2 0x1B44 PUSH1 0x40 DUP4 ADD DUP5 PUSH2 0x1973 JUMP JUMPDEST SWAP5 SWAP4 POP POP POP POP JUMP JUMPDEST PUSH0 DUP3 DUP3 MSTORE PUSH1 0x20 DUP3 ADD SWAP1 POP SWAP3 SWAP2 POP POP JUMP JUMPDEST PUSH32 0x4D7573742062652070726F706F736564206F776E657200000000000000000000 PUSH0 DUP3 ADD MSTORE POP JUMP JUMPDEST PUSH0 PUSH2 0x1B90 PUSH1 0x16 DUP4 PUSH2 0x1B4C JUMP JUMPDEST SWAP2 POP PUSH2 0x1B9B DUP3 PUSH2 0x1B5C JUMP JUMPDEST PUSH1 0x20 DUP3 ADD SWAP1 POP SWAP2 SWAP1 POP JUMP JUMPDEST PUSH0 PUSH1 0x20 DUP3 ADD SWAP1 POP DUP2 DUP2 SUB PUSH0 DUP4 ADD MSTORE PUSH2 0x1BBD DUP2 PUSH2 0x1B84 JUMP JUMPDEST SWAP1 POP SWAP2 SWAP1 POP JUMP JUMPDEST PUSH32 0x4F6E6C792063616C6C61626C65206279206F776E657200000000000000000000 PUSH0 DUP3 ADD MSTORE POP JUMP JUMPDEST PUSH0 PUSH2 0x1BF8 PUSH1 0x16 DUP4 PUSH2 0x1B4C JUMP JUMPDEST SWAP2 POP PUSH2 0x1C03 DUP3 PUSH2 0x1BC4 JUMP JUMPDEST PUSH1 0x20 DUP3 ADD SWAP1 POP SWAP2 SWAP1 POP JUMP JUMPDEST PUSH0 PUSH1 0x20 DUP3 ADD SWAP1 POP DUP2 DUP2 SUB PUSH0 DUP4 ADD MSTORE PUSH2 0x1C25 DUP2 PUSH2 0x1BEC JUMP JUMPDEST SWAP1 POP SWAP2 SWAP1 POP JUMP JUMPDEST PUSH32 0x4E487B7100000000000000000000000000000000000000000000000000000000 PUSH0 MSTORE PUSH1 0x41 PUSH1 0x4 MSTORE PUSH1 0x24 PUSH0 REVERT JUMPDEST PUSH32 0x4E487B7100000000000000000000000000000000000000000000000000000000 PUSH0 MSTORE PUSH1 0x32 PUSH1 0x4 MSTORE PUSH1 0x24 PUSH0 REVERT JUMPDEST PUSH32 0x43616E6E6F74207472616E7366657220746F2073656C66000000000000000000 PUSH0 DUP3 ADD MSTORE POP JUMP JUMPDEST PUSH0 PUSH2 0x1CBA PUSH1 0x17 DUP4 PUSH2 0x1B4C JUMP JUMPDEST SWAP2 POP PUSH2 0x1CC5 DUP3 PUSH2 0x1C86 JUMP JUMPDEST PUSH1 0x20 DUP3 ADD SWAP1 POP SWAP2 SWAP1 POP JUMP JUMPDEST PUSH0 PUSH1 0x20 DUP3 ADD SWAP1 POP DUP2 DUP2 SUB PUSH0 DUP4 ADD MSTORE PUSH2 0x1CE7 DUP2 PUSH2 0x1CAE JUMP JUMPDEST SWAP1 POP SWAP2 SWAP1 POP JUMP JUMPDEST PUSH32 0x5361666545524332303A204552433230206F7065726174696F6E20646964206E PUSH0 DUP3 ADD MSTORE PUSH32 0x6F74207375636365656400000000000000000000000000000000000000000000 PUSH1 0x20 DUP3 ADD MSTORE POP JUMP JUMPDEST PUSH0 PUSH2 0x1D48 PUSH1 0x2A DUP4 PUSH2 0x1B4C JUMP JUMPDEST SWAP2 POP PUSH2 0x1D53 DUP3 PUSH2 0x1CEE JUMP JUMPDEST PUSH1 0x40 DUP3 ADD SWAP1 POP SWAP2 SWAP1 POP JUMP JUMPDEST PUSH0 PUSH1 0x20 DUP3 ADD SWAP1 POP DUP2 DUP2 SUB PUSH0 DUP4 ADD MSTORE PUSH2 0x1D75 DUP2 PUSH2 0x1D3C JUMP JUMPDEST SWAP1 POP SWAP2 SWAP1 POP JUMP JUMPDEST PUSH2 0x1D85 DUP2 PUSH2 0x19D0 JUMP JUMPDEST DUP3 MSTORE POP POP JUMP JUMPDEST PUSH1 0x40 DUP3 ADD PUSH0 DUP3 ADD MLOAD PUSH2 0x1D9F PUSH0 DUP6 ADD DUP3 PUSH2 0x1802 JUMP JUMPDEST POP PUSH1 0x20 DUP3 ADD MLOAD PUSH2 0x1DB2 PUSH1 0x20 DUP6 ADD DUP3 PUSH2 0x1D7C JUMP JUMPDEST POP POP POP POP JUMP JUMPDEST PUSH0 PUSH1 0x40 DUP3 ADD SWAP1 POP PUSH2 0x1DCB PUSH0 DUP4 ADD DUP5 PUSH2 0x1D8B JUMP JUMPDEST SWAP3 SWAP2 POP POP JUMP JUMPDEST PUSH32 0x416464726573733A20696E73756666696369656E742062616C616E636520666F PUSH0 DUP3 ADD MSTORE PUSH32 0x722063616C6C0000000000000000000000000000000000000000000000000000 PUSH1 0x20 DUP3 ADD MSTORE POP JUMP JUMPDEST PUSH0 PUSH2 0x1E2B PUSH1 0x26 DUP4 PUSH2 0x1B4C JUMP JUMPDEST SWAP2 POP PUSH2 0x1E36 DUP3 PUSH2 0x1DD1 JUMP JUMPDEST PUSH1 0x40 DUP3 ADD SWAP1 POP SWAP2 SWAP1 POP JUMP JUMPDEST PUSH0 PUSH1 0x20 DUP3 ADD SWAP1 POP DUP2 DUP2 SUB PUSH0 DUP4 ADD MSTORE PUSH2 0x1E58 DUP2 PUSH2 0x1E1F JUMP JUMPDEST SWAP1 POP SWAP2 SWAP1 POP JUMP JUMPDEST PUSH0 PUSH2 0x1E69 DUP3 PUSH2 0x1740 JUMP JUMPDEST PUSH2 0x1E73 DUP2 DUP6 PUSH2 0x1AD6 JUMP JUMPDEST SWAP4 POP PUSH2 0x1E83 DUP2 DUP6 PUSH1 0x20 DUP7 ADD PUSH2 0x175A JUMP JUMPDEST DUP1 DUP5 ADD SWAP2 POP POP SWAP3 SWAP2 POP POP JUMP JUMPDEST PUSH0 PUSH2 0x1E9A DUP3 DUP5 PUSH2 0x1E5F JUMP JUMPDEST SWAP2 POP DUP2 SWAP1 POP SWAP3 SWAP2 POP POP JUMP JUMPDEST PUSH32 0x416464726573733A2063616C6C20746F206E6F6E2D636F6E7472616374000000 PUSH0 DUP3 ADD MSTORE POP JUMP JUMPDEST PUSH0 PUSH2 0x1ED9 PUSH1 0x1D DUP4 PUSH2 0x1B4C JUMP JUMPDEST SWAP2 POP PUSH2 0x1EE4 DUP3 PUSH2 0x1EA5 JUMP JUMPDEST PUSH1 0x20 DUP3 ADD SWAP1 POP SWAP2 SWAP1 POP JUMP JUMPDEST PUSH0 PUSH1 0x20 DUP3 ADD SWAP1 POP DUP2 DUP2 SUB PUSH0 DUP4 ADD MSTORE PUSH2 0x1F06 DUP2 PUSH2 0x1ECD JUMP JUMPDEST SWAP1 POP SWAP2 SWAP1 POP JUMP JUMPDEST PUSH0 DUP2 MLOAD SWAP1 POP SWAP2 SWAP1 POP JUMP JUMPDEST PUSH0 PUSH2 0x1F21 DUP3 PUSH2 0x1F0D JUMP JUMPDEST PUSH2 0x1F2B DUP2 DUP6 PUSH2 0x1B4C JUMP JUMPDEST SWAP4 POP PUSH2 0x1F3B DUP2 DUP6 PUSH1 0x20 DUP7 ADD PUSH2 0x175A JUMP JUMPDEST PUSH2 0x1F44 DUP2 PUSH2 0x1782 JUMP JUMPDEST DUP5 ADD SWAP2 POP POP SWAP3 SWAP2 POP POP JUMP JUMPDEST PUSH0 PUSH1 0x20 DUP3 ADD SWAP1 POP DUP2 DUP2 SUB PUSH0 DUP4 ADD MSTORE PUSH2 0x1F67 DUP2 DUP5 PUSH2 0x1F17 JUMP JUMPDEST SWAP1 POP SWAP3 SWAP2 POP POP JUMP INVALID LOG2 PUSH5 0x6970667358 0x22 SLT KECCAK256 0xB7 BASEFEE NUMBER SWAP16 0xAA 0xDF 0xCF TIMESTAMP SAR 0xC 0xC PUSH5 0x3256B8D0BF RETURN OR REVERT LOG0 0xB8 0xC9 CALLER 0xC0 0xDA PUSH7 0xC44CD07AB96473 PUSH16 0x6C634300081800330000000000000000 "
				},
				"gasEstimates": {
					"creation": {
						"codeDepositCost": "1620200",
						"executionCost": "151710",
						"totalCost": "1771910"
					},
					"external": {
						"acceptOwnership()": "54533",
						"owner()": "2537",
						"transferOwnership(address)": "30711",
						"transferTokensPayLINK(address,address,uint256)": "infinite",
						"transferTokensPayNative(uint64,address,address,uint256)": "infinite",
						"withdraw(address)": "infinite",
						"withdrawToken(address,address)": "infinite"
					},
					"internal": {
						"_buildCCIPMessage(address,address,uint256,address)": "infinite"
					}
				},
				"methodIdentifiers": {
					"acceptOwnership()": "79ba5097",
					"owner()": "8da5cb5b",
					"transferOwnership(address)": "f2fde38b",
					"transferTokensPayLINK(address,address,uint256)": "bbb6eae5",
					"transferTokensPayNative(uint64,address,address,uint256)": "51419b4b",
					"withdraw(address)": "51cff8d9",
					"withdrawToken(address,address)": "3aeac4e1"
				}
			},
			"storageLayout": {
				"storage": [
					{
						"astId": 221,
						"contract": "TreasuryManagerAVA.sol:TreasuryManagerAVACCIPsender",
						"label": "s_owner",
						"offset": 0,
						"slot": "0",
						"type": "t_address"
					},
					{
						"astId": 223,
						"contract": "TreasuryManagerAVA.sol:TreasuryManagerAVACCIPsender",
						"label": "s_pendingOwner",
						"offset": 0,
						"slot": "1",
						"type": "t_address"
					},
					{
						"astId": 1154,
						"contract": "TreasuryManagerAVA.sol:TreasuryManagerAVACCIPsender",
						"label": "ccipRouterAddress",
						"offset": 0,
						"slot": "2",
						"type": "t_address"
					},
					{
						"astId": 1157,
						"contract": "TreasuryManagerAVA.sol:TreasuryManagerAVACCIPsender",
						"label": "linkAddress",
						"offset": 0,
						"slot": "3",
						"type": "t_address"
					},
					{
						"astId": 1160,
						"contract": "TreasuryManagerAVA.sol:TreasuryManagerAVACCIPsender",
						"label": "_destinationChainSelector",
						"offset": 20,
						"slot": "3",
						"type": "t_uint64"
					},
					{
						"astId": 1201,
						"contract": "TreasuryManagerAVA.sol:TreasuryManagerAVACCIPsender",
						"label": "s_router",
						"offset": 0,
						"slot": "4",
						"type": "t_contract(IRouterClient)42"
					},
					{
						"astId": 1204,
						"contract": "TreasuryManagerAVA.sol:TreasuryManagerAVACCIPsender",
						"label": "s_linkToken",
						"offset": 0,
						"slot": "5",
						"type": "t_contract(IERC20)485"
					}
				],
				"types": {
					"t_address": {
						"encoding": "inplace",
						"label": "address",
						"numberOfBytes": "20"
					},
					"t_contract(IERC20)485": {
						"encoding": "inplace",
						"label": "contract IERC20",
						"numberOfBytes": "20"
					},
					"t_contract(IRouterClient)42": {
						"encoding": "inplace",
						"label": "contract IRouterClient",
						"numberOfBytes": "20"
					},
					"t_uint64": {
						"encoding": "inplace",
						"label": "uint64",
						"numberOfBytes": "8"
					}
				}
			},
			"userdoc": {
				"kind": "user",
				"methods": {
					"acceptOwnership()": {
						"notice": "Allows an ownership transfer to be completed by the recipient."
					},
					"owner()": {
						"notice": "Get the current owner"
					},
					"transferOwnership(address)": {
						"notice": "Allows an owner to begin transferring ownership to a new address."
					},
					"transferTokensPayLINK(address,address,uint256)": {
						"notice": "Transfer tokens to receiver on the destination chain.pay in LINK.the token must be in the list of supported tokens.This function can only be called by the owner."
					},
					"transferTokensPayNative(uint64,address,address,uint256)": {
						"notice": "Transfer tokens to receiver on the destination chain.Pay in native gas such as ETH on Ethereum or POL on Polygon.the token must be in the list of supported tokens.This function can only be called by the owner."
					},
					"withdraw(address)": {
						"notice": "Allows the contract owner to withdraw the entire balance of Ether from the contract."
					},
					"withdrawToken(address,address)": {
						"notice": "Allows the owner of the contract to withdraw all tokens of a specific ERC20 token."
					}
				},
				"version": 1
			}
		}
	}
}