{
	"v2/Sender.sol": {
		"Sender": {
			"abi": [
				{
					"inputs": [
						{
							"internalType": "address",
							"name": "_router",
							"type": "address"
						},
						{
							"internalType": "address",
							"name": "_link",
							"type": "address"
						},
						{
							"internalType": "address",
							"name": "_usdcToken",
							"type": "address"
						}
					],
					"stateMutability": "nonpayable",
					"type": "constructor"
				},
				{
					"inputs": [],
					"name": "AmountIsZero",
					"type": "error"
				},
				{
					"inputs": [],
					"name": "InvalidDestinationChain",
					"type": "error"
				},
				{
					"inputs": [],
					"name": "InvalidGasLimit",
					"type": "error"
				},
				{
					"inputs": [],
					"name": "InvalidLinkToken",
					"type": "error"
				},
				{
					"inputs": [],
					"name": "InvalidReceiverAddress",
					"type": "error"
				},
				{
					"inputs": [],
					"name": "InvalidRouter",
					"type": "error"
				},
				{
					"inputs": [],
					"name": "InvalidUsdcToken",
					"type": "error"
				},
				{
					"inputs": [
						{
							"internalType": "uint64",
							"name": "destinationChainSelector",
							"type": "uint64"
						}
					],
					"name": "NoGasLimitOnDestinationChain",
					"type": "error"
				},
				{
					"inputs": [
						{
							"internalType": "uint64",
							"name": "destinationChainSelector",
							"type": "uint64"
						}
					],
					"name": "NoReceiverOnDestinationChain",
					"type": "error"
				},
				{
					"inputs": [
						{
							"internalType": "uint256",
							"name": "currentBalance",
							"type": "uint256"
						},
						{
							"internalType": "uint256",
							"name": "calculatedFees",
							"type": "uint256"
						}
					],
					"name": "NotEnoughBalance",
					"type": "error"
				},
				{
					"inputs": [],
					"name": "NothingToWithdraw",
					"type": "error"
				},
				{
					"anonymous": false,
					"inputs": [
						{
							"indexed": true,
							"internalType": "bytes32",
							"name": "messageId",
							"type": "bytes32"
						},
						{
							"indexed": true,
							"internalType": "uint64",
							"name": "destinationChainSelector",
							"type": "uint64"
						},
						{
							"indexed": true,
							"internalType": "address",
							"name": "receiver",
							"type": "address"
						},
						{
							"indexed": false,
							"internalType": "address",
							"name": "beneficiary",
							"type": "address"
						},
						{
							"indexed": false,
							"internalType": "address",
							"name": "token",
							"type": "address"
						},
						{
							"indexed": false,
							"internalType": "uint256",
							"name": "tokenAmount",
							"type": "uint256"
						},
						{
							"indexed": false,
							"internalType": "address",
							"name": "feeToken",
							"type": "address"
						},
						{
							"indexed": false,
							"internalType": "uint256",
							"name": "fees",
							"type": "uint256"
						}
					],
					"name": "MessageSent",
					"type": "event"
				},
				{
					"anonymous": false,
					"inputs": [
						{
							"indexed": true,
							"internalType": "address",
							"name": "from",
							"type": "address"
						},
						{
							"indexed": true,
							"internalType": "address",
							"name": "to",
							"type": "address"
						}
					],
					"name": "OwnershipTransferRequested",
					"type": "event"
				},
				{
					"anonymous": false,
					"inputs": [
						{
							"indexed": true,
							"internalType": "address",
							"name": "from",
							"type": "address"
						},
						{
							"indexed": true,
							"internalType": "address",
							"name": "to",
							"type": "address"
						}
					],
					"name": "OwnershipTransferred",
					"type": "event"
				},
				{
					"inputs": [],
					"name": "acceptOwnership",
					"outputs": [],
					"stateMutability": "nonpayable",
					"type": "function"
				},
				{
					"inputs": [
						{
							"internalType": "uint64",
							"name": "_destinationChainSelector",
							"type": "uint64"
						}
					],
					"name": "deleteReceiverForDestinationChain",
					"outputs": [],
					"stateMutability": "nonpayable",
					"type": "function"
				},
				{
					"inputs": [],
					"name": "owner",
					"outputs": [
						{
							"internalType": "address",
							"name": "",
							"type": "address"
						}
					],
					"stateMutability": "view",
					"type": "function"
				},
				{
					"inputs": [
						{
							"internalType": "uint64",
							"name": "",
							"type": "uint64"
						}
					],
					"name": "s_gasLimits",
					"outputs": [
						{
							"internalType": "uint256",
							"name": "",
							"type": "uint256"
						}
					],
					"stateMutability": "view",
					"type": "function"
				},
				{
					"inputs": [
						{
							"internalType": "uint64",
							"name": "",
							"type": "uint64"
						}
					],
					"name": "s_receivers",
					"outputs": [
						{
							"internalType": "address",
							"name": "",
							"type": "address"
						}
					],
					"stateMutability": "view",
					"type": "function"
				},
				{
					"inputs": [
						{
							"internalType": "uint64",
							"name": "_destinationChainSelector",
							"type": "uint64"
						},
						{
							"internalType": "address",
							"name": "_beneficiary",
							"type": "address"
						},
						{
							"internalType": "uint256",
							"name": "_amount",
							"type": "uint256"
						}
					],
					"name": "sendMessagePayLINK",
					"outputs": [
						{
							"internalType": "bytes32",
							"name": "messageId",
							"type": "bytes32"
						}
					],
					"stateMutability": "nonpayable",
					"type": "function"
				},
				{
					"inputs": [
						{
							"internalType": "uint64",
							"name": "_destinationChainSelector",
							"type": "uint64"
						},
						{
							"internalType": "uint256",
							"name": "_gasLimit",
							"type": "uint256"
						}
					],
					"name": "setGasLimitForDestinationChain",
					"outputs": [],
					"stateMutability": "nonpayable",
					"type": "function"
				},
				{
					"inputs": [
						{
							"internalType": "uint64",
							"name": "_destinationChainSelector",
							"type": "uint64"
						},
						{
							"internalType": "address",
							"name": "_receiver",
							"type": "address"
						}
					],
					"name": "setReceiverForDestinationChain",
					"outputs": [],
					"stateMutability": "nonpayable",
					"type": "function"
				},
				{
					"inputs": [
						{
							"internalType": "address",
							"name": "to",
							"type": "address"
						}
					],
					"name": "transferOwnership",
					"outputs": [],
					"stateMutability": "nonpayable",
					"type": "function"
				},
				{
					"inputs": [
						{
							"internalType": "address",
							"name": "_beneficiary",
							"type": "address"
						}
					],
					"name": "withdrawLinkToken",
					"outputs": [],
					"stateMutability": "nonpayable",
					"type": "function"
				},
				{
					"inputs": [
						{
							"internalType": "address",
							"name": "_beneficiary",
							"type": "address"
						}
					],
					"name": "withdrawUsdcToken",
					"outputs": [],
					"stateMutability": "nonpayable",
					"type": "function"
				}
			],
			"devdoc": {
				"kind": "dev",
				"methods": {
					"constructor": {
						"params": {
							"_link": "The address of the link contract.",
							"_router": "The address of the router contract.",
							"_usdcToken": "The address of the usdc contract."
						}
					},
					"deleteReceiverForDestinationChain(uint64)": {
						"details": "Delete the receiver contract for a given destination chain.",
						"params": {
							"_destinationChainSelector": "The selector of the destination chain."
						}
					},
					"sendMessagePayLINK(uint64,address,uint256)": {
						"details": "Assumes your contract has sufficient LINK to pay for CCIP fees.",
						"params": {
							"_amount": "token amount.",
							"_beneficiary": "The address of the beneficiary of the staked tokens on the destination blockchain.",
							"_destinationChainSelector": "The identifier (aka selector) for the destination blockchain."
						},
						"returns": {
							"messageId": "The ID of the CCIP message that was sent."
						}
					},
					"setGasLimitForDestinationChain(uint64,uint256)": {
						"details": "Set the gas limit for a given destination chain.",
						"params": {
							"_destinationChainSelector": "The selector of the destination chain.",
							"_gasLimit": "The gas limit on the destination chain ."
						}
					},
					"setReceiverForDestinationChain(uint64,address)": {
						"details": "Set the receiver contract for a given destination chain.",
						"params": {
							"_destinationChainSelector": "The selector of the destination chain.",
							"_receiver": "The receiver contract on the destination chain ."
						}
					},
					"withdrawLinkToken(address)": {
						"details": "This function reverts with a 'NothingToWithdraw' error if there are no tokens to withdraw.",
						"params": {
							"_beneficiary": "The address to which the tokens will be sent."
						}
					},
					"withdrawUsdcToken(address)": {
						"details": "This function reverts with a 'NothingToWithdraw' error if there are no tokens to withdraw.",
						"params": {
							"_beneficiary": "The address to which the tokens will be sent."
						}
					}
				},
				"title": "- A simple messenger contract for transferring tokens to a receiver  that calls a staker contract.",
				"version": 1
			},
			"evm": {
				"assembly": "    /* \"v2/Sender.sol\":1049:11813  contract Sender is OwnerIsCreator {... */\n  mstore(0x40, 0xe0)\n    /* \"v2/Sender.sol\":3747:4131  constructor(address _router, address _link, address _usdcToken) {... */\n  callvalue\n  dup1\n  iszero\n  tag_1\n  jumpi\n  0x00\n  dup1\n  revert\ntag_1:\n  pop\n  mload(0x40)\n  sub(codesize, bytecodeSize)\n  dup1\n  bytecodeSize\n  dup4\n  codecopy\n  dup2\n  dup2\n  add\n  0x40\n  mstore\n  dup2\n  add\n  swap1\n  tag_2\n  swap2\n  swap1\n  tag_3\n  jump\t// in\ntag_2:\n    /* \"@chainlink/contracts@1.4.0/src/v0.8/shared/access/OwnerIsCreator.sol\":291:301  msg.sender */\n  caller\n    /* \"@chainlink/contracts@1.4.0/src/v0.8/shared/access/ConfirmedOwner.sol\":355:363  newOwner */\n  dup1\n    /* \"@chainlink/contracts@1.4.0/src/v0.8/shared/access/ConfirmedOwner.sol\":373:374  0 */\n  0x00\n    /* \"@chainlink/contracts@1.4.0/src/v0.8/shared/access/ConfirmedOwnerWithProposal.sol\":618:619  0 */\n  dup1\n    /* \"@chainlink/contracts@1.4.0/src/v0.8/shared/access/ConfirmedOwnerWithProposal.sol\":598:620  newOwner != address(0) */\n  0xffffffffffffffffffffffffffffffffffffffff\n  and\n    /* \"@chainlink/contracts@1.4.0/src/v0.8/shared/access/ConfirmedOwnerWithProposal.sol\":598:606  newOwner */\n  dup3\n    /* \"@chainlink/contracts@1.4.0/src/v0.8/shared/access/ConfirmedOwnerWithProposal.sol\":598:620  newOwner != address(0) */\n  0xffffffffffffffffffffffffffffffffffffffff\n  and\n  sub\n    /* \"@chainlink/contracts@1.4.0/src/v0.8/shared/access/ConfirmedOwnerWithProposal.sol\":590:649  require(newOwner != address(0), \"Cannot set owner to zero\") */\n  tag_9\n  jumpi\n  mload(0x40)\n  0x08c379a000000000000000000000000000000000000000000000000000000000\n  dup2\n  mstore\n  0x04\n  add\n  tag_10\n  swap1\n  tag_11\n  jump\t// in\ntag_10:\n  mload(0x40)\n  dup1\n  swap2\n  sub\n  swap1\n  revert\ntag_9:\n    /* \"@chainlink/contracts@1.4.0/src/v0.8/shared/access/ConfirmedOwnerWithProposal.sol\":666:674  newOwner */\n  dup2\n    /* \"@chainlink/contracts@1.4.0/src/v0.8/shared/access/ConfirmedOwnerWithProposal.sol\":656:663  s_owner */\n  0x00\n  dup1\n    /* \"@chainlink/contracts@1.4.0/src/v0.8/shared/access/ConfirmedOwnerWithProposal.sol\":656:674  s_owner = newOwner */\n  0x0100\n  exp\n  dup2\n  sload\n  dup2\n  0xffffffffffffffffffffffffffffffffffffffff\n  mul\n  not\n  and\n  swap1\n  dup4\n  0xffffffffffffffffffffffffffffffffffffffff\n  and\n  mul\n  or\n  swap1\n  sstore\n  pop\n    /* \"@chainlink/contracts@1.4.0/src/v0.8/shared/access/ConfirmedOwnerWithProposal.sol\":708:709  0 */\n  0x00\n    /* \"@chainlink/contracts@1.4.0/src/v0.8/shared/access/ConfirmedOwnerWithProposal.sol\":684:710  pendingOwner != address(0) */\n  0xffffffffffffffffffffffffffffffffffffffff\n  and\n    /* \"@chainlink/contracts@1.4.0/src/v0.8/shared/access/ConfirmedOwnerWithProposal.sol\":684:696  pendingOwner */\n  dup2\n    /* \"@chainlink/contracts@1.4.0/src/v0.8/shared/access/ConfirmedOwnerWithProposal.sol\":684:710  pendingOwner != address(0) */\n  0xffffffffffffffffffffffffffffffffffffffff\n  and\n  eq\n    /* \"@chainlink/contracts@1.4.0/src/v0.8/shared/access/ConfirmedOwnerWithProposal.sol\":680:759  if (pendingOwner != address(0)) {... */\n  tag_12\n  jumpi\n    /* \"@chainlink/contracts@1.4.0/src/v0.8/shared/access/ConfirmedOwnerWithProposal.sol\":720:752  _transferOwnership(pendingOwner) */\n  tag_13\n    /* \"@chainlink/contracts@1.4.0/src/v0.8/shared/access/ConfirmedOwnerWithProposal.sol\":739:751  pendingOwner */\n  dup2\n    /* \"@chainlink/contracts@1.4.0/src/v0.8/shared/access/ConfirmedOwnerWithProposal.sol\":720:738  _transferOwnership */\n  shl(0x20, tag_14)\n    /* \"@chainlink/contracts@1.4.0/src/v0.8/shared/access/ConfirmedOwnerWithProposal.sol\":720:752  _transferOwnership(pendingOwner) */\n  0x20\n  shr\n  jump\t// in\ntag_13:\n    /* \"@chainlink/contracts@1.4.0/src/v0.8/shared/access/ConfirmedOwnerWithProposal.sol\":680:759  if (pendingOwner != address(0)) {... */\ntag_12:\n    /* \"@chainlink/contracts@1.4.0/src/v0.8/shared/access/ConfirmedOwnerWithProposal.sol\":481:763  constructor(address newOwner, address pendingOwner) {... */\n  pop\n  pop\n    /* \"@chainlink/contracts@1.4.0/src/v0.8/shared/access/ConfirmedOwner.sol\":298:379  constructor(address newOwner) ConfirmedOwnerWithProposal(newOwner, address(0)) {} */\n  pop\n    /* \"v2/Sender.sol\":3845:3846  0 */\n  0x00\n    /* \"v2/Sender.sol\":3826:3847  _router == address(0) */\n  0xffffffffffffffffffffffffffffffffffffffff\n  and\n    /* \"v2/Sender.sol\":3826:3833  _router */\n  dup4\n    /* \"v2/Sender.sol\":3826:3847  _router == address(0) */\n  0xffffffffffffffffffffffffffffffffffffffff\n  and\n  sub\n    /* \"v2/Sender.sol\":3822:3871  if (_router == address(0)) revert InvalidRouter() */\n  tag_18\n  jumpi\n    /* \"v2/Sender.sol\":3856:3871  InvalidRouter() */\n  mload(0x40)\n  0x466d7fef00000000000000000000000000000000000000000000000000000000\n  dup2\n  mstore\n  0x04\n  add\n  mload(0x40)\n  dup1\n  swap2\n  sub\n  swap1\n  revert\n    /* \"v2/Sender.sol\":3822:3871  if (_router == address(0)) revert InvalidRouter() */\ntag_18:\n    /* \"v2/Sender.sol\":3903:3904  0 */\n  0x00\n    /* \"v2/Sender.sol\":3886:3905  _link == address(0) */\n  0xffffffffffffffffffffffffffffffffffffffff\n  and\n    /* \"v2/Sender.sol\":3886:3891  _link */\n  dup3\n    /* \"v2/Sender.sol\":3886:3905  _link == address(0) */\n  0xffffffffffffffffffffffffffffffffffffffff\n  and\n  sub\n    /* \"v2/Sender.sol\":3882:3932  if (_link == address(0)) revert InvalidLinkToken() */\n  tag_19\n  jumpi\n    /* \"v2/Sender.sol\":3914:3932  InvalidLinkToken() */\n  mload(0x40)\n  0x899a9e3000000000000000000000000000000000000000000000000000000000\n  dup2\n  mstore\n  0x04\n  add\n  mload(0x40)\n  dup1\n  swap2\n  sub\n  swap1\n  revert\n    /* \"v2/Sender.sol\":3882:3932  if (_link == address(0)) revert InvalidLinkToken() */\ntag_19:\n    /* \"v2/Sender.sol\":3969:3970  0 */\n  0x00\n    /* \"v2/Sender.sol\":3947:3971  _usdcToken == address(0) */\n  0xffffffffffffffffffffffffffffffffffffffff\n  and\n    /* \"v2/Sender.sol\":3947:3957  _usdcToken */\n  dup2\n    /* \"v2/Sender.sol\":3947:3971  _usdcToken == address(0) */\n  0xffffffffffffffffffffffffffffffffffffffff\n  and\n  sub\n    /* \"v2/Sender.sol\":3943:3998  if (_usdcToken == address(0)) revert InvalidUsdcToken() */\n  tag_20\n  jumpi\n    /* \"v2/Sender.sol\":3980:3998  InvalidUsdcToken() */\n  mload(0x40)\n  0xb83a5cf700000000000000000000000000000000000000000000000000000000\n  dup2\n  mstore\n  0x04\n  add\n  mload(0x40)\n  dup1\n  swap2\n  sub\n  swap1\n  revert\n    /* \"v2/Sender.sol\":3943:3998  if (_usdcToken == address(0)) revert InvalidUsdcToken() */\ntag_20:\n    /* \"v2/Sender.sol\":4034:4041  _router */\n  dup3\n    /* \"v2/Sender.sol\":4009:4042  i_router = IRouterClient(_router) */\n  0xffffffffffffffffffffffffffffffffffffffff\n  and\n  0x80\n  dup2\n  0xffffffffffffffffffffffffffffffffffffffff\n  and\n  dup2\n  mstore\n  pop\n  pop\n    /* \"v2/Sender.sol\":4074:4079  _link */\n  dup2\n    /* \"v2/Sender.sol\":4053:4080  i_linkToken = IERC20(_link) */\n  0xffffffffffffffffffffffffffffffffffffffff\n  and\n  0xa0\n  dup2\n  0xffffffffffffffffffffffffffffffffffffffff\n  and\n  dup2\n  mstore\n  pop\n  pop\n    /* \"v2/Sender.sol\":4112:4122  _usdcToken */\n  dup1\n    /* \"v2/Sender.sol\":4091:4123  i_usdcToken = IERC20(_usdcToken) */\n  0xffffffffffffffffffffffffffffffffffffffff\n  and\n  0xc0\n  dup2\n  0xffffffffffffffffffffffffffffffffffffffff\n  and\n  dup2\n  mstore\n  pop\n  pop\n    /* \"v2/Sender.sol\":3747:4131  constructor(address _router, address _link, address _usdcToken) {... */\n  pop\n  pop\n  pop\n    /* \"v2/Sender.sol\":1049:11813  contract Sender is OwnerIsCreator {... */\n  jump(tag_21)\n    /* \"@chainlink/contracts@1.4.0/src/v0.8/shared/access/ConfirmedOwnerWithProposal.sol\":1536:1775  function _transferOwnership(address to) private {... */\ntag_14:\n    /* \"@chainlink/contracts@1.4.0/src/v0.8/shared/access/ConfirmedOwnerWithProposal.sol\":1655:1665  msg.sender */\n  caller\n    /* \"@chainlink/contracts@1.4.0/src/v0.8/shared/access/ConfirmedOwnerWithProposal.sol\":1649:1665  to != msg.sender */\n  0xffffffffffffffffffffffffffffffffffffffff\n  and\n    /* \"@chainlink/contracts@1.4.0/src/v0.8/shared/access/ConfirmedOwnerWithProposal.sol\":1649:1651  to */\n  dup2\n    /* \"@chainlink/contracts@1.4.0/src/v0.8/shared/access/ConfirmedOwnerWithProposal.sol\":1649:1665  to != msg.sender */\n  0xffffffffffffffffffffffffffffffffffffffff\n  and\n  sub\n    /* \"@chainlink/contracts@1.4.0/src/v0.8/shared/access/ConfirmedOwnerWithProposal.sol\":1641:1693  require(to != msg.sender, \"Cannot transfer to self\") */\n  tag_23\n  jumpi\n  mload(0x40)\n  0x08c379a000000000000000000000000000000000000000000000000000000000\n  dup2\n  mstore\n  0x04\n  add\n  tag_24\n  swap1\n  tag_25\n  jump\t// in\ntag_24:\n  mload(0x40)\n  dup1\n  swap2\n  sub\n  swap1\n  revert\ntag_23:\n    /* \"@chainlink/contracts@1.4.0/src/v0.8/shared/access/ConfirmedOwnerWithProposal.sol\":1717:1719  to */\n  dup1\n    /* \"@chainlink/contracts@1.4.0/src/v0.8/shared/access/ConfirmedOwnerWithProposal.sol\":1700:1714  s_pendingOwner */\n  0x01\n  0x00\n    /* \"@chainlink/contracts@1.4.0/src/v0.8/shared/access/ConfirmedOwnerWithProposal.sol\":1700:1719  s_pendingOwner = to */\n  0x0100\n  exp\n  dup2\n  sload\n  dup2\n  0xffffffffffffffffffffffffffffffffffffffff\n  mul\n  not\n  and\n  swap1\n  dup4\n  0xffffffffffffffffffffffffffffffffffffffff\n  and\n  mul\n  or\n  swap1\n  sstore\n  pop\n    /* \"@chainlink/contracts@1.4.0/src/v0.8/shared/access/ConfirmedOwnerWithProposal.sol\":1767:1769  to */\n  dup1\n    /* \"@chainlink/contracts@1.4.0/src/v0.8/shared/access/ConfirmedOwnerWithProposal.sol\":1731:1770  OwnershipTransferRequested(s_owner, to) */\n  0xffffffffffffffffffffffffffffffffffffffff\n  and\n    /* \"@chainlink/contracts@1.4.0/src/v0.8/shared/access/ConfirmedOwnerWithProposal.sol\":1758:1765  s_owner */\n  0x00\n  dup1\n  sload\n  swap1\n  0x0100\n  exp\n  swap1\n  div\n  0xffffffffffffffffffffffffffffffffffffffff\n  and\n    /* \"@chainlink/contracts@1.4.0/src/v0.8/shared/access/ConfirmedOwnerWithProposal.sol\":1731:1770  OwnershipTransferRequested(s_owner, to) */\n  0xffffffffffffffffffffffffffffffffffffffff\n  and\n  0xed8889f560326eb138920d842192f0eb3dd22b4f139c87a2c57538e05bae1278\n  mload(0x40)\n  mload(0x40)\n  dup1\n  swap2\n  sub\n  swap1\n  log3\n    /* \"@chainlink/contracts@1.4.0/src/v0.8/shared/access/ConfirmedOwnerWithProposal.sol\":1536:1775  function _transferOwnership(address to) private {... */\n  pop\n  jump\t// out\n    /* \"#utility.yul\":88:205   */\ntag_27:\n    /* \"#utility.yul\":197:198   */\n  0x00\n    /* \"#utility.yul\":194:195   */\n  dup1\n    /* \"#utility.yul\":187:199   */\n  revert\n    /* \"#utility.yul\":334:460   */\ntag_29:\n    /* \"#utility.yul\":371:378   */\n  0x00\n    /* \"#utility.yul\":411:453   */\n  0xffffffffffffffffffffffffffffffffffffffff\n    /* \"#utility.yul\":404:409   */\n  dup3\n    /* \"#utility.yul\":400:454   */\n  and\n    /* \"#utility.yul\":389:454   */\n  swap1\n  pop\n    /* \"#utility.yul\":334:460   */\n  swap2\n  swap1\n  pop\n  jump\t// out\n    /* \"#utility.yul\":466:562   */\ntag_30:\n    /* \"#utility.yul\":503:510   */\n  0x00\n    /* \"#utility.yul\":532:556   */\n  tag_44\n    /* \"#utility.yul\":550:555   */\n  dup3\n    /* \"#utility.yul\":532:556   */\n  tag_29\n  jump\t// in\ntag_44:\n    /* \"#utility.yul\":521:556   */\n  swap1\n  pop\n    /* \"#utility.yul\":466:562   */\n  swap2\n  swap1\n  pop\n  jump\t// out\n    /* \"#utility.yul\":568:690   */\ntag_31:\n    /* \"#utility.yul\":641:665   */\n  tag_46\n    /* \"#utility.yul\":659:664   */\n  dup2\n    /* \"#utility.yul\":641:665   */\n  tag_30\n  jump\t// in\ntag_46:\n    /* \"#utility.yul\":634:639   */\n  dup2\n    /* \"#utility.yul\":631:666   */\n  eq\n    /* \"#utility.yul\":621:684   */\n  tag_47\n  jumpi\n    /* \"#utility.yul\":680:681   */\n  0x00\n    /* \"#utility.yul\":677:678   */\n  dup1\n    /* \"#utility.yul\":670:682   */\n  revert\n    /* \"#utility.yul\":621:684   */\ntag_47:\n    /* \"#utility.yul\":568:690   */\n  pop\n  jump\t// out\n    /* \"#utility.yul\":696:839   */\ntag_32:\n    /* \"#utility.yul\":753:758   */\n  0x00\n    /* \"#utility.yul\":784:790   */\n  dup2\n    /* \"#utility.yul\":778:791   */\n  mload\n    /* \"#utility.yul\":769:791   */\n  swap1\n  pop\n    /* \"#utility.yul\":800:833   */\n  tag_49\n    /* \"#utility.yul\":827:832   */\n  dup2\n    /* \"#utility.yul\":800:833   */\n  tag_31\n  jump\t// in\ntag_49:\n    /* \"#utility.yul\":696:839   */\n  swap3\n  swap2\n  pop\n  pop\n  jump\t// out\n    /* \"#utility.yul\":845:1508   */\ntag_3:\n    /* \"#utility.yul\":933:939   */\n  0x00\n    /* \"#utility.yul\":941:947   */\n  dup1\n    /* \"#utility.yul\":949:955   */\n  0x00\n    /* \"#utility.yul\":998:1000   */\n  0x60\n    /* \"#utility.yul\":986:995   */\n  dup5\n    /* \"#utility.yul\":977:984   */\n  dup7\n    /* \"#utility.yul\":973:996   */\n  sub\n    /* \"#utility.yul\":969:1001   */\n  slt\n    /* \"#utility.yul\":966:1085   */\n  iszero\n  tag_51\n  jumpi\n    /* \"#utility.yul\":1004:1083   */\n  tag_52\n  tag_27\n  jump\t// in\ntag_52:\n    /* \"#utility.yul\":966:1085   */\ntag_51:\n    /* \"#utility.yul\":1124:1125   */\n  0x00\n    /* \"#utility.yul\":1149:1213   */\n  tag_53\n    /* \"#utility.yul\":1205:1212   */\n  dup7\n    /* \"#utility.yul\":1196:1202   */\n  dup3\n    /* \"#utility.yul\":1185:1194   */\n  dup8\n    /* \"#utility.yul\":1181:1203   */\n  add\n    /* \"#utility.yul\":1149:1213   */\n  tag_32\n  jump\t// in\ntag_53:\n    /* \"#utility.yul\":1139:1213   */\n  swap4\n  pop\n    /* \"#utility.yul\":1095:1223   */\n  pop\n    /* \"#utility.yul\":1262:1264   */\n  0x20\n    /* \"#utility.yul\":1288:1352   */\n  tag_54\n    /* \"#utility.yul\":1344:1351   */\n  dup7\n    /* \"#utility.yul\":1335:1341   */\n  dup3\n    /* \"#utility.yul\":1324:1333   */\n  dup8\n    /* \"#utility.yul\":1320:1342   */\n  add\n    /* \"#utility.yul\":1288:1352   */\n  tag_32\n  jump\t// in\ntag_54:\n    /* \"#utility.yul\":1278:1352   */\n  swap3\n  pop\n    /* \"#utility.yul\":1233:1362   */\n  pop\n    /* \"#utility.yul\":1401:1403   */\n  0x40\n    /* \"#utility.yul\":1427:1491   */\n  tag_55\n    /* \"#utility.yul\":1483:1490   */\n  dup7\n    /* \"#utility.yul\":1474:1480   */\n  dup3\n    /* \"#utility.yul\":1463:1472   */\n  dup8\n    /* \"#utility.yul\":1459:1481   */\n  add\n    /* \"#utility.yul\":1427:1491   */\n  tag_32\n  jump\t// in\ntag_55:\n    /* \"#utility.yul\":1417:1491   */\n  swap2\n  pop\n    /* \"#utility.yul\":1372:1501   */\n  pop\n    /* \"#utility.yul\":845:1508   */\n  swap3\n  pop\n  swap3\n  pop\n  swap3\n  jump\t// out\n    /* \"#utility.yul\":1514:1683   */\ntag_33:\n    /* \"#utility.yul\":1598:1609   */\n  0x00\n    /* \"#utility.yul\":1632:1638   */\n  dup3\n    /* \"#utility.yul\":1627:1630   */\n  dup3\n    /* \"#utility.yul\":1620:1639   */\n  mstore\n    /* \"#utility.yul\":1672:1676   */\n  0x20\n    /* \"#utility.yul\":1667:1670   */\n  dup3\n    /* \"#utility.yul\":1663:1677   */\n  add\n    /* \"#utility.yul\":1648:1677   */\n  swap1\n  pop\n    /* \"#utility.yul\":1514:1683   */\n  swap3\n  swap2\n  pop\n  pop\n  jump\t// out\n    /* \"#utility.yul\":1689:1863   */\ntag_34:\n    /* \"#utility.yul\":1829:1855   */\n  0x43616e6e6f7420736574206f776e657220746f207a65726f0000000000000000\n    /* \"#utility.yul\":1825:1826   */\n  0x00\n    /* \"#utility.yul\":1817:1823   */\n  dup3\n    /* \"#utility.yul\":1813:1827   */\n  add\n    /* \"#utility.yul\":1806:1856   */\n  mstore\n    /* \"#utility.yul\":1689:1863   */\n  pop\n  jump\t// out\n    /* \"#utility.yul\":1869:2235   */\ntag_35:\n    /* \"#utility.yul\":2011:2014   */\n  0x00\n    /* \"#utility.yul\":2032:2099   */\n  tag_59\n    /* \"#utility.yul\":2096:2098   */\n  0x18\n    /* \"#utility.yul\":2091:2094   */\n  dup4\n    /* \"#utility.yul\":2032:2099   */\n  tag_33\n  jump\t// in\ntag_59:\n    /* \"#utility.yul\":2025:2099   */\n  swap2\n  pop\n    /* \"#utility.yul\":2108:2201   */\n  tag_60\n    /* \"#utility.yul\":2197:2200   */\n  dup3\n    /* \"#utility.yul\":2108:2201   */\n  tag_34\n  jump\t// in\ntag_60:\n    /* \"#utility.yul\":2226:2228   */\n  0x20\n    /* \"#utility.yul\":2221:2224   */\n  dup3\n    /* \"#utility.yul\":2217:2229   */\n  add\n    /* \"#utility.yul\":2210:2229   */\n  swap1\n  pop\n    /* \"#utility.yul\":1869:2235   */\n  swap2\n  swap1\n  pop\n  jump\t// out\n    /* \"#utility.yul\":2241:2660   */\ntag_11:\n    /* \"#utility.yul\":2407:2411   */\n  0x00\n    /* \"#utility.yul\":2445:2447   */\n  0x20\n    /* \"#utility.yul\":2434:2443   */\n  dup3\n    /* \"#utility.yul\":2430:2448   */\n  add\n    /* \"#utility.yul\":2422:2448   */\n  swap1\n  pop\n    /* \"#utility.yul\":2494:2503   */\n  dup2\n    /* \"#utility.yul\":2488:2492   */\n  dup2\n    /* \"#utility.yul\":2484:2504   */\n  sub\n    /* \"#utility.yul\":2480:2481   */\n  0x00\n    /* \"#utility.yul\":2469:2478   */\n  dup4\n    /* \"#utility.yul\":2465:2482   */\n  add\n    /* \"#utility.yul\":2458:2505   */\n  mstore\n    /* \"#utility.yul\":2522:2653   */\n  tag_62\n    /* \"#utility.yul\":2648:2652   */\n  dup2\n    /* \"#utility.yul\":2522:2653   */\n  tag_35\n  jump\t// in\ntag_62:\n    /* \"#utility.yul\":2514:2653   */\n  swap1\n  pop\n    /* \"#utility.yul\":2241:2660   */\n  swap2\n  swap1\n  pop\n  jump\t// out\n    /* \"#utility.yul\":2666:2839   */\ntag_36:\n    /* \"#utility.yul\":2806:2831   */\n  0x43616e6e6f74207472616e7366657220746f2073656c66000000000000000000\n    /* \"#utility.yul\":2802:2803   */\n  0x00\n    /* \"#utility.yul\":2794:2800   */\n  dup3\n    /* \"#utility.yul\":2790:2804   */\n  add\n    /* \"#utility.yul\":2783:2832   */\n  mstore\n    /* \"#utility.yul\":2666:2839   */\n  pop\n  jump\t// out\n    /* \"#utility.yul\":2845:3211   */\ntag_37:\n    /* \"#utility.yul\":2987:2990   */\n  0x00\n    /* \"#utility.yul\":3008:3075   */\n  tag_65\n    /* \"#utility.yul\":3072:3074   */\n  0x17\n    /* \"#utility.yul\":3067:3070   */\n  dup4\n    /* \"#utility.yul\":3008:3075   */\n  tag_33\n  jump\t// in\ntag_65:\n    /* \"#utility.yul\":3001:3075   */\n  swap2\n  pop\n    /* \"#utility.yul\":3084:3177   */\n  tag_66\n    /* \"#utility.yul\":3173:3176   */\n  dup3\n    /* \"#utility.yul\":3084:3177   */\n  tag_36\n  jump\t// in\ntag_66:\n    /* \"#utility.yul\":3202:3204   */\n  0x20\n    /* \"#utility.yul\":3197:3200   */\n  dup3\n    /* \"#utility.yul\":3193:3205   */\n  add\n    /* \"#utility.yul\":3186:3205   */\n  swap1\n  pop\n    /* \"#utility.yul\":2845:3211   */\n  swap2\n  swap1\n  pop\n  jump\t// out\n    /* \"#utility.yul\":3217:3636   */\ntag_25:\n    /* \"#utility.yul\":3383:3387   */\n  0x00\n    /* \"#utility.yul\":3421:3423   */\n  0x20\n    /* \"#utility.yul\":3410:3419   */\n  dup3\n    /* \"#utility.yul\":3406:3424   */\n  add\n    /* \"#utility.yul\":3398:3424   */\n  swap1\n  pop\n    /* \"#utility.yul\":3470:3479   */\n  dup2\n    /* \"#utility.yul\":3464:3468   */\n  dup2\n    /* \"#utility.yul\":3460:3480   */\n  sub\n    /* \"#utility.yul\":3456:3457   */\n  0x00\n    /* \"#utility.yul\":3445:3454   */\n  dup4\n    /* \"#utility.yul\":3441:3458   */\n  add\n    /* \"#utility.yul\":3434:3481   */\n  mstore\n    /* \"#utility.yul\":3498:3629   */\n  tag_68\n    /* \"#utility.yul\":3624:3628   */\n  dup2\n    /* \"#utility.yul\":3498:3629   */\n  tag_37\n  jump\t// in\ntag_68:\n    /* \"#utility.yul\":3490:3629   */\n  swap1\n  pop\n    /* \"#utility.yul\":3217:3636   */\n  swap2\n  swap1\n  pop\n  jump\t// out\n    /* \"v2/Sender.sol\":1049:11813  contract Sender is OwnerIsCreator {... */\ntag_21:\n  mload(0x80)\n  mload(0xa0)\n  mload(0xc0)\n  codecopy(0x00, dataOffset(sub_0), dataSize(sub_0))\n  0x00\n  assignImmutable(\"0x02bae336e50212bfd1a46e10edb1ad3bb1adf37dc92cada2f5610efec853b879\")\n  0x00\n  assignImmutable(\"0xd8dd77ef205b843eebffa51565657f8add679a25fbf239f803ae74f42ece1b28\")\n  0x00\n  assignImmutable(\"0x33cc19d79febe2413fb9e204aeb684d47982ef5754538b90a83e403603eda384\")\n  return(0x00, dataSize(sub_0))\nstop\n\nsub_0: assembly {\n        /* \"v2/Sender.sol\":1049:11813  contract Sender is OwnerIsCreator {... */\n      mstore(0x40, 0x80)\n      callvalue\n      dup1\n      iszero\n      tag_1\n      jumpi\n      0x00\n      dup1\n      revert\n    tag_1:\n      pop\n      jumpi(tag_2, lt(calldatasize, 0x04))\n      shr(0xe0, calldataload(0x00))\n      dup1\n      0x79ba5097\n      gt\n      tag_14\n      jumpi\n      dup1\n      0x79ba5097\n      eq\n      tag_8\n      jumpi\n      dup1\n      0x8da5cb5b\n      eq\n      tag_9\n      jumpi\n      dup1\n      0x9c18c570\n      eq\n      tag_10\n      jumpi\n      dup1\n      0xc2d0c769\n      eq\n      tag_11\n      jumpi\n      dup1\n      0xf2fde38b\n      eq\n      tag_12\n      jumpi\n      dup1\n      0xf3651fe6\n      eq\n      tag_13\n      jumpi\n      jump(tag_2)\n    tag_14:\n      dup1\n      0x3141d65c\n      eq\n      tag_3\n      jumpi\n      dup1\n      0x3f3b7a6f\n      eq\n      tag_4\n      jumpi\n      dup1\n      0x5dc2594e\n      eq\n      tag_5\n      jumpi\n      dup1\n      0x65b4b203\n      eq\n      tag_6\n      jumpi\n      dup1\n      0x6e5d76a2\n      eq\n      tag_7\n      jumpi\n    tag_2:\n      0x00\n      dup1\n      revert\n        /* \"v2/Sender.sol\":10784:11138  function withdrawLinkToken(address _beneficiary) public onlyOwner {... */\n    tag_3:\n      tag_15\n      0x04\n      dup1\n      calldatasize\n      sub\n      dup2\n      add\n      swap1\n      tag_16\n      swap2\n      swap1\n      tag_17\n      jump\t// in\n    tag_16:\n      tag_18\n      jump\t// in\n    tag_15:\n      stop\n        /* \"v2/Sender.sol\":4430:4759  function setReceiverForDestinationChain(... */\n    tag_4:\n      tag_19\n      0x04\n      dup1\n      calldatasize\n      sub\n      dup2\n      add\n      swap1\n      tag_20\n      swap2\n      swap1\n      tag_21\n      jump\t// in\n    tag_20:\n      tag_22\n      jump\t// in\n    tag_19:\n      stop\n        /* \"v2/Sender.sol\":5042:5355  function setGasLimitForDestinationChain(... */\n    tag_5:\n      tag_23\n      0x04\n      dup1\n      calldatasize\n      sub\n      dup2\n      add\n      swap1\n      tag_24\n      swap2\n      swap1\n      tag_25\n      jump\t// in\n    tag_24:\n      tag_26\n      jump\t// in\n    tag_23:\n      stop\n        /* \"v2/Sender.sol\":3148:3193  mapping(uint64 => address) public s_receivers */\n    tag_6:\n      tag_27\n      0x04\n      dup1\n      calldatasize\n      sub\n      dup2\n      add\n      swap1\n      tag_28\n      swap2\n      swap1\n      tag_29\n      jump\t// in\n    tag_28:\n      tag_30\n      jump\t// in\n    tag_27:\n      mload(0x40)\n      tag_31\n      swap2\n      swap1\n      tag_32\n      jump\t// in\n    tag_31:\n      mload(0x40)\n      dup1\n      swap2\n      sub\n      swap1\n      return\n        /* \"v2/Sender.sol\":6488:10466  function sendMessagePayLINK(... */\n    tag_7:\n      tag_33\n      0x04\n      dup1\n      calldatasize\n      sub\n      dup2\n      add\n      swap1\n      tag_34\n      swap2\n      swap1\n      tag_35\n      jump\t// in\n    tag_34:\n      tag_36\n      jump\t// in\n    tag_33:\n      mload(0x40)\n      tag_37\n      swap2\n      swap1\n      tag_38\n      jump\t// in\n    tag_37:\n      mload(0x40)\n      dup1\n      swap2\n      sub\n      swap1\n      return\n        /* \"@chainlink/contracts@1.4.0/src/v0.8/shared/access/ConfirmedOwnerWithProposal.sol\":1026:1342  function acceptOwnership() external override {... */\n    tag_8:\n      tag_39\n      tag_40\n      jump\t// in\n    tag_39:\n      stop\n        /* \"@chainlink/contracts@1.4.0/src/v0.8/shared/access/ConfirmedOwnerWithProposal.sol\":1382:1463  function owner() public view override returns (address) {... */\n    tag_9:\n      tag_41\n      tag_42\n      jump\t// in\n    tag_41:\n      mload(0x40)\n      tag_43\n      swap2\n      swap1\n      tag_32\n      jump\t// in\n    tag_43:\n      mload(0x40)\n      dup1\n      swap2\n      sub\n      swap1\n      return\n        /* \"v2/Sender.sol\":5582:5954  function deleteReceiverForDestinationChain(... */\n    tag_10:\n      tag_44\n      0x04\n      dup1\n      calldatasize\n      sub\n      dup2\n      add\n      swap1\n      tag_45\n      swap2\n      swap1\n      tag_29\n      jump\t// in\n    tag_45:\n      tag_46\n      jump\t// in\n    tag_44:\n      stop\n        /* \"v2/Sender.sol\":11456:11810  function withdrawUsdcToken(address _beneficiary) public onlyOwner {... */\n    tag_11:\n      tag_47\n      0x04\n      dup1\n      calldatasize\n      sub\n      dup2\n      add\n      swap1\n      tag_48\n      swap2\n      swap1\n      tag_17\n      jump\t// in\n    tag_48:\n      tag_49\n      jump\t// in\n    tag_47:\n      stop\n        /* \"@chainlink/contracts@1.4.0/src/v0.8/shared/access/ConfirmedOwnerWithProposal.sol\":847:945  function transferOwnership(address to) public override onlyOwner {... */\n    tag_12:\n      tag_50\n      0x04\n      dup1\n      calldatasize\n      sub\n      dup2\n      add\n      swap1\n      tag_51\n      swap2\n      swap1\n      tag_17\n      jump\t// in\n    tag_51:\n      tag_52\n      jump\t// in\n    tag_50:\n      stop\n        /* \"v2/Sender.sol\":3262:3307  mapping(uint64 => uint256) public s_gasLimits */\n    tag_13:\n      tag_53\n      0x04\n      dup1\n      calldatasize\n      sub\n      dup2\n      add\n      swap1\n      tag_54\n      swap2\n      swap1\n      tag_29\n      jump\t// in\n    tag_54:\n      tag_55\n      jump\t// in\n    tag_53:\n      mload(0x40)\n      tag_56\n      swap2\n      swap1\n      tag_57\n      jump\t// in\n    tag_56:\n      mload(0x40)\n      dup1\n      swap2\n      sub\n      swap1\n      return\n        /* \"v2/Sender.sol\":10784:11138  function withdrawLinkToken(address _beneficiary) public onlyOwner {... */\n    tag_18:\n        /* \"@chainlink/contracts@1.4.0/src/v0.8/shared/access/ConfirmedOwnerWithProposal.sol\":2075:2095  _validateOwnership() */\n      tag_59\n        /* \"@chainlink/contracts@1.4.0/src/v0.8/shared/access/ConfirmedOwnerWithProposal.sol\":2075:2093  _validateOwnership */\n      tag_60\n        /* \"@chainlink/contracts@1.4.0/src/v0.8/shared/access/ConfirmedOwnerWithProposal.sol\":2075:2095  _validateOwnership() */\n      jump\t// in\n    tag_59:\n        /* \"v2/Sender.sol\":10911:10925  uint256 amount */\n      0x00\n        /* \"v2/Sender.sol\":10928:10939  i_linkToken */\n      immutable(\"0xd8dd77ef205b843eebffa51565657f8add679a25fbf239f803ae74f42ece1b28\")\n        /* \"v2/Sender.sol\":10928:10949  i_linkToken.balanceOf */\n      0xffffffffffffffffffffffffffffffffffffffff\n      and\n      0x70a08231\n        /* \"v2/Sender.sol\":10958:10962  this */\n      address\n        /* \"v2/Sender.sol\":10928:10964  i_linkToken.balanceOf(address(this)) */\n      mload(0x40)\n      dup3\n      0xffffffff\n      and\n      0xe0\n      shl\n      dup2\n      mstore\n      0x04\n      add\n      tag_62\n      swap2\n      swap1\n      tag_32\n      jump\t// in\n    tag_62:\n      0x20\n      mload(0x40)\n      dup1\n      dup4\n      sub\n      dup2\n      dup7\n      gas\n      staticcall\n      iszero\n      dup1\n      iszero\n      tag_64\n      jumpi\n      returndatasize\n      0x00\n      dup1\n      returndatacopy\n      revert(0x00, returndatasize)\n    tag_64:\n      pop\n      pop\n      pop\n      pop\n      mload(0x40)\n      returndatasize\n      not(0x1f)\n      0x1f\n      dup3\n      add\n      and\n      dup3\n      add\n      dup1\n      0x40\n      mstore\n      pop\n      dup2\n      add\n      swap1\n      tag_65\n      swap2\n      swap1\n      tag_66\n      jump\t// in\n    tag_65:\n        /* \"v2/Sender.sol\":10911:10964  uint256 amount = i_linkToken.balanceOf(address(this)) */\n      swap1\n      pop\n        /* \"v2/Sender.sol\":11042:11043  0 */\n      0x00\n        /* \"v2/Sender.sol\":11032:11038  amount */\n      dup2\n        /* \"v2/Sender.sol\":11032:11043  amount == 0 */\n      sub\n        /* \"v2/Sender.sol\":11028:11071  if (amount == 0) revert NothingToWithdraw() */\n      tag_67\n      jumpi\n        /* \"v2/Sender.sol\":11052:11071  NothingToWithdraw() */\n      mload(0x40)\n      0xd0d04f6000000000000000000000000000000000000000000000000000000000\n      dup2\n      mstore\n      0x04\n      add\n      mload(0x40)\n      dup1\n      swap2\n      sub\n      swap1\n      revert\n        /* \"v2/Sender.sol\":11028:11071  if (amount == 0) revert NothingToWithdraw() */\n    tag_67:\n        /* \"v2/Sender.sol\":11084:11130  i_linkToken.safeTransfer(_beneficiary, amount) */\n      tag_68\n        /* \"v2/Sender.sol\":11109:11121  _beneficiary */\n      dup3\n        /* \"v2/Sender.sol\":11123:11129  amount */\n      dup3\n        /* \"v2/Sender.sol\":11084:11095  i_linkToken */\n      immutable(\"0xd8dd77ef205b843eebffa51565657f8add679a25fbf239f803ae74f42ece1b28\")\n        /* \"v2/Sender.sol\":11084:11108  i_linkToken.safeTransfer */\n      0xffffffffffffffffffffffffffffffffffffffff\n      and\n      tag_69\n      swap1\n        /* \"v2/Sender.sol\":11084:11130  i_linkToken.safeTransfer(_beneficiary, amount) */\n      swap3\n      swap2\n      swap1\n      0xffffffff\n      and\n      jump\t// in\n    tag_68:\n        /* \"v2/Sender.sol\":10850:11138  {... */\n      pop\n        /* \"v2/Sender.sol\":10784:11138  function withdrawLinkToken(address _beneficiary) public onlyOwner {... */\n      pop\n      jump\t// out\n        /* \"v2/Sender.sol\":4430:4759  function setReceiverForDestinationChain(... */\n    tag_22:\n        /* \"@chainlink/contracts@1.4.0/src/v0.8/shared/access/ConfirmedOwnerWithProposal.sol\":2075:2095  _validateOwnership() */\n      tag_71\n        /* \"@chainlink/contracts@1.4.0/src/v0.8/shared/access/ConfirmedOwnerWithProposal.sol\":2075:2093  _validateOwnership */\n      tag_60\n        /* \"@chainlink/contracts@1.4.0/src/v0.8/shared/access/ConfirmedOwnerWithProposal.sol\":2075:2095  _validateOwnership() */\n      jump\t// in\n    tag_71:\n        /* \"v2/Sender.sol\":4592:4617  _destinationChainSelector */\n      dup2\n        /* \"v2/Sender.sol\":3428:3429  0 */\n      0x00\n        /* \"v2/Sender.sol\":3399:3424  _destinationChainSelector */\n      dup2\n        /* \"v2/Sender.sol\":3399:3429  _destinationChainSelector == 0 */\n      0xffffffffffffffff\n      and\n      sub\n        /* \"v2/Sender.sol\":3395:3463  if (_destinationChainSelector == 0) revert InvalidDestinationChain() */\n      tag_73\n      jumpi\n        /* \"v2/Sender.sol\":3438:3463  InvalidDestinationChain() */\n      mload(0x40)\n      0xb86ac1ef00000000000000000000000000000000000000000000000000000000\n      dup2\n      mstore\n      0x04\n      add\n      mload(0x40)\n      dup1\n      swap2\n      sub\n      swap1\n      revert\n        /* \"v2/Sender.sol\":3395:3463  if (_destinationChainSelector == 0) revert InvalidDestinationChain() */\n    tag_73:\n        /* \"v2/Sender.sol\":4655:4656  0 */\n      0x00\n        /* \"v2/Sender.sol\":4634:4657  _receiver == address(0) */\n      0xffffffffffffffffffffffffffffffffffffffff\n      and\n        /* \"v2/Sender.sol\":4634:4643  _receiver */\n      dup3\n        /* \"v2/Sender.sol\":4634:4657  _receiver == address(0) */\n      0xffffffffffffffffffffffffffffffffffffffff\n      and\n      sub\n        /* \"v2/Sender.sol\":4630:4690  if (_receiver == address(0)) revert InvalidReceiverAddress() */\n      tag_75\n      jumpi\n        /* \"v2/Sender.sol\":4666:4690  InvalidReceiverAddress() */\n      mload(0x40)\n      0xa05ff47e00000000000000000000000000000000000000000000000000000000\n      dup2\n      mstore\n      0x04\n      add\n      mload(0x40)\n      dup1\n      swap2\n      sub\n      swap1\n      revert\n        /* \"v2/Sender.sol\":4630:4690  if (_receiver == address(0)) revert InvalidReceiverAddress() */\n    tag_75:\n        /* \"v2/Sender.sol\":4742:4751  _receiver */\n      dup2\n        /* \"v2/Sender.sol\":4701:4712  s_receivers */\n      0x02\n        /* \"v2/Sender.sol\":4701:4739  s_receivers[_destinationChainSelector] */\n      0x00\n        /* \"v2/Sender.sol\":4713:4738  _destinationChainSelector */\n      dup6\n        /* \"v2/Sender.sol\":4701:4739  s_receivers[_destinationChainSelector] */\n      0xffffffffffffffff\n      and\n      0xffffffffffffffff\n      and\n      dup2\n      mstore\n      0x20\n      add\n      swap1\n      dup2\n      mstore\n      0x20\n      add\n      0x00\n      keccak256\n      0x00\n        /* \"v2/Sender.sol\":4701:4751  s_receivers[_destinationChainSelector] = _receiver */\n      0x0100\n      exp\n      dup2\n      sload\n      dup2\n      0xffffffffffffffffffffffffffffffffffffffff\n      mul\n      not\n      and\n      swap1\n      dup4\n      0xffffffffffffffffffffffffffffffffffffffff\n      and\n      mul\n      or\n      swap1\n      sstore\n      pop\n        /* \"@chainlink/contracts@1.4.0/src/v0.8/shared/access/ConfirmedOwnerWithProposal.sol\":2101:2102  _ */\n      pop\n        /* \"v2/Sender.sol\":4430:4759  function setReceiverForDestinationChain(... */\n      pop\n      pop\n      jump\t// out\n        /* \"v2/Sender.sol\":5042:5355  function setGasLimitForDestinationChain(... */\n    tag_26:\n        /* \"@chainlink/contracts@1.4.0/src/v0.8/shared/access/ConfirmedOwnerWithProposal.sol\":2075:2095  _validateOwnership() */\n      tag_77\n        /* \"@chainlink/contracts@1.4.0/src/v0.8/shared/access/ConfirmedOwnerWithProposal.sol\":2075:2093  _validateOwnership */\n      tag_60\n        /* \"@chainlink/contracts@1.4.0/src/v0.8/shared/access/ConfirmedOwnerWithProposal.sol\":2075:2095  _validateOwnership() */\n      jump\t// in\n    tag_77:\n        /* \"v2/Sender.sol\":5204:5229  _destinationChainSelector */\n      dup2\n        /* \"v2/Sender.sol\":3428:3429  0 */\n      0x00\n        /* \"v2/Sender.sol\":3399:3424  _destinationChainSelector */\n      dup2\n        /* \"v2/Sender.sol\":3399:3429  _destinationChainSelector == 0 */\n      0xffffffffffffffff\n      and\n      sub\n        /* \"v2/Sender.sol\":3395:3463  if (_destinationChainSelector == 0) revert InvalidDestinationChain() */\n      tag_79\n      jumpi\n        /* \"v2/Sender.sol\":3438:3463  InvalidDestinationChain() */\n      mload(0x40)\n      0xb86ac1ef00000000000000000000000000000000000000000000000000000000\n      dup2\n      mstore\n      0x04\n      add\n      mload(0x40)\n      dup1\n      swap2\n      sub\n      swap1\n      revert\n        /* \"v2/Sender.sol\":3395:3463  if (_destinationChainSelector == 0) revert InvalidDestinationChain() */\n    tag_79:\n        /* \"v2/Sender.sol\":5259:5260  0 */\n      0x00\n        /* \"v2/Sender.sol\":5246:5255  _gasLimit */\n      dup3\n        /* \"v2/Sender.sol\":5246:5260  _gasLimit == 0 */\n      sub\n        /* \"v2/Sender.sol\":5242:5286  if (_gasLimit == 0) revert InvalidGasLimit() */\n      tag_81\n      jumpi\n        /* \"v2/Sender.sol\":5269:5286  InvalidGasLimit() */\n      mload(0x40)\n      0x98bdb2e000000000000000000000000000000000000000000000000000000000\n      dup2\n      mstore\n      0x04\n      add\n      mload(0x40)\n      dup1\n      swap2\n      sub\n      swap1\n      revert\n        /* \"v2/Sender.sol\":5242:5286  if (_gasLimit == 0) revert InvalidGasLimit() */\n    tag_81:\n        /* \"v2/Sender.sol\":5338:5347  _gasLimit */\n      dup2\n        /* \"v2/Sender.sol\":5297:5308  s_gasLimits */\n      0x03\n        /* \"v2/Sender.sol\":5297:5335  s_gasLimits[_destinationChainSelector] */\n      0x00\n        /* \"v2/Sender.sol\":5309:5334  _destinationChainSelector */\n      dup6\n        /* \"v2/Sender.sol\":5297:5335  s_gasLimits[_destinationChainSelector] */\n      0xffffffffffffffff\n      and\n      0xffffffffffffffff\n      and\n      dup2\n      mstore\n      0x20\n      add\n      swap1\n      dup2\n      mstore\n      0x20\n      add\n      0x00\n      keccak256\n        /* \"v2/Sender.sol\":5297:5347  s_gasLimits[_destinationChainSelector] = _gasLimit */\n      dup2\n      swap1\n      sstore\n      pop\n        /* \"@chainlink/contracts@1.4.0/src/v0.8/shared/access/ConfirmedOwnerWithProposal.sol\":2101:2102  _ */\n      pop\n        /* \"v2/Sender.sol\":5042:5355  function setGasLimitForDestinationChain(... */\n      pop\n      pop\n      jump\t// out\n        /* \"v2/Sender.sol\":3148:3193  mapping(uint64 => address) public s_receivers */\n    tag_30:\n      mstore(0x20, 0x02)\n      dup1\n      0x00\n      mstore\n      keccak256(0x00, 0x40)\n      0x00\n      swap2\n      pop\n      sload\n      swap1\n      0x0100\n      exp\n      swap1\n      div\n      0xffffffffffffffffffffffffffffffffffffffff\n      and\n      dup2\n      jump\t// out\n        /* \"v2/Sender.sol\":6488:10466  function sendMessagePayLINK(... */\n    tag_36:\n        /* \"v2/Sender.sol\":6739:6756  bytes32 messageId */\n      0x00\n        /* \"@chainlink/contracts@1.4.0/src/v0.8/shared/access/ConfirmedOwnerWithProposal.sol\":2075:2095  _validateOwnership() */\n      tag_83\n        /* \"@chainlink/contracts@1.4.0/src/v0.8/shared/access/ConfirmedOwnerWithProposal.sol\":2075:2093  _validateOwnership */\n      tag_60\n        /* \"@chainlink/contracts@1.4.0/src/v0.8/shared/access/ConfirmedOwnerWithProposal.sol\":2075:2095  _validateOwnership() */\n      jump\t// in\n    tag_83:\n        /* \"v2/Sender.sol\":6694:6719  _destinationChainSelector */\n      dup4\n        /* \"v2/Sender.sol\":3428:3429  0 */\n      0x00\n        /* \"v2/Sender.sol\":3399:3424  _destinationChainSelector */\n      dup2\n        /* \"v2/Sender.sol\":3399:3429  _destinationChainSelector == 0 */\n      0xffffffffffffffff\n      and\n      sub\n        /* \"v2/Sender.sol\":3395:3463  if (_destinationChainSelector == 0) revert InvalidDestinationChain() */\n      tag_85\n      jumpi\n        /* \"v2/Sender.sol\":3438:3463  InvalidDestinationChain() */\n      mload(0x40)\n      0xb86ac1ef00000000000000000000000000000000000000000000000000000000\n      dup2\n      mstore\n      0x04\n      add\n      mload(0x40)\n      dup1\n      swap2\n      sub\n      swap1\n      revert\n        /* \"v2/Sender.sol\":3395:3463  if (_destinationChainSelector == 0) revert InvalidDestinationChain() */\n    tag_85:\n        /* \"v2/Sender.sol\":6774:6790  address receiver */\n      0x00\n        /* \"v2/Sender.sol\":6793:6804  s_receivers */\n      0x02\n        /* \"v2/Sender.sol\":6793:6831  s_receivers[_destinationChainSelector] */\n      0x00\n        /* \"v2/Sender.sol\":6805:6830  _destinationChainSelector */\n      dup8\n        /* \"v2/Sender.sol\":6793:6831  s_receivers[_destinationChainSelector] */\n      0xffffffffffffffff\n      and\n      0xffffffffffffffff\n      and\n      dup2\n      mstore\n      0x20\n      add\n      swap1\n      dup2\n      mstore\n      0x20\n      add\n      0x00\n      keccak256\n      0x00\n      swap1\n      sload\n      swap1\n      0x0100\n      exp\n      swap1\n      div\n      0xffffffffffffffffffffffffffffffffffffffff\n      and\n        /* \"v2/Sender.sol\":6774:6831  address receiver = s_receivers[_destinationChainSelector] */\n      swap1\n      pop\n        /* \"v2/Sender.sol\":6866:6867  0 */\n      0x00\n        /* \"v2/Sender.sol\":6846:6868  receiver == address(0) */\n      0xffffffffffffffffffffffffffffffffffffffff\n      and\n        /* \"v2/Sender.sol\":6846:6854  receiver */\n      dup2\n        /* \"v2/Sender.sol\":6846:6868  receiver == address(0) */\n      0xffffffffffffffffffffffffffffffffffffffff\n      and\n      sub\n        /* \"v2/Sender.sol\":6842:6945  if (receiver == address(0))... */\n      tag_87\n      jumpi\n        /* \"v2/Sender.sol\":6919:6944  _destinationChainSelector */\n      dup6\n        /* \"v2/Sender.sol\":6890:6945  NoReceiverOnDestinationChain(_destinationChainSelector) */\n      mload(0x40)\n      0x67a1bf1d00000000000000000000000000000000000000000000000000000000\n      dup2\n      mstore\n      0x04\n      add\n      tag_88\n      swap2\n      swap1\n      tag_89\n      jump\t// in\n    tag_88:\n      mload(0x40)\n      dup1\n      swap2\n      sub\n      swap1\n      revert\n        /* \"v2/Sender.sol\":6842:6945  if (receiver == address(0))... */\n    tag_87:\n        /* \"v2/Sender.sol\":6971:6972  0 */\n      0x00\n        /* \"v2/Sender.sol\":6960:6967  _amount */\n      dup5\n        /* \"v2/Sender.sol\":6960:6972  _amount == 0 */\n      sub\n        /* \"v2/Sender.sol\":6956:6995  if (_amount == 0) revert AmountIsZero() */\n      tag_90\n      jumpi\n        /* \"v2/Sender.sol\":6981:6995  AmountIsZero() */\n      mload(0x40)\n      0x43ad20fc00000000000000000000000000000000000000000000000000000000\n      dup2\n      mstore\n      0x04\n      add\n      mload(0x40)\n      dup1\n      swap2\n      sub\n      swap1\n      revert\n        /* \"v2/Sender.sol\":6956:6995  if (_amount == 0) revert AmountIsZero() */\n    tag_90:\n        /* \"v2/Sender.sol\":7006:7022  uint256 gasLimit */\n      0x00\n        /* \"v2/Sender.sol\":7025:7036  s_gasLimits */\n      0x03\n        /* \"v2/Sender.sol\":7025:7063  s_gasLimits[_destinationChainSelector] */\n      0x00\n        /* \"v2/Sender.sol\":7037:7062  _destinationChainSelector */\n      dup9\n        /* \"v2/Sender.sol\":7025:7063  s_gasLimits[_destinationChainSelector] */\n      0xffffffffffffffff\n      and\n      0xffffffffffffffff\n      and\n      dup2\n      mstore\n      0x20\n      add\n      swap1\n      dup2\n      mstore\n      0x20\n      add\n      0x00\n      keccak256\n      sload\n        /* \"v2/Sender.sol\":7006:7063  uint256 gasLimit = s_gasLimits[_destinationChainSelector] */\n      swap1\n      pop\n        /* \"v2/Sender.sol\":7090:7091  0 */\n      0x00\n        /* \"v2/Sender.sol\":7078:7086  gasLimit */\n      dup2\n        /* \"v2/Sender.sol\":7078:7091  gasLimit == 0 */\n      sub\n        /* \"v2/Sender.sol\":7074:7168  if (gasLimit == 0)... */\n      tag_91\n      jumpi\n        /* \"v2/Sender.sol\":7142:7167  _destinationChainSelector */\n      dup7\n        /* \"v2/Sender.sol\":7113:7168  NoGasLimitOnDestinationChain(_destinationChainSelector) */\n      mload(0x40)\n      0xb638ee9f00000000000000000000000000000000000000000000000000000000\n      dup2\n      mstore\n      0x04\n      add\n      tag_92\n      swap2\n      swap1\n      tag_89\n      jump\t// in\n    tag_92:\n      mload(0x40)\n      dup1\n      swap2\n      sub\n      swap1\n      revert\n        /* \"v2/Sender.sol\":7074:7168  if (gasLimit == 0)... */\n    tag_91:\n        /* \"v2/Sender.sol\":7353:7409  Client.EVMTokenAmount[]... */\n      0x00\n        /* \"v2/Sender.sol\":7440:7441  1 */\n      0x01\n        /* \"v2/Sender.sol\":7412:7442  new Client.EVMTokenAmount[](1) */\n      0xffffffffffffffff\n      dup2\n      gt\n      iszero\n      tag_93\n      jumpi\n      tag_94\n      tag_95\n      jump\t// in\n    tag_94:\n    tag_93:\n      mload(0x40)\n      swap1\n      dup1\n      dup3\n      mstore\n      dup1\n      0x20\n      mul\n      0x20\n      add\n      dup3\n      add\n      0x40\n      mstore\n      dup1\n      iszero\n      tag_96\n      jumpi\n      dup2\n      0x20\n      add\n    tag_97:\n      tag_98\n      tag_99\n      jump\t// in\n    tag_98:\n      dup2\n      mstore\n      0x20\n      add\n      swap1\n      0x01\n      swap1\n      sub\n      swap1\n      dup2\n      tag_97\n      jumpi\n      swap1\n      pop\n    tag_96:\n      pop\n        /* \"v2/Sender.sol\":7353:7442  Client.EVMTokenAmount[]... */\n      swap1\n      pop\n        /* \"v2/Sender.sol\":7471:7577  Client.EVMTokenAmount({... */\n      mload(0x40)\n      dup1\n      0x40\n      add\n      0x40\n      mstore\n      dup1\n        /* \"v2/Sender.sol\":7523:7534  i_usdcToken */\n      immutable(\"0x02bae336e50212bfd1a46e10edb1ad3bb1adf37dc92cada2f5610efec853b879\")\n        /* \"v2/Sender.sol\":7471:7577  Client.EVMTokenAmount({... */\n      0xffffffffffffffffffffffffffffffffffffffff\n      and\n      dup2\n      mstore\n      0x20\n      add\n        /* \"v2/Sender.sol\":7558:7565  _amount */\n      dup8\n        /* \"v2/Sender.sol\":7471:7577  Client.EVMTokenAmount({... */\n      dup2\n      mstore\n      pop\n        /* \"v2/Sender.sol\":7453:7465  tokenAmounts */\n      dup2\n        /* \"v2/Sender.sol\":7466:7467  0 */\n      0x00\n        /* \"v2/Sender.sol\":7453:7468  tokenAmounts[0] */\n      dup2\n      mload\n      dup2\n      lt\n      tag_100\n      jumpi\n      tag_101\n      tag_102\n      jump\t// in\n    tag_101:\n    tag_100:\n      0x20\n      mul\n      0x20\n      add\n      add\n        /* \"v2/Sender.sol\":7453:7577  tokenAmounts[0] = Client.EVMTokenAmount({... */\n      dup2\n      swap1\n      mstore\n      pop\n        /* \"v2/Sender.sol\":7703:7746  Client.EVM2AnyMessage memory evm2AnyMessage */\n      0x00\n        /* \"v2/Sender.sol\":7749:9213  Client.EVM2AnyMessage({... */\n      mload(0x40)\n      dup1\n      0xa0\n      add\n      0x40\n      mstore\n      dup1\n        /* \"v2/Sender.sol\":7807:7815  receiver */\n      dup6\n        /* \"v2/Sender.sol\":7796:7816  abi.encode(receiver) */\n      add(0x20, mload(0x40))\n      tag_103\n      swap2\n      swap1\n      tag_32\n      jump\t// in\n    tag_103:\n      mload(0x40)\n      0x20\n      dup2\n      dup4\n      sub\n      sub\n      dup2\n      mstore\n      swap1\n      0x40\n      mstore\n        /* \"v2/Sender.sol\":7749:9213  Client.EVM2AnyMessage({... */\n      dup2\n      mstore\n      0x20\n      add\n        /* \"v2/Sender.sol\":7910:7932  IStaker.stake.selector */\n      shl(0xe0, 0xadc9772e)\n        /* \"v2/Sender.sol\":7951:7963  _beneficiary */\n      dup11\n        /* \"v2/Sender.sol\":7982:7989  _amount */\n      dup11\n        /* \"v2/Sender.sol\":7869:8004  abi.encodeWithSelector(... */\n      add(0x24, mload(0x40))\n      tag_104\n      swap3\n      swap2\n      swap1\n      tag_105\n      jump\t// in\n    tag_104:\n      mload(0x40)\n      0x20\n      dup2\n      dup4\n      sub\n      sub\n      dup2\n      mstore\n      swap1\n      0x40\n      mstore\n      swap1\n      not(0xffffffffffffffffffffffffffffffffffffffffffffffffffffffff)\n      and\n      0x20\n      dup3\n      add\n      dup1\n      mload\n      0xffffffffffffffffffffffffffffffffffffffffffffffffffffffff\n      dup4\n      dup2\n      dup4\n      and\n      or\n      dup4\n      mstore\n      pop\n      pop\n      pop\n      pop\n        /* \"v2/Sender.sol\":7749:9213  Client.EVM2AnyMessage({... */\n      dup2\n      mstore\n      0x20\n      add\n        /* \"v2/Sender.sol\":8105:8117  tokenAmounts */\n      dup4\n        /* \"v2/Sender.sol\":7749:9213  Client.EVM2AnyMessage({... */\n      dup2\n      mstore\n      0x20\n      add\n        /* \"v2/Sender.sol\":9189:9200  i_linkToken */\n      immutable(\"0xd8dd77ef205b843eebffa51565657f8add679a25fbf239f803ae74f42ece1b28\")\n        /* \"v2/Sender.sol\":7749:9213  Client.EVM2AnyMessage({... */\n      0xffffffffffffffffffffffffffffffffffffffff\n      and\n      dup2\n      mstore\n      0x20\n      add\n        /* \"v2/Sender.sol\":8193:9053  Client._argsToBytes(... */\n      tag_106\n        /* \"v2/Sender.sol\":8745:9038  Client.GenericExtraArgsV2({... */\n      mload(0x40)\n      dup1\n      0x40\n      add\n      0x40\n      mstore\n      dup1\n        /* \"v2/Sender.sol\":8804:8812  gasLimit */\n      dup8\n        /* \"v2/Sender.sol\":8745:9038  Client.GenericExtraArgsV2({... */\n      dup2\n      mstore\n      0x20\n      add\n        /* \"v2/Sender.sol\":8916:8920  true */\n      0x01\n        /* \"v2/Sender.sol\":8745:9038  Client.GenericExtraArgsV2({... */\n      iszero\n      iszero\n      dup2\n      mstore\n      pop\n        /* \"v2/Sender.sol\":8193:8212  Client._argsToBytes */\n      tag_107\n        /* \"v2/Sender.sol\":8193:9053  Client._argsToBytes(... */\n      jump\t// in\n    tag_106:\n        /* \"v2/Sender.sol\":7749:9213  Client.EVM2AnyMessage({... */\n      dup2\n      mstore\n      pop\n        /* \"v2/Sender.sol\":7703:9213  Client.EVM2AnyMessage memory evm2AnyMessage = Client.EVM2AnyMessage({... */\n      swap1\n      pop\n        /* \"v2/Sender.sol\":9284:9296  uint256 fees */\n      0x00\n        /* \"v2/Sender.sol\":9299:9307  i_router */\n      immutable(\"0x33cc19d79febe2413fb9e204aeb684d47982ef5754538b90a83e403603eda384\")\n        /* \"v2/Sender.sol\":9299:9314  i_router.getFee */\n      0xffffffffffffffffffffffffffffffffffffffff\n      and\n      0x20487ded\n        /* \"v2/Sender.sol\":9329:9354  _destinationChainSelector */\n      dup12\n        /* \"v2/Sender.sol\":9369:9383  evm2AnyMessage */\n      dup5\n        /* \"v2/Sender.sol\":9299:9394  i_router.getFee(... */\n      mload(0x40)\n      dup4\n      0xffffffff\n      and\n      0xe0\n      shl\n      dup2\n      mstore\n      0x04\n      add\n      tag_108\n      swap3\n      swap2\n      swap1\n      tag_109\n      jump\t// in\n    tag_108:\n      0x20\n      mload(0x40)\n      dup1\n      dup4\n      sub\n      dup2\n      dup7\n      gas\n      staticcall\n      iszero\n      dup1\n      iszero\n      tag_111\n      jumpi\n      returndatasize\n      0x00\n      dup1\n      returndatacopy\n      revert(0x00, returndatasize)\n    tag_111:\n      pop\n      pop\n      pop\n      pop\n      mload(0x40)\n      returndatasize\n      not(0x1f)\n      0x1f\n      dup3\n      add\n      and\n      dup3\n      add\n      dup1\n      0x40\n      mstore\n      pop\n      dup2\n      add\n      swap1\n      tag_112\n      swap2\n      swap1\n      tag_66\n      jump\t// in\n    tag_112:\n        /* \"v2/Sender.sol\":9284:9394  uint256 fees = i_router.getFee(... */\n      swap1\n      pop\n        /* \"v2/Sender.sol\":9418:9429  i_linkToken */\n      immutable(\"0xd8dd77ef205b843eebffa51565657f8add679a25fbf239f803ae74f42ece1b28\")\n        /* \"v2/Sender.sol\":9418:9439  i_linkToken.balanceOf */\n      0xffffffffffffffffffffffffffffffffffffffff\n      and\n      0x70a08231\n        /* \"v2/Sender.sol\":9448:9452  this */\n      address\n        /* \"v2/Sender.sol\":9418:9454  i_linkToken.balanceOf(address(this)) */\n      mload(0x40)\n      dup3\n      0xffffffff\n      and\n      0xe0\n      shl\n      dup2\n      mstore\n      0x04\n      add\n      tag_113\n      swap2\n      swap1\n      tag_32\n      jump\t// in\n    tag_113:\n      0x20\n      mload(0x40)\n      dup1\n      dup4\n      sub\n      dup2\n      dup7\n      gas\n      staticcall\n      iszero\n      dup1\n      iszero\n      tag_115\n      jumpi\n      returndatasize\n      0x00\n      dup1\n      returndatacopy\n      revert(0x00, returndatasize)\n    tag_115:\n      pop\n      pop\n      pop\n      pop\n      mload(0x40)\n      returndatasize\n      not(0x1f)\n      0x1f\n      dup3\n      add\n      and\n      dup3\n      add\n      dup1\n      0x40\n      mstore\n      pop\n      dup2\n      add\n      swap1\n      tag_116\n      swap2\n      swap1\n      tag_66\n      jump\t// in\n    tag_116:\n        /* \"v2/Sender.sol\":9411:9415  fees */\n      dup2\n        /* \"v2/Sender.sol\":9411:9454  fees > i_linkToken.balanceOf(address(this)) */\n      gt\n        /* \"v2/Sender.sol\":9407:9536  if (fees > i_linkToken.balanceOf(address(this)))... */\n      iszero\n      tag_117\n      jumpi\n        /* \"v2/Sender.sol\":9493:9504  i_linkToken */\n      immutable(\"0xd8dd77ef205b843eebffa51565657f8add679a25fbf239f803ae74f42ece1b28\")\n        /* \"v2/Sender.sol\":9493:9514  i_linkToken.balanceOf */\n      0xffffffffffffffffffffffffffffffffffffffff\n      and\n      0x70a08231\n        /* \"v2/Sender.sol\":9523:9527  this */\n      address\n        /* \"v2/Sender.sol\":9493:9529  i_linkToken.balanceOf(address(this)) */\n      mload(0x40)\n      dup3\n      0xffffffff\n      and\n      0xe0\n      shl\n      dup2\n      mstore\n      0x04\n      add\n      tag_118\n      swap2\n      swap1\n      tag_32\n      jump\t// in\n    tag_118:\n      0x20\n      mload(0x40)\n      dup1\n      dup4\n      sub\n      dup2\n      dup7\n      gas\n      staticcall\n      iszero\n      dup1\n      iszero\n      tag_120\n      jumpi\n      returndatasize\n      0x00\n      dup1\n      returndatacopy\n      revert(0x00, returndatasize)\n    tag_120:\n      pop\n      pop\n      pop\n      pop\n      mload(0x40)\n      returndatasize\n      not(0x1f)\n      0x1f\n      dup3\n      add\n      and\n      dup3\n      add\n      dup1\n      0x40\n      mstore\n      pop\n      dup2\n      add\n      swap1\n      tag_121\n      swap2\n      swap1\n      tag_66\n      jump\t// in\n    tag_121:\n        /* \"v2/Sender.sol\":9531:9535  fees */\n      dup2\n        /* \"v2/Sender.sol\":9476:9536  NotEnoughBalance(i_linkToken.balanceOf(address(this)), fees) */\n      mload(0x40)\n      0x8f0f420600000000000000000000000000000000000000000000000000000000\n      dup2\n      mstore\n      0x04\n      add\n      tag_122\n      swap3\n      swap2\n      swap1\n      tag_123\n      jump\t// in\n    tag_122:\n      mload(0x40)\n      dup1\n      swap2\n      sub\n      swap1\n      revert\n        /* \"v2/Sender.sol\":9407:9536  if (fees > i_linkToken.balanceOf(address(this)))... */\n    tag_117:\n        /* \"v2/Sender.sol\":9657:9668  i_linkToken */\n      immutable(\"0xd8dd77ef205b843eebffa51565657f8add679a25fbf239f803ae74f42ece1b28\")\n        /* \"v2/Sender.sol\":9657:9676  i_linkToken.approve */\n      0xffffffffffffffffffffffffffffffffffffffff\n      and\n      0x095ea7b3\n        /* \"v2/Sender.sol\":9685:9693  i_router */\n      immutable(\"0x33cc19d79febe2413fb9e204aeb684d47982ef5754538b90a83e403603eda384\")\n        /* \"v2/Sender.sol\":9696:9700  fees */\n      dup4\n        /* \"v2/Sender.sol\":9657:9701  i_linkToken.approve(address(i_router), fees) */\n      mload(0x40)\n      dup4\n      0xffffffff\n      and\n      0xe0\n      shl\n      dup2\n      mstore\n      0x04\n      add\n      tag_124\n      swap3\n      swap2\n      swap1\n      tag_105\n      jump\t// in\n    tag_124:\n      0x20\n      mload(0x40)\n      dup1\n      dup4\n      sub\n      dup2\n      0x00\n      dup8\n      gas\n      call\n      iszero\n      dup1\n      iszero\n      tag_126\n      jumpi\n      returndatasize\n      0x00\n      dup1\n      returndatacopy\n      revert(0x00, returndatasize)\n    tag_126:\n      pop\n      pop\n      pop\n      pop\n      mload(0x40)\n      returndatasize\n      not(0x1f)\n      0x1f\n      dup3\n      add\n      and\n      dup3\n      add\n      dup1\n      0x40\n      mstore\n      pop\n      dup2\n      add\n      swap1\n      tag_127\n      swap2\n      swap1\n      tag_128\n      jump\t// in\n    tag_127:\n      pop\n        /* \"v2/Sender.sol\":9832:9843  i_usdcToken */\n      immutable(\"0x02bae336e50212bfd1a46e10edb1ad3bb1adf37dc92cada2f5610efec853b879\")\n        /* \"v2/Sender.sol\":9832:9851  i_usdcToken.approve */\n      0xffffffffffffffffffffffffffffffffffffffff\n      and\n      0x095ea7b3\n        /* \"v2/Sender.sol\":9860:9868  i_router */\n      immutable(\"0x33cc19d79febe2413fb9e204aeb684d47982ef5754538b90a83e403603eda384\")\n        /* \"v2/Sender.sol\":9871:9878  _amount */\n      dup11\n        /* \"v2/Sender.sol\":9832:9879  i_usdcToken.approve(address(i_router), _amount) */\n      mload(0x40)\n      dup4\n      0xffffffff\n      and\n      0xe0\n      shl\n      dup2\n      mstore\n      0x04\n      add\n      tag_129\n      swap3\n      swap2\n      swap1\n      tag_105\n      jump\t// in\n    tag_129:\n      0x20\n      mload(0x40)\n      dup1\n      dup4\n      sub\n      dup2\n      0x00\n      dup8\n      gas\n      call\n      iszero\n      dup1\n      iszero\n      tag_131\n      jumpi\n      returndatasize\n      0x00\n      dup1\n      returndatacopy\n      revert(0x00, returndatasize)\n    tag_131:\n      pop\n      pop\n      pop\n      pop\n      mload(0x40)\n      returndatasize\n      not(0x1f)\n      0x1f\n      dup3\n      add\n      and\n      dup3\n      add\n      dup1\n      0x40\n      mstore\n      pop\n      dup2\n      add\n      swap1\n      tag_132\n      swap2\n      swap1\n      tag_128\n      jump\t// in\n    tag_132:\n      pop\n        /* \"v2/Sender.sol\":9986:9994  i_router */\n      immutable(\"0x33cc19d79febe2413fb9e204aeb684d47982ef5754538b90a83e403603eda384\")\n        /* \"v2/Sender.sol\":9986:10003  i_router.ccipSend */\n      0xffffffffffffffffffffffffffffffffffffffff\n      and\n      0x96f4e9f9\n        /* \"v2/Sender.sol\":10018:10043  _destinationChainSelector */\n      dup12\n        /* \"v2/Sender.sol\":10058:10072  evm2AnyMessage */\n      dup5\n        /* \"v2/Sender.sol\":9986:10083  i_router.ccipSend(... */\n      mload(0x40)\n      dup4\n      0xffffffff\n      and\n      0xe0\n      shl\n      dup2\n      mstore\n      0x04\n      add\n      tag_133\n      swap3\n      swap2\n      swap1\n      tag_109\n      jump\t// in\n    tag_133:\n      0x20\n      mload(0x40)\n      dup1\n      dup4\n      sub\n      dup2\n      0x00\n      dup8\n      gas\n      call\n      iszero\n      dup1\n      iszero\n      tag_135\n      jumpi\n      returndatasize\n      0x00\n      dup1\n      returndatacopy\n      revert(0x00, returndatasize)\n    tag_135:\n      pop\n      pop\n      pop\n      pop\n      mload(0x40)\n      returndatasize\n      not(0x1f)\n      0x1f\n      dup3\n      add\n      and\n      dup3\n      add\n      dup1\n      0x40\n      mstore\n      pop\n      dup2\n      add\n      swap1\n      tag_136\n      swap2\n      swap1\n      tag_137\n      jump\t// in\n    tag_136:\n        /* \"v2/Sender.sol\":9974:10083  messageId = i_router.ccipSend(... */\n      swap7\n      pop\n        /* \"v2/Sender.sol\":10238:10246  receiver */\n      dup5\n        /* \"v2/Sender.sol\":10148:10395  MessageSent(... */\n      0xffffffffffffffffffffffffffffffffffffffff\n      and\n        /* \"v2/Sender.sol\":10198:10223  _destinationChainSelector */\n      dup11\n        /* \"v2/Sender.sol\":10148:10395  MessageSent(... */\n      0xffffffffffffffff\n      and\n        /* \"v2/Sender.sol\":10174:10183  messageId */\n      dup9\n        /* \"v2/Sender.sol\":10148:10395  MessageSent(... */\n      0x80f8e2b9197752b9e33afaa4f92703ac7efbbf247cddcc732b1b555ff1dea27b\n        /* \"v2/Sender.sol\":10261:10273  _beneficiary */\n      dup13\n        /* \"v2/Sender.sol\":10296:10307  i_usdcToken */\n      immutable(\"0x02bae336e50212bfd1a46e10edb1ad3bb1adf37dc92cada2f5610efec853b879\")\n        /* \"v2/Sender.sol\":10323:10330  _amount */\n      dup14\n        /* \"v2/Sender.sol\":10353:10364  i_linkToken */\n      immutable(\"0xd8dd77ef205b843eebffa51565657f8add679a25fbf239f803ae74f42ece1b28\")\n        /* \"v2/Sender.sol\":10380:10384  fees */\n      dup9\n        /* \"v2/Sender.sol\":10148:10395  MessageSent(... */\n      mload(0x40)\n      tag_138\n      swap6\n      swap5\n      swap4\n      swap3\n      swap2\n      swap1\n      tag_139\n      jump\t// in\n    tag_138:\n      mload(0x40)\n      dup1\n      swap2\n      sub\n      swap1\n      log4\n        /* \"v2/Sender.sol\":10442:10458  return messageId */\n      pop\n      pop\n      pop\n      pop\n      pop\n        /* \"@chainlink/contracts@1.4.0/src/v0.8/shared/access/ConfirmedOwnerWithProposal.sol\":2101:2102  _ */\n      pop\n        /* \"v2/Sender.sol\":6488:10466  function sendMessagePayLINK(... */\n      swap4\n      swap3\n      pop\n      pop\n      pop\n      jump\t// out\n        /* \"@chainlink/contracts@1.4.0/src/v0.8/shared/access/ConfirmedOwnerWithProposal.sol\":1026:1342  function acceptOwnership() external override {... */\n    tag_40:\n        /* \"@chainlink/contracts@1.4.0/src/v0.8/shared/access/ConfirmedOwnerWithProposal.sol\":1150:1164  s_pendingOwner */\n      0x01\n      0x00\n      swap1\n      sload\n      swap1\n      0x0100\n      exp\n      swap1\n      div\n      0xffffffffffffffffffffffffffffffffffffffff\n      and\n        /* \"@chainlink/contracts@1.4.0/src/v0.8/shared/access/ConfirmedOwnerWithProposal.sol\":1136:1164  msg.sender == s_pendingOwner */\n      0xffffffffffffffffffffffffffffffffffffffff\n      and\n        /* \"@chainlink/contracts@1.4.0/src/v0.8/shared/access/ConfirmedOwnerWithProposal.sol\":1136:1146  msg.sender */\n      caller\n        /* \"@chainlink/contracts@1.4.0/src/v0.8/shared/access/ConfirmedOwnerWithProposal.sol\":1136:1164  msg.sender == s_pendingOwner */\n      0xffffffffffffffffffffffffffffffffffffffff\n      and\n      eq\n        /* \"@chainlink/contracts@1.4.0/src/v0.8/shared/access/ConfirmedOwnerWithProposal.sol\":1128:1191  require(msg.sender == s_pendingOwner, \"Must be proposed owner\") */\n      tag_141\n      jumpi\n      mload(0x40)\n      0x08c379a000000000000000000000000000000000000000000000000000000000\n      dup2\n      mstore\n      0x04\n      add\n      tag_142\n      swap1\n      tag_143\n      jump\t// in\n    tag_142:\n      mload(0x40)\n      dup1\n      swap2\n      sub\n      swap1\n      revert\n    tag_141:\n        /* \"@chainlink/contracts@1.4.0/src/v0.8/shared/access/ConfirmedOwnerWithProposal.sol\":1198:1214  address oldOwner */\n      0x00\n        /* \"@chainlink/contracts@1.4.0/src/v0.8/shared/access/ConfirmedOwnerWithProposal.sol\":1217:1224  s_owner */\n      dup1\n      0x00\n      swap1\n      sload\n      swap1\n      0x0100\n      exp\n      swap1\n      div\n      0xffffffffffffffffffffffffffffffffffffffff\n      and\n        /* \"@chainlink/contracts@1.4.0/src/v0.8/shared/access/ConfirmedOwnerWithProposal.sol\":1198:1224  address oldOwner = s_owner */\n      swap1\n      pop\n        /* \"@chainlink/contracts@1.4.0/src/v0.8/shared/access/ConfirmedOwnerWithProposal.sol\":1240:1250  msg.sender */\n      caller\n        /* \"@chainlink/contracts@1.4.0/src/v0.8/shared/access/ConfirmedOwnerWithProposal.sol\":1230:1237  s_owner */\n      0x00\n      dup1\n        /* \"@chainlink/contracts@1.4.0/src/v0.8/shared/access/ConfirmedOwnerWithProposal.sol\":1230:1250  s_owner = msg.sender */\n      0x0100\n      exp\n      dup2\n      sload\n      dup2\n      0xffffffffffffffffffffffffffffffffffffffff\n      mul\n      not\n      and\n      swap1\n      dup4\n      0xffffffffffffffffffffffffffffffffffffffff\n      and\n      mul\n      or\n      swap1\n      sstore\n      pop\n        /* \"@chainlink/contracts@1.4.0/src/v0.8/shared/access/ConfirmedOwnerWithProposal.sol\":1281:1282  0 */\n      0x00\n        /* \"@chainlink/contracts@1.4.0/src/v0.8/shared/access/ConfirmedOwnerWithProposal.sol\":1256:1270  s_pendingOwner */\n      0x01\n      0x00\n        /* \"@chainlink/contracts@1.4.0/src/v0.8/shared/access/ConfirmedOwnerWithProposal.sol\":1256:1283  s_pendingOwner = address(0) */\n      0x0100\n      exp\n      dup2\n      sload\n      dup2\n      0xffffffffffffffffffffffffffffffffffffffff\n      mul\n      not\n      and\n      swap1\n      dup4\n      0xffffffffffffffffffffffffffffffffffffffff\n      and\n      mul\n      or\n      swap1\n      sstore\n      pop\n        /* \"@chainlink/contracts@1.4.0/src/v0.8/shared/access/ConfirmedOwnerWithProposal.sol\":1326:1336  msg.sender */\n      caller\n        /* \"@chainlink/contracts@1.4.0/src/v0.8/shared/access/ConfirmedOwnerWithProposal.sol\":1295:1337  OwnershipTransferred(oldOwner, msg.sender) */\n      0xffffffffffffffffffffffffffffffffffffffff\n      and\n        /* \"@chainlink/contracts@1.4.0/src/v0.8/shared/access/ConfirmedOwnerWithProposal.sol\":1316:1324  oldOwner */\n      dup2\n        /* \"@chainlink/contracts@1.4.0/src/v0.8/shared/access/ConfirmedOwnerWithProposal.sol\":1295:1337  OwnershipTransferred(oldOwner, msg.sender) */\n      0xffffffffffffffffffffffffffffffffffffffff\n      and\n      0x8be0079c531659141344cd1fd0a4f28419497f9722a3daafe3b4186f6b6457e0\n      mload(0x40)\n      mload(0x40)\n      dup1\n      swap2\n      sub\n      swap1\n      log3\n        /* \"@chainlink/contracts@1.4.0/src/v0.8/shared/access/ConfirmedOwnerWithProposal.sol\":1071:1342  {... */\n      pop\n        /* \"@chainlink/contracts@1.4.0/src/v0.8/shared/access/ConfirmedOwnerWithProposal.sol\":1026:1342  function acceptOwnership() external override {... */\n      jump\t// out\n        /* \"@chainlink/contracts@1.4.0/src/v0.8/shared/access/ConfirmedOwnerWithProposal.sol\":1382:1463  function owner() public view override returns (address) {... */\n    tag_42:\n        /* \"@chainlink/contracts@1.4.0/src/v0.8/shared/access/ConfirmedOwnerWithProposal.sol\":1429:1436  address */\n      0x00\n        /* \"@chainlink/contracts@1.4.0/src/v0.8/shared/access/ConfirmedOwnerWithProposal.sol\":1451:1458  s_owner */\n      dup1\n      0x00\n      swap1\n      sload\n      swap1\n      0x0100\n      exp\n      swap1\n      div\n      0xffffffffffffffffffffffffffffffffffffffff\n      and\n        /* \"@chainlink/contracts@1.4.0/src/v0.8/shared/access/ConfirmedOwnerWithProposal.sol\":1444:1458  return s_owner */\n      swap1\n      pop\n        /* \"@chainlink/contracts@1.4.0/src/v0.8/shared/access/ConfirmedOwnerWithProposal.sol\":1382:1463  function owner() public view override returns (address) {... */\n      swap1\n      jump\t// out\n        /* \"v2/Sender.sol\":5582:5954  function deleteReceiverForDestinationChain(... */\n    tag_46:\n        /* \"@chainlink/contracts@1.4.0/src/v0.8/shared/access/ConfirmedOwnerWithProposal.sol\":2075:2095  _validateOwnership() */\n      tag_146\n        /* \"@chainlink/contracts@1.4.0/src/v0.8/shared/access/ConfirmedOwnerWithProposal.sol\":2075:2093  _validateOwnership */\n      tag_60\n        /* \"@chainlink/contracts@1.4.0/src/v0.8/shared/access/ConfirmedOwnerWithProposal.sol\":2075:2095  _validateOwnership() */\n      jump\t// in\n    tag_146:\n        /* \"v2/Sender.sol\":5719:5744  _destinationChainSelector */\n      dup1\n        /* \"v2/Sender.sol\":3428:3429  0 */\n      0x00\n        /* \"v2/Sender.sol\":3399:3424  _destinationChainSelector */\n      dup2\n        /* \"v2/Sender.sol\":3399:3429  _destinationChainSelector == 0 */\n      0xffffffffffffffff\n      and\n      sub\n        /* \"v2/Sender.sol\":3395:3463  if (_destinationChainSelector == 0) revert InvalidDestinationChain() */\n      tag_148\n      jumpi\n        /* \"v2/Sender.sol\":3438:3463  InvalidDestinationChain() */\n      mload(0x40)\n      0xb86ac1ef00000000000000000000000000000000000000000000000000000000\n      dup2\n      mstore\n      0x04\n      add\n      mload(0x40)\n      dup1\n      swap2\n      sub\n      swap1\n      revert\n        /* \"v2/Sender.sol\":3395:3463  if (_destinationChainSelector == 0) revert InvalidDestinationChain() */\n    tag_148:\n        /* \"v2/Sender.sol\":5811:5812  0 */\n      0x00\n        /* \"v2/Sender.sol\":5761:5813  s_receivers[_destinationChainSelector] == address(0) */\n      0xffffffffffffffffffffffffffffffffffffffff\n      and\n        /* \"v2/Sender.sol\":5761:5772  s_receivers */\n      0x02\n        /* \"v2/Sender.sol\":5761:5799  s_receivers[_destinationChainSelector] */\n      0x00\n        /* \"v2/Sender.sol\":5773:5798  _destinationChainSelector */\n      dup5\n        /* \"v2/Sender.sol\":5761:5799  s_receivers[_destinationChainSelector] */\n      0xffffffffffffffff\n      and\n      0xffffffffffffffff\n      and\n      dup2\n      mstore\n      0x20\n      add\n      swap1\n      dup2\n      mstore\n      0x20\n      add\n      0x00\n      keccak256\n      0x00\n      swap1\n      sload\n      swap1\n      0x0100\n      exp\n      swap1\n      div\n      0xffffffffffffffffffffffffffffffffffffffff\n      and\n        /* \"v2/Sender.sol\":5761:5813  s_receivers[_destinationChainSelector] == address(0) */\n      0xffffffffffffffffffffffffffffffffffffffff\n      and\n      sub\n        /* \"v2/Sender.sol\":5757:5890  if (s_receivers[_destinationChainSelector] == address(0))... */\n      tag_150\n      jumpi\n        /* \"v2/Sender.sol\":5864:5889  _destinationChainSelector */\n      dup2\n        /* \"v2/Sender.sol\":5835:5890  NoReceiverOnDestinationChain(_destinationChainSelector) */\n      mload(0x40)\n      0x67a1bf1d00000000000000000000000000000000000000000000000000000000\n      dup2\n      mstore\n      0x04\n      add\n      tag_151\n      swap2\n      swap1\n      tag_89\n      jump\t// in\n    tag_151:\n      mload(0x40)\n      dup1\n      swap2\n      sub\n      swap1\n      revert\n        /* \"v2/Sender.sol\":5757:5890  if (s_receivers[_destinationChainSelector] == address(0))... */\n    tag_150:\n        /* \"v2/Sender.sol\":5908:5919  s_receivers */\n      0x02\n        /* \"v2/Sender.sol\":5908:5946  s_receivers[_destinationChainSelector] */\n      0x00\n        /* \"v2/Sender.sol\":5920:5945  _destinationChainSelector */\n      dup4\n        /* \"v2/Sender.sol\":5908:5946  s_receivers[_destinationChainSelector] */\n      0xffffffffffffffff\n      and\n      0xffffffffffffffff\n      and\n      dup2\n      mstore\n      0x20\n      add\n      swap1\n      dup2\n      mstore\n      0x20\n      add\n      0x00\n      keccak256\n      0x00\n        /* \"v2/Sender.sol\":5901:5946  delete s_receivers[_destinationChainSelector] */\n      0x0100\n      exp\n      dup2\n      sload\n      swap1\n      0xffffffffffffffffffffffffffffffffffffffff\n      mul\n      not\n      and\n      swap1\n      sstore\n        /* \"@chainlink/contracts@1.4.0/src/v0.8/shared/access/ConfirmedOwnerWithProposal.sol\":2101:2102  _ */\n      pop\n        /* \"v2/Sender.sol\":5582:5954  function deleteReceiverForDestinationChain(... */\n      pop\n      jump\t// out\n        /* \"v2/Sender.sol\":11456:11810  function withdrawUsdcToken(address _beneficiary) public onlyOwner {... */\n    tag_49:\n        /* \"@chainlink/contracts@1.4.0/src/v0.8/shared/access/ConfirmedOwnerWithProposal.sol\":2075:2095  _validateOwnership() */\n      tag_153\n        /* \"@chainlink/contracts@1.4.0/src/v0.8/shared/access/ConfirmedOwnerWithProposal.sol\":2075:2093  _validateOwnership */\n      tag_60\n        /* \"@chainlink/contracts@1.4.0/src/v0.8/shared/access/ConfirmedOwnerWithProposal.sol\":2075:2095  _validateOwnership() */\n      jump\t// in\n    tag_153:\n        /* \"v2/Sender.sol\":11583:11597  uint256 amount */\n      0x00\n        /* \"v2/Sender.sol\":11600:11611  i_usdcToken */\n      immutable(\"0x02bae336e50212bfd1a46e10edb1ad3bb1adf37dc92cada2f5610efec853b879\")\n        /* \"v2/Sender.sol\":11600:11621  i_usdcToken.balanceOf */\n      0xffffffffffffffffffffffffffffffffffffffff\n      and\n      0x70a08231\n        /* \"v2/Sender.sol\":11630:11634  this */\n      address\n        /* \"v2/Sender.sol\":11600:11636  i_usdcToken.balanceOf(address(this)) */\n      mload(0x40)\n      dup3\n      0xffffffff\n      and\n      0xe0\n      shl\n      dup2\n      mstore\n      0x04\n      add\n      tag_155\n      swap2\n      swap1\n      tag_32\n      jump\t// in\n    tag_155:\n      0x20\n      mload(0x40)\n      dup1\n      dup4\n      sub\n      dup2\n      dup7\n      gas\n      staticcall\n      iszero\n      dup1\n      iszero\n      tag_157\n      jumpi\n      returndatasize\n      0x00\n      dup1\n      returndatacopy\n      revert(0x00, returndatasize)\n    tag_157:\n      pop\n      pop\n      pop\n      pop\n      mload(0x40)\n      returndatasize\n      not(0x1f)\n      0x1f\n      dup3\n      add\n      and\n      dup3\n      add\n      dup1\n      0x40\n      mstore\n      pop\n      dup2\n      add\n      swap1\n      tag_158\n      swap2\n      swap1\n      tag_66\n      jump\t// in\n    tag_158:\n        /* \"v2/Sender.sol\":11583:11636  uint256 amount = i_usdcToken.balanceOf(address(this)) */\n      swap1\n      pop\n        /* \"v2/Sender.sol\":11714:11715  0 */\n      0x00\n        /* \"v2/Sender.sol\":11704:11710  amount */\n      dup2\n        /* \"v2/Sender.sol\":11704:11715  amount == 0 */\n      sub\n        /* \"v2/Sender.sol\":11700:11743  if (amount == 0) revert NothingToWithdraw() */\n      tag_159\n      jumpi\n        /* \"v2/Sender.sol\":11724:11743  NothingToWithdraw() */\n      mload(0x40)\n      0xd0d04f6000000000000000000000000000000000000000000000000000000000\n      dup2\n      mstore\n      0x04\n      add\n      mload(0x40)\n      dup1\n      swap2\n      sub\n      swap1\n      revert\n        /* \"v2/Sender.sol\":11700:11743  if (amount == 0) revert NothingToWithdraw() */\n    tag_159:\n        /* \"v2/Sender.sol\":11756:11802  i_usdcToken.safeTransfer(_beneficiary, amount) */\n      tag_160\n        /* \"v2/Sender.sol\":11781:11793  _beneficiary */\n      dup3\n        /* \"v2/Sender.sol\":11795:11801  amount */\n      dup3\n        /* \"v2/Sender.sol\":11756:11767  i_usdcToken */\n      immutable(\"0x02bae336e50212bfd1a46e10edb1ad3bb1adf37dc92cada2f5610efec853b879\")\n        /* \"v2/Sender.sol\":11756:11780  i_usdcToken.safeTransfer */\n      0xffffffffffffffffffffffffffffffffffffffff\n      and\n      tag_69\n      swap1\n        /* \"v2/Sender.sol\":11756:11802  i_usdcToken.safeTransfer(_beneficiary, amount) */\n      swap3\n      swap2\n      swap1\n      0xffffffff\n      and\n      jump\t// in\n    tag_160:\n        /* \"v2/Sender.sol\":11522:11810  {... */\n      pop\n        /* \"v2/Sender.sol\":11456:11810  function withdrawUsdcToken(address _beneficiary) public onlyOwner {... */\n      pop\n      jump\t// out\n        /* \"@chainlink/contracts@1.4.0/src/v0.8/shared/access/ConfirmedOwnerWithProposal.sol\":847:945  function transferOwnership(address to) public override onlyOwner {... */\n    tag_52:\n        /* \"@chainlink/contracts@1.4.0/src/v0.8/shared/access/ConfirmedOwnerWithProposal.sol\":2075:2095  _validateOwnership() */\n      tag_162\n        /* \"@chainlink/contracts@1.4.0/src/v0.8/shared/access/ConfirmedOwnerWithProposal.sol\":2075:2093  _validateOwnership */\n      tag_60\n        /* \"@chainlink/contracts@1.4.0/src/v0.8/shared/access/ConfirmedOwnerWithProposal.sol\":2075:2095  _validateOwnership() */\n      jump\t// in\n    tag_162:\n        /* \"@chainlink/contracts@1.4.0/src/v0.8/shared/access/ConfirmedOwnerWithProposal.sol\":918:940  _transferOwnership(to) */\n      tag_164\n        /* \"@chainlink/contracts@1.4.0/src/v0.8/shared/access/ConfirmedOwnerWithProposal.sol\":937:939  to */\n      dup2\n        /* \"@chainlink/contracts@1.4.0/src/v0.8/shared/access/ConfirmedOwnerWithProposal.sol\":918:936  _transferOwnership */\n      tag_165\n        /* \"@chainlink/contracts@1.4.0/src/v0.8/shared/access/ConfirmedOwnerWithProposal.sol\":918:940  _transferOwnership(to) */\n      jump\t// in\n    tag_164:\n        /* \"@chainlink/contracts@1.4.0/src/v0.8/shared/access/ConfirmedOwnerWithProposal.sol\":847:945  function transferOwnership(address to) public override onlyOwner {... */\n      pop\n      jump\t// out\n        /* \"v2/Sender.sol\":3262:3307  mapping(uint64 => uint256) public s_gasLimits */\n    tag_55:\n      mstore(0x20, 0x03)\n      dup1\n      0x00\n      mstore\n      keccak256(0x00, 0x40)\n      0x00\n      swap2\n      pop\n      swap1\n      pop\n      sload\n      dup2\n      jump\t// out\n        /* \"@chainlink/contracts@1.4.0/src/v0.8/shared/access/ConfirmedOwnerWithProposal.sol\":1809:1971  function _validateOwnership() internal view {... */\n    tag_60:\n        /* \"@chainlink/contracts@1.4.0/src/v0.8/shared/access/ConfirmedOwnerWithProposal.sol\":1932:1939  s_owner */\n      0x00\n      dup1\n      sload\n      swap1\n      0x0100\n      exp\n      swap1\n      div\n      0xffffffffffffffffffffffffffffffffffffffff\n      and\n        /* \"@chainlink/contracts@1.4.0/src/v0.8/shared/access/ConfirmedOwnerWithProposal.sol\":1918:1939  msg.sender == s_owner */\n      0xffffffffffffffffffffffffffffffffffffffff\n      and\n        /* \"@chainlink/contracts@1.4.0/src/v0.8/shared/access/ConfirmedOwnerWithProposal.sol\":1918:1928  msg.sender */\n      caller\n        /* \"@chainlink/contracts@1.4.0/src/v0.8/shared/access/ConfirmedOwnerWithProposal.sol\":1918:1939  msg.sender == s_owner */\n      0xffffffffffffffffffffffffffffffffffffffff\n      and\n      eq\n        /* \"@chainlink/contracts@1.4.0/src/v0.8/shared/access/ConfirmedOwnerWithProposal.sol\":1910:1966  require(msg.sender == s_owner, \"Only callable by owner\") */\n      tag_167\n      jumpi\n      mload(0x40)\n      0x08c379a000000000000000000000000000000000000000000000000000000000\n      dup2\n      mstore\n      0x04\n      add\n      tag_168\n      swap1\n      tag_169\n      jump\t// in\n    tag_168:\n      mload(0x40)\n      dup1\n      swap2\n      sub\n      swap1\n      revert\n    tag_167:\n        /* \"@chainlink/contracts@1.4.0/src/v0.8/shared/access/ConfirmedOwnerWithProposal.sol\":1809:1971  function _validateOwnership() internal view {... */\n      jump\t// out\n        /* \"@chainlink/contracts@1.4.0/src/v0.8/vendor/openzeppelin-solidity/v4.8.3/contracts/token/ERC20/utils/SafeERC20.sol\":759:928  function safeTransfer(IERC20 token, address to, uint256 value) internal {... */\n    tag_69:\n        /* \"@chainlink/contracts@1.4.0/src/v0.8/vendor/openzeppelin-solidity/v4.8.3/contracts/token/ERC20/utils/SafeERC20.sol\":837:923  _callOptionalReturn(token, abi.encodeWithSelector(token.transfer.selector, to, value)) */\n      tag_171\n        /* \"@chainlink/contracts@1.4.0/src/v0.8/vendor/openzeppelin-solidity/v4.8.3/contracts/token/ERC20/utils/SafeERC20.sol\":857:862  token */\n      dup4\n        /* \"@chainlink/contracts@1.4.0/src/v0.8/vendor/openzeppelin-solidity/v4.8.3/contracts/token/ERC20/utils/SafeERC20.sol\":887:910  token.transfer.selector */\n      shl(0xe0, 0xa9059cbb)\n        /* \"@chainlink/contracts@1.4.0/src/v0.8/vendor/openzeppelin-solidity/v4.8.3/contracts/token/ERC20/utils/SafeERC20.sol\":912:914  to */\n      dup5\n        /* \"@chainlink/contracts@1.4.0/src/v0.8/vendor/openzeppelin-solidity/v4.8.3/contracts/token/ERC20/utils/SafeERC20.sol\":916:921  value */\n      dup5\n        /* \"@chainlink/contracts@1.4.0/src/v0.8/vendor/openzeppelin-solidity/v4.8.3/contracts/token/ERC20/utils/SafeERC20.sol\":864:922  abi.encodeWithSelector(token.transfer.selector, to, value) */\n      add(0x24, mload(0x40))\n      tag_172\n      swap3\n      swap2\n      swap1\n      tag_105\n      jump\t// in\n    tag_172:\n      mload(0x40)\n      0x20\n      dup2\n      dup4\n      sub\n      sub\n      dup2\n      mstore\n      swap1\n      0x40\n      mstore\n      swap1\n      not(0xffffffffffffffffffffffffffffffffffffffffffffffffffffffff)\n      and\n      0x20\n      dup3\n      add\n      dup1\n      mload\n      0xffffffffffffffffffffffffffffffffffffffffffffffffffffffff\n      dup4\n      dup2\n      dup4\n      and\n      or\n      dup4\n      mstore\n      pop\n      pop\n      pop\n      pop\n        /* \"@chainlink/contracts@1.4.0/src/v0.8/vendor/openzeppelin-solidity/v4.8.3/contracts/token/ERC20/utils/SafeERC20.sol\":837:856  _callOptionalReturn */\n      tag_173\n        /* \"@chainlink/contracts@1.4.0/src/v0.8/vendor/openzeppelin-solidity/v4.8.3/contracts/token/ERC20/utils/SafeERC20.sol\":837:923  _callOptionalReturn(token, abi.encodeWithSelector(token.transfer.selector, to, value)) */\n      jump\t// in\n    tag_171:\n        /* \"@chainlink/contracts@1.4.0/src/v0.8/vendor/openzeppelin-solidity/v4.8.3/contracts/token/ERC20/utils/SafeERC20.sol\":759:928  function safeTransfer(IERC20 token, address to, uint256 value) internal {... */\n      pop\n      pop\n      pop\n      jump\t// out\n        /* \"@chainlink/contracts-ccip@1.6.0/contracts/libraries/Client.sol\":4328:4514  function _argsToBytes(... */\n    tag_107:\n        /* \"@chainlink/contracts-ccip@1.6.0/contracts/libraries/Client.sol\":4418:4434  bytes memory bts */\n      0x60\n        /* \"@chainlink/contracts-ccip@1.6.0/contracts/libraries/Client.sol\":1861:1871  0x181dcf10 */\n      0x181dcf10\n        /* \"@chainlink/contracts-ccip@1.6.0/contracts/libraries/Client.sol\":4472:4497  GENERIC_EXTRA_ARGS_V2_TAG */\n      0xe0\n      shl\n        /* \"@chainlink/contracts-ccip@1.6.0/contracts/libraries/Client.sol\":4499:4508  extraArgs */\n      dup3\n        /* \"@chainlink/contracts-ccip@1.6.0/contracts/libraries/Client.sol\":4449:4509  abi.encodeWithSelector(GENERIC_EXTRA_ARGS_V2_TAG, extraArgs) */\n      add(0x24, mload(0x40))\n      tag_175\n      swap2\n      swap1\n      tag_176\n      jump\t// in\n    tag_175:\n      mload(0x40)\n      0x20\n      dup2\n      dup4\n      sub\n      sub\n      dup2\n      mstore\n      swap1\n      0x40\n      mstore\n      swap1\n      not(0xffffffffffffffffffffffffffffffffffffffffffffffffffffffff)\n      and\n      0x20\n      dup3\n      add\n      dup1\n      mload\n      0xffffffffffffffffffffffffffffffffffffffffffffffffffffffff\n      dup4\n      dup2\n      dup4\n      and\n      or\n      dup4\n      mstore\n      pop\n      pop\n      pop\n      pop\n        /* \"@chainlink/contracts-ccip@1.6.0/contracts/libraries/Client.sol\":4442:4509  return abi.encodeWithSelector(GENERIC_EXTRA_ARGS_V2_TAG, extraArgs) */\n      swap1\n      pop\n        /* \"@chainlink/contracts-ccip@1.6.0/contracts/libraries/Client.sol\":4328:4514  function _argsToBytes(... */\n      swap2\n      swap1\n      pop\n      jump\t// out\n        /* \"@chainlink/contracts@1.4.0/src/v0.8/shared/access/ConfirmedOwnerWithProposal.sol\":1536:1775  function _transferOwnership(address to) private {... */\n    tag_165:\n        /* \"@chainlink/contracts@1.4.0/src/v0.8/shared/access/ConfirmedOwnerWithProposal.sol\":1655:1665  msg.sender */\n      caller\n        /* \"@chainlink/contracts@1.4.0/src/v0.8/shared/access/ConfirmedOwnerWithProposal.sol\":1649:1665  to != msg.sender */\n      0xffffffffffffffffffffffffffffffffffffffff\n      and\n        /* \"@chainlink/contracts@1.4.0/src/v0.8/shared/access/ConfirmedOwnerWithProposal.sol\":1649:1651  to */\n      dup2\n        /* \"@chainlink/contracts@1.4.0/src/v0.8/shared/access/ConfirmedOwnerWithProposal.sol\":1649:1665  to != msg.sender */\n      0xffffffffffffffffffffffffffffffffffffffff\n      and\n      sub\n        /* \"@chainlink/contracts@1.4.0/src/v0.8/shared/access/ConfirmedOwnerWithProposal.sol\":1641:1693  require(to != msg.sender, \"Cannot transfer to self\") */\n      tag_178\n      jumpi\n      mload(0x40)\n      0x08c379a000000000000000000000000000000000000000000000000000000000\n      dup2\n      mstore\n      0x04\n      add\n      tag_179\n      swap1\n      tag_180\n      jump\t// in\n    tag_179:\n      mload(0x40)\n      dup1\n      swap2\n      sub\n      swap1\n      revert\n    tag_178:\n        /* \"@chainlink/contracts@1.4.0/src/v0.8/shared/access/ConfirmedOwnerWithProposal.sol\":1717:1719  to */\n      dup1\n        /* \"@chainlink/contracts@1.4.0/src/v0.8/shared/access/ConfirmedOwnerWithProposal.sol\":1700:1714  s_pendingOwner */\n      0x01\n      0x00\n        /* \"@chainlink/contracts@1.4.0/src/v0.8/shared/access/ConfirmedOwnerWithProposal.sol\":1700:1719  s_pendingOwner = to */\n      0x0100\n      exp\n      dup2\n      sload\n      dup2\n      0xffffffffffffffffffffffffffffffffffffffff\n      mul\n      not\n      and\n      swap1\n      dup4\n      0xffffffffffffffffffffffffffffffffffffffff\n      and\n      mul\n      or\n      swap1\n      sstore\n      pop\n        /* \"@chainlink/contracts@1.4.0/src/v0.8/shared/access/ConfirmedOwnerWithProposal.sol\":1767:1769  to */\n      dup1\n        /* \"@chainlink/contracts@1.4.0/src/v0.8/shared/access/ConfirmedOwnerWithProposal.sol\":1731:1770  OwnershipTransferRequested(s_owner, to) */\n      0xffffffffffffffffffffffffffffffffffffffff\n      and\n        /* \"@chainlink/contracts@1.4.0/src/v0.8/shared/access/ConfirmedOwnerWithProposal.sol\":1758:1765  s_owner */\n      0x00\n      dup1\n      sload\n      swap1\n      0x0100\n      exp\n      swap1\n      div\n      0xffffffffffffffffffffffffffffffffffffffff\n      and\n        /* \"@chainlink/contracts@1.4.0/src/v0.8/shared/access/ConfirmedOwnerWithProposal.sol\":1731:1770  OwnershipTransferRequested(s_owner, to) */\n      0xffffffffffffffffffffffffffffffffffffffff\n      and\n      0xed8889f560326eb138920d842192f0eb3dd22b4f139c87a2c57538e05bae1278\n      mload(0x40)\n      mload(0x40)\n      dup1\n      swap2\n      sub\n      swap1\n      log3\n        /* \"@chainlink/contracts@1.4.0/src/v0.8/shared/access/ConfirmedOwnerWithProposal.sol\":1536:1775  function _transferOwnership(address to) private {... */\n      pop\n      jump\t// out\n        /* \"@chainlink/contracts@1.4.0/src/v0.8/vendor/openzeppelin-solidity/v4.8.3/contracts/token/ERC20/utils/SafeERC20.sol\":3401:4069  function _callOptionalReturn(IERC20 token, bytes memory data) private {... */\n    tag_173:\n        /* \"@chainlink/contracts@1.4.0/src/v0.8/vendor/openzeppelin-solidity/v4.8.3/contracts/token/ERC20/utils/SafeERC20.sol\":3804:3827  bytes memory returndata */\n      0x00\n        /* \"@chainlink/contracts@1.4.0/src/v0.8/vendor/openzeppelin-solidity/v4.8.3/contracts/token/ERC20/utils/SafeERC20.sol\":3830:3899  address(token).functionCall(data, \"SafeERC20: low-level call failed\") */\n      tag_182\n        /* \"@chainlink/contracts@1.4.0/src/v0.8/vendor/openzeppelin-solidity/v4.8.3/contracts/token/ERC20/utils/SafeERC20.sol\":3858:3862  data */\n      dup3\n        /* \"@chainlink/contracts@1.4.0/src/v0.8/vendor/openzeppelin-solidity/v4.8.3/contracts/token/ERC20/utils/SafeERC20.sol\":3830:3899  address(token).functionCall(data, \"SafeERC20: low-level call failed\") */\n      mload(0x40)\n      dup1\n      0x40\n      add\n      0x40\n      mstore\n      dup1\n      0x20\n      dup2\n      mstore\n      0x20\n      add\n      0x5361666545524332303a206c6f772d6c6576656c2063616c6c206661696c6564\n      dup2\n      mstore\n      pop\n        /* \"@chainlink/contracts@1.4.0/src/v0.8/vendor/openzeppelin-solidity/v4.8.3/contracts/token/ERC20/utils/SafeERC20.sol\":3838:3843  token */\n      dup6\n        /* \"@chainlink/contracts@1.4.0/src/v0.8/vendor/openzeppelin-solidity/v4.8.3/contracts/token/ERC20/utils/SafeERC20.sol\":3830:3857  address(token).functionCall */\n      0xffffffffffffffffffffffffffffffffffffffff\n      and\n      tag_183\n      swap1\n        /* \"@chainlink/contracts@1.4.0/src/v0.8/vendor/openzeppelin-solidity/v4.8.3/contracts/token/ERC20/utils/SafeERC20.sol\":3830:3899  address(token).functionCall(data, \"SafeERC20: low-level call failed\") */\n      swap3\n      swap2\n      swap1\n      0xffffffff\n      and\n      jump\t// in\n    tag_182:\n        /* \"@chainlink/contracts@1.4.0/src/v0.8/vendor/openzeppelin-solidity/v4.8.3/contracts/token/ERC20/utils/SafeERC20.sol\":3804:3899  bytes memory returndata = address(token).functionCall(data, \"SafeERC20: low-level call failed\") */\n      swap1\n      pop\n        /* \"@chainlink/contracts@1.4.0/src/v0.8/vendor/openzeppelin-solidity/v4.8.3/contracts/token/ERC20/utils/SafeERC20.sol\":3929:3930  0 */\n      0x00\n        /* \"@chainlink/contracts@1.4.0/src/v0.8/vendor/openzeppelin-solidity/v4.8.3/contracts/token/ERC20/utils/SafeERC20.sol\":3909:3919  returndata */\n      dup2\n        /* \"@chainlink/contracts@1.4.0/src/v0.8/vendor/openzeppelin-solidity/v4.8.3/contracts/token/ERC20/utils/SafeERC20.sol\":3909:3926  returndata.length */\n      mload\n        /* \"@chainlink/contracts@1.4.0/src/v0.8/vendor/openzeppelin-solidity/v4.8.3/contracts/token/ERC20/utils/SafeERC20.sol\":3909:3930  returndata.length > 0 */\n      gt\n        /* \"@chainlink/contracts@1.4.0/src/v0.8/vendor/openzeppelin-solidity/v4.8.3/contracts/token/ERC20/utils/SafeERC20.sol\":3905:4065  if (returndata.length > 0) {... */\n      iszero\n      tag_184\n      jumpi\n        /* \"@chainlink/contracts@1.4.0/src/v0.8/vendor/openzeppelin-solidity/v4.8.3/contracts/token/ERC20/utils/SafeERC20.sol\":3992:4002  returndata */\n      dup1\n        /* \"@chainlink/contracts@1.4.0/src/v0.8/vendor/openzeppelin-solidity/v4.8.3/contracts/token/ERC20/utils/SafeERC20.sol\":3981:4011  abi.decode(returndata, (bool)) */\n      dup1\n      0x20\n      add\n      swap1\n      mload\n      dup2\n      add\n      swap1\n      tag_185\n      swap2\n      swap1\n      tag_128\n      jump\t// in\n    tag_185:\n        /* \"@chainlink/contracts@1.4.0/src/v0.8/vendor/openzeppelin-solidity/v4.8.3/contracts/token/ERC20/utils/SafeERC20.sol\":3973:4058  require(abi.decode(returndata, (bool)), \"SafeERC20: ERC20 operation did not succeed\") */\n      tag_186\n      jumpi\n      mload(0x40)\n      0x08c379a000000000000000000000000000000000000000000000000000000000\n      dup2\n      mstore\n      0x04\n      add\n      tag_187\n      swap1\n      tag_188\n      jump\t// in\n    tag_187:\n      mload(0x40)\n      dup1\n      swap2\n      sub\n      swap1\n      revert\n    tag_186:\n        /* \"@chainlink/contracts@1.4.0/src/v0.8/vendor/openzeppelin-solidity/v4.8.3/contracts/token/ERC20/utils/SafeERC20.sol\":3905:4065  if (returndata.length > 0) {... */\n    tag_184:\n        /* \"@chainlink/contracts@1.4.0/src/v0.8/vendor/openzeppelin-solidity/v4.8.3/contracts/token/ERC20/utils/SafeERC20.sol\":3471:4069  {... */\n      pop\n        /* \"@chainlink/contracts@1.4.0/src/v0.8/vendor/openzeppelin-solidity/v4.8.3/contracts/token/ERC20/utils/SafeERC20.sol\":3401:4069  function _callOptionalReturn(IERC20 token, bytes memory data) private {... */\n      pop\n      pop\n      jump\t// out\n        /* \"@chainlink/contracts@1.4.0/src/v0.8/vendor/openzeppelin-solidity/v4.8.3/contracts/utils/Address.sol\":3695:3882  function functionCall(address target, bytes memory data, string memory errorMessage) internal returns (bytes memory) {... */\n    tag_183:\n        /* \"@chainlink/contracts@1.4.0/src/v0.8/vendor/openzeppelin-solidity/v4.8.3/contracts/utils/Address.sol\":3798:3810  bytes memory */\n      0x60\n        /* \"@chainlink/contracts@1.4.0/src/v0.8/vendor/openzeppelin-solidity/v4.8.3/contracts/utils/Address.sol\":3825:3877  functionCallWithValue(target, data, 0, errorMessage) */\n      tag_190\n        /* \"@chainlink/contracts@1.4.0/src/v0.8/vendor/openzeppelin-solidity/v4.8.3/contracts/utils/Address.sol\":3847:3853  target */\n      dup5\n        /* \"@chainlink/contracts@1.4.0/src/v0.8/vendor/openzeppelin-solidity/v4.8.3/contracts/utils/Address.sol\":3855:3859  data */\n      dup5\n        /* \"@chainlink/contracts@1.4.0/src/v0.8/vendor/openzeppelin-solidity/v4.8.3/contracts/utils/Address.sol\":3861:3862  0 */\n      0x00\n        /* \"@chainlink/contracts@1.4.0/src/v0.8/vendor/openzeppelin-solidity/v4.8.3/contracts/utils/Address.sol\":3864:3876  errorMessage */\n      dup6\n        /* \"@chainlink/contracts@1.4.0/src/v0.8/vendor/openzeppelin-solidity/v4.8.3/contracts/utils/Address.sol\":3825:3846  functionCallWithValue */\n      tag_191\n        /* \"@chainlink/contracts@1.4.0/src/v0.8/vendor/openzeppelin-solidity/v4.8.3/contracts/utils/Address.sol\":3825:3877  functionCallWithValue(target, data, 0, errorMessage) */\n      jump\t// in\n    tag_190:\n        /* \"@chainlink/contracts@1.4.0/src/v0.8/vendor/openzeppelin-solidity/v4.8.3/contracts/utils/Address.sol\":3818:3877  return functionCallWithValue(target, data, 0, errorMessage) */\n      swap1\n      pop\n        /* \"@chainlink/contracts@1.4.0/src/v0.8/vendor/openzeppelin-solidity/v4.8.3/contracts/utils/Address.sol\":3695:3882  function functionCall(address target, bytes memory data, string memory errorMessage) internal returns (bytes memory) {... */\n      swap4\n      swap3\n      pop\n      pop\n      pop\n      jump\t// out\n        /* \"@chainlink/contracts@1.4.0/src/v0.8/vendor/openzeppelin-solidity/v4.8.3/contracts/utils/Address.sol\":4672:5086  function functionCallWithValue(... */\n    tag_191:\n        /* \"@chainlink/contracts@1.4.0/src/v0.8/vendor/openzeppelin-solidity/v4.8.3/contracts/utils/Address.sol\":4819:4831  bytes memory */\n      0x60\n        /* \"@chainlink/contracts@1.4.0/src/v0.8/vendor/openzeppelin-solidity/v4.8.3/contracts/utils/Address.sol\":4872:4877  value */\n      dup3\n        /* \"@chainlink/contracts@1.4.0/src/v0.8/vendor/openzeppelin-solidity/v4.8.3/contracts/utils/Address.sol\":4847:4868  address(this).balance */\n      selfbalance\n        /* \"@chainlink/contracts@1.4.0/src/v0.8/vendor/openzeppelin-solidity/v4.8.3/contracts/utils/Address.sol\":4847:4877  address(this).balance >= value */\n      lt\n      iszero\n        /* \"@chainlink/contracts@1.4.0/src/v0.8/vendor/openzeppelin-solidity/v4.8.3/contracts/utils/Address.sol\":4839:4920  require(address(this).balance >= value, \"Address: insufficient balance for call\") */\n      tag_193\n      jumpi\n      mload(0x40)\n      0x08c379a000000000000000000000000000000000000000000000000000000000\n      dup2\n      mstore\n      0x04\n      add\n      tag_194\n      swap1\n      tag_195\n      jump\t// in\n    tag_194:\n      mload(0x40)\n      dup1\n      swap2\n      sub\n      swap1\n      revert\n    tag_193:\n        /* \"@chainlink/contracts@1.4.0/src/v0.8/vendor/openzeppelin-solidity/v4.8.3/contracts/utils/Address.sol\":4927:4939  bool success */\n      0x00\n        /* \"@chainlink/contracts@1.4.0/src/v0.8/vendor/openzeppelin-solidity/v4.8.3/contracts/utils/Address.sol\":4941:4964  bytes memory returndata */\n      dup1\n        /* \"@chainlink/contracts@1.4.0/src/v0.8/vendor/openzeppelin-solidity/v4.8.3/contracts/utils/Address.sol\":4968:4974  target */\n      dup7\n        /* \"@chainlink/contracts@1.4.0/src/v0.8/vendor/openzeppelin-solidity/v4.8.3/contracts/utils/Address.sol\":4968:4979  target.call */\n      0xffffffffffffffffffffffffffffffffffffffff\n      and\n        /* \"@chainlink/contracts@1.4.0/src/v0.8/vendor/openzeppelin-solidity/v4.8.3/contracts/utils/Address.sol\":4987:4992  value */\n      dup6\n        /* \"@chainlink/contracts@1.4.0/src/v0.8/vendor/openzeppelin-solidity/v4.8.3/contracts/utils/Address.sol\":4994:4998  data */\n      dup8\n        /* \"@chainlink/contracts@1.4.0/src/v0.8/vendor/openzeppelin-solidity/v4.8.3/contracts/utils/Address.sol\":4968:4999  target.call{value: value}(data) */\n      mload(0x40)\n      tag_196\n      swap2\n      swap1\n      tag_197\n      jump\t// in\n    tag_196:\n      0x00\n      mload(0x40)\n      dup1\n      dup4\n      sub\n      dup2\n      dup6\n      dup8\n      gas\n      call\n      swap3\n      pop\n      pop\n      pop\n      returndatasize\n      dup1\n      0x00\n      dup2\n      eq\n      tag_200\n      jumpi\n      mload(0x40)\n      swap2\n      pop\n      and(add(returndatasize, 0x3f), not(0x1f))\n      dup3\n      add\n      0x40\n      mstore\n      returndatasize\n      dup3\n      mstore\n      returndatasize\n      0x00\n      0x20\n      dup5\n      add\n      returndatacopy\n      jump(tag_199)\n    tag_200:\n      0x60\n      swap2\n      pop\n    tag_199:\n      pop\n        /* \"@chainlink/contracts@1.4.0/src/v0.8/vendor/openzeppelin-solidity/v4.8.3/contracts/utils/Address.sol\":4926:4999  (bool success, bytes memory returndata) = target.call{value: value}(data) */\n      swap2\n      pop\n      swap2\n      pop\n        /* \"@chainlink/contracts@1.4.0/src/v0.8/vendor/openzeppelin-solidity/v4.8.3/contracts/utils/Address.sol\":5012:5081  verifyCallResultFromTarget(target, success, returndata, errorMessage) */\n      tag_201\n        /* \"@chainlink/contracts@1.4.0/src/v0.8/vendor/openzeppelin-solidity/v4.8.3/contracts/utils/Address.sol\":5039:5045  target */\n      dup8\n        /* \"@chainlink/contracts@1.4.0/src/v0.8/vendor/openzeppelin-solidity/v4.8.3/contracts/utils/Address.sol\":5047:5054  success */\n      dup4\n        /* \"@chainlink/contracts@1.4.0/src/v0.8/vendor/openzeppelin-solidity/v4.8.3/contracts/utils/Address.sol\":5056:5066  returndata */\n      dup4\n        /* \"@chainlink/contracts@1.4.0/src/v0.8/vendor/openzeppelin-solidity/v4.8.3/contracts/utils/Address.sol\":5068:5080  errorMessage */\n      dup8\n        /* \"@chainlink/contracts@1.4.0/src/v0.8/vendor/openzeppelin-solidity/v4.8.3/contracts/utils/Address.sol\":5012:5038  verifyCallResultFromTarget */\n      tag_202\n        /* \"@chainlink/contracts@1.4.0/src/v0.8/vendor/openzeppelin-solidity/v4.8.3/contracts/utils/Address.sol\":5012:5081  verifyCallResultFromTarget(target, success, returndata, errorMessage) */\n      jump\t// in\n    tag_201:\n        /* \"@chainlink/contracts@1.4.0/src/v0.8/vendor/openzeppelin-solidity/v4.8.3/contracts/utils/Address.sol\":5005:5081  return verifyCallResultFromTarget(target, success, returndata, errorMessage) */\n      swap3\n      pop\n      pop\n      pop\n        /* \"@chainlink/contracts@1.4.0/src/v0.8/vendor/openzeppelin-solidity/v4.8.3/contracts/utils/Address.sol\":4672:5086  function functionCallWithValue(... */\n      swap5\n      swap4\n      pop\n      pop\n      pop\n      pop\n      jump\t// out\n        /* \"@chainlink/contracts@1.4.0/src/v0.8/vendor/openzeppelin-solidity/v4.8.3/contracts/utils/Address.sol\":7016:7564  function verifyCallResultFromTarget(... */\n    tag_202:\n        /* \"@chainlink/contracts@1.4.0/src/v0.8/vendor/openzeppelin-solidity/v4.8.3/contracts/utils/Address.sol\":7178:7190  bytes memory */\n      0x60\n        /* \"@chainlink/contracts@1.4.0/src/v0.8/vendor/openzeppelin-solidity/v4.8.3/contracts/utils/Address.sol\":7202:7209  success */\n      dup4\n        /* \"@chainlink/contracts@1.4.0/src/v0.8/vendor/openzeppelin-solidity/v4.8.3/contracts/utils/Address.sol\":7198:7560  if (success) {... */\n      iszero\n      tag_204\n      jumpi\n        /* \"@chainlink/contracts@1.4.0/src/v0.8/vendor/openzeppelin-solidity/v4.8.3/contracts/utils/Address.sol\":7244:7245  0 */\n      0x00\n        /* \"@chainlink/contracts@1.4.0/src/v0.8/vendor/openzeppelin-solidity/v4.8.3/contracts/utils/Address.sol\":7223:7233  returndata */\n      dup4\n        /* \"@chainlink/contracts@1.4.0/src/v0.8/vendor/openzeppelin-solidity/v4.8.3/contracts/utils/Address.sol\":7223:7240  returndata.length */\n      mload\n        /* \"@chainlink/contracts@1.4.0/src/v0.8/vendor/openzeppelin-solidity/v4.8.3/contracts/utils/Address.sol\":7223:7245  returndata.length == 0 */\n      sub\n        /* \"@chainlink/contracts@1.4.0/src/v0.8/vendor/openzeppelin-solidity/v4.8.3/contracts/utils/Address.sol\":7219:7475  if (returndata.length == 0) {... */\n      tag_205\n      jumpi\n        /* \"@chainlink/contracts@1.4.0/src/v0.8/vendor/openzeppelin-solidity/v4.8.3/contracts/utils/Address.sol\":7414:7432  isContract(target) */\n      tag_206\n        /* \"@chainlink/contracts@1.4.0/src/v0.8/vendor/openzeppelin-solidity/v4.8.3/contracts/utils/Address.sol\":7425:7431  target */\n      dup6\n        /* \"@chainlink/contracts@1.4.0/src/v0.8/vendor/openzeppelin-solidity/v4.8.3/contracts/utils/Address.sol\":7414:7424  isContract */\n      tag_207\n        /* \"@chainlink/contracts@1.4.0/src/v0.8/vendor/openzeppelin-solidity/v4.8.3/contracts/utils/Address.sol\":7414:7432  isContract(target) */\n      jump\t// in\n    tag_206:\n        /* \"@chainlink/contracts@1.4.0/src/v0.8/vendor/openzeppelin-solidity/v4.8.3/contracts/utils/Address.sol\":7406:7466  require(isContract(target), \"Address: call to non-contract\") */\n      tag_208\n      jumpi\n      mload(0x40)\n      0x08c379a000000000000000000000000000000000000000000000000000000000\n      dup2\n      mstore\n      0x04\n      add\n      tag_209\n      swap1\n      tag_210\n      jump\t// in\n    tag_209:\n      mload(0x40)\n      dup1\n      swap2\n      sub\n      swap1\n      revert\n    tag_208:\n        /* \"@chainlink/contracts@1.4.0/src/v0.8/vendor/openzeppelin-solidity/v4.8.3/contracts/utils/Address.sol\":7219:7475  if (returndata.length == 0) {... */\n    tag_205:\n        /* \"@chainlink/contracts@1.4.0/src/v0.8/vendor/openzeppelin-solidity/v4.8.3/contracts/utils/Address.sol\":7489:7499  returndata */\n      dup3\n        /* \"@chainlink/contracts@1.4.0/src/v0.8/vendor/openzeppelin-solidity/v4.8.3/contracts/utils/Address.sol\":7482:7499  return returndata */\n      swap1\n      pop\n      jump(tag_203)\n        /* \"@chainlink/contracts@1.4.0/src/v0.8/vendor/openzeppelin-solidity/v4.8.3/contracts/utils/Address.sol\":7198:7560  if (success) {... */\n    tag_204:\n        /* \"@chainlink/contracts@1.4.0/src/v0.8/vendor/openzeppelin-solidity/v4.8.3/contracts/utils/Address.sol\":7520:7553  _revert(returndata, errorMessage) */\n      tag_212\n        /* \"@chainlink/contracts@1.4.0/src/v0.8/vendor/openzeppelin-solidity/v4.8.3/contracts/utils/Address.sol\":7528:7538  returndata */\n      dup4\n        /* \"@chainlink/contracts@1.4.0/src/v0.8/vendor/openzeppelin-solidity/v4.8.3/contracts/utils/Address.sol\":7540:7552  errorMessage */\n      dup4\n        /* \"@chainlink/contracts@1.4.0/src/v0.8/vendor/openzeppelin-solidity/v4.8.3/contracts/utils/Address.sol\":7520:7527  _revert */\n      tag_213\n        /* \"@chainlink/contracts@1.4.0/src/v0.8/vendor/openzeppelin-solidity/v4.8.3/contracts/utils/Address.sol\":7520:7553  _revert(returndata, errorMessage) */\n      jump\t// in\n    tag_212:\n        /* \"@chainlink/contracts@1.4.0/src/v0.8/vendor/openzeppelin-solidity/v4.8.3/contracts/utils/Address.sol\":7016:7564  function verifyCallResultFromTarget(... */\n    tag_203:\n      swap5\n      swap4\n      pop\n      pop\n      pop\n      pop\n      jump\t// out\n        /* \"@chainlink/contracts@1.4.0/src/v0.8/vendor/openzeppelin-solidity/v4.8.3/contracts/utils/Address.sol\":1121:1423  function isContract(address account) internal view returns (bool) {... */\n    tag_207:\n        /* \"@chainlink/contracts@1.4.0/src/v0.8/vendor/openzeppelin-solidity/v4.8.3/contracts/utils/Address.sol\":1181:1185  bool */\n      0x00\n        /* \"@chainlink/contracts@1.4.0/src/v0.8/vendor/openzeppelin-solidity/v4.8.3/contracts/utils/Address.sol\":1417:1418  0 */\n      dup1\n        /* \"@chainlink/contracts@1.4.0/src/v0.8/vendor/openzeppelin-solidity/v4.8.3/contracts/utils/Address.sol\":1395:1402  account */\n      dup3\n        /* \"@chainlink/contracts@1.4.0/src/v0.8/vendor/openzeppelin-solidity/v4.8.3/contracts/utils/Address.sol\":1395:1414  account.code.length */\n      0xffffffffffffffffffffffffffffffffffffffff\n      and\n      extcodesize\n        /* \"@chainlink/contracts@1.4.0/src/v0.8/vendor/openzeppelin-solidity/v4.8.3/contracts/utils/Address.sol\":1395:1418  account.code.length > 0 */\n      gt\n        /* \"@chainlink/contracts@1.4.0/src/v0.8/vendor/openzeppelin-solidity/v4.8.3/contracts/utils/Address.sol\":1388:1418  return account.code.length > 0 */\n      swap1\n      pop\n        /* \"@chainlink/contracts@1.4.0/src/v0.8/vendor/openzeppelin-solidity/v4.8.3/contracts/utils/Address.sol\":1121:1423  function isContract(address account) internal view returns (bool) {... */\n      swap2\n      swap1\n      pop\n      jump\t// out\n        /* \"@chainlink/contracts@1.4.0/src/v0.8/vendor/openzeppelin-solidity/v4.8.3/contracts/utils/Address.sol\":8030:8506  function _revert(bytes memory returndata, string memory errorMessage) private pure {... */\n    tag_213:\n        /* \"@chainlink/contracts@1.4.0/src/v0.8/vendor/openzeppelin-solidity/v4.8.3/contracts/utils/Address.sol\":8201:8202  0 */\n      0x00\n        /* \"@chainlink/contracts@1.4.0/src/v0.8/vendor/openzeppelin-solidity/v4.8.3/contracts/utils/Address.sol\":8181:8191  returndata */\n      dup3\n        /* \"@chainlink/contracts@1.4.0/src/v0.8/vendor/openzeppelin-solidity/v4.8.3/contracts/utils/Address.sol\":8181:8198  returndata.length */\n      mload\n        /* \"@chainlink/contracts@1.4.0/src/v0.8/vendor/openzeppelin-solidity/v4.8.3/contracts/utils/Address.sol\":8181:8202  returndata.length > 0 */\n      gt\n        /* \"@chainlink/contracts@1.4.0/src/v0.8/vendor/openzeppelin-solidity/v4.8.3/contracts/utils/Address.sol\":8177:8502  if (returndata.length > 0) {... */\n      iszero\n      tag_216\n      jumpi\n        /* \"@chainlink/contracts@1.4.0/src/v0.8/vendor/openzeppelin-solidity/v4.8.3/contracts/utils/Address.sol\":8383:8393  returndata */\n      dup2\n        /* \"@chainlink/contracts@1.4.0/src/v0.8/vendor/openzeppelin-solidity/v4.8.3/contracts/utils/Address.sol\":8377:8394  mload(returndata) */\n      mload\n        /* \"@chainlink/contracts@1.4.0/src/v0.8/vendor/openzeppelin-solidity/v4.8.3/contracts/utils/Address.sol\":8431:8446  returndata_size */\n      dup1\n        /* \"@chainlink/contracts@1.4.0/src/v0.8/vendor/openzeppelin-solidity/v4.8.3/contracts/utils/Address.sol\":8418:8428  returndata */\n      dup4\n        /* \"@chainlink/contracts@1.4.0/src/v0.8/vendor/openzeppelin-solidity/v4.8.3/contracts/utils/Address.sol\":8414:8416  32 */\n      0x20\n        /* \"@chainlink/contracts@1.4.0/src/v0.8/vendor/openzeppelin-solidity/v4.8.3/contracts/utils/Address.sol\":8410:8429  add(32, returndata) */\n      add\n        /* \"@chainlink/contracts@1.4.0/src/v0.8/vendor/openzeppelin-solidity/v4.8.3/contracts/utils/Address.sol\":8403:8447  revert(add(32, returndata), returndata_size) */\n      revert\n        /* \"@chainlink/contracts@1.4.0/src/v0.8/vendor/openzeppelin-solidity/v4.8.3/contracts/utils/Address.sol\":8177:8502  if (returndata.length > 0) {... */\n    tag_216:\n        /* \"@chainlink/contracts@1.4.0/src/v0.8/vendor/openzeppelin-solidity/v4.8.3/contracts/utils/Address.sol\":8482:8494  errorMessage */\n      dup1\n        /* \"@chainlink/contracts@1.4.0/src/v0.8/vendor/openzeppelin-solidity/v4.8.3/contracts/utils/Address.sol\":8475:8495  revert(errorMessage) */\n      mload(0x40)\n      0x08c379a000000000000000000000000000000000000000000000000000000000\n      dup2\n      mstore\n      0x04\n      add\n      tag_218\n      swap2\n      swap1\n      tag_219\n      jump\t// in\n    tag_218:\n      mload(0x40)\n      dup1\n      swap2\n      sub\n      swap1\n      revert\n    tag_99:\n      mload(0x40)\n      dup1\n      0x40\n      add\n      0x40\n      mstore\n      dup1\n      and(0xffffffffffffffffffffffffffffffffffffffff, 0x00)\n      dup2\n      mstore\n      0x20\n      add\n      0x00\n      dup2\n      mstore\n      pop\n      swap1\n      jump\t// out\n        /* \"#utility.yul\":88:205   */\n    tag_221:\n        /* \"#utility.yul\":197:198   */\n      0x00\n        /* \"#utility.yul\":194:195   */\n      dup1\n        /* \"#utility.yul\":187:199   */\n      revert\n        /* \"#utility.yul\":334:460   */\n    tag_223:\n        /* \"#utility.yul\":371:378   */\n      0x00\n        /* \"#utility.yul\":411:453   */\n      0xffffffffffffffffffffffffffffffffffffffff\n        /* \"#utility.yul\":404:409   */\n      dup3\n        /* \"#utility.yul\":400:454   */\n      and\n        /* \"#utility.yul\":389:454   */\n      swap1\n      pop\n        /* \"#utility.yul\":334:460   */\n      swap2\n      swap1\n      pop\n      jump\t// out\n        /* \"#utility.yul\":466:562   */\n    tag_224:\n        /* \"#utility.yul\":503:510   */\n      0x00\n        /* \"#utility.yul\":532:556   */\n      tag_284\n        /* \"#utility.yul\":550:555   */\n      dup3\n        /* \"#utility.yul\":532:556   */\n      tag_223\n      jump\t// in\n    tag_284:\n        /* \"#utility.yul\":521:556   */\n      swap1\n      pop\n        /* \"#utility.yul\":466:562   */\n      swap2\n      swap1\n      pop\n      jump\t// out\n        /* \"#utility.yul\":568:690   */\n    tag_225:\n        /* \"#utility.yul\":641:665   */\n      tag_286\n        /* \"#utility.yul\":659:664   */\n      dup2\n        /* \"#utility.yul\":641:665   */\n      tag_224\n      jump\t// in\n    tag_286:\n        /* \"#utility.yul\":634:639   */\n      dup2\n        /* \"#utility.yul\":631:666   */\n      eq\n        /* \"#utility.yul\":621:684   */\n      tag_287\n      jumpi\n        /* \"#utility.yul\":680:681   */\n      0x00\n        /* \"#utility.yul\":677:678   */\n      dup1\n        /* \"#utility.yul\":670:682   */\n      revert\n        /* \"#utility.yul\":621:684   */\n    tag_287:\n        /* \"#utility.yul\":568:690   */\n      pop\n      jump\t// out\n        /* \"#utility.yul\":696:835   */\n    tag_226:\n        /* \"#utility.yul\":742:747   */\n      0x00\n        /* \"#utility.yul\":780:786   */\n      dup2\n        /* \"#utility.yul\":767:787   */\n      calldataload\n        /* \"#utility.yul\":758:787   */\n      swap1\n      pop\n        /* \"#utility.yul\":796:829   */\n      tag_289\n        /* \"#utility.yul\":823:828   */\n      dup2\n        /* \"#utility.yul\":796:829   */\n      tag_225\n      jump\t// in\n    tag_289:\n        /* \"#utility.yul\":696:835   */\n      swap3\n      swap2\n      pop\n      pop\n      jump\t// out\n        /* \"#utility.yul\":841:1170   */\n    tag_17:\n        /* \"#utility.yul\":900:906   */\n      0x00\n        /* \"#utility.yul\":949:951   */\n      0x20\n        /* \"#utility.yul\":937:946   */\n      dup3\n        /* \"#utility.yul\":928:935   */\n      dup5\n        /* \"#utility.yul\":924:947   */\n      sub\n        /* \"#utility.yul\":920:952   */\n      slt\n        /* \"#utility.yul\":917:1036   */\n      iszero\n      tag_291\n      jumpi\n        /* \"#utility.yul\":955:1034   */\n      tag_292\n      tag_221\n      jump\t// in\n    tag_292:\n        /* \"#utility.yul\":917:1036   */\n    tag_291:\n        /* \"#utility.yul\":1075:1076   */\n      0x00\n        /* \"#utility.yul\":1100:1153   */\n      tag_293\n        /* \"#utility.yul\":1145:1152   */\n      dup5\n        /* \"#utility.yul\":1136:1142   */\n      dup3\n        /* \"#utility.yul\":1125:1134   */\n      dup6\n        /* \"#utility.yul\":1121:1143   */\n      add\n        /* \"#utility.yul\":1100:1153   */\n      tag_226\n      jump\t// in\n    tag_293:\n        /* \"#utility.yul\":1090:1153   */\n      swap2\n      pop\n        /* \"#utility.yul\":1046:1163   */\n      pop\n        /* \"#utility.yul\":841:1170   */\n      swap3\n      swap2\n      pop\n      pop\n      jump\t// out\n        /* \"#utility.yul\":1176:1277   */\n    tag_227:\n        /* \"#utility.yul\":1212:1219   */\n      0x00\n        /* \"#utility.yul\":1252:1270   */\n      0xffffffffffffffff\n        /* \"#utility.yul\":1245:1250   */\n      dup3\n        /* \"#utility.yul\":1241:1271   */\n      and\n        /* \"#utility.yul\":1230:1271   */\n      swap1\n      pop\n        /* \"#utility.yul\":1176:1277   */\n      swap2\n      swap1\n      pop\n      jump\t// out\n        /* \"#utility.yul\":1283:1403   */\n    tag_228:\n        /* \"#utility.yul\":1355:1378   */\n      tag_296\n        /* \"#utility.yul\":1372:1377   */\n      dup2\n        /* \"#utility.yul\":1355:1378   */\n      tag_227\n      jump\t// in\n    tag_296:\n        /* \"#utility.yul\":1348:1353   */\n      dup2\n        /* \"#utility.yul\":1345:1379   */\n      eq\n        /* \"#utility.yul\":1335:1397   */\n      tag_297\n      jumpi\n        /* \"#utility.yul\":1393:1394   */\n      0x00\n        /* \"#utility.yul\":1390:1391   */\n      dup1\n        /* \"#utility.yul\":1383:1395   */\n      revert\n        /* \"#utility.yul\":1335:1397   */\n    tag_297:\n        /* \"#utility.yul\":1283:1403   */\n      pop\n      jump\t// out\n        /* \"#utility.yul\":1409:1546   */\n    tag_229:\n        /* \"#utility.yul\":1454:1459   */\n      0x00\n        /* \"#utility.yul\":1492:1498   */\n      dup2\n        /* \"#utility.yul\":1479:1499   */\n      calldataload\n        /* \"#utility.yul\":1470:1499   */\n      swap1\n      pop\n        /* \"#utility.yul\":1508:1540   */\n      tag_299\n        /* \"#utility.yul\":1534:1539   */\n      dup2\n        /* \"#utility.yul\":1508:1540   */\n      tag_228\n      jump\t// in\n    tag_299:\n        /* \"#utility.yul\":1409:1546   */\n      swap3\n      swap2\n      pop\n      pop\n      jump\t// out\n        /* \"#utility.yul\":1552:2024   */\n    tag_21:\n        /* \"#utility.yul\":1619:1625   */\n      0x00\n        /* \"#utility.yul\":1627:1633   */\n      dup1\n        /* \"#utility.yul\":1676:1678   */\n      0x40\n        /* \"#utility.yul\":1664:1673   */\n      dup4\n        /* \"#utility.yul\":1655:1662   */\n      dup6\n        /* \"#utility.yul\":1651:1674   */\n      sub\n        /* \"#utility.yul\":1647:1679   */\n      slt\n        /* \"#utility.yul\":1644:1763   */\n      iszero\n      tag_301\n      jumpi\n        /* \"#utility.yul\":1682:1761   */\n      tag_302\n      tag_221\n      jump\t// in\n    tag_302:\n        /* \"#utility.yul\":1644:1763   */\n    tag_301:\n        /* \"#utility.yul\":1802:1803   */\n      0x00\n        /* \"#utility.yul\":1827:1879   */\n      tag_303\n        /* \"#utility.yul\":1871:1878   */\n      dup6\n        /* \"#utility.yul\":1862:1868   */\n      dup3\n        /* \"#utility.yul\":1851:1860   */\n      dup7\n        /* \"#utility.yul\":1847:1869   */\n      add\n        /* \"#utility.yul\":1827:1879   */\n      tag_229\n      jump\t// in\n    tag_303:\n        /* \"#utility.yul\":1817:1879   */\n      swap3\n      pop\n        /* \"#utility.yul\":1773:1889   */\n      pop\n        /* \"#utility.yul\":1928:1930   */\n      0x20\n        /* \"#utility.yul\":1954:2007   */\n      tag_304\n        /* \"#utility.yul\":1999:2006   */\n      dup6\n        /* \"#utility.yul\":1990:1996   */\n      dup3\n        /* \"#utility.yul\":1979:1988   */\n      dup7\n        /* \"#utility.yul\":1975:1997   */\n      add\n        /* \"#utility.yul\":1954:2007   */\n      tag_226\n      jump\t// in\n    tag_304:\n        /* \"#utility.yul\":1944:2007   */\n      swap2\n      pop\n        /* \"#utility.yul\":1899:2017   */\n      pop\n        /* \"#utility.yul\":1552:2024   */\n      swap3\n      pop\n      swap3\n      swap1\n      pop\n      jump\t// out\n        /* \"#utility.yul\":2030:2107   */\n    tag_230:\n        /* \"#utility.yul\":2067:2074   */\n      0x00\n        /* \"#utility.yul\":2096:2101   */\n      dup2\n        /* \"#utility.yul\":2085:2101   */\n      swap1\n      pop\n        /* \"#utility.yul\":2030:2107   */\n      swap2\n      swap1\n      pop\n      jump\t// out\n        /* \"#utility.yul\":2113:2235   */\n    tag_231:\n        /* \"#utility.yul\":2186:2210   */\n      tag_307\n        /* \"#utility.yul\":2204:2209   */\n      dup2\n        /* \"#utility.yul\":2186:2210   */\n      tag_230\n      jump\t// in\n    tag_307:\n        /* \"#utility.yul\":2179:2184   */\n      dup2\n        /* \"#utility.yul\":2176:2211   */\n      eq\n        /* \"#utility.yul\":2166:2229   */\n      tag_308\n      jumpi\n        /* \"#utility.yul\":2225:2226   */\n      0x00\n        /* \"#utility.yul\":2222:2223   */\n      dup1\n        /* \"#utility.yul\":2215:2227   */\n      revert\n        /* \"#utility.yul\":2166:2229   */\n    tag_308:\n        /* \"#utility.yul\":2113:2235   */\n      pop\n      jump\t// out\n        /* \"#utility.yul\":2241:2380   */\n    tag_232:\n        /* \"#utility.yul\":2287:2292   */\n      0x00\n        /* \"#utility.yul\":2325:2331   */\n      dup2\n        /* \"#utility.yul\":2312:2332   */\n      calldataload\n        /* \"#utility.yul\":2303:2332   */\n      swap1\n      pop\n        /* \"#utility.yul\":2341:2374   */\n      tag_310\n        /* \"#utility.yul\":2368:2373   */\n      dup2\n        /* \"#utility.yul\":2341:2374   */\n      tag_231\n      jump\t// in\n    tag_310:\n        /* \"#utility.yul\":2241:2380   */\n      swap3\n      swap2\n      pop\n      pop\n      jump\t// out\n        /* \"#utility.yul\":2386:2858   */\n    tag_25:\n        /* \"#utility.yul\":2453:2459   */\n      0x00\n        /* \"#utility.yul\":2461:2467   */\n      dup1\n        /* \"#utility.yul\":2510:2512   */\n      0x40\n        /* \"#utility.yul\":2498:2507   */\n      dup4\n        /* \"#utility.yul\":2489:2496   */\n      dup6\n        /* \"#utility.yul\":2485:2508   */\n      sub\n        /* \"#utility.yul\":2481:2513   */\n      slt\n        /* \"#utility.yul\":2478:2597   */\n      iszero\n      tag_312\n      jumpi\n        /* \"#utility.yul\":2516:2595   */\n      tag_313\n      tag_221\n      jump\t// in\n    tag_313:\n        /* \"#utility.yul\":2478:2597   */\n    tag_312:\n        /* \"#utility.yul\":2636:2637   */\n      0x00\n        /* \"#utility.yul\":2661:2713   */\n      tag_314\n        /* \"#utility.yul\":2705:2712   */\n      dup6\n        /* \"#utility.yul\":2696:2702   */\n      dup3\n        /* \"#utility.yul\":2685:2694   */\n      dup7\n        /* \"#utility.yul\":2681:2703   */\n      add\n        /* \"#utility.yul\":2661:2713   */\n      tag_229\n      jump\t// in\n    tag_314:\n        /* \"#utility.yul\":2651:2713   */\n      swap3\n      pop\n        /* \"#utility.yul\":2607:2723   */\n      pop\n        /* \"#utility.yul\":2762:2764   */\n      0x20\n        /* \"#utility.yul\":2788:2841   */\n      tag_315\n        /* \"#utility.yul\":2833:2840   */\n      dup6\n        /* \"#utility.yul\":2824:2830   */\n      dup3\n        /* \"#utility.yul\":2813:2822   */\n      dup7\n        /* \"#utility.yul\":2809:2831   */\n      add\n        /* \"#utility.yul\":2788:2841   */\n      tag_232\n      jump\t// in\n    tag_315:\n        /* \"#utility.yul\":2778:2841   */\n      swap2\n      pop\n        /* \"#utility.yul\":2733:2851   */\n      pop\n        /* \"#utility.yul\":2386:2858   */\n      swap3\n      pop\n      swap3\n      swap1\n      pop\n      jump\t// out\n        /* \"#utility.yul\":2864:3191   */\n    tag_29:\n        /* \"#utility.yul\":2922:2928   */\n      0x00\n        /* \"#utility.yul\":2971:2973   */\n      0x20\n        /* \"#utility.yul\":2959:2968   */\n      dup3\n        /* \"#utility.yul\":2950:2957   */\n      dup5\n        /* \"#utility.yul\":2946:2969   */\n      sub\n        /* \"#utility.yul\":2942:2974   */\n      slt\n        /* \"#utility.yul\":2939:3058   */\n      iszero\n      tag_317\n      jumpi\n        /* \"#utility.yul\":2977:3056   */\n      tag_318\n      tag_221\n      jump\t// in\n    tag_318:\n        /* \"#utility.yul\":2939:3058   */\n    tag_317:\n        /* \"#utility.yul\":3097:3098   */\n      0x00\n        /* \"#utility.yul\":3122:3174   */\n      tag_319\n        /* \"#utility.yul\":3166:3173   */\n      dup5\n        /* \"#utility.yul\":3157:3163   */\n      dup3\n        /* \"#utility.yul\":3146:3155   */\n      dup6\n        /* \"#utility.yul\":3142:3164   */\n      add\n        /* \"#utility.yul\":3122:3174   */\n      tag_229\n      jump\t// in\n    tag_319:\n        /* \"#utility.yul\":3112:3174   */\n      swap2\n      pop\n        /* \"#utility.yul\":3068:3184   */\n      pop\n        /* \"#utility.yul\":2864:3191   */\n      swap3\n      swap2\n      pop\n      pop\n      jump\t// out\n        /* \"#utility.yul\":3197:3315   */\n    tag_233:\n        /* \"#utility.yul\":3284:3308   */\n      tag_321\n        /* \"#utility.yul\":3302:3307   */\n      dup2\n        /* \"#utility.yul\":3284:3308   */\n      tag_224\n      jump\t// in\n    tag_321:\n        /* \"#utility.yul\":3279:3282   */\n      dup3\n        /* \"#utility.yul\":3272:3309   */\n      mstore\n        /* \"#utility.yul\":3197:3315   */\n      pop\n      pop\n      jump\t// out\n        /* \"#utility.yul\":3321:3543   */\n    tag_32:\n        /* \"#utility.yul\":3414:3418   */\n      0x00\n        /* \"#utility.yul\":3452:3454   */\n      0x20\n        /* \"#utility.yul\":3441:3450   */\n      dup3\n        /* \"#utility.yul\":3437:3455   */\n      add\n        /* \"#utility.yul\":3429:3455   */\n      swap1\n      pop\n        /* \"#utility.yul\":3465:3536   */\n      tag_323\n        /* \"#utility.yul\":3533:3534   */\n      0x00\n        /* \"#utility.yul\":3522:3531   */\n      dup4\n        /* \"#utility.yul\":3518:3535   */\n      add\n        /* \"#utility.yul\":3509:3515   */\n      dup5\n        /* \"#utility.yul\":3465:3536   */\n      tag_233\n      jump\t// in\n    tag_323:\n        /* \"#utility.yul\":3321:3543   */\n      swap3\n      swap2\n      pop\n      pop\n      jump\t// out\n        /* \"#utility.yul\":3549:4166   */\n    tag_35:\n        /* \"#utility.yul\":3625:3631   */\n      0x00\n        /* \"#utility.yul\":3633:3639   */\n      dup1\n        /* \"#utility.yul\":3641:3647   */\n      0x00\n        /* \"#utility.yul\":3690:3692   */\n      0x60\n        /* \"#utility.yul\":3678:3687   */\n      dup5\n        /* \"#utility.yul\":3669:3676   */\n      dup7\n        /* \"#utility.yul\":3665:3688   */\n      sub\n        /* \"#utility.yul\":3661:3693   */\n      slt\n        /* \"#utility.yul\":3658:3777   */\n      iszero\n      tag_325\n      jumpi\n        /* \"#utility.yul\":3696:3775   */\n      tag_326\n      tag_221\n      jump\t// in\n    tag_326:\n        /* \"#utility.yul\":3658:3777   */\n    tag_325:\n        /* \"#utility.yul\":3816:3817   */\n      0x00\n        /* \"#utility.yul\":3841:3893   */\n      tag_327\n        /* \"#utility.yul\":3885:3892   */\n      dup7\n        /* \"#utility.yul\":3876:3882   */\n      dup3\n        /* \"#utility.yul\":3865:3874   */\n      dup8\n        /* \"#utility.yul\":3861:3883   */\n      add\n        /* \"#utility.yul\":3841:3893   */\n      tag_229\n      jump\t// in\n    tag_327:\n        /* \"#utility.yul\":3831:3893   */\n      swap4\n      pop\n        /* \"#utility.yul\":3787:3903   */\n      pop\n        /* \"#utility.yul\":3942:3944   */\n      0x20\n        /* \"#utility.yul\":3968:4021   */\n      tag_328\n        /* \"#utility.yul\":4013:4020   */\n      dup7\n        /* \"#utility.yul\":4004:4010   */\n      dup3\n        /* \"#utility.yul\":3993:4002   */\n      dup8\n        /* \"#utility.yul\":3989:4011   */\n      add\n        /* \"#utility.yul\":3968:4021   */\n      tag_226\n      jump\t// in\n    tag_328:\n        /* \"#utility.yul\":3958:4021   */\n      swap3\n      pop\n        /* \"#utility.yul\":3913:4031   */\n      pop\n        /* \"#utility.yul\":4070:4072   */\n      0x40\n        /* \"#utility.yul\":4096:4149   */\n      tag_329\n        /* \"#utility.yul\":4141:4148   */\n      dup7\n        /* \"#utility.yul\":4132:4138   */\n      dup3\n        /* \"#utility.yul\":4121:4130   */\n      dup8\n        /* \"#utility.yul\":4117:4139   */\n      add\n        /* \"#utility.yul\":4096:4149   */\n      tag_232\n      jump\t// in\n    tag_329:\n        /* \"#utility.yul\":4086:4149   */\n      swap2\n      pop\n        /* \"#utility.yul\":4041:4159   */\n      pop\n        /* \"#utility.yul\":3549:4166   */\n      swap3\n      pop\n      swap3\n      pop\n      swap3\n      jump\t// out\n        /* \"#utility.yul\":4172:4249   */\n    tag_234:\n        /* \"#utility.yul\":4209:4216   */\n      0x00\n        /* \"#utility.yul\":4238:4243   */\n      dup2\n        /* \"#utility.yul\":4227:4243   */\n      swap1\n      pop\n        /* \"#utility.yul\":4172:4249   */\n      swap2\n      swap1\n      pop\n      jump\t// out\n        /* \"#utility.yul\":4255:4373   */\n    tag_235:\n        /* \"#utility.yul\":4342:4366   */\n      tag_332\n        /* \"#utility.yul\":4360:4365   */\n      dup2\n        /* \"#utility.yul\":4342:4366   */\n      tag_234\n      jump\t// in\n    tag_332:\n        /* \"#utility.yul\":4337:4340   */\n      dup3\n        /* \"#utility.yul\":4330:4367   */\n      mstore\n        /* \"#utility.yul\":4255:4373   */\n      pop\n      pop\n      jump\t// out\n        /* \"#utility.yul\":4379:4601   */\n    tag_38:\n        /* \"#utility.yul\":4472:4476   */\n      0x00\n        /* \"#utility.yul\":4510:4512   */\n      0x20\n        /* \"#utility.yul\":4499:4508   */\n      dup3\n        /* \"#utility.yul\":4495:4513   */\n      add\n        /* \"#utility.yul\":4487:4513   */\n      swap1\n      pop\n        /* \"#utility.yul\":4523:4594   */\n      tag_334\n        /* \"#utility.yul\":4591:4592   */\n      0x00\n        /* \"#utility.yul\":4580:4589   */\n      dup4\n        /* \"#utility.yul\":4576:4593   */\n      add\n        /* \"#utility.yul\":4567:4573   */\n      dup5\n        /* \"#utility.yul\":4523:4594   */\n      tag_235\n      jump\t// in\n    tag_334:\n        /* \"#utility.yul\":4379:4601   */\n      swap3\n      swap2\n      pop\n      pop\n      jump\t// out\n        /* \"#utility.yul\":4607:4725   */\n    tag_236:\n        /* \"#utility.yul\":4694:4718   */\n      tag_336\n        /* \"#utility.yul\":4712:4717   */\n      dup2\n        /* \"#utility.yul\":4694:4718   */\n      tag_230\n      jump\t// in\n    tag_336:\n        /* \"#utility.yul\":4689:4692   */\n      dup3\n        /* \"#utility.yul\":4682:4719   */\n      mstore\n        /* \"#utility.yul\":4607:4725   */\n      pop\n      pop\n      jump\t// out\n        /* \"#utility.yul\":4731:4953   */\n    tag_57:\n        /* \"#utility.yul\":4824:4828   */\n      0x00\n        /* \"#utility.yul\":4862:4864   */\n      0x20\n        /* \"#utility.yul\":4851:4860   */\n      dup3\n        /* \"#utility.yul\":4847:4865   */\n      add\n        /* \"#utility.yul\":4839:4865   */\n      swap1\n      pop\n        /* \"#utility.yul\":4875:4946   */\n      tag_338\n        /* \"#utility.yul\":4943:4944   */\n      0x00\n        /* \"#utility.yul\":4932:4941   */\n      dup4\n        /* \"#utility.yul\":4928:4945   */\n      add\n        /* \"#utility.yul\":4919:4925   */\n      dup5\n        /* \"#utility.yul\":4875:4946   */\n      tag_236\n      jump\t// in\n    tag_338:\n        /* \"#utility.yul\":4731:4953   */\n      swap3\n      swap2\n      pop\n      pop\n      jump\t// out\n        /* \"#utility.yul\":4959:5102   */\n    tag_237:\n        /* \"#utility.yul\":5016:5021   */\n      0x00\n        /* \"#utility.yul\":5047:5053   */\n      dup2\n        /* \"#utility.yul\":5041:5054   */\n      mload\n        /* \"#utility.yul\":5032:5054   */\n      swap1\n      pop\n        /* \"#utility.yul\":5063:5096   */\n      tag_340\n        /* \"#utility.yul\":5090:5095   */\n      dup2\n        /* \"#utility.yul\":5063:5096   */\n      tag_231\n      jump\t// in\n    tag_340:\n        /* \"#utility.yul\":4959:5102   */\n      swap3\n      swap2\n      pop\n      pop\n      jump\t// out\n        /* \"#utility.yul\":5108:5459   */\n    tag_66:\n        /* \"#utility.yul\":5178:5184   */\n      0x00\n        /* \"#utility.yul\":5227:5229   */\n      0x20\n        /* \"#utility.yul\":5215:5224   */\n      dup3\n        /* \"#utility.yul\":5206:5213   */\n      dup5\n        /* \"#utility.yul\":5202:5225   */\n      sub\n        /* \"#utility.yul\":5198:5230   */\n      slt\n        /* \"#utility.yul\":5195:5314   */\n      iszero\n      tag_342\n      jumpi\n        /* \"#utility.yul\":5233:5312   */\n      tag_343\n      tag_221\n      jump\t// in\n    tag_343:\n        /* \"#utility.yul\":5195:5314   */\n    tag_342:\n        /* \"#utility.yul\":5353:5354   */\n      0x00\n        /* \"#utility.yul\":5378:5442   */\n      tag_344\n        /* \"#utility.yul\":5434:5441   */\n      dup5\n        /* \"#utility.yul\":5425:5431   */\n      dup3\n        /* \"#utility.yul\":5414:5423   */\n      dup6\n        /* \"#utility.yul\":5410:5432   */\n      add\n        /* \"#utility.yul\":5378:5442   */\n      tag_237\n      jump\t// in\n    tag_344:\n        /* \"#utility.yul\":5368:5442   */\n      swap2\n      pop\n        /* \"#utility.yul\":5324:5452   */\n      pop\n        /* \"#utility.yul\":5108:5459   */\n      swap3\n      swap2\n      pop\n      pop\n      jump\t// out\n        /* \"#utility.yul\":5465:5580   */\n    tag_238:\n        /* \"#utility.yul\":5550:5573   */\n      tag_346\n        /* \"#utility.yul\":5567:5572   */\n      dup2\n        /* \"#utility.yul\":5550:5573   */\n      tag_227\n      jump\t// in\n    tag_346:\n        /* \"#utility.yul\":5545:5548   */\n      dup3\n        /* \"#utility.yul\":5538:5574   */\n      mstore\n        /* \"#utility.yul\":5465:5580   */\n      pop\n      pop\n      jump\t// out\n        /* \"#utility.yul\":5586:5804   */\n    tag_89:\n        /* \"#utility.yul\":5677:5681   */\n      0x00\n        /* \"#utility.yul\":5715:5717   */\n      0x20\n        /* \"#utility.yul\":5704:5713   */\n      dup3\n        /* \"#utility.yul\":5700:5718   */\n      add\n        /* \"#utility.yul\":5692:5718   */\n      swap1\n      pop\n        /* \"#utility.yul\":5728:5797   */\n      tag_348\n        /* \"#utility.yul\":5794:5795   */\n      0x00\n        /* \"#utility.yul\":5783:5792   */\n      dup4\n        /* \"#utility.yul\":5779:5796   */\n      add\n        /* \"#utility.yul\":5770:5776   */\n      dup5\n        /* \"#utility.yul\":5728:5797   */\n      tag_238\n      jump\t// in\n    tag_348:\n        /* \"#utility.yul\":5586:5804   */\n      swap3\n      swap2\n      pop\n      pop\n      jump\t// out\n        /* \"#utility.yul\":5810:5990   */\n    tag_95:\n        /* \"#utility.yul\":5858:5935   */\n      0x4e487b7100000000000000000000000000000000000000000000000000000000\n        /* \"#utility.yul\":5855:5856   */\n      0x00\n        /* \"#utility.yul\":5848:5936   */\n      mstore\n        /* \"#utility.yul\":5955:5959   */\n      0x41\n        /* \"#utility.yul\":5952:5953   */\n      0x04\n        /* \"#utility.yul\":5945:5960   */\n      mstore\n        /* \"#utility.yul\":5979:5983   */\n      0x24\n        /* \"#utility.yul\":5976:5977   */\n      0x00\n        /* \"#utility.yul\":5969:5984   */\n      revert\n        /* \"#utility.yul\":5996:6176   */\n    tag_102:\n        /* \"#utility.yul\":6044:6121   */\n      0x4e487b7100000000000000000000000000000000000000000000000000000000\n        /* \"#utility.yul\":6041:6042   */\n      0x00\n        /* \"#utility.yul\":6034:6122   */\n      mstore\n        /* \"#utility.yul\":6141:6145   */\n      0x32\n        /* \"#utility.yul\":6138:6139   */\n      0x04\n        /* \"#utility.yul\":6131:6146   */\n      mstore\n        /* \"#utility.yul\":6165:6169   */\n      0x24\n        /* \"#utility.yul\":6162:6163   */\n      0x00\n        /* \"#utility.yul\":6155:6170   */\n      revert\n        /* \"#utility.yul\":6182:6514   */\n    tag_105:\n        /* \"#utility.yul\":6303:6307   */\n      0x00\n        /* \"#utility.yul\":6341:6343   */\n      0x40\n        /* \"#utility.yul\":6330:6339   */\n      dup3\n        /* \"#utility.yul\":6326:6344   */\n      add\n        /* \"#utility.yul\":6318:6344   */\n      swap1\n      pop\n        /* \"#utility.yul\":6354:6425   */\n      tag_352\n        /* \"#utility.yul\":6422:6423   */\n      0x00\n        /* \"#utility.yul\":6411:6420   */\n      dup4\n        /* \"#utility.yul\":6407:6424   */\n      add\n        /* \"#utility.yul\":6398:6404   */\n      dup6\n        /* \"#utility.yul\":6354:6425   */\n      tag_233\n      jump\t// in\n    tag_352:\n        /* \"#utility.yul\":6435:6507   */\n      tag_353\n        /* \"#utility.yul\":6503:6505   */\n      0x20\n        /* \"#utility.yul\":6492:6501   */\n      dup4\n        /* \"#utility.yul\":6488:6506   */\n      add\n        /* \"#utility.yul\":6479:6485   */\n      dup5\n        /* \"#utility.yul\":6435:6507   */\n      tag_236\n      jump\t// in\n    tag_353:\n        /* \"#utility.yul\":6182:6514   */\n      swap4\n      swap3\n      pop\n      pop\n      pop\n      jump\t// out\n        /* \"#utility.yul\":6520:6618   */\n    tag_239:\n        /* \"#utility.yul\":6571:6577   */\n      0x00\n        /* \"#utility.yul\":6605:6610   */\n      dup2\n        /* \"#utility.yul\":6599:6611   */\n      mload\n        /* \"#utility.yul\":6589:6611   */\n      swap1\n      pop\n        /* \"#utility.yul\":6520:6618   */\n      swap2\n      swap1\n      pop\n      jump\t// out\n        /* \"#utility.yul\":6624:6782   */\n    tag_240:\n        /* \"#utility.yul\":6697:6708   */\n      0x00\n        /* \"#utility.yul\":6731:6737   */\n      dup3\n        /* \"#utility.yul\":6726:6729   */\n      dup3\n        /* \"#utility.yul\":6719:6738   */\n      mstore\n        /* \"#utility.yul\":6771:6775   */\n      0x20\n        /* \"#utility.yul\":6766:6769   */\n      dup3\n        /* \"#utility.yul\":6762:6776   */\n      add\n        /* \"#utility.yul\":6747:6776   */\n      swap1\n      pop\n        /* \"#utility.yul\":6624:6782   */\n      swap3\n      swap2\n      pop\n      pop\n      jump\t// out\n        /* \"#utility.yul\":6788:7034   */\n    tag_241:\n        /* \"#utility.yul\":6869:6870   */\n      0x00\n        /* \"#utility.yul\":6879:6992   */\n    tag_357:\n        /* \"#utility.yul\":6893:6899   */\n      dup4\n        /* \"#utility.yul\":6890:6891   */\n      dup2\n        /* \"#utility.yul\":6887:6900   */\n      lt\n        /* \"#utility.yul\":6879:6992   */\n      iszero\n      tag_359\n      jumpi\n        /* \"#utility.yul\":6978:6979   */\n      dup1\n        /* \"#utility.yul\":6973:6976   */\n      dup3\n        /* \"#utility.yul\":6969:6980   */\n      add\n        /* \"#utility.yul\":6963:6981   */\n      mload\n        /* \"#utility.yul\":6959:6960   */\n      dup2\n        /* \"#utility.yul\":6954:6957   */\n      dup5\n        /* \"#utility.yul\":6950:6961   */\n      add\n        /* \"#utility.yul\":6943:6982   */\n      mstore\n        /* \"#utility.yul\":6915:6917   */\n      0x20\n        /* \"#utility.yul\":6912:6913   */\n      dup2\n        /* \"#utility.yul\":6908:6918   */\n      add\n        /* \"#utility.yul\":6903:6918   */\n      swap1\n      pop\n        /* \"#utility.yul\":6879:6992   */\n      jump(tag_357)\n    tag_359:\n        /* \"#utility.yul\":7026:7027   */\n      0x00\n        /* \"#utility.yul\":7017:7023   */\n      dup5\n        /* \"#utility.yul\":7012:7015   */\n      dup5\n        /* \"#utility.yul\":7008:7024   */\n      add\n        /* \"#utility.yul\":7001:7028   */\n      mstore\n        /* \"#utility.yul\":6850:7034   */\n      pop\n        /* \"#utility.yul\":6788:7034   */\n      pop\n      pop\n      pop\n      jump\t// out\n        /* \"#utility.yul\":7040:7142   */\n    tag_242:\n        /* \"#utility.yul\":7081:7087   */\n      0x00\n        /* \"#utility.yul\":7132:7134   */\n      0x1f\n        /* \"#utility.yul\":7128:7135   */\n      not\n        /* \"#utility.yul\":7123:7125   */\n      0x1f\n        /* \"#utility.yul\":7116:7121   */\n      dup4\n        /* \"#utility.yul\":7112:7126   */\n      add\n        /* \"#utility.yul\":7108:7136   */\n      and\n        /* \"#utility.yul\":7098:7136   */\n      swap1\n      pop\n        /* \"#utility.yul\":7040:7142   */\n      swap2\n      swap1\n      pop\n      jump\t// out\n        /* \"#utility.yul\":7148:7501   */\n    tag_243:\n        /* \"#utility.yul\":7224:7227   */\n      0x00\n        /* \"#utility.yul\":7252:7290   */\n      tag_362\n        /* \"#utility.yul\":7284:7289   */\n      dup3\n        /* \"#utility.yul\":7252:7290   */\n      tag_239\n      jump\t// in\n    tag_362:\n        /* \"#utility.yul\":7306:7366   */\n      tag_363\n        /* \"#utility.yul\":7359:7365   */\n      dup2\n        /* \"#utility.yul\":7354:7357   */\n      dup6\n        /* \"#utility.yul\":7306:7366   */\n      tag_240\n      jump\t// in\n    tag_363:\n        /* \"#utility.yul\":7299:7366   */\n      swap4\n      pop\n        /* \"#utility.yul\":7375:7440   */\n      tag_364\n        /* \"#utility.yul\":7433:7439   */\n      dup2\n        /* \"#utility.yul\":7428:7431   */\n      dup6\n        /* \"#utility.yul\":7421:7425   */\n      0x20\n        /* \"#utility.yul\":7414:7419   */\n      dup7\n        /* \"#utility.yul\":7410:7426   */\n      add\n        /* \"#utility.yul\":7375:7440   */\n      tag_241\n      jump\t// in\n    tag_364:\n        /* \"#utility.yul\":7465:7494   */\n      tag_365\n        /* \"#utility.yul\":7487:7493   */\n      dup2\n        /* \"#utility.yul\":7465:7494   */\n      tag_242\n      jump\t// in\n    tag_365:\n        /* \"#utility.yul\":7460:7463   */\n      dup5\n        /* \"#utility.yul\":7456:7495   */\n      add\n        /* \"#utility.yul\":7449:7495   */\n      swap2\n      pop\n        /* \"#utility.yul\":7228:7501   */\n      pop\n        /* \"#utility.yul\":7148:7501   */\n      swap3\n      swap2\n      pop\n      pop\n      jump\t// out\n        /* \"#utility.yul\":7507:7651   */\n    tag_244:\n        /* \"#utility.yul\":7604:7610   */\n      0x00\n        /* \"#utility.yul\":7638:7643   */\n      dup2\n        /* \"#utility.yul\":7632:7644   */\n      mload\n        /* \"#utility.yul\":7622:7644   */\n      swap1\n      pop\n        /* \"#utility.yul\":7507:7651   */\n      swap2\n      swap1\n      pop\n      jump\t// out\n        /* \"#utility.yul\":7657:7861   */\n    tag_245:\n        /* \"#utility.yul\":7776:7787   */\n      0x00\n        /* \"#utility.yul\":7810:7816   */\n      dup3\n        /* \"#utility.yul\":7805:7808   */\n      dup3\n        /* \"#utility.yul\":7798:7817   */\n      mstore\n        /* \"#utility.yul\":7850:7854   */\n      0x20\n        /* \"#utility.yul\":7845:7848   */\n      dup3\n        /* \"#utility.yul\":7841:7855   */\n      add\n        /* \"#utility.yul\":7826:7855   */\n      swap1\n      pop\n        /* \"#utility.yul\":7657:7861   */\n      swap3\n      swap2\n      pop\n      pop\n      jump\t// out\n        /* \"#utility.yul\":7867:8029   */\n    tag_246:\n        /* \"#utility.yul\":7964:7968   */\n      0x00\n        /* \"#utility.yul\":7987:7990   */\n      dup2\n        /* \"#utility.yul\":7979:7990   */\n      swap1\n      pop\n        /* \"#utility.yul\":8017:8021   */\n      0x20\n        /* \"#utility.yul\":8012:8015   */\n      dup3\n        /* \"#utility.yul\":8008:8022   */\n      add\n        /* \"#utility.yul\":8000:8022   */\n      swap1\n      pop\n        /* \"#utility.yul\":7867:8029   */\n      swap2\n      swap1\n      pop\n      jump\t// out\n        /* \"#utility.yul\":8035:8143   */\n    tag_247:\n        /* \"#utility.yul\":8112:8136   */\n      tag_370\n        /* \"#utility.yul\":8130:8135   */\n      dup2\n        /* \"#utility.yul\":8112:8136   */\n      tag_224\n      jump\t// in\n    tag_370:\n        /* \"#utility.yul\":8107:8110   */\n      dup3\n        /* \"#utility.yul\":8100:8137   */\n      mstore\n        /* \"#utility.yul\":8035:8143   */\n      pop\n      pop\n      jump\t// out\n        /* \"#utility.yul\":8149:8257   */\n    tag_248:\n        /* \"#utility.yul\":8226:8250   */\n      tag_372\n        /* \"#utility.yul\":8244:8249   */\n      dup2\n        /* \"#utility.yul\":8226:8250   */\n      tag_230\n      jump\t// in\n    tag_372:\n        /* \"#utility.yul\":8221:8224   */\n      dup3\n        /* \"#utility.yul\":8214:8251   */\n      mstore\n        /* \"#utility.yul\":8149:8257   */\n      pop\n      pop\n      jump\t// out\n        /* \"#utility.yul\":8331:8841   */\n    tag_249:\n        /* \"#utility.yul\":8478:8482   */\n      0x40\n        /* \"#utility.yul\":8473:8476   */\n      dup3\n        /* \"#utility.yul\":8469:8483   */\n      add\n        /* \"#utility.yul\":8566:8570   */\n      0x00\n        /* \"#utility.yul\":8559:8564   */\n      dup3\n        /* \"#utility.yul\":8555:8571   */\n      add\n        /* \"#utility.yul\":8549:8572   */\n      mload\n        /* \"#utility.yul\":8585:8648   */\n      tag_374\n        /* \"#utility.yul\":8642:8646   */\n      0x00\n        /* \"#utility.yul\":8637:8640   */\n      dup6\n        /* \"#utility.yul\":8633:8647   */\n      add\n        /* \"#utility.yul\":8619:8631   */\n      dup3\n        /* \"#utility.yul\":8585:8648   */\n      tag_247\n      jump\t// in\n    tag_374:\n        /* \"#utility.yul\":8493:8658   */\n      pop\n        /* \"#utility.yul\":8742:8746   */\n      0x20\n        /* \"#utility.yul\":8735:8740   */\n      dup3\n        /* \"#utility.yul\":8731:8747   */\n      add\n        /* \"#utility.yul\":8725:8748   */\n      mload\n        /* \"#utility.yul\":8761:8824   */\n      tag_375\n        /* \"#utility.yul\":8818:8822   */\n      0x20\n        /* \"#utility.yul\":8813:8816   */\n      dup6\n        /* \"#utility.yul\":8809:8823   */\n      add\n        /* \"#utility.yul\":8795:8807   */\n      dup3\n        /* \"#utility.yul\":8761:8824   */\n      tag_248\n      jump\t// in\n    tag_375:\n        /* \"#utility.yul\":8668:8834   */\n      pop\n        /* \"#utility.yul\":8447:8841   */\n      pop\n        /* \"#utility.yul\":8331:8841   */\n      pop\n      pop\n      jump\t// out\n        /* \"#utility.yul\":8847:9146   */\n    tag_250:\n        /* \"#utility.yul\":8976:8986   */\n      0x00\n        /* \"#utility.yul\":8997:9103   */\n      tag_377\n        /* \"#utility.yul\":9099:9102   */\n      dup4\n        /* \"#utility.yul\":9091:9097   */\n      dup4\n        /* \"#utility.yul\":8997:9103   */\n      tag_249\n      jump\t// in\n    tag_377:\n        /* \"#utility.yul\":9135:9139   */\n      0x40\n        /* \"#utility.yul\":9130:9133   */\n      dup4\n        /* \"#utility.yul\":9126:9140   */\n      add\n        /* \"#utility.yul\":9112:9140   */\n      swap1\n      pop\n        /* \"#utility.yul\":8847:9146   */\n      swap3\n      swap2\n      pop\n      pop\n      jump\t// out\n        /* \"#utility.yul\":9152:9295   */\n    tag_251:\n        /* \"#utility.yul\":9252:9256   */\n      0x00\n        /* \"#utility.yul\":9284:9288   */\n      0x20\n        /* \"#utility.yul\":9279:9282   */\n      dup3\n        /* \"#utility.yul\":9275:9289   */\n      add\n        /* \"#utility.yul\":9267:9289   */\n      swap1\n      pop\n        /* \"#utility.yul\":9152:9295   */\n      swap2\n      swap1\n      pop\n      jump\t// out\n        /* \"#utility.yul\":9373:10325   */\n    tag_252:\n        /* \"#utility.yul\":9542:9545   */\n      0x00\n        /* \"#utility.yul\":9571:9655   */\n      tag_380\n        /* \"#utility.yul\":9649:9654   */\n      dup3\n        /* \"#utility.yul\":9571:9655   */\n      tag_244\n      jump\t// in\n    tag_380:\n        /* \"#utility.yul\":9671:9777   */\n      tag_381\n        /* \"#utility.yul\":9770:9776   */\n      dup2\n        /* \"#utility.yul\":9765:9768   */\n      dup6\n        /* \"#utility.yul\":9671:9777   */\n      tag_245\n      jump\t// in\n    tag_381:\n        /* \"#utility.yul\":9664:9777   */\n      swap4\n      pop\n        /* \"#utility.yul\":9801:9887   */\n      tag_382\n        /* \"#utility.yul\":9881:9886   */\n      dup4\n        /* \"#utility.yul\":9801:9887   */\n      tag_246\n      jump\t// in\n    tag_382:\n        /* \"#utility.yul\":9910:9917   */\n      dup1\n        /* \"#utility.yul\":9941:9942   */\n      0x00\n        /* \"#utility.yul\":9926:10300   */\n    tag_383:\n        /* \"#utility.yul\":9951:9957   */\n      dup4\n        /* \"#utility.yul\":9948:9949   */\n      dup2\n        /* \"#utility.yul\":9945:9958   */\n      lt\n        /* \"#utility.yul\":9926:10300   */\n      iszero\n      tag_385\n      jumpi\n        /* \"#utility.yul\":10027:10033   */\n      dup2\n        /* \"#utility.yul\":10021:10034   */\n      mload\n        /* \"#utility.yul\":10054:10177   */\n      tag_386\n        /* \"#utility.yul\":10173:10176   */\n      dup9\n        /* \"#utility.yul\":10158:10171   */\n      dup3\n        /* \"#utility.yul\":10054:10177   */\n      tag_250\n      jump\t// in\n    tag_386:\n        /* \"#utility.yul\":10047:10177   */\n      swap8\n      pop\n        /* \"#utility.yul\":10200:10290   */\n      tag_387\n        /* \"#utility.yul\":10283:10289   */\n      dup4\n        /* \"#utility.yul\":10200:10290   */\n      tag_251\n      jump\t// in\n    tag_387:\n        /* \"#utility.yul\":10190:10290   */\n      swap3\n      pop\n        /* \"#utility.yul\":9986:10300   */\n      pop\n        /* \"#utility.yul\":9973:9974   */\n      0x01\n        /* \"#utility.yul\":9970:9971   */\n      dup2\n        /* \"#utility.yul\":9966:9975   */\n      add\n        /* \"#utility.yul\":9961:9975   */\n      swap1\n      pop\n        /* \"#utility.yul\":9926:10300   */\n      jump(tag_383)\n    tag_385:\n        /* \"#utility.yul\":9930:9944   */\n      pop\n        /* \"#utility.yul\":10316:10319   */\n      dup6\n        /* \"#utility.yul\":10309:10319   */\n      swap4\n      pop\n        /* \"#utility.yul\":9547:10325   */\n      pop\n      pop\n      pop\n        /* \"#utility.yul\":9373:10325   */\n      swap3\n      swap2\n      pop\n      pop\n      jump\t// out\n        /* \"#utility.yul\":10399:11855   */\n    tag_253:\n        /* \"#utility.yul\":10528:10531   */\n      0x00\n        /* \"#utility.yul\":10564:10568   */\n      0xa0\n        /* \"#utility.yul\":10559:10562   */\n      dup4\n        /* \"#utility.yul\":10555:10569   */\n      add\n        /* \"#utility.yul\":10655:10659   */\n      0x00\n        /* \"#utility.yul\":10648:10653   */\n      dup4\n        /* \"#utility.yul\":10644:10660   */\n      add\n        /* \"#utility.yul\":10638:10661   */\n      mload\n        /* \"#utility.yul\":10708:10711   */\n      dup5\n        /* \"#utility.yul\":10702:10706   */\n      dup3\n        /* \"#utility.yul\":10698:10712   */\n      sub\n        /* \"#utility.yul\":10691:10695   */\n      0x00\n        /* \"#utility.yul\":10686:10689   */\n      dup7\n        /* \"#utility.yul\":10682:10696   */\n      add\n        /* \"#utility.yul\":10675:10713   */\n      mstore\n        /* \"#utility.yul\":10734:10805   */\n      tag_389\n        /* \"#utility.yul\":10800:10804   */\n      dup3\n        /* \"#utility.yul\":10786:10798   */\n      dup3\n        /* \"#utility.yul\":10734:10805   */\n      tag_243\n      jump\t// in\n    tag_389:\n        /* \"#utility.yul\":10726:10805   */\n      swap2\n      pop\n        /* \"#utility.yul\":10579:10816   */\n      pop\n        /* \"#utility.yul\":10898:10902   */\n      0x20\n        /* \"#utility.yul\":10891:10896   */\n      dup4\n        /* \"#utility.yul\":10887:10903   */\n      add\n        /* \"#utility.yul\":10881:10904   */\n      mload\n        /* \"#utility.yul\":10951:10954   */\n      dup5\n        /* \"#utility.yul\":10945:10949   */\n      dup3\n        /* \"#utility.yul\":10941:10955   */\n      sub\n        /* \"#utility.yul\":10934:10938   */\n      0x20\n        /* \"#utility.yul\":10929:10932   */\n      dup7\n        /* \"#utility.yul\":10925:10939   */\n      add\n        /* \"#utility.yul\":10918:10956   */\n      mstore\n        /* \"#utility.yul\":10977:11048   */\n      tag_390\n        /* \"#utility.yul\":11043:11047   */\n      dup3\n        /* \"#utility.yul\":11029:11041   */\n      dup3\n        /* \"#utility.yul\":10977:11048   */\n      tag_243\n      jump\t// in\n    tag_390:\n        /* \"#utility.yul\":10969:11048   */\n      swap2\n      pop\n        /* \"#utility.yul\":10826:11059   */\n      pop\n        /* \"#utility.yul\":11149:11153   */\n      0x40\n        /* \"#utility.yul\":11142:11147   */\n      dup4\n        /* \"#utility.yul\":11138:11154   */\n      add\n        /* \"#utility.yul\":11132:11155   */\n      mload\n        /* \"#utility.yul\":11202:11205   */\n      dup5\n        /* \"#utility.yul\":11196:11200   */\n      dup3\n        /* \"#utility.yul\":11192:11206   */\n      sub\n        /* \"#utility.yul\":11185:11189   */\n      0x40\n        /* \"#utility.yul\":11180:11183   */\n      dup7\n        /* \"#utility.yul\":11176:11190   */\n      add\n        /* \"#utility.yul\":11169:11207   */\n      mstore\n        /* \"#utility.yul\":11228:11391   */\n      tag_391\n        /* \"#utility.yul\":11386:11390   */\n      dup3\n        /* \"#utility.yul\":11372:11384   */\n      dup3\n        /* \"#utility.yul\":11228:11391   */\n      tag_252\n      jump\t// in\n    tag_391:\n        /* \"#utility.yul\":11220:11391   */\n      swap2\n      pop\n        /* \"#utility.yul\":11069:11402   */\n      pop\n        /* \"#utility.yul\":11488:11492   */\n      0x60\n        /* \"#utility.yul\":11481:11486   */\n      dup4\n        /* \"#utility.yul\":11477:11493   */\n      add\n        /* \"#utility.yul\":11471:11494   */\n      mload\n        /* \"#utility.yul\":11507:11570   */\n      tag_392\n        /* \"#utility.yul\":11564:11568   */\n      0x60\n        /* \"#utility.yul\":11559:11562   */\n      dup7\n        /* \"#utility.yul\":11555:11569   */\n      add\n        /* \"#utility.yul\":11541:11553   */\n      dup3\n        /* \"#utility.yul\":11507:11570   */\n      tag_247\n      jump\t// in\n    tag_392:\n        /* \"#utility.yul\":11412:11580   */\n      pop\n        /* \"#utility.yul\":11667:11671   */\n      0x80\n        /* \"#utility.yul\":11660:11665   */\n      dup4\n        /* \"#utility.yul\":11656:11672   */\n      add\n        /* \"#utility.yul\":11650:11673   */\n      mload\n        /* \"#utility.yul\":11720:11723   */\n      dup5\n        /* \"#utility.yul\":11714:11718   */\n      dup3\n        /* \"#utility.yul\":11710:11724   */\n      sub\n        /* \"#utility.yul\":11703:11707   */\n      0x80\n        /* \"#utility.yul\":11698:11701   */\n      dup7\n        /* \"#utility.yul\":11694:11708   */\n      add\n        /* \"#utility.yul\":11687:11725   */\n      mstore\n        /* \"#utility.yul\":11746:11817   */\n      tag_393\n        /* \"#utility.yul\":11812:11816   */\n      dup3\n        /* \"#utility.yul\":11798:11810   */\n      dup3\n        /* \"#utility.yul\":11746:11817   */\n      tag_243\n      jump\t// in\n    tag_393:\n        /* \"#utility.yul\":11738:11817   */\n      swap2\n      pop\n        /* \"#utility.yul\":11590:11828   */\n      pop\n        /* \"#utility.yul\":11845:11849   */\n      dup1\n        /* \"#utility.yul\":11838:11849   */\n      swap2\n      pop\n        /* \"#utility.yul\":10533:11855   */\n      pop\n        /* \"#utility.yul\":10399:11855   */\n      swap3\n      swap2\n      pop\n      pop\n      jump\t// out\n        /* \"#utility.yul\":11861:12360   */\n    tag_109:\n        /* \"#utility.yul\":12040:12044   */\n      0x00\n        /* \"#utility.yul\":12078:12080   */\n      0x40\n        /* \"#utility.yul\":12067:12076   */\n      dup3\n        /* \"#utility.yul\":12063:12081   */\n      add\n        /* \"#utility.yul\":12055:12081   */\n      swap1\n      pop\n        /* \"#utility.yul\":12091:12160   */\n      tag_395\n        /* \"#utility.yul\":12157:12158   */\n      0x00\n        /* \"#utility.yul\":12146:12155   */\n      dup4\n        /* \"#utility.yul\":12142:12159   */\n      add\n        /* \"#utility.yul\":12133:12139   */\n      dup6\n        /* \"#utility.yul\":12091:12160   */\n      tag_238\n      jump\t// in\n    tag_395:\n        /* \"#utility.yul\":12207:12216   */\n      dup2\n        /* \"#utility.yul\":12201:12205   */\n      dup2\n        /* \"#utility.yul\":12197:12217   */\n      sub\n        /* \"#utility.yul\":12192:12194   */\n      0x20\n        /* \"#utility.yul\":12181:12190   */\n      dup4\n        /* \"#utility.yul\":12177:12195   */\n      add\n        /* \"#utility.yul\":12170:12218   */\n      mstore\n        /* \"#utility.yul\":12235:12353   */\n      tag_396\n        /* \"#utility.yul\":12348:12352   */\n      dup2\n        /* \"#utility.yul\":12339:12345   */\n      dup5\n        /* \"#utility.yul\":12235:12353   */\n      tag_253\n      jump\t// in\n    tag_396:\n        /* \"#utility.yul\":12227:12353   */\n      swap1\n      pop\n        /* \"#utility.yul\":11861:12360   */\n      swap4\n      swap3\n      pop\n      pop\n      pop\n      jump\t// out\n        /* \"#utility.yul\":12366:12698   */\n    tag_123:\n        /* \"#utility.yul\":12487:12491   */\n      0x00\n        /* \"#utility.yul\":12525:12527   */\n      0x40\n        /* \"#utility.yul\":12514:12523   */\n      dup3\n        /* \"#utility.yul\":12510:12528   */\n      add\n        /* \"#utility.yul\":12502:12528   */\n      swap1\n      pop\n        /* \"#utility.yul\":12538:12609   */\n      tag_398\n        /* \"#utility.yul\":12606:12607   */\n      0x00\n        /* \"#utility.yul\":12595:12604   */\n      dup4\n        /* \"#utility.yul\":12591:12608   */\n      add\n        /* \"#utility.yul\":12582:12588   */\n      dup6\n        /* \"#utility.yul\":12538:12609   */\n      tag_236\n      jump\t// in\n    tag_398:\n        /* \"#utility.yul\":12619:12691   */\n      tag_399\n        /* \"#utility.yul\":12687:12689   */\n      0x20\n        /* \"#utility.yul\":12676:12685   */\n      dup4\n        /* \"#utility.yul\":12672:12690   */\n      add\n        /* \"#utility.yul\":12663:12669   */\n      dup5\n        /* \"#utility.yul\":12619:12691   */\n      tag_236\n      jump\t// in\n    tag_399:\n        /* \"#utility.yul\":12366:12698   */\n      swap4\n      swap3\n      pop\n      pop\n      pop\n      jump\t// out\n        /* \"#utility.yul\":12704:12794   */\n    tag_254:\n        /* \"#utility.yul\":12738:12745   */\n      0x00\n        /* \"#utility.yul\":12781:12786   */\n      dup2\n        /* \"#utility.yul\":12774:12787   */\n      iszero\n        /* \"#utility.yul\":12767:12788   */\n      iszero\n        /* \"#utility.yul\":12756:12788   */\n      swap1\n      pop\n        /* \"#utility.yul\":12704:12794   */\n      swap2\n      swap1\n      pop\n      jump\t// out\n        /* \"#utility.yul\":12800:12916   */\n    tag_255:\n        /* \"#utility.yul\":12870:12891   */\n      tag_402\n        /* \"#utility.yul\":12885:12890   */\n      dup2\n        /* \"#utility.yul\":12870:12891   */\n      tag_254\n      jump\t// in\n    tag_402:\n        /* \"#utility.yul\":12863:12868   */\n      dup2\n        /* \"#utility.yul\":12860:12892   */\n      eq\n        /* \"#utility.yul\":12850:12910   */\n      tag_403\n      jumpi\n        /* \"#utility.yul\":12906:12907   */\n      0x00\n        /* \"#utility.yul\":12903:12904   */\n      dup1\n        /* \"#utility.yul\":12896:12908   */\n      revert\n        /* \"#utility.yul\":12850:12910   */\n    tag_403:\n        /* \"#utility.yul\":12800:12916   */\n      pop\n      jump\t// out\n        /* \"#utility.yul\":12922:13059   */\n    tag_256:\n        /* \"#utility.yul\":12976:12981   */\n      0x00\n        /* \"#utility.yul\":13007:13013   */\n      dup2\n        /* \"#utility.yul\":13001:13014   */\n      mload\n        /* \"#utility.yul\":12992:13014   */\n      swap1\n      pop\n        /* \"#utility.yul\":13023:13053   */\n      tag_405\n        /* \"#utility.yul\":13047:13052   */\n      dup2\n        /* \"#utility.yul\":13023:13053   */\n      tag_255\n      jump\t// in\n    tag_405:\n        /* \"#utility.yul\":12922:13059   */\n      swap3\n      swap2\n      pop\n      pop\n      jump\t// out\n        /* \"#utility.yul\":13065:13410   */\n    tag_128:\n        /* \"#utility.yul\":13132:13138   */\n      0x00\n        /* \"#utility.yul\":13181:13183   */\n      0x20\n        /* \"#utility.yul\":13169:13178   */\n      dup3\n        /* \"#utility.yul\":13160:13167   */\n      dup5\n        /* \"#utility.yul\":13156:13179   */\n      sub\n        /* \"#utility.yul\":13152:13184   */\n      slt\n        /* \"#utility.yul\":13149:13268   */\n      iszero\n      tag_407\n      jumpi\n        /* \"#utility.yul\":13187:13266   */\n      tag_408\n      tag_221\n      jump\t// in\n    tag_408:\n        /* \"#utility.yul\":13149:13268   */\n    tag_407:\n        /* \"#utility.yul\":13307:13308   */\n      0x00\n        /* \"#utility.yul\":13332:13393   */\n      tag_409\n        /* \"#utility.yul\":13385:13392   */\n      dup5\n        /* \"#utility.yul\":13376:13382   */\n      dup3\n        /* \"#utility.yul\":13365:13374   */\n      dup6\n        /* \"#utility.yul\":13361:13383   */\n      add\n        /* \"#utility.yul\":13332:13393   */\n      tag_256\n      jump\t// in\n    tag_409:\n        /* \"#utility.yul\":13322:13393   */\n      swap2\n      pop\n        /* \"#utility.yul\":13278:13403   */\n      pop\n        /* \"#utility.yul\":13065:13410   */\n      swap3\n      swap2\n      pop\n      pop\n      jump\t// out\n        /* \"#utility.yul\":13416:13538   */\n    tag_257:\n        /* \"#utility.yul\":13489:13513   */\n      tag_411\n        /* \"#utility.yul\":13507:13512   */\n      dup2\n        /* \"#utility.yul\":13489:13513   */\n      tag_234\n      jump\t// in\n    tag_411:\n        /* \"#utility.yul\":13482:13487   */\n      dup2\n        /* \"#utility.yul\":13479:13514   */\n      eq\n        /* \"#utility.yul\":13469:13532   */\n      tag_412\n      jumpi\n        /* \"#utility.yul\":13528:13529   */\n      0x00\n        /* \"#utility.yul\":13525:13526   */\n      dup1\n        /* \"#utility.yul\":13518:13530   */\n      revert\n        /* \"#utility.yul\":13469:13532   */\n    tag_412:\n        /* \"#utility.yul\":13416:13538   */\n      pop\n      jump\t// out\n        /* \"#utility.yul\":13544:13687   */\n    tag_258:\n        /* \"#utility.yul\":13601:13606   */\n      0x00\n        /* \"#utility.yul\":13632:13638   */\n      dup2\n        /* \"#utility.yul\":13626:13639   */\n      mload\n        /* \"#utility.yul\":13617:13639   */\n      swap1\n      pop\n        /* \"#utility.yul\":13648:13681   */\n      tag_414\n        /* \"#utility.yul\":13675:13680   */\n      dup2\n        /* \"#utility.yul\":13648:13681   */\n      tag_257\n      jump\t// in\n    tag_414:\n        /* \"#utility.yul\":13544:13687   */\n      swap3\n      swap2\n      pop\n      pop\n      jump\t// out\n        /* \"#utility.yul\":13693:14044   */\n    tag_137:\n        /* \"#utility.yul\":13763:13769   */\n      0x00\n        /* \"#utility.yul\":13812:13814   */\n      0x20\n        /* \"#utility.yul\":13800:13809   */\n      dup3\n        /* \"#utility.yul\":13791:13798   */\n      dup5\n        /* \"#utility.yul\":13787:13810   */\n      sub\n        /* \"#utility.yul\":13783:13815   */\n      slt\n        /* \"#utility.yul\":13780:13899   */\n      iszero\n      tag_416\n      jumpi\n        /* \"#utility.yul\":13818:13897   */\n      tag_417\n      tag_221\n      jump\t// in\n    tag_417:\n        /* \"#utility.yul\":13780:13899   */\n    tag_416:\n        /* \"#utility.yul\":13938:13939   */\n      0x00\n        /* \"#utility.yul\":13963:14027   */\n      tag_418\n        /* \"#utility.yul\":14019:14026   */\n      dup5\n        /* \"#utility.yul\":14010:14016   */\n      dup3\n        /* \"#utility.yul\":13999:14008   */\n      dup6\n        /* \"#utility.yul\":13995:14017   */\n      add\n        /* \"#utility.yul\":13963:14027   */\n      tag_258\n      jump\t// in\n    tag_418:\n        /* \"#utility.yul\":13953:14027   */\n      swap2\n      pop\n        /* \"#utility.yul\":13909:14037   */\n      pop\n        /* \"#utility.yul\":13693:14044   */\n      swap3\n      swap2\n      pop\n      pop\n      jump\t// out\n        /* \"#utility.yul\":14050:14714   */\n    tag_139:\n        /* \"#utility.yul\":14255:14259   */\n      0x00\n        /* \"#utility.yul\":14293:14296   */\n      0xa0\n        /* \"#utility.yul\":14282:14291   */\n      dup3\n        /* \"#utility.yul\":14278:14297   */\n      add\n        /* \"#utility.yul\":14270:14297   */\n      swap1\n      pop\n        /* \"#utility.yul\":14307:14378   */\n      tag_420\n        /* \"#utility.yul\":14375:14376   */\n      0x00\n        /* \"#utility.yul\":14364:14373   */\n      dup4\n        /* \"#utility.yul\":14360:14377   */\n      add\n        /* \"#utility.yul\":14351:14357   */\n      dup9\n        /* \"#utility.yul\":14307:14378   */\n      tag_233\n      jump\t// in\n    tag_420:\n        /* \"#utility.yul\":14388:14460   */\n      tag_421\n        /* \"#utility.yul\":14456:14458   */\n      0x20\n        /* \"#utility.yul\":14445:14454   */\n      dup4\n        /* \"#utility.yul\":14441:14459   */\n      add\n        /* \"#utility.yul\":14432:14438   */\n      dup8\n        /* \"#utility.yul\":14388:14460   */\n      tag_233\n      jump\t// in\n    tag_421:\n        /* \"#utility.yul\":14470:14542   */\n      tag_422\n        /* \"#utility.yul\":14538:14540   */\n      0x40\n        /* \"#utility.yul\":14527:14536   */\n      dup4\n        /* \"#utility.yul\":14523:14541   */\n      add\n        /* \"#utility.yul\":14514:14520   */\n      dup7\n        /* \"#utility.yul\":14470:14542   */\n      tag_236\n      jump\t// in\n    tag_422:\n        /* \"#utility.yul\":14552:14624   */\n      tag_423\n        /* \"#utility.yul\":14620:14622   */\n      0x60\n        /* \"#utility.yul\":14609:14618   */\n      dup4\n        /* \"#utility.yul\":14605:14623   */\n      add\n        /* \"#utility.yul\":14596:14602   */\n      dup6\n        /* \"#utility.yul\":14552:14624   */\n      tag_233\n      jump\t// in\n    tag_423:\n        /* \"#utility.yul\":14634:14707   */\n      tag_424\n        /* \"#utility.yul\":14702:14705   */\n      0x80\n        /* \"#utility.yul\":14691:14700   */\n      dup4\n        /* \"#utility.yul\":14687:14706   */\n      add\n        /* \"#utility.yul\":14678:14684   */\n      dup5\n        /* \"#utility.yul\":14634:14707   */\n      tag_236\n      jump\t// in\n    tag_424:\n        /* \"#utility.yul\":14050:14714   */\n      swap7\n      swap6\n      pop\n      pop\n      pop\n      pop\n      pop\n      pop\n      jump\t// out\n        /* \"#utility.yul\":14720:14889   */\n    tag_259:\n        /* \"#utility.yul\":14804:14815   */\n      0x00\n        /* \"#utility.yul\":14838:14844   */\n      dup3\n        /* \"#utility.yul\":14833:14836   */\n      dup3\n        /* \"#utility.yul\":14826:14845   */\n      mstore\n        /* \"#utility.yul\":14878:14882   */\n      0x20\n        /* \"#utility.yul\":14873:14876   */\n      dup3\n        /* \"#utility.yul\":14869:14883   */\n      add\n        /* \"#utility.yul\":14854:14883   */\n      swap1\n      pop\n        /* \"#utility.yul\":14720:14889   */\n      swap3\n      swap2\n      pop\n      pop\n      jump\t// out\n        /* \"#utility.yul\":14895:15067   */\n    tag_260:\n        /* \"#utility.yul\":15035:15059   */\n      0x4d7573742062652070726f706f736564206f776e657200000000000000000000\n        /* \"#utility.yul\":15031:15032   */\n      0x00\n        /* \"#utility.yul\":15023:15029   */\n      dup3\n        /* \"#utility.yul\":15019:15033   */\n      add\n        /* \"#utility.yul\":15012:15060   */\n      mstore\n        /* \"#utility.yul\":14895:15067   */\n      pop\n      jump\t// out\n        /* \"#utility.yul\":15073:15439   */\n    tag_261:\n        /* \"#utility.yul\":15215:15218   */\n      0x00\n        /* \"#utility.yul\":15236:15303   */\n      tag_428\n        /* \"#utility.yul\":15300:15302   */\n      0x16\n        /* \"#utility.yul\":15295:15298   */\n      dup4\n        /* \"#utility.yul\":15236:15303   */\n      tag_259\n      jump\t// in\n    tag_428:\n        /* \"#utility.yul\":15229:15303   */\n      swap2\n      pop\n        /* \"#utility.yul\":15312:15405   */\n      tag_429\n        /* \"#utility.yul\":15401:15404   */\n      dup3\n        /* \"#utility.yul\":15312:15405   */\n      tag_260\n      jump\t// in\n    tag_429:\n        /* \"#utility.yul\":15430:15432   */\n      0x20\n        /* \"#utility.yul\":15425:15428   */\n      dup3\n        /* \"#utility.yul\":15421:15433   */\n      add\n        /* \"#utility.yul\":15414:15433   */\n      swap1\n      pop\n        /* \"#utility.yul\":15073:15439   */\n      swap2\n      swap1\n      pop\n      jump\t// out\n        /* \"#utility.yul\":15445:15864   */\n    tag_143:\n        /* \"#utility.yul\":15611:15615   */\n      0x00\n        /* \"#utility.yul\":15649:15651   */\n      0x20\n        /* \"#utility.yul\":15638:15647   */\n      dup3\n        /* \"#utility.yul\":15634:15652   */\n      add\n        /* \"#utility.yul\":15626:15652   */\n      swap1\n      pop\n        /* \"#utility.yul\":15698:15707   */\n      dup2\n        /* \"#utility.yul\":15692:15696   */\n      dup2\n        /* \"#utility.yul\":15688:15708   */\n      sub\n        /* \"#utility.yul\":15684:15685   */\n      0x00\n        /* \"#utility.yul\":15673:15682   */\n      dup4\n        /* \"#utility.yul\":15669:15686   */\n      add\n        /* \"#utility.yul\":15662:15709   */\n      mstore\n        /* \"#utility.yul\":15726:15857   */\n      tag_431\n        /* \"#utility.yul\":15852:15856   */\n      dup2\n        /* \"#utility.yul\":15726:15857   */\n      tag_261\n      jump\t// in\n    tag_431:\n        /* \"#utility.yul\":15718:15857   */\n      swap1\n      pop\n        /* \"#utility.yul\":15445:15864   */\n      swap2\n      swap1\n      pop\n      jump\t// out\n        /* \"#utility.yul\":15870:16042   */\n    tag_262:\n        /* \"#utility.yul\":16010:16034   */\n      0x4f6e6c792063616c6c61626c65206279206f776e657200000000000000000000\n        /* \"#utility.yul\":16006:16007   */\n      0x00\n        /* \"#utility.yul\":15998:16004   */\n      dup3\n        /* \"#utility.yul\":15994:16008   */\n      add\n        /* \"#utility.yul\":15987:16035   */\n      mstore\n        /* \"#utility.yul\":15870:16042   */\n      pop\n      jump\t// out\n        /* \"#utility.yul\":16048:16414   */\n    tag_263:\n        /* \"#utility.yul\":16190:16193   */\n      0x00\n        /* \"#utility.yul\":16211:16278   */\n      tag_434\n        /* \"#utility.yul\":16275:16277   */\n      0x16\n        /* \"#utility.yul\":16270:16273   */\n      dup4\n        /* \"#utility.yul\":16211:16278   */\n      tag_259\n      jump\t// in\n    tag_434:\n        /* \"#utility.yul\":16204:16278   */\n      swap2\n      pop\n        /* \"#utility.yul\":16287:16380   */\n      tag_435\n        /* \"#utility.yul\":16376:16379   */\n      dup3\n        /* \"#utility.yul\":16287:16380   */\n      tag_262\n      jump\t// in\n    tag_435:\n        /* \"#utility.yul\":16405:16407   */\n      0x20\n        /* \"#utility.yul\":16400:16403   */\n      dup3\n        /* \"#utility.yul\":16396:16408   */\n      add\n        /* \"#utility.yul\":16389:16408   */\n      swap1\n      pop\n        /* \"#utility.yul\":16048:16414   */\n      swap2\n      swap1\n      pop\n      jump\t// out\n        /* \"#utility.yul\":16420:16839   */\n    tag_169:\n        /* \"#utility.yul\":16586:16590   */\n      0x00\n        /* \"#utility.yul\":16624:16626   */\n      0x20\n        /* \"#utility.yul\":16613:16622   */\n      dup3\n        /* \"#utility.yul\":16609:16627   */\n      add\n        /* \"#utility.yul\":16601:16627   */\n      swap1\n      pop\n        /* \"#utility.yul\":16673:16682   */\n      dup2\n        /* \"#utility.yul\":16667:16671   */\n      dup2\n        /* \"#utility.yul\":16663:16683   */\n      sub\n        /* \"#utility.yul\":16659:16660   */\n      0x00\n        /* \"#utility.yul\":16648:16657   */\n      dup4\n        /* \"#utility.yul\":16644:16661   */\n      add\n        /* \"#utility.yul\":16637:16684   */\n      mstore\n        /* \"#utility.yul\":16701:16832   */\n      tag_437\n        /* \"#utility.yul\":16827:16831   */\n      dup2\n        /* \"#utility.yul\":16701:16832   */\n      tag_263\n      jump\t// in\n    tag_437:\n        /* \"#utility.yul\":16693:16832   */\n      swap1\n      pop\n        /* \"#utility.yul\":16420:16839   */\n      swap2\n      swap1\n      pop\n      jump\t// out\n        /* \"#utility.yul\":16845:16944   */\n    tag_264:\n        /* \"#utility.yul\":16916:16937   */\n      tag_439\n        /* \"#utility.yul\":16931:16936   */\n      dup2\n        /* \"#utility.yul\":16916:16937   */\n      tag_254\n      jump\t// in\n    tag_439:\n        /* \"#utility.yul\":16911:16914   */\n      dup3\n        /* \"#utility.yul\":16904:16938   */\n      mstore\n        /* \"#utility.yul\":16845:16944   */\n      pop\n      pop\n      jump\t// out\n        /* \"#utility.yul\":17026:17571   */\n    tag_265:\n        /* \"#utility.yul\":17193:17197   */\n      0x40\n        /* \"#utility.yul\":17188:17191   */\n      dup3\n        /* \"#utility.yul\":17184:17198   */\n      add\n        /* \"#utility.yul\":17284:17288   */\n      0x00\n        /* \"#utility.yul\":17277:17282   */\n      dup3\n        /* \"#utility.yul\":17273:17289   */\n      add\n        /* \"#utility.yul\":17267:17290   */\n      mload\n        /* \"#utility.yul\":17303:17366   */\n      tag_441\n        /* \"#utility.yul\":17360:17364   */\n      0x00\n        /* \"#utility.yul\":17355:17358   */\n      dup6\n        /* \"#utility.yul\":17351:17365   */\n      add\n        /* \"#utility.yul\":17337:17349   */\n      dup3\n        /* \"#utility.yul\":17303:17366   */\n      tag_248\n      jump\t// in\n    tag_441:\n        /* \"#utility.yul\":17208:17376   */\n      pop\n        /* \"#utility.yul\":17478:17482   */\n      0x20\n        /* \"#utility.yul\":17471:17476   */\n      dup3\n        /* \"#utility.yul\":17467:17483   */\n      add\n        /* \"#utility.yul\":17461:17484   */\n      mload\n        /* \"#utility.yul\":17497:17554   */\n      tag_442\n        /* \"#utility.yul\":17548:17552   */\n      0x20\n        /* \"#utility.yul\":17543:17546   */\n      dup6\n        /* \"#utility.yul\":17539:17553   */\n      add\n        /* \"#utility.yul\":17525:17537   */\n      dup3\n        /* \"#utility.yul\":17497:17554   */\n      tag_264\n      jump\t// in\n    tag_442:\n        /* \"#utility.yul\":17386:17564   */\n      pop\n        /* \"#utility.yul\":17162:17571   */\n      pop\n        /* \"#utility.yul\":17026:17571   */\n      pop\n      pop\n      jump\t// out\n        /* \"#utility.yul\":17577:17939   */\n    tag_176:\n        /* \"#utility.yul\":17740:17744   */\n      0x00\n        /* \"#utility.yul\":17778:17780   */\n      0x40\n        /* \"#utility.yul\":17767:17776   */\n      dup3\n        /* \"#utility.yul\":17763:17781   */\n      add\n        /* \"#utility.yul\":17755:17781   */\n      swap1\n      pop\n        /* \"#utility.yul\":17791:17932   */\n      tag_444\n        /* \"#utility.yul\":17929:17930   */\n      0x00\n        /* \"#utility.yul\":17918:17927   */\n      dup4\n        /* \"#utility.yul\":17914:17931   */\n      add\n        /* \"#utility.yul\":17905:17911   */\n      dup5\n        /* \"#utility.yul\":17791:17932   */\n      tag_265\n      jump\t// in\n    tag_444:\n        /* \"#utility.yul\":17577:17939   */\n      swap3\n      swap2\n      pop\n      pop\n      jump\t// out\n        /* \"#utility.yul\":17945:18118   */\n    tag_266:\n        /* \"#utility.yul\":18085:18110   */\n      0x43616e6e6f74207472616e7366657220746f2073656c66000000000000000000\n        /* \"#utility.yul\":18081:18082   */\n      0x00\n        /* \"#utility.yul\":18073:18079   */\n      dup3\n        /* \"#utility.yul\":18069:18083   */\n      add\n        /* \"#utility.yul\":18062:18111   */\n      mstore\n        /* \"#utility.yul\":17945:18118   */\n      pop\n      jump\t// out\n        /* \"#utility.yul\":18124:18490   */\n    tag_267:\n        /* \"#utility.yul\":18266:18269   */\n      0x00\n        /* \"#utility.yul\":18287:18354   */\n      tag_447\n        /* \"#utility.yul\":18351:18353   */\n      0x17\n        /* \"#utility.yul\":18346:18349   */\n      dup4\n        /* \"#utility.yul\":18287:18354   */\n      tag_259\n      jump\t// in\n    tag_447:\n        /* \"#utility.yul\":18280:18354   */\n      swap2\n      pop\n        /* \"#utility.yul\":18363:18456   */\n      tag_448\n        /* \"#utility.yul\":18452:18455   */\n      dup3\n        /* \"#utility.yul\":18363:18456   */\n      tag_266\n      jump\t// in\n    tag_448:\n        /* \"#utility.yul\":18481:18483   */\n      0x20\n        /* \"#utility.yul\":18476:18479   */\n      dup3\n        /* \"#utility.yul\":18472:18484   */\n      add\n        /* \"#utility.yul\":18465:18484   */\n      swap1\n      pop\n        /* \"#utility.yul\":18124:18490   */\n      swap2\n      swap1\n      pop\n      jump\t// out\n        /* \"#utility.yul\":18496:18915   */\n    tag_180:\n        /* \"#utility.yul\":18662:18666   */\n      0x00\n        /* \"#utility.yul\":18700:18702   */\n      0x20\n        /* \"#utility.yul\":18689:18698   */\n      dup3\n        /* \"#utility.yul\":18685:18703   */\n      add\n        /* \"#utility.yul\":18677:18703   */\n      swap1\n      pop\n        /* \"#utility.yul\":18749:18758   */\n      dup2\n        /* \"#utility.yul\":18743:18747   */\n      dup2\n        /* \"#utility.yul\":18739:18759   */\n      sub\n        /* \"#utility.yul\":18735:18736   */\n      0x00\n        /* \"#utility.yul\":18724:18733   */\n      dup4\n        /* \"#utility.yul\":18720:18737   */\n      add\n        /* \"#utility.yul\":18713:18760   */\n      mstore\n        /* \"#utility.yul\":18777:18908   */\n      tag_450\n        /* \"#utility.yul\":18903:18907   */\n      dup2\n        /* \"#utility.yul\":18777:18908   */\n      tag_267\n      jump\t// in\n    tag_450:\n        /* \"#utility.yul\":18769:18908   */\n      swap1\n      pop\n        /* \"#utility.yul\":18496:18915   */\n      swap2\n      swap1\n      pop\n      jump\t// out\n        /* \"#utility.yul\":18921:19150   */\n    tag_268:\n        /* \"#utility.yul\":19061:19095   */\n      0x5361666545524332303a204552433230206f7065726174696f6e20646964206e\n        /* \"#utility.yul\":19057:19058   */\n      0x00\n        /* \"#utility.yul\":19049:19055   */\n      dup3\n        /* \"#utility.yul\":19045:19059   */\n      add\n        /* \"#utility.yul\":19038:19096   */\n      mstore\n        /* \"#utility.yul\":19130:19142   */\n      0x6f74207375636365656400000000000000000000000000000000000000000000\n        /* \"#utility.yul\":19125:19127   */\n      0x20\n        /* \"#utility.yul\":19117:19123   */\n      dup3\n        /* \"#utility.yul\":19113:19128   */\n      add\n        /* \"#utility.yul\":19106:19143   */\n      mstore\n        /* \"#utility.yul\":18921:19150   */\n      pop\n      jump\t// out\n        /* \"#utility.yul\":19156:19522   */\n    tag_269:\n        /* \"#utility.yul\":19298:19301   */\n      0x00\n        /* \"#utility.yul\":19319:19386   */\n      tag_453\n        /* \"#utility.yul\":19383:19385   */\n      0x2a\n        /* \"#utility.yul\":19378:19381   */\n      dup4\n        /* \"#utility.yul\":19319:19386   */\n      tag_259\n      jump\t// in\n    tag_453:\n        /* \"#utility.yul\":19312:19386   */\n      swap2\n      pop\n        /* \"#utility.yul\":19395:19488   */\n      tag_454\n        /* \"#utility.yul\":19484:19487   */\n      dup3\n        /* \"#utility.yul\":19395:19488   */\n      tag_268\n      jump\t// in\n    tag_454:\n        /* \"#utility.yul\":19513:19515   */\n      0x40\n        /* \"#utility.yul\":19508:19511   */\n      dup3\n        /* \"#utility.yul\":19504:19516   */\n      add\n        /* \"#utility.yul\":19497:19516   */\n      swap1\n      pop\n        /* \"#utility.yul\":19156:19522   */\n      swap2\n      swap1\n      pop\n      jump\t// out\n        /* \"#utility.yul\":19528:19947   */\n    tag_188:\n        /* \"#utility.yul\":19694:19698   */\n      0x00\n        /* \"#utility.yul\":19732:19734   */\n      0x20\n        /* \"#utility.yul\":19721:19730   */\n      dup3\n        /* \"#utility.yul\":19717:19735   */\n      add\n        /* \"#utility.yul\":19709:19735   */\n      swap1\n      pop\n        /* \"#utility.yul\":19781:19790   */\n      dup2\n        /* \"#utility.yul\":19775:19779   */\n      dup2\n        /* \"#utility.yul\":19771:19791   */\n      sub\n        /* \"#utility.yul\":19767:19768   */\n      0x00\n        /* \"#utility.yul\":19756:19765   */\n      dup4\n        /* \"#utility.yul\":19752:19769   */\n      add\n        /* \"#utility.yul\":19745:19792   */\n      mstore\n        /* \"#utility.yul\":19809:19940   */\n      tag_456\n        /* \"#utility.yul\":19935:19939   */\n      dup2\n        /* \"#utility.yul\":19809:19940   */\n      tag_269\n      jump\t// in\n    tag_456:\n        /* \"#utility.yul\":19801:19940   */\n      swap1\n      pop\n        /* \"#utility.yul\":19528:19947   */\n      swap2\n      swap1\n      pop\n      jump\t// out\n        /* \"#utility.yul\":19953:20178   */\n    tag_270:\n        /* \"#utility.yul\":20093:20127   */\n      0x416464726573733a20696e73756666696369656e742062616c616e636520666f\n        /* \"#utility.yul\":20089:20090   */\n      0x00\n        /* \"#utility.yul\":20081:20087   */\n      dup3\n        /* \"#utility.yul\":20077:20091   */\n      add\n        /* \"#utility.yul\":20070:20128   */\n      mstore\n        /* \"#utility.yul\":20162:20170   */\n      0x722063616c6c0000000000000000000000000000000000000000000000000000\n        /* \"#utility.yul\":20157:20159   */\n      0x20\n        /* \"#utility.yul\":20149:20155   */\n      dup3\n        /* \"#utility.yul\":20145:20160   */\n      add\n        /* \"#utility.yul\":20138:20171   */\n      mstore\n        /* \"#utility.yul\":19953:20178   */\n      pop\n      jump\t// out\n        /* \"#utility.yul\":20184:20550   */\n    tag_271:\n        /* \"#utility.yul\":20326:20329   */\n      0x00\n        /* \"#utility.yul\":20347:20414   */\n      tag_459\n        /* \"#utility.yul\":20411:20413   */\n      0x26\n        /* \"#utility.yul\":20406:20409   */\n      dup4\n        /* \"#utility.yul\":20347:20414   */\n      tag_259\n      jump\t// in\n    tag_459:\n        /* \"#utility.yul\":20340:20414   */\n      swap2\n      pop\n        /* \"#utility.yul\":20423:20516   */\n      tag_460\n        /* \"#utility.yul\":20512:20515   */\n      dup3\n        /* \"#utility.yul\":20423:20516   */\n      tag_270\n      jump\t// in\n    tag_460:\n        /* \"#utility.yul\":20541:20543   */\n      0x40\n        /* \"#utility.yul\":20536:20539   */\n      dup3\n        /* \"#utility.yul\":20532:20544   */\n      add\n        /* \"#utility.yul\":20525:20544   */\n      swap1\n      pop\n        /* \"#utility.yul\":20184:20550   */\n      swap2\n      swap1\n      pop\n      jump\t// out\n        /* \"#utility.yul\":20556:20975   */\n    tag_195:\n        /* \"#utility.yul\":20722:20726   */\n      0x00\n        /* \"#utility.yul\":20760:20762   */\n      0x20\n        /* \"#utility.yul\":20749:20758   */\n      dup3\n        /* \"#utility.yul\":20745:20763   */\n      add\n        /* \"#utility.yul\":20737:20763   */\n      swap1\n      pop\n        /* \"#utility.yul\":20809:20818   */\n      dup2\n        /* \"#utility.yul\":20803:20807   */\n      dup2\n        /* \"#utility.yul\":20799:20819   */\n      sub\n        /* \"#utility.yul\":20795:20796   */\n      0x00\n        /* \"#utility.yul\":20784:20793   */\n      dup4\n        /* \"#utility.yul\":20780:20797   */\n      add\n        /* \"#utility.yul\":20773:20820   */\n      mstore\n        /* \"#utility.yul\":20837:20968   */\n      tag_462\n        /* \"#utility.yul\":20963:20967   */\n      dup2\n        /* \"#utility.yul\":20837:20968   */\n      tag_271\n      jump\t// in\n    tag_462:\n        /* \"#utility.yul\":20829:20968   */\n      swap1\n      pop\n        /* \"#utility.yul\":20556:20975   */\n      swap2\n      swap1\n      pop\n      jump\t// out\n        /* \"#utility.yul\":20981:21128   */\n    tag_272:\n        /* \"#utility.yul\":21082:21093   */\n      0x00\n        /* \"#utility.yul\":21119:21122   */\n      dup2\n        /* \"#utility.yul\":21104:21122   */\n      swap1\n      pop\n        /* \"#utility.yul\":20981:21128   */\n      swap3\n      swap2\n      pop\n      pop\n      jump\t// out\n        /* \"#utility.yul\":21134:21520   */\n    tag_273:\n        /* \"#utility.yul\":21238:21241   */\n      0x00\n        /* \"#utility.yul\":21266:21304   */\n      tag_465\n        /* \"#utility.yul\":21298:21303   */\n      dup3\n        /* \"#utility.yul\":21266:21304   */\n      tag_239\n      jump\t// in\n    tag_465:\n        /* \"#utility.yul\":21320:21408   */\n      tag_466\n        /* \"#utility.yul\":21401:21407   */\n      dup2\n        /* \"#utility.yul\":21396:21399   */\n      dup6\n        /* \"#utility.yul\":21320:21408   */\n      tag_272\n      jump\t// in\n    tag_466:\n        /* \"#utility.yul\":21313:21408   */\n      swap4\n      pop\n        /* \"#utility.yul\":21417:21482   */\n      tag_467\n        /* \"#utility.yul\":21475:21481   */\n      dup2\n        /* \"#utility.yul\":21470:21473   */\n      dup6\n        /* \"#utility.yul\":21463:21467   */\n      0x20\n        /* \"#utility.yul\":21456:21461   */\n      dup7\n        /* \"#utility.yul\":21452:21468   */\n      add\n        /* \"#utility.yul\":21417:21482   */\n      tag_241\n      jump\t// in\n    tag_467:\n        /* \"#utility.yul\":21507:21513   */\n      dup1\n        /* \"#utility.yul\":21502:21505   */\n      dup5\n        /* \"#utility.yul\":21498:21514   */\n      add\n        /* \"#utility.yul\":21491:21514   */\n      swap2\n      pop\n        /* \"#utility.yul\":21242:21520   */\n      pop\n        /* \"#utility.yul\":21134:21520   */\n      swap3\n      swap2\n      pop\n      pop\n      jump\t// out\n        /* \"#utility.yul\":21526:21797   */\n    tag_197:\n        /* \"#utility.yul\":21656:21659   */\n      0x00\n        /* \"#utility.yul\":21678:21771   */\n      tag_469\n        /* \"#utility.yul\":21767:21770   */\n      dup3\n        /* \"#utility.yul\":21758:21764   */\n      dup5\n        /* \"#utility.yul\":21678:21771   */\n      tag_273\n      jump\t// in\n    tag_469:\n        /* \"#utility.yul\":21671:21771   */\n      swap2\n      pop\n        /* \"#utility.yul\":21788:21791   */\n      dup2\n        /* \"#utility.yul\":21781:21791   */\n      swap1\n      pop\n        /* \"#utility.yul\":21526:21797   */\n      swap3\n      swap2\n      pop\n      pop\n      jump\t// out\n        /* \"#utility.yul\":21803:21982   */\n    tag_274:\n        /* \"#utility.yul\":21943:21974   */\n      0x416464726573733a2063616c6c20746f206e6f6e2d636f6e7472616374000000\n        /* \"#utility.yul\":21939:21940   */\n      0x00\n        /* \"#utility.yul\":21931:21937   */\n      dup3\n        /* \"#utility.yul\":21927:21941   */\n      add\n        /* \"#utility.yul\":21920:21975   */\n      mstore\n        /* \"#utility.yul\":21803:21982   */\n      pop\n      jump\t// out\n        /* \"#utility.yul\":21988:22354   */\n    tag_275:\n        /* \"#utility.yul\":22130:22133   */\n      0x00\n        /* \"#utility.yul\":22151:22218   */\n      tag_472\n        /* \"#utility.yul\":22215:22217   */\n      0x1d\n        /* \"#utility.yul\":22210:22213   */\n      dup4\n        /* \"#utility.yul\":22151:22218   */\n      tag_259\n      jump\t// in\n    tag_472:\n        /* \"#utility.yul\":22144:22218   */\n      swap2\n      pop\n        /* \"#utility.yul\":22227:22320   */\n      tag_473\n        /* \"#utility.yul\":22316:22319   */\n      dup3\n        /* \"#utility.yul\":22227:22320   */\n      tag_274\n      jump\t// in\n    tag_473:\n        /* \"#utility.yul\":22345:22347   */\n      0x20\n        /* \"#utility.yul\":22340:22343   */\n      dup3\n        /* \"#utility.yul\":22336:22348   */\n      add\n        /* \"#utility.yul\":22329:22348   */\n      swap1\n      pop\n        /* \"#utility.yul\":21988:22354   */\n      swap2\n      swap1\n      pop\n      jump\t// out\n        /* \"#utility.yul\":22360:22779   */\n    tag_210:\n        /* \"#utility.yul\":22526:22530   */\n      0x00\n        /* \"#utility.yul\":22564:22566   */\n      0x20\n        /* \"#utility.yul\":22553:22562   */\n      dup3\n        /* \"#utility.yul\":22549:22567   */\n      add\n        /* \"#utility.yul\":22541:22567   */\n      swap1\n      pop\n        /* \"#utility.yul\":22613:22622   */\n      dup2\n        /* \"#utility.yul\":22607:22611   */\n      dup2\n        /* \"#utility.yul\":22603:22623   */\n      sub\n        /* \"#utility.yul\":22599:22600   */\n      0x00\n        /* \"#utility.yul\":22588:22597   */\n      dup4\n        /* \"#utility.yul\":22584:22601   */\n      add\n        /* \"#utility.yul\":22577:22624   */\n      mstore\n        /* \"#utility.yul\":22641:22772   */\n      tag_475\n        /* \"#utility.yul\":22767:22771   */\n      dup2\n        /* \"#utility.yul\":22641:22772   */\n      tag_275\n      jump\t// in\n    tag_475:\n        /* \"#utility.yul\":22633:22772   */\n      swap1\n      pop\n        /* \"#utility.yul\":22360:22779   */\n      swap2\n      swap1\n      pop\n      jump\t// out\n        /* \"#utility.yul\":22785:22884   */\n    tag_276:\n        /* \"#utility.yul\":22837:22843   */\n      0x00\n        /* \"#utility.yul\":22871:22876   */\n      dup2\n        /* \"#utility.yul\":22865:22877   */\n      mload\n        /* \"#utility.yul\":22855:22877   */\n      swap1\n      pop\n        /* \"#utility.yul\":22785:22884   */\n      swap2\n      swap1\n      pop\n      jump\t// out\n        /* \"#utility.yul\":22890:23267   */\n    tag_277:\n        /* \"#utility.yul\":22978:22981   */\n      0x00\n        /* \"#utility.yul\":23006:23045   */\n      tag_478\n        /* \"#utility.yul\":23039:23044   */\n      dup3\n        /* \"#utility.yul\":23006:23045   */\n      tag_276\n      jump\t// in\n    tag_478:\n        /* \"#utility.yul\":23061:23132   */\n      tag_479\n        /* \"#utility.yul\":23125:23131   */\n      dup2\n        /* \"#utility.yul\":23120:23123   */\n      dup6\n        /* \"#utility.yul\":23061:23132   */\n      tag_259\n      jump\t// in\n    tag_479:\n        /* \"#utility.yul\":23054:23132   */\n      swap4\n      pop\n        /* \"#utility.yul\":23141:23206   */\n      tag_480\n        /* \"#utility.yul\":23199:23205   */\n      dup2\n        /* \"#utility.yul\":23194:23197   */\n      dup6\n        /* \"#utility.yul\":23187:23191   */\n      0x20\n        /* \"#utility.yul\":23180:23185   */\n      dup7\n        /* \"#utility.yul\":23176:23192   */\n      add\n        /* \"#utility.yul\":23141:23206   */\n      tag_241\n      jump\t// in\n    tag_480:\n        /* \"#utility.yul\":23231:23260   */\n      tag_481\n        /* \"#utility.yul\":23253:23259   */\n      dup2\n        /* \"#utility.yul\":23231:23260   */\n      tag_242\n      jump\t// in\n    tag_481:\n        /* \"#utility.yul\":23226:23229   */\n      dup5\n        /* \"#utility.yul\":23222:23261   */\n      add\n        /* \"#utility.yul\":23215:23261   */\n      swap2\n      pop\n        /* \"#utility.yul\":22982:23267   */\n      pop\n        /* \"#utility.yul\":22890:23267   */\n      swap3\n      swap2\n      pop\n      pop\n      jump\t// out\n        /* \"#utility.yul\":23273:23586   */\n    tag_219:\n        /* \"#utility.yul\":23386:23390   */\n      0x00\n        /* \"#utility.yul\":23424:23426   */\n      0x20\n        /* \"#utility.yul\":23413:23422   */\n      dup3\n        /* \"#utility.yul\":23409:23427   */\n      add\n        /* \"#utility.yul\":23401:23427   */\n      swap1\n      pop\n        /* \"#utility.yul\":23473:23482   */\n      dup2\n        /* \"#utility.yul\":23467:23471   */\n      dup2\n        /* \"#utility.yul\":23463:23483   */\n      sub\n        /* \"#utility.yul\":23459:23460   */\n      0x00\n        /* \"#utility.yul\":23448:23457   */\n      dup4\n        /* \"#utility.yul\":23444:23461   */\n      add\n        /* \"#utility.yul\":23437:23484   */\n      mstore\n        /* \"#utility.yul\":23501:23579   */\n      tag_483\n        /* \"#utility.yul\":23574:23578   */\n      dup2\n        /* \"#utility.yul\":23565:23571   */\n      dup5\n        /* \"#utility.yul\":23501:23579   */\n      tag_277\n      jump\t// in\n    tag_483:\n        /* \"#utility.yul\":23493:23579   */\n      swap1\n      pop\n        /* \"#utility.yul\":23273:23586   */\n      swap3\n      swap2\n      pop\n      pop\n      jump\t// out\n\n    auxdata: 0xa2646970667358221220c612db290536855f586365fa26b8db8afde2765313be009005c64ba8fb89df9064736f6c63430008180033\n}\n",
				"bytecode": {
					"linkReferences": {},
					"object": "60e060405234801562000010575f80fd5b506040516200287d3803806200287d83398181016040528101906200003691906200049b565b33805f8073ffffffffffffffffffffffffffffffffffffffff168273ffffffffffffffffffffffffffffffffffffffff1603620000aa576040517f08c379a0000000000000000000000000000000000000000000000000000000008152600401620000a19062000552565b60405180910390fd5b815f806101000a81548173ffffffffffffffffffffffffffffffffffffffff021916908373ffffffffffffffffffffffffffffffffffffffff1602179055505f73ffffffffffffffffffffffffffffffffffffffff168173ffffffffffffffffffffffffffffffffffffffff16146200012f576200012e816200030960201b60201c565b5b5050505f73ffffffffffffffffffffffffffffffffffffffff168373ffffffffffffffffffffffffffffffffffffffff160362000198576040517f466d7fef00000000000000000000000000000000000000000000000000000000815260040160405180910390fd5b5f73ffffffffffffffffffffffffffffffffffffffff168273ffffffffffffffffffffffffffffffffffffffff1603620001fe576040517f899a9e3000000000000000000000000000000000000000000000000000000000815260040160405180910390fd5b5f73ffffffffffffffffffffffffffffffffffffffff168173ffffffffffffffffffffffffffffffffffffffff160362000264576040517fb83a5cf700000000000000000000000000000000000000000000000000000000815260040160405180910390fd5b8273ffffffffffffffffffffffffffffffffffffffff1660808173ffffffffffffffffffffffffffffffffffffffff16815250508173ffffffffffffffffffffffffffffffffffffffff1660a08173ffffffffffffffffffffffffffffffffffffffff16815250508073ffffffffffffffffffffffffffffffffffffffff1660c08173ffffffffffffffffffffffffffffffffffffffff1681525050505050620005e0565b3373ffffffffffffffffffffffffffffffffffffffff168173ffffffffffffffffffffffffffffffffffffffff16036200037a576040517f08c379a00000000000000000000000000000000000000000000000000000000081526004016200037190620005c0565b60405180910390fd5b8060015f6101000a81548173ffffffffffffffffffffffffffffffffffffffff021916908373ffffffffffffffffffffffffffffffffffffffff1602179055508073ffffffffffffffffffffffffffffffffffffffff165f8054906101000a900473ffffffffffffffffffffffffffffffffffffffff1673ffffffffffffffffffffffffffffffffffffffff167fed8889f560326eb138920d842192f0eb3dd22b4f139c87a2c57538e05bae127860405160405180910390a350565b5f80fd5b5f73ffffffffffffffffffffffffffffffffffffffff82169050919050565b5f62000465826200043a565b9050919050565b620004778162000459565b811462000482575f80fd5b50565b5f8151905062000495816200046c565b92915050565b5f805f60608486031215620004b557620004b462000436565b5b5f620004c48682870162000485565b9350506020620004d78682870162000485565b9250506040620004ea8682870162000485565b9150509250925092565b5f82825260208201905092915050565b7f43616e6e6f7420736574206f776e657220746f207a65726f00000000000000005f82015250565b5f6200053a601883620004f4565b9150620005478262000504565b602082019050919050565b5f6020820190508181035f8301526200056b816200052c565b9050919050565b7f43616e6e6f74207472616e7366657220746f2073656c660000000000000000005f82015250565b5f620005a8601783620004f4565b9150620005b58262000572565b602082019050919050565b5f6020820190508181035f830152620005d9816200059a565b9050919050565b60805160a05160c051612217620006665f395f818161074301528181610b8401528181610d2201528181611096015261116e01525f8181610216015281816102ee0152818161085501528181610953015281816109f201528181610ac80152610d4401525f81816108b701528181610b0401528181610bc00152610c4001526122175ff3fe608060405234801561000f575f80fd5b50600436106100a7575f3560e01c806379ba50971161006f57806379ba50971461015f5780638da5cb5b146101695780639c18c57014610187578063c2d0c769146101a3578063f2fde38b146101bf578063f3651fe6146101db576100a7565b80633141d65c146100ab5780633f3b7a6f146100c75780635dc2594e146100e357806365b4b203146100ff5780636e5d76a21461012f575b5f80fd5b6100c560048036038101906100c091906117b3565b61020b565b005b6100e160048036038101906100dc919061181b565b610336565b005b6100fd60048036038101906100f8919061188c565b61044f565b005b610119600480360381019061011491906118ca565b610503565b6040516101269190611904565b60405180910390f35b6101496004803603810190610144919061191d565b610533565b6040516101569190611985565b60405180910390f35b610167610d8a565b005b610171610f19565b60405161017e9190611904565b60405180910390f35b6101a1600480360381019061019c91906118ca565b610f40565b005b6101bd60048036038101906101b891906117b3565b61108b565b005b6101d960048036038101906101d491906117b3565b6111b6565b005b6101f560048036038101906101f091906118ca565b6111ca565b60405161020291906119ad565b60405180910390f35b6102136111df565b5f7f000000000000000000000000000000000000000000000000000000000000000073ffffffffffffffffffffffffffffffffffffffff166370a08231306040518263ffffffff1660e01b815260040161026d9190611904565b602060405180830381865afa158015610288573d5f803e3d5ffd5b505050506040513d601f19601f820116820180604052508101906102ac91906119da565b90505f81036102e7576040517fd0d04f6000000000000000000000000000000000000000000000000000000000815260040160405180910390fd5b61033282827f000000000000000000000000000000000000000000000000000000000000000073ffffffffffffffffffffffffffffffffffffffff1661126e9092919063ffffffff16565b5050565b61033e6111df565b815f8167ffffffffffffffff1603610382576040517fb86ac1ef00000000000000000000000000000000000000000000000000000000815260040160405180910390fd5b5f73ffffffffffffffffffffffffffffffffffffffff168273ffffffffffffffffffffffffffffffffffffffff16036103e7576040517fa05ff47e00000000000000000000000000000000000000000000000000000000815260040160405180910390fd5b8160025f8567ffffffffffffffff1667ffffffffffffffff1681526020019081526020015f205f6101000a81548173ffffffffffffffffffffffffffffffffffffffff021916908373ffffffffffffffffffffffffffffffffffffffff160217905550505050565b6104576111df565b815f8167ffffffffffffffff160361049b576040517fb86ac1ef00000000000000000000000000000000000000000000000000000000815260040160405180910390fd5b5f82036104d4576040517f98bdb2e000000000000000000000000000000000000000000000000000000000815260040160405180910390fd5b8160035f8567ffffffffffffffff1667ffffffffffffffff1681526020019081526020015f2081905550505050565b6002602052805f5260405f205f915054906101000a900473ffffffffffffffffffffffffffffffffffffffff1681565b5f61053c6111df565b835f8167ffffffffffffffff1603610580576040517fb86ac1ef00000000000000000000000000000000000000000000000000000000815260040160405180910390fd5b5f60025f8767ffffffffffffffff1667ffffffffffffffff1681526020019081526020015f205f9054906101000a900473ffffffffffffffffffffffffffffffffffffffff1690505f73ffffffffffffffffffffffffffffffffffffffff168173ffffffffffffffffffffffffffffffffffffffff160361063857856040517f67a1bf1d00000000000000000000000000000000000000000000000000000000815260040161062f9190611a14565b60405180910390fd5b5f8403610671576040517f43ad20fc00000000000000000000000000000000000000000000000000000000815260040160405180910390fd5b5f60035f8867ffffffffffffffff1667ffffffffffffffff1681526020019081526020015f205490505f81036106de57866040517fb638ee9f0000000000000000000000000000000000000000000000000000000081526004016106d59190611a14565b60405180910390fd5b5f600167ffffffffffffffff8111156106fa576106f9611a2d565b5b60405190808252806020026020018201604052801561073357816020015b610720611727565b8152602001906001900390816107185790505b50905060405180604001604052807f000000000000000000000000000000000000000000000000000000000000000073ffffffffffffffffffffffffffffffffffffffff16815260200187815250815f8151811061079457610793611a5a565b5b60200260200101819052505f6040518060a00160405280856040516020016107bc9190611904565b604051602081830303815290604052815260200163adc9772e60e01b8a8a6040516024016107eb929190611a87565b604051602081830303815290604052907bffffffffffffffffffffffffffffffffffffffffffffffffffffffff19166020820180517bffffffffffffffffffffffffffffffffffffffffffffffffffffffff838183161783525050505081526020018381526020017f000000000000000000000000000000000000000000000000000000000000000073ffffffffffffffffffffffffffffffffffffffff1681526020016108af6040518060400160405280878152602001600115158152506112f4565b81525090505f7f000000000000000000000000000000000000000000000000000000000000000073ffffffffffffffffffffffffffffffffffffffff166320487ded8b846040518363ffffffff1660e01b8152600401610910929190611cb3565b602060405180830381865afa15801561092b573d5f803e3d5ffd5b505050506040513d601f19601f8201168201806040525081019061094f91906119da565b90507f000000000000000000000000000000000000000000000000000000000000000073ffffffffffffffffffffffffffffffffffffffff166370a08231306040518263ffffffff1660e01b81526004016109aa9190611904565b602060405180830381865afa1580156109c5573d5f803e3d5ffd5b505050506040513d601f19601f820116820180604052508101906109e991906119da565b811115610ac6577f000000000000000000000000000000000000000000000000000000000000000073ffffffffffffffffffffffffffffffffffffffff166370a08231306040518263ffffffff1660e01b8152600401610a499190611904565b602060405180830381865afa158015610a64573d5f803e3d5ffd5b505050506040513d601f19601f82011682018060405250810190610a8891906119da565b816040517f8f0f4206000000000000000000000000000000000000000000000000000000008152600401610abd929190611ce1565b60405180910390fd5b7f000000000000000000000000000000000000000000000000000000000000000073ffffffffffffffffffffffffffffffffffffffff1663095ea7b37f0000000000000000000000000000000000000000000000000000000000000000836040518363ffffffff1660e01b8152600401610b41929190611a87565b6020604051808303815f875af1158015610b5d573d5f803e3d5ffd5b505050506040513d601f19601f82011682018060405250810190610b819190611d3d565b507f000000000000000000000000000000000000000000000000000000000000000073ffffffffffffffffffffffffffffffffffffffff1663095ea7b37f00000000000000000000000000000000000000000000000000000000000000008a6040518363ffffffff1660e01b8152600401610bfd929190611a87565b6020604051808303815f875af1158015610c19573d5f803e3d5ffd5b505050506040513d601f19601f82011682018060405250810190610c3d9190611d3d565b507f000000000000000000000000000000000000000000000000000000000000000073ffffffffffffffffffffffffffffffffffffffff166396f4e9f98b846040518363ffffffff1660e01b8152600401610c99929190611cb3565b6020604051808303815f875af1158015610cb5573d5f803e3d5ffd5b505050506040513d601f19601f82011682018060405250810190610cd99190611d92565b96508473ffffffffffffffffffffffffffffffffffffffff168a67ffffffffffffffff16887f80f8e2b9197752b9e33afaa4f92703ac7efbbf247cddcc732b1b555ff1dea27b8c7f00000000000000000000000000000000000000000000000000000000000000008d7f000000000000000000000000000000000000000000000000000000000000000088604051610d75959493929190611dbd565b60405180910390a45050505050509392505050565b60015f9054906101000a900473ffffffffffffffffffffffffffffffffffffffff1673ffffffffffffffffffffffffffffffffffffffff163373ffffffffffffffffffffffffffffffffffffffff1614610e19576040517f08c379a0000000000000000000000000000000000000000000000000000000008152600401610e1090611e68565b60405180910390fd5b5f805f9054906101000a900473ffffffffffffffffffffffffffffffffffffffff169050335f806101000a81548173ffffffffffffffffffffffffffffffffffffffff021916908373ffffffffffffffffffffffffffffffffffffffff1602179055505f60015f6101000a81548173ffffffffffffffffffffffffffffffffffffffff021916908373ffffffffffffffffffffffffffffffffffffffff1602179055503373ffffffffffffffffffffffffffffffffffffffff168173ffffffffffffffffffffffffffffffffffffffff167f8be0079c531659141344cd1fd0a4f28419497f9722a3daafe3b4186f6b6457e060405160405180910390a350565b5f805f9054906101000a900473ffffffffffffffffffffffffffffffffffffffff16905090565b610f486111df565b805f8167ffffffffffffffff1603610f8c576040517fb86ac1ef00000000000000000000000000000000000000000000000000000000815260040160405180910390fd5b5f73ffffffffffffffffffffffffffffffffffffffff1660025f8467ffffffffffffffff1667ffffffffffffffff1681526020019081526020015f205f9054906101000a900473ffffffffffffffffffffffffffffffffffffffff1673ffffffffffffffffffffffffffffffffffffffff160361104057816040517f67a1bf1d0000000000000000000000000000000000000000000000000000000081526004016110379190611a14565b60405180910390fd5b60025f8367ffffffffffffffff1667ffffffffffffffff1681526020019081526020015f205f6101000a81549073ffffffffffffffffffffffffffffffffffffffff02191690555050565b6110936111df565b5f7f000000000000000000000000000000000000000000000000000000000000000073ffffffffffffffffffffffffffffffffffffffff166370a08231306040518263ffffffff1660e01b81526004016110ed9190611904565b602060405180830381865afa158015611108573d5f803e3d5ffd5b505050506040513d601f19601f8201168201806040525081019061112c91906119da565b90505f8103611167576040517fd0d04f6000000000000000000000000000000000000000000000000000000000815260040160405180910390fd5b6111b282827f000000000000000000000000000000000000000000000000000000000000000073ffffffffffffffffffffffffffffffffffffffff1661126e9092919063ffffffff16565b5050565b6111be6111df565b6111c781611373565b50565b6003602052805f5260405f205f915090505481565b5f8054906101000a900473ffffffffffffffffffffffffffffffffffffffff1673ffffffffffffffffffffffffffffffffffffffff163373ffffffffffffffffffffffffffffffffffffffff161461126c576040517f08c379a000000000000000000000000000000000000000000000000000000000815260040161126390611ed0565b60405180910390fd5b565b6112ef8363a9059cbb60e01b848460405160240161128d929190611a87565b604051602081830303815290604052907bffffffffffffffffffffffffffffffffffffffffffffffffffffffff19166020820180517bffffffffffffffffffffffffffffffffffffffffffffffffffffffff838183161783525050505061149d565b505050565b606063181dcf1060e01b8260405160240161130f9190611f2a565b604051602081830303815290604052907bffffffffffffffffffffffffffffffffffffffffffffffffffffffff19166020820180517bffffffffffffffffffffffffffffffffffffffffffffffffffffffff83818316178352505050509050919050565b3373ffffffffffffffffffffffffffffffffffffffff168173ffffffffffffffffffffffffffffffffffffffff16036113e1576040517f08c379a00000000000000000000000000000000000000000000000000000000081526004016113d890611f8d565b60405180910390fd5b8060015f6101000a81548173ffffffffffffffffffffffffffffffffffffffff021916908373ffffffffffffffffffffffffffffffffffffffff1602179055508073ffffffffffffffffffffffffffffffffffffffff165f8054906101000a900473ffffffffffffffffffffffffffffffffffffffff1673ffffffffffffffffffffffffffffffffffffffff167fed8889f560326eb138920d842192f0eb3dd22b4f139c87a2c57538e05bae127860405160405180910390a350565b5f6114fe826040518060400160405280602081526020017f5361666545524332303a206c6f772d6c6576656c2063616c6c206661696c65648152508573ffffffffffffffffffffffffffffffffffffffff166115629092919063ffffffff16565b90505f8151111561155d578080602001905181019061151d9190611d3d565b61155c576040517f08c379a00000000000000000000000000000000000000000000000000000000081526004016115539061201b565b60405180910390fd5b5b505050565b606061157084845f85611579565b90509392505050565b6060824710156115be576040517f08c379a00000000000000000000000000000000000000000000000000000000081526004016115b5906120a9565b60405180910390fd5b5f808673ffffffffffffffffffffffffffffffffffffffff1685876040516115e69190612101565b5f6040518083038185875af1925050503d805f8114611620576040519150601f19603f3d011682016040523d82523d5f602084013e611625565b606091505b509150915061163687838387611642565b92505050949350505050565b606083156116a3575f83510361169b5761165b856116b6565b61169a576040517f08c379a000000000000000000000000000000000000000000000000000000000815260040161169190612161565b60405180910390fd5b5b8290506116ae565b6116ad83836116d8565b5b949350505050565b5f808273ffffffffffffffffffffffffffffffffffffffff163b119050919050565b5f825111156116ea5781518083602001fd5b806040517f08c379a000000000000000000000000000000000000000000000000000000000815260040161171e91906121c1565b60405180910390fd5b60405180604001604052805f73ffffffffffffffffffffffffffffffffffffffff1681526020015f81525090565b5f80fd5b5f73ffffffffffffffffffffffffffffffffffffffff82169050919050565b5f61178282611759565b9050919050565b61179281611778565b811461179c575f80fd5b50565b5f813590506117ad81611789565b92915050565b5f602082840312156117c8576117c7611755565b5b5f6117d58482850161179f565b91505092915050565b5f67ffffffffffffffff82169050919050565b6117fa816117de565b8114611804575f80fd5b50565b5f81359050611815816117f1565b92915050565b5f806040838503121561183157611830611755565b5b5f61183e85828601611807565b925050602061184f8582860161179f565b9150509250929050565b5f819050919050565b61186b81611859565b8114611875575f80fd5b50565b5f8135905061188681611862565b92915050565b5f80604083850312156118a2576118a1611755565b5b5f6118af85828601611807565b92505060206118c085828601611878565b9150509250929050565b5f602082840312156118df576118de611755565b5b5f6118ec84828501611807565b91505092915050565b6118fe81611778565b82525050565b5f6020820190506119175f8301846118f5565b92915050565b5f805f6060848603121561193457611933611755565b5b5f61194186828701611807565b93505060206119528682870161179f565b925050604061196386828701611878565b9150509250925092565b5f819050919050565b61197f8161196d565b82525050565b5f6020820190506119985f830184611976565b92915050565b6119a781611859565b82525050565b5f6020820190506119c05f83018461199e565b92915050565b5f815190506119d481611862565b92915050565b5f602082840312156119ef576119ee611755565b5b5f6119fc848285016119c6565b91505092915050565b611a0e816117de565b82525050565b5f602082019050611a275f830184611a05565b92915050565b7f4e487b71000000000000000000000000000000000000000000000000000000005f52604160045260245ffd5b7f4e487b71000000000000000000000000000000000000000000000000000000005f52603260045260245ffd5b5f604082019050611a9a5f8301856118f5565b611aa7602083018461199e565b9392505050565b5f81519050919050565b5f82825260208201905092915050565b5f5b83811015611ae5578082015181840152602081019050611aca565b5f8484015250505050565b5f601f19601f8301169050919050565b5f611b0a82611aae565b611b148185611ab8565b9350611b24818560208601611ac8565b611b2d81611af0565b840191505092915050565b5f81519050919050565b5f82825260208201905092915050565b5f819050602082019050919050565b611b6a81611778565b82525050565b611b7981611859565b82525050565b604082015f820151611b935f850182611b61565b506020820151611ba66020850182611b70565b50505050565b5f611bb78383611b7f565b60408301905092915050565b5f602082019050919050565b5f611bd982611b38565b611be38185611b42565b9350611bee83611b52565b805f5b83811015611c1e578151611c058882611bac565b9750611c1083611bc3565b925050600181019050611bf1565b5085935050505092915050565b5f60a083015f8301518482035f860152611c458282611b00565b91505060208301518482036020860152611c5f8282611b00565b91505060408301518482036040860152611c798282611bcf565b9150506060830151611c8e6060860182611b61565b5060808301518482036080860152611ca68282611b00565b9150508091505092915050565b5f604082019050611cc65f830185611a05565b8181036020830152611cd88184611c2b565b90509392505050565b5f604082019050611cf45f83018561199e565b611d01602083018461199e565b9392505050565b5f8115159050919050565b611d1c81611d08565b8114611d26575f80fd5b50565b5f81519050611d3781611d13565b92915050565b5f60208284031215611d5257611d51611755565b5b5f611d5f84828501611d29565b91505092915050565b611d718161196d565b8114611d7b575f80fd5b50565b5f81519050611d8c81611d68565b92915050565b5f60208284031215611da757611da6611755565b5b5f611db484828501611d7e565b91505092915050565b5f60a082019050611dd05f8301886118f5565b611ddd60208301876118f5565b611dea604083018661199e565b611df760608301856118f5565b611e04608083018461199e565b9695505050505050565b5f82825260208201905092915050565b7f4d7573742062652070726f706f736564206f776e6572000000000000000000005f82015250565b5f611e52601683611e0e565b9150611e5d82611e1e565b602082019050919050565b5f6020820190508181035f830152611e7f81611e46565b9050919050565b7f4f6e6c792063616c6c61626c65206279206f776e6572000000000000000000005f82015250565b5f611eba601683611e0e565b9150611ec582611e86565b602082019050919050565b5f6020820190508181035f830152611ee781611eae565b9050919050565b611ef781611d08565b82525050565b604082015f820151611f115f850182611b70565b506020820151611f246020850182611eee565b50505050565b5f604082019050611f3d5f830184611efd565b92915050565b7f43616e6e6f74207472616e7366657220746f2073656c660000000000000000005f82015250565b5f611f77601783611e0e565b9150611f8282611f43565b602082019050919050565b5f6020820190508181035f830152611fa481611f6b565b9050919050565b7f5361666545524332303a204552433230206f7065726174696f6e20646964206e5f8201527f6f74207375636365656400000000000000000000000000000000000000000000602082015250565b5f612005602a83611e0e565b915061201082611fab565b604082019050919050565b5f6020820190508181035f83015261203281611ff9565b9050919050565b7f416464726573733a20696e73756666696369656e742062616c616e636520666f5f8201527f722063616c6c0000000000000000000000000000000000000000000000000000602082015250565b5f612093602683611e0e565b915061209e82612039565b604082019050919050565b5f6020820190508181035f8301526120c081612087565b9050919050565b5f81905092915050565b5f6120db82611aae565b6120e581856120c7565b93506120f5818560208601611ac8565b80840191505092915050565b5f61210c82846120d1565b915081905092915050565b7f416464726573733a2063616c6c20746f206e6f6e2d636f6e74726163740000005f82015250565b5f61214b601d83611e0e565b915061215682612117565b602082019050919050565b5f6020820190508181035f8301526121788161213f565b9050919050565b5f81519050919050565b5f6121938261217f565b61219d8185611e0e565b93506121ad818560208601611ac8565b6121b681611af0565b840191505092915050565b5f6020820190508181035f8301526121d98184612189565b90509291505056fea2646970667358221220c612db290536855f586365fa26b8db8afde2765313be009005c64ba8fb89df9064736f6c63430008180033",
					"opcodes": "PUSH1 0xE0 PUSH1 0x40 MSTORE CALLVALUE DUP1 ISZERO PUSH3 0x10 JUMPI PUSH0 DUP1 REVERT JUMPDEST POP PUSH1 0x40 MLOAD PUSH3 0x287D CODESIZE SUB DUP1 PUSH3 0x287D DUP4 CODECOPY DUP2 DUP2 ADD PUSH1 0x40 MSTORE DUP2 ADD SWAP1 PUSH3 0x36 SWAP2 SWAP1 PUSH3 0x49B JUMP JUMPDEST CALLER DUP1 PUSH0 DUP1 PUSH20 0xFFFFFFFFFFFFFFFFFFFFFFFFFFFFFFFFFFFFFFFF AND DUP3 PUSH20 0xFFFFFFFFFFFFFFFFFFFFFFFFFFFFFFFFFFFFFFFF AND SUB PUSH3 0xAA JUMPI PUSH1 0x40 MLOAD PUSH32 0x8C379A000000000000000000000000000000000000000000000000000000000 DUP2 MSTORE PUSH1 0x4 ADD PUSH3 0xA1 SWAP1 PUSH3 0x552 JUMP JUMPDEST PUSH1 0x40 MLOAD DUP1 SWAP2 SUB SWAP1 REVERT JUMPDEST DUP2 PUSH0 DUP1 PUSH2 0x100 EXP DUP2 SLOAD DUP2 PUSH20 0xFFFFFFFFFFFFFFFFFFFFFFFFFFFFFFFFFFFFFFFF MUL NOT AND SWAP1 DUP4 PUSH20 0xFFFFFFFFFFFFFFFFFFFFFFFFFFFFFFFFFFFFFFFF AND MUL OR SWAP1 SSTORE POP PUSH0 PUSH20 0xFFFFFFFFFFFFFFFFFFFFFFFFFFFFFFFFFFFFFFFF AND DUP2 PUSH20 0xFFFFFFFFFFFFFFFFFFFFFFFFFFFFFFFFFFFFFFFF AND EQ PUSH3 0x12F JUMPI PUSH3 0x12E DUP2 PUSH3 0x309 PUSH1 0x20 SHL PUSH1 0x20 SHR JUMP JUMPDEST JUMPDEST POP POP POP PUSH0 PUSH20 0xFFFFFFFFFFFFFFFFFFFFFFFFFFFFFFFFFFFFFFFF AND DUP4 PUSH20 0xFFFFFFFFFFFFFFFFFFFFFFFFFFFFFFFFFFFFFFFF AND SUB PUSH3 0x198 JUMPI PUSH1 0x40 MLOAD PUSH32 0x466D7FEF00000000000000000000000000000000000000000000000000000000 DUP2 MSTORE PUSH1 0x4 ADD PUSH1 0x40 MLOAD DUP1 SWAP2 SUB SWAP1 REVERT JUMPDEST PUSH0 PUSH20 0xFFFFFFFFFFFFFFFFFFFFFFFFFFFFFFFFFFFFFFFF AND DUP3 PUSH20 0xFFFFFFFFFFFFFFFFFFFFFFFFFFFFFFFFFFFFFFFF AND SUB PUSH3 0x1FE JUMPI PUSH1 0x40 MLOAD PUSH32 0x899A9E3000000000000000000000000000000000000000000000000000000000 DUP2 MSTORE PUSH1 0x4 ADD PUSH1 0x40 MLOAD DUP1 SWAP2 SUB SWAP1 REVERT JUMPDEST PUSH0 PUSH20 0xFFFFFFFFFFFFFFFFFFFFFFFFFFFFFFFFFFFFFFFF AND DUP2 PUSH20 0xFFFFFFFFFFFFFFFFFFFFFFFFFFFFFFFFFFFFFFFF AND SUB PUSH3 0x264 JUMPI PUSH1 0x40 MLOAD PUSH32 0xB83A5CF700000000000000000000000000000000000000000000000000000000 DUP2 MSTORE PUSH1 0x4 ADD PUSH1 0x40 MLOAD DUP1 SWAP2 SUB SWAP1 REVERT JUMPDEST DUP3 PUSH20 0xFFFFFFFFFFFFFFFFFFFFFFFFFFFFFFFFFFFFFFFF AND PUSH1 0x80 DUP2 PUSH20 0xFFFFFFFFFFFFFFFFFFFFFFFFFFFFFFFFFFFFFFFF AND DUP2 MSTORE POP POP DUP2 PUSH20 0xFFFFFFFFFFFFFFFFFFFFFFFFFFFFFFFFFFFFFFFF AND PUSH1 0xA0 DUP2 PUSH20 0xFFFFFFFFFFFFFFFFFFFFFFFFFFFFFFFFFFFFFFFF AND DUP2 MSTORE POP POP DUP1 PUSH20 0xFFFFFFFFFFFFFFFFFFFFFFFFFFFFFFFFFFFFFFFF AND PUSH1 0xC0 DUP2 PUSH20 0xFFFFFFFFFFFFFFFFFFFFFFFFFFFFFFFFFFFFFFFF AND DUP2 MSTORE POP POP POP POP POP PUSH3 0x5E0 JUMP JUMPDEST CALLER PUSH20 0xFFFFFFFFFFFFFFFFFFFFFFFFFFFFFFFFFFFFFFFF AND DUP2 PUSH20 0xFFFFFFFFFFFFFFFFFFFFFFFFFFFFFFFFFFFFFFFF AND SUB PUSH3 0x37A JUMPI PUSH1 0x40 MLOAD PUSH32 0x8C379A000000000000000000000000000000000000000000000000000000000 DUP2 MSTORE PUSH1 0x4 ADD PUSH3 0x371 SWAP1 PUSH3 0x5C0 JUMP JUMPDEST PUSH1 0x40 MLOAD DUP1 SWAP2 SUB SWAP1 REVERT JUMPDEST DUP1 PUSH1 0x1 PUSH0 PUSH2 0x100 EXP DUP2 SLOAD DUP2 PUSH20 0xFFFFFFFFFFFFFFFFFFFFFFFFFFFFFFFFFFFFFFFF MUL NOT AND SWAP1 DUP4 PUSH20 0xFFFFFFFFFFFFFFFFFFFFFFFFFFFFFFFFFFFFFFFF AND MUL OR SWAP1 SSTORE POP DUP1 PUSH20 0xFFFFFFFFFFFFFFFFFFFFFFFFFFFFFFFFFFFFFFFF AND PUSH0 DUP1 SLOAD SWAP1 PUSH2 0x100 EXP SWAP1 DIV PUSH20 0xFFFFFFFFFFFFFFFFFFFFFFFFFFFFFFFFFFFFFFFF AND PUSH20 0xFFFFFFFFFFFFFFFFFFFFFFFFFFFFFFFFFFFFFFFF AND PUSH32 0xED8889F560326EB138920D842192F0EB3DD22B4F139C87A2C57538E05BAE1278 PUSH1 0x40 MLOAD PUSH1 0x40 MLOAD DUP1 SWAP2 SUB SWAP1 LOG3 POP JUMP JUMPDEST PUSH0 DUP1 REVERT JUMPDEST PUSH0 PUSH20 0xFFFFFFFFFFFFFFFFFFFFFFFFFFFFFFFFFFFFFFFF DUP3 AND SWAP1 POP SWAP2 SWAP1 POP JUMP JUMPDEST PUSH0 PUSH3 0x465 DUP3 PUSH3 0x43A JUMP JUMPDEST SWAP1 POP SWAP2 SWAP1 POP JUMP JUMPDEST PUSH3 0x477 DUP2 PUSH3 0x459 JUMP JUMPDEST DUP2 EQ PUSH3 0x482 JUMPI PUSH0 DUP1 REVERT JUMPDEST POP JUMP JUMPDEST PUSH0 DUP2 MLOAD SWAP1 POP PUSH3 0x495 DUP2 PUSH3 0x46C JUMP JUMPDEST SWAP3 SWAP2 POP POP JUMP JUMPDEST PUSH0 DUP1 PUSH0 PUSH1 0x60 DUP5 DUP7 SUB SLT ISZERO PUSH3 0x4B5 JUMPI PUSH3 0x4B4 PUSH3 0x436 JUMP JUMPDEST JUMPDEST PUSH0 PUSH3 0x4C4 DUP7 DUP3 DUP8 ADD PUSH3 0x485 JUMP JUMPDEST SWAP4 POP POP PUSH1 0x20 PUSH3 0x4D7 DUP7 DUP3 DUP8 ADD PUSH3 0x485 JUMP JUMPDEST SWAP3 POP POP PUSH1 0x40 PUSH3 0x4EA DUP7 DUP3 DUP8 ADD PUSH3 0x485 JUMP JUMPDEST SWAP2 POP POP SWAP3 POP SWAP3 POP SWAP3 JUMP JUMPDEST PUSH0 DUP3 DUP3 MSTORE PUSH1 0x20 DUP3 ADD SWAP1 POP SWAP3 SWAP2 POP POP JUMP JUMPDEST PUSH32 0x43616E6E6F7420736574206F776E657220746F207A65726F0000000000000000 PUSH0 DUP3 ADD MSTORE POP JUMP JUMPDEST PUSH0 PUSH3 0x53A PUSH1 0x18 DUP4 PUSH3 0x4F4 JUMP JUMPDEST SWAP2 POP PUSH3 0x547 DUP3 PUSH3 0x504 JUMP JUMPDEST PUSH1 0x20 DUP3 ADD SWAP1 POP SWAP2 SWAP1 POP JUMP JUMPDEST PUSH0 PUSH1 0x20 DUP3 ADD SWAP1 POP DUP2 DUP2 SUB PUSH0 DUP4 ADD MSTORE PUSH3 0x56B DUP2 PUSH3 0x52C JUMP JUMPDEST SWAP1 POP SWAP2 SWAP1 POP JUMP JUMPDEST PUSH32 0x43616E6E6F74207472616E7366657220746F2073656C66000000000000000000 PUSH0 DUP3 ADD MSTORE POP JUMP JUMPDEST PUSH0 PUSH3 0x5A8 PUSH1 0x17 DUP4 PUSH3 0x4F4 JUMP JUMPDEST SWAP2 POP PUSH3 0x5B5 DUP3 PUSH3 0x572 JUMP JUMPDEST PUSH1 0x20 DUP3 ADD SWAP1 POP SWAP2 SWAP1 POP JUMP JUMPDEST PUSH0 PUSH1 0x20 DUP3 ADD SWAP1 POP DUP2 DUP2 SUB PUSH0 DUP4 ADD MSTORE PUSH3 0x5D9 DUP2 PUSH3 0x59A JUMP JUMPDEST SWAP1 POP SWAP2 SWAP1 POP JUMP JUMPDEST PUSH1 0x80 MLOAD PUSH1 0xA0 MLOAD PUSH1 0xC0 MLOAD PUSH2 0x2217 PUSH3 0x666 PUSH0 CODECOPY PUSH0 DUP2 DUP2 PUSH2 0x743 ADD MSTORE DUP2 DUP2 PUSH2 0xB84 ADD MSTORE DUP2 DUP2 PUSH2 0xD22 ADD MSTORE DUP2 DUP2 PUSH2 0x1096 ADD MSTORE PUSH2 0x116E ADD MSTORE PUSH0 DUP2 DUP2 PUSH2 0x216 ADD MSTORE DUP2 DUP2 PUSH2 0x2EE ADD MSTORE DUP2 DUP2 PUSH2 0x855 ADD MSTORE DUP2 DUP2 PUSH2 0x953 ADD MSTORE DUP2 DUP2 PUSH2 0x9F2 ADD MSTORE DUP2 DUP2 PUSH2 0xAC8 ADD MSTORE PUSH2 0xD44 ADD MSTORE PUSH0 DUP2 DUP2 PUSH2 0x8B7 ADD MSTORE DUP2 DUP2 PUSH2 0xB04 ADD MSTORE DUP2 DUP2 PUSH2 0xBC0 ADD MSTORE PUSH2 0xC40 ADD MSTORE PUSH2 0x2217 PUSH0 RETURN INVALID PUSH1 0x80 PUSH1 0x40 MSTORE CALLVALUE DUP1 ISZERO PUSH2 0xF JUMPI PUSH0 DUP1 REVERT JUMPDEST POP PUSH1 0x4 CALLDATASIZE LT PUSH2 0xA7 JUMPI PUSH0 CALLDATALOAD PUSH1 0xE0 SHR DUP1 PUSH4 0x79BA5097 GT PUSH2 0x6F JUMPI DUP1 PUSH4 0x79BA5097 EQ PUSH2 0x15F JUMPI DUP1 PUSH4 0x8DA5CB5B EQ PUSH2 0x169 JUMPI DUP1 PUSH4 0x9C18C570 EQ PUSH2 0x187 JUMPI DUP1 PUSH4 0xC2D0C769 EQ PUSH2 0x1A3 JUMPI DUP1 PUSH4 0xF2FDE38B EQ PUSH2 0x1BF JUMPI DUP1 PUSH4 0xF3651FE6 EQ PUSH2 0x1DB JUMPI PUSH2 0xA7 JUMP JUMPDEST DUP1 PUSH4 0x3141D65C EQ PUSH2 0xAB JUMPI DUP1 PUSH4 0x3F3B7A6F EQ PUSH2 0xC7 JUMPI DUP1 PUSH4 0x5DC2594E EQ PUSH2 0xE3 JUMPI DUP1 PUSH4 0x65B4B203 EQ PUSH2 0xFF JUMPI DUP1 PUSH4 0x6E5D76A2 EQ PUSH2 0x12F JUMPI JUMPDEST PUSH0 DUP1 REVERT JUMPDEST PUSH2 0xC5 PUSH1 0x4 DUP1 CALLDATASIZE SUB DUP2 ADD SWAP1 PUSH2 0xC0 SWAP2 SWAP1 PUSH2 0x17B3 JUMP JUMPDEST PUSH2 0x20B JUMP JUMPDEST STOP JUMPDEST PUSH2 0xE1 PUSH1 0x4 DUP1 CALLDATASIZE SUB DUP2 ADD SWAP1 PUSH2 0xDC SWAP2 SWAP1 PUSH2 0x181B JUMP JUMPDEST PUSH2 0x336 JUMP JUMPDEST STOP JUMPDEST PUSH2 0xFD PUSH1 0x4 DUP1 CALLDATASIZE SUB DUP2 ADD SWAP1 PUSH2 0xF8 SWAP2 SWAP1 PUSH2 0x188C JUMP JUMPDEST PUSH2 0x44F JUMP JUMPDEST STOP JUMPDEST PUSH2 0x119 PUSH1 0x4 DUP1 CALLDATASIZE SUB DUP2 ADD SWAP1 PUSH2 0x114 SWAP2 SWAP1 PUSH2 0x18CA JUMP JUMPDEST PUSH2 0x503 JUMP JUMPDEST PUSH1 0x40 MLOAD PUSH2 0x126 SWAP2 SWAP1 PUSH2 0x1904 JUMP JUMPDEST PUSH1 0x40 MLOAD DUP1 SWAP2 SUB SWAP1 RETURN JUMPDEST PUSH2 0x149 PUSH1 0x4 DUP1 CALLDATASIZE SUB DUP2 ADD SWAP1 PUSH2 0x144 SWAP2 SWAP1 PUSH2 0x191D JUMP JUMPDEST PUSH2 0x533 JUMP JUMPDEST PUSH1 0x40 MLOAD PUSH2 0x156 SWAP2 SWAP1 PUSH2 0x1985 JUMP JUMPDEST PUSH1 0x40 MLOAD DUP1 SWAP2 SUB SWAP1 RETURN JUMPDEST PUSH2 0x167 PUSH2 0xD8A JUMP JUMPDEST STOP JUMPDEST PUSH2 0x171 PUSH2 0xF19 JUMP JUMPDEST PUSH1 0x40 MLOAD PUSH2 0x17E SWAP2 SWAP1 PUSH2 0x1904 JUMP JUMPDEST PUSH1 0x40 MLOAD DUP1 SWAP2 SUB SWAP1 RETURN JUMPDEST PUSH2 0x1A1 PUSH1 0x4 DUP1 CALLDATASIZE SUB DUP2 ADD SWAP1 PUSH2 0x19C SWAP2 SWAP1 PUSH2 0x18CA JUMP JUMPDEST PUSH2 0xF40 JUMP JUMPDEST STOP JUMPDEST PUSH2 0x1BD PUSH1 0x4 DUP1 CALLDATASIZE SUB DUP2 ADD SWAP1 PUSH2 0x1B8 SWAP2 SWAP1 PUSH2 0x17B3 JUMP JUMPDEST PUSH2 0x108B JUMP JUMPDEST STOP JUMPDEST PUSH2 0x1D9 PUSH1 0x4 DUP1 CALLDATASIZE SUB DUP2 ADD SWAP1 PUSH2 0x1D4 SWAP2 SWAP1 PUSH2 0x17B3 JUMP JUMPDEST PUSH2 0x11B6 JUMP JUMPDEST STOP JUMPDEST PUSH2 0x1F5 PUSH1 0x4 DUP1 CALLDATASIZE SUB DUP2 ADD SWAP1 PUSH2 0x1F0 SWAP2 SWAP1 PUSH2 0x18CA JUMP JUMPDEST PUSH2 0x11CA JUMP JUMPDEST PUSH1 0x40 MLOAD PUSH2 0x202 SWAP2 SWAP1 PUSH2 0x19AD JUMP JUMPDEST PUSH1 0x40 MLOAD DUP1 SWAP2 SUB SWAP1 RETURN JUMPDEST PUSH2 0x213 PUSH2 0x11DF JUMP JUMPDEST PUSH0 PUSH32 0x0 PUSH20 0xFFFFFFFFFFFFFFFFFFFFFFFFFFFFFFFFFFFFFFFF AND PUSH4 0x70A08231 ADDRESS PUSH1 0x40 MLOAD DUP3 PUSH4 0xFFFFFFFF AND PUSH1 0xE0 SHL DUP2 MSTORE PUSH1 0x4 ADD PUSH2 0x26D SWAP2 SWAP1 PUSH2 0x1904 JUMP JUMPDEST PUSH1 0x20 PUSH1 0x40 MLOAD DUP1 DUP4 SUB DUP2 DUP7 GAS STATICCALL ISZERO DUP1 ISZERO PUSH2 0x288 JUMPI RETURNDATASIZE PUSH0 DUP1 RETURNDATACOPY RETURNDATASIZE PUSH0 REVERT JUMPDEST POP POP POP POP PUSH1 0x40 MLOAD RETURNDATASIZE PUSH1 0x1F NOT PUSH1 0x1F DUP3 ADD AND DUP3 ADD DUP1 PUSH1 0x40 MSTORE POP DUP2 ADD SWAP1 PUSH2 0x2AC SWAP2 SWAP1 PUSH2 0x19DA JUMP JUMPDEST SWAP1 POP PUSH0 DUP2 SUB PUSH2 0x2E7 JUMPI PUSH1 0x40 MLOAD PUSH32 0xD0D04F6000000000000000000000000000000000000000000000000000000000 DUP2 MSTORE PUSH1 0x4 ADD PUSH1 0x40 MLOAD DUP1 SWAP2 SUB SWAP1 REVERT JUMPDEST PUSH2 0x332 DUP3 DUP3 PUSH32 0x0 PUSH20 0xFFFFFFFFFFFFFFFFFFFFFFFFFFFFFFFFFFFFFFFF AND PUSH2 0x126E SWAP1 SWAP3 SWAP2 SWAP1 PUSH4 0xFFFFFFFF AND JUMP JUMPDEST POP POP JUMP JUMPDEST PUSH2 0x33E PUSH2 0x11DF JUMP JUMPDEST DUP2 PUSH0 DUP2 PUSH8 0xFFFFFFFFFFFFFFFF AND SUB PUSH2 0x382 JUMPI PUSH1 0x40 MLOAD PUSH32 0xB86AC1EF00000000000000000000000000000000000000000000000000000000 DUP2 MSTORE PUSH1 0x4 ADD PUSH1 0x40 MLOAD DUP1 SWAP2 SUB SWAP1 REVERT JUMPDEST PUSH0 PUSH20 0xFFFFFFFFFFFFFFFFFFFFFFFFFFFFFFFFFFFFFFFF AND DUP3 PUSH20 0xFFFFFFFFFFFFFFFFFFFFFFFFFFFFFFFFFFFFFFFF AND SUB PUSH2 0x3E7 JUMPI PUSH1 0x40 MLOAD PUSH32 0xA05FF47E00000000000000000000000000000000000000000000000000000000 DUP2 MSTORE PUSH1 0x4 ADD PUSH1 0x40 MLOAD DUP1 SWAP2 SUB SWAP1 REVERT JUMPDEST DUP2 PUSH1 0x2 PUSH0 DUP6 PUSH8 0xFFFFFFFFFFFFFFFF AND PUSH8 0xFFFFFFFFFFFFFFFF AND DUP2 MSTORE PUSH1 0x20 ADD SWAP1 DUP2 MSTORE PUSH1 0x20 ADD PUSH0 KECCAK256 PUSH0 PUSH2 0x100 EXP DUP2 SLOAD DUP2 PUSH20 0xFFFFFFFFFFFFFFFFFFFFFFFFFFFFFFFFFFFFFFFF MUL NOT AND SWAP1 DUP4 PUSH20 0xFFFFFFFFFFFFFFFFFFFFFFFFFFFFFFFFFFFFFFFF AND MUL OR SWAP1 SSTORE POP POP POP POP JUMP JUMPDEST PUSH2 0x457 PUSH2 0x11DF JUMP JUMPDEST DUP2 PUSH0 DUP2 PUSH8 0xFFFFFFFFFFFFFFFF AND SUB PUSH2 0x49B JUMPI PUSH1 0x40 MLOAD PUSH32 0xB86AC1EF00000000000000000000000000000000000000000000000000000000 DUP2 MSTORE PUSH1 0x4 ADD PUSH1 0x40 MLOAD DUP1 SWAP2 SUB SWAP1 REVERT JUMPDEST PUSH0 DUP3 SUB PUSH2 0x4D4 JUMPI PUSH1 0x40 MLOAD PUSH32 0x98BDB2E000000000000000000000000000000000000000000000000000000000 DUP2 MSTORE PUSH1 0x4 ADD PUSH1 0x40 MLOAD DUP1 SWAP2 SUB SWAP1 REVERT JUMPDEST DUP2 PUSH1 0x3 PUSH0 DUP6 PUSH8 0xFFFFFFFFFFFFFFFF AND PUSH8 0xFFFFFFFFFFFFFFFF AND DUP2 MSTORE PUSH1 0x20 ADD SWAP1 DUP2 MSTORE PUSH1 0x20 ADD PUSH0 KECCAK256 DUP2 SWAP1 SSTORE POP POP POP POP JUMP JUMPDEST PUSH1 0x2 PUSH1 0x20 MSTORE DUP1 PUSH0 MSTORE PUSH1 0x40 PUSH0 KECCAK256 PUSH0 SWAP2 POP SLOAD SWAP1 PUSH2 0x100 EXP SWAP1 DIV PUSH20 0xFFFFFFFFFFFFFFFFFFFFFFFFFFFFFFFFFFFFFFFF AND DUP2 JUMP JUMPDEST PUSH0 PUSH2 0x53C PUSH2 0x11DF JUMP JUMPDEST DUP4 PUSH0 DUP2 PUSH8 0xFFFFFFFFFFFFFFFF AND SUB PUSH2 0x580 JUMPI PUSH1 0x40 MLOAD PUSH32 0xB86AC1EF00000000000000000000000000000000000000000000000000000000 DUP2 MSTORE PUSH1 0x4 ADD PUSH1 0x40 MLOAD DUP1 SWAP2 SUB SWAP1 REVERT JUMPDEST PUSH0 PUSH1 0x2 PUSH0 DUP8 PUSH8 0xFFFFFFFFFFFFFFFF AND PUSH8 0xFFFFFFFFFFFFFFFF AND DUP2 MSTORE PUSH1 0x20 ADD SWAP1 DUP2 MSTORE PUSH1 0x20 ADD PUSH0 KECCAK256 PUSH0 SWAP1 SLOAD SWAP1 PUSH2 0x100 EXP SWAP1 DIV PUSH20 0xFFFFFFFFFFFFFFFFFFFFFFFFFFFFFFFFFFFFFFFF AND SWAP1 POP PUSH0 PUSH20 0xFFFFFFFFFFFFFFFFFFFFFFFFFFFFFFFFFFFFFFFF AND DUP2 PUSH20 0xFFFFFFFFFFFFFFFFFFFFFFFFFFFFFFFFFFFFFFFF AND SUB PUSH2 0x638 JUMPI DUP6 PUSH1 0x40 MLOAD PUSH32 0x67A1BF1D00000000000000000000000000000000000000000000000000000000 DUP2 MSTORE PUSH1 0x4 ADD PUSH2 0x62F SWAP2 SWAP1 PUSH2 0x1A14 JUMP JUMPDEST PUSH1 0x40 MLOAD DUP1 SWAP2 SUB SWAP1 REVERT JUMPDEST PUSH0 DUP5 SUB PUSH2 0x671 JUMPI PUSH1 0x40 MLOAD PUSH32 0x43AD20FC00000000000000000000000000000000000000000000000000000000 DUP2 MSTORE PUSH1 0x4 ADD PUSH1 0x40 MLOAD DUP1 SWAP2 SUB SWAP1 REVERT JUMPDEST PUSH0 PUSH1 0x3 PUSH0 DUP9 PUSH8 0xFFFFFFFFFFFFFFFF AND PUSH8 0xFFFFFFFFFFFFFFFF AND DUP2 MSTORE PUSH1 0x20 ADD SWAP1 DUP2 MSTORE PUSH1 0x20 ADD PUSH0 KECCAK256 SLOAD SWAP1 POP PUSH0 DUP2 SUB PUSH2 0x6DE JUMPI DUP7 PUSH1 0x40 MLOAD PUSH32 0xB638EE9F00000000000000000000000000000000000000000000000000000000 DUP2 MSTORE PUSH1 0x4 ADD PUSH2 0x6D5 SWAP2 SWAP1 PUSH2 0x1A14 JUMP JUMPDEST PUSH1 0x40 MLOAD DUP1 SWAP2 SUB SWAP1 REVERT JUMPDEST PUSH0 PUSH1 0x1 PUSH8 0xFFFFFFFFFFFFFFFF DUP2 GT ISZERO PUSH2 0x6FA JUMPI PUSH2 0x6F9 PUSH2 0x1A2D JUMP JUMPDEST JUMPDEST PUSH1 0x40 MLOAD SWAP1 DUP1 DUP3 MSTORE DUP1 PUSH1 0x20 MUL PUSH1 0x20 ADD DUP3 ADD PUSH1 0x40 MSTORE DUP1 ISZERO PUSH2 0x733 JUMPI DUP2 PUSH1 0x20 ADD JUMPDEST PUSH2 0x720 PUSH2 0x1727 JUMP JUMPDEST DUP2 MSTORE PUSH1 0x20 ADD SWAP1 PUSH1 0x1 SWAP1 SUB SWAP1 DUP2 PUSH2 0x718 JUMPI SWAP1 POP JUMPDEST POP SWAP1 POP PUSH1 0x40 MLOAD DUP1 PUSH1 0x40 ADD PUSH1 0x40 MSTORE DUP1 PUSH32 0x0 PUSH20 0xFFFFFFFFFFFFFFFFFFFFFFFFFFFFFFFFFFFFFFFF AND DUP2 MSTORE PUSH1 0x20 ADD DUP8 DUP2 MSTORE POP DUP2 PUSH0 DUP2 MLOAD DUP2 LT PUSH2 0x794 JUMPI PUSH2 0x793 PUSH2 0x1A5A JUMP JUMPDEST JUMPDEST PUSH1 0x20 MUL PUSH1 0x20 ADD ADD DUP2 SWAP1 MSTORE POP PUSH0 PUSH1 0x40 MLOAD DUP1 PUSH1 0xA0 ADD PUSH1 0x40 MSTORE DUP1 DUP6 PUSH1 0x40 MLOAD PUSH1 0x20 ADD PUSH2 0x7BC SWAP2 SWAP1 PUSH2 0x1904 JUMP JUMPDEST PUSH1 0x40 MLOAD PUSH1 0x20 DUP2 DUP4 SUB SUB DUP2 MSTORE SWAP1 PUSH1 0x40 MSTORE DUP2 MSTORE PUSH1 0x20 ADD PUSH4 0xADC9772E PUSH1 0xE0 SHL DUP11 DUP11 PUSH1 0x40 MLOAD PUSH1 0x24 ADD PUSH2 0x7EB SWAP3 SWAP2 SWAP1 PUSH2 0x1A87 JUMP JUMPDEST PUSH1 0x40 MLOAD PUSH1 0x20 DUP2 DUP4 SUB SUB DUP2 MSTORE SWAP1 PUSH1 0x40 MSTORE SWAP1 PUSH28 0xFFFFFFFFFFFFFFFFFFFFFFFFFFFFFFFFFFFFFFFFFFFFFFFFFFFFFFFF NOT AND PUSH1 0x20 DUP3 ADD DUP1 MLOAD PUSH28 0xFFFFFFFFFFFFFFFFFFFFFFFFFFFFFFFFFFFFFFFFFFFFFFFFFFFFFFFF DUP4 DUP2 DUP4 AND OR DUP4 MSTORE POP POP POP POP DUP2 MSTORE PUSH1 0x20 ADD DUP4 DUP2 MSTORE PUSH1 0x20 ADD PUSH32 0x0 PUSH20 0xFFFFFFFFFFFFFFFFFFFFFFFFFFFFFFFFFFFFFFFF AND DUP2 MSTORE PUSH1 0x20 ADD PUSH2 0x8AF PUSH1 0x40 MLOAD DUP1 PUSH1 0x40 ADD PUSH1 0x40 MSTORE DUP1 DUP8 DUP2 MSTORE PUSH1 0x20 ADD PUSH1 0x1 ISZERO ISZERO DUP2 MSTORE POP PUSH2 0x12F4 JUMP JUMPDEST DUP2 MSTORE POP SWAP1 POP PUSH0 PUSH32 0x0 PUSH20 0xFFFFFFFFFFFFFFFFFFFFFFFFFFFFFFFFFFFFFFFF AND PUSH4 0x20487DED DUP12 DUP5 PUSH1 0x40 MLOAD DUP4 PUSH4 0xFFFFFFFF AND PUSH1 0xE0 SHL DUP2 MSTORE PUSH1 0x4 ADD PUSH2 0x910 SWAP3 SWAP2 SWAP1 PUSH2 0x1CB3 JUMP JUMPDEST PUSH1 0x20 PUSH1 0x40 MLOAD DUP1 DUP4 SUB DUP2 DUP7 GAS STATICCALL ISZERO DUP1 ISZERO PUSH2 0x92B JUMPI RETURNDATASIZE PUSH0 DUP1 RETURNDATACOPY RETURNDATASIZE PUSH0 REVERT JUMPDEST POP POP POP POP PUSH1 0x40 MLOAD RETURNDATASIZE PUSH1 0x1F NOT PUSH1 0x1F DUP3 ADD AND DUP3 ADD DUP1 PUSH1 0x40 MSTORE POP DUP2 ADD SWAP1 PUSH2 0x94F SWAP2 SWAP1 PUSH2 0x19DA JUMP JUMPDEST SWAP1 POP PUSH32 0x0 PUSH20 0xFFFFFFFFFFFFFFFFFFFFFFFFFFFFFFFFFFFFFFFF AND PUSH4 0x70A08231 ADDRESS PUSH1 0x40 MLOAD DUP3 PUSH4 0xFFFFFFFF AND PUSH1 0xE0 SHL DUP2 MSTORE PUSH1 0x4 ADD PUSH2 0x9AA SWAP2 SWAP1 PUSH2 0x1904 JUMP JUMPDEST PUSH1 0x20 PUSH1 0x40 MLOAD DUP1 DUP4 SUB DUP2 DUP7 GAS STATICCALL ISZERO DUP1 ISZERO PUSH2 0x9C5 JUMPI RETURNDATASIZE PUSH0 DUP1 RETURNDATACOPY RETURNDATASIZE PUSH0 REVERT JUMPDEST POP POP POP POP PUSH1 0x40 MLOAD RETURNDATASIZE PUSH1 0x1F NOT PUSH1 0x1F DUP3 ADD AND DUP3 ADD DUP1 PUSH1 0x40 MSTORE POP DUP2 ADD SWAP1 PUSH2 0x9E9 SWAP2 SWAP1 PUSH2 0x19DA JUMP JUMPDEST DUP2 GT ISZERO PUSH2 0xAC6 JUMPI PUSH32 0x0 PUSH20 0xFFFFFFFFFFFFFFFFFFFFFFFFFFFFFFFFFFFFFFFF AND PUSH4 0x70A08231 ADDRESS PUSH1 0x40 MLOAD DUP3 PUSH4 0xFFFFFFFF AND PUSH1 0xE0 SHL DUP2 MSTORE PUSH1 0x4 ADD PUSH2 0xA49 SWAP2 SWAP1 PUSH2 0x1904 JUMP JUMPDEST PUSH1 0x20 PUSH1 0x40 MLOAD DUP1 DUP4 SUB DUP2 DUP7 GAS STATICCALL ISZERO DUP1 ISZERO PUSH2 0xA64 JUMPI RETURNDATASIZE PUSH0 DUP1 RETURNDATACOPY RETURNDATASIZE PUSH0 REVERT JUMPDEST POP POP POP POP PUSH1 0x40 MLOAD RETURNDATASIZE PUSH1 0x1F NOT PUSH1 0x1F DUP3 ADD AND DUP3 ADD DUP1 PUSH1 0x40 MSTORE POP DUP2 ADD SWAP1 PUSH2 0xA88 SWAP2 SWAP1 PUSH2 0x19DA JUMP JUMPDEST DUP2 PUSH1 0x40 MLOAD PUSH32 0x8F0F420600000000000000000000000000000000000000000000000000000000 DUP2 MSTORE PUSH1 0x4 ADD PUSH2 0xABD SWAP3 SWAP2 SWAP1 PUSH2 0x1CE1 JUMP JUMPDEST PUSH1 0x40 MLOAD DUP1 SWAP2 SUB SWAP1 REVERT JUMPDEST PUSH32 0x0 PUSH20 0xFFFFFFFFFFFFFFFFFFFFFFFFFFFFFFFFFFFFFFFF AND PUSH4 0x95EA7B3 PUSH32 0x0 DUP4 PUSH1 0x40 MLOAD DUP4 PUSH4 0xFFFFFFFF AND PUSH1 0xE0 SHL DUP2 MSTORE PUSH1 0x4 ADD PUSH2 0xB41 SWAP3 SWAP2 SWAP1 PUSH2 0x1A87 JUMP JUMPDEST PUSH1 0x20 PUSH1 0x40 MLOAD DUP1 DUP4 SUB DUP2 PUSH0 DUP8 GAS CALL ISZERO DUP1 ISZERO PUSH2 0xB5D JUMPI RETURNDATASIZE PUSH0 DUP1 RETURNDATACOPY RETURNDATASIZE PUSH0 REVERT JUMPDEST POP POP POP POP PUSH1 0x40 MLOAD RETURNDATASIZE PUSH1 0x1F NOT PUSH1 0x1F DUP3 ADD AND DUP3 ADD DUP1 PUSH1 0x40 MSTORE POP DUP2 ADD SWAP1 PUSH2 0xB81 SWAP2 SWAP1 PUSH2 0x1D3D JUMP JUMPDEST POP PUSH32 0x0 PUSH20 0xFFFFFFFFFFFFFFFFFFFFFFFFFFFFFFFFFFFFFFFF AND PUSH4 0x95EA7B3 PUSH32 0x0 DUP11 PUSH1 0x40 MLOAD DUP4 PUSH4 0xFFFFFFFF AND PUSH1 0xE0 SHL DUP2 MSTORE PUSH1 0x4 ADD PUSH2 0xBFD SWAP3 SWAP2 SWAP1 PUSH2 0x1A87 JUMP JUMPDEST PUSH1 0x20 PUSH1 0x40 MLOAD DUP1 DUP4 SUB DUP2 PUSH0 DUP8 GAS CALL ISZERO DUP1 ISZERO PUSH2 0xC19 JUMPI RETURNDATASIZE PUSH0 DUP1 RETURNDATACOPY RETURNDATASIZE PUSH0 REVERT JUMPDEST POP POP POP POP PUSH1 0x40 MLOAD RETURNDATASIZE PUSH1 0x1F NOT PUSH1 0x1F DUP3 ADD AND DUP3 ADD DUP1 PUSH1 0x40 MSTORE POP DUP2 ADD SWAP1 PUSH2 0xC3D SWAP2 SWAP1 PUSH2 0x1D3D JUMP JUMPDEST POP PUSH32 0x0 PUSH20 0xFFFFFFFFFFFFFFFFFFFFFFFFFFFFFFFFFFFFFFFF AND PUSH4 0x96F4E9F9 DUP12 DUP5 PUSH1 0x40 MLOAD DUP4 PUSH4 0xFFFFFFFF AND PUSH1 0xE0 SHL DUP2 MSTORE PUSH1 0x4 ADD PUSH2 0xC99 SWAP3 SWAP2 SWAP1 PUSH2 0x1CB3 JUMP JUMPDEST PUSH1 0x20 PUSH1 0x40 MLOAD DUP1 DUP4 SUB DUP2 PUSH0 DUP8 GAS CALL ISZERO DUP1 ISZERO PUSH2 0xCB5 JUMPI RETURNDATASIZE PUSH0 DUP1 RETURNDATACOPY RETURNDATASIZE PUSH0 REVERT JUMPDEST POP POP POP POP PUSH1 0x40 MLOAD RETURNDATASIZE PUSH1 0x1F NOT PUSH1 0x1F DUP3 ADD AND DUP3 ADD DUP1 PUSH1 0x40 MSTORE POP DUP2 ADD SWAP1 PUSH2 0xCD9 SWAP2 SWAP1 PUSH2 0x1D92 JUMP JUMPDEST SWAP7 POP DUP5 PUSH20 0xFFFFFFFFFFFFFFFFFFFFFFFFFFFFFFFFFFFFFFFF AND DUP11 PUSH8 0xFFFFFFFFFFFFFFFF AND DUP9 PUSH32 0x80F8E2B9197752B9E33AFAA4F92703AC7EFBBF247CDDCC732B1B555FF1DEA27B DUP13 PUSH32 0x0 DUP14 PUSH32 0x0 DUP9 PUSH1 0x40 MLOAD PUSH2 0xD75 SWAP6 SWAP5 SWAP4 SWAP3 SWAP2 SWAP1 PUSH2 0x1DBD JUMP JUMPDEST PUSH1 0x40 MLOAD DUP1 SWAP2 SUB SWAP1 LOG4 POP POP POP POP POP POP SWAP4 SWAP3 POP POP POP JUMP JUMPDEST PUSH1 0x1 PUSH0 SWAP1 SLOAD SWAP1 PUSH2 0x100 EXP SWAP1 DIV PUSH20 0xFFFFFFFFFFFFFFFFFFFFFFFFFFFFFFFFFFFFFFFF AND PUSH20 0xFFFFFFFFFFFFFFFFFFFFFFFFFFFFFFFFFFFFFFFF AND CALLER PUSH20 0xFFFFFFFFFFFFFFFFFFFFFFFFFFFFFFFFFFFFFFFF AND EQ PUSH2 0xE19 JUMPI PUSH1 0x40 MLOAD PUSH32 0x8C379A000000000000000000000000000000000000000000000000000000000 DUP2 MSTORE PUSH1 0x4 ADD PUSH2 0xE10 SWAP1 PUSH2 0x1E68 JUMP JUMPDEST PUSH1 0x40 MLOAD DUP1 SWAP2 SUB SWAP1 REVERT JUMPDEST PUSH0 DUP1 PUSH0 SWAP1 SLOAD SWAP1 PUSH2 0x100 EXP SWAP1 DIV PUSH20 0xFFFFFFFFFFFFFFFFFFFFFFFFFFFFFFFFFFFFFFFF AND SWAP1 POP CALLER PUSH0 DUP1 PUSH2 0x100 EXP DUP2 SLOAD DUP2 PUSH20 0xFFFFFFFFFFFFFFFFFFFFFFFFFFFFFFFFFFFFFFFF MUL NOT AND SWAP1 DUP4 PUSH20 0xFFFFFFFFFFFFFFFFFFFFFFFFFFFFFFFFFFFFFFFF AND MUL OR SWAP1 SSTORE POP PUSH0 PUSH1 0x1 PUSH0 PUSH2 0x100 EXP DUP2 SLOAD DUP2 PUSH20 0xFFFFFFFFFFFFFFFFFFFFFFFFFFFFFFFFFFFFFFFF MUL NOT AND SWAP1 DUP4 PUSH20 0xFFFFFFFFFFFFFFFFFFFFFFFFFFFFFFFFFFFFFFFF AND MUL OR SWAP1 SSTORE POP CALLER PUSH20 0xFFFFFFFFFFFFFFFFFFFFFFFFFFFFFFFFFFFFFFFF AND DUP2 PUSH20 0xFFFFFFFFFFFFFFFFFFFFFFFFFFFFFFFFFFFFFFFF AND PUSH32 0x8BE0079C531659141344CD1FD0A4F28419497F9722A3DAAFE3B4186F6B6457E0 PUSH1 0x40 MLOAD PUSH1 0x40 MLOAD DUP1 SWAP2 SUB SWAP1 LOG3 POP JUMP JUMPDEST PUSH0 DUP1 PUSH0 SWAP1 SLOAD SWAP1 PUSH2 0x100 EXP SWAP1 DIV PUSH20 0xFFFFFFFFFFFFFFFFFFFFFFFFFFFFFFFFFFFFFFFF AND SWAP1 POP SWAP1 JUMP JUMPDEST PUSH2 0xF48 PUSH2 0x11DF JUMP JUMPDEST DUP1 PUSH0 DUP2 PUSH8 0xFFFFFFFFFFFFFFFF AND SUB PUSH2 0xF8C JUMPI PUSH1 0x40 MLOAD PUSH32 0xB86AC1EF00000000000000000000000000000000000000000000000000000000 DUP2 MSTORE PUSH1 0x4 ADD PUSH1 0x40 MLOAD DUP1 SWAP2 SUB SWAP1 REVERT JUMPDEST PUSH0 PUSH20 0xFFFFFFFFFFFFFFFFFFFFFFFFFFFFFFFFFFFFFFFF AND PUSH1 0x2 PUSH0 DUP5 PUSH8 0xFFFFFFFFFFFFFFFF AND PUSH8 0xFFFFFFFFFFFFFFFF AND DUP2 MSTORE PUSH1 0x20 ADD SWAP1 DUP2 MSTORE PUSH1 0x20 ADD PUSH0 KECCAK256 PUSH0 SWAP1 SLOAD SWAP1 PUSH2 0x100 EXP SWAP1 DIV PUSH20 0xFFFFFFFFFFFFFFFFFFFFFFFFFFFFFFFFFFFFFFFF AND PUSH20 0xFFFFFFFFFFFFFFFFFFFFFFFFFFFFFFFFFFFFFFFF AND SUB PUSH2 0x1040 JUMPI DUP2 PUSH1 0x40 MLOAD PUSH32 0x67A1BF1D00000000000000000000000000000000000000000000000000000000 DUP2 MSTORE PUSH1 0x4 ADD PUSH2 0x1037 SWAP2 SWAP1 PUSH2 0x1A14 JUMP JUMPDEST PUSH1 0x40 MLOAD DUP1 SWAP2 SUB SWAP1 REVERT JUMPDEST PUSH1 0x2 PUSH0 DUP4 PUSH8 0xFFFFFFFFFFFFFFFF AND PUSH8 0xFFFFFFFFFFFFFFFF AND DUP2 MSTORE PUSH1 0x20 ADD SWAP1 DUP2 MSTORE PUSH1 0x20 ADD PUSH0 KECCAK256 PUSH0 PUSH2 0x100 EXP DUP2 SLOAD SWAP1 PUSH20 0xFFFFFFFFFFFFFFFFFFFFFFFFFFFFFFFFFFFFFFFF MUL NOT AND SWAP1 SSTORE POP POP JUMP JUMPDEST PUSH2 0x1093 PUSH2 0x11DF JUMP JUMPDEST PUSH0 PUSH32 0x0 PUSH20 0xFFFFFFFFFFFFFFFFFFFFFFFFFFFFFFFFFFFFFFFF AND PUSH4 0x70A08231 ADDRESS PUSH1 0x40 MLOAD DUP3 PUSH4 0xFFFFFFFF AND PUSH1 0xE0 SHL DUP2 MSTORE PUSH1 0x4 ADD PUSH2 0x10ED SWAP2 SWAP1 PUSH2 0x1904 JUMP JUMPDEST PUSH1 0x20 PUSH1 0x40 MLOAD DUP1 DUP4 SUB DUP2 DUP7 GAS STATICCALL ISZERO DUP1 ISZERO PUSH2 0x1108 JUMPI RETURNDATASIZE PUSH0 DUP1 RETURNDATACOPY RETURNDATASIZE PUSH0 REVERT JUMPDEST POP POP POP POP PUSH1 0x40 MLOAD RETURNDATASIZE PUSH1 0x1F NOT PUSH1 0x1F DUP3 ADD AND DUP3 ADD DUP1 PUSH1 0x40 MSTORE POP DUP2 ADD SWAP1 PUSH2 0x112C SWAP2 SWAP1 PUSH2 0x19DA JUMP JUMPDEST SWAP1 POP PUSH0 DUP2 SUB PUSH2 0x1167 JUMPI PUSH1 0x40 MLOAD PUSH32 0xD0D04F6000000000000000000000000000000000000000000000000000000000 DUP2 MSTORE PUSH1 0x4 ADD PUSH1 0x40 MLOAD DUP1 SWAP2 SUB SWAP1 REVERT JUMPDEST PUSH2 0x11B2 DUP3 DUP3 PUSH32 0x0 PUSH20 0xFFFFFFFFFFFFFFFFFFFFFFFFFFFFFFFFFFFFFFFF AND PUSH2 0x126E SWAP1 SWAP3 SWAP2 SWAP1 PUSH4 0xFFFFFFFF AND JUMP JUMPDEST POP POP JUMP JUMPDEST PUSH2 0x11BE PUSH2 0x11DF JUMP JUMPDEST PUSH2 0x11C7 DUP2 PUSH2 0x1373 JUMP JUMPDEST POP JUMP JUMPDEST PUSH1 0x3 PUSH1 0x20 MSTORE DUP1 PUSH0 MSTORE PUSH1 0x40 PUSH0 KECCAK256 PUSH0 SWAP2 POP SWAP1 POP SLOAD DUP2 JUMP JUMPDEST PUSH0 DUP1 SLOAD SWAP1 PUSH2 0x100 EXP SWAP1 DIV PUSH20 0xFFFFFFFFFFFFFFFFFFFFFFFFFFFFFFFFFFFFFFFF AND PUSH20 0xFFFFFFFFFFFFFFFFFFFFFFFFFFFFFFFFFFFFFFFF AND CALLER PUSH20 0xFFFFFFFFFFFFFFFFFFFFFFFFFFFFFFFFFFFFFFFF AND EQ PUSH2 0x126C JUMPI PUSH1 0x40 MLOAD PUSH32 0x8C379A000000000000000000000000000000000000000000000000000000000 DUP2 MSTORE PUSH1 0x4 ADD PUSH2 0x1263 SWAP1 PUSH2 0x1ED0 JUMP JUMPDEST PUSH1 0x40 MLOAD DUP1 SWAP2 SUB SWAP1 REVERT JUMPDEST JUMP JUMPDEST PUSH2 0x12EF DUP4 PUSH4 0xA9059CBB PUSH1 0xE0 SHL DUP5 DUP5 PUSH1 0x40 MLOAD PUSH1 0x24 ADD PUSH2 0x128D SWAP3 SWAP2 SWAP1 PUSH2 0x1A87 JUMP JUMPDEST PUSH1 0x40 MLOAD PUSH1 0x20 DUP2 DUP4 SUB SUB DUP2 MSTORE SWAP1 PUSH1 0x40 MSTORE SWAP1 PUSH28 0xFFFFFFFFFFFFFFFFFFFFFFFFFFFFFFFFFFFFFFFFFFFFFFFFFFFFFFFF NOT AND PUSH1 0x20 DUP3 ADD DUP1 MLOAD PUSH28 0xFFFFFFFFFFFFFFFFFFFFFFFFFFFFFFFFFFFFFFFFFFFFFFFFFFFFFFFF DUP4 DUP2 DUP4 AND OR DUP4 MSTORE POP POP POP POP PUSH2 0x149D JUMP JUMPDEST POP POP POP JUMP JUMPDEST PUSH1 0x60 PUSH4 0x181DCF10 PUSH1 0xE0 SHL DUP3 PUSH1 0x40 MLOAD PUSH1 0x24 ADD PUSH2 0x130F SWAP2 SWAP1 PUSH2 0x1F2A JUMP JUMPDEST PUSH1 0x40 MLOAD PUSH1 0x20 DUP2 DUP4 SUB SUB DUP2 MSTORE SWAP1 PUSH1 0x40 MSTORE SWAP1 PUSH28 0xFFFFFFFFFFFFFFFFFFFFFFFFFFFFFFFFFFFFFFFFFFFFFFFFFFFFFFFF NOT AND PUSH1 0x20 DUP3 ADD DUP1 MLOAD PUSH28 0xFFFFFFFFFFFFFFFFFFFFFFFFFFFFFFFFFFFFFFFFFFFFFFFFFFFFFFFF DUP4 DUP2 DUP4 AND OR DUP4 MSTORE POP POP POP POP SWAP1 POP SWAP2 SWAP1 POP JUMP JUMPDEST CALLER PUSH20 0xFFFFFFFFFFFFFFFFFFFFFFFFFFFFFFFFFFFFFFFF AND DUP2 PUSH20 0xFFFFFFFFFFFFFFFFFFFFFFFFFFFFFFFFFFFFFFFF AND SUB PUSH2 0x13E1 JUMPI PUSH1 0x40 MLOAD PUSH32 0x8C379A000000000000000000000000000000000000000000000000000000000 DUP2 MSTORE PUSH1 0x4 ADD PUSH2 0x13D8 SWAP1 PUSH2 0x1F8D JUMP JUMPDEST PUSH1 0x40 MLOAD DUP1 SWAP2 SUB SWAP1 REVERT JUMPDEST DUP1 PUSH1 0x1 PUSH0 PUSH2 0x100 EXP DUP2 SLOAD DUP2 PUSH20 0xFFFFFFFFFFFFFFFFFFFFFFFFFFFFFFFFFFFFFFFF MUL NOT AND SWAP1 DUP4 PUSH20 0xFFFFFFFFFFFFFFFFFFFFFFFFFFFFFFFFFFFFFFFF AND MUL OR SWAP1 SSTORE POP DUP1 PUSH20 0xFFFFFFFFFFFFFFFFFFFFFFFFFFFFFFFFFFFFFFFF AND PUSH0 DUP1 SLOAD SWAP1 PUSH2 0x100 EXP SWAP1 DIV PUSH20 0xFFFFFFFFFFFFFFFFFFFFFFFFFFFFFFFFFFFFFFFF AND PUSH20 0xFFFFFFFFFFFFFFFFFFFFFFFFFFFFFFFFFFFFFFFF AND PUSH32 0xED8889F560326EB138920D842192F0EB3DD22B4F139C87A2C57538E05BAE1278 PUSH1 0x40 MLOAD PUSH1 0x40 MLOAD DUP1 SWAP2 SUB SWAP1 LOG3 POP JUMP JUMPDEST PUSH0 PUSH2 0x14FE DUP3 PUSH1 0x40 MLOAD DUP1 PUSH1 0x40 ADD PUSH1 0x40 MSTORE DUP1 PUSH1 0x20 DUP2 MSTORE PUSH1 0x20 ADD PUSH32 0x5361666545524332303A206C6F772D6C6576656C2063616C6C206661696C6564 DUP2 MSTORE POP DUP6 PUSH20 0xFFFFFFFFFFFFFFFFFFFFFFFFFFFFFFFFFFFFFFFF AND PUSH2 0x1562 SWAP1 SWAP3 SWAP2 SWAP1 PUSH4 0xFFFFFFFF AND JUMP JUMPDEST SWAP1 POP PUSH0 DUP2 MLOAD GT ISZERO PUSH2 0x155D JUMPI DUP1 DUP1 PUSH1 0x20 ADD SWAP1 MLOAD DUP2 ADD SWAP1 PUSH2 0x151D SWAP2 SWAP1 PUSH2 0x1D3D JUMP JUMPDEST PUSH2 0x155C JUMPI PUSH1 0x40 MLOAD PUSH32 0x8C379A000000000000000000000000000000000000000000000000000000000 DUP2 MSTORE PUSH1 0x4 ADD PUSH2 0x1553 SWAP1 PUSH2 0x201B JUMP JUMPDEST PUSH1 0x40 MLOAD DUP1 SWAP2 SUB SWAP1 REVERT JUMPDEST JUMPDEST POP POP POP JUMP JUMPDEST PUSH1 0x60 PUSH2 0x1570 DUP5 DUP5 PUSH0 DUP6 PUSH2 0x1579 JUMP JUMPDEST SWAP1 POP SWAP4 SWAP3 POP POP POP JUMP JUMPDEST PUSH1 0x60 DUP3 SELFBALANCE LT ISZERO PUSH2 0x15BE JUMPI PUSH1 0x40 MLOAD PUSH32 0x8C379A000000000000000000000000000000000000000000000000000000000 DUP2 MSTORE PUSH1 0x4 ADD PUSH2 0x15B5 SWAP1 PUSH2 0x20A9 JUMP JUMPDEST PUSH1 0x40 MLOAD DUP1 SWAP2 SUB SWAP1 REVERT JUMPDEST PUSH0 DUP1 DUP7 PUSH20 0xFFFFFFFFFFFFFFFFFFFFFFFFFFFFFFFFFFFFFFFF AND DUP6 DUP8 PUSH1 0x40 MLOAD PUSH2 0x15E6 SWAP2 SWAP1 PUSH2 0x2101 JUMP JUMPDEST PUSH0 PUSH1 0x40 MLOAD DUP1 DUP4 SUB DUP2 DUP6 DUP8 GAS CALL SWAP3 POP POP POP RETURNDATASIZE DUP1 PUSH0 DUP2 EQ PUSH2 0x1620 JUMPI PUSH1 0x40 MLOAD SWAP2 POP PUSH1 0x1F NOT PUSH1 0x3F RETURNDATASIZE ADD AND DUP3 ADD PUSH1 0x40 MSTORE RETURNDATASIZE DUP3 MSTORE RETURNDATASIZE PUSH0 PUSH1 0x20 DUP5 ADD RETURNDATACOPY PUSH2 0x1625 JUMP JUMPDEST PUSH1 0x60 SWAP2 POP JUMPDEST POP SWAP2 POP SWAP2 POP PUSH2 0x1636 DUP8 DUP4 DUP4 DUP8 PUSH2 0x1642 JUMP JUMPDEST SWAP3 POP POP POP SWAP5 SWAP4 POP POP POP POP JUMP JUMPDEST PUSH1 0x60 DUP4 ISZERO PUSH2 0x16A3 JUMPI PUSH0 DUP4 MLOAD SUB PUSH2 0x169B JUMPI PUSH2 0x165B DUP6 PUSH2 0x16B6 JUMP JUMPDEST PUSH2 0x169A JUMPI PUSH1 0x40 MLOAD PUSH32 0x8C379A000000000000000000000000000000000000000000000000000000000 DUP2 MSTORE PUSH1 0x4 ADD PUSH2 0x1691 SWAP1 PUSH2 0x2161 JUMP JUMPDEST PUSH1 0x40 MLOAD DUP1 SWAP2 SUB SWAP1 REVERT JUMPDEST JUMPDEST DUP3 SWAP1 POP PUSH2 0x16AE JUMP JUMPDEST PUSH2 0x16AD DUP4 DUP4 PUSH2 0x16D8 JUMP JUMPDEST JUMPDEST SWAP5 SWAP4 POP POP POP POP JUMP JUMPDEST PUSH0 DUP1 DUP3 PUSH20 0xFFFFFFFFFFFFFFFFFFFFFFFFFFFFFFFFFFFFFFFF AND EXTCODESIZE GT SWAP1 POP SWAP2 SWAP1 POP JUMP JUMPDEST PUSH0 DUP3 MLOAD GT ISZERO PUSH2 0x16EA JUMPI DUP2 MLOAD DUP1 DUP4 PUSH1 0x20 ADD REVERT JUMPDEST DUP1 PUSH1 0x40 MLOAD PUSH32 0x8C379A000000000000000000000000000000000000000000000000000000000 DUP2 MSTORE PUSH1 0x4 ADD PUSH2 0x171E SWAP2 SWAP1 PUSH2 0x21C1 JUMP JUMPDEST PUSH1 0x40 MLOAD DUP1 SWAP2 SUB SWAP1 REVERT JUMPDEST PUSH1 0x40 MLOAD DUP1 PUSH1 0x40 ADD PUSH1 0x40 MSTORE DUP1 PUSH0 PUSH20 0xFFFFFFFFFFFFFFFFFFFFFFFFFFFFFFFFFFFFFFFF AND DUP2 MSTORE PUSH1 0x20 ADD PUSH0 DUP2 MSTORE POP SWAP1 JUMP JUMPDEST PUSH0 DUP1 REVERT JUMPDEST PUSH0 PUSH20 0xFFFFFFFFFFFFFFFFFFFFFFFFFFFFFFFFFFFFFFFF DUP3 AND SWAP1 POP SWAP2 SWAP1 POP JUMP JUMPDEST PUSH0 PUSH2 0x1782 DUP3 PUSH2 0x1759 JUMP JUMPDEST SWAP1 POP SWAP2 SWAP1 POP JUMP JUMPDEST PUSH2 0x1792 DUP2 PUSH2 0x1778 JUMP JUMPDEST DUP2 EQ PUSH2 0x179C JUMPI PUSH0 DUP1 REVERT JUMPDEST POP JUMP JUMPDEST PUSH0 DUP2 CALLDATALOAD SWAP1 POP PUSH2 0x17AD DUP2 PUSH2 0x1789 JUMP JUMPDEST SWAP3 SWAP2 POP POP JUMP JUMPDEST PUSH0 PUSH1 0x20 DUP3 DUP5 SUB SLT ISZERO PUSH2 0x17C8 JUMPI PUSH2 0x17C7 PUSH2 0x1755 JUMP JUMPDEST JUMPDEST PUSH0 PUSH2 0x17D5 DUP5 DUP3 DUP6 ADD PUSH2 0x179F JUMP JUMPDEST SWAP2 POP POP SWAP3 SWAP2 POP POP JUMP JUMPDEST PUSH0 PUSH8 0xFFFFFFFFFFFFFFFF DUP3 AND SWAP1 POP SWAP2 SWAP1 POP JUMP JUMPDEST PUSH2 0x17FA DUP2 PUSH2 0x17DE JUMP JUMPDEST DUP2 EQ PUSH2 0x1804 JUMPI PUSH0 DUP1 REVERT JUMPDEST POP JUMP JUMPDEST PUSH0 DUP2 CALLDATALOAD SWAP1 POP PUSH2 0x1815 DUP2 PUSH2 0x17F1 JUMP JUMPDEST SWAP3 SWAP2 POP POP JUMP JUMPDEST PUSH0 DUP1 PUSH1 0x40 DUP4 DUP6 SUB SLT ISZERO PUSH2 0x1831 JUMPI PUSH2 0x1830 PUSH2 0x1755 JUMP JUMPDEST JUMPDEST PUSH0 PUSH2 0x183E DUP6 DUP3 DUP7 ADD PUSH2 0x1807 JUMP JUMPDEST SWAP3 POP POP PUSH1 0x20 PUSH2 0x184F DUP6 DUP3 DUP7 ADD PUSH2 0x179F JUMP JUMPDEST SWAP2 POP POP SWAP3 POP SWAP3 SWAP1 POP JUMP JUMPDEST PUSH0 DUP2 SWAP1 POP SWAP2 SWAP1 POP JUMP JUMPDEST PUSH2 0x186B DUP2 PUSH2 0x1859 JUMP JUMPDEST DUP2 EQ PUSH2 0x1875 JUMPI PUSH0 DUP1 REVERT JUMPDEST POP JUMP JUMPDEST PUSH0 DUP2 CALLDATALOAD SWAP1 POP PUSH2 0x1886 DUP2 PUSH2 0x1862 JUMP JUMPDEST SWAP3 SWAP2 POP POP JUMP JUMPDEST PUSH0 DUP1 PUSH1 0x40 DUP4 DUP6 SUB SLT ISZERO PUSH2 0x18A2 JUMPI PUSH2 0x18A1 PUSH2 0x1755 JUMP JUMPDEST JUMPDEST PUSH0 PUSH2 0x18AF DUP6 DUP3 DUP7 ADD PUSH2 0x1807 JUMP JUMPDEST SWAP3 POP POP PUSH1 0x20 PUSH2 0x18C0 DUP6 DUP3 DUP7 ADD PUSH2 0x1878 JUMP JUMPDEST SWAP2 POP POP SWAP3 POP SWAP3 SWAP1 POP JUMP JUMPDEST PUSH0 PUSH1 0x20 DUP3 DUP5 SUB SLT ISZERO PUSH2 0x18DF JUMPI PUSH2 0x18DE PUSH2 0x1755 JUMP JUMPDEST JUMPDEST PUSH0 PUSH2 0x18EC DUP5 DUP3 DUP6 ADD PUSH2 0x1807 JUMP JUMPDEST SWAP2 POP POP SWAP3 SWAP2 POP POP JUMP JUMPDEST PUSH2 0x18FE DUP2 PUSH2 0x1778 JUMP JUMPDEST DUP3 MSTORE POP POP JUMP JUMPDEST PUSH0 PUSH1 0x20 DUP3 ADD SWAP1 POP PUSH2 0x1917 PUSH0 DUP4 ADD DUP5 PUSH2 0x18F5 JUMP JUMPDEST SWAP3 SWAP2 POP POP JUMP JUMPDEST PUSH0 DUP1 PUSH0 PUSH1 0x60 DUP5 DUP7 SUB SLT ISZERO PUSH2 0x1934 JUMPI PUSH2 0x1933 PUSH2 0x1755 JUMP JUMPDEST JUMPDEST PUSH0 PUSH2 0x1941 DUP7 DUP3 DUP8 ADD PUSH2 0x1807 JUMP JUMPDEST SWAP4 POP POP PUSH1 0x20 PUSH2 0x1952 DUP7 DUP3 DUP8 ADD PUSH2 0x179F JUMP JUMPDEST SWAP3 POP POP PUSH1 0x40 PUSH2 0x1963 DUP7 DUP3 DUP8 ADD PUSH2 0x1878 JUMP JUMPDEST SWAP2 POP POP SWAP3 POP SWAP3 POP SWAP3 JUMP JUMPDEST PUSH0 DUP2 SWAP1 POP SWAP2 SWAP1 POP JUMP JUMPDEST PUSH2 0x197F DUP2 PUSH2 0x196D JUMP JUMPDEST DUP3 MSTORE POP POP JUMP JUMPDEST PUSH0 PUSH1 0x20 DUP3 ADD SWAP1 POP PUSH2 0x1998 PUSH0 DUP4 ADD DUP5 PUSH2 0x1976 JUMP JUMPDEST SWAP3 SWAP2 POP POP JUMP JUMPDEST PUSH2 0x19A7 DUP2 PUSH2 0x1859 JUMP JUMPDEST DUP3 MSTORE POP POP JUMP JUMPDEST PUSH0 PUSH1 0x20 DUP3 ADD SWAP1 POP PUSH2 0x19C0 PUSH0 DUP4 ADD DUP5 PUSH2 0x199E JUMP JUMPDEST SWAP3 SWAP2 POP POP JUMP JUMPDEST PUSH0 DUP2 MLOAD SWAP1 POP PUSH2 0x19D4 DUP2 PUSH2 0x1862 JUMP JUMPDEST SWAP3 SWAP2 POP POP JUMP JUMPDEST PUSH0 PUSH1 0x20 DUP3 DUP5 SUB SLT ISZERO PUSH2 0x19EF JUMPI PUSH2 0x19EE PUSH2 0x1755 JUMP JUMPDEST JUMPDEST PUSH0 PUSH2 0x19FC DUP5 DUP3 DUP6 ADD PUSH2 0x19C6 JUMP JUMPDEST SWAP2 POP POP SWAP3 SWAP2 POP POP JUMP JUMPDEST PUSH2 0x1A0E DUP2 PUSH2 0x17DE JUMP JUMPDEST DUP3 MSTORE POP POP JUMP JUMPDEST PUSH0 PUSH1 0x20 DUP3 ADD SWAP1 POP PUSH2 0x1A27 PUSH0 DUP4 ADD DUP5 PUSH2 0x1A05 JUMP JUMPDEST SWAP3 SWAP2 POP POP JUMP JUMPDEST PUSH32 0x4E487B7100000000000000000000000000000000000000000000000000000000 PUSH0 MSTORE PUSH1 0x41 PUSH1 0x4 MSTORE PUSH1 0x24 PUSH0 REVERT JUMPDEST PUSH32 0x4E487B7100000000000000000000000000000000000000000000000000000000 PUSH0 MSTORE PUSH1 0x32 PUSH1 0x4 MSTORE PUSH1 0x24 PUSH0 REVERT JUMPDEST PUSH0 PUSH1 0x40 DUP3 ADD SWAP1 POP PUSH2 0x1A9A PUSH0 DUP4 ADD DUP6 PUSH2 0x18F5 JUMP JUMPDEST PUSH2 0x1AA7 PUSH1 0x20 DUP4 ADD DUP5 PUSH2 0x199E JUMP JUMPDEST SWAP4 SWAP3 POP POP POP JUMP JUMPDEST PUSH0 DUP2 MLOAD SWAP1 POP SWAP2 SWAP1 POP JUMP JUMPDEST PUSH0 DUP3 DUP3 MSTORE PUSH1 0x20 DUP3 ADD SWAP1 POP SWAP3 SWAP2 POP POP JUMP JUMPDEST PUSH0 JUMPDEST DUP4 DUP2 LT ISZERO PUSH2 0x1AE5 JUMPI DUP1 DUP3 ADD MLOAD DUP2 DUP5 ADD MSTORE PUSH1 0x20 DUP2 ADD SWAP1 POP PUSH2 0x1ACA JUMP JUMPDEST PUSH0 DUP5 DUP5 ADD MSTORE POP POP POP POP JUMP JUMPDEST PUSH0 PUSH1 0x1F NOT PUSH1 0x1F DUP4 ADD AND SWAP1 POP SWAP2 SWAP1 POP JUMP JUMPDEST PUSH0 PUSH2 0x1B0A DUP3 PUSH2 0x1AAE JUMP JUMPDEST PUSH2 0x1B14 DUP2 DUP6 PUSH2 0x1AB8 JUMP JUMPDEST SWAP4 POP PUSH2 0x1B24 DUP2 DUP6 PUSH1 0x20 DUP7 ADD PUSH2 0x1AC8 JUMP JUMPDEST PUSH2 0x1B2D DUP2 PUSH2 0x1AF0 JUMP JUMPDEST DUP5 ADD SWAP2 POP POP SWAP3 SWAP2 POP POP JUMP JUMPDEST PUSH0 DUP2 MLOAD SWAP1 POP SWAP2 SWAP1 POP JUMP JUMPDEST PUSH0 DUP3 DUP3 MSTORE PUSH1 0x20 DUP3 ADD SWAP1 POP SWAP3 SWAP2 POP POP JUMP JUMPDEST PUSH0 DUP2 SWAP1 POP PUSH1 0x20 DUP3 ADD SWAP1 POP SWAP2 SWAP1 POP JUMP JUMPDEST PUSH2 0x1B6A DUP2 PUSH2 0x1778 JUMP JUMPDEST DUP3 MSTORE POP POP JUMP JUMPDEST PUSH2 0x1B79 DUP2 PUSH2 0x1859 JUMP JUMPDEST DUP3 MSTORE POP POP JUMP JUMPDEST PUSH1 0x40 DUP3 ADD PUSH0 DUP3 ADD MLOAD PUSH2 0x1B93 PUSH0 DUP6 ADD DUP3 PUSH2 0x1B61 JUMP JUMPDEST POP PUSH1 0x20 DUP3 ADD MLOAD PUSH2 0x1BA6 PUSH1 0x20 DUP6 ADD DUP3 PUSH2 0x1B70 JUMP JUMPDEST POP POP POP POP JUMP JUMPDEST PUSH0 PUSH2 0x1BB7 DUP4 DUP4 PUSH2 0x1B7F JUMP JUMPDEST PUSH1 0x40 DUP4 ADD SWAP1 POP SWAP3 SWAP2 POP POP JUMP JUMPDEST PUSH0 PUSH1 0x20 DUP3 ADD SWAP1 POP SWAP2 SWAP1 POP JUMP JUMPDEST PUSH0 PUSH2 0x1BD9 DUP3 PUSH2 0x1B38 JUMP JUMPDEST PUSH2 0x1BE3 DUP2 DUP6 PUSH2 0x1B42 JUMP JUMPDEST SWAP4 POP PUSH2 0x1BEE DUP4 PUSH2 0x1B52 JUMP JUMPDEST DUP1 PUSH0 JUMPDEST DUP4 DUP2 LT ISZERO PUSH2 0x1C1E JUMPI DUP2 MLOAD PUSH2 0x1C05 DUP9 DUP3 PUSH2 0x1BAC JUMP JUMPDEST SWAP8 POP PUSH2 0x1C10 DUP4 PUSH2 0x1BC3 JUMP JUMPDEST SWAP3 POP POP PUSH1 0x1 DUP2 ADD SWAP1 POP PUSH2 0x1BF1 JUMP JUMPDEST POP DUP6 SWAP4 POP POP POP POP SWAP3 SWAP2 POP POP JUMP JUMPDEST PUSH0 PUSH1 0xA0 DUP4 ADD PUSH0 DUP4 ADD MLOAD DUP5 DUP3 SUB PUSH0 DUP7 ADD MSTORE PUSH2 0x1C45 DUP3 DUP3 PUSH2 0x1B00 JUMP JUMPDEST SWAP2 POP POP PUSH1 0x20 DUP4 ADD MLOAD DUP5 DUP3 SUB PUSH1 0x20 DUP7 ADD MSTORE PUSH2 0x1C5F DUP3 DUP3 PUSH2 0x1B00 JUMP JUMPDEST SWAP2 POP POP PUSH1 0x40 DUP4 ADD MLOAD DUP5 DUP3 SUB PUSH1 0x40 DUP7 ADD MSTORE PUSH2 0x1C79 DUP3 DUP3 PUSH2 0x1BCF JUMP JUMPDEST SWAP2 POP POP PUSH1 0x60 DUP4 ADD MLOAD PUSH2 0x1C8E PUSH1 0x60 DUP7 ADD DUP3 PUSH2 0x1B61 JUMP JUMPDEST POP PUSH1 0x80 DUP4 ADD MLOAD DUP5 DUP3 SUB PUSH1 0x80 DUP7 ADD MSTORE PUSH2 0x1CA6 DUP3 DUP3 PUSH2 0x1B00 JUMP JUMPDEST SWAP2 POP POP DUP1 SWAP2 POP POP SWAP3 SWAP2 POP POP JUMP JUMPDEST PUSH0 PUSH1 0x40 DUP3 ADD SWAP1 POP PUSH2 0x1CC6 PUSH0 DUP4 ADD DUP6 PUSH2 0x1A05 JUMP JUMPDEST DUP2 DUP2 SUB PUSH1 0x20 DUP4 ADD MSTORE PUSH2 0x1CD8 DUP2 DUP5 PUSH2 0x1C2B JUMP JUMPDEST SWAP1 POP SWAP4 SWAP3 POP POP POP JUMP JUMPDEST PUSH0 PUSH1 0x40 DUP3 ADD SWAP1 POP PUSH2 0x1CF4 PUSH0 DUP4 ADD DUP6 PUSH2 0x199E JUMP JUMPDEST PUSH2 0x1D01 PUSH1 0x20 DUP4 ADD DUP5 PUSH2 0x199E JUMP JUMPDEST SWAP4 SWAP3 POP POP POP JUMP JUMPDEST PUSH0 DUP2 ISZERO ISZERO SWAP1 POP SWAP2 SWAP1 POP JUMP JUMPDEST PUSH2 0x1D1C DUP2 PUSH2 0x1D08 JUMP JUMPDEST DUP2 EQ PUSH2 0x1D26 JUMPI PUSH0 DUP1 REVERT JUMPDEST POP JUMP JUMPDEST PUSH0 DUP2 MLOAD SWAP1 POP PUSH2 0x1D37 DUP2 PUSH2 0x1D13 JUMP JUMPDEST SWAP3 SWAP2 POP POP JUMP JUMPDEST PUSH0 PUSH1 0x20 DUP3 DUP5 SUB SLT ISZERO PUSH2 0x1D52 JUMPI PUSH2 0x1D51 PUSH2 0x1755 JUMP JUMPDEST JUMPDEST PUSH0 PUSH2 0x1D5F DUP5 DUP3 DUP6 ADD PUSH2 0x1D29 JUMP JUMPDEST SWAP2 POP POP SWAP3 SWAP2 POP POP JUMP JUMPDEST PUSH2 0x1D71 DUP2 PUSH2 0x196D JUMP JUMPDEST DUP2 EQ PUSH2 0x1D7B JUMPI PUSH0 DUP1 REVERT JUMPDEST POP JUMP JUMPDEST PUSH0 DUP2 MLOAD SWAP1 POP PUSH2 0x1D8C DUP2 PUSH2 0x1D68 JUMP JUMPDEST SWAP3 SWAP2 POP POP JUMP JUMPDEST PUSH0 PUSH1 0x20 DUP3 DUP5 SUB SLT ISZERO PUSH2 0x1DA7 JUMPI PUSH2 0x1DA6 PUSH2 0x1755 JUMP JUMPDEST JUMPDEST PUSH0 PUSH2 0x1DB4 DUP5 DUP3 DUP6 ADD PUSH2 0x1D7E JUMP JUMPDEST SWAP2 POP POP SWAP3 SWAP2 POP POP JUMP JUMPDEST PUSH0 PUSH1 0xA0 DUP3 ADD SWAP1 POP PUSH2 0x1DD0 PUSH0 DUP4 ADD DUP9 PUSH2 0x18F5 JUMP JUMPDEST PUSH2 0x1DDD PUSH1 0x20 DUP4 ADD DUP8 PUSH2 0x18F5 JUMP JUMPDEST PUSH2 0x1DEA PUSH1 0x40 DUP4 ADD DUP7 PUSH2 0x199E JUMP JUMPDEST PUSH2 0x1DF7 PUSH1 0x60 DUP4 ADD DUP6 PUSH2 0x18F5 JUMP JUMPDEST PUSH2 0x1E04 PUSH1 0x80 DUP4 ADD DUP5 PUSH2 0x199E JUMP JUMPDEST SWAP7 SWAP6 POP POP POP POP POP POP JUMP JUMPDEST PUSH0 DUP3 DUP3 MSTORE PUSH1 0x20 DUP3 ADD SWAP1 POP SWAP3 SWAP2 POP POP JUMP JUMPDEST PUSH32 0x4D7573742062652070726F706F736564206F776E657200000000000000000000 PUSH0 DUP3 ADD MSTORE POP JUMP JUMPDEST PUSH0 PUSH2 0x1E52 PUSH1 0x16 DUP4 PUSH2 0x1E0E JUMP JUMPDEST SWAP2 POP PUSH2 0x1E5D DUP3 PUSH2 0x1E1E JUMP JUMPDEST PUSH1 0x20 DUP3 ADD SWAP1 POP SWAP2 SWAP1 POP JUMP JUMPDEST PUSH0 PUSH1 0x20 DUP3 ADD SWAP1 POP DUP2 DUP2 SUB PUSH0 DUP4 ADD MSTORE PUSH2 0x1E7F DUP2 PUSH2 0x1E46 JUMP JUMPDEST SWAP1 POP SWAP2 SWAP1 POP JUMP JUMPDEST PUSH32 0x4F6E6C792063616C6C61626C65206279206F776E657200000000000000000000 PUSH0 DUP3 ADD MSTORE POP JUMP JUMPDEST PUSH0 PUSH2 0x1EBA PUSH1 0x16 DUP4 PUSH2 0x1E0E JUMP JUMPDEST SWAP2 POP PUSH2 0x1EC5 DUP3 PUSH2 0x1E86 JUMP JUMPDEST PUSH1 0x20 DUP3 ADD SWAP1 POP SWAP2 SWAP1 POP JUMP JUMPDEST PUSH0 PUSH1 0x20 DUP3 ADD SWAP1 POP DUP2 DUP2 SUB PUSH0 DUP4 ADD MSTORE PUSH2 0x1EE7 DUP2 PUSH2 0x1EAE JUMP JUMPDEST SWAP1 POP SWAP2 SWAP1 POP JUMP JUMPDEST PUSH2 0x1EF7 DUP2 PUSH2 0x1D08 JUMP JUMPDEST DUP3 MSTORE POP POP JUMP JUMPDEST PUSH1 0x40 DUP3 ADD PUSH0 DUP3 ADD MLOAD PUSH2 0x1F11 PUSH0 DUP6 ADD DUP3 PUSH2 0x1B70 JUMP JUMPDEST POP PUSH1 0x20 DUP3 ADD MLOAD PUSH2 0x1F24 PUSH1 0x20 DUP6 ADD DUP3 PUSH2 0x1EEE JUMP JUMPDEST POP POP POP POP JUMP JUMPDEST PUSH0 PUSH1 0x40 DUP3 ADD SWAP1 POP PUSH2 0x1F3D PUSH0 DUP4 ADD DUP5 PUSH2 0x1EFD JUMP JUMPDEST SWAP3 SWAP2 POP POP JUMP JUMPDEST PUSH32 0x43616E6E6F74207472616E7366657220746F2073656C66000000000000000000 PUSH0 DUP3 ADD MSTORE POP JUMP JUMPDEST PUSH0 PUSH2 0x1F77 PUSH1 0x17 DUP4 PUSH2 0x1E0E JUMP JUMPDEST SWAP2 POP PUSH2 0x1F82 DUP3 PUSH2 0x1F43 JUMP JUMPDEST PUSH1 0x20 DUP3 ADD SWAP1 POP SWAP2 SWAP1 POP JUMP JUMPDEST PUSH0 PUSH1 0x20 DUP3 ADD SWAP1 POP DUP2 DUP2 SUB PUSH0 DUP4 ADD MSTORE PUSH2 0x1FA4 DUP2 PUSH2 0x1F6B JUMP JUMPDEST SWAP1 POP SWAP2 SWAP1 POP JUMP JUMPDEST PUSH32 0x5361666545524332303A204552433230206F7065726174696F6E20646964206E PUSH0 DUP3 ADD MSTORE PUSH32 0x6F74207375636365656400000000000000000000000000000000000000000000 PUSH1 0x20 DUP3 ADD MSTORE POP JUMP JUMPDEST PUSH0 PUSH2 0x2005 PUSH1 0x2A DUP4 PUSH2 0x1E0E JUMP JUMPDEST SWAP2 POP PUSH2 0x2010 DUP3 PUSH2 0x1FAB JUMP JUMPDEST PUSH1 0x40 DUP3 ADD SWAP1 POP SWAP2 SWAP1 POP JUMP JUMPDEST PUSH0 PUSH1 0x20 DUP3 ADD SWAP1 POP DUP2 DUP2 SUB PUSH0 DUP4 ADD MSTORE PUSH2 0x2032 DUP2 PUSH2 0x1FF9 JUMP JUMPDEST SWAP1 POP SWAP2 SWAP1 POP JUMP JUMPDEST PUSH32 0x416464726573733A20696E73756666696369656E742062616C616E636520666F PUSH0 DUP3 ADD MSTORE PUSH32 0x722063616C6C0000000000000000000000000000000000000000000000000000 PUSH1 0x20 DUP3 ADD MSTORE POP JUMP JUMPDEST PUSH0 PUSH2 0x2093 PUSH1 0x26 DUP4 PUSH2 0x1E0E JUMP JUMPDEST SWAP2 POP PUSH2 0x209E DUP3 PUSH2 0x2039 JUMP JUMPDEST PUSH1 0x40 DUP3 ADD SWAP1 POP SWAP2 SWAP1 POP JUMP JUMPDEST PUSH0 PUSH1 0x20 DUP3 ADD SWAP1 POP DUP2 DUP2 SUB PUSH0 DUP4 ADD MSTORE PUSH2 0x20C0 DUP2 PUSH2 0x2087 JUMP JUMPDEST SWAP1 POP SWAP2 SWAP1 POP JUMP JUMPDEST PUSH0 DUP2 SWAP1 POP SWAP3 SWAP2 POP POP JUMP JUMPDEST PUSH0 PUSH2 0x20DB DUP3 PUSH2 0x1AAE JUMP JUMPDEST PUSH2 0x20E5 DUP2 DUP6 PUSH2 0x20C7 JUMP JUMPDEST SWAP4 POP PUSH2 0x20F5 DUP2 DUP6 PUSH1 0x20 DUP7 ADD PUSH2 0x1AC8 JUMP JUMPDEST DUP1 DUP5 ADD SWAP2 POP POP SWAP3 SWAP2 POP POP JUMP JUMPDEST PUSH0 PUSH2 0x210C DUP3 DUP5 PUSH2 0x20D1 JUMP JUMPDEST SWAP2 POP DUP2 SWAP1 POP SWAP3 SWAP2 POP POP JUMP JUMPDEST PUSH32 0x416464726573733A2063616C6C20746F206E6F6E2D636F6E7472616374000000 PUSH0 DUP3 ADD MSTORE POP JUMP JUMPDEST PUSH0 PUSH2 0x214B PUSH1 0x1D DUP4 PUSH2 0x1E0E JUMP JUMPDEST SWAP2 POP PUSH2 0x2156 DUP3 PUSH2 0x2117 JUMP JUMPDEST PUSH1 0x20 DUP3 ADD SWAP1 POP SWAP2 SWAP1 POP JUMP JUMPDEST PUSH0 PUSH1 0x20 DUP3 ADD SWAP1 POP DUP2 DUP2 SUB PUSH0 DUP4 ADD MSTORE PUSH2 0x2178 DUP2 PUSH2 0x213F JUMP JUMPDEST SWAP1 POP SWAP2 SWAP1 POP JUMP JUMPDEST PUSH0 DUP2 MLOAD SWAP1 POP SWAP2 SWAP1 POP JUMP JUMPDEST PUSH0 PUSH2 0x2193 DUP3 PUSH2 0x217F JUMP JUMPDEST PUSH2 0x219D DUP2 DUP6 PUSH2 0x1E0E JUMP JUMPDEST SWAP4 POP PUSH2 0x21AD DUP2 DUP6 PUSH1 0x20 DUP7 ADD PUSH2 0x1AC8 JUMP JUMPDEST PUSH2 0x21B6 DUP2 PUSH2 0x1AF0 JUMP JUMPDEST DUP5 ADD SWAP2 POP POP SWAP3 SWAP2 POP POP JUMP JUMPDEST PUSH0 PUSH1 0x20 DUP3 ADD SWAP1 POP DUP2 DUP2 SUB PUSH0 DUP4 ADD MSTORE PUSH2 0x21D9 DUP2 DUP5 PUSH2 0x2189 JUMP JUMPDEST SWAP1 POP SWAP3 SWAP2 POP POP JUMP INVALID LOG2 PUSH5 0x6970667358 0x22 SLT KECCAK256 0xC6 SLT 0xDB 0x29 SDIV CALLDATASIZE DUP6 PUSH0 PC PUSH4 0x65FA26B8 0xDB DUP11 REVERT 0xE2 PUSH23 0x5313BE009005C64BA8FB89DF9064736F6C634300081800 CALLER "
				},
				"gasEstimates": {
					"creation": {
						"codeDepositCost": "1745400",
						"executionCost": "infinite",
						"totalCost": "infinite"
					},
					"external": {
						"acceptOwnership()": "54533",
						"deleteReceiverForDestinationChain(uint64)": "infinite",
						"owner()": "2537",
						"s_gasLimits(uint64)": "2870",
						"s_receivers(uint64)": "2900",
						"sendMessagePayLINK(uint64,address,uint256)": "infinite",
						"setGasLimitForDestinationChain(uint64,uint256)": "25070",
						"setReceiverForDestinationChain(uint64,address)": "27260",
						"transferOwnership(address)": "30733",
						"withdrawLinkToken(address)": "infinite",
						"withdrawUsdcToken(address)": "infinite"
					}
				},
				"methodIdentifiers": {
					"acceptOwnership()": "79ba5097",
					"deleteReceiverForDestinationChain(uint64)": "9c18c570",
					"owner()": "8da5cb5b",
					"s_gasLimits(uint64)": "f3651fe6",
					"s_receivers(uint64)": "65b4b203",
					"sendMessagePayLINK(uint64,address,uint256)": "6e5d76a2",
					"setGasLimitForDestinationChain(uint64,uint256)": "5dc2594e",
					"setReceiverForDestinationChain(uint64,address)": "3f3b7a6f",
					"transferOwnership(address)": "f2fde38b",
					"withdrawLinkToken(address)": "3141d65c",
					"withdrawUsdcToken(address)": "c2d0c769"
				}
			},
			"storageLayout": {
				"storage": [
					{
						"astId": 221,
						"contract": "v2/Sender.sol:Sender",
						"label": "s_owner",
						"offset": 0,
						"slot": "0",
						"type": "t_address"
					},
					{
						"astId": 223,
						"contract": "v2/Sender.sol:Sender",
						"label": "s_pendingOwner",
						"offset": 0,
						"slot": "1",
						"type": "t_address"
					},
					{
						"astId": 1224,
						"contract": "v2/Sender.sol:Sender",
						"label": "s_receivers",
						"offset": 0,
						"slot": "2",
						"type": "t_mapping(t_uint64,t_address)"
					},
					{
						"astId": 1228,
						"contract": "v2/Sender.sol:Sender",
						"label": "s_gasLimits",
						"offset": 0,
						"slot": "3",
						"type": "t_mapping(t_uint64,t_uint256)"
					}
				],
				"types": {
					"t_address": {
						"encoding": "inplace",
						"label": "address",
						"numberOfBytes": "20"
					},
					"t_mapping(t_uint64,t_address)": {
						"encoding": "mapping",
						"key": "t_uint64",
						"label": "mapping(uint64 => address)",
						"numberOfBytes": "32",
						"value": "t_address"
					},
					"t_mapping(t_uint64,t_uint256)": {
						"encoding": "mapping",
						"key": "t_uint64",
						"label": "mapping(uint64 => uint256)",
						"numberOfBytes": "32",
						"value": "t_uint256"
					},
					"t_uint256": {
						"encoding": "inplace",
						"label": "uint256",
						"numberOfBytes": "32"
					},
					"t_uint64": {
						"encoding": "inplace",
						"label": "uint64",
						"numberOfBytes": "8"
					}
				}
			},
			"userdoc": {
				"kind": "user",
				"methods": {
					"acceptOwnership()": {
						"notice": "Allows an ownership transfer to be completed by the recipient."
					},
					"constructor": {
						"notice": "Constructor initializes the contract with the router address."
					},
					"deleteReceiverForDestinationChain(uint64)": {
						"notice": "This function can only be called by the owner."
					},
					"owner()": {
						"notice": "Get the current owner"
					},
					"sendMessagePayLINK(uint64,address,uint256)": {
						"notice": "Sends data and transfer tokens to receiver on the destination chain.Pay for fees in LINK."
					},
					"setGasLimitForDestinationChain(uint64,uint256)": {
						"notice": "This function can only be called by the owner."
					},
					"setReceiverForDestinationChain(uint64,address)": {
						"notice": "This function can only be called by the owner."
					},
					"transferOwnership(address)": {
						"notice": "Allows an owner to begin transferring ownership to a new address."
					},
					"withdrawLinkToken(address)": {
						"notice": "Allows the owner of the contract to withdraw all LINK tokens in the contract and transfer them to a beneficiary."
					},
					"withdrawUsdcToken(address)": {
						"notice": "Allows the owner of the contract to withdraw all usdc tokens in the contract and transfer them to a beneficiary."
					}
				},
				"version": 1
			}
		}
	}
}