{
	"v2/TreasuryManagerBASE.sol": {
		"TreasuryManagerBASE": {
			"abi": [
				{
					"inputs": [
						{
							"internalType": "address",
							"name": "_usdcToken",
							"type": "address"
						}
					],
					"stateMutability": "nonpayable",
					"type": "constructor"
				},
				{
					"inputs": [],
					"name": "InvalidAmount",
					"type": "error"
				},
				{
					"inputs": [],
					"name": "InvalidBeneficiary",
					"type": "error"
				},
				{
					"inputs": [],
					"name": "InvalidNumberOfDecimals",
					"type": "error"
				},
				{
					"inputs": [],
					"name": "InvalidUsdcToken",
					"type": "error"
				},
				{
					"inputs": [],
					"name": "NothingToRedeem",
					"type": "error"
				},
				{
					"anonymous": false,
					"inputs": [
						{
							"indexed": true,
							"internalType": "address",
							"name": "owner",
							"type": "address"
						},
						{
							"indexed": true,
							"internalType": "address",
							"name": "spender",
							"type": "address"
						},
						{
							"indexed": false,
							"internalType": "uint256",
							"name": "value",
							"type": "uint256"
						}
					],
					"name": "Approval",
					"type": "event"
				},
				{
					"anonymous": false,
					"inputs": [
						{
							"indexed": true,
							"internalType": "address",
							"name": "from",
							"type": "address"
						},
						{
							"indexed": true,
							"internalType": "address",
							"name": "to",
							"type": "address"
						},
						{
							"indexed": false,
							"internalType": "uint256",
							"name": "value",
							"type": "uint256"
						}
					],
					"name": "Transfer",
					"type": "event"
				},
				{
					"anonymous": false,
					"inputs": [
						{
							"indexed": true,
							"internalType": "address",
							"name": "beneficiary",
							"type": "address"
						},
						{
							"indexed": false,
							"internalType": "uint256",
							"name": "amount",
							"type": "uint256"
						}
					],
					"name": "UsdcRedeemed",
					"type": "event"
				},
				{
					"anonymous": false,
					"inputs": [
						{
							"indexed": true,
							"internalType": "address",
							"name": "beneficiary",
							"type": "address"
						},
						{
							"indexed": false,
							"internalType": "uint256",
							"name": "amount",
							"type": "uint256"
						}
					],
					"name": "UsdcStaked",
					"type": "event"
				},
				{
					"inputs": [
						{
							"internalType": "address",
							"name": "owner",
							"type": "address"
						},
						{
							"internalType": "address",
							"name": "spender",
							"type": "address"
						}
					],
					"name": "allowance",
					"outputs": [
						{
							"internalType": "uint256",
							"name": "",
							"type": "uint256"
						}
					],
					"stateMutability": "view",
					"type": "function"
				},
				{
					"inputs": [
						{
							"internalType": "address",
							"name": "spender",
							"type": "address"
						},
						{
							"internalType": "uint256",
							"name": "amount",
							"type": "uint256"
						}
					],
					"name": "approve",
					"outputs": [
						{
							"internalType": "bool",
							"name": "",
							"type": "bool"
						}
					],
					"stateMutability": "nonpayable",
					"type": "function"
				},
				{
					"inputs": [
						{
							"internalType": "address",
							"name": "account",
							"type": "address"
						}
					],
					"name": "balanceOf",
					"outputs": [
						{
							"internalType": "uint256",
							"name": "",
							"type": "uint256"
						}
					],
					"stateMutability": "view",
					"type": "function"
				},
				{
					"inputs": [],
					"name": "decimals",
					"outputs": [
						{
							"internalType": "uint8",
							"name": "",
							"type": "uint8"
						}
					],
					"stateMutability": "view",
					"type": "function"
				},
				{
					"inputs": [
						{
							"internalType": "address",
							"name": "spender",
							"type": "address"
						},
						{
							"internalType": "uint256",
							"name": "subtractedValue",
							"type": "uint256"
						}
					],
					"name": "decreaseAllowance",
					"outputs": [
						{
							"internalType": "bool",
							"name": "",
							"type": "bool"
						}
					],
					"stateMutability": "nonpayable",
					"type": "function"
				},
				{
					"inputs": [
						{
							"internalType": "address",
							"name": "spender",
							"type": "address"
						},
						{
							"internalType": "uint256",
							"name": "addedValue",
							"type": "uint256"
						}
					],
					"name": "increaseAllowance",
					"outputs": [
						{
							"internalType": "bool",
							"name": "",
							"type": "bool"
						}
					],
					"stateMutability": "nonpayable",
					"type": "function"
				},
				{
					"inputs": [],
					"name": "name",
					"outputs": [
						{
							"internalType": "string",
							"name": "",
							"type": "string"
						}
					],
					"stateMutability": "view",
					"type": "function"
				},
				{
					"inputs": [],
					"name": "redeem",
					"outputs": [],
					"stateMutability": "nonpayable",
					"type": "function"
				},
				{
					"inputs": [
						{
							"internalType": "address",
							"name": "_beneficiary",
							"type": "address"
						},
						{
							"internalType": "uint256",
							"name": "_amount",
							"type": "uint256"
						}
					],
					"name": "stake",
					"outputs": [],
					"stateMutability": "nonpayable",
					"type": "function"
				},
				{
					"inputs": [],
					"name": "symbol",
					"outputs": [
						{
							"internalType": "string",
							"name": "",
							"type": "string"
						}
					],
					"stateMutability": "view",
					"type": "function"
				},
				{
					"inputs": [],
					"name": "totalSupply",
					"outputs": [
						{
							"internalType": "uint256",
							"name": "",
							"type": "uint256"
						}
					],
					"stateMutability": "view",
					"type": "function"
				},
				{
					"inputs": [
						{
							"internalType": "address",
							"name": "to",
							"type": "address"
						},
						{
							"internalType": "uint256",
							"name": "amount",
							"type": "uint256"
						}
					],
					"name": "transfer",
					"outputs": [
						{
							"internalType": "bool",
							"name": "",
							"type": "bool"
						}
					],
					"stateMutability": "nonpayable",
					"type": "function"
				},
				{
					"inputs": [
						{
							"internalType": "address",
							"name": "from",
							"type": "address"
						},
						{
							"internalType": "address",
							"name": "to",
							"type": "address"
						},
						{
							"internalType": "uint256",
							"name": "amount",
							"type": "uint256"
						}
					],
					"name": "transferFrom",
					"outputs": [
						{
							"internalType": "bool",
							"name": "",
							"type": "bool"
						}
					],
					"stateMutability": "nonpayable",
					"type": "function"
				}
			],
			"devdoc": {
				"events": {
					"Approval(address,address,uint256)": {
						"details": "Emitted when the allowance of a `spender` for an `owner` is set by a call to {approve}. `value` is the new allowance."
					},
					"Transfer(address,address,uint256)": {
						"details": "Emitted when `value` tokens are moved from one account (`from`) to another (`to`). Note that `value` may be zero."
					}
				},
				"kind": "dev",
				"methods": {
					"allowance(address,address)": {
						"details": "See {IERC20-allowance}."
					},
					"approve(address,uint256)": {
						"details": "See {IERC20-approve}. NOTE: If `amount` is the maximum `uint256`, the allowance is not updated on `transferFrom`. This is semantically equivalent to an infinite approval. Requirements: - `spender` cannot be the zero address."
					},
					"balanceOf(address)": {
						"details": "See {IERC20-balanceOf}."
					},
					"constructor": {
						"params": {
							"_usdcToken": "The address of the usdc contract."
						}
					},
					"decimals()": {
						"details": "Returns the number of decimals used to get its user representation. For example, if `decimals` equals `2`, a balance of `505` tokens should be displayed to a user as `5.05` (`505 / 10 ** 2`). Tokens usually opt for a value of 18, imitating the relationship between Ether and Wei. This is the value {ERC20} uses, unless this function is overridden; NOTE: This information is only used for _display_ purposes: it in no way affects any of the arithmetic of the contract, including {IERC20-balanceOf} and {IERC20-transfer}."
					},
					"decreaseAllowance(address,uint256)": {
						"details": "Atomically decreases the allowance granted to `spender` by the caller. This is an alternative to {approve} that can be used as a mitigation for problems described in {IERC20-approve}. Emits an {Approval} event indicating the updated allowance. Requirements: - `spender` cannot be the zero address. - `spender` must have allowance for the caller of at least `subtractedValue`."
					},
					"increaseAllowance(address,uint256)": {
						"details": "Atomically increases the allowance granted to `spender` by the caller. This is an alternative to {approve} that can be used as a mitigation for problems described in {IERC20-approve}. Emits an {Approval} event indicating the updated allowance. Requirements: - `spender` cannot be the zero address."
					},
					"name()": {
						"details": "Returns the name of the token."
					},
					"symbol()": {
						"details": "Returns the symbol of the token, usually a shorter version of the name."
					},
					"totalSupply()": {
						"details": "See {IERC20-totalSupply}."
					},
					"transfer(address,uint256)": {
						"details": "See {IERC20-transfer}. Requirements: - `to` cannot be the zero address. - the caller must have a balance of at least `amount`."
					},
					"transferFrom(address,address,uint256)": {
						"details": "See {IERC20-transferFrom}. Emits an {Approval} event indicating the updated allowance. This is not required by the EIP. See the note at the beginning of {ERC20}. NOTE: Does not update the allowance if the current allowance is the maximum `uint256`. Requirements: - `from` and `to` cannot be the zero address. - `from` must have a balance of at least `amount`. - the caller must have allowance for ``from``'s tokens of at least `amount`."
					}
				},
				"title": "- A simple Staker contract for staking usc tokens and redeeming the staker contracts",
				"version": 1
			},
			"evm": {
				"assembly": "    /* \"v2/TreasuryManagerBASE.sol\":740:2667  contract TreasuryManagerBASE is IStaker, ERC20 {... */\n  mstore(0x40, 0xc0)\n    /* \"v2/TreasuryManagerBASE.sol\":1559:1855  constructor(address _usdcToken) ERC20(\"Treasury Manager BASE\", \"TMB\") {... */\n  callvalue\n  dup1\n  iszero\n  tag_1\n  jumpi\n  0x00\n  dup1\n  revert\ntag_1:\n  pop\n  mload(0x40)\n  sub(codesize, bytecodeSize)\n  dup1\n  bytecodeSize\n  dup4\n  codecopy\n  dup2\n  dup2\n  add\n  0x40\n  mstore\n  dup2\n  add\n  swap1\n  tag_2\n  swap2\n  swap1\n  tag_3\n  jump\t// in\ntag_2:\n    /* \"@chainlink/contracts@1.4.0/src/v0.8/vendor/openzeppelin-solidity/v4.8.3/contracts/token/ERC20/ERC20.sol\":1946:2049  constructor(string memory name_, string memory symbol_) {... */\n  mload(0x40)\n  dup1\n  0x40\n  add\n  0x40\n  mstore\n  dup1\n  0x15\n  dup2\n  mstore\n  0x20\n  add\n  0x5472656173757279204d616e6167657220424153450000000000000000000000\n  dup2\n  mstore\n  pop\n  mload(0x40)\n  dup1\n  0x40\n  add\n  0x40\n  mstore\n  dup1\n  0x03\n  dup2\n  mstore\n  0x20\n  add\n  0x544d420000000000000000000000000000000000000000000000000000000000\n  dup2\n  mstore\n  pop\n    /* \"@chainlink/contracts@1.4.0/src/v0.8/vendor/openzeppelin-solidity/v4.8.3/contracts/token/ERC20/ERC20.sol\":2016:2021  name_ */\n  dup2\n    /* \"@chainlink/contracts@1.4.0/src/v0.8/vendor/openzeppelin-solidity/v4.8.3/contracts/token/ERC20/ERC20.sol\":2008:2013  _name */\n  0x03\n    /* \"@chainlink/contracts@1.4.0/src/v0.8/vendor/openzeppelin-solidity/v4.8.3/contracts/token/ERC20/ERC20.sol\":2008:2021  _name = name_ */\n  swap1\n  dup2\n  tag_7\n  swap2\n  swap1\n  tag_8\n  jump\t// in\ntag_7:\n  pop\n    /* \"@chainlink/contracts@1.4.0/src/v0.8/vendor/openzeppelin-solidity/v4.8.3/contracts/token/ERC20/ERC20.sol\":2037:2044  symbol_ */\n  dup1\n    /* \"@chainlink/contracts@1.4.0/src/v0.8/vendor/openzeppelin-solidity/v4.8.3/contracts/token/ERC20/ERC20.sol\":2027:2034  _symbol */\n  0x04\n    /* \"@chainlink/contracts@1.4.0/src/v0.8/vendor/openzeppelin-solidity/v4.8.3/contracts/token/ERC20/ERC20.sol\":2027:2044  _symbol = symbol_ */\n  swap1\n  dup2\n  tag_9\n  swap2\n  swap1\n  tag_8\n  jump\t// in\ntag_9:\n  pop\n    /* \"@chainlink/contracts@1.4.0/src/v0.8/vendor/openzeppelin-solidity/v4.8.3/contracts/token/ERC20/ERC20.sol\":1946:2049  constructor(string memory name_, string memory symbol_) {... */\n  pop\n  pop\n    /* \"v2/TreasuryManagerBASE.sol\":1666:1667  0 */\n  0x00\n    /* \"v2/TreasuryManagerBASE.sol\":1644:1668  _usdcToken == address(0) */\n  0xffffffffffffffffffffffffffffffffffffffff\n  and\n    /* \"v2/TreasuryManagerBASE.sol\":1644:1654  _usdcToken */\n  dup2\n    /* \"v2/TreasuryManagerBASE.sol\":1644:1668  _usdcToken == address(0) */\n  0xffffffffffffffffffffffffffffffffffffffff\n  and\n  sub\n    /* \"v2/TreasuryManagerBASE.sol\":1640:1695  if (_usdcToken == address(0)) revert InvalidUsdcToken() */\n  tag_11\n  jumpi\n    /* \"v2/TreasuryManagerBASE.sol\":1677:1695  InvalidUsdcToken() */\n  mload(0x40)\n  0xb83a5cf700000000000000000000000000000000000000000000000000000000\n  dup2\n  mstore\n  0x04\n  add\n  mload(0x40)\n  dup1\n  swap2\n  sub\n  swap1\n  revert\n    /* \"v2/TreasuryManagerBASE.sol\":1640:1695  if (_usdcToken == address(0)) revert InvalidUsdcToken() */\ntag_11:\n    /* \"v2/TreasuryManagerBASE.sol\":1726:1736  _usdcToken */\n  dup1\n    /* \"v2/TreasuryManagerBASE.sol\":1706:1737  i_usdcToken = ERC20(_usdcToken) */\n  0xffffffffffffffffffffffffffffffffffffffff\n  and\n  0x80\n  dup2\n  0xffffffffffffffffffffffffffffffffffffffff\n  and\n  dup2\n  mstore\n  pop\n  pop\n    /* \"v2/TreasuryManagerBASE.sol\":1761:1772  i_usdcToken */\n  mload(0x80)\n    /* \"v2/TreasuryManagerBASE.sol\":1761:1781  i_usdcToken.decimals */\n  0xffffffffffffffffffffffffffffffffffffffff\n  and\n  0x313ce567\n    /* \"v2/TreasuryManagerBASE.sol\":1761:1783  i_usdcToken.decimals() */\n  mload(0x40)\n  dup2\n  0xffffffff\n  and\n  0xe0\n  shl\n  dup2\n  mstore\n  0x04\n  add\n  0x20\n  mload(0x40)\n  dup1\n  dup4\n  sub\n  dup2\n  dup7\n  gas\n  staticcall\n  iszero\n  dup1\n  iszero\n  tag_13\n  jumpi\n  returndatasize\n  0x00\n  dup1\n  returndatacopy\n  revert(0x00, returndatasize)\ntag_13:\n  pop\n  pop\n  pop\n  pop\n  mload(0x40)\n  returndatasize\n  not(0x1f)\n  0x1f\n  dup3\n  add\n  and\n  dup3\n  add\n  dup1\n  0x40\n  mstore\n  pop\n  dup2\n  add\n  swap1\n  tag_14\n  swap2\n  swap1\n  tag_15\n  jump\t// in\ntag_14:\n    /* \"v2/TreasuryManagerBASE.sol\":1748:1783  i_decimals = i_usdcToken.decimals() */\n  0xff\n  and\n  0xa0\n  dup2\n  0xff\n  and\n  dup2\n  mstore\n  pop\n  pop\n    /* \"v2/TreasuryManagerBASE.sol\":1812:1813  0 */\n  0x00\n    /* \"v2/TreasuryManagerBASE.sol\":1798:1808  i_decimals */\n  mload(0xa0)\n    /* \"v2/TreasuryManagerBASE.sol\":1798:1813  i_decimals == 0 */\n  0xff\n  and\n  sub\n    /* \"v2/TreasuryManagerBASE.sol\":1794:1847  if (i_decimals == 0) revert InvalidNumberOfDecimals() */\n  tag_16\n  jumpi\n    /* \"v2/TreasuryManagerBASE.sol\":1822:1847  InvalidNumberOfDecimals() */\n  mload(0x40)\n  0x4aff5cd600000000000000000000000000000000000000000000000000000000\n  dup2\n  mstore\n  0x04\n  add\n  mload(0x40)\n  dup1\n  swap2\n  sub\n  swap1\n  revert\n    /* \"v2/TreasuryManagerBASE.sol\":1794:1847  if (i_decimals == 0) revert InvalidNumberOfDecimals() */\ntag_16:\n    /* \"v2/TreasuryManagerBASE.sol\":1559:1855  constructor(address _usdcToken) ERC20(\"Treasury Manager BASE\", \"TMB\") {... */\n  pop\n    /* \"v2/TreasuryManagerBASE.sol\":740:2667  contract TreasuryManagerBASE is IStaker, ERC20 {... */\n  jump(tag_17)\n    /* \"#utility.yul\":88:205   */\ntag_19:\n    /* \"#utility.yul\":197:198   */\n  0x00\n    /* \"#utility.yul\":194:195   */\n  dup1\n    /* \"#utility.yul\":187:199   */\n  revert\n    /* \"#utility.yul\":334:460   */\ntag_21:\n    /* \"#utility.yul\":371:378   */\n  0x00\n    /* \"#utility.yul\":411:453   */\n  0xffffffffffffffffffffffffffffffffffffffff\n    /* \"#utility.yul\":404:409   */\n  dup3\n    /* \"#utility.yul\":400:454   */\n  and\n    /* \"#utility.yul\":389:454   */\n  swap1\n  pop\n    /* \"#utility.yul\":334:460   */\n  swap2\n  swap1\n  pop\n  jump\t// out\n    /* \"#utility.yul\":466:562   */\ntag_22:\n    /* \"#utility.yul\":503:510   */\n  0x00\n    /* \"#utility.yul\":532:556   */\n  tag_54\n    /* \"#utility.yul\":550:555   */\n  dup3\n    /* \"#utility.yul\":532:556   */\n  tag_21\n  jump\t// in\ntag_54:\n    /* \"#utility.yul\":521:556   */\n  swap1\n  pop\n    /* \"#utility.yul\":466:562   */\n  swap2\n  swap1\n  pop\n  jump\t// out\n    /* \"#utility.yul\":568:690   */\ntag_23:\n    /* \"#utility.yul\":641:665   */\n  tag_56\n    /* \"#utility.yul\":659:664   */\n  dup2\n    /* \"#utility.yul\":641:665   */\n  tag_22\n  jump\t// in\ntag_56:\n    /* \"#utility.yul\":634:639   */\n  dup2\n    /* \"#utility.yul\":631:666   */\n  eq\n    /* \"#utility.yul\":621:684   */\n  tag_57\n  jumpi\n    /* \"#utility.yul\":680:681   */\n  0x00\n    /* \"#utility.yul\":677:678   */\n  dup1\n    /* \"#utility.yul\":670:682   */\n  revert\n    /* \"#utility.yul\":621:684   */\ntag_57:\n    /* \"#utility.yul\":568:690   */\n  pop\n  jump\t// out\n    /* \"#utility.yul\":696:839   */\ntag_24:\n    /* \"#utility.yul\":753:758   */\n  0x00\n    /* \"#utility.yul\":784:790   */\n  dup2\n    /* \"#utility.yul\":778:791   */\n  mload\n    /* \"#utility.yul\":769:791   */\n  swap1\n  pop\n    /* \"#utility.yul\":800:833   */\n  tag_59\n    /* \"#utility.yul\":827:832   */\n  dup2\n    /* \"#utility.yul\":800:833   */\n  tag_23\n  jump\t// in\ntag_59:\n    /* \"#utility.yul\":696:839   */\n  swap3\n  swap2\n  pop\n  pop\n  jump\t// out\n    /* \"#utility.yul\":845:1196   */\ntag_3:\n    /* \"#utility.yul\":915:921   */\n  0x00\n    /* \"#utility.yul\":964:966   */\n  0x20\n    /* \"#utility.yul\":952:961   */\n  dup3\n    /* \"#utility.yul\":943:950   */\n  dup5\n    /* \"#utility.yul\":939:962   */\n  sub\n    /* \"#utility.yul\":935:967   */\n  slt\n    /* \"#utility.yul\":932:1051   */\n  iszero\n  tag_61\n  jumpi\n    /* \"#utility.yul\":970:1049   */\n  tag_62\n  tag_19\n  jump\t// in\ntag_62:\n    /* \"#utility.yul\":932:1051   */\ntag_61:\n    /* \"#utility.yul\":1090:1091   */\n  0x00\n    /* \"#utility.yul\":1115:1179   */\n  tag_63\n    /* \"#utility.yul\":1171:1178   */\n  dup5\n    /* \"#utility.yul\":1162:1168   */\n  dup3\n    /* \"#utility.yul\":1151:1160   */\n  dup6\n    /* \"#utility.yul\":1147:1169   */\n  add\n    /* \"#utility.yul\":1115:1179   */\n  tag_24\n  jump\t// in\ntag_63:\n    /* \"#utility.yul\":1105:1179   */\n  swap2\n  pop\n    /* \"#utility.yul\":1061:1189   */\n  pop\n    /* \"#utility.yul\":845:1196   */\n  swap3\n  swap2\n  pop\n  pop\n  jump\t// out\n    /* \"#utility.yul\":1202:1301   */\ntag_25:\n    /* \"#utility.yul\":1254:1260   */\n  0x00\n    /* \"#utility.yul\":1288:1293   */\n  dup2\n    /* \"#utility.yul\":1282:1294   */\n  mload\n    /* \"#utility.yul\":1272:1294   */\n  swap1\n  pop\n    /* \"#utility.yul\":1202:1301   */\n  swap2\n  swap1\n  pop\n  jump\t// out\n    /* \"#utility.yul\":1307:1487   */\ntag_26:\n    /* \"#utility.yul\":1355:1432   */\n  0x4e487b7100000000000000000000000000000000000000000000000000000000\n    /* \"#utility.yul\":1352:1353   */\n  0x00\n    /* \"#utility.yul\":1345:1433   */\n  mstore\n    /* \"#utility.yul\":1452:1456   */\n  0x41\n    /* \"#utility.yul\":1449:1450   */\n  0x04\n    /* \"#utility.yul\":1442:1457   */\n  mstore\n    /* \"#utility.yul\":1476:1480   */\n  0x24\n    /* \"#utility.yul\":1473:1474   */\n  0x00\n    /* \"#utility.yul\":1466:1481   */\n  revert\n    /* \"#utility.yul\":1493:1673   */\ntag_27:\n    /* \"#utility.yul\":1541:1618   */\n  0x4e487b7100000000000000000000000000000000000000000000000000000000\n    /* \"#utility.yul\":1538:1539   */\n  0x00\n    /* \"#utility.yul\":1531:1619   */\n  mstore\n    /* \"#utility.yul\":1638:1642   */\n  0x22\n    /* \"#utility.yul\":1635:1636   */\n  0x04\n    /* \"#utility.yul\":1628:1643   */\n  mstore\n    /* \"#utility.yul\":1662:1666   */\n  0x24\n    /* \"#utility.yul\":1659:1660   */\n  0x00\n    /* \"#utility.yul\":1652:1667   */\n  revert\n    /* \"#utility.yul\":1679:1999   */\ntag_28:\n    /* \"#utility.yul\":1723:1729   */\n  0x00\n    /* \"#utility.yul\":1760:1761   */\n  0x02\n    /* \"#utility.yul\":1754:1758   */\n  dup3\n    /* \"#utility.yul\":1750:1762   */\n  div\n    /* \"#utility.yul\":1740:1762   */\n  swap1\n  pop\n    /* \"#utility.yul\":1807:1808   */\n  0x01\n    /* \"#utility.yul\":1801:1805   */\n  dup3\n    /* \"#utility.yul\":1797:1809   */\n  and\n    /* \"#utility.yul\":1828:1846   */\n  dup1\n    /* \"#utility.yul\":1818:1899   */\n  tag_68\n  jumpi\n    /* \"#utility.yul\":1884:1888   */\n  0x7f\n    /* \"#utility.yul\":1876:1882   */\n  dup3\n    /* \"#utility.yul\":1872:1889   */\n  and\n    /* \"#utility.yul\":1862:1889   */\n  swap2\n  pop\n    /* \"#utility.yul\":1818:1899   */\ntag_68:\n    /* \"#utility.yul\":1946:1948   */\n  0x20\n    /* \"#utility.yul\":1938:1944   */\n  dup3\n    /* \"#utility.yul\":1935:1949   */\n  lt\n    /* \"#utility.yul\":1915:1933   */\n  dup2\n    /* \"#utility.yul\":1912:1950   */\n  sub\n    /* \"#utility.yul\":1909:1993   */\n  tag_69\n  jumpi\n    /* \"#utility.yul\":1965:1983   */\n  tag_70\n  tag_27\n  jump\t// in\ntag_70:\n    /* \"#utility.yul\":1909:1993   */\ntag_69:\n    /* \"#utility.yul\":1730:1999   */\n  pop\n    /* \"#utility.yul\":1679:1999   */\n  swap2\n  swap1\n  pop\n  jump\t// out\n    /* \"#utility.yul\":2005:2146   */\ntag_29:\n    /* \"#utility.yul\":2054:2058   */\n  0x00\n    /* \"#utility.yul\":2077:2080   */\n  dup2\n    /* \"#utility.yul\":2069:2080   */\n  swap1\n  pop\n    /* \"#utility.yul\":2100:2103   */\n  dup2\n    /* \"#utility.yul\":2097:2098   */\n  0x00\n    /* \"#utility.yul\":2090:2104   */\n  mstore\n    /* \"#utility.yul\":2134:2138   */\n  0x20\n    /* \"#utility.yul\":2131:2132   */\n  0x00\n    /* \"#utility.yul\":2121:2139   */\n  keccak256\n    /* \"#utility.yul\":2113:2139   */\n  swap1\n  pop\n    /* \"#utility.yul\":2005:2146   */\n  swap2\n  swap1\n  pop\n  jump\t// out\n    /* \"#utility.yul\":2152:2245   */\ntag_30:\n    /* \"#utility.yul\":2189:2195   */\n  0x00\n    /* \"#utility.yul\":2236:2238   */\n  0x20\n    /* \"#utility.yul\":2231:2233   */\n  0x1f\n    /* \"#utility.yul\":2224:2229   */\n  dup4\n    /* \"#utility.yul\":2220:2234   */\n  add\n    /* \"#utility.yul\":2216:2239   */\n  div\n    /* \"#utility.yul\":2206:2239   */\n  swap1\n  pop\n    /* \"#utility.yul\":2152:2245   */\n  swap2\n  swap1\n  pop\n  jump\t// out\n    /* \"#utility.yul\":2251:2358   */\ntag_31:\n    /* \"#utility.yul\":2295:2303   */\n  0x00\n    /* \"#utility.yul\":2345:2350   */\n  dup3\n    /* \"#utility.yul\":2339:2343   */\n  dup3\n    /* \"#utility.yul\":2335:2351   */\n  shl\n    /* \"#utility.yul\":2314:2351   */\n  swap1\n  pop\n    /* \"#utility.yul\":2251:2358   */\n  swap3\n  swap2\n  pop\n  pop\n  jump\t// out\n    /* \"#utility.yul\":2364:2757   */\ntag_32:\n    /* \"#utility.yul\":2433:2439   */\n  0x00\n    /* \"#utility.yul\":2483:2484   */\n  0x08\n    /* \"#utility.yul\":2471:2481   */\n  dup4\n    /* \"#utility.yul\":2467:2485   */\n  mul\n    /* \"#utility.yul\":2506:2603   */\n  tag_75\n    /* \"#utility.yul\":2536:2602   */\n  0xffffffffffffffffffffffffffffffffffffffffffffffffffffffffffffffff\n    /* \"#utility.yul\":2525:2534   */\n  dup3\n    /* \"#utility.yul\":2506:2603   */\n  tag_31\n  jump\t// in\ntag_75:\n    /* \"#utility.yul\":2624:2663   */\n  tag_76\n    /* \"#utility.yul\":2654:2662   */\n  dup7\n    /* \"#utility.yul\":2643:2652   */\n  dup4\n    /* \"#utility.yul\":2624:2663   */\n  tag_31\n  jump\t// in\ntag_76:\n    /* \"#utility.yul\":2612:2663   */\n  swap6\n  pop\n    /* \"#utility.yul\":2696:2700   */\n  dup1\n    /* \"#utility.yul\":2692:2701   */\n  not\n    /* \"#utility.yul\":2685:2690   */\n  dup5\n    /* \"#utility.yul\":2681:2702   */\n  and\n    /* \"#utility.yul\":2672:2702   */\n  swap4\n  pop\n    /* \"#utility.yul\":2745:2749   */\n  dup1\n    /* \"#utility.yul\":2735:2743   */\n  dup7\n    /* \"#utility.yul\":2731:2750   */\n  and\n    /* \"#utility.yul\":2724:2729   */\n  dup5\n    /* \"#utility.yul\":2721:2751   */\n  or\n    /* \"#utility.yul\":2711:2751   */\n  swap3\n  pop\n    /* \"#utility.yul\":2440:2757   */\n  pop\n  pop\n    /* \"#utility.yul\":2364:2757   */\n  swap4\n  swap3\n  pop\n  pop\n  pop\n  jump\t// out\n    /* \"#utility.yul\":2763:2840   */\ntag_33:\n    /* \"#utility.yul\":2800:2807   */\n  0x00\n    /* \"#utility.yul\":2829:2834   */\n  dup2\n    /* \"#utility.yul\":2818:2834   */\n  swap1\n  pop\n    /* \"#utility.yul\":2763:2840   */\n  swap2\n  swap1\n  pop\n  jump\t// out\n    /* \"#utility.yul\":2846:2906   */\ntag_34:\n    /* \"#utility.yul\":2874:2877   */\n  0x00\n    /* \"#utility.yul\":2895:2900   */\n  dup2\n    /* \"#utility.yul\":2888:2900   */\n  swap1\n  pop\n    /* \"#utility.yul\":2846:2906   */\n  swap2\n  swap1\n  pop\n  jump\t// out\n    /* \"#utility.yul\":2912:3054   */\ntag_35:\n    /* \"#utility.yul\":2962:2971   */\n  0x00\n    /* \"#utility.yul\":2995:3048   */\n  tag_80\n    /* \"#utility.yul\":3013:3047   */\n  tag_81\n    /* \"#utility.yul\":3022:3046   */\n  tag_82\n    /* \"#utility.yul\":3040:3045   */\n  dup5\n    /* \"#utility.yul\":3022:3046   */\n  tag_33\n  jump\t// in\ntag_82:\n    /* \"#utility.yul\":3013:3047   */\n  tag_34\n  jump\t// in\ntag_81:\n    /* \"#utility.yul\":2995:3048   */\n  tag_33\n  jump\t// in\ntag_80:\n    /* \"#utility.yul\":2982:3048   */\n  swap1\n  pop\n    /* \"#utility.yul\":2912:3054   */\n  swap2\n  swap1\n  pop\n  jump\t// out\n    /* \"#utility.yul\":3060:3135   */\ntag_36:\n    /* \"#utility.yul\":3103:3106   */\n  0x00\n    /* \"#utility.yul\":3124:3129   */\n  dup2\n    /* \"#utility.yul\":3117:3129   */\n  swap1\n  pop\n    /* \"#utility.yul\":3060:3135   */\n  swap2\n  swap1\n  pop\n  jump\t// out\n    /* \"#utility.yul\":3141:3410   */\ntag_37:\n    /* \"#utility.yul\":3251:3290   */\n  tag_85\n    /* \"#utility.yul\":3282:3289   */\n  dup4\n    /* \"#utility.yul\":3251:3290   */\n  tag_35\n  jump\t// in\ntag_85:\n    /* \"#utility.yul\":3312:3403   */\n  tag_86\n    /* \"#utility.yul\":3361:3402   */\n  tag_87\n    /* \"#utility.yul\":3385:3401   */\n  dup3\n    /* \"#utility.yul\":3361:3402   */\n  tag_36\n  jump\t// in\ntag_87:\n    /* \"#utility.yul\":3353:3359   */\n  dup5\n    /* \"#utility.yul\":3346:3350   */\n  dup5\n    /* \"#utility.yul\":3340:3351   */\n  sload\n    /* \"#utility.yul\":3312:3403   */\n  tag_32\n  jump\t// in\ntag_86:\n    /* \"#utility.yul\":3306:3310   */\n  dup3\n    /* \"#utility.yul\":3299:3404   */\n  sstore\n    /* \"#utility.yul\":3217:3410   */\n  pop\n    /* \"#utility.yul\":3141:3410   */\n  pop\n  pop\n  pop\n  jump\t// out\n    /* \"#utility.yul\":3416:3489   */\ntag_38:\n    /* \"#utility.yul\":3461:3464   */\n  0x00\n    /* \"#utility.yul\":3416:3489   */\n  swap1\n  jump\t// out\n    /* \"#utility.yul\":3495:3684   */\ntag_39:\n    /* \"#utility.yul\":3572:3604   */\n  tag_90\n  tag_38\n  jump\t// in\ntag_90:\n    /* \"#utility.yul\":3613:3678   */\n  tag_91\n    /* \"#utility.yul\":3671:3677   */\n  dup2\n    /* \"#utility.yul\":3663:3669   */\n  dup5\n    /* \"#utility.yul\":3657:3661   */\n  dup5\n    /* \"#utility.yul\":3613:3678   */\n  tag_37\n  jump\t// in\ntag_91:\n    /* \"#utility.yul\":3548:3684   */\n  pop\n    /* \"#utility.yul\":3495:3684   */\n  pop\n  pop\n  jump\t// out\n    /* \"#utility.yul\":3690:3876   */\ntag_40:\n    /* \"#utility.yul\":3750:3870   */\ntag_93:\n    /* \"#utility.yul\":3767:3770   */\n  dup2\n    /* \"#utility.yul\":3760:3765   */\n  dup2\n    /* \"#utility.yul\":3757:3771   */\n  lt\n    /* \"#utility.yul\":3750:3870   */\n  iszero\n  tag_95\n  jumpi\n    /* \"#utility.yul\":3821:3860   */\n  tag_96\n    /* \"#utility.yul\":3858:3859   */\n  0x00\n    /* \"#utility.yul\":3851:3856   */\n  dup3\n    /* \"#utility.yul\":3821:3860   */\n  tag_39\n  jump\t// in\ntag_96:\n    /* \"#utility.yul\":3794:3795   */\n  0x01\n    /* \"#utility.yul\":3787:3792   */\n  dup2\n    /* \"#utility.yul\":3783:3796   */\n  add\n    /* \"#utility.yul\":3774:3796   */\n  swap1\n  pop\n    /* \"#utility.yul\":3750:3870   */\n  jump(tag_93)\ntag_95:\n    /* \"#utility.yul\":3690:3876   */\n  pop\n  pop\n  jump\t// out\n    /* \"#utility.yul\":3882:4425   */\ntag_41:\n    /* \"#utility.yul\":3983:3985   */\n  0x1f\n    /* \"#utility.yul\":3978:3981   */\n  dup3\n    /* \"#utility.yul\":3975:3986   */\n  gt\n    /* \"#utility.yul\":3972:4418   */\n  iszero\n  tag_98\n  jumpi\n    /* \"#utility.yul\":4017:4055   */\n  tag_99\n    /* \"#utility.yul\":4049:4054   */\n  dup2\n    /* \"#utility.yul\":4017:4055   */\n  tag_29\n  jump\t// in\ntag_99:\n    /* \"#utility.yul\":4101:4130   */\n  tag_100\n    /* \"#utility.yul\":4119:4129   */\n  dup5\n    /* \"#utility.yul\":4101:4130   */\n  tag_30\n  jump\t// in\ntag_100:\n    /* \"#utility.yul\":4091:4099   */\n  dup2\n    /* \"#utility.yul\":4087:4131   */\n  add\n    /* \"#utility.yul\":4284:4286   */\n  0x20\n    /* \"#utility.yul\":4272:4282   */\n  dup6\n    /* \"#utility.yul\":4269:4287   */\n  lt\n    /* \"#utility.yul\":4266:4315   */\n  iszero\n  tag_101\n  jumpi\n    /* \"#utility.yul\":4305:4313   */\n  dup2\n    /* \"#utility.yul\":4290:4313   */\n  swap1\n  pop\n    /* \"#utility.yul\":4266:4315   */\ntag_101:\n    /* \"#utility.yul\":4328:4408   */\n  tag_102\n    /* \"#utility.yul\":4384:4406   */\n  tag_103\n    /* \"#utility.yul\":4402:4405   */\n  dup6\n    /* \"#utility.yul\":4384:4406   */\n  tag_30\n  jump\t// in\ntag_103:\n    /* \"#utility.yul\":4374:4382   */\n  dup4\n    /* \"#utility.yul\":4370:4407   */\n  add\n    /* \"#utility.yul\":4357:4368   */\n  dup3\n    /* \"#utility.yul\":4328:4408   */\n  tag_40\n  jump\t// in\ntag_102:\n    /* \"#utility.yul\":3987:4418   */\n  pop\n  pop\n    /* \"#utility.yul\":3972:4418   */\ntag_98:\n    /* \"#utility.yul\":3882:4425   */\n  pop\n  pop\n  pop\n  jump\t// out\n    /* \"#utility.yul\":4431:4548   */\ntag_42:\n    /* \"#utility.yul\":4485:4493   */\n  0x00\n    /* \"#utility.yul\":4535:4540   */\n  dup3\n    /* \"#utility.yul\":4529:4533   */\n  dup3\n    /* \"#utility.yul\":4525:4541   */\n  shr\n    /* \"#utility.yul\":4504:4541   */\n  swap1\n  pop\n    /* \"#utility.yul\":4431:4548   */\n  swap3\n  swap2\n  pop\n  pop\n  jump\t// out\n    /* \"#utility.yul\":4554:4723   */\ntag_43:\n    /* \"#utility.yul\":4598:4604   */\n  0x00\n    /* \"#utility.yul\":4631:4682   */\n  tag_106\n    /* \"#utility.yul\":4679:4680   */\n  0x00\n    /* \"#utility.yul\":4675:4681   */\n  not\n    /* \"#utility.yul\":4667:4672   */\n  dup5\n    /* \"#utility.yul\":4664:4665   */\n  0x08\n    /* \"#utility.yul\":4660:4673   */\n  mul\n    /* \"#utility.yul\":4631:4682   */\n  tag_42\n  jump\t// in\ntag_106:\n    /* \"#utility.yul\":4627:4683   */\n  not\n    /* \"#utility.yul\":4712:4716   */\n  dup1\n    /* \"#utility.yul\":4706:4710   */\n  dup4\n    /* \"#utility.yul\":4702:4717   */\n  and\n    /* \"#utility.yul\":4692:4717   */\n  swap2\n  pop\n    /* \"#utility.yul\":4605:4723   */\n  pop\n    /* \"#utility.yul\":4554:4723   */\n  swap3\n  swap2\n  pop\n  pop\n  jump\t// out\n    /* \"#utility.yul\":4728:5023   */\ntag_44:\n    /* \"#utility.yul\":4804:4808   */\n  0x00\n    /* \"#utility.yul\":4950:4979   */\n  tag_108\n    /* \"#utility.yul\":4975:4978   */\n  dup4\n    /* \"#utility.yul\":4969:4973   */\n  dup4\n    /* \"#utility.yul\":4950:4979   */\n  tag_43\n  jump\t// in\ntag_108:\n    /* \"#utility.yul\":4942:4979   */\n  swap2\n  pop\n    /* \"#utility.yul\":5012:5015   */\n  dup3\n    /* \"#utility.yul\":5009:5010   */\n  0x02\n    /* \"#utility.yul\":5005:5016   */\n  mul\n    /* \"#utility.yul\":4999:5003   */\n  dup3\n    /* \"#utility.yul\":4996:5017   */\n  or\n    /* \"#utility.yul\":4988:5017   */\n  swap1\n  pop\n    /* \"#utility.yul\":4728:5023   */\n  swap3\n  swap2\n  pop\n  pop\n  jump\t// out\n    /* \"#utility.yul\":5028:6423   */\ntag_8:\n    /* \"#utility.yul\":5145:5182   */\n  tag_110\n    /* \"#utility.yul\":5178:5181   */\n  dup3\n    /* \"#utility.yul\":5145:5182   */\n  tag_25\n  jump\t// in\ntag_110:\n    /* \"#utility.yul\":5247:5265   */\n  0xffffffffffffffff\n    /* \"#utility.yul\":5239:5245   */\n  dup2\n    /* \"#utility.yul\":5236:5266   */\n  gt\n    /* \"#utility.yul\":5233:5289   */\n  iszero\n  tag_111\n  jumpi\n    /* \"#utility.yul\":5269:5287   */\n  tag_112\n  tag_26\n  jump\t// in\ntag_112:\n    /* \"#utility.yul\":5233:5289   */\ntag_111:\n    /* \"#utility.yul\":5313:5351   */\n  tag_113\n    /* \"#utility.yul\":5345:5349   */\n  dup3\n    /* \"#utility.yul\":5339:5350   */\n  sload\n    /* \"#utility.yul\":5313:5351   */\n  tag_28\n  jump\t// in\ntag_113:\n    /* \"#utility.yul\":5398:5465   */\n  tag_114\n    /* \"#utility.yul\":5458:5464   */\n  dup3\n    /* \"#utility.yul\":5450:5456   */\n  dup3\n    /* \"#utility.yul\":5444:5448   */\n  dup6\n    /* \"#utility.yul\":5398:5465   */\n  tag_41\n  jump\t// in\ntag_114:\n    /* \"#utility.yul\":5492:5493   */\n  0x00\n    /* \"#utility.yul\":5516:5520   */\n  0x20\n    /* \"#utility.yul\":5503:5520   */\n  swap1\n  pop\n    /* \"#utility.yul\":5548:5550   */\n  0x1f\n    /* \"#utility.yul\":5540:5546   */\n  dup4\n    /* \"#utility.yul\":5537:5551   */\n  gt\n    /* \"#utility.yul\":5565:5566   */\n  0x01\n    /* \"#utility.yul\":5560:6178   */\n  dup2\n  eq\n  tag_116\n  jumpi\n    /* \"#utility.yul\":6222:6223   */\n  0x00\n    /* \"#utility.yul\":6239:6245   */\n  dup5\n    /* \"#utility.yul\":6236:6313   */\n  iszero\n  tag_117\n  jumpi\n    /* \"#utility.yul\":6288:6297   */\n  dup3\n    /* \"#utility.yul\":6283:6286   */\n  dup8\n    /* \"#utility.yul\":6279:6298   */\n  add\n    /* \"#utility.yul\":6273:6299   */\n  mload\n    /* \"#utility.yul\":6264:6299   */\n  swap1\n  pop\n    /* \"#utility.yul\":6236:6313   */\ntag_117:\n    /* \"#utility.yul\":6339:6406   */\n  tag_118\n    /* \"#utility.yul\":6399:6405   */\n  dup6\n    /* \"#utility.yul\":6392:6397   */\n  dup3\n    /* \"#utility.yul\":6339:6406   */\n  tag_44\n  jump\t// in\ntag_118:\n    /* \"#utility.yul\":6333:6337   */\n  dup7\n    /* \"#utility.yul\":6326:6407   */\n  sstore\n    /* \"#utility.yul\":6195:6417   */\n  pop\n    /* \"#utility.yul\":5530:6417   */\n  jump(tag_115)\n    /* \"#utility.yul\":5560:6178   */\ntag_116:\n    /* \"#utility.yul\":5612:5616   */\n  0x1f\n    /* \"#utility.yul\":5608:5617   */\n  not\n    /* \"#utility.yul\":5600:5606   */\n  dup5\n    /* \"#utility.yul\":5596:5618   */\n  and\n    /* \"#utility.yul\":5646:5683   */\n  tag_119\n    /* \"#utility.yul\":5678:5682   */\n  dup7\n    /* \"#utility.yul\":5646:5683   */\n  tag_29\n  jump\t// in\ntag_119:\n    /* \"#utility.yul\":5705:5706   */\n  0x00\n    /* \"#utility.yul\":5719:5927   */\ntag_120:\n    /* \"#utility.yul\":5733:5740   */\n  dup3\n    /* \"#utility.yul\":5730:5731   */\n  dup2\n    /* \"#utility.yul\":5727:5741   */\n  lt\n    /* \"#utility.yul\":5719:5927   */\n  iszero\n  tag_122\n  jumpi\n    /* \"#utility.yul\":5812:5821   */\n  dup5\n    /* \"#utility.yul\":5807:5810   */\n  dup10\n    /* \"#utility.yul\":5803:5822   */\n  add\n    /* \"#utility.yul\":5797:5823   */\n  mload\n    /* \"#utility.yul\":5789:5795   */\n  dup3\n    /* \"#utility.yul\":5782:5824   */\n  sstore\n    /* \"#utility.yul\":5863:5864   */\n  0x01\n    /* \"#utility.yul\":5855:5861   */\n  dup3\n    /* \"#utility.yul\":5851:5865   */\n  add\n    /* \"#utility.yul\":5841:5865   */\n  swap2\n  pop\n    /* \"#utility.yul\":5910:5912   */\n  0x20\n    /* \"#utility.yul\":5899:5908   */\n  dup6\n    /* \"#utility.yul\":5895:5913   */\n  add\n    /* \"#utility.yul\":5882:5913   */\n  swap5\n  pop\n    /* \"#utility.yul\":5756:5760   */\n  0x20\n    /* \"#utility.yul\":5753:5754   */\n  dup2\n    /* \"#utility.yul\":5749:5761   */\n  add\n    /* \"#utility.yul\":5744:5761   */\n  swap1\n  pop\n    /* \"#utility.yul\":5719:5927   */\n  jump(tag_120)\ntag_122:\n    /* \"#utility.yul\":5955:5961   */\n  dup7\n    /* \"#utility.yul\":5946:5953   */\n  dup4\n    /* \"#utility.yul\":5943:5962   */\n  lt\n    /* \"#utility.yul\":5940:6119   */\n  iszero\n  tag_123\n  jumpi\n    /* \"#utility.yul\":6013:6022   */\n  dup5\n    /* \"#utility.yul\":6008:6011   */\n  dup10\n    /* \"#utility.yul\":6004:6023   */\n  add\n    /* \"#utility.yul\":5998:6024   */\n  mload\n    /* \"#utility.yul\":6056:6104   */\n  tag_124\n    /* \"#utility.yul\":6098:6102   */\n  0x1f\n    /* \"#utility.yul\":6090:6096   */\n  dup10\n    /* \"#utility.yul\":6086:6103   */\n  and\n    /* \"#utility.yul\":6075:6084   */\n  dup3\n    /* \"#utility.yul\":6056:6104   */\n  tag_43\n  jump\t// in\ntag_124:\n    /* \"#utility.yul\":6048:6054   */\n  dup4\n    /* \"#utility.yul\":6041:6105   */\n  sstore\n    /* \"#utility.yul\":5963:6119   */\n  pop\n    /* \"#utility.yul\":5940:6119   */\ntag_123:\n    /* \"#utility.yul\":6165:6166   */\n  0x01\n    /* \"#utility.yul\":6161:6162   */\n  0x02\n    /* \"#utility.yul\":6153:6159   */\n  dup9\n    /* \"#utility.yul\":6149:6163   */\n  mul\n    /* \"#utility.yul\":6145:6167   */\n  add\n    /* \"#utility.yul\":6139:6143   */\n  dup9\n    /* \"#utility.yul\":6132:6168   */\n  sstore\n    /* \"#utility.yul\":5567:6178   */\n  pop\n  pop\n  pop\n    /* \"#utility.yul\":5530:6417   */\ntag_115:\n  pop\n    /* \"#utility.yul\":5120:6423   */\n  pop\n  pop\n  pop\n    /* \"#utility.yul\":5028:6423   */\n  pop\n  pop\n  jump\t// out\n    /* \"#utility.yul\":6429:6515   */\ntag_45:\n    /* \"#utility.yul\":6464:6471   */\n  0x00\n    /* \"#utility.yul\":6504:6508   */\n  0xff\n    /* \"#utility.yul\":6497:6502   */\n  dup3\n    /* \"#utility.yul\":6493:6509   */\n  and\n    /* \"#utility.yul\":6482:6509   */\n  swap1\n  pop\n    /* \"#utility.yul\":6429:6515   */\n  swap2\n  swap1\n  pop\n  jump\t// out\n    /* \"#utility.yul\":6521:6639   */\ntag_46:\n    /* \"#utility.yul\":6592:6614   */\n  tag_127\n    /* \"#utility.yul\":6608:6613   */\n  dup2\n    /* \"#utility.yul\":6592:6614   */\n  tag_45\n  jump\t// in\ntag_127:\n    /* \"#utility.yul\":6585:6590   */\n  dup2\n    /* \"#utility.yul\":6582:6615   */\n  eq\n    /* \"#utility.yul\":6572:6633   */\n  tag_128\n  jumpi\n    /* \"#utility.yul\":6629:6630   */\n  0x00\n    /* \"#utility.yul\":6626:6627   */\n  dup1\n    /* \"#utility.yul\":6619:6631   */\n  revert\n    /* \"#utility.yul\":6572:6633   */\ntag_128:\n    /* \"#utility.yul\":6521:6639   */\n  pop\n  jump\t// out\n    /* \"#utility.yul\":6645:6784   */\ntag_47:\n    /* \"#utility.yul\":6700:6705   */\n  0x00\n    /* \"#utility.yul\":6731:6737   */\n  dup2\n    /* \"#utility.yul\":6725:6738   */\n  mload\n    /* \"#utility.yul\":6716:6738   */\n  swap1\n  pop\n    /* \"#utility.yul\":6747:6778   */\n  tag_130\n    /* \"#utility.yul\":6772:6777   */\n  dup2\n    /* \"#utility.yul\":6747:6778   */\n  tag_46\n  jump\t// in\ntag_130:\n    /* \"#utility.yul\":6645:6784   */\n  swap3\n  swap2\n  pop\n  pop\n  jump\t// out\n    /* \"#utility.yul\":6790:7137   */\ntag_15:\n    /* \"#utility.yul\":6858:6864   */\n  0x00\n    /* \"#utility.yul\":6907:6909   */\n  0x20\n    /* \"#utility.yul\":6895:6904   */\n  dup3\n    /* \"#utility.yul\":6886:6893   */\n  dup5\n    /* \"#utility.yul\":6882:6905   */\n  sub\n    /* \"#utility.yul\":6878:6910   */\n  slt\n    /* \"#utility.yul\":6875:6994   */\n  iszero\n  tag_132\n  jumpi\n    /* \"#utility.yul\":6913:6992   */\n  tag_133\n  tag_19\n  jump\t// in\ntag_133:\n    /* \"#utility.yul\":6875:6994   */\ntag_132:\n    /* \"#utility.yul\":7033:7034   */\n  0x00\n    /* \"#utility.yul\":7058:7120   */\n  tag_134\n    /* \"#utility.yul\":7112:7119   */\n  dup5\n    /* \"#utility.yul\":7103:7109   */\n  dup3\n    /* \"#utility.yul\":7092:7101   */\n  dup6\n    /* \"#utility.yul\":7088:7110   */\n  add\n    /* \"#utility.yul\":7058:7120   */\n  tag_47\n  jump\t// in\ntag_134:\n    /* \"#utility.yul\":7048:7120   */\n  swap2\n  pop\n    /* \"#utility.yul\":7004:7130   */\n  pop\n    /* \"#utility.yul\":6790:7137   */\n  swap3\n  swap2\n  pop\n  pop\n  jump\t// out\n    /* \"v2/TreasuryManagerBASE.sol\":740:2667  contract TreasuryManagerBASE is IStaker, ERC20 {... */\ntag_17:\n  mload(0x80)\n  mload(0xa0)\n  codecopy(0x00, dataOffset(sub_0), dataSize(sub_0))\n  0x00\n  assignImmutable(\"0xee0ff49487c1781d8064c379467bae8fb422014618d2d9ee6b1977118cbcea82\")\n  0x00\n  assignImmutable(\"0x66547114649d5833daa7007ccc99ac262792882ea3d82e4ebe0b69f18704da0c\")\n  return(0x00, dataSize(sub_0))\nstop\n\nsub_0: assembly {\n        /* \"v2/TreasuryManagerBASE.sol\":740:2667  contract TreasuryManagerBASE is IStaker, ERC20 {... */\n      mstore(0x40, 0x80)\n      callvalue\n      dup1\n      iszero\n      tag_1\n      jumpi\n      0x00\n      dup1\n      revert\n    tag_1:\n      pop\n      jumpi(tag_2, lt(calldatasize, 0x04))\n      shr(0xe0, calldataload(0x00))\n      dup1\n      0x70a08231\n      gt\n      tag_16\n      jumpi\n      dup1\n      0xa9059cbb\n      gt\n      tag_17\n      jumpi\n      dup1\n      0xa9059cbb\n      eq\n      tag_12\n      jumpi\n      dup1\n      0xadc9772e\n      eq\n      tag_13\n      jumpi\n      dup1\n      0xbe040fb0\n      eq\n      tag_14\n      jumpi\n      dup1\n      0xdd62ed3e\n      eq\n      tag_15\n      jumpi\n      jump(tag_2)\n    tag_17:\n      dup1\n      0x70a08231\n      eq\n      tag_9\n      jumpi\n      dup1\n      0x95d89b41\n      eq\n      tag_10\n      jumpi\n      dup1\n      0xa457c2d7\n      eq\n      tag_11\n      jumpi\n      jump(tag_2)\n    tag_16:\n      dup1\n      0x06fdde03\n      eq\n      tag_3\n      jumpi\n      dup1\n      0x095ea7b3\n      eq\n      tag_4\n      jumpi\n      dup1\n      0x18160ddd\n      eq\n      tag_5\n      jumpi\n      dup1\n      0x23b872dd\n      eq\n      tag_6\n      jumpi\n      dup1\n      0x313ce567\n      eq\n      tag_7\n      jumpi\n      dup1\n      0x39509351\n      eq\n      tag_8\n      jumpi\n    tag_2:\n      0x00\n      dup1\n      revert\n        /* \"@chainlink/contracts@1.4.0/src/v0.8/vendor/openzeppelin-solidity/v4.8.3/contracts/token/ERC20/ERC20.sol\":2106:2198  function name() public view virtual override returns (string memory) {... */\n    tag_3:\n      tag_18\n      tag_19\n      jump\t// in\n    tag_18:\n      mload(0x40)\n      tag_20\n      swap2\n      swap1\n      tag_21\n      jump\t// in\n    tag_20:\n      mload(0x40)\n      dup1\n      swap2\n      sub\n      swap1\n      return\n        /* \"@chainlink/contracts@1.4.0/src/v0.8/vendor/openzeppelin-solidity/v4.8.3/contracts/token/ERC20/ERC20.sol\":4231:4414  function approve(address spender, uint256 amount) public virtual override returns (bool) {... */\n    tag_4:\n      tag_22\n      0x04\n      dup1\n      calldatasize\n      sub\n      dup2\n      add\n      swap1\n      tag_23\n      swap2\n      swap1\n      tag_24\n      jump\t// in\n    tag_23:\n      tag_25\n      jump\t// in\n    tag_22:\n      mload(0x40)\n      tag_26\n      swap2\n      swap1\n      tag_27\n      jump\t// in\n    tag_26:\n      mload(0x40)\n      dup1\n      swap2\n      sub\n      swap1\n      return\n        /* \"@chainlink/contracts@1.4.0/src/v0.8/vendor/openzeppelin-solidity/v4.8.3/contracts/token/ERC20/ERC20.sol\":3130:3230  function totalSupply() public view virtual override returns (uint256) {... */\n    tag_5:\n      tag_28\n      tag_29\n      jump\t// in\n    tag_28:\n      mload(0x40)\n      tag_30\n      swap2\n      swap1\n      tag_31\n      jump\t// in\n    tag_30:\n      mload(0x40)\n      dup1\n      swap2\n      sub\n      swap1\n      return\n        /* \"@chainlink/contracts@1.4.0/src/v0.8/vendor/openzeppelin-solidity/v4.8.3/contracts/token/ERC20/ERC20.sol\":4942:5180  function transferFrom(address from, address to, uint256 amount) public virtual override returns (bool) {... */\n    tag_6:\n      tag_32\n      0x04\n      dup1\n      calldatasize\n      sub\n      dup2\n      add\n      swap1\n      tag_33\n      swap2\n      swap1\n      tag_34\n      jump\t// in\n    tag_33:\n      tag_35\n      jump\t// in\n    tag_32:\n      mload(0x40)\n      tag_36\n      swap2\n      swap1\n      tag_27\n      jump\t// in\n    tag_36:\n      mload(0x40)\n      dup1\n      swap2\n      sub\n      swap1\n      return\n        /* \"v2/TreasuryManagerBASE.sol\":2571:2664  function decimals() public view override returns (uint8) {... */\n    tag_7:\n      tag_37\n      tag_38\n      jump\t// in\n    tag_37:\n      mload(0x40)\n      tag_39\n      swap2\n      swap1\n      tag_40\n      jump\t// in\n    tag_39:\n      mload(0x40)\n      dup1\n      swap2\n      sub\n      swap1\n      return\n        /* \"@chainlink/contracts@1.4.0/src/v0.8/vendor/openzeppelin-solidity/v4.8.3/contracts/token/ERC20/ERC20.sol\":5549:5769  function increaseAllowance(address spender, uint256 addedValue) public virtual returns (bool) {... */\n    tag_8:\n      tag_41\n      0x04\n      dup1\n      calldatasize\n      sub\n      dup2\n      add\n      swap1\n      tag_42\n      swap2\n      swap1\n      tag_24\n      jump\t// in\n    tag_42:\n      tag_43\n      jump\t// in\n    tag_41:\n      mload(0x40)\n      tag_44\n      swap2\n      swap1\n      tag_27\n      jump\t// in\n    tag_44:\n      mload(0x40)\n      dup1\n      swap2\n      sub\n      swap1\n      return\n        /* \"@chainlink/contracts@1.4.0/src/v0.8/vendor/openzeppelin-solidity/v4.8.3/contracts/token/ERC20/ERC20.sol\":3280:3399  function balanceOf(address account) public view virtual override returns (uint256) {... */\n    tag_9:\n      tag_45\n      0x04\n      dup1\n      calldatasize\n      sub\n      dup2\n      add\n      swap1\n      tag_46\n      swap2\n      swap1\n      tag_47\n      jump\t// in\n    tag_46:\n      tag_48\n      jump\t// in\n    tag_45:\n      mload(0x40)\n      tag_49\n      swap2\n      swap1\n      tag_31\n      jump\t// in\n    tag_49:\n      mload(0x40)\n      dup1\n      swap2\n      sub\n      swap1\n      return\n        /* \"@chainlink/contracts@1.4.0/src/v0.8/vendor/openzeppelin-solidity/v4.8.3/contracts/token/ERC20/ERC20.sol\":2301:2397  function symbol() public view virtual override returns (string memory) {... */\n    tag_10:\n      tag_50\n      tag_51\n      jump\t// in\n    tag_50:\n      mload(0x40)\n      tag_52\n      swap2\n      swap1\n      tag_21\n      jump\t// in\n    tag_52:\n      mload(0x40)\n      dup1\n      swap2\n      sub\n      swap1\n      return\n        /* \"@chainlink/contracts@1.4.0/src/v0.8/vendor/openzeppelin-solidity/v4.8.3/contracts/token/ERC20/ERC20.sol\":6226:6621  function decreaseAllowance(address spender, uint256 subtractedValue) public virtual returns (bool) {... */\n    tag_11:\n      tag_53\n      0x04\n      dup1\n      calldatasize\n      sub\n      dup2\n      add\n      swap1\n      tag_54\n      swap2\n      swap1\n      tag_24\n      jump\t// in\n    tag_54:\n      tag_55\n      jump\t// in\n    tag_53:\n      mload(0x40)\n      tag_56\n      swap2\n      swap1\n      tag_27\n      jump\t// in\n    tag_56:\n      mload(0x40)\n      dup1\n      swap2\n      sub\n      swap1\n      return\n        /* \"@chainlink/contracts@1.4.0/src/v0.8/vendor/openzeppelin-solidity/v4.8.3/contracts/token/ERC20/ERC20.sol\":3577:3752  function transfer(address to, uint256 amount) public virtual override returns (bool) {... */\n    tag_12:\n      tag_57\n      0x04\n      dup1\n      calldatasize\n      sub\n      dup2\n      add\n      swap1\n      tag_58\n      swap2\n      swap1\n      tag_24\n      jump\t// in\n    tag_58:\n      tag_59\n      jump\t// in\n    tag_57:\n      mload(0x40)\n      tag_60\n      swap2\n      swap1\n      tag_27\n      jump\t// in\n    tag_60:\n      mload(0x40)\n      dup1\n      swap2\n      sub\n      swap1\n      return\n        /* \"v2/TreasuryManagerBASE.sol\":1863:2247  function stake(address _beneficiary, uint256 _amount) external {... */\n    tag_13:\n      tag_61\n      0x04\n      dup1\n      calldatasize\n      sub\n      dup2\n      add\n      swap1\n      tag_62\n      swap2\n      swap1\n      tag_24\n      jump\t// in\n    tag_62:\n      tag_63\n      jump\t// in\n    tag_61:\n      stop\n        /* \"v2/TreasuryManagerBASE.sol\":2255:2563  function redeem() external {... */\n    tag_14:\n      tag_64\n      tag_65\n      jump\t// in\n    tag_64:\n      stop\n        /* \"@chainlink/contracts@1.4.0/src/v0.8/vendor/openzeppelin-solidity/v4.8.3/contracts/token/ERC20/ERC20.sol\":3802:3945  function allowance(address owner, address spender) public view virtual override returns (uint256) {... */\n    tag_15:\n      tag_66\n      0x04\n      dup1\n      calldatasize\n      sub\n      dup2\n      add\n      swap1\n      tag_67\n      swap2\n      swap1\n      tag_68\n      jump\t// in\n    tag_67:\n      tag_69\n      jump\t// in\n    tag_66:\n      mload(0x40)\n      tag_70\n      swap2\n      swap1\n      tag_31\n      jump\t// in\n    tag_70:\n      mload(0x40)\n      dup1\n      swap2\n      sub\n      swap1\n      return\n        /* \"@chainlink/contracts@1.4.0/src/v0.8/vendor/openzeppelin-solidity/v4.8.3/contracts/token/ERC20/ERC20.sol\":2106:2198  function name() public view virtual override returns (string memory) {... */\n    tag_19:\n        /* \"@chainlink/contracts@1.4.0/src/v0.8/vendor/openzeppelin-solidity/v4.8.3/contracts/token/ERC20/ERC20.sol\":2160:2173  string memory */\n      0x60\n        /* \"@chainlink/contracts@1.4.0/src/v0.8/vendor/openzeppelin-solidity/v4.8.3/contracts/token/ERC20/ERC20.sol\":2188:2193  _name */\n      0x03\n        /* \"@chainlink/contracts@1.4.0/src/v0.8/vendor/openzeppelin-solidity/v4.8.3/contracts/token/ERC20/ERC20.sol\":2181:2193  return _name */\n      dup1\n      sload\n      tag_72\n      swap1\n      tag_73\n      jump\t// in\n    tag_72:\n      dup1\n      0x1f\n      add\n      0x20\n      dup1\n      swap2\n      div\n      mul\n      0x20\n      add\n      mload(0x40)\n      swap1\n      dup2\n      add\n      0x40\n      mstore\n      dup1\n      swap3\n      swap2\n      swap1\n      dup2\n      dup2\n      mstore\n      0x20\n      add\n      dup3\n      dup1\n      sload\n      tag_74\n      swap1\n      tag_73\n      jump\t// in\n    tag_74:\n      dup1\n      iszero\n      tag_75\n      jumpi\n      dup1\n      0x1f\n      lt\n      tag_76\n      jumpi\n      0x0100\n      dup1\n      dup4\n      sload\n      div\n      mul\n      dup4\n      mstore\n      swap2\n      0x20\n      add\n      swap2\n      jump(tag_75)\n    tag_76:\n      dup3\n      add\n      swap2\n      swap1\n      0x00\n      mstore\n      keccak256(0x00, 0x20)\n      swap1\n    tag_77:\n      dup2\n      sload\n      dup2\n      mstore\n      swap1\n      0x01\n      add\n      swap1\n      0x20\n      add\n      dup1\n      dup4\n      gt\n      tag_77\n      jumpi\n      dup3\n      swap1\n      sub\n      0x1f\n      and\n      dup3\n      add\n      swap2\n    tag_75:\n      pop\n      pop\n      pop\n      pop\n      pop\n      swap1\n      pop\n        /* \"@chainlink/contracts@1.4.0/src/v0.8/vendor/openzeppelin-solidity/v4.8.3/contracts/token/ERC20/ERC20.sol\":2106:2198  function name() public view virtual override returns (string memory) {... */\n      swap1\n      jump\t// out\n        /* \"@chainlink/contracts@1.4.0/src/v0.8/vendor/openzeppelin-solidity/v4.8.3/contracts/token/ERC20/ERC20.sol\":4231:4414  function approve(address spender, uint256 amount) public virtual override returns (bool) {... */\n    tag_25:\n        /* \"@chainlink/contracts@1.4.0/src/v0.8/vendor/openzeppelin-solidity/v4.8.3/contracts/token/ERC20/ERC20.sol\":4314:4318  bool */\n      0x00\n        /* \"@chainlink/contracts@1.4.0/src/v0.8/vendor/openzeppelin-solidity/v4.8.3/contracts/token/ERC20/ERC20.sol\":4326:4339  address owner */\n      dup1\n        /* \"@chainlink/contracts@1.4.0/src/v0.8/vendor/openzeppelin-solidity/v4.8.3/contracts/token/ERC20/ERC20.sol\":4342:4354  _msgSender() */\n      tag_79\n        /* \"@chainlink/contracts@1.4.0/src/v0.8/vendor/openzeppelin-solidity/v4.8.3/contracts/token/ERC20/ERC20.sol\":4342:4352  _msgSender */\n      tag_80\n        /* \"@chainlink/contracts@1.4.0/src/v0.8/vendor/openzeppelin-solidity/v4.8.3/contracts/token/ERC20/ERC20.sol\":4342:4354  _msgSender() */\n      jump\t// in\n    tag_79:\n        /* \"@chainlink/contracts@1.4.0/src/v0.8/vendor/openzeppelin-solidity/v4.8.3/contracts/token/ERC20/ERC20.sol\":4326:4354  address owner = _msgSender() */\n      swap1\n      pop\n        /* \"@chainlink/contracts@1.4.0/src/v0.8/vendor/openzeppelin-solidity/v4.8.3/contracts/token/ERC20/ERC20.sol\":4360:4392  _approve(owner, spender, amount) */\n      tag_81\n        /* \"@chainlink/contracts@1.4.0/src/v0.8/vendor/openzeppelin-solidity/v4.8.3/contracts/token/ERC20/ERC20.sol\":4369:4374  owner */\n      dup2\n        /* \"@chainlink/contracts@1.4.0/src/v0.8/vendor/openzeppelin-solidity/v4.8.3/contracts/token/ERC20/ERC20.sol\":4376:4383  spender */\n      dup6\n        /* \"@chainlink/contracts@1.4.0/src/v0.8/vendor/openzeppelin-solidity/v4.8.3/contracts/token/ERC20/ERC20.sol\":4385:4391  amount */\n      dup6\n        /* \"@chainlink/contracts@1.4.0/src/v0.8/vendor/openzeppelin-solidity/v4.8.3/contracts/token/ERC20/ERC20.sol\":4360:4368  _approve */\n      tag_82\n        /* \"@chainlink/contracts@1.4.0/src/v0.8/vendor/openzeppelin-solidity/v4.8.3/contracts/token/ERC20/ERC20.sol\":4360:4392  _approve(owner, spender, amount) */\n      jump\t// in\n    tag_81:\n        /* \"@chainlink/contracts@1.4.0/src/v0.8/vendor/openzeppelin-solidity/v4.8.3/contracts/token/ERC20/ERC20.sol\":4405:4409  true */\n      0x01\n        /* \"@chainlink/contracts@1.4.0/src/v0.8/vendor/openzeppelin-solidity/v4.8.3/contracts/token/ERC20/ERC20.sol\":4398:4409  return true */\n      swap2\n      pop\n      pop\n        /* \"@chainlink/contracts@1.4.0/src/v0.8/vendor/openzeppelin-solidity/v4.8.3/contracts/token/ERC20/ERC20.sol\":4231:4414  function approve(address spender, uint256 amount) public virtual override returns (bool) {... */\n      swap3\n      swap2\n      pop\n      pop\n      jump\t// out\n        /* \"@chainlink/contracts@1.4.0/src/v0.8/vendor/openzeppelin-solidity/v4.8.3/contracts/token/ERC20/ERC20.sol\":3130:3230  function totalSupply() public view virtual override returns (uint256) {... */\n    tag_29:\n        /* \"@chainlink/contracts@1.4.0/src/v0.8/vendor/openzeppelin-solidity/v4.8.3/contracts/token/ERC20/ERC20.sol\":3191:3198  uint256 */\n      0x00\n        /* \"@chainlink/contracts@1.4.0/src/v0.8/vendor/openzeppelin-solidity/v4.8.3/contracts/token/ERC20/ERC20.sol\":3213:3225  _totalSupply */\n      sload(0x02)\n        /* \"@chainlink/contracts@1.4.0/src/v0.8/vendor/openzeppelin-solidity/v4.8.3/contracts/token/ERC20/ERC20.sol\":3206:3225  return _totalSupply */\n      swap1\n      pop\n        /* \"@chainlink/contracts@1.4.0/src/v0.8/vendor/openzeppelin-solidity/v4.8.3/contracts/token/ERC20/ERC20.sol\":3130:3230  function totalSupply() public view virtual override returns (uint256) {... */\n      swap1\n      jump\t// out\n        /* \"@chainlink/contracts@1.4.0/src/v0.8/vendor/openzeppelin-solidity/v4.8.3/contracts/token/ERC20/ERC20.sol\":4942:5180  function transferFrom(address from, address to, uint256 amount) public virtual override returns (bool) {... */\n    tag_35:\n        /* \"@chainlink/contracts@1.4.0/src/v0.8/vendor/openzeppelin-solidity/v4.8.3/contracts/token/ERC20/ERC20.sol\":5039:5043  bool */\n      0x00\n        /* \"@chainlink/contracts@1.4.0/src/v0.8/vendor/openzeppelin-solidity/v4.8.3/contracts/token/ERC20/ERC20.sol\":5051:5066  address spender */\n      dup1\n        /* \"@chainlink/contracts@1.4.0/src/v0.8/vendor/openzeppelin-solidity/v4.8.3/contracts/token/ERC20/ERC20.sol\":5069:5081  _msgSender() */\n      tag_85\n        /* \"@chainlink/contracts@1.4.0/src/v0.8/vendor/openzeppelin-solidity/v4.8.3/contracts/token/ERC20/ERC20.sol\":5069:5079  _msgSender */\n      tag_80\n        /* \"@chainlink/contracts@1.4.0/src/v0.8/vendor/openzeppelin-solidity/v4.8.3/contracts/token/ERC20/ERC20.sol\":5069:5081  _msgSender() */\n      jump\t// in\n    tag_85:\n        /* \"@chainlink/contracts@1.4.0/src/v0.8/vendor/openzeppelin-solidity/v4.8.3/contracts/token/ERC20/ERC20.sol\":5051:5081  address spender = _msgSender() */\n      swap1\n      pop\n        /* \"@chainlink/contracts@1.4.0/src/v0.8/vendor/openzeppelin-solidity/v4.8.3/contracts/token/ERC20/ERC20.sol\":5087:5125  _spendAllowance(from, spender, amount) */\n      tag_86\n        /* \"@chainlink/contracts@1.4.0/src/v0.8/vendor/openzeppelin-solidity/v4.8.3/contracts/token/ERC20/ERC20.sol\":5103:5107  from */\n      dup6\n        /* \"@chainlink/contracts@1.4.0/src/v0.8/vendor/openzeppelin-solidity/v4.8.3/contracts/token/ERC20/ERC20.sol\":5109:5116  spender */\n      dup3\n        /* \"@chainlink/contracts@1.4.0/src/v0.8/vendor/openzeppelin-solidity/v4.8.3/contracts/token/ERC20/ERC20.sol\":5118:5124  amount */\n      dup6\n        /* \"@chainlink/contracts@1.4.0/src/v0.8/vendor/openzeppelin-solidity/v4.8.3/contracts/token/ERC20/ERC20.sol\":5087:5102  _spendAllowance */\n      tag_87\n        /* \"@chainlink/contracts@1.4.0/src/v0.8/vendor/openzeppelin-solidity/v4.8.3/contracts/token/ERC20/ERC20.sol\":5087:5125  _spendAllowance(from, spender, amount) */\n      jump\t// in\n    tag_86:\n        /* \"@chainlink/contracts@1.4.0/src/v0.8/vendor/openzeppelin-solidity/v4.8.3/contracts/token/ERC20/ERC20.sol\":5131:5158  _transfer(from, to, amount) */\n      tag_88\n        /* \"@chainlink/contracts@1.4.0/src/v0.8/vendor/openzeppelin-solidity/v4.8.3/contracts/token/ERC20/ERC20.sol\":5141:5145  from */\n      dup6\n        /* \"@chainlink/contracts@1.4.0/src/v0.8/vendor/openzeppelin-solidity/v4.8.3/contracts/token/ERC20/ERC20.sol\":5147:5149  to */\n      dup6\n        /* \"@chainlink/contracts@1.4.0/src/v0.8/vendor/openzeppelin-solidity/v4.8.3/contracts/token/ERC20/ERC20.sol\":5151:5157  amount */\n      dup6\n        /* \"@chainlink/contracts@1.4.0/src/v0.8/vendor/openzeppelin-solidity/v4.8.3/contracts/token/ERC20/ERC20.sol\":5131:5140  _transfer */\n      tag_89\n        /* \"@chainlink/contracts@1.4.0/src/v0.8/vendor/openzeppelin-solidity/v4.8.3/contracts/token/ERC20/ERC20.sol\":5131:5158  _transfer(from, to, amount) */\n      jump\t// in\n    tag_88:\n        /* \"@chainlink/contracts@1.4.0/src/v0.8/vendor/openzeppelin-solidity/v4.8.3/contracts/token/ERC20/ERC20.sol\":5171:5175  true */\n      0x01\n        /* \"@chainlink/contracts@1.4.0/src/v0.8/vendor/openzeppelin-solidity/v4.8.3/contracts/token/ERC20/ERC20.sol\":5164:5175  return true */\n      swap2\n      pop\n      pop\n        /* \"@chainlink/contracts@1.4.0/src/v0.8/vendor/openzeppelin-solidity/v4.8.3/contracts/token/ERC20/ERC20.sol\":4942:5180  function transferFrom(address from, address to, uint256 amount) public virtual override returns (bool) {... */\n      swap4\n      swap3\n      pop\n      pop\n      pop\n      jump\t// out\n        /* \"v2/TreasuryManagerBASE.sol\":2571:2664  function decimals() public view override returns (uint8) {... */\n    tag_38:\n        /* \"v2/TreasuryManagerBASE.sol\":2621:2626  uint8 */\n      0x00\n        /* \"v2/TreasuryManagerBASE.sol\":2646:2656  i_decimals */\n      immutable(\"0xee0ff49487c1781d8064c379467bae8fb422014618d2d9ee6b1977118cbcea82\")\n        /* \"v2/TreasuryManagerBASE.sol\":2639:2656  return i_decimals */\n      swap1\n      pop\n        /* \"v2/TreasuryManagerBASE.sol\":2571:2664  function decimals() public view override returns (uint8) {... */\n      swap1\n      jump\t// out\n        /* \"@chainlink/contracts@1.4.0/src/v0.8/vendor/openzeppelin-solidity/v4.8.3/contracts/token/ERC20/ERC20.sol\":5549:5769  function increaseAllowance(address spender, uint256 addedValue) public virtual returns (bool) {... */\n    tag_43:\n        /* \"@chainlink/contracts@1.4.0/src/v0.8/vendor/openzeppelin-solidity/v4.8.3/contracts/token/ERC20/ERC20.sol\":5637:5641  bool */\n      0x00\n        /* \"@chainlink/contracts@1.4.0/src/v0.8/vendor/openzeppelin-solidity/v4.8.3/contracts/token/ERC20/ERC20.sol\":5649:5662  address owner */\n      dup1\n        /* \"@chainlink/contracts@1.4.0/src/v0.8/vendor/openzeppelin-solidity/v4.8.3/contracts/token/ERC20/ERC20.sol\":5665:5677  _msgSender() */\n      tag_92\n        /* \"@chainlink/contracts@1.4.0/src/v0.8/vendor/openzeppelin-solidity/v4.8.3/contracts/token/ERC20/ERC20.sol\":5665:5675  _msgSender */\n      tag_80\n        /* \"@chainlink/contracts@1.4.0/src/v0.8/vendor/openzeppelin-solidity/v4.8.3/contracts/token/ERC20/ERC20.sol\":5665:5677  _msgSender() */\n      jump\t// in\n    tag_92:\n        /* \"@chainlink/contracts@1.4.0/src/v0.8/vendor/openzeppelin-solidity/v4.8.3/contracts/token/ERC20/ERC20.sol\":5649:5677  address owner = _msgSender() */\n      swap1\n      pop\n        /* \"@chainlink/contracts@1.4.0/src/v0.8/vendor/openzeppelin-solidity/v4.8.3/contracts/token/ERC20/ERC20.sol\":5683:5747  _approve(owner, spender, allowance(owner, spender) + addedValue) */\n      tag_93\n        /* \"@chainlink/contracts@1.4.0/src/v0.8/vendor/openzeppelin-solidity/v4.8.3/contracts/token/ERC20/ERC20.sol\":5692:5697  owner */\n      dup2\n        /* \"@chainlink/contracts@1.4.0/src/v0.8/vendor/openzeppelin-solidity/v4.8.3/contracts/token/ERC20/ERC20.sol\":5699:5706  spender */\n      dup6\n        /* \"@chainlink/contracts@1.4.0/src/v0.8/vendor/openzeppelin-solidity/v4.8.3/contracts/token/ERC20/ERC20.sol\":5736:5746  addedValue */\n      dup6\n        /* \"@chainlink/contracts@1.4.0/src/v0.8/vendor/openzeppelin-solidity/v4.8.3/contracts/token/ERC20/ERC20.sol\":5708:5733  allowance(owner, spender) */\n      tag_94\n        /* \"@chainlink/contracts@1.4.0/src/v0.8/vendor/openzeppelin-solidity/v4.8.3/contracts/token/ERC20/ERC20.sol\":5718:5723  owner */\n      dup6\n        /* \"@chainlink/contracts@1.4.0/src/v0.8/vendor/openzeppelin-solidity/v4.8.3/contracts/token/ERC20/ERC20.sol\":5725:5732  spender */\n      dup10\n        /* \"@chainlink/contracts@1.4.0/src/v0.8/vendor/openzeppelin-solidity/v4.8.3/contracts/token/ERC20/ERC20.sol\":5708:5717  allowance */\n      tag_69\n        /* \"@chainlink/contracts@1.4.0/src/v0.8/vendor/openzeppelin-solidity/v4.8.3/contracts/token/ERC20/ERC20.sol\":5708:5733  allowance(owner, spender) */\n      jump\t// in\n    tag_94:\n        /* \"@chainlink/contracts@1.4.0/src/v0.8/vendor/openzeppelin-solidity/v4.8.3/contracts/token/ERC20/ERC20.sol\":5708:5746  allowance(owner, spender) + addedValue */\n      tag_95\n      swap2\n      swap1\n      tag_96\n      jump\t// in\n    tag_95:\n        /* \"@chainlink/contracts@1.4.0/src/v0.8/vendor/openzeppelin-solidity/v4.8.3/contracts/token/ERC20/ERC20.sol\":5683:5691  _approve */\n      tag_82\n        /* \"@chainlink/contracts@1.4.0/src/v0.8/vendor/openzeppelin-solidity/v4.8.3/contracts/token/ERC20/ERC20.sol\":5683:5747  _approve(owner, spender, allowance(owner, spender) + addedValue) */\n      jump\t// in\n    tag_93:\n        /* \"@chainlink/contracts@1.4.0/src/v0.8/vendor/openzeppelin-solidity/v4.8.3/contracts/token/ERC20/ERC20.sol\":5760:5764  true */\n      0x01\n        /* \"@chainlink/contracts@1.4.0/src/v0.8/vendor/openzeppelin-solidity/v4.8.3/contracts/token/ERC20/ERC20.sol\":5753:5764  return true */\n      swap2\n      pop\n      pop\n        /* \"@chainlink/contracts@1.4.0/src/v0.8/vendor/openzeppelin-solidity/v4.8.3/contracts/token/ERC20/ERC20.sol\":5549:5769  function increaseAllowance(address spender, uint256 addedValue) public virtual returns (bool) {... */\n      swap3\n      swap2\n      pop\n      pop\n      jump\t// out\n        /* \"@chainlink/contracts@1.4.0/src/v0.8/vendor/openzeppelin-solidity/v4.8.3/contracts/token/ERC20/ERC20.sol\":3280:3399  function balanceOf(address account) public view virtual override returns (uint256) {... */\n    tag_48:\n        /* \"@chainlink/contracts@1.4.0/src/v0.8/vendor/openzeppelin-solidity/v4.8.3/contracts/token/ERC20/ERC20.sol\":3354:3361  uint256 */\n      0x00\n        /* \"@chainlink/contracts@1.4.0/src/v0.8/vendor/openzeppelin-solidity/v4.8.3/contracts/token/ERC20/ERC20.sol\":3376:3385  _balances */\n      dup1\n        /* \"@chainlink/contracts@1.4.0/src/v0.8/vendor/openzeppelin-solidity/v4.8.3/contracts/token/ERC20/ERC20.sol\":3376:3394  _balances[account] */\n      0x00\n        /* \"@chainlink/contracts@1.4.0/src/v0.8/vendor/openzeppelin-solidity/v4.8.3/contracts/token/ERC20/ERC20.sol\":3386:3393  account */\n      dup4\n        /* \"@chainlink/contracts@1.4.0/src/v0.8/vendor/openzeppelin-solidity/v4.8.3/contracts/token/ERC20/ERC20.sol\":3376:3394  _balances[account] */\n      0xffffffffffffffffffffffffffffffffffffffff\n      and\n      0xffffffffffffffffffffffffffffffffffffffff\n      and\n      dup2\n      mstore\n      0x20\n      add\n      swap1\n      dup2\n      mstore\n      0x20\n      add\n      0x00\n      keccak256\n      sload\n        /* \"@chainlink/contracts@1.4.0/src/v0.8/vendor/openzeppelin-solidity/v4.8.3/contracts/token/ERC20/ERC20.sol\":3369:3394  return _balances[account] */\n      swap1\n      pop\n        /* \"@chainlink/contracts@1.4.0/src/v0.8/vendor/openzeppelin-solidity/v4.8.3/contracts/token/ERC20/ERC20.sol\":3280:3399  function balanceOf(address account) public view virtual override returns (uint256) {... */\n      swap2\n      swap1\n      pop\n      jump\t// out\n        /* \"@chainlink/contracts@1.4.0/src/v0.8/vendor/openzeppelin-solidity/v4.8.3/contracts/token/ERC20/ERC20.sol\":2301:2397  function symbol() public view virtual override returns (string memory) {... */\n    tag_51:\n        /* \"@chainlink/contracts@1.4.0/src/v0.8/vendor/openzeppelin-solidity/v4.8.3/contracts/token/ERC20/ERC20.sol\":2357:2370  string memory */\n      0x60\n        /* \"@chainlink/contracts@1.4.0/src/v0.8/vendor/openzeppelin-solidity/v4.8.3/contracts/token/ERC20/ERC20.sol\":2385:2392  _symbol */\n      0x04\n        /* \"@chainlink/contracts@1.4.0/src/v0.8/vendor/openzeppelin-solidity/v4.8.3/contracts/token/ERC20/ERC20.sol\":2378:2392  return _symbol */\n      dup1\n      sload\n      tag_99\n      swap1\n      tag_73\n      jump\t// in\n    tag_99:\n      dup1\n      0x1f\n      add\n      0x20\n      dup1\n      swap2\n      div\n      mul\n      0x20\n      add\n      mload(0x40)\n      swap1\n      dup2\n      add\n      0x40\n      mstore\n      dup1\n      swap3\n      swap2\n      swap1\n      dup2\n      dup2\n      mstore\n      0x20\n      add\n      dup3\n      dup1\n      sload\n      tag_100\n      swap1\n      tag_73\n      jump\t// in\n    tag_100:\n      dup1\n      iszero\n      tag_101\n      jumpi\n      dup1\n      0x1f\n      lt\n      tag_102\n      jumpi\n      0x0100\n      dup1\n      dup4\n      sload\n      div\n      mul\n      dup4\n      mstore\n      swap2\n      0x20\n      add\n      swap2\n      jump(tag_101)\n    tag_102:\n      dup3\n      add\n      swap2\n      swap1\n      0x00\n      mstore\n      keccak256(0x00, 0x20)\n      swap1\n    tag_103:\n      dup2\n      sload\n      dup2\n      mstore\n      swap1\n      0x01\n      add\n      swap1\n      0x20\n      add\n      dup1\n      dup4\n      gt\n      tag_103\n      jumpi\n      dup3\n      swap1\n      sub\n      0x1f\n      and\n      dup3\n      add\n      swap2\n    tag_101:\n      pop\n      pop\n      pop\n      pop\n      pop\n      swap1\n      pop\n        /* \"@chainlink/contracts@1.4.0/src/v0.8/vendor/openzeppelin-solidity/v4.8.3/contracts/token/ERC20/ERC20.sol\":2301:2397  function symbol() public view virtual override returns (string memory) {... */\n      swap1\n      jump\t// out\n        /* \"@chainlink/contracts@1.4.0/src/v0.8/vendor/openzeppelin-solidity/v4.8.3/contracts/token/ERC20/ERC20.sol\":6226:6621  function decreaseAllowance(address spender, uint256 subtractedValue) public virtual returns (bool) {... */\n    tag_55:\n        /* \"@chainlink/contracts@1.4.0/src/v0.8/vendor/openzeppelin-solidity/v4.8.3/contracts/token/ERC20/ERC20.sol\":6319:6323  bool */\n      0x00\n        /* \"@chainlink/contracts@1.4.0/src/v0.8/vendor/openzeppelin-solidity/v4.8.3/contracts/token/ERC20/ERC20.sol\":6331:6344  address owner */\n      dup1\n        /* \"@chainlink/contracts@1.4.0/src/v0.8/vendor/openzeppelin-solidity/v4.8.3/contracts/token/ERC20/ERC20.sol\":6347:6359  _msgSender() */\n      tag_105\n        /* \"@chainlink/contracts@1.4.0/src/v0.8/vendor/openzeppelin-solidity/v4.8.3/contracts/token/ERC20/ERC20.sol\":6347:6357  _msgSender */\n      tag_80\n        /* \"@chainlink/contracts@1.4.0/src/v0.8/vendor/openzeppelin-solidity/v4.8.3/contracts/token/ERC20/ERC20.sol\":6347:6359  _msgSender() */\n      jump\t// in\n    tag_105:\n        /* \"@chainlink/contracts@1.4.0/src/v0.8/vendor/openzeppelin-solidity/v4.8.3/contracts/token/ERC20/ERC20.sol\":6331:6359  address owner = _msgSender() */\n      swap1\n      pop\n        /* \"@chainlink/contracts@1.4.0/src/v0.8/vendor/openzeppelin-solidity/v4.8.3/contracts/token/ERC20/ERC20.sol\":6365:6389  uint256 currentAllowance */\n      0x00\n        /* \"@chainlink/contracts@1.4.0/src/v0.8/vendor/openzeppelin-solidity/v4.8.3/contracts/token/ERC20/ERC20.sol\":6392:6417  allowance(owner, spender) */\n      tag_106\n        /* \"@chainlink/contracts@1.4.0/src/v0.8/vendor/openzeppelin-solidity/v4.8.3/contracts/token/ERC20/ERC20.sol\":6402:6407  owner */\n      dup3\n        /* \"@chainlink/contracts@1.4.0/src/v0.8/vendor/openzeppelin-solidity/v4.8.3/contracts/token/ERC20/ERC20.sol\":6409:6416  spender */\n      dup7\n        /* \"@chainlink/contracts@1.4.0/src/v0.8/vendor/openzeppelin-solidity/v4.8.3/contracts/token/ERC20/ERC20.sol\":6392:6401  allowance */\n      tag_69\n        /* \"@chainlink/contracts@1.4.0/src/v0.8/vendor/openzeppelin-solidity/v4.8.3/contracts/token/ERC20/ERC20.sol\":6392:6417  allowance(owner, spender) */\n      jump\t// in\n    tag_106:\n        /* \"@chainlink/contracts@1.4.0/src/v0.8/vendor/openzeppelin-solidity/v4.8.3/contracts/token/ERC20/ERC20.sol\":6365:6417  uint256 currentAllowance = allowance(owner, spender) */\n      swap1\n      pop\n        /* \"@chainlink/contracts@1.4.0/src/v0.8/vendor/openzeppelin-solidity/v4.8.3/contracts/token/ERC20/ERC20.sol\":6451:6466  subtractedValue */\n      dup4\n        /* \"@chainlink/contracts@1.4.0/src/v0.8/vendor/openzeppelin-solidity/v4.8.3/contracts/token/ERC20/ERC20.sol\":6431:6447  currentAllowance */\n      dup2\n        /* \"@chainlink/contracts@1.4.0/src/v0.8/vendor/openzeppelin-solidity/v4.8.3/contracts/token/ERC20/ERC20.sol\":6431:6466  currentAllowance >= subtractedValue */\n      lt\n      iszero\n        /* \"@chainlink/contracts@1.4.0/src/v0.8/vendor/openzeppelin-solidity/v4.8.3/contracts/token/ERC20/ERC20.sol\":6423:6508  require(currentAllowance >= subtractedValue, \"ERC20: decreased allowance below zero\") */\n      tag_107\n      jumpi\n      mload(0x40)\n      0x08c379a000000000000000000000000000000000000000000000000000000000\n      dup2\n      mstore\n      0x04\n      add\n      tag_108\n      swap1\n      tag_109\n      jump\t// in\n    tag_108:\n      mload(0x40)\n      dup1\n      swap2\n      sub\n      swap1\n      revert\n    tag_107:\n        /* \"@chainlink/contracts@1.4.0/src/v0.8/vendor/openzeppelin-solidity/v4.8.3/contracts/token/ERC20/ERC20.sol\":6532:6592  _approve(owner, spender, currentAllowance - subtractedValue) */\n      tag_110\n        /* \"@chainlink/contracts@1.4.0/src/v0.8/vendor/openzeppelin-solidity/v4.8.3/contracts/token/ERC20/ERC20.sol\":6541:6546  owner */\n      dup3\n        /* \"@chainlink/contracts@1.4.0/src/v0.8/vendor/openzeppelin-solidity/v4.8.3/contracts/token/ERC20/ERC20.sol\":6548:6555  spender */\n      dup7\n        /* \"@chainlink/contracts@1.4.0/src/v0.8/vendor/openzeppelin-solidity/v4.8.3/contracts/token/ERC20/ERC20.sol\":6576:6591  subtractedValue */\n      dup7\n        /* \"@chainlink/contracts@1.4.0/src/v0.8/vendor/openzeppelin-solidity/v4.8.3/contracts/token/ERC20/ERC20.sol\":6557:6573  currentAllowance */\n      dup5\n        /* \"@chainlink/contracts@1.4.0/src/v0.8/vendor/openzeppelin-solidity/v4.8.3/contracts/token/ERC20/ERC20.sol\":6557:6591  currentAllowance - subtractedValue */\n      sub\n        /* \"@chainlink/contracts@1.4.0/src/v0.8/vendor/openzeppelin-solidity/v4.8.3/contracts/token/ERC20/ERC20.sol\":6532:6540  _approve */\n      tag_82\n        /* \"@chainlink/contracts@1.4.0/src/v0.8/vendor/openzeppelin-solidity/v4.8.3/contracts/token/ERC20/ERC20.sol\":6532:6592  _approve(owner, spender, currentAllowance - subtractedValue) */\n      jump\t// in\n    tag_110:\n        /* \"@chainlink/contracts@1.4.0/src/v0.8/vendor/openzeppelin-solidity/v4.8.3/contracts/token/ERC20/ERC20.sol\":6612:6616  true */\n      0x01\n        /* \"@chainlink/contracts@1.4.0/src/v0.8/vendor/openzeppelin-solidity/v4.8.3/contracts/token/ERC20/ERC20.sol\":6605:6616  return true */\n      swap3\n      pop\n      pop\n      pop\n        /* \"@chainlink/contracts@1.4.0/src/v0.8/vendor/openzeppelin-solidity/v4.8.3/contracts/token/ERC20/ERC20.sol\":6226:6621  function decreaseAllowance(address spender, uint256 subtractedValue) public virtual returns (bool) {... */\n      swap3\n      swap2\n      pop\n      pop\n      jump\t// out\n        /* \"@chainlink/contracts@1.4.0/src/v0.8/vendor/openzeppelin-solidity/v4.8.3/contracts/token/ERC20/ERC20.sol\":3577:3752  function transfer(address to, uint256 amount) public virtual override returns (bool) {... */\n    tag_59:\n        /* \"@chainlink/contracts@1.4.0/src/v0.8/vendor/openzeppelin-solidity/v4.8.3/contracts/token/ERC20/ERC20.sol\":3656:3660  bool */\n      0x00\n        /* \"@chainlink/contracts@1.4.0/src/v0.8/vendor/openzeppelin-solidity/v4.8.3/contracts/token/ERC20/ERC20.sol\":3668:3681  address owner */\n      dup1\n        /* \"@chainlink/contracts@1.4.0/src/v0.8/vendor/openzeppelin-solidity/v4.8.3/contracts/token/ERC20/ERC20.sol\":3684:3696  _msgSender() */\n      tag_112\n        /* \"@chainlink/contracts@1.4.0/src/v0.8/vendor/openzeppelin-solidity/v4.8.3/contracts/token/ERC20/ERC20.sol\":3684:3694  _msgSender */\n      tag_80\n        /* \"@chainlink/contracts@1.4.0/src/v0.8/vendor/openzeppelin-solidity/v4.8.3/contracts/token/ERC20/ERC20.sol\":3684:3696  _msgSender() */\n      jump\t// in\n    tag_112:\n        /* \"@chainlink/contracts@1.4.0/src/v0.8/vendor/openzeppelin-solidity/v4.8.3/contracts/token/ERC20/ERC20.sol\":3668:3696  address owner = _msgSender() */\n      swap1\n      pop\n        /* \"@chainlink/contracts@1.4.0/src/v0.8/vendor/openzeppelin-solidity/v4.8.3/contracts/token/ERC20/ERC20.sol\":3702:3730  _transfer(owner, to, amount) */\n      tag_113\n        /* \"@chainlink/contracts@1.4.0/src/v0.8/vendor/openzeppelin-solidity/v4.8.3/contracts/token/ERC20/ERC20.sol\":3712:3717  owner */\n      dup2\n        /* \"@chainlink/contracts@1.4.0/src/v0.8/vendor/openzeppelin-solidity/v4.8.3/contracts/token/ERC20/ERC20.sol\":3719:3721  to */\n      dup6\n        /* \"@chainlink/contracts@1.4.0/src/v0.8/vendor/openzeppelin-solidity/v4.8.3/contracts/token/ERC20/ERC20.sol\":3723:3729  amount */\n      dup6\n        /* \"@chainlink/contracts@1.4.0/src/v0.8/vendor/openzeppelin-solidity/v4.8.3/contracts/token/ERC20/ERC20.sol\":3702:3711  _transfer */\n      tag_89\n        /* \"@chainlink/contracts@1.4.0/src/v0.8/vendor/openzeppelin-solidity/v4.8.3/contracts/token/ERC20/ERC20.sol\":3702:3730  _transfer(owner, to, amount) */\n      jump\t// in\n    tag_113:\n        /* \"@chainlink/contracts@1.4.0/src/v0.8/vendor/openzeppelin-solidity/v4.8.3/contracts/token/ERC20/ERC20.sol\":3743:3747  true */\n      0x01\n        /* \"@chainlink/contracts@1.4.0/src/v0.8/vendor/openzeppelin-solidity/v4.8.3/contracts/token/ERC20/ERC20.sol\":3736:3747  return true */\n      swap2\n      pop\n      pop\n        /* \"@chainlink/contracts@1.4.0/src/v0.8/vendor/openzeppelin-solidity/v4.8.3/contracts/token/ERC20/ERC20.sol\":3577:3752  function transfer(address to, uint256 amount) public virtual override returns (bool) {... */\n      swap3\n      swap2\n      pop\n      pop\n      jump\t// out\n        /* \"v2/TreasuryManagerBASE.sol\":1863:2247  function stake(address _beneficiary, uint256 _amount) external {... */\n    tag_63:\n        /* \"v2/TreasuryManagerBASE.sol\":1965:1966  0 */\n      0x00\n        /* \"v2/TreasuryManagerBASE.sol\":1941:1967  _beneficiary == address(0) */\n      0xffffffffffffffffffffffffffffffffffffffff\n      and\n        /* \"v2/TreasuryManagerBASE.sol\":1941:1953  _beneficiary */\n      dup3\n        /* \"v2/TreasuryManagerBASE.sol\":1941:1967  _beneficiary == address(0) */\n      0xffffffffffffffffffffffffffffffffffffffff\n      and\n      sub\n        /* \"v2/TreasuryManagerBASE.sol\":1937:1996  if (_beneficiary == address(0)) revert InvalidBeneficiary() */\n      tag_115\n      jumpi\n        /* \"v2/TreasuryManagerBASE.sol\":1976:1996  InvalidBeneficiary() */\n      mload(0x40)\n      0x5566df5c00000000000000000000000000000000000000000000000000000000\n      dup2\n      mstore\n      0x04\n      add\n      mload(0x40)\n      dup1\n      swap2\n      sub\n      swap1\n      revert\n        /* \"v2/TreasuryManagerBASE.sol\":1937:1996  if (_beneficiary == address(0)) revert InvalidBeneficiary() */\n    tag_115:\n        /* \"v2/TreasuryManagerBASE.sol\":2022:2023  0 */\n      0x00\n        /* \"v2/TreasuryManagerBASE.sol\":2011:2018  _amount */\n      dup2\n        /* \"v2/TreasuryManagerBASE.sol\":2011:2023  _amount == 0 */\n      sub\n        /* \"v2/TreasuryManagerBASE.sol\":2007:2047  if (_amount == 0) revert InvalidAmount() */\n      tag_116\n      jumpi\n        /* \"v2/TreasuryManagerBASE.sol\":2032:2047  InvalidAmount() */\n      mload(0x40)\n      0x2c5211c600000000000000000000000000000000000000000000000000000000\n      dup2\n      mstore\n      0x04\n      add\n      mload(0x40)\n      dup1\n      swap2\n      sub\n      swap1\n      revert\n        /* \"v2/TreasuryManagerBASE.sol\":2007:2047  if (_amount == 0) revert InvalidAmount() */\n    tag_116:\n        /* \"v2/TreasuryManagerBASE.sol\":2060:2124  i_usdcToken.safeTransferFrom(msg.sender, address(this), _amount) */\n      tag_117\n        /* \"v2/TreasuryManagerBASE.sol\":2089:2099  msg.sender */\n      caller\n        /* \"v2/TreasuryManagerBASE.sol\":2109:2113  this */\n      address\n        /* \"v2/TreasuryManagerBASE.sol\":2116:2123  _amount */\n      dup4\n        /* \"v2/TreasuryManagerBASE.sol\":2060:2071  i_usdcToken */\n      immutable(\"0x66547114649d5833daa7007ccc99ac262792882ea3d82e4ebe0b69f18704da0c\")\n        /* \"v2/TreasuryManagerBASE.sol\":2060:2088  i_usdcToken.safeTransferFrom */\n      0xffffffffffffffffffffffffffffffffffffffff\n      and\n      tag_118\n      swap1\n        /* \"v2/TreasuryManagerBASE.sol\":2060:2124  i_usdcToken.safeTransferFrom(msg.sender, address(this), _amount) */\n      swap4\n      swap3\n      swap2\n      swap1\n      0xffffffff\n      and\n      jump\t// in\n    tag_117:\n        /* \"v2/TreasuryManagerBASE.sol\":1863:2247  function stake(address _beneficiary, uint256 _amount) external {... */\n      pop\n      pop\n      jump\t// out\n        /* \"v2/TreasuryManagerBASE.sol\":2255:2563  function redeem() external {... */\n    tag_65:\n        /* \"v2/TreasuryManagerBASE.sol\":2293:2308  uint256 balance */\n      0x00\n        /* \"v2/TreasuryManagerBASE.sol\":2311:2332  balanceOf(msg.sender) */\n      tag_120\n        /* \"v2/TreasuryManagerBASE.sol\":2321:2331  msg.sender */\n      caller\n        /* \"v2/TreasuryManagerBASE.sol\":2311:2320  balanceOf */\n      tag_48\n        /* \"v2/TreasuryManagerBASE.sol\":2311:2332  balanceOf(msg.sender) */\n      jump\t// in\n    tag_120:\n        /* \"v2/TreasuryManagerBASE.sol\":2293:2332  uint256 balance = balanceOf(msg.sender) */\n      swap1\n      pop\n        /* \"v2/TreasuryManagerBASE.sol\":2358:2359  0 */\n      0x00\n        /* \"v2/TreasuryManagerBASE.sol\":2347:2354  balance */\n      dup2\n        /* \"v2/TreasuryManagerBASE.sol\":2347:2359  balance == 0 */\n      sub\n        /* \"v2/TreasuryManagerBASE.sol\":2343:2385  if (balance == 0) revert NothingToRedeem() */\n      tag_121\n      jumpi\n        /* \"v2/TreasuryManagerBASE.sol\":2368:2385  NothingToRedeem() */\n      mload(0x40)\n      0x9890af6000000000000000000000000000000000000000000000000000000000\n      dup2\n      mstore\n      0x04\n      add\n      mload(0x40)\n      dup1\n      swap2\n      sub\n      swap1\n      revert\n        /* \"v2/TreasuryManagerBASE.sol\":2343:2385  if (balance == 0) revert NothingToRedeem() */\n    tag_121:\n        /* \"v2/TreasuryManagerBASE.sol\":2396:2441  i_usdcToken.safeTransfer(msg.sender, balance) */\n      tag_122\n        /* \"v2/TreasuryManagerBASE.sol\":2421:2431  msg.sender */\n      caller\n        /* \"v2/TreasuryManagerBASE.sol\":2433:2440  balance */\n      dup3\n        /* \"v2/TreasuryManagerBASE.sol\":2396:2407  i_usdcToken */\n      immutable(\"0x66547114649d5833daa7007ccc99ac262792882ea3d82e4ebe0b69f18704da0c\")\n        /* \"v2/TreasuryManagerBASE.sol\":2396:2420  i_usdcToken.safeTransfer */\n      0xffffffffffffffffffffffffffffffffffffffff\n      and\n      tag_123\n      swap1\n        /* \"v2/TreasuryManagerBASE.sol\":2396:2441  i_usdcToken.safeTransfer(msg.sender, balance) */\n      swap3\n      swap2\n      swap1\n      0xffffffff\n      and\n      jump\t// in\n    tag_122:\n        /* \"v2/TreasuryManagerBASE.sol\":2282:2563  {... */\n      pop\n        /* \"v2/TreasuryManagerBASE.sol\":2255:2563  function redeem() external {... */\n      jump\t// out\n        /* \"@chainlink/contracts@1.4.0/src/v0.8/vendor/openzeppelin-solidity/v4.8.3/contracts/token/ERC20/ERC20.sol\":3802:3945  function allowance(address owner, address spender) public view virtual override returns (uint256) {... */\n    tag_69:\n        /* \"@chainlink/contracts@1.4.0/src/v0.8/vendor/openzeppelin-solidity/v4.8.3/contracts/token/ERC20/ERC20.sol\":3891:3898  uint256 */\n      0x00\n        /* \"@chainlink/contracts@1.4.0/src/v0.8/vendor/openzeppelin-solidity/v4.8.3/contracts/token/ERC20/ERC20.sol\":3913:3924  _allowances */\n      0x01\n        /* \"@chainlink/contracts@1.4.0/src/v0.8/vendor/openzeppelin-solidity/v4.8.3/contracts/token/ERC20/ERC20.sol\":3913:3931  _allowances[owner] */\n      0x00\n        /* \"@chainlink/contracts@1.4.0/src/v0.8/vendor/openzeppelin-solidity/v4.8.3/contracts/token/ERC20/ERC20.sol\":3925:3930  owner */\n      dup5\n        /* \"@chainlink/contracts@1.4.0/src/v0.8/vendor/openzeppelin-solidity/v4.8.3/contracts/token/ERC20/ERC20.sol\":3913:3931  _allowances[owner] */\n      0xffffffffffffffffffffffffffffffffffffffff\n      and\n      0xffffffffffffffffffffffffffffffffffffffff\n      and\n      dup2\n      mstore\n      0x20\n      add\n      swap1\n      dup2\n      mstore\n      0x20\n      add\n      0x00\n      keccak256\n        /* \"@chainlink/contracts@1.4.0/src/v0.8/vendor/openzeppelin-solidity/v4.8.3/contracts/token/ERC20/ERC20.sol\":3913:3940  _allowances[owner][spender] */\n      0x00\n        /* \"@chainlink/contracts@1.4.0/src/v0.8/vendor/openzeppelin-solidity/v4.8.3/contracts/token/ERC20/ERC20.sol\":3932:3939  spender */\n      dup4\n        /* \"@chainlink/contracts@1.4.0/src/v0.8/vendor/openzeppelin-solidity/v4.8.3/contracts/token/ERC20/ERC20.sol\":3913:3940  _allowances[owner][spender] */\n      0xffffffffffffffffffffffffffffffffffffffff\n      and\n      0xffffffffffffffffffffffffffffffffffffffff\n      and\n      dup2\n      mstore\n      0x20\n      add\n      swap1\n      dup2\n      mstore\n      0x20\n      add\n      0x00\n      keccak256\n      sload\n        /* \"@chainlink/contracts@1.4.0/src/v0.8/vendor/openzeppelin-solidity/v4.8.3/contracts/token/ERC20/ERC20.sol\":3906:3940  return _allowances[owner][spender] */\n      swap1\n      pop\n        /* \"@chainlink/contracts@1.4.0/src/v0.8/vendor/openzeppelin-solidity/v4.8.3/contracts/token/ERC20/ERC20.sol\":3802:3945  function allowance(address owner, address spender) public view virtual override returns (uint256) {... */\n      swap3\n      swap2\n      pop\n      pop\n      jump\t// out\n        /* \"@chainlink/contracts@1.4.0/src/v0.8/vendor/openzeppelin-solidity/v4.8.3/contracts/utils/Context.sol\":638:728  function _msgSender() internal view virtual returns (address) {... */\n    tag_80:\n        /* \"@chainlink/contracts@1.4.0/src/v0.8/vendor/openzeppelin-solidity/v4.8.3/contracts/utils/Context.sol\":691:698  address */\n      0x00\n        /* \"@chainlink/contracts@1.4.0/src/v0.8/vendor/openzeppelin-solidity/v4.8.3/contracts/utils/Context.sol\":713:723  msg.sender */\n      caller\n        /* \"@chainlink/contracts@1.4.0/src/v0.8/vendor/openzeppelin-solidity/v4.8.3/contracts/utils/Context.sol\":706:723  return msg.sender */\n      swap1\n      pop\n        /* \"@chainlink/contracts@1.4.0/src/v0.8/vendor/openzeppelin-solidity/v4.8.3/contracts/utils/Context.sol\":638:728  function _msgSender() internal view virtual returns (address) {... */\n      swap1\n      jump\t// out\n        /* \"@chainlink/contracts@1.4.0/src/v0.8/vendor/openzeppelin-solidity/v4.8.3/contracts/token/ERC20/ERC20.sol\":9818:10140  function _approve(address owner, address spender, uint256 amount) internal virtual {... */\n    tag_82:\n        /* \"@chainlink/contracts@1.4.0/src/v0.8/vendor/openzeppelin-solidity/v4.8.3/contracts/token/ERC20/ERC20.sol\":9932:9933  0 */\n      0x00\n        /* \"@chainlink/contracts@1.4.0/src/v0.8/vendor/openzeppelin-solidity/v4.8.3/contracts/token/ERC20/ERC20.sol\":9915:9934  owner != address(0) */\n      0xffffffffffffffffffffffffffffffffffffffff\n      and\n        /* \"@chainlink/contracts@1.4.0/src/v0.8/vendor/openzeppelin-solidity/v4.8.3/contracts/token/ERC20/ERC20.sol\":9915:9920  owner */\n      dup4\n        /* \"@chainlink/contracts@1.4.0/src/v0.8/vendor/openzeppelin-solidity/v4.8.3/contracts/token/ERC20/ERC20.sol\":9915:9934  owner != address(0) */\n      0xffffffffffffffffffffffffffffffffffffffff\n      and\n      sub\n        /* \"@chainlink/contracts@1.4.0/src/v0.8/vendor/openzeppelin-solidity/v4.8.3/contracts/token/ERC20/ERC20.sol\":9907:9975  require(owner != address(0), \"ERC20: approve from the zero address\") */\n      tag_127\n      jumpi\n      mload(0x40)\n      0x08c379a000000000000000000000000000000000000000000000000000000000\n      dup2\n      mstore\n      0x04\n      add\n      tag_128\n      swap1\n      tag_129\n      jump\t// in\n    tag_128:\n      mload(0x40)\n      dup1\n      swap2\n      sub\n      swap1\n      revert\n    tag_127:\n        /* \"@chainlink/contracts@1.4.0/src/v0.8/vendor/openzeppelin-solidity/v4.8.3/contracts/token/ERC20/ERC20.sol\":10008:10009  0 */\n      0x00\n        /* \"@chainlink/contracts@1.4.0/src/v0.8/vendor/openzeppelin-solidity/v4.8.3/contracts/token/ERC20/ERC20.sol\":9989:10010  spender != address(0) */\n      0xffffffffffffffffffffffffffffffffffffffff\n      and\n        /* \"@chainlink/contracts@1.4.0/src/v0.8/vendor/openzeppelin-solidity/v4.8.3/contracts/token/ERC20/ERC20.sol\":9989:9996  spender */\n      dup3\n        /* \"@chainlink/contracts@1.4.0/src/v0.8/vendor/openzeppelin-solidity/v4.8.3/contracts/token/ERC20/ERC20.sol\":9989:10010  spender != address(0) */\n      0xffffffffffffffffffffffffffffffffffffffff\n      and\n      sub\n        /* \"@chainlink/contracts@1.4.0/src/v0.8/vendor/openzeppelin-solidity/v4.8.3/contracts/token/ERC20/ERC20.sol\":9981:10049  require(spender != address(0), \"ERC20: approve to the zero address\") */\n      tag_130\n      jumpi\n      mload(0x40)\n      0x08c379a000000000000000000000000000000000000000000000000000000000\n      dup2\n      mstore\n      0x04\n      add\n      tag_131\n      swap1\n      tag_132\n      jump\t// in\n    tag_131:\n      mload(0x40)\n      dup1\n      swap2\n      sub\n      swap1\n      revert\n    tag_130:\n        /* \"@chainlink/contracts@1.4.0/src/v0.8/vendor/openzeppelin-solidity/v4.8.3/contracts/token/ERC20/ERC20.sol\":10086:10092  amount */\n      dup1\n        /* \"@chainlink/contracts@1.4.0/src/v0.8/vendor/openzeppelin-solidity/v4.8.3/contracts/token/ERC20/ERC20.sol\":10056:10067  _allowances */\n      0x01\n        /* \"@chainlink/contracts@1.4.0/src/v0.8/vendor/openzeppelin-solidity/v4.8.3/contracts/token/ERC20/ERC20.sol\":10056:10074  _allowances[owner] */\n      0x00\n        /* \"@chainlink/contracts@1.4.0/src/v0.8/vendor/openzeppelin-solidity/v4.8.3/contracts/token/ERC20/ERC20.sol\":10068:10073  owner */\n      dup6\n        /* \"@chainlink/contracts@1.4.0/src/v0.8/vendor/openzeppelin-solidity/v4.8.3/contracts/token/ERC20/ERC20.sol\":10056:10074  _allowances[owner] */\n      0xffffffffffffffffffffffffffffffffffffffff\n      and\n      0xffffffffffffffffffffffffffffffffffffffff\n      and\n      dup2\n      mstore\n      0x20\n      add\n      swap1\n      dup2\n      mstore\n      0x20\n      add\n      0x00\n      keccak256\n        /* \"@chainlink/contracts@1.4.0/src/v0.8/vendor/openzeppelin-solidity/v4.8.3/contracts/token/ERC20/ERC20.sol\":10056:10083  _allowances[owner][spender] */\n      0x00\n        /* \"@chainlink/contracts@1.4.0/src/v0.8/vendor/openzeppelin-solidity/v4.8.3/contracts/token/ERC20/ERC20.sol\":10075:10082  spender */\n      dup5\n        /* \"@chainlink/contracts@1.4.0/src/v0.8/vendor/openzeppelin-solidity/v4.8.3/contracts/token/ERC20/ERC20.sol\":10056:10083  _allowances[owner][spender] */\n      0xffffffffffffffffffffffffffffffffffffffff\n      and\n      0xffffffffffffffffffffffffffffffffffffffff\n      and\n      dup2\n      mstore\n      0x20\n      add\n      swap1\n      dup2\n      mstore\n      0x20\n      add\n      0x00\n      keccak256\n        /* \"@chainlink/contracts@1.4.0/src/v0.8/vendor/openzeppelin-solidity/v4.8.3/contracts/token/ERC20/ERC20.sol\":10056:10092  _allowances[owner][spender] = amount */\n      dup2\n      swap1\n      sstore\n      pop\n        /* \"@chainlink/contracts@1.4.0/src/v0.8/vendor/openzeppelin-solidity/v4.8.3/contracts/token/ERC20/ERC20.sol\":10119:10126  spender */\n      dup2\n        /* \"@chainlink/contracts@1.4.0/src/v0.8/vendor/openzeppelin-solidity/v4.8.3/contracts/token/ERC20/ERC20.sol\":10103:10135  Approval(owner, spender, amount) */\n      0xffffffffffffffffffffffffffffffffffffffff\n      and\n        /* \"@chainlink/contracts@1.4.0/src/v0.8/vendor/openzeppelin-solidity/v4.8.3/contracts/token/ERC20/ERC20.sol\":10112:10117  owner */\n      dup4\n        /* \"@chainlink/contracts@1.4.0/src/v0.8/vendor/openzeppelin-solidity/v4.8.3/contracts/token/ERC20/ERC20.sol\":10103:10135  Approval(owner, spender, amount) */\n      0xffffffffffffffffffffffffffffffffffffffff\n      and\n      0x8c5be1e5ebec7d5bd14f71427d1e84f3dd0314c0f7b2291e5b200ac8c7c3b925\n        /* \"@chainlink/contracts@1.4.0/src/v0.8/vendor/openzeppelin-solidity/v4.8.3/contracts/token/ERC20/ERC20.sol\":10128:10134  amount */\n      dup4\n        /* \"@chainlink/contracts@1.4.0/src/v0.8/vendor/openzeppelin-solidity/v4.8.3/contracts/token/ERC20/ERC20.sol\":10103:10135  Approval(owner, spender, amount) */\n      mload(0x40)\n      tag_133\n      swap2\n      swap1\n      tag_31\n      jump\t// in\n    tag_133:\n      mload(0x40)\n      dup1\n      swap2\n      sub\n      swap1\n      log3\n        /* \"@chainlink/contracts@1.4.0/src/v0.8/vendor/openzeppelin-solidity/v4.8.3/contracts/token/ERC20/ERC20.sol\":9818:10140  function _approve(address owner, address spender, uint256 amount) internal virtual {... */\n      pop\n      pop\n      pop\n      jump\t// out\n        /* \"@chainlink/contracts@1.4.0/src/v0.8/vendor/openzeppelin-solidity/v4.8.3/contracts/token/ERC20/ERC20.sol\":10403:10774  function _spendAllowance(address owner, address spender, uint256 amount) internal virtual {... */\n    tag_87:\n        /* \"@chainlink/contracts@1.4.0/src/v0.8/vendor/openzeppelin-solidity/v4.8.3/contracts/token/ERC20/ERC20.sol\":10499:10523  uint256 currentAllowance */\n      0x00\n        /* \"@chainlink/contracts@1.4.0/src/v0.8/vendor/openzeppelin-solidity/v4.8.3/contracts/token/ERC20/ERC20.sol\":10526:10551  allowance(owner, spender) */\n      tag_135\n        /* \"@chainlink/contracts@1.4.0/src/v0.8/vendor/openzeppelin-solidity/v4.8.3/contracts/token/ERC20/ERC20.sol\":10536:10541  owner */\n      dup5\n        /* \"@chainlink/contracts@1.4.0/src/v0.8/vendor/openzeppelin-solidity/v4.8.3/contracts/token/ERC20/ERC20.sol\":10543:10550  spender */\n      dup5\n        /* \"@chainlink/contracts@1.4.0/src/v0.8/vendor/openzeppelin-solidity/v4.8.3/contracts/token/ERC20/ERC20.sol\":10526:10535  allowance */\n      tag_69\n        /* \"@chainlink/contracts@1.4.0/src/v0.8/vendor/openzeppelin-solidity/v4.8.3/contracts/token/ERC20/ERC20.sol\":10526:10551  allowance(owner, spender) */\n      jump\t// in\n    tag_135:\n        /* \"@chainlink/contracts@1.4.0/src/v0.8/vendor/openzeppelin-solidity/v4.8.3/contracts/token/ERC20/ERC20.sol\":10499:10551  uint256 currentAllowance = allowance(owner, spender) */\n      swap1\n      pop\n        /* \"@chainlink/contracts@1.4.0/src/v0.8/vendor/openzeppelin-solidity/v4.8.3/contracts/token/ERC20/ERC20.sol\":10581:10598  type(uint256).max */\n      0xffffffffffffffffffffffffffffffffffffffffffffffffffffffffffffffff\n        /* \"@chainlink/contracts@1.4.0/src/v0.8/vendor/openzeppelin-solidity/v4.8.3/contracts/token/ERC20/ERC20.sol\":10561:10577  currentAllowance */\n      dup2\n        /* \"@chainlink/contracts@1.4.0/src/v0.8/vendor/openzeppelin-solidity/v4.8.3/contracts/token/ERC20/ERC20.sol\":10561:10598  currentAllowance != type(uint256).max */\n      eq\n        /* \"@chainlink/contracts@1.4.0/src/v0.8/vendor/openzeppelin-solidity/v4.8.3/contracts/token/ERC20/ERC20.sol\":10557:10770  if (currentAllowance != type(uint256).max) {... */\n      tag_136\n      jumpi\n        /* \"@chainlink/contracts@1.4.0/src/v0.8/vendor/openzeppelin-solidity/v4.8.3/contracts/token/ERC20/ERC20.sol\":10636:10642  amount */\n      dup2\n        /* \"@chainlink/contracts@1.4.0/src/v0.8/vendor/openzeppelin-solidity/v4.8.3/contracts/token/ERC20/ERC20.sol\":10616:10632  currentAllowance */\n      dup2\n        /* \"@chainlink/contracts@1.4.0/src/v0.8/vendor/openzeppelin-solidity/v4.8.3/contracts/token/ERC20/ERC20.sol\":10616:10642  currentAllowance >= amount */\n      lt\n      iszero\n        /* \"@chainlink/contracts@1.4.0/src/v0.8/vendor/openzeppelin-solidity/v4.8.3/contracts/token/ERC20/ERC20.sol\":10608:10676  require(currentAllowance >= amount, \"ERC20: insufficient allowance\") */\n      tag_137\n      jumpi\n      mload(0x40)\n      0x08c379a000000000000000000000000000000000000000000000000000000000\n      dup2\n      mstore\n      0x04\n      add\n      tag_138\n      swap1\n      tag_139\n      jump\t// in\n    tag_138:\n      mload(0x40)\n      dup1\n      swap2\n      sub\n      swap1\n      revert\n    tag_137:\n        /* \"@chainlink/contracts@1.4.0/src/v0.8/vendor/openzeppelin-solidity/v4.8.3/contracts/token/ERC20/ERC20.sol\":10704:10755  _approve(owner, spender, currentAllowance - amount) */\n      tag_140\n        /* \"@chainlink/contracts@1.4.0/src/v0.8/vendor/openzeppelin-solidity/v4.8.3/contracts/token/ERC20/ERC20.sol\":10713:10718  owner */\n      dup5\n        /* \"@chainlink/contracts@1.4.0/src/v0.8/vendor/openzeppelin-solidity/v4.8.3/contracts/token/ERC20/ERC20.sol\":10720:10727  spender */\n      dup5\n        /* \"@chainlink/contracts@1.4.0/src/v0.8/vendor/openzeppelin-solidity/v4.8.3/contracts/token/ERC20/ERC20.sol\":10748:10754  amount */\n      dup5\n        /* \"@chainlink/contracts@1.4.0/src/v0.8/vendor/openzeppelin-solidity/v4.8.3/contracts/token/ERC20/ERC20.sol\":10729:10745  currentAllowance */\n      dup5\n        /* \"@chainlink/contracts@1.4.0/src/v0.8/vendor/openzeppelin-solidity/v4.8.3/contracts/token/ERC20/ERC20.sol\":10729:10754  currentAllowance - amount */\n      sub\n        /* \"@chainlink/contracts@1.4.0/src/v0.8/vendor/openzeppelin-solidity/v4.8.3/contracts/token/ERC20/ERC20.sol\":10704:10712  _approve */\n      tag_82\n        /* \"@chainlink/contracts@1.4.0/src/v0.8/vendor/openzeppelin-solidity/v4.8.3/contracts/token/ERC20/ERC20.sol\":10704:10755  _approve(owner, spender, currentAllowance - amount) */\n      jump\t// in\n    tag_140:\n        /* \"@chainlink/contracts@1.4.0/src/v0.8/vendor/openzeppelin-solidity/v4.8.3/contracts/token/ERC20/ERC20.sol\":10557:10770  if (currentAllowance != type(uint256).max) {... */\n    tag_136:\n        /* \"@chainlink/contracts@1.4.0/src/v0.8/vendor/openzeppelin-solidity/v4.8.3/contracts/token/ERC20/ERC20.sol\":10493:10774  {... */\n      pop\n        /* \"@chainlink/contracts@1.4.0/src/v0.8/vendor/openzeppelin-solidity/v4.8.3/contracts/token/ERC20/ERC20.sol\":10403:10774  function _spendAllowance(address owner, address spender, uint256 amount) internal virtual {... */\n      pop\n      pop\n      pop\n      jump\t// out\n        /* \"@chainlink/contracts@1.4.0/src/v0.8/vendor/openzeppelin-solidity/v4.8.3/contracts/token/ERC20/ERC20.sol\":7045:7771  function _transfer(address from, address to, uint256 amount) internal virtual {... */\n    tag_89:\n        /* \"@chainlink/contracts@1.4.0/src/v0.8/vendor/openzeppelin-solidity/v4.8.3/contracts/token/ERC20/ERC20.sol\":7153:7154  0 */\n      0x00\n        /* \"@chainlink/contracts@1.4.0/src/v0.8/vendor/openzeppelin-solidity/v4.8.3/contracts/token/ERC20/ERC20.sol\":7137:7155  from != address(0) */\n      0xffffffffffffffffffffffffffffffffffffffff\n      and\n        /* \"@chainlink/contracts@1.4.0/src/v0.8/vendor/openzeppelin-solidity/v4.8.3/contracts/token/ERC20/ERC20.sol\":7137:7141  from */\n      dup4\n        /* \"@chainlink/contracts@1.4.0/src/v0.8/vendor/openzeppelin-solidity/v4.8.3/contracts/token/ERC20/ERC20.sol\":7137:7155  from != address(0) */\n      0xffffffffffffffffffffffffffffffffffffffff\n      and\n      sub\n        /* \"@chainlink/contracts@1.4.0/src/v0.8/vendor/openzeppelin-solidity/v4.8.3/contracts/token/ERC20/ERC20.sol\":7129:7197  require(from != address(0), \"ERC20: transfer from the zero address\") */\n      tag_142\n      jumpi\n      mload(0x40)\n      0x08c379a000000000000000000000000000000000000000000000000000000000\n      dup2\n      mstore\n      0x04\n      add\n      tag_143\n      swap1\n      tag_144\n      jump\t// in\n    tag_143:\n      mload(0x40)\n      dup1\n      swap2\n      sub\n      swap1\n      revert\n    tag_142:\n        /* \"@chainlink/contracts@1.4.0/src/v0.8/vendor/openzeppelin-solidity/v4.8.3/contracts/token/ERC20/ERC20.sol\":7225:7226  0 */\n      0x00\n        /* \"@chainlink/contracts@1.4.0/src/v0.8/vendor/openzeppelin-solidity/v4.8.3/contracts/token/ERC20/ERC20.sol\":7211:7227  to != address(0) */\n      0xffffffffffffffffffffffffffffffffffffffff\n      and\n        /* \"@chainlink/contracts@1.4.0/src/v0.8/vendor/openzeppelin-solidity/v4.8.3/contracts/token/ERC20/ERC20.sol\":7211:7213  to */\n      dup3\n        /* \"@chainlink/contracts@1.4.0/src/v0.8/vendor/openzeppelin-solidity/v4.8.3/contracts/token/ERC20/ERC20.sol\":7211:7227  to != address(0) */\n      0xffffffffffffffffffffffffffffffffffffffff\n      and\n      sub\n        /* \"@chainlink/contracts@1.4.0/src/v0.8/vendor/openzeppelin-solidity/v4.8.3/contracts/token/ERC20/ERC20.sol\":7203:7267  require(to != address(0), \"ERC20: transfer to the zero address\") */\n      tag_145\n      jumpi\n      mload(0x40)\n      0x08c379a000000000000000000000000000000000000000000000000000000000\n      dup2\n      mstore\n      0x04\n      add\n      tag_146\n      swap1\n      tag_147\n      jump\t// in\n    tag_146:\n      mload(0x40)\n      dup1\n      swap2\n      sub\n      swap1\n      revert\n    tag_145:\n        /* \"@chainlink/contracts@1.4.0/src/v0.8/vendor/openzeppelin-solidity/v4.8.3/contracts/token/ERC20/ERC20.sol\":7274:7312  _beforeTokenTransfer(from, to, amount) */\n      tag_148\n        /* \"@chainlink/contracts@1.4.0/src/v0.8/vendor/openzeppelin-solidity/v4.8.3/contracts/token/ERC20/ERC20.sol\":7295:7299  from */\n      dup4\n        /* \"@chainlink/contracts@1.4.0/src/v0.8/vendor/openzeppelin-solidity/v4.8.3/contracts/token/ERC20/ERC20.sol\":7301:7303  to */\n      dup4\n        /* \"@chainlink/contracts@1.4.0/src/v0.8/vendor/openzeppelin-solidity/v4.8.3/contracts/token/ERC20/ERC20.sol\":7305:7311  amount */\n      dup4\n        /* \"@chainlink/contracts@1.4.0/src/v0.8/vendor/openzeppelin-solidity/v4.8.3/contracts/token/ERC20/ERC20.sol\":7274:7294  _beforeTokenTransfer */\n      tag_149\n        /* \"@chainlink/contracts@1.4.0/src/v0.8/vendor/openzeppelin-solidity/v4.8.3/contracts/token/ERC20/ERC20.sol\":7274:7312  _beforeTokenTransfer(from, to, amount) */\n      jump\t// in\n    tag_148:\n        /* \"@chainlink/contracts@1.4.0/src/v0.8/vendor/openzeppelin-solidity/v4.8.3/contracts/token/ERC20/ERC20.sol\":7319:7338  uint256 fromBalance */\n      0x00\n        /* \"@chainlink/contracts@1.4.0/src/v0.8/vendor/openzeppelin-solidity/v4.8.3/contracts/token/ERC20/ERC20.sol\":7341:7350  _balances */\n      dup1\n        /* \"@chainlink/contracts@1.4.0/src/v0.8/vendor/openzeppelin-solidity/v4.8.3/contracts/token/ERC20/ERC20.sol\":7341:7356  _balances[from] */\n      0x00\n        /* \"@chainlink/contracts@1.4.0/src/v0.8/vendor/openzeppelin-solidity/v4.8.3/contracts/token/ERC20/ERC20.sol\":7351:7355  from */\n      dup6\n        /* \"@chainlink/contracts@1.4.0/src/v0.8/vendor/openzeppelin-solidity/v4.8.3/contracts/token/ERC20/ERC20.sol\":7341:7356  _balances[from] */\n      0xffffffffffffffffffffffffffffffffffffffff\n      and\n      0xffffffffffffffffffffffffffffffffffffffff\n      and\n      dup2\n      mstore\n      0x20\n      add\n      swap1\n      dup2\n      mstore\n      0x20\n      add\n      0x00\n      keccak256\n      sload\n        /* \"@chainlink/contracts@1.4.0/src/v0.8/vendor/openzeppelin-solidity/v4.8.3/contracts/token/ERC20/ERC20.sol\":7319:7356  uint256 fromBalance = _balances[from] */\n      swap1\n      pop\n        /* \"@chainlink/contracts@1.4.0/src/v0.8/vendor/openzeppelin-solidity/v4.8.3/contracts/token/ERC20/ERC20.sol\":7385:7391  amount */\n      dup2\n        /* \"@chainlink/contracts@1.4.0/src/v0.8/vendor/openzeppelin-solidity/v4.8.3/contracts/token/ERC20/ERC20.sol\":7370:7381  fromBalance */\n      dup2\n        /* \"@chainlink/contracts@1.4.0/src/v0.8/vendor/openzeppelin-solidity/v4.8.3/contracts/token/ERC20/ERC20.sol\":7370:7391  fromBalance >= amount */\n      lt\n      iszero\n        /* \"@chainlink/contracts@1.4.0/src/v0.8/vendor/openzeppelin-solidity/v4.8.3/contracts/token/ERC20/ERC20.sol\":7362:7434  require(fromBalance >= amount, \"ERC20: transfer amount exceeds balance\") */\n      tag_150\n      jumpi\n      mload(0x40)\n      0x08c379a000000000000000000000000000000000000000000000000000000000\n      dup2\n      mstore\n      0x04\n      add\n      tag_151\n      swap1\n      tag_152\n      jump\t// in\n    tag_151:\n      mload(0x40)\n      dup1\n      swap2\n      sub\n      swap1\n      revert\n    tag_150:\n        /* \"@chainlink/contracts@1.4.0/src/v0.8/vendor/openzeppelin-solidity/v4.8.3/contracts/token/ERC20/ERC20.sol\":7490:7496  amount */\n      dup2\n        /* \"@chainlink/contracts@1.4.0/src/v0.8/vendor/openzeppelin-solidity/v4.8.3/contracts/token/ERC20/ERC20.sol\":7476:7487  fromBalance */\n      dup2\n        /* \"@chainlink/contracts@1.4.0/src/v0.8/vendor/openzeppelin-solidity/v4.8.3/contracts/token/ERC20/ERC20.sol\":7476:7496  fromBalance - amount */\n      sub\n        /* \"@chainlink/contracts@1.4.0/src/v0.8/vendor/openzeppelin-solidity/v4.8.3/contracts/token/ERC20/ERC20.sol\":7458:7467  _balances */\n      0x00\n        /* \"@chainlink/contracts@1.4.0/src/v0.8/vendor/openzeppelin-solidity/v4.8.3/contracts/token/ERC20/ERC20.sol\":7458:7473  _balances[from] */\n      dup1\n        /* \"@chainlink/contracts@1.4.0/src/v0.8/vendor/openzeppelin-solidity/v4.8.3/contracts/token/ERC20/ERC20.sol\":7468:7472  from */\n      dup7\n        /* \"@chainlink/contracts@1.4.0/src/v0.8/vendor/openzeppelin-solidity/v4.8.3/contracts/token/ERC20/ERC20.sol\":7458:7473  _balances[from] */\n      0xffffffffffffffffffffffffffffffffffffffff\n      and\n      0xffffffffffffffffffffffffffffffffffffffff\n      and\n      dup2\n      mstore\n      0x20\n      add\n      swap1\n      dup2\n      mstore\n      0x20\n      add\n      0x00\n      keccak256\n        /* \"@chainlink/contracts@1.4.0/src/v0.8/vendor/openzeppelin-solidity/v4.8.3/contracts/token/ERC20/ERC20.sol\":7458:7496  _balances[from] = fromBalance - amount */\n      dup2\n      swap1\n      sstore\n      pop\n        /* \"@chainlink/contracts@1.4.0/src/v0.8/vendor/openzeppelin-solidity/v4.8.3/contracts/token/ERC20/ERC20.sol\":7672:7678  amount */\n      dup2\n        /* \"@chainlink/contracts@1.4.0/src/v0.8/vendor/openzeppelin-solidity/v4.8.3/contracts/token/ERC20/ERC20.sol\":7655:7664  _balances */\n      0x00\n        /* \"@chainlink/contracts@1.4.0/src/v0.8/vendor/openzeppelin-solidity/v4.8.3/contracts/token/ERC20/ERC20.sol\":7655:7668  _balances[to] */\n      dup1\n        /* \"@chainlink/contracts@1.4.0/src/v0.8/vendor/openzeppelin-solidity/v4.8.3/contracts/token/ERC20/ERC20.sol\":7665:7667  to */\n      dup6\n        /* \"@chainlink/contracts@1.4.0/src/v0.8/vendor/openzeppelin-solidity/v4.8.3/contracts/token/ERC20/ERC20.sol\":7655:7668  _balances[to] */\n      0xffffffffffffffffffffffffffffffffffffffff\n      and\n      0xffffffffffffffffffffffffffffffffffffffff\n      and\n      dup2\n      mstore\n      0x20\n      add\n      swap1\n      dup2\n      mstore\n      0x20\n      add\n      0x00\n      keccak256\n      0x00\n        /* \"@chainlink/contracts@1.4.0/src/v0.8/vendor/openzeppelin-solidity/v4.8.3/contracts/token/ERC20/ERC20.sol\":7655:7678  _balances[to] += amount */\n      dup3\n      dup3\n      sload\n      add\n      swap3\n      pop\n      pop\n      dup2\n      swap1\n      sstore\n      pop\n        /* \"@chainlink/contracts@1.4.0/src/v0.8/vendor/openzeppelin-solidity/v4.8.3/contracts/token/ERC20/ERC20.sol\":7711:7713  to */\n      dup3\n        /* \"@chainlink/contracts@1.4.0/src/v0.8/vendor/openzeppelin-solidity/v4.8.3/contracts/token/ERC20/ERC20.sol\":7696:7722  Transfer(from, to, amount) */\n      0xffffffffffffffffffffffffffffffffffffffff\n      and\n        /* \"@chainlink/contracts@1.4.0/src/v0.8/vendor/openzeppelin-solidity/v4.8.3/contracts/token/ERC20/ERC20.sol\":7705:7709  from */\n      dup5\n        /* \"@chainlink/contracts@1.4.0/src/v0.8/vendor/openzeppelin-solidity/v4.8.3/contracts/token/ERC20/ERC20.sol\":7696:7722  Transfer(from, to, amount) */\n      0xffffffffffffffffffffffffffffffffffffffff\n      and\n      0xddf252ad1be2c89b69c2b068fc378daa952ba7f163c4a11628f55a4df523b3ef\n        /* \"@chainlink/contracts@1.4.0/src/v0.8/vendor/openzeppelin-solidity/v4.8.3/contracts/token/ERC20/ERC20.sol\":7715:7721  amount */\n      dup5\n        /* \"@chainlink/contracts@1.4.0/src/v0.8/vendor/openzeppelin-solidity/v4.8.3/contracts/token/ERC20/ERC20.sol\":7696:7722  Transfer(from, to, amount) */\n      mload(0x40)\n      tag_153\n      swap2\n      swap1\n      tag_31\n      jump\t// in\n    tag_153:\n      mload(0x40)\n      dup1\n      swap2\n      sub\n      swap1\n      log3\n        /* \"@chainlink/contracts@1.4.0/src/v0.8/vendor/openzeppelin-solidity/v4.8.3/contracts/token/ERC20/ERC20.sol\":7729:7766  _afterTokenTransfer(from, to, amount) */\n      tag_154\n        /* \"@chainlink/contracts@1.4.0/src/v0.8/vendor/openzeppelin-solidity/v4.8.3/contracts/token/ERC20/ERC20.sol\":7749:7753  from */\n      dup5\n        /* \"@chainlink/contracts@1.4.0/src/v0.8/vendor/openzeppelin-solidity/v4.8.3/contracts/token/ERC20/ERC20.sol\":7755:7757  to */\n      dup5\n        /* \"@chainlink/contracts@1.4.0/src/v0.8/vendor/openzeppelin-solidity/v4.8.3/contracts/token/ERC20/ERC20.sol\":7759:7765  amount */\n      dup5\n        /* \"@chainlink/contracts@1.4.0/src/v0.8/vendor/openzeppelin-solidity/v4.8.3/contracts/token/ERC20/ERC20.sol\":7729:7748  _afterTokenTransfer */\n      tag_155\n        /* \"@chainlink/contracts@1.4.0/src/v0.8/vendor/openzeppelin-solidity/v4.8.3/contracts/token/ERC20/ERC20.sol\":7729:7766  _afterTokenTransfer(from, to, amount) */\n      jump\t// in\n    tag_154:\n        /* \"@chainlink/contracts@1.4.0/src/v0.8/vendor/openzeppelin-solidity/v4.8.3/contracts/token/ERC20/ERC20.sol\":7123:7771  {... */\n      pop\n        /* \"@chainlink/contracts@1.4.0/src/v0.8/vendor/openzeppelin-solidity/v4.8.3/contracts/token/ERC20/ERC20.sol\":7045:7771  function _transfer(address from, address to, uint256 amount) internal virtual {... */\n      pop\n      pop\n      pop\n      jump\t// out\n        /* \"@chainlink/contracts@1.4.0/src/v0.8/vendor/openzeppelin-solidity/v4.8.3/contracts/token/ERC20/utils/SafeERC20.sol\":932:1129  function safeTransferFrom(IERC20 token, address from, address to, uint256 value) internal {... */\n    tag_118:\n        /* \"@chainlink/contracts@1.4.0/src/v0.8/vendor/openzeppelin-solidity/v4.8.3/contracts/token/ERC20/utils/SafeERC20.sol\":1028:1124  _callOptionalReturn(token, abi.encodeWithSelector(token.transferFrom.selector, from, to, value)) */\n      tag_157\n        /* \"@chainlink/contracts@1.4.0/src/v0.8/vendor/openzeppelin-solidity/v4.8.3/contracts/token/ERC20/utils/SafeERC20.sol\":1048:1053  token */\n      dup5\n        /* \"@chainlink/contracts@1.4.0/src/v0.8/vendor/openzeppelin-solidity/v4.8.3/contracts/token/ERC20/utils/SafeERC20.sol\":1078:1105  token.transferFrom.selector */\n      shl(0xe0, 0x23b872dd)\n        /* \"@chainlink/contracts@1.4.0/src/v0.8/vendor/openzeppelin-solidity/v4.8.3/contracts/token/ERC20/utils/SafeERC20.sol\":1107:1111  from */\n      dup6\n        /* \"@chainlink/contracts@1.4.0/src/v0.8/vendor/openzeppelin-solidity/v4.8.3/contracts/token/ERC20/utils/SafeERC20.sol\":1113:1115  to */\n      dup6\n        /* \"@chainlink/contracts@1.4.0/src/v0.8/vendor/openzeppelin-solidity/v4.8.3/contracts/token/ERC20/utils/SafeERC20.sol\":1117:1122  value */\n      dup6\n        /* \"@chainlink/contracts@1.4.0/src/v0.8/vendor/openzeppelin-solidity/v4.8.3/contracts/token/ERC20/utils/SafeERC20.sol\":1055:1123  abi.encodeWithSelector(token.transferFrom.selector, from, to, value) */\n      add(0x24, mload(0x40))\n      tag_158\n      swap4\n      swap3\n      swap2\n      swap1\n      tag_159\n      jump\t// in\n    tag_158:\n      mload(0x40)\n      0x20\n      dup2\n      dup4\n      sub\n      sub\n      dup2\n      mstore\n      swap1\n      0x40\n      mstore\n      swap1\n      not(0xffffffffffffffffffffffffffffffffffffffffffffffffffffffff)\n      and\n      0x20\n      dup3\n      add\n      dup1\n      mload\n      0xffffffffffffffffffffffffffffffffffffffffffffffffffffffff\n      dup4\n      dup2\n      dup4\n      and\n      or\n      dup4\n      mstore\n      pop\n      pop\n      pop\n      pop\n        /* \"@chainlink/contracts@1.4.0/src/v0.8/vendor/openzeppelin-solidity/v4.8.3/contracts/token/ERC20/utils/SafeERC20.sol\":1028:1047  _callOptionalReturn */\n      tag_160\n        /* \"@chainlink/contracts@1.4.0/src/v0.8/vendor/openzeppelin-solidity/v4.8.3/contracts/token/ERC20/utils/SafeERC20.sol\":1028:1124  _callOptionalReturn(token, abi.encodeWithSelector(token.transferFrom.selector, from, to, value)) */\n      jump\t// in\n    tag_157:\n        /* \"@chainlink/contracts@1.4.0/src/v0.8/vendor/openzeppelin-solidity/v4.8.3/contracts/token/ERC20/utils/SafeERC20.sol\":932:1129  function safeTransferFrom(IERC20 token, address from, address to, uint256 value) internal {... */\n      pop\n      pop\n      pop\n      pop\n      jump\t// out\n        /* \"@chainlink/contracts@1.4.0/src/v0.8/vendor/openzeppelin-solidity/v4.8.3/contracts/token/ERC20/utils/SafeERC20.sol\":759:928  function safeTransfer(IERC20 token, address to, uint256 value) internal {... */\n    tag_123:\n        /* \"@chainlink/contracts@1.4.0/src/v0.8/vendor/openzeppelin-solidity/v4.8.3/contracts/token/ERC20/utils/SafeERC20.sol\":837:923  _callOptionalReturn(token, abi.encodeWithSelector(token.transfer.selector, to, value)) */\n      tag_162\n        /* \"@chainlink/contracts@1.4.0/src/v0.8/vendor/openzeppelin-solidity/v4.8.3/contracts/token/ERC20/utils/SafeERC20.sol\":857:862  token */\n      dup4\n        /* \"@chainlink/contracts@1.4.0/src/v0.8/vendor/openzeppelin-solidity/v4.8.3/contracts/token/ERC20/utils/SafeERC20.sol\":887:910  token.transfer.selector */\n      shl(0xe0, 0xa9059cbb)\n        /* \"@chainlink/contracts@1.4.0/src/v0.8/vendor/openzeppelin-solidity/v4.8.3/contracts/token/ERC20/utils/SafeERC20.sol\":912:914  to */\n      dup5\n        /* \"@chainlink/contracts@1.4.0/src/v0.8/vendor/openzeppelin-solidity/v4.8.3/contracts/token/ERC20/utils/SafeERC20.sol\":916:921  value */\n      dup5\n        /* \"@chainlink/contracts@1.4.0/src/v0.8/vendor/openzeppelin-solidity/v4.8.3/contracts/token/ERC20/utils/SafeERC20.sol\":864:922  abi.encodeWithSelector(token.transfer.selector, to, value) */\n      add(0x24, mload(0x40))\n      tag_163\n      swap3\n      swap2\n      swap1\n      tag_164\n      jump\t// in\n    tag_163:\n      mload(0x40)\n      0x20\n      dup2\n      dup4\n      sub\n      sub\n      dup2\n      mstore\n      swap1\n      0x40\n      mstore\n      swap1\n      not(0xffffffffffffffffffffffffffffffffffffffffffffffffffffffff)\n      and\n      0x20\n      dup3\n      add\n      dup1\n      mload\n      0xffffffffffffffffffffffffffffffffffffffffffffffffffffffff\n      dup4\n      dup2\n      dup4\n      and\n      or\n      dup4\n      mstore\n      pop\n      pop\n      pop\n      pop\n        /* \"@chainlink/contracts@1.4.0/src/v0.8/vendor/openzeppelin-solidity/v4.8.3/contracts/token/ERC20/utils/SafeERC20.sol\":837:856  _callOptionalReturn */\n      tag_160\n        /* \"@chainlink/contracts@1.4.0/src/v0.8/vendor/openzeppelin-solidity/v4.8.3/contracts/token/ERC20/utils/SafeERC20.sol\":837:923  _callOptionalReturn(token, abi.encodeWithSelector(token.transfer.selector, to, value)) */\n      jump\t// in\n    tag_162:\n        /* \"@chainlink/contracts@1.4.0/src/v0.8/vendor/openzeppelin-solidity/v4.8.3/contracts/token/ERC20/utils/SafeERC20.sol\":759:928  function safeTransfer(IERC20 token, address to, uint256 value) internal {... */\n      pop\n      pop\n      pop\n      jump\t// out\n        /* \"@chainlink/contracts@1.4.0/src/v0.8/vendor/openzeppelin-solidity/v4.8.3/contracts/token/ERC20/ERC20.sol\":11328:11419  function _beforeTokenTransfer(address from, address to, uint256 amount) internal virtual {} */\n    tag_149:\n      pop\n      pop\n      pop\n      jump\t// out\n        /* \"@chainlink/contracts@1.4.0/src/v0.8/vendor/openzeppelin-solidity/v4.8.3/contracts/token/ERC20/ERC20.sol\":11977:12067  function _afterTokenTransfer(address from, address to, uint256 amount) internal virtual {} */\n    tag_155:\n      pop\n      pop\n      pop\n      jump\t// out\n        /* \"@chainlink/contracts@1.4.0/src/v0.8/vendor/openzeppelin-solidity/v4.8.3/contracts/token/ERC20/utils/SafeERC20.sol\":3401:4069  function _callOptionalReturn(IERC20 token, bytes memory data) private {... */\n    tag_160:\n        /* \"@chainlink/contracts@1.4.0/src/v0.8/vendor/openzeppelin-solidity/v4.8.3/contracts/token/ERC20/utils/SafeERC20.sol\":3804:3827  bytes memory returndata */\n      0x00\n        /* \"@chainlink/contracts@1.4.0/src/v0.8/vendor/openzeppelin-solidity/v4.8.3/contracts/token/ERC20/utils/SafeERC20.sol\":3830:3899  address(token).functionCall(data, \"SafeERC20: low-level call failed\") */\n      tag_168\n        /* \"@chainlink/contracts@1.4.0/src/v0.8/vendor/openzeppelin-solidity/v4.8.3/contracts/token/ERC20/utils/SafeERC20.sol\":3858:3862  data */\n      dup3\n        /* \"@chainlink/contracts@1.4.0/src/v0.8/vendor/openzeppelin-solidity/v4.8.3/contracts/token/ERC20/utils/SafeERC20.sol\":3830:3899  address(token).functionCall(data, \"SafeERC20: low-level call failed\") */\n      mload(0x40)\n      dup1\n      0x40\n      add\n      0x40\n      mstore\n      dup1\n      0x20\n      dup2\n      mstore\n      0x20\n      add\n      0x5361666545524332303a206c6f772d6c6576656c2063616c6c206661696c6564\n      dup2\n      mstore\n      pop\n        /* \"@chainlink/contracts@1.4.0/src/v0.8/vendor/openzeppelin-solidity/v4.8.3/contracts/token/ERC20/utils/SafeERC20.sol\":3838:3843  token */\n      dup6\n        /* \"@chainlink/contracts@1.4.0/src/v0.8/vendor/openzeppelin-solidity/v4.8.3/contracts/token/ERC20/utils/SafeERC20.sol\":3830:3857  address(token).functionCall */\n      0xffffffffffffffffffffffffffffffffffffffff\n      and\n      tag_169\n      swap1\n        /* \"@chainlink/contracts@1.4.0/src/v0.8/vendor/openzeppelin-solidity/v4.8.3/contracts/token/ERC20/utils/SafeERC20.sol\":3830:3899  address(token).functionCall(data, \"SafeERC20: low-level call failed\") */\n      swap3\n      swap2\n      swap1\n      0xffffffff\n      and\n      jump\t// in\n    tag_168:\n        /* \"@chainlink/contracts@1.4.0/src/v0.8/vendor/openzeppelin-solidity/v4.8.3/contracts/token/ERC20/utils/SafeERC20.sol\":3804:3899  bytes memory returndata = address(token).functionCall(data, \"SafeERC20: low-level call failed\") */\n      swap1\n      pop\n        /* \"@chainlink/contracts@1.4.0/src/v0.8/vendor/openzeppelin-solidity/v4.8.3/contracts/token/ERC20/utils/SafeERC20.sol\":3929:3930  0 */\n      0x00\n        /* \"@chainlink/contracts@1.4.0/src/v0.8/vendor/openzeppelin-solidity/v4.8.3/contracts/token/ERC20/utils/SafeERC20.sol\":3909:3919  returndata */\n      dup2\n        /* \"@chainlink/contracts@1.4.0/src/v0.8/vendor/openzeppelin-solidity/v4.8.3/contracts/token/ERC20/utils/SafeERC20.sol\":3909:3926  returndata.length */\n      mload\n        /* \"@chainlink/contracts@1.4.0/src/v0.8/vendor/openzeppelin-solidity/v4.8.3/contracts/token/ERC20/utils/SafeERC20.sol\":3909:3930  returndata.length > 0 */\n      gt\n        /* \"@chainlink/contracts@1.4.0/src/v0.8/vendor/openzeppelin-solidity/v4.8.3/contracts/token/ERC20/utils/SafeERC20.sol\":3905:4065  if (returndata.length > 0) {... */\n      iszero\n      tag_170\n      jumpi\n        /* \"@chainlink/contracts@1.4.0/src/v0.8/vendor/openzeppelin-solidity/v4.8.3/contracts/token/ERC20/utils/SafeERC20.sol\":3992:4002  returndata */\n      dup1\n        /* \"@chainlink/contracts@1.4.0/src/v0.8/vendor/openzeppelin-solidity/v4.8.3/contracts/token/ERC20/utils/SafeERC20.sol\":3981:4011  abi.decode(returndata, (bool)) */\n      dup1\n      0x20\n      add\n      swap1\n      mload\n      dup2\n      add\n      swap1\n      tag_171\n      swap2\n      swap1\n      tag_172\n      jump\t// in\n    tag_171:\n        /* \"@chainlink/contracts@1.4.0/src/v0.8/vendor/openzeppelin-solidity/v4.8.3/contracts/token/ERC20/utils/SafeERC20.sol\":3973:4058  require(abi.decode(returndata, (bool)), \"SafeERC20: ERC20 operation did not succeed\") */\n      tag_173\n      jumpi\n      mload(0x40)\n      0x08c379a000000000000000000000000000000000000000000000000000000000\n      dup2\n      mstore\n      0x04\n      add\n      tag_174\n      swap1\n      tag_175\n      jump\t// in\n    tag_174:\n      mload(0x40)\n      dup1\n      swap2\n      sub\n      swap1\n      revert\n    tag_173:\n        /* \"@chainlink/contracts@1.4.0/src/v0.8/vendor/openzeppelin-solidity/v4.8.3/contracts/token/ERC20/utils/SafeERC20.sol\":3905:4065  if (returndata.length > 0) {... */\n    tag_170:\n        /* \"@chainlink/contracts@1.4.0/src/v0.8/vendor/openzeppelin-solidity/v4.8.3/contracts/token/ERC20/utils/SafeERC20.sol\":3471:4069  {... */\n      pop\n        /* \"@chainlink/contracts@1.4.0/src/v0.8/vendor/openzeppelin-solidity/v4.8.3/contracts/token/ERC20/utils/SafeERC20.sol\":3401:4069  function _callOptionalReturn(IERC20 token, bytes memory data) private {... */\n      pop\n      pop\n      jump\t// out\n        /* \"@chainlink/contracts@1.4.0/src/v0.8/vendor/openzeppelin-solidity/v4.8.3/contracts/utils/Address.sol\":3695:3882  function functionCall(address target, bytes memory data, string memory errorMessage) internal returns (bytes memory) {... */\n    tag_169:\n        /* \"@chainlink/contracts@1.4.0/src/v0.8/vendor/openzeppelin-solidity/v4.8.3/contracts/utils/Address.sol\":3798:3810  bytes memory */\n      0x60\n        /* \"@chainlink/contracts@1.4.0/src/v0.8/vendor/openzeppelin-solidity/v4.8.3/contracts/utils/Address.sol\":3825:3877  functionCallWithValue(target, data, 0, errorMessage) */\n      tag_177\n        /* \"@chainlink/contracts@1.4.0/src/v0.8/vendor/openzeppelin-solidity/v4.8.3/contracts/utils/Address.sol\":3847:3853  target */\n      dup5\n        /* \"@chainlink/contracts@1.4.0/src/v0.8/vendor/openzeppelin-solidity/v4.8.3/contracts/utils/Address.sol\":3855:3859  data */\n      dup5\n        /* \"@chainlink/contracts@1.4.0/src/v0.8/vendor/openzeppelin-solidity/v4.8.3/contracts/utils/Address.sol\":3861:3862  0 */\n      0x00\n        /* \"@chainlink/contracts@1.4.0/src/v0.8/vendor/openzeppelin-solidity/v4.8.3/contracts/utils/Address.sol\":3864:3876  errorMessage */\n      dup6\n        /* \"@chainlink/contracts@1.4.0/src/v0.8/vendor/openzeppelin-solidity/v4.8.3/contracts/utils/Address.sol\":3825:3846  functionCallWithValue */\n      tag_178\n        /* \"@chainlink/contracts@1.4.0/src/v0.8/vendor/openzeppelin-solidity/v4.8.3/contracts/utils/Address.sol\":3825:3877  functionCallWithValue(target, data, 0, errorMessage) */\n      jump\t// in\n    tag_177:\n        /* \"@chainlink/contracts@1.4.0/src/v0.8/vendor/openzeppelin-solidity/v4.8.3/contracts/utils/Address.sol\":3818:3877  return functionCallWithValue(target, data, 0, errorMessage) */\n      swap1\n      pop\n        /* \"@chainlink/contracts@1.4.0/src/v0.8/vendor/openzeppelin-solidity/v4.8.3/contracts/utils/Address.sol\":3695:3882  function functionCall(address target, bytes memory data, string memory errorMessage) internal returns (bytes memory) {... */\n      swap4\n      swap3\n      pop\n      pop\n      pop\n      jump\t// out\n        /* \"@chainlink/contracts@1.4.0/src/v0.8/vendor/openzeppelin-solidity/v4.8.3/contracts/utils/Address.sol\":4672:5086  function functionCallWithValue(... */\n    tag_178:\n        /* \"@chainlink/contracts@1.4.0/src/v0.8/vendor/openzeppelin-solidity/v4.8.3/contracts/utils/Address.sol\":4819:4831  bytes memory */\n      0x60\n        /* \"@chainlink/contracts@1.4.0/src/v0.8/vendor/openzeppelin-solidity/v4.8.3/contracts/utils/Address.sol\":4872:4877  value */\n      dup3\n        /* \"@chainlink/contracts@1.4.0/src/v0.8/vendor/openzeppelin-solidity/v4.8.3/contracts/utils/Address.sol\":4847:4868  address(this).balance */\n      selfbalance\n        /* \"@chainlink/contracts@1.4.0/src/v0.8/vendor/openzeppelin-solidity/v4.8.3/contracts/utils/Address.sol\":4847:4877  address(this).balance >= value */\n      lt\n      iszero\n        /* \"@chainlink/contracts@1.4.0/src/v0.8/vendor/openzeppelin-solidity/v4.8.3/contracts/utils/Address.sol\":4839:4920  require(address(this).balance >= value, \"Address: insufficient balance for call\") */\n      tag_180\n      jumpi\n      mload(0x40)\n      0x08c379a000000000000000000000000000000000000000000000000000000000\n      dup2\n      mstore\n      0x04\n      add\n      tag_181\n      swap1\n      tag_182\n      jump\t// in\n    tag_181:\n      mload(0x40)\n      dup1\n      swap2\n      sub\n      swap1\n      revert\n    tag_180:\n        /* \"@chainlink/contracts@1.4.0/src/v0.8/vendor/openzeppelin-solidity/v4.8.3/contracts/utils/Address.sol\":4927:4939  bool success */\n      0x00\n        /* \"@chainlink/contracts@1.4.0/src/v0.8/vendor/openzeppelin-solidity/v4.8.3/contracts/utils/Address.sol\":4941:4964  bytes memory returndata */\n      dup1\n        /* \"@chainlink/contracts@1.4.0/src/v0.8/vendor/openzeppelin-solidity/v4.8.3/contracts/utils/Address.sol\":4968:4974  target */\n      dup7\n        /* \"@chainlink/contracts@1.4.0/src/v0.8/vendor/openzeppelin-solidity/v4.8.3/contracts/utils/Address.sol\":4968:4979  target.call */\n      0xffffffffffffffffffffffffffffffffffffffff\n      and\n        /* \"@chainlink/contracts@1.4.0/src/v0.8/vendor/openzeppelin-solidity/v4.8.3/contracts/utils/Address.sol\":4987:4992  value */\n      dup6\n        /* \"@chainlink/contracts@1.4.0/src/v0.8/vendor/openzeppelin-solidity/v4.8.3/contracts/utils/Address.sol\":4994:4998  data */\n      dup8\n        /* \"@chainlink/contracts@1.4.0/src/v0.8/vendor/openzeppelin-solidity/v4.8.3/contracts/utils/Address.sol\":4968:4999  target.call{value: value}(data) */\n      mload(0x40)\n      tag_183\n      swap2\n      swap1\n      tag_184\n      jump\t// in\n    tag_183:\n      0x00\n      mload(0x40)\n      dup1\n      dup4\n      sub\n      dup2\n      dup6\n      dup8\n      gas\n      call\n      swap3\n      pop\n      pop\n      pop\n      returndatasize\n      dup1\n      0x00\n      dup2\n      eq\n      tag_187\n      jumpi\n      mload(0x40)\n      swap2\n      pop\n      and(add(returndatasize, 0x3f), not(0x1f))\n      dup3\n      add\n      0x40\n      mstore\n      returndatasize\n      dup3\n      mstore\n      returndatasize\n      0x00\n      0x20\n      dup5\n      add\n      returndatacopy\n      jump(tag_186)\n    tag_187:\n      0x60\n      swap2\n      pop\n    tag_186:\n      pop\n        /* \"@chainlink/contracts@1.4.0/src/v0.8/vendor/openzeppelin-solidity/v4.8.3/contracts/utils/Address.sol\":4926:4999  (bool success, bytes memory returndata) = target.call{value: value}(data) */\n      swap2\n      pop\n      swap2\n      pop\n        /* \"@chainlink/contracts@1.4.0/src/v0.8/vendor/openzeppelin-solidity/v4.8.3/contracts/utils/Address.sol\":5012:5081  verifyCallResultFromTarget(target, success, returndata, errorMessage) */\n      tag_188\n        /* \"@chainlink/contracts@1.4.0/src/v0.8/vendor/openzeppelin-solidity/v4.8.3/contracts/utils/Address.sol\":5039:5045  target */\n      dup8\n        /* \"@chainlink/contracts@1.4.0/src/v0.8/vendor/openzeppelin-solidity/v4.8.3/contracts/utils/Address.sol\":5047:5054  success */\n      dup4\n        /* \"@chainlink/contracts@1.4.0/src/v0.8/vendor/openzeppelin-solidity/v4.8.3/contracts/utils/Address.sol\":5056:5066  returndata */\n      dup4\n        /* \"@chainlink/contracts@1.4.0/src/v0.8/vendor/openzeppelin-solidity/v4.8.3/contracts/utils/Address.sol\":5068:5080  errorMessage */\n      dup8\n        /* \"@chainlink/contracts@1.4.0/src/v0.8/vendor/openzeppelin-solidity/v4.8.3/contracts/utils/Address.sol\":5012:5038  verifyCallResultFromTarget */\n      tag_189\n        /* \"@chainlink/contracts@1.4.0/src/v0.8/vendor/openzeppelin-solidity/v4.8.3/contracts/utils/Address.sol\":5012:5081  verifyCallResultFromTarget(target, success, returndata, errorMessage) */\n      jump\t// in\n    tag_188:\n        /* \"@chainlink/contracts@1.4.0/src/v0.8/vendor/openzeppelin-solidity/v4.8.3/contracts/utils/Address.sol\":5005:5081  return verifyCallResultFromTarget(target, success, returndata, errorMessage) */\n      swap3\n      pop\n      pop\n      pop\n        /* \"@chainlink/contracts@1.4.0/src/v0.8/vendor/openzeppelin-solidity/v4.8.3/contracts/utils/Address.sol\":4672:5086  function functionCallWithValue(... */\n      swap5\n      swap4\n      pop\n      pop\n      pop\n      pop\n      jump\t// out\n        /* \"@chainlink/contracts@1.4.0/src/v0.8/vendor/openzeppelin-solidity/v4.8.3/contracts/utils/Address.sol\":7016:7564  function verifyCallResultFromTarget(... */\n    tag_189:\n        /* \"@chainlink/contracts@1.4.0/src/v0.8/vendor/openzeppelin-solidity/v4.8.3/contracts/utils/Address.sol\":7178:7190  bytes memory */\n      0x60\n        /* \"@chainlink/contracts@1.4.0/src/v0.8/vendor/openzeppelin-solidity/v4.8.3/contracts/utils/Address.sol\":7202:7209  success */\n      dup4\n        /* \"@chainlink/contracts@1.4.0/src/v0.8/vendor/openzeppelin-solidity/v4.8.3/contracts/utils/Address.sol\":7198:7560  if (success) {... */\n      iszero\n      tag_191\n      jumpi\n        /* \"@chainlink/contracts@1.4.0/src/v0.8/vendor/openzeppelin-solidity/v4.8.3/contracts/utils/Address.sol\":7244:7245  0 */\n      0x00\n        /* \"@chainlink/contracts@1.4.0/src/v0.8/vendor/openzeppelin-solidity/v4.8.3/contracts/utils/Address.sol\":7223:7233  returndata */\n      dup4\n        /* \"@chainlink/contracts@1.4.0/src/v0.8/vendor/openzeppelin-solidity/v4.8.3/contracts/utils/Address.sol\":7223:7240  returndata.length */\n      mload\n        /* \"@chainlink/contracts@1.4.0/src/v0.8/vendor/openzeppelin-solidity/v4.8.3/contracts/utils/Address.sol\":7223:7245  returndata.length == 0 */\n      sub\n        /* \"@chainlink/contracts@1.4.0/src/v0.8/vendor/openzeppelin-solidity/v4.8.3/contracts/utils/Address.sol\":7219:7475  if (returndata.length == 0) {... */\n      tag_192\n      jumpi\n        /* \"@chainlink/contracts@1.4.0/src/v0.8/vendor/openzeppelin-solidity/v4.8.3/contracts/utils/Address.sol\":7414:7432  isContract(target) */\n      tag_193\n        /* \"@chainlink/contracts@1.4.0/src/v0.8/vendor/openzeppelin-solidity/v4.8.3/contracts/utils/Address.sol\":7425:7431  target */\n      dup6\n        /* \"@chainlink/contracts@1.4.0/src/v0.8/vendor/openzeppelin-solidity/v4.8.3/contracts/utils/Address.sol\":7414:7424  isContract */\n      tag_194\n        /* \"@chainlink/contracts@1.4.0/src/v0.8/vendor/openzeppelin-solidity/v4.8.3/contracts/utils/Address.sol\":7414:7432  isContract(target) */\n      jump\t// in\n    tag_193:\n        /* \"@chainlink/contracts@1.4.0/src/v0.8/vendor/openzeppelin-solidity/v4.8.3/contracts/utils/Address.sol\":7406:7466  require(isContract(target), \"Address: call to non-contract\") */\n      tag_195\n      jumpi\n      mload(0x40)\n      0x08c379a000000000000000000000000000000000000000000000000000000000\n      dup2\n      mstore\n      0x04\n      add\n      tag_196\n      swap1\n      tag_197\n      jump\t// in\n    tag_196:\n      mload(0x40)\n      dup1\n      swap2\n      sub\n      swap1\n      revert\n    tag_195:\n        /* \"@chainlink/contracts@1.4.0/src/v0.8/vendor/openzeppelin-solidity/v4.8.3/contracts/utils/Address.sol\":7219:7475  if (returndata.length == 0) {... */\n    tag_192:\n        /* \"@chainlink/contracts@1.4.0/src/v0.8/vendor/openzeppelin-solidity/v4.8.3/contracts/utils/Address.sol\":7489:7499  returndata */\n      dup3\n        /* \"@chainlink/contracts@1.4.0/src/v0.8/vendor/openzeppelin-solidity/v4.8.3/contracts/utils/Address.sol\":7482:7499  return returndata */\n      swap1\n      pop\n      jump(tag_190)\n        /* \"@chainlink/contracts@1.4.0/src/v0.8/vendor/openzeppelin-solidity/v4.8.3/contracts/utils/Address.sol\":7198:7560  if (success) {... */\n    tag_191:\n        /* \"@chainlink/contracts@1.4.0/src/v0.8/vendor/openzeppelin-solidity/v4.8.3/contracts/utils/Address.sol\":7520:7553  _revert(returndata, errorMessage) */\n      tag_199\n        /* \"@chainlink/contracts@1.4.0/src/v0.8/vendor/openzeppelin-solidity/v4.8.3/contracts/utils/Address.sol\":7528:7538  returndata */\n      dup4\n        /* \"@chainlink/contracts@1.4.0/src/v0.8/vendor/openzeppelin-solidity/v4.8.3/contracts/utils/Address.sol\":7540:7552  errorMessage */\n      dup4\n        /* \"@chainlink/contracts@1.4.0/src/v0.8/vendor/openzeppelin-solidity/v4.8.3/contracts/utils/Address.sol\":7520:7527  _revert */\n      tag_200\n        /* \"@chainlink/contracts@1.4.0/src/v0.8/vendor/openzeppelin-solidity/v4.8.3/contracts/utils/Address.sol\":7520:7553  _revert(returndata, errorMessage) */\n      jump\t// in\n    tag_199:\n        /* \"@chainlink/contracts@1.4.0/src/v0.8/vendor/openzeppelin-solidity/v4.8.3/contracts/utils/Address.sol\":7016:7564  function verifyCallResultFromTarget(... */\n    tag_190:\n      swap5\n      swap4\n      pop\n      pop\n      pop\n      pop\n      jump\t// out\n        /* \"@chainlink/contracts@1.4.0/src/v0.8/vendor/openzeppelin-solidity/v4.8.3/contracts/utils/Address.sol\":1121:1423  function isContract(address account) internal view returns (bool) {... */\n    tag_194:\n        /* \"@chainlink/contracts@1.4.0/src/v0.8/vendor/openzeppelin-solidity/v4.8.3/contracts/utils/Address.sol\":1181:1185  bool */\n      0x00\n        /* \"@chainlink/contracts@1.4.0/src/v0.8/vendor/openzeppelin-solidity/v4.8.3/contracts/utils/Address.sol\":1417:1418  0 */\n      dup1\n        /* \"@chainlink/contracts@1.4.0/src/v0.8/vendor/openzeppelin-solidity/v4.8.3/contracts/utils/Address.sol\":1395:1402  account */\n      dup3\n        /* \"@chainlink/contracts@1.4.0/src/v0.8/vendor/openzeppelin-solidity/v4.8.3/contracts/utils/Address.sol\":1395:1414  account.code.length */\n      0xffffffffffffffffffffffffffffffffffffffff\n      and\n      extcodesize\n        /* \"@chainlink/contracts@1.4.0/src/v0.8/vendor/openzeppelin-solidity/v4.8.3/contracts/utils/Address.sol\":1395:1418  account.code.length > 0 */\n      gt\n        /* \"@chainlink/contracts@1.4.0/src/v0.8/vendor/openzeppelin-solidity/v4.8.3/contracts/utils/Address.sol\":1388:1418  return account.code.length > 0 */\n      swap1\n      pop\n        /* \"@chainlink/contracts@1.4.0/src/v0.8/vendor/openzeppelin-solidity/v4.8.3/contracts/utils/Address.sol\":1121:1423  function isContract(address account) internal view returns (bool) {... */\n      swap2\n      swap1\n      pop\n      jump\t// out\n        /* \"@chainlink/contracts@1.4.0/src/v0.8/vendor/openzeppelin-solidity/v4.8.3/contracts/utils/Address.sol\":8030:8506  function _revert(bytes memory returndata, string memory errorMessage) private pure {... */\n    tag_200:\n        /* \"@chainlink/contracts@1.4.0/src/v0.8/vendor/openzeppelin-solidity/v4.8.3/contracts/utils/Address.sol\":8201:8202  0 */\n      0x00\n        /* \"@chainlink/contracts@1.4.0/src/v0.8/vendor/openzeppelin-solidity/v4.8.3/contracts/utils/Address.sol\":8181:8191  returndata */\n      dup3\n        /* \"@chainlink/contracts@1.4.0/src/v0.8/vendor/openzeppelin-solidity/v4.8.3/contracts/utils/Address.sol\":8181:8198  returndata.length */\n      mload\n        /* \"@chainlink/contracts@1.4.0/src/v0.8/vendor/openzeppelin-solidity/v4.8.3/contracts/utils/Address.sol\":8181:8202  returndata.length > 0 */\n      gt\n        /* \"@chainlink/contracts@1.4.0/src/v0.8/vendor/openzeppelin-solidity/v4.8.3/contracts/utils/Address.sol\":8177:8502  if (returndata.length > 0) {... */\n      iszero\n      tag_203\n      jumpi\n        /* \"@chainlink/contracts@1.4.0/src/v0.8/vendor/openzeppelin-solidity/v4.8.3/contracts/utils/Address.sol\":8383:8393  returndata */\n      dup2\n        /* \"@chainlink/contracts@1.4.0/src/v0.8/vendor/openzeppelin-solidity/v4.8.3/contracts/utils/Address.sol\":8377:8394  mload(returndata) */\n      mload\n        /* \"@chainlink/contracts@1.4.0/src/v0.8/vendor/openzeppelin-solidity/v4.8.3/contracts/utils/Address.sol\":8431:8446  returndata_size */\n      dup1\n        /* \"@chainlink/contracts@1.4.0/src/v0.8/vendor/openzeppelin-solidity/v4.8.3/contracts/utils/Address.sol\":8418:8428  returndata */\n      dup4\n        /* \"@chainlink/contracts@1.4.0/src/v0.8/vendor/openzeppelin-solidity/v4.8.3/contracts/utils/Address.sol\":8414:8416  32 */\n      0x20\n        /* \"@chainlink/contracts@1.4.0/src/v0.8/vendor/openzeppelin-solidity/v4.8.3/contracts/utils/Address.sol\":8410:8429  add(32, returndata) */\n      add\n        /* \"@chainlink/contracts@1.4.0/src/v0.8/vendor/openzeppelin-solidity/v4.8.3/contracts/utils/Address.sol\":8403:8447  revert(add(32, returndata), returndata_size) */\n      revert\n        /* \"@chainlink/contracts@1.4.0/src/v0.8/vendor/openzeppelin-solidity/v4.8.3/contracts/utils/Address.sol\":8177:8502  if (returndata.length > 0) {... */\n    tag_203:\n        /* \"@chainlink/contracts@1.4.0/src/v0.8/vendor/openzeppelin-solidity/v4.8.3/contracts/utils/Address.sol\":8482:8494  errorMessage */\n      dup1\n        /* \"@chainlink/contracts@1.4.0/src/v0.8/vendor/openzeppelin-solidity/v4.8.3/contracts/utils/Address.sol\":8475:8495  revert(errorMessage) */\n      mload(0x40)\n      0x08c379a000000000000000000000000000000000000000000000000000000000\n      dup2\n      mstore\n      0x04\n      add\n      tag_205\n      swap2\n      swap1\n      tag_21\n      jump\t// in\n    tag_205:\n      mload(0x40)\n      dup1\n      swap2\n      sub\n      swap1\n      revert\n        /* \"#utility.yul\":7:106   */\n    tag_206:\n        /* \"#utility.yul\":59:65   */\n      0x00\n        /* \"#utility.yul\":93:98   */\n      dup2\n        /* \"#utility.yul\":87:99   */\n      mload\n        /* \"#utility.yul\":77:99   */\n      swap1\n      pop\n        /* \"#utility.yul\":7:106   */\n      swap2\n      swap1\n      pop\n      jump\t// out\n        /* \"#utility.yul\":112:281   */\n    tag_207:\n        /* \"#utility.yul\":196:207   */\n      0x00\n        /* \"#utility.yul\":230:236   */\n      dup3\n        /* \"#utility.yul\":225:228   */\n      dup3\n        /* \"#utility.yul\":218:237   */\n      mstore\n        /* \"#utility.yul\":270:274   */\n      0x20\n        /* \"#utility.yul\":265:268   */\n      dup3\n        /* \"#utility.yul\":261:275   */\n      add\n        /* \"#utility.yul\":246:275   */\n      swap1\n      pop\n        /* \"#utility.yul\":112:281   */\n      swap3\n      swap2\n      pop\n      pop\n      jump\t// out\n        /* \"#utility.yul\":287:533   */\n    tag_208:\n        /* \"#utility.yul\":368:369   */\n      0x00\n        /* \"#utility.yul\":378:491   */\n    tag_258:\n        /* \"#utility.yul\":392:398   */\n      dup4\n        /* \"#utility.yul\":389:390   */\n      dup2\n        /* \"#utility.yul\":386:399   */\n      lt\n        /* \"#utility.yul\":378:491   */\n      iszero\n      tag_260\n      jumpi\n        /* \"#utility.yul\":477:478   */\n      dup1\n        /* \"#utility.yul\":472:475   */\n      dup3\n        /* \"#utility.yul\":468:479   */\n      add\n        /* \"#utility.yul\":462:480   */\n      mload\n        /* \"#utility.yul\":458:459   */\n      dup2\n        /* \"#utility.yul\":453:456   */\n      dup5\n        /* \"#utility.yul\":449:460   */\n      add\n        /* \"#utility.yul\":442:481   */\n      mstore\n        /* \"#utility.yul\":414:416   */\n      0x20\n        /* \"#utility.yul\":411:412   */\n      dup2\n        /* \"#utility.yul\":407:417   */\n      add\n        /* \"#utility.yul\":402:417   */\n      swap1\n      pop\n        /* \"#utility.yul\":378:491   */\n      jump(tag_258)\n    tag_260:\n        /* \"#utility.yul\":525:526   */\n      0x00\n        /* \"#utility.yul\":516:522   */\n      dup5\n        /* \"#utility.yul\":511:514   */\n      dup5\n        /* \"#utility.yul\":507:523   */\n      add\n        /* \"#utility.yul\":500:527   */\n      mstore\n        /* \"#utility.yul\":349:533   */\n      pop\n        /* \"#utility.yul\":287:533   */\n      pop\n      pop\n      pop\n      jump\t// out\n        /* \"#utility.yul\":539:641   */\n    tag_209:\n        /* \"#utility.yul\":580:586   */\n      0x00\n        /* \"#utility.yul\":631:633   */\n      0x1f\n        /* \"#utility.yul\":627:634   */\n      not\n        /* \"#utility.yul\":622:624   */\n      0x1f\n        /* \"#utility.yul\":615:620   */\n      dup4\n        /* \"#utility.yul\":611:625   */\n      add\n        /* \"#utility.yul\":607:635   */\n      and\n        /* \"#utility.yul\":597:635   */\n      swap1\n      pop\n        /* \"#utility.yul\":539:641   */\n      swap2\n      swap1\n      pop\n      jump\t// out\n        /* \"#utility.yul\":647:1024   */\n    tag_210:\n        /* \"#utility.yul\":735:738   */\n      0x00\n        /* \"#utility.yul\":763:802   */\n      tag_263\n        /* \"#utility.yul\":796:801   */\n      dup3\n        /* \"#utility.yul\":763:802   */\n      tag_206\n      jump\t// in\n    tag_263:\n        /* \"#utility.yul\":818:889   */\n      tag_264\n        /* \"#utility.yul\":882:888   */\n      dup2\n        /* \"#utility.yul\":877:880   */\n      dup6\n        /* \"#utility.yul\":818:889   */\n      tag_207\n      jump\t// in\n    tag_264:\n        /* \"#utility.yul\":811:889   */\n      swap4\n      pop\n        /* \"#utility.yul\":898:963   */\n      tag_265\n        /* \"#utility.yul\":956:962   */\n      dup2\n        /* \"#utility.yul\":951:954   */\n      dup6\n        /* \"#utility.yul\":944:948   */\n      0x20\n        /* \"#utility.yul\":937:942   */\n      dup7\n        /* \"#utility.yul\":933:949   */\n      add\n        /* \"#utility.yul\":898:963   */\n      tag_208\n      jump\t// in\n    tag_265:\n        /* \"#utility.yul\":988:1017   */\n      tag_266\n        /* \"#utility.yul\":1010:1016   */\n      dup2\n        /* \"#utility.yul\":988:1017   */\n      tag_209\n      jump\t// in\n    tag_266:\n        /* \"#utility.yul\":983:986   */\n      dup5\n        /* \"#utility.yul\":979:1018   */\n      add\n        /* \"#utility.yul\":972:1018   */\n      swap2\n      pop\n        /* \"#utility.yul\":739:1024   */\n      pop\n        /* \"#utility.yul\":647:1024   */\n      swap3\n      swap2\n      pop\n      pop\n      jump\t// out\n        /* \"#utility.yul\":1030:1343   */\n    tag_21:\n        /* \"#utility.yul\":1143:1147   */\n      0x00\n        /* \"#utility.yul\":1181:1183   */\n      0x20\n        /* \"#utility.yul\":1170:1179   */\n      dup3\n        /* \"#utility.yul\":1166:1184   */\n      add\n        /* \"#utility.yul\":1158:1184   */\n      swap1\n      pop\n        /* \"#utility.yul\":1230:1239   */\n      dup2\n        /* \"#utility.yul\":1224:1228   */\n      dup2\n        /* \"#utility.yul\":1220:1240   */\n      sub\n        /* \"#utility.yul\":1216:1217   */\n      0x00\n        /* \"#utility.yul\":1205:1214   */\n      dup4\n        /* \"#utility.yul\":1201:1218   */\n      add\n        /* \"#utility.yul\":1194:1241   */\n      mstore\n        /* \"#utility.yul\":1258:1336   */\n      tag_268\n        /* \"#utility.yul\":1331:1335   */\n      dup2\n        /* \"#utility.yul\":1322:1328   */\n      dup5\n        /* \"#utility.yul\":1258:1336   */\n      tag_210\n      jump\t// in\n    tag_268:\n        /* \"#utility.yul\":1250:1336   */\n      swap1\n      pop\n        /* \"#utility.yul\":1030:1343   */\n      swap3\n      swap2\n      pop\n      pop\n      jump\t// out\n        /* \"#utility.yul\":1430:1547   */\n    tag_212:\n        /* \"#utility.yul\":1539:1540   */\n      0x00\n        /* \"#utility.yul\":1536:1537   */\n      dup1\n        /* \"#utility.yul\":1529:1541   */\n      revert\n        /* \"#utility.yul\":1676:1802   */\n    tag_214:\n        /* \"#utility.yul\":1713:1720   */\n      0x00\n        /* \"#utility.yul\":1753:1795   */\n      0xffffffffffffffffffffffffffffffffffffffff\n        /* \"#utility.yul\":1746:1751   */\n      dup3\n        /* \"#utility.yul\":1742:1796   */\n      and\n        /* \"#utility.yul\":1731:1796   */\n      swap1\n      pop\n        /* \"#utility.yul\":1676:1802   */\n      swap2\n      swap1\n      pop\n      jump\t// out\n        /* \"#utility.yul\":1808:1904   */\n    tag_215:\n        /* \"#utility.yul\":1845:1852   */\n      0x00\n        /* \"#utility.yul\":1874:1898   */\n      tag_274\n        /* \"#utility.yul\":1892:1897   */\n      dup3\n        /* \"#utility.yul\":1874:1898   */\n      tag_214\n      jump\t// in\n    tag_274:\n        /* \"#utility.yul\":1863:1898   */\n      swap1\n      pop\n        /* \"#utility.yul\":1808:1904   */\n      swap2\n      swap1\n      pop\n      jump\t// out\n        /* \"#utility.yul\":1910:2032   */\n    tag_216:\n        /* \"#utility.yul\":1983:2007   */\n      tag_276\n        /* \"#utility.yul\":2001:2006   */\n      dup2\n        /* \"#utility.yul\":1983:2007   */\n      tag_215\n      jump\t// in\n    tag_276:\n        /* \"#utility.yul\":1976:1981   */\n      dup2\n        /* \"#utility.yul\":1973:2008   */\n      eq\n        /* \"#utility.yul\":1963:2026   */\n      tag_277\n      jumpi\n        /* \"#utility.yul\":2022:2023   */\n      0x00\n        /* \"#utility.yul\":2019:2020   */\n      dup1\n        /* \"#utility.yul\":2012:2024   */\n      revert\n        /* \"#utility.yul\":1963:2026   */\n    tag_277:\n        /* \"#utility.yul\":1910:2032   */\n      pop\n      jump\t// out\n        /* \"#utility.yul\":2038:2177   */\n    tag_217:\n        /* \"#utility.yul\":2084:2089   */\n      0x00\n        /* \"#utility.yul\":2122:2128   */\n      dup2\n        /* \"#utility.yul\":2109:2129   */\n      calldataload\n        /* \"#utility.yul\":2100:2129   */\n      swap1\n      pop\n        /* \"#utility.yul\":2138:2171   */\n      tag_279\n        /* \"#utility.yul\":2165:2170   */\n      dup2\n        /* \"#utility.yul\":2138:2171   */\n      tag_216\n      jump\t// in\n    tag_279:\n        /* \"#utility.yul\":2038:2177   */\n      swap3\n      swap2\n      pop\n      pop\n      jump\t// out\n        /* \"#utility.yul\":2183:2260   */\n    tag_218:\n        /* \"#utility.yul\":2220:2227   */\n      0x00\n        /* \"#utility.yul\":2249:2254   */\n      dup2\n        /* \"#utility.yul\":2238:2254   */\n      swap1\n      pop\n        /* \"#utility.yul\":2183:2260   */\n      swap2\n      swap1\n      pop\n      jump\t// out\n        /* \"#utility.yul\":2266:2388   */\n    tag_219:\n        /* \"#utility.yul\":2339:2363   */\n      tag_282\n        /* \"#utility.yul\":2357:2362   */\n      dup2\n        /* \"#utility.yul\":2339:2363   */\n      tag_218\n      jump\t// in\n    tag_282:\n        /* \"#utility.yul\":2332:2337   */\n      dup2\n        /* \"#utility.yul\":2329:2364   */\n      eq\n        /* \"#utility.yul\":2319:2382   */\n      tag_283\n      jumpi\n        /* \"#utility.yul\":2378:2379   */\n      0x00\n        /* \"#utility.yul\":2375:2376   */\n      dup1\n        /* \"#utility.yul\":2368:2380   */\n      revert\n        /* \"#utility.yul\":2319:2382   */\n    tag_283:\n        /* \"#utility.yul\":2266:2388   */\n      pop\n      jump\t// out\n        /* \"#utility.yul\":2394:2533   */\n    tag_220:\n        /* \"#utility.yul\":2440:2445   */\n      0x00\n        /* \"#utility.yul\":2478:2484   */\n      dup2\n        /* \"#utility.yul\":2465:2485   */\n      calldataload\n        /* \"#utility.yul\":2456:2485   */\n      swap1\n      pop\n        /* \"#utility.yul\":2494:2527   */\n      tag_285\n        /* \"#utility.yul\":2521:2526   */\n      dup2\n        /* \"#utility.yul\":2494:2527   */\n      tag_219\n      jump\t// in\n    tag_285:\n        /* \"#utility.yul\":2394:2533   */\n      swap3\n      swap2\n      pop\n      pop\n      jump\t// out\n        /* \"#utility.yul\":2539:3013   */\n    tag_24:\n        /* \"#utility.yul\":2607:2613   */\n      0x00\n        /* \"#utility.yul\":2615:2621   */\n      dup1\n        /* \"#utility.yul\":2664:2666   */\n      0x40\n        /* \"#utility.yul\":2652:2661   */\n      dup4\n        /* \"#utility.yul\":2643:2650   */\n      dup6\n        /* \"#utility.yul\":2639:2662   */\n      sub\n        /* \"#utility.yul\":2635:2667   */\n      slt\n        /* \"#utility.yul\":2632:2751   */\n      iszero\n      tag_287\n      jumpi\n        /* \"#utility.yul\":2670:2749   */\n      tag_288\n      tag_212\n      jump\t// in\n    tag_288:\n        /* \"#utility.yul\":2632:2751   */\n    tag_287:\n        /* \"#utility.yul\":2790:2791   */\n      0x00\n        /* \"#utility.yul\":2815:2868   */\n      tag_289\n        /* \"#utility.yul\":2860:2867   */\n      dup6\n        /* \"#utility.yul\":2851:2857   */\n      dup3\n        /* \"#utility.yul\":2840:2849   */\n      dup7\n        /* \"#utility.yul\":2836:2858   */\n      add\n        /* \"#utility.yul\":2815:2868   */\n      tag_217\n      jump\t// in\n    tag_289:\n        /* \"#utility.yul\":2805:2868   */\n      swap3\n      pop\n        /* \"#utility.yul\":2761:2878   */\n      pop\n        /* \"#utility.yul\":2917:2919   */\n      0x20\n        /* \"#utility.yul\":2943:2996   */\n      tag_290\n        /* \"#utility.yul\":2988:2995   */\n      dup6\n        /* \"#utility.yul\":2979:2985   */\n      dup3\n        /* \"#utility.yul\":2968:2977   */\n      dup7\n        /* \"#utility.yul\":2964:2986   */\n      add\n        /* \"#utility.yul\":2943:2996   */\n      tag_220\n      jump\t// in\n    tag_290:\n        /* \"#utility.yul\":2933:2996   */\n      swap2\n      pop\n        /* \"#utility.yul\":2888:3006   */\n      pop\n        /* \"#utility.yul\":2539:3013   */\n      swap3\n      pop\n      swap3\n      swap1\n      pop\n      jump\t// out\n        /* \"#utility.yul\":3019:3109   */\n    tag_221:\n        /* \"#utility.yul\":3053:3060   */\n      0x00\n        /* \"#utility.yul\":3096:3101   */\n      dup2\n        /* \"#utility.yul\":3089:3102   */\n      iszero\n        /* \"#utility.yul\":3082:3103   */\n      iszero\n        /* \"#utility.yul\":3071:3103   */\n      swap1\n      pop\n        /* \"#utility.yul\":3019:3109   */\n      swap2\n      swap1\n      pop\n      jump\t// out\n        /* \"#utility.yul\":3115:3224   */\n    tag_222:\n        /* \"#utility.yul\":3196:3217   */\n      tag_293\n        /* \"#utility.yul\":3211:3216   */\n      dup2\n        /* \"#utility.yul\":3196:3217   */\n      tag_221\n      jump\t// in\n    tag_293:\n        /* \"#utility.yul\":3191:3194   */\n      dup3\n        /* \"#utility.yul\":3184:3218   */\n      mstore\n        /* \"#utility.yul\":3115:3224   */\n      pop\n      pop\n      jump\t// out\n        /* \"#utility.yul\":3230:3440   */\n    tag_27:\n        /* \"#utility.yul\":3317:3321   */\n      0x00\n        /* \"#utility.yul\":3355:3357   */\n      0x20\n        /* \"#utility.yul\":3344:3353   */\n      dup3\n        /* \"#utility.yul\":3340:3358   */\n      add\n        /* \"#utility.yul\":3332:3358   */\n      swap1\n      pop\n        /* \"#utility.yul\":3368:3433   */\n      tag_295\n        /* \"#utility.yul\":3430:3431   */\n      0x00\n        /* \"#utility.yul\":3419:3428   */\n      dup4\n        /* \"#utility.yul\":3415:3432   */\n      add\n        /* \"#utility.yul\":3406:3412   */\n      dup5\n        /* \"#utility.yul\":3368:3433   */\n      tag_222\n      jump\t// in\n    tag_295:\n        /* \"#utility.yul\":3230:3440   */\n      swap3\n      swap2\n      pop\n      pop\n      jump\t// out\n        /* \"#utility.yul\":3446:3564   */\n    tag_223:\n        /* \"#utility.yul\":3533:3557   */\n      tag_297\n        /* \"#utility.yul\":3551:3556   */\n      dup2\n        /* \"#utility.yul\":3533:3557   */\n      tag_218\n      jump\t// in\n    tag_297:\n        /* \"#utility.yul\":3528:3531   */\n      dup3\n        /* \"#utility.yul\":3521:3558   */\n      mstore\n        /* \"#utility.yul\":3446:3564   */\n      pop\n      pop\n      jump\t// out\n        /* \"#utility.yul\":3570:3792   */\n    tag_31:\n        /* \"#utility.yul\":3663:3667   */\n      0x00\n        /* \"#utility.yul\":3701:3703   */\n      0x20\n        /* \"#utility.yul\":3690:3699   */\n      dup3\n        /* \"#utility.yul\":3686:3704   */\n      add\n        /* \"#utility.yul\":3678:3704   */\n      swap1\n      pop\n        /* \"#utility.yul\":3714:3785   */\n      tag_299\n        /* \"#utility.yul\":3782:3783   */\n      0x00\n        /* \"#utility.yul\":3771:3780   */\n      dup4\n        /* \"#utility.yul\":3767:3784   */\n      add\n        /* \"#utility.yul\":3758:3764   */\n      dup5\n        /* \"#utility.yul\":3714:3785   */\n      tag_223\n      jump\t// in\n    tag_299:\n        /* \"#utility.yul\":3570:3792   */\n      swap3\n      swap2\n      pop\n      pop\n      jump\t// out\n        /* \"#utility.yul\":3798:4417   */\n    tag_34:\n        /* \"#utility.yul\":3875:3881   */\n      0x00\n        /* \"#utility.yul\":3883:3889   */\n      dup1\n        /* \"#utility.yul\":3891:3897   */\n      0x00\n        /* \"#utility.yul\":3940:3942   */\n      0x60\n        /* \"#utility.yul\":3928:3937   */\n      dup5\n        /* \"#utility.yul\":3919:3926   */\n      dup7\n        /* \"#utility.yul\":3915:3938   */\n      sub\n        /* \"#utility.yul\":3911:3943   */\n      slt\n        /* \"#utility.yul\":3908:4027   */\n      iszero\n      tag_301\n      jumpi\n        /* \"#utility.yul\":3946:4025   */\n      tag_302\n      tag_212\n      jump\t// in\n    tag_302:\n        /* \"#utility.yul\":3908:4027   */\n    tag_301:\n        /* \"#utility.yul\":4066:4067   */\n      0x00\n        /* \"#utility.yul\":4091:4144   */\n      tag_303\n        /* \"#utility.yul\":4136:4143   */\n      dup7\n        /* \"#utility.yul\":4127:4133   */\n      dup3\n        /* \"#utility.yul\":4116:4125   */\n      dup8\n        /* \"#utility.yul\":4112:4134   */\n      add\n        /* \"#utility.yul\":4091:4144   */\n      tag_217\n      jump\t// in\n    tag_303:\n        /* \"#utility.yul\":4081:4144   */\n      swap4\n      pop\n        /* \"#utility.yul\":4037:4154   */\n      pop\n        /* \"#utility.yul\":4193:4195   */\n      0x20\n        /* \"#utility.yul\":4219:4272   */\n      tag_304\n        /* \"#utility.yul\":4264:4271   */\n      dup7\n        /* \"#utility.yul\":4255:4261   */\n      dup3\n        /* \"#utility.yul\":4244:4253   */\n      dup8\n        /* \"#utility.yul\":4240:4262   */\n      add\n        /* \"#utility.yul\":4219:4272   */\n      tag_217\n      jump\t// in\n    tag_304:\n        /* \"#utility.yul\":4209:4272   */\n      swap3\n      pop\n        /* \"#utility.yul\":4164:4282   */\n      pop\n        /* \"#utility.yul\":4321:4323   */\n      0x40\n        /* \"#utility.yul\":4347:4400   */\n      tag_305\n        /* \"#utility.yul\":4392:4399   */\n      dup7\n        /* \"#utility.yul\":4383:4389   */\n      dup3\n        /* \"#utility.yul\":4372:4381   */\n      dup8\n        /* \"#utility.yul\":4368:4390   */\n      add\n        /* \"#utility.yul\":4347:4400   */\n      tag_220\n      jump\t// in\n    tag_305:\n        /* \"#utility.yul\":4337:4400   */\n      swap2\n      pop\n        /* \"#utility.yul\":4292:4410   */\n      pop\n        /* \"#utility.yul\":3798:4417   */\n      swap3\n      pop\n      swap3\n      pop\n      swap3\n      jump\t// out\n        /* \"#utility.yul\":4423:4509   */\n    tag_224:\n        /* \"#utility.yul\":4458:4465   */\n      0x00\n        /* \"#utility.yul\":4498:4502   */\n      0xff\n        /* \"#utility.yul\":4491:4496   */\n      dup3\n        /* \"#utility.yul\":4487:4503   */\n      and\n        /* \"#utility.yul\":4476:4503   */\n      swap1\n      pop\n        /* \"#utility.yul\":4423:4509   */\n      swap2\n      swap1\n      pop\n      jump\t// out\n        /* \"#utility.yul\":4515:4627   */\n    tag_225:\n        /* \"#utility.yul\":4598:4620   */\n      tag_308\n        /* \"#utility.yul\":4614:4619   */\n      dup2\n        /* \"#utility.yul\":4598:4620   */\n      tag_224\n      jump\t// in\n    tag_308:\n        /* \"#utility.yul\":4593:4596   */\n      dup3\n        /* \"#utility.yul\":4586:4621   */\n      mstore\n        /* \"#utility.yul\":4515:4627   */\n      pop\n      pop\n      jump\t// out\n        /* \"#utility.yul\":4633:4847   */\n    tag_40:\n        /* \"#utility.yul\":4722:4726   */\n      0x00\n        /* \"#utility.yul\":4760:4762   */\n      0x20\n        /* \"#utility.yul\":4749:4758   */\n      dup3\n        /* \"#utility.yul\":4745:4763   */\n      add\n        /* \"#utility.yul\":4737:4763   */\n      swap1\n      pop\n        /* \"#utility.yul\":4773:4840   */\n      tag_310\n        /* \"#utility.yul\":4837:4838   */\n      0x00\n        /* \"#utility.yul\":4826:4835   */\n      dup4\n        /* \"#utility.yul\":4822:4839   */\n      add\n        /* \"#utility.yul\":4813:4819   */\n      dup5\n        /* \"#utility.yul\":4773:4840   */\n      tag_225\n      jump\t// in\n    tag_310:\n        /* \"#utility.yul\":4633:4847   */\n      swap3\n      swap2\n      pop\n      pop\n      jump\t// out\n        /* \"#utility.yul\":4853:5182   */\n    tag_47:\n        /* \"#utility.yul\":4912:4918   */\n      0x00\n        /* \"#utility.yul\":4961:4963   */\n      0x20\n        /* \"#utility.yul\":4949:4958   */\n      dup3\n        /* \"#utility.yul\":4940:4947   */\n      dup5\n        /* \"#utility.yul\":4936:4959   */\n      sub\n        /* \"#utility.yul\":4932:4964   */\n      slt\n        /* \"#utility.yul\":4929:5048   */\n      iszero\n      tag_312\n      jumpi\n        /* \"#utility.yul\":4967:5046   */\n      tag_313\n      tag_212\n      jump\t// in\n    tag_313:\n        /* \"#utility.yul\":4929:5048   */\n    tag_312:\n        /* \"#utility.yul\":5087:5088   */\n      0x00\n        /* \"#utility.yul\":5112:5165   */\n      tag_314\n        /* \"#utility.yul\":5157:5164   */\n      dup5\n        /* \"#utility.yul\":5148:5154   */\n      dup3\n        /* \"#utility.yul\":5137:5146   */\n      dup6\n        /* \"#utility.yul\":5133:5155   */\n      add\n        /* \"#utility.yul\":5112:5165   */\n      tag_217\n      jump\t// in\n    tag_314:\n        /* \"#utility.yul\":5102:5165   */\n      swap2\n      pop\n        /* \"#utility.yul\":5058:5175   */\n      pop\n        /* \"#utility.yul\":4853:5182   */\n      swap3\n      swap2\n      pop\n      pop\n      jump\t// out\n        /* \"#utility.yul\":5188:5662   */\n    tag_68:\n        /* \"#utility.yul\":5256:5262   */\n      0x00\n        /* \"#utility.yul\":5264:5270   */\n      dup1\n        /* \"#utility.yul\":5313:5315   */\n      0x40\n        /* \"#utility.yul\":5301:5310   */\n      dup4\n        /* \"#utility.yul\":5292:5299   */\n      dup6\n        /* \"#utility.yul\":5288:5311   */\n      sub\n        /* \"#utility.yul\":5284:5316   */\n      slt\n        /* \"#utility.yul\":5281:5400   */\n      iszero\n      tag_316\n      jumpi\n        /* \"#utility.yul\":5319:5398   */\n      tag_317\n      tag_212\n      jump\t// in\n    tag_317:\n        /* \"#utility.yul\":5281:5400   */\n    tag_316:\n        /* \"#utility.yul\":5439:5440   */\n      0x00\n        /* \"#utility.yul\":5464:5517   */\n      tag_318\n        /* \"#utility.yul\":5509:5516   */\n      dup6\n        /* \"#utility.yul\":5500:5506   */\n      dup3\n        /* \"#utility.yul\":5489:5498   */\n      dup7\n        /* \"#utility.yul\":5485:5507   */\n      add\n        /* \"#utility.yul\":5464:5517   */\n      tag_217\n      jump\t// in\n    tag_318:\n        /* \"#utility.yul\":5454:5517   */\n      swap3\n      pop\n        /* \"#utility.yul\":5410:5527   */\n      pop\n        /* \"#utility.yul\":5566:5568   */\n      0x20\n        /* \"#utility.yul\":5592:5645   */\n      tag_319\n        /* \"#utility.yul\":5637:5644   */\n      dup6\n        /* \"#utility.yul\":5628:5634   */\n      dup3\n        /* \"#utility.yul\":5617:5626   */\n      dup7\n        /* \"#utility.yul\":5613:5635   */\n      add\n        /* \"#utility.yul\":5592:5645   */\n      tag_217\n      jump\t// in\n    tag_319:\n        /* \"#utility.yul\":5582:5645   */\n      swap2\n      pop\n        /* \"#utility.yul\":5537:5655   */\n      pop\n        /* \"#utility.yul\":5188:5662   */\n      swap3\n      pop\n      swap3\n      swap1\n      pop\n      jump\t// out\n        /* \"#utility.yul\":5668:5848   */\n    tag_226:\n        /* \"#utility.yul\":5716:5793   */\n      0x4e487b7100000000000000000000000000000000000000000000000000000000\n        /* \"#utility.yul\":5713:5714   */\n      0x00\n        /* \"#utility.yul\":5706:5794   */\n      mstore\n        /* \"#utility.yul\":5813:5817   */\n      0x22\n        /* \"#utility.yul\":5810:5811   */\n      0x04\n        /* \"#utility.yul\":5803:5818   */\n      mstore\n        /* \"#utility.yul\":5837:5841   */\n      0x24\n        /* \"#utility.yul\":5834:5835   */\n      0x00\n        /* \"#utility.yul\":5827:5842   */\n      revert\n        /* \"#utility.yul\":5854:6174   */\n    tag_73:\n        /* \"#utility.yul\":5898:5904   */\n      0x00\n        /* \"#utility.yul\":5935:5936   */\n      0x02\n        /* \"#utility.yul\":5929:5933   */\n      dup3\n        /* \"#utility.yul\":5925:5937   */\n      div\n        /* \"#utility.yul\":5915:5937   */\n      swap1\n      pop\n        /* \"#utility.yul\":5982:5983   */\n      0x01\n        /* \"#utility.yul\":5976:5980   */\n      dup3\n        /* \"#utility.yul\":5972:5984   */\n      and\n        /* \"#utility.yul\":6003:6021   */\n      dup1\n        /* \"#utility.yul\":5993:6074   */\n      tag_322\n      jumpi\n        /* \"#utility.yul\":6059:6063   */\n      0x7f\n        /* \"#utility.yul\":6051:6057   */\n      dup3\n        /* \"#utility.yul\":6047:6064   */\n      and\n        /* \"#utility.yul\":6037:6064   */\n      swap2\n      pop\n        /* \"#utility.yul\":5993:6074   */\n    tag_322:\n        /* \"#utility.yul\":6121:6123   */\n      0x20\n        /* \"#utility.yul\":6113:6119   */\n      dup3\n        /* \"#utility.yul\":6110:6124   */\n      lt\n        /* \"#utility.yul\":6090:6108   */\n      dup2\n        /* \"#utility.yul\":6087:6125   */\n      sub\n        /* \"#utility.yul\":6084:6168   */\n      tag_323\n      jumpi\n        /* \"#utility.yul\":6140:6158   */\n      tag_324\n      tag_226\n      jump\t// in\n    tag_324:\n        /* \"#utility.yul\":6084:6168   */\n    tag_323:\n        /* \"#utility.yul\":5905:6174   */\n      pop\n        /* \"#utility.yul\":5854:6174   */\n      swap2\n      swap1\n      pop\n      jump\t// out\n        /* \"#utility.yul\":6180:6360   */\n    tag_227:\n        /* \"#utility.yul\":6228:6305   */\n      0x4e487b7100000000000000000000000000000000000000000000000000000000\n        /* \"#utility.yul\":6225:6226   */\n      0x00\n        /* \"#utility.yul\":6218:6306   */\n      mstore\n        /* \"#utility.yul\":6325:6329   */\n      0x11\n        /* \"#utility.yul\":6322:6323   */\n      0x04\n        /* \"#utility.yul\":6315:6330   */\n      mstore\n        /* \"#utility.yul\":6349:6353   */\n      0x24\n        /* \"#utility.yul\":6346:6347   */\n      0x00\n        /* \"#utility.yul\":6339:6354   */\n      revert\n        /* \"#utility.yul\":6366:6557   */\n    tag_96:\n        /* \"#utility.yul\":6406:6409   */\n      0x00\n        /* \"#utility.yul\":6425:6445   */\n      tag_327\n        /* \"#utility.yul\":6443:6444   */\n      dup3\n        /* \"#utility.yul\":6425:6445   */\n      tag_218\n      jump\t// in\n    tag_327:\n        /* \"#utility.yul\":6420:6445   */\n      swap2\n      pop\n        /* \"#utility.yul\":6459:6479   */\n      tag_328\n        /* \"#utility.yul\":6477:6478   */\n      dup4\n        /* \"#utility.yul\":6459:6479   */\n      tag_218\n      jump\t// in\n    tag_328:\n        /* \"#utility.yul\":6454:6479   */\n      swap3\n      pop\n        /* \"#utility.yul\":6502:6503   */\n      dup3\n        /* \"#utility.yul\":6499:6500   */\n      dup3\n        /* \"#utility.yul\":6495:6504   */\n      add\n        /* \"#utility.yul\":6488:6504   */\n      swap1\n      pop\n        /* \"#utility.yul\":6523:6526   */\n      dup1\n        /* \"#utility.yul\":6520:6521   */\n      dup3\n        /* \"#utility.yul\":6517:6527   */\n      gt\n        /* \"#utility.yul\":6514:6550   */\n      iszero\n      tag_329\n      jumpi\n        /* \"#utility.yul\":6530:6548   */\n      tag_330\n      tag_227\n      jump\t// in\n    tag_330:\n        /* \"#utility.yul\":6514:6550   */\n    tag_329:\n        /* \"#utility.yul\":6366:6557   */\n      swap3\n      swap2\n      pop\n      pop\n      jump\t// out\n        /* \"#utility.yul\":6563:6787   */\n    tag_228:\n        /* \"#utility.yul\":6703:6737   */\n      0x45524332303a2064656372656173656420616c6c6f77616e63652062656c6f77\n        /* \"#utility.yul\":6699:6700   */\n      0x00\n        /* \"#utility.yul\":6691:6697   */\n      dup3\n        /* \"#utility.yul\":6687:6701   */\n      add\n        /* \"#utility.yul\":6680:6738   */\n      mstore\n        /* \"#utility.yul\":6772:6779   */\n      0x207a65726f000000000000000000000000000000000000000000000000000000\n        /* \"#utility.yul\":6767:6769   */\n      0x20\n        /* \"#utility.yul\":6759:6765   */\n      dup3\n        /* \"#utility.yul\":6755:6770   */\n      add\n        /* \"#utility.yul\":6748:6780   */\n      mstore\n        /* \"#utility.yul\":6563:6787   */\n      pop\n      jump\t// out\n        /* \"#utility.yul\":6793:7159   */\n    tag_229:\n        /* \"#utility.yul\":6935:6938   */\n      0x00\n        /* \"#utility.yul\":6956:7023   */\n      tag_333\n        /* \"#utility.yul\":7020:7022   */\n      0x25\n        /* \"#utility.yul\":7015:7018   */\n      dup4\n        /* \"#utility.yul\":6956:7023   */\n      tag_207\n      jump\t// in\n    tag_333:\n        /* \"#utility.yul\":6949:7023   */\n      swap2\n      pop\n        /* \"#utility.yul\":7032:7125   */\n      tag_334\n        /* \"#utility.yul\":7121:7124   */\n      dup3\n        /* \"#utility.yul\":7032:7125   */\n      tag_228\n      jump\t// in\n    tag_334:\n        /* \"#utility.yul\":7150:7152   */\n      0x40\n        /* \"#utility.yul\":7145:7148   */\n      dup3\n        /* \"#utility.yul\":7141:7153   */\n      add\n        /* \"#utility.yul\":7134:7153   */\n      swap1\n      pop\n        /* \"#utility.yul\":6793:7159   */\n      swap2\n      swap1\n      pop\n      jump\t// out\n        /* \"#utility.yul\":7165:7584   */\n    tag_109:\n        /* \"#utility.yul\":7331:7335   */\n      0x00\n        /* \"#utility.yul\":7369:7371   */\n      0x20\n        /* \"#utility.yul\":7358:7367   */\n      dup3\n        /* \"#utility.yul\":7354:7372   */\n      add\n        /* \"#utility.yul\":7346:7372   */\n      swap1\n      pop\n        /* \"#utility.yul\":7418:7427   */\n      dup2\n        /* \"#utility.yul\":7412:7416   */\n      dup2\n        /* \"#utility.yul\":7408:7428   */\n      sub\n        /* \"#utility.yul\":7404:7405   */\n      0x00\n        /* \"#utility.yul\":7393:7402   */\n      dup4\n        /* \"#utility.yul\":7389:7406   */\n      add\n        /* \"#utility.yul\":7382:7429   */\n      mstore\n        /* \"#utility.yul\":7446:7577   */\n      tag_336\n        /* \"#utility.yul\":7572:7576   */\n      dup2\n        /* \"#utility.yul\":7446:7577   */\n      tag_229\n      jump\t// in\n    tag_336:\n        /* \"#utility.yul\":7438:7577   */\n      swap1\n      pop\n        /* \"#utility.yul\":7165:7584   */\n      swap2\n      swap1\n      pop\n      jump\t// out\n        /* \"#utility.yul\":7590:7813   */\n    tag_230:\n        /* \"#utility.yul\":7730:7764   */\n      0x45524332303a20617070726f76652066726f6d20746865207a65726f20616464\n        /* \"#utility.yul\":7726:7727   */\n      0x00\n        /* \"#utility.yul\":7718:7724   */\n      dup3\n        /* \"#utility.yul\":7714:7728   */\n      add\n        /* \"#utility.yul\":7707:7765   */\n      mstore\n        /* \"#utility.yul\":7799:7805   */\n      0x7265737300000000000000000000000000000000000000000000000000000000\n        /* \"#utility.yul\":7794:7796   */\n      0x20\n        /* \"#utility.yul\":7786:7792   */\n      dup3\n        /* \"#utility.yul\":7782:7797   */\n      add\n        /* \"#utility.yul\":7775:7806   */\n      mstore\n        /* \"#utility.yul\":7590:7813   */\n      pop\n      jump\t// out\n        /* \"#utility.yul\":7819:8185   */\n    tag_231:\n        /* \"#utility.yul\":7961:7964   */\n      0x00\n        /* \"#utility.yul\":7982:8049   */\n      tag_339\n        /* \"#utility.yul\":8046:8048   */\n      0x24\n        /* \"#utility.yul\":8041:8044   */\n      dup4\n        /* \"#utility.yul\":7982:8049   */\n      tag_207\n      jump\t// in\n    tag_339:\n        /* \"#utility.yul\":7975:8049   */\n      swap2\n      pop\n        /* \"#utility.yul\":8058:8151   */\n      tag_340\n        /* \"#utility.yul\":8147:8150   */\n      dup3\n        /* \"#utility.yul\":8058:8151   */\n      tag_230\n      jump\t// in\n    tag_340:\n        /* \"#utility.yul\":8176:8178   */\n      0x40\n        /* \"#utility.yul\":8171:8174   */\n      dup3\n        /* \"#utility.yul\":8167:8179   */\n      add\n        /* \"#utility.yul\":8160:8179   */\n      swap1\n      pop\n        /* \"#utility.yul\":7819:8185   */\n      swap2\n      swap1\n      pop\n      jump\t// out\n        /* \"#utility.yul\":8191:8610   */\n    tag_129:\n        /* \"#utility.yul\":8357:8361   */\n      0x00\n        /* \"#utility.yul\":8395:8397   */\n      0x20\n        /* \"#utility.yul\":8384:8393   */\n      dup3\n        /* \"#utility.yul\":8380:8398   */\n      add\n        /* \"#utility.yul\":8372:8398   */\n      swap1\n      pop\n        /* \"#utility.yul\":8444:8453   */\n      dup2\n        /* \"#utility.yul\":8438:8442   */\n      dup2\n        /* \"#utility.yul\":8434:8454   */\n      sub\n        /* \"#utility.yul\":8430:8431   */\n      0x00\n        /* \"#utility.yul\":8419:8428   */\n      dup4\n        /* \"#utility.yul\":8415:8432   */\n      add\n        /* \"#utility.yul\":8408:8455   */\n      mstore\n        /* \"#utility.yul\":8472:8603   */\n      tag_342\n        /* \"#utility.yul\":8598:8602   */\n      dup2\n        /* \"#utility.yul\":8472:8603   */\n      tag_231\n      jump\t// in\n    tag_342:\n        /* \"#utility.yul\":8464:8603   */\n      swap1\n      pop\n        /* \"#utility.yul\":8191:8610   */\n      swap2\n      swap1\n      pop\n      jump\t// out\n        /* \"#utility.yul\":8616:8837   */\n    tag_232:\n        /* \"#utility.yul\":8756:8790   */\n      0x45524332303a20617070726f766520746f20746865207a65726f206164647265\n        /* \"#utility.yul\":8752:8753   */\n      0x00\n        /* \"#utility.yul\":8744:8750   */\n      dup3\n        /* \"#utility.yul\":8740:8754   */\n      add\n        /* \"#utility.yul\":8733:8791   */\n      mstore\n        /* \"#utility.yul\":8825:8829   */\n      0x7373000000000000000000000000000000000000000000000000000000000000\n        /* \"#utility.yul\":8820:8822   */\n      0x20\n        /* \"#utility.yul\":8812:8818   */\n      dup3\n        /* \"#utility.yul\":8808:8823   */\n      add\n        /* \"#utility.yul\":8801:8830   */\n      mstore\n        /* \"#utility.yul\":8616:8837   */\n      pop\n      jump\t// out\n        /* \"#utility.yul\":8843:9209   */\n    tag_233:\n        /* \"#utility.yul\":8985:8988   */\n      0x00\n        /* \"#utility.yul\":9006:9073   */\n      tag_345\n        /* \"#utility.yul\":9070:9072   */\n      0x22\n        /* \"#utility.yul\":9065:9068   */\n      dup4\n        /* \"#utility.yul\":9006:9073   */\n      tag_207\n      jump\t// in\n    tag_345:\n        /* \"#utility.yul\":8999:9073   */\n      swap2\n      pop\n        /* \"#utility.yul\":9082:9175   */\n      tag_346\n        /* \"#utility.yul\":9171:9174   */\n      dup3\n        /* \"#utility.yul\":9082:9175   */\n      tag_232\n      jump\t// in\n    tag_346:\n        /* \"#utility.yul\":9200:9202   */\n      0x40\n        /* \"#utility.yul\":9195:9198   */\n      dup3\n        /* \"#utility.yul\":9191:9203   */\n      add\n        /* \"#utility.yul\":9184:9203   */\n      swap1\n      pop\n        /* \"#utility.yul\":8843:9209   */\n      swap2\n      swap1\n      pop\n      jump\t// out\n        /* \"#utility.yul\":9215:9634   */\n    tag_132:\n        /* \"#utility.yul\":9381:9385   */\n      0x00\n        /* \"#utility.yul\":9419:9421   */\n      0x20\n        /* \"#utility.yul\":9408:9417   */\n      dup3\n        /* \"#utility.yul\":9404:9422   */\n      add\n        /* \"#utility.yul\":9396:9422   */\n      swap1\n      pop\n        /* \"#utility.yul\":9468:9477   */\n      dup2\n        /* \"#utility.yul\":9462:9466   */\n      dup2\n        /* \"#utility.yul\":9458:9478   */\n      sub\n        /* \"#utility.yul\":9454:9455   */\n      0x00\n        /* \"#utility.yul\":9443:9452   */\n      dup4\n        /* \"#utility.yul\":9439:9456   */\n      add\n        /* \"#utility.yul\":9432:9479   */\n      mstore\n        /* \"#utility.yul\":9496:9627   */\n      tag_348\n        /* \"#utility.yul\":9622:9626   */\n      dup2\n        /* \"#utility.yul\":9496:9627   */\n      tag_233\n      jump\t// in\n    tag_348:\n        /* \"#utility.yul\":9488:9627   */\n      swap1\n      pop\n        /* \"#utility.yul\":9215:9634   */\n      swap2\n      swap1\n      pop\n      jump\t// out\n        /* \"#utility.yul\":9640:9819   */\n    tag_234:\n        /* \"#utility.yul\":9780:9811   */\n      0x45524332303a20696e73756666696369656e7420616c6c6f77616e6365000000\n        /* \"#utility.yul\":9776:9777   */\n      0x00\n        /* \"#utility.yul\":9768:9774   */\n      dup3\n        /* \"#utility.yul\":9764:9778   */\n      add\n        /* \"#utility.yul\":9757:9812   */\n      mstore\n        /* \"#utility.yul\":9640:9819   */\n      pop\n      jump\t// out\n        /* \"#utility.yul\":9825:10191   */\n    tag_235:\n        /* \"#utility.yul\":9967:9970   */\n      0x00\n        /* \"#utility.yul\":9988:10055   */\n      tag_351\n        /* \"#utility.yul\":10052:10054   */\n      0x1d\n        /* \"#utility.yul\":10047:10050   */\n      dup4\n        /* \"#utility.yul\":9988:10055   */\n      tag_207\n      jump\t// in\n    tag_351:\n        /* \"#utility.yul\":9981:10055   */\n      swap2\n      pop\n        /* \"#utility.yul\":10064:10157   */\n      tag_352\n        /* \"#utility.yul\":10153:10156   */\n      dup3\n        /* \"#utility.yul\":10064:10157   */\n      tag_234\n      jump\t// in\n    tag_352:\n        /* \"#utility.yul\":10182:10184   */\n      0x20\n        /* \"#utility.yul\":10177:10180   */\n      dup3\n        /* \"#utility.yul\":10173:10185   */\n      add\n        /* \"#utility.yul\":10166:10185   */\n      swap1\n      pop\n        /* \"#utility.yul\":9825:10191   */\n      swap2\n      swap1\n      pop\n      jump\t// out\n        /* \"#utility.yul\":10197:10616   */\n    tag_139:\n        /* \"#utility.yul\":10363:10367   */\n      0x00\n        /* \"#utility.yul\":10401:10403   */\n      0x20\n        /* \"#utility.yul\":10390:10399   */\n      dup3\n        /* \"#utility.yul\":10386:10404   */\n      add\n        /* \"#utility.yul\":10378:10404   */\n      swap1\n      pop\n        /* \"#utility.yul\":10450:10459   */\n      dup2\n        /* \"#utility.yul\":10444:10448   */\n      dup2\n        /* \"#utility.yul\":10440:10460   */\n      sub\n        /* \"#utility.yul\":10436:10437   */\n      0x00\n        /* \"#utility.yul\":10425:10434   */\n      dup4\n        /* \"#utility.yul\":10421:10438   */\n      add\n        /* \"#utility.yul\":10414:10461   */\n      mstore\n        /* \"#utility.yul\":10478:10609   */\n      tag_354\n        /* \"#utility.yul\":10604:10608   */\n      dup2\n        /* \"#utility.yul\":10478:10609   */\n      tag_235\n      jump\t// in\n    tag_354:\n        /* \"#utility.yul\":10470:10609   */\n      swap1\n      pop\n        /* \"#utility.yul\":10197:10616   */\n      swap2\n      swap1\n      pop\n      jump\t// out\n        /* \"#utility.yul\":10622:10846   */\n    tag_236:\n        /* \"#utility.yul\":10762:10796   */\n      0x45524332303a207472616e736665722066726f6d20746865207a65726f206164\n        /* \"#utility.yul\":10758:10759   */\n      0x00\n        /* \"#utility.yul\":10750:10756   */\n      dup3\n        /* \"#utility.yul\":10746:10760   */\n      add\n        /* \"#utility.yul\":10739:10797   */\n      mstore\n        /* \"#utility.yul\":10831:10838   */\n      0x6472657373000000000000000000000000000000000000000000000000000000\n        /* \"#utility.yul\":10826:10828   */\n      0x20\n        /* \"#utility.yul\":10818:10824   */\n      dup3\n        /* \"#utility.yul\":10814:10829   */\n      add\n        /* \"#utility.yul\":10807:10839   */\n      mstore\n        /* \"#utility.yul\":10622:10846   */\n      pop\n      jump\t// out\n        /* \"#utility.yul\":10852:11218   */\n    tag_237:\n        /* \"#utility.yul\":10994:10997   */\n      0x00\n        /* \"#utility.yul\":11015:11082   */\n      tag_357\n        /* \"#utility.yul\":11079:11081   */\n      0x25\n        /* \"#utility.yul\":11074:11077   */\n      dup4\n        /* \"#utility.yul\":11015:11082   */\n      tag_207\n      jump\t// in\n    tag_357:\n        /* \"#utility.yul\":11008:11082   */\n      swap2\n      pop\n        /* \"#utility.yul\":11091:11184   */\n      tag_358\n        /* \"#utility.yul\":11180:11183   */\n      dup3\n        /* \"#utility.yul\":11091:11184   */\n      tag_236\n      jump\t// in\n    tag_358:\n        /* \"#utility.yul\":11209:11211   */\n      0x40\n        /* \"#utility.yul\":11204:11207   */\n      dup3\n        /* \"#utility.yul\":11200:11212   */\n      add\n        /* \"#utility.yul\":11193:11212   */\n      swap1\n      pop\n        /* \"#utility.yul\":10852:11218   */\n      swap2\n      swap1\n      pop\n      jump\t// out\n        /* \"#utility.yul\":11224:11643   */\n    tag_144:\n        /* \"#utility.yul\":11390:11394   */\n      0x00\n        /* \"#utility.yul\":11428:11430   */\n      0x20\n        /* \"#utility.yul\":11417:11426   */\n      dup3\n        /* \"#utility.yul\":11413:11431   */\n      add\n        /* \"#utility.yul\":11405:11431   */\n      swap1\n      pop\n        /* \"#utility.yul\":11477:11486   */\n      dup2\n        /* \"#utility.yul\":11471:11475   */\n      dup2\n        /* \"#utility.yul\":11467:11487   */\n      sub\n        /* \"#utility.yul\":11463:11464   */\n      0x00\n        /* \"#utility.yul\":11452:11461   */\n      dup4\n        /* \"#utility.yul\":11448:11465   */\n      add\n        /* \"#utility.yul\":11441:11488   */\n      mstore\n        /* \"#utility.yul\":11505:11636   */\n      tag_360\n        /* \"#utility.yul\":11631:11635   */\n      dup2\n        /* \"#utility.yul\":11505:11636   */\n      tag_237\n      jump\t// in\n    tag_360:\n        /* \"#utility.yul\":11497:11636   */\n      swap1\n      pop\n        /* \"#utility.yul\":11224:11643   */\n      swap2\n      swap1\n      pop\n      jump\t// out\n        /* \"#utility.yul\":11649:11871   */\n    tag_238:\n        /* \"#utility.yul\":11789:11823   */\n      0x45524332303a207472616e7366657220746f20746865207a65726f2061646472\n        /* \"#utility.yul\":11785:11786   */\n      0x00\n        /* \"#utility.yul\":11777:11783   */\n      dup3\n        /* \"#utility.yul\":11773:11787   */\n      add\n        /* \"#utility.yul\":11766:11824   */\n      mstore\n        /* \"#utility.yul\":11858:11863   */\n      0x6573730000000000000000000000000000000000000000000000000000000000\n        /* \"#utility.yul\":11853:11855   */\n      0x20\n        /* \"#utility.yul\":11845:11851   */\n      dup3\n        /* \"#utility.yul\":11841:11856   */\n      add\n        /* \"#utility.yul\":11834:11864   */\n      mstore\n        /* \"#utility.yul\":11649:11871   */\n      pop\n      jump\t// out\n        /* \"#utility.yul\":11877:12243   */\n    tag_239:\n        /* \"#utility.yul\":12019:12022   */\n      0x00\n        /* \"#utility.yul\":12040:12107   */\n      tag_363\n        /* \"#utility.yul\":12104:12106   */\n      0x23\n        /* \"#utility.yul\":12099:12102   */\n      dup4\n        /* \"#utility.yul\":12040:12107   */\n      tag_207\n      jump\t// in\n    tag_363:\n        /* \"#utility.yul\":12033:12107   */\n      swap2\n      pop\n        /* \"#utility.yul\":12116:12209   */\n      tag_364\n        /* \"#utility.yul\":12205:12208   */\n      dup3\n        /* \"#utility.yul\":12116:12209   */\n      tag_238\n      jump\t// in\n    tag_364:\n        /* \"#utility.yul\":12234:12236   */\n      0x40\n        /* \"#utility.yul\":12229:12232   */\n      dup3\n        /* \"#utility.yul\":12225:12237   */\n      add\n        /* \"#utility.yul\":12218:12237   */\n      swap1\n      pop\n        /* \"#utility.yul\":11877:12243   */\n      swap2\n      swap1\n      pop\n      jump\t// out\n        /* \"#utility.yul\":12249:12668   */\n    tag_147:\n        /* \"#utility.yul\":12415:12419   */\n      0x00\n        /* \"#utility.yul\":12453:12455   */\n      0x20\n        /* \"#utility.yul\":12442:12451   */\n      dup3\n        /* \"#utility.yul\":12438:12456   */\n      add\n        /* \"#utility.yul\":12430:12456   */\n      swap1\n      pop\n        /* \"#utility.yul\":12502:12511   */\n      dup2\n        /* \"#utility.yul\":12496:12500   */\n      dup2\n        /* \"#utility.yul\":12492:12512   */\n      sub\n        /* \"#utility.yul\":12488:12489   */\n      0x00\n        /* \"#utility.yul\":12477:12486   */\n      dup4\n        /* \"#utility.yul\":12473:12490   */\n      add\n        /* \"#utility.yul\":12466:12513   */\n      mstore\n        /* \"#utility.yul\":12530:12661   */\n      tag_366\n        /* \"#utility.yul\":12656:12660   */\n      dup2\n        /* \"#utility.yul\":12530:12661   */\n      tag_239\n      jump\t// in\n    tag_366:\n        /* \"#utility.yul\":12522:12661   */\n      swap1\n      pop\n        /* \"#utility.yul\":12249:12668   */\n      swap2\n      swap1\n      pop\n      jump\t// out\n        /* \"#utility.yul\":12674:12899   */\n    tag_240:\n        /* \"#utility.yul\":12814:12848   */\n      0x45524332303a207472616e7366657220616d6f756e7420657863656564732062\n        /* \"#utility.yul\":12810:12811   */\n      0x00\n        /* \"#utility.yul\":12802:12808   */\n      dup3\n        /* \"#utility.yul\":12798:12812   */\n      add\n        /* \"#utility.yul\":12791:12849   */\n      mstore\n        /* \"#utility.yul\":12883:12891   */\n      0x616c616e63650000000000000000000000000000000000000000000000000000\n        /* \"#utility.yul\":12878:12880   */\n      0x20\n        /* \"#utility.yul\":12870:12876   */\n      dup3\n        /* \"#utility.yul\":12866:12881   */\n      add\n        /* \"#utility.yul\":12859:12892   */\n      mstore\n        /* \"#utility.yul\":12674:12899   */\n      pop\n      jump\t// out\n        /* \"#utility.yul\":12905:13271   */\n    tag_241:\n        /* \"#utility.yul\":13047:13050   */\n      0x00\n        /* \"#utility.yul\":13068:13135   */\n      tag_369\n        /* \"#utility.yul\":13132:13134   */\n      0x26\n        /* \"#utility.yul\":13127:13130   */\n      dup4\n        /* \"#utility.yul\":13068:13135   */\n      tag_207\n      jump\t// in\n    tag_369:\n        /* \"#utility.yul\":13061:13135   */\n      swap2\n      pop\n        /* \"#utility.yul\":13144:13237   */\n      tag_370\n        /* \"#utility.yul\":13233:13236   */\n      dup3\n        /* \"#utility.yul\":13144:13237   */\n      tag_240\n      jump\t// in\n    tag_370:\n        /* \"#utility.yul\":13262:13264   */\n      0x40\n        /* \"#utility.yul\":13257:13260   */\n      dup3\n        /* \"#utility.yul\":13253:13265   */\n      add\n        /* \"#utility.yul\":13246:13265   */\n      swap1\n      pop\n        /* \"#utility.yul\":12905:13271   */\n      swap2\n      swap1\n      pop\n      jump\t// out\n        /* \"#utility.yul\":13277:13696   */\n    tag_152:\n        /* \"#utility.yul\":13443:13447   */\n      0x00\n        /* \"#utility.yul\":13481:13483   */\n      0x20\n        /* \"#utility.yul\":13470:13479   */\n      dup3\n        /* \"#utility.yul\":13466:13484   */\n      add\n        /* \"#utility.yul\":13458:13484   */\n      swap1\n      pop\n        /* \"#utility.yul\":13530:13539   */\n      dup2\n        /* \"#utility.yul\":13524:13528   */\n      dup2\n        /* \"#utility.yul\":13520:13540   */\n      sub\n        /* \"#utility.yul\":13516:13517   */\n      0x00\n        /* \"#utility.yul\":13505:13514   */\n      dup4\n        /* \"#utility.yul\":13501:13518   */\n      add\n        /* \"#utility.yul\":13494:13541   */\n      mstore\n        /* \"#utility.yul\":13558:13689   */\n      tag_372\n        /* \"#utility.yul\":13684:13688   */\n      dup2\n        /* \"#utility.yul\":13558:13689   */\n      tag_241\n      jump\t// in\n    tag_372:\n        /* \"#utility.yul\":13550:13689   */\n      swap1\n      pop\n        /* \"#utility.yul\":13277:13696   */\n      swap2\n      swap1\n      pop\n      jump\t// out\n        /* \"#utility.yul\":13702:13820   */\n    tag_242:\n        /* \"#utility.yul\":13789:13813   */\n      tag_374\n        /* \"#utility.yul\":13807:13812   */\n      dup2\n        /* \"#utility.yul\":13789:13813   */\n      tag_215\n      jump\t// in\n    tag_374:\n        /* \"#utility.yul\":13784:13787   */\n      dup3\n        /* \"#utility.yul\":13777:13814   */\n      mstore\n        /* \"#utility.yul\":13702:13820   */\n      pop\n      pop\n      jump\t// out\n        /* \"#utility.yul\":13826:14268   */\n    tag_159:\n        /* \"#utility.yul\":13975:13979   */\n      0x00\n        /* \"#utility.yul\":14013:14015   */\n      0x60\n        /* \"#utility.yul\":14002:14011   */\n      dup3\n        /* \"#utility.yul\":13998:14016   */\n      add\n        /* \"#utility.yul\":13990:14016   */\n      swap1\n      pop\n        /* \"#utility.yul\":14026:14097   */\n      tag_376\n        /* \"#utility.yul\":14094:14095   */\n      0x00\n        /* \"#utility.yul\":14083:14092   */\n      dup4\n        /* \"#utility.yul\":14079:14096   */\n      add\n        /* \"#utility.yul\":14070:14076   */\n      dup7\n        /* \"#utility.yul\":14026:14097   */\n      tag_242\n      jump\t// in\n    tag_376:\n        /* \"#utility.yul\":14107:14179   */\n      tag_377\n        /* \"#utility.yul\":14175:14177   */\n      0x20\n        /* \"#utility.yul\":14164:14173   */\n      dup4\n        /* \"#utility.yul\":14160:14178   */\n      add\n        /* \"#utility.yul\":14151:14157   */\n      dup6\n        /* \"#utility.yul\":14107:14179   */\n      tag_242\n      jump\t// in\n    tag_377:\n        /* \"#utility.yul\":14189:14261   */\n      tag_378\n        /* \"#utility.yul\":14257:14259   */\n      0x40\n        /* \"#utility.yul\":14246:14255   */\n      dup4\n        /* \"#utility.yul\":14242:14260   */\n      add\n        /* \"#utility.yul\":14233:14239   */\n      dup5\n        /* \"#utility.yul\":14189:14261   */\n      tag_223\n      jump\t// in\n    tag_378:\n        /* \"#utility.yul\":13826:14268   */\n      swap5\n      swap4\n      pop\n      pop\n      pop\n      pop\n      jump\t// out\n        /* \"#utility.yul\":14274:14606   */\n    tag_164:\n        /* \"#utility.yul\":14395:14399   */\n      0x00\n        /* \"#utility.yul\":14433:14435   */\n      0x40\n        /* \"#utility.yul\":14422:14431   */\n      dup3\n        /* \"#utility.yul\":14418:14436   */\n      add\n        /* \"#utility.yul\":14410:14436   */\n      swap1\n      pop\n        /* \"#utility.yul\":14446:14517   */\n      tag_380\n        /* \"#utility.yul\":14514:14515   */\n      0x00\n        /* \"#utility.yul\":14503:14512   */\n      dup4\n        /* \"#utility.yul\":14499:14516   */\n      add\n        /* \"#utility.yul\":14490:14496   */\n      dup6\n        /* \"#utility.yul\":14446:14517   */\n      tag_242\n      jump\t// in\n    tag_380:\n        /* \"#utility.yul\":14527:14599   */\n      tag_381\n        /* \"#utility.yul\":14595:14597   */\n      0x20\n        /* \"#utility.yul\":14584:14593   */\n      dup4\n        /* \"#utility.yul\":14580:14598   */\n      add\n        /* \"#utility.yul\":14571:14577   */\n      dup5\n        /* \"#utility.yul\":14527:14599   */\n      tag_223\n      jump\t// in\n    tag_381:\n        /* \"#utility.yul\":14274:14606   */\n      swap4\n      swap3\n      pop\n      pop\n      pop\n      jump\t// out\n        /* \"#utility.yul\":14612:14728   */\n    tag_243:\n        /* \"#utility.yul\":14682:14703   */\n      tag_383\n        /* \"#utility.yul\":14697:14702   */\n      dup2\n        /* \"#utility.yul\":14682:14703   */\n      tag_221\n      jump\t// in\n    tag_383:\n        /* \"#utility.yul\":14675:14680   */\n      dup2\n        /* \"#utility.yul\":14672:14704   */\n      eq\n        /* \"#utility.yul\":14662:14722   */\n      tag_384\n      jumpi\n        /* \"#utility.yul\":14718:14719   */\n      0x00\n        /* \"#utility.yul\":14715:14716   */\n      dup1\n        /* \"#utility.yul\":14708:14720   */\n      revert\n        /* \"#utility.yul\":14662:14722   */\n    tag_384:\n        /* \"#utility.yul\":14612:14728   */\n      pop\n      jump\t// out\n        /* \"#utility.yul\":14734:14871   */\n    tag_244:\n        /* \"#utility.yul\":14788:14793   */\n      0x00\n        /* \"#utility.yul\":14819:14825   */\n      dup2\n        /* \"#utility.yul\":14813:14826   */\n      mload\n        /* \"#utility.yul\":14804:14826   */\n      swap1\n      pop\n        /* \"#utility.yul\":14835:14865   */\n      tag_386\n        /* \"#utility.yul\":14859:14864   */\n      dup2\n        /* \"#utility.yul\":14835:14865   */\n      tag_243\n      jump\t// in\n    tag_386:\n        /* \"#utility.yul\":14734:14871   */\n      swap3\n      swap2\n      pop\n      pop\n      jump\t// out\n        /* \"#utility.yul\":14877:15222   */\n    tag_172:\n        /* \"#utility.yul\":14944:14950   */\n      0x00\n        /* \"#utility.yul\":14993:14995   */\n      0x20\n        /* \"#utility.yul\":14981:14990   */\n      dup3\n        /* \"#utility.yul\":14972:14979   */\n      dup5\n        /* \"#utility.yul\":14968:14991   */\n      sub\n        /* \"#utility.yul\":14964:14996   */\n      slt\n        /* \"#utility.yul\":14961:15080   */\n      iszero\n      tag_388\n      jumpi\n        /* \"#utility.yul\":14999:15078   */\n      tag_389\n      tag_212\n      jump\t// in\n    tag_389:\n        /* \"#utility.yul\":14961:15080   */\n    tag_388:\n        /* \"#utility.yul\":15119:15120   */\n      0x00\n        /* \"#utility.yul\":15144:15205   */\n      tag_390\n        /* \"#utility.yul\":15197:15204   */\n      dup5\n        /* \"#utility.yul\":15188:15194   */\n      dup3\n        /* \"#utility.yul\":15177:15186   */\n      dup6\n        /* \"#utility.yul\":15173:15195   */\n      add\n        /* \"#utility.yul\":15144:15205   */\n      tag_244\n      jump\t// in\n    tag_390:\n        /* \"#utility.yul\":15134:15205   */\n      swap2\n      pop\n        /* \"#utility.yul\":15090:15215   */\n      pop\n        /* \"#utility.yul\":14877:15222   */\n      swap3\n      swap2\n      pop\n      pop\n      jump\t// out\n        /* \"#utility.yul\":15228:15457   */\n    tag_245:\n        /* \"#utility.yul\":15368:15402   */\n      0x5361666545524332303a204552433230206f7065726174696f6e20646964206e\n        /* \"#utility.yul\":15364:15365   */\n      0x00\n        /* \"#utility.yul\":15356:15362   */\n      dup3\n        /* \"#utility.yul\":15352:15366   */\n      add\n        /* \"#utility.yul\":15345:15403   */\n      mstore\n        /* \"#utility.yul\":15437:15449   */\n      0x6f74207375636365656400000000000000000000000000000000000000000000\n        /* \"#utility.yul\":15432:15434   */\n      0x20\n        /* \"#utility.yul\":15424:15430   */\n      dup3\n        /* \"#utility.yul\":15420:15435   */\n      add\n        /* \"#utility.yul\":15413:15450   */\n      mstore\n        /* \"#utility.yul\":15228:15457   */\n      pop\n      jump\t// out\n        /* \"#utility.yul\":15463:15829   */\n    tag_246:\n        /* \"#utility.yul\":15605:15608   */\n      0x00\n        /* \"#utility.yul\":15626:15693   */\n      tag_393\n        /* \"#utility.yul\":15690:15692   */\n      0x2a\n        /* \"#utility.yul\":15685:15688   */\n      dup4\n        /* \"#utility.yul\":15626:15693   */\n      tag_207\n      jump\t// in\n    tag_393:\n        /* \"#utility.yul\":15619:15693   */\n      swap2\n      pop\n        /* \"#utility.yul\":15702:15795   */\n      tag_394\n        /* \"#utility.yul\":15791:15794   */\n      dup3\n        /* \"#utility.yul\":15702:15795   */\n      tag_245\n      jump\t// in\n    tag_394:\n        /* \"#utility.yul\":15820:15822   */\n      0x40\n        /* \"#utility.yul\":15815:15818   */\n      dup3\n        /* \"#utility.yul\":15811:15823   */\n      add\n        /* \"#utility.yul\":15804:15823   */\n      swap1\n      pop\n        /* \"#utility.yul\":15463:15829   */\n      swap2\n      swap1\n      pop\n      jump\t// out\n        /* \"#utility.yul\":15835:16254   */\n    tag_175:\n        /* \"#utility.yul\":16001:16005   */\n      0x00\n        /* \"#utility.yul\":16039:16041   */\n      0x20\n        /* \"#utility.yul\":16028:16037   */\n      dup3\n        /* \"#utility.yul\":16024:16042   */\n      add\n        /* \"#utility.yul\":16016:16042   */\n      swap1\n      pop\n        /* \"#utility.yul\":16088:16097   */\n      dup2\n        /* \"#utility.yul\":16082:16086   */\n      dup2\n        /* \"#utility.yul\":16078:16098   */\n      sub\n        /* \"#utility.yul\":16074:16075   */\n      0x00\n        /* \"#utility.yul\":16063:16072   */\n      dup4\n        /* \"#utility.yul\":16059:16076   */\n      add\n        /* \"#utility.yul\":16052:16099   */\n      mstore\n        /* \"#utility.yul\":16116:16247   */\n      tag_396\n        /* \"#utility.yul\":16242:16246   */\n      dup2\n        /* \"#utility.yul\":16116:16247   */\n      tag_246\n      jump\t// in\n    tag_396:\n        /* \"#utility.yul\":16108:16247   */\n      swap1\n      pop\n        /* \"#utility.yul\":15835:16254   */\n      swap2\n      swap1\n      pop\n      jump\t// out\n        /* \"#utility.yul\":16260:16485   */\n    tag_247:\n        /* \"#utility.yul\":16400:16434   */\n      0x416464726573733a20696e73756666696369656e742062616c616e636520666f\n        /* \"#utility.yul\":16396:16397   */\n      0x00\n        /* \"#utility.yul\":16388:16394   */\n      dup3\n        /* \"#utility.yul\":16384:16398   */\n      add\n        /* \"#utility.yul\":16377:16435   */\n      mstore\n        /* \"#utility.yul\":16469:16477   */\n      0x722063616c6c0000000000000000000000000000000000000000000000000000\n        /* \"#utility.yul\":16464:16466   */\n      0x20\n        /* \"#utility.yul\":16456:16462   */\n      dup3\n        /* \"#utility.yul\":16452:16467   */\n      add\n        /* \"#utility.yul\":16445:16478   */\n      mstore\n        /* \"#utility.yul\":16260:16485   */\n      pop\n      jump\t// out\n        /* \"#utility.yul\":16491:16857   */\n    tag_248:\n        /* \"#utility.yul\":16633:16636   */\n      0x00\n        /* \"#utility.yul\":16654:16721   */\n      tag_399\n        /* \"#utility.yul\":16718:16720   */\n      0x26\n        /* \"#utility.yul\":16713:16716   */\n      dup4\n        /* \"#utility.yul\":16654:16721   */\n      tag_207\n      jump\t// in\n    tag_399:\n        /* \"#utility.yul\":16647:16721   */\n      swap2\n      pop\n        /* \"#utility.yul\":16730:16823   */\n      tag_400\n        /* \"#utility.yul\":16819:16822   */\n      dup3\n        /* \"#utility.yul\":16730:16823   */\n      tag_247\n      jump\t// in\n    tag_400:\n        /* \"#utility.yul\":16848:16850   */\n      0x40\n        /* \"#utility.yul\":16843:16846   */\n      dup3\n        /* \"#utility.yul\":16839:16851   */\n      add\n        /* \"#utility.yul\":16832:16851   */\n      swap1\n      pop\n        /* \"#utility.yul\":16491:16857   */\n      swap2\n      swap1\n      pop\n      jump\t// out\n        /* \"#utility.yul\":16863:17282   */\n    tag_182:\n        /* \"#utility.yul\":17029:17033   */\n      0x00\n        /* \"#utility.yul\":17067:17069   */\n      0x20\n        /* \"#utility.yul\":17056:17065   */\n      dup3\n        /* \"#utility.yul\":17052:17070   */\n      add\n        /* \"#utility.yul\":17044:17070   */\n      swap1\n      pop\n        /* \"#utility.yul\":17116:17125   */\n      dup2\n        /* \"#utility.yul\":17110:17114   */\n      dup2\n        /* \"#utility.yul\":17106:17126   */\n      sub\n        /* \"#utility.yul\":17102:17103   */\n      0x00\n        /* \"#utility.yul\":17091:17100   */\n      dup4\n        /* \"#utility.yul\":17087:17104   */\n      add\n        /* \"#utility.yul\":17080:17127   */\n      mstore\n        /* \"#utility.yul\":17144:17275   */\n      tag_402\n        /* \"#utility.yul\":17270:17274   */\n      dup2\n        /* \"#utility.yul\":17144:17275   */\n      tag_248\n      jump\t// in\n    tag_402:\n        /* \"#utility.yul\":17136:17275   */\n      swap1\n      pop\n        /* \"#utility.yul\":16863:17282   */\n      swap2\n      swap1\n      pop\n      jump\t// out\n        /* \"#utility.yul\":17288:17386   */\n    tag_249:\n        /* \"#utility.yul\":17339:17345   */\n      0x00\n        /* \"#utility.yul\":17373:17378   */\n      dup2\n        /* \"#utility.yul\":17367:17379   */\n      mload\n        /* \"#utility.yul\":17357:17379   */\n      swap1\n      pop\n        /* \"#utility.yul\":17288:17386   */\n      swap2\n      swap1\n      pop\n      jump\t// out\n        /* \"#utility.yul\":17392:17539   */\n    tag_250:\n        /* \"#utility.yul\":17493:17504   */\n      0x00\n        /* \"#utility.yul\":17530:17533   */\n      dup2\n        /* \"#utility.yul\":17515:17533   */\n      swap1\n      pop\n        /* \"#utility.yul\":17392:17539   */\n      swap3\n      swap2\n      pop\n      pop\n      jump\t// out\n        /* \"#utility.yul\":17545:17931   */\n    tag_251:\n        /* \"#utility.yul\":17649:17652   */\n      0x00\n        /* \"#utility.yul\":17677:17715   */\n      tag_406\n        /* \"#utility.yul\":17709:17714   */\n      dup3\n        /* \"#utility.yul\":17677:17715   */\n      tag_249\n      jump\t// in\n    tag_406:\n        /* \"#utility.yul\":17731:17819   */\n      tag_407\n        /* \"#utility.yul\":17812:17818   */\n      dup2\n        /* \"#utility.yul\":17807:17810   */\n      dup6\n        /* \"#utility.yul\":17731:17819   */\n      tag_250\n      jump\t// in\n    tag_407:\n        /* \"#utility.yul\":17724:17819   */\n      swap4\n      pop\n        /* \"#utility.yul\":17828:17893   */\n      tag_408\n        /* \"#utility.yul\":17886:17892   */\n      dup2\n        /* \"#utility.yul\":17881:17884   */\n      dup6\n        /* \"#utility.yul\":17874:17878   */\n      0x20\n        /* \"#utility.yul\":17867:17872   */\n      dup7\n        /* \"#utility.yul\":17863:17879   */\n      add\n        /* \"#utility.yul\":17828:17893   */\n      tag_208\n      jump\t// in\n    tag_408:\n        /* \"#utility.yul\":17918:17924   */\n      dup1\n        /* \"#utility.yul\":17913:17916   */\n      dup5\n        /* \"#utility.yul\":17909:17925   */\n      add\n        /* \"#utility.yul\":17902:17925   */\n      swap2\n      pop\n        /* \"#utility.yul\":17653:17931   */\n      pop\n        /* \"#utility.yul\":17545:17931   */\n      swap3\n      swap2\n      pop\n      pop\n      jump\t// out\n        /* \"#utility.yul\":17937:18208   */\n    tag_184:\n        /* \"#utility.yul\":18067:18070   */\n      0x00\n        /* \"#utility.yul\":18089:18182   */\n      tag_410\n        /* \"#utility.yul\":18178:18181   */\n      dup3\n        /* \"#utility.yul\":18169:18175   */\n      dup5\n        /* \"#utility.yul\":18089:18182   */\n      tag_251\n      jump\t// in\n    tag_410:\n        /* \"#utility.yul\":18082:18182   */\n      swap2\n      pop\n        /* \"#utility.yul\":18199:18202   */\n      dup2\n        /* \"#utility.yul\":18192:18202   */\n      swap1\n      pop\n        /* \"#utility.yul\":17937:18208   */\n      swap3\n      swap2\n      pop\n      pop\n      jump\t// out\n        /* \"#utility.yul\":18214:18393   */\n    tag_252:\n        /* \"#utility.yul\":18354:18385   */\n      0x416464726573733a2063616c6c20746f206e6f6e2d636f6e7472616374000000\n        /* \"#utility.yul\":18350:18351   */\n      0x00\n        /* \"#utility.yul\":18342:18348   */\n      dup3\n        /* \"#utility.yul\":18338:18352   */\n      add\n        /* \"#utility.yul\":18331:18386   */\n      mstore\n        /* \"#utility.yul\":18214:18393   */\n      pop\n      jump\t// out\n        /* \"#utility.yul\":18399:18765   */\n    tag_253:\n        /* \"#utility.yul\":18541:18544   */\n      0x00\n        /* \"#utility.yul\":18562:18629   */\n      tag_413\n        /* \"#utility.yul\":18626:18628   */\n      0x1d\n        /* \"#utility.yul\":18621:18624   */\n      dup4\n        /* \"#utility.yul\":18562:18629   */\n      tag_207\n      jump\t// in\n    tag_413:\n        /* \"#utility.yul\":18555:18629   */\n      swap2\n      pop\n        /* \"#utility.yul\":18638:18731   */\n      tag_414\n        /* \"#utility.yul\":18727:18730   */\n      dup3\n        /* \"#utility.yul\":18638:18731   */\n      tag_252\n      jump\t// in\n    tag_414:\n        /* \"#utility.yul\":18756:18758   */\n      0x20\n        /* \"#utility.yul\":18751:18754   */\n      dup3\n        /* \"#utility.yul\":18747:18759   */\n      add\n        /* \"#utility.yul\":18740:18759   */\n      swap1\n      pop\n        /* \"#utility.yul\":18399:18765   */\n      swap2\n      swap1\n      pop\n      jump\t// out\n        /* \"#utility.yul\":18771:19190   */\n    tag_197:\n        /* \"#utility.yul\":18937:18941   */\n      0x00\n        /* \"#utility.yul\":18975:18977   */\n      0x20\n        /* \"#utility.yul\":18964:18973   */\n      dup3\n        /* \"#utility.yul\":18960:18978   */\n      add\n        /* \"#utility.yul\":18952:18978   */\n      swap1\n      pop\n        /* \"#utility.yul\":19024:19033   */\n      dup2\n        /* \"#utility.yul\":19018:19022   */\n      dup2\n        /* \"#utility.yul\":19014:19034   */\n      sub\n        /* \"#utility.yul\":19010:19011   */\n      0x00\n        /* \"#utility.yul\":18999:19008   */\n      dup4\n        /* \"#utility.yul\":18995:19012   */\n      add\n        /* \"#utility.yul\":18988:19035   */\n      mstore\n        /* \"#utility.yul\":19052:19183   */\n      tag_416\n        /* \"#utility.yul\":19178:19182   */\n      dup2\n        /* \"#utility.yul\":19052:19183   */\n      tag_253\n      jump\t// in\n    tag_416:\n        /* \"#utility.yul\":19044:19183   */\n      swap1\n      pop\n        /* \"#utility.yul\":18771:19190   */\n      swap2\n      swap1\n      pop\n      jump\t// out\n\n    auxdata: 0xa2646970667358221220555afdcf3420db050a6897024837126bd606696964532ad9c926c2632fe63eca64736f6c63430008180033\n}\n",
				"bytecode": {
					"linkReferences": {},
					"object": "60c060405234801562000010575f80fd5b506040516200207f3803806200207f83398181016040528101906200003691906200028c565b6040518060400160405280601581526020017f5472656173757279204d616e61676572204241534500000000000000000000008152506040518060400160405280600381526020017f544d4200000000000000000000000000000000000000000000000000000000008152508160039081620000b3919062000520565b508060049081620000c5919062000520565b5050505f73ffffffffffffffffffffffffffffffffffffffff168173ffffffffffffffffffffffffffffffffffffffff16036200012e576040517fb83a5cf700000000000000000000000000000000000000000000000000000000815260040160405180910390fd5b8073ffffffffffffffffffffffffffffffffffffffff1660808173ffffffffffffffffffffffffffffffffffffffff168152505060805173ffffffffffffffffffffffffffffffffffffffff1663313ce5676040518163ffffffff1660e01b8152600401602060405180830381865afa158015620001ae573d5f803e3d5ffd5b505050506040513d601f19601f82011682018060405250810190620001d491906200063f565b60ff1660a08160ff16815250505f60a05160ff160362000220576040517f4aff5cd600000000000000000000000000000000000000000000000000000000815260040160405180910390fd5b506200066f565b5f80fd5b5f73ffffffffffffffffffffffffffffffffffffffff82169050919050565b5f62000256826200022b565b9050919050565b62000268816200024a565b811462000273575f80fd5b50565b5f8151905062000286816200025d565b92915050565b5f60208284031215620002a457620002a362000227565b5b5f620002b38482850162000276565b91505092915050565b5f81519050919050565b7f4e487b71000000000000000000000000000000000000000000000000000000005f52604160045260245ffd5b7f4e487b71000000000000000000000000000000000000000000000000000000005f52602260045260245ffd5b5f60028204905060018216806200033857607f821691505b6020821081036200034e576200034d620002f3565b5b50919050565b5f819050815f5260205f209050919050565b5f6020601f8301049050919050565b5f82821b905092915050565b5f60088302620003b27fffffffffffffffffffffffffffffffffffffffffffffffffffffffffffffffff8262000375565b620003be868362000375565b95508019841693508086168417925050509392505050565b5f819050919050565b5f819050919050565b5f6200040862000402620003fc84620003d6565b620003df565b620003d6565b9050919050565b5f819050919050565b6200042383620003e8565b6200043b62000432826200040f565b84845462000381565b825550505050565b5f90565b6200045162000443565b6200045e81848462000418565b505050565b5b818110156200048557620004795f8262000447565b60018101905062000464565b5050565b601f821115620004d4576200049e8162000354565b620004a98462000366565b81016020851015620004b9578190505b620004d1620004c88562000366565b83018262000463565b50505b505050565b5f82821c905092915050565b5f620004f65f1984600802620004d9565b1980831691505092915050565b5f620005108383620004e5565b9150826002028217905092915050565b6200052b82620002bc565b67ffffffffffffffff811115620005475762000546620002c6565b5b62000553825462000320565b6200056082828562000489565b5f60209050601f83116001811462000596575f841562000581578287015190505b6200058d858262000503565b865550620005fc565b601f198416620005a68662000354565b5f5b82811015620005cf57848901518255600182019150602085019450602081019050620005a8565b86831015620005ef5784890151620005eb601f891682620004e5565b8355505b6001600288020188555050505b505050505050565b5f60ff82169050919050565b6200061b8162000604565b811462000626575f80fd5b50565b5f81519050620006398162000610565b92915050565b5f6020828403121562000657576200065662000227565b5b5f620006668482850162000629565b91505092915050565b60805160a0516119e7620006985f395f6103ab01525f818161061701526106ac01526119e75ff3fe608060405234801561000f575f80fd5b50600436106100cd575f3560e01c806370a082311161008a578063a9059cbb11610064578063a9059cbb14610239578063adc9772e14610269578063be040fb014610285578063dd62ed3e1461028f576100cd565b806370a08231146101bb57806395d89b41146101eb578063a457c2d714610209576100cd565b806306fdde03146100d1578063095ea7b3146100ef57806318160ddd1461011f57806323b872dd1461013d578063313ce5671461016d578063395093511461018b575b5f80fd5b6100d96102bf565b6040516100e69190611063565b60405180910390f35b61010960048036038101906101049190611114565b61034f565b604051610116919061116c565b60405180910390f35b610127610371565b6040516101349190611194565b60405180910390f35b610157600480360381019061015291906111ad565b61037a565b604051610164919061116c565b60405180910390f35b6101756103a8565b6040516101829190611218565b60405180910390f35b6101a560048036038101906101a09190611114565b6103cf565b6040516101b2919061116c565b60405180910390f35b6101d560048036038101906101d09190611231565b610405565b6040516101e29190611194565b60405180910390f35b6101f361044a565b6040516102009190611063565b60405180910390f35b610223600480360381019061021e9190611114565b6104da565b604051610230919061116c565b60405180910390f35b610253600480360381019061024e9190611114565b61054f565b604051610260919061116c565b60405180910390f35b610283600480360381019061027e9190611114565b610571565b005b61028d610660565b005b6102a960048036038101906102a4919061125c565b6106f3565b6040516102b69190611194565b60405180910390f35b6060600380546102ce906112c7565b80601f01602080910402602001604051908101604052809291908181526020018280546102fa906112c7565b80156103455780601f1061031c57610100808354040283529160200191610345565b820191905f5260205f20905b81548152906001019060200180831161032857829003601f168201915b5050505050905090565b5f80610359610775565b905061036681858561077c565b600191505092915050565b5f600254905090565b5f80610384610775565b905061039185828561093f565b61039c8585856109ca565b60019150509392505050565b5f7f0000000000000000000000000000000000000000000000000000000000000000905090565b5f806103d9610775565b90506103fa8185856103eb85896106f3565b6103f59190611324565b61077c565b600191505092915050565b5f805f8373ffffffffffffffffffffffffffffffffffffffff1673ffffffffffffffffffffffffffffffffffffffff1681526020019081526020015f20549050919050565b606060048054610459906112c7565b80601f0160208091040260200160405190810160405280929190818152602001828054610485906112c7565b80156104d05780601f106104a7576101008083540402835291602001916104d0565b820191905f5260205f20905b8154815290600101906020018083116104b357829003601f168201915b5050505050905090565b5f806104e4610775565b90505f6104f182866106f3565b905083811015610536576040517f08c379a000000000000000000000000000000000000000000000000000000000815260040161052d906113c7565b60405180910390fd5b610543828686840361077c565b60019250505092915050565b5f80610559610775565b90506105668185856109ca565b600191505092915050565b5f73ffffffffffffffffffffffffffffffffffffffff168273ffffffffffffffffffffffffffffffffffffffff16036105d6576040517f5566df5c00000000000000000000000000000000000000000000000000000000815260040160405180910390fd5b5f810361060f576040517f2c5211c600000000000000000000000000000000000000000000000000000000815260040160405180910390fd5b61065c3330837f000000000000000000000000000000000000000000000000000000000000000073ffffffffffffffffffffffffffffffffffffffff16610c36909392919063ffffffff16565b5050565b5f61066a33610405565b90505f81036106a5576040517f9890af6000000000000000000000000000000000000000000000000000000000815260040160405180910390fd5b6106f033827f000000000000000000000000000000000000000000000000000000000000000073ffffffffffffffffffffffffffffffffffffffff16610cbf9092919063ffffffff16565b50565b5f60015f8473ffffffffffffffffffffffffffffffffffffffff1673ffffffffffffffffffffffffffffffffffffffff1681526020019081526020015f205f8373ffffffffffffffffffffffffffffffffffffffff1673ffffffffffffffffffffffffffffffffffffffff1681526020019081526020015f2054905092915050565b5f33905090565b5f73ffffffffffffffffffffffffffffffffffffffff168373ffffffffffffffffffffffffffffffffffffffff16036107ea576040517f08c379a00000000000000000000000000000000000000000000000000000000081526004016107e190611455565b60405180910390fd5b5f73ffffffffffffffffffffffffffffffffffffffff168273ffffffffffffffffffffffffffffffffffffffff1603610858576040517f08c379a000000000000000000000000000000000000000000000000000000000815260040161084f906114e3565b60405180910390fd5b8060015f8573ffffffffffffffffffffffffffffffffffffffff1673ffffffffffffffffffffffffffffffffffffffff1681526020019081526020015f205f8473ffffffffffffffffffffffffffffffffffffffff1673ffffffffffffffffffffffffffffffffffffffff1681526020019081526020015f20819055508173ffffffffffffffffffffffffffffffffffffffff168373ffffffffffffffffffffffffffffffffffffffff167f8c5be1e5ebec7d5bd14f71427d1e84f3dd0314c0f7b2291e5b200ac8c7c3b925836040516109329190611194565b60405180910390a3505050565b5f61094a84846106f3565b90507fffffffffffffffffffffffffffffffffffffffffffffffffffffffffffffffff81146109c457818110156109b6576040517f08c379a00000000000000000000000000000000000000000000000000000000081526004016109ad9061154b565b60405180910390fd5b6109c3848484840361077c565b5b50505050565b5f73ffffffffffffffffffffffffffffffffffffffff168373ffffffffffffffffffffffffffffffffffffffff1603610a38576040517f08c379a0000000000000000000000000000000000000000000000000000000008152600401610a2f906115d9565b60405180910390fd5b5f73ffffffffffffffffffffffffffffffffffffffff168273ffffffffffffffffffffffffffffffffffffffff1603610aa6576040517f08c379a0000000000000000000000000000000000000000000000000000000008152600401610a9d90611667565b60405180910390fd5b610ab1838383610d45565b5f805f8573ffffffffffffffffffffffffffffffffffffffff1673ffffffffffffffffffffffffffffffffffffffff1681526020019081526020015f2054905081811015610b34576040517f08c379a0000000000000000000000000000000000000000000000000000000008152600401610b2b906116f5565b60405180910390fd5b8181035f808673ffffffffffffffffffffffffffffffffffffffff1673ffffffffffffffffffffffffffffffffffffffff1681526020019081526020015f2081905550815f808573ffffffffffffffffffffffffffffffffffffffff1673ffffffffffffffffffffffffffffffffffffffff1681526020019081526020015f205f82825401925050819055508273ffffffffffffffffffffffffffffffffffffffff168473ffffffffffffffffffffffffffffffffffffffff167fddf252ad1be2c89b69c2b068fc378daa952ba7f163c4a11628f55a4df523b3ef84604051610c1d9190611194565b60405180910390a3610c30848484610d4a565b50505050565b610cb9846323b872dd60e01b858585604051602401610c5793929190611722565b604051602081830303815290604052907bffffffffffffffffffffffffffffffffffffffffffffffffffffffff19166020820180517bffffffffffffffffffffffffffffffffffffffffffffffffffffffff8381831617835250505050610d4f565b50505050565b610d408363a9059cbb60e01b8484604051602401610cde929190611757565b604051602081830303815290604052907bffffffffffffffffffffffffffffffffffffffffffffffffffffffff19166020820180517bffffffffffffffffffffffffffffffffffffffffffffffffffffffff8381831617835250505050610d4f565b505050565b505050565b505050565b5f610db0826040518060400160405280602081526020017f5361666545524332303a206c6f772d6c6576656c2063616c6c206661696c65648152508573ffffffffffffffffffffffffffffffffffffffff16610e149092919063ffffffff16565b90505f81511115610e0f5780806020019051810190610dcf91906117a8565b610e0e576040517f08c379a0000000000000000000000000000000000000000000000000000000008152600401610e0590611843565b60405180910390fd5b5b505050565b6060610e2284845f85610e2b565b90509392505050565b606082471015610e70576040517f08c379a0000000000000000000000000000000000000000000000000000000008152600401610e67906118d1565b60405180910390fd5b5f808673ffffffffffffffffffffffffffffffffffffffff168587604051610e989190611933565b5f6040518083038185875af1925050503d805f8114610ed2576040519150601f19603f3d011682016040523d82523d5f602084013e610ed7565b606091505b5091509150610ee887838387610ef4565b92505050949350505050565b60608315610f55575f835103610f4d57610f0d85610f68565b610f4c576040517f08c379a0000000000000000000000000000000000000000000000000000000008152600401610f4390611993565b60405180910390fd5b5b829050610f60565b610f5f8383610f8a565b5b949350505050565b5f808273ffffffffffffffffffffffffffffffffffffffff163b119050919050565b5f82511115610f9c5781518083602001fd5b806040517f08c379a0000000000000000000000000000000000000000000000000000000008152600401610fd09190611063565b60405180910390fd5b5f81519050919050565b5f82825260208201905092915050565b5f5b83811015611010578082015181840152602081019050610ff5565b5f8484015250505050565b5f601f19601f8301169050919050565b5f61103582610fd9565b61103f8185610fe3565b935061104f818560208601610ff3565b6110588161101b565b840191505092915050565b5f6020820190508181035f83015261107b818461102b565b905092915050565b5f80fd5b5f73ffffffffffffffffffffffffffffffffffffffff82169050919050565b5f6110b082611087565b9050919050565b6110c0816110a6565b81146110ca575f80fd5b50565b5f813590506110db816110b7565b92915050565b5f819050919050565b6110f3816110e1565b81146110fd575f80fd5b50565b5f8135905061110e816110ea565b92915050565b5f806040838503121561112a57611129611083565b5b5f611137858286016110cd565b925050602061114885828601611100565b9150509250929050565b5f8115159050919050565b61116681611152565b82525050565b5f60208201905061117f5f83018461115d565b92915050565b61118e816110e1565b82525050565b5f6020820190506111a75f830184611185565b92915050565b5f805f606084860312156111c4576111c3611083565b5b5f6111d1868287016110cd565b93505060206111e2868287016110cd565b92505060406111f386828701611100565b9150509250925092565b5f60ff82169050919050565b611212816111fd565b82525050565b5f60208201905061122b5f830184611209565b92915050565b5f6020828403121561124657611245611083565b5b5f611253848285016110cd565b91505092915050565b5f806040838503121561127257611271611083565b5b5f61127f858286016110cd565b9250506020611290858286016110cd565b9150509250929050565b7f4e487b71000000000000000000000000000000000000000000000000000000005f52602260045260245ffd5b5f60028204905060018216806112de57607f821691505b6020821081036112f1576112f061129a565b5b50919050565b7f4e487b71000000000000000000000000000000000000000000000000000000005f52601160045260245ffd5b5f61132e826110e1565b9150611339836110e1565b9250828201905080821115611351576113506112f7565b5b92915050565b7f45524332303a2064656372656173656420616c6c6f77616e63652062656c6f775f8201527f207a65726f000000000000000000000000000000000000000000000000000000602082015250565b5f6113b1602583610fe3565b91506113bc82611357565b604082019050919050565b5f6020820190508181035f8301526113de816113a5565b9050919050565b7f45524332303a20617070726f76652066726f6d20746865207a65726f206164645f8201527f7265737300000000000000000000000000000000000000000000000000000000602082015250565b5f61143f602483610fe3565b915061144a826113e5565b604082019050919050565b5f6020820190508181035f83015261146c81611433565b9050919050565b7f45524332303a20617070726f766520746f20746865207a65726f2061646472655f8201527f7373000000000000000000000000000000000000000000000000000000000000602082015250565b5f6114cd602283610fe3565b91506114d882611473565b604082019050919050565b5f6020820190508181035f8301526114fa816114c1565b9050919050565b7f45524332303a20696e73756666696369656e7420616c6c6f77616e63650000005f82015250565b5f611535601d83610fe3565b915061154082611501565b602082019050919050565b5f6020820190508181035f83015261156281611529565b9050919050565b7f45524332303a207472616e736665722066726f6d20746865207a65726f2061645f8201527f6472657373000000000000000000000000000000000000000000000000000000602082015250565b5f6115c3602583610fe3565b91506115ce82611569565b604082019050919050565b5f6020820190508181035f8301526115f0816115b7565b9050919050565b7f45524332303a207472616e7366657220746f20746865207a65726f20616464725f8201527f6573730000000000000000000000000000000000000000000000000000000000602082015250565b5f611651602383610fe3565b915061165c826115f7565b604082019050919050565b5f6020820190508181035f83015261167e81611645565b9050919050565b7f45524332303a207472616e7366657220616d6f756e74206578636565647320625f8201527f616c616e63650000000000000000000000000000000000000000000000000000602082015250565b5f6116df602683610fe3565b91506116ea82611685565b604082019050919050565b5f6020820190508181035f83015261170c816116d3565b9050919050565b61171c816110a6565b82525050565b5f6060820190506117355f830186611713565b6117426020830185611713565b61174f6040830184611185565b949350505050565b5f60408201905061176a5f830185611713565b6117776020830184611185565b9392505050565b61178781611152565b8114611791575f80fd5b50565b5f815190506117a28161177e565b92915050565b5f602082840312156117bd576117bc611083565b5b5f6117ca84828501611794565b91505092915050565b7f5361666545524332303a204552433230206f7065726174696f6e20646964206e5f8201527f6f74207375636365656400000000000000000000000000000000000000000000602082015250565b5f61182d602a83610fe3565b9150611838826117d3565b604082019050919050565b5f6020820190508181035f83015261185a81611821565b9050919050565b7f416464726573733a20696e73756666696369656e742062616c616e636520666f5f8201527f722063616c6c0000000000000000000000000000000000000000000000000000602082015250565b5f6118bb602683610fe3565b91506118c682611861565b604082019050919050565b5f6020820190508181035f8301526118e8816118af565b9050919050565b5f81519050919050565b5f81905092915050565b5f61190d826118ef565b61191781856118f9565b9350611927818560208601610ff3565b80840191505092915050565b5f61193e8284611903565b915081905092915050565b7f416464726573733a2063616c6c20746f206e6f6e2d636f6e74726163740000005f82015250565b5f61197d601d83610fe3565b915061198882611949565b602082019050919050565b5f6020820190508181035f8301526119aa81611971565b905091905056fea2646970667358221220555afdcf3420db050a6897024837126bd606696964532ad9c926c2632fe63eca64736f6c63430008180033",
					"opcodes": "PUSH1 0xC0 PUSH1 0x40 MSTORE CALLVALUE DUP1 ISZERO PUSH3 0x10 JUMPI PUSH0 DUP1 REVERT JUMPDEST POP PUSH1 0x40 MLOAD PUSH3 0x207F CODESIZE SUB DUP1 PUSH3 0x207F DUP4 CODECOPY DUP2 DUP2 ADD PUSH1 0x40 MSTORE DUP2 ADD SWAP1 PUSH3 0x36 SWAP2 SWAP1 PUSH3 0x28C JUMP JUMPDEST PUSH1 0x40 MLOAD DUP1 PUSH1 0x40 ADD PUSH1 0x40 MSTORE DUP1 PUSH1 0x15 DUP2 MSTORE PUSH1 0x20 ADD PUSH32 0x5472656173757279204D616E6167657220424153450000000000000000000000 DUP2 MSTORE POP PUSH1 0x40 MLOAD DUP1 PUSH1 0x40 ADD PUSH1 0x40 MSTORE DUP1 PUSH1 0x3 DUP2 MSTORE PUSH1 0x20 ADD PUSH32 0x544D420000000000000000000000000000000000000000000000000000000000 DUP2 MSTORE POP DUP2 PUSH1 0x3 SWAP1 DUP2 PUSH3 0xB3 SWAP2 SWAP1 PUSH3 0x520 JUMP JUMPDEST POP DUP1 PUSH1 0x4 SWAP1 DUP2 PUSH3 0xC5 SWAP2 SWAP1 PUSH3 0x520 JUMP JUMPDEST POP POP POP PUSH0 PUSH20 0xFFFFFFFFFFFFFFFFFFFFFFFFFFFFFFFFFFFFFFFF AND DUP2 PUSH20 0xFFFFFFFFFFFFFFFFFFFFFFFFFFFFFFFFFFFFFFFF AND SUB PUSH3 0x12E JUMPI PUSH1 0x40 MLOAD PUSH32 0xB83A5CF700000000000000000000000000000000000000000000000000000000 DUP2 MSTORE PUSH1 0x4 ADD PUSH1 0x40 MLOAD DUP1 SWAP2 SUB SWAP1 REVERT JUMPDEST DUP1 PUSH20 0xFFFFFFFFFFFFFFFFFFFFFFFFFFFFFFFFFFFFFFFF AND PUSH1 0x80 DUP2 PUSH20 0xFFFFFFFFFFFFFFFFFFFFFFFFFFFFFFFFFFFFFFFF AND DUP2 MSTORE POP POP PUSH1 0x80 MLOAD PUSH20 0xFFFFFFFFFFFFFFFFFFFFFFFFFFFFFFFFFFFFFFFF AND PUSH4 0x313CE567 PUSH1 0x40 MLOAD DUP2 PUSH4 0xFFFFFFFF AND PUSH1 0xE0 SHL DUP2 MSTORE PUSH1 0x4 ADD PUSH1 0x20 PUSH1 0x40 MLOAD DUP1 DUP4 SUB DUP2 DUP7 GAS STATICCALL ISZERO DUP1 ISZERO PUSH3 0x1AE JUMPI RETURNDATASIZE PUSH0 DUP1 RETURNDATACOPY RETURNDATASIZE PUSH0 REVERT JUMPDEST POP POP POP POP PUSH1 0x40 MLOAD RETURNDATASIZE PUSH1 0x1F NOT PUSH1 0x1F DUP3 ADD AND DUP3 ADD DUP1 PUSH1 0x40 MSTORE POP DUP2 ADD SWAP1 PUSH3 0x1D4 SWAP2 SWAP1 PUSH3 0x63F JUMP JUMPDEST PUSH1 0xFF AND PUSH1 0xA0 DUP2 PUSH1 0xFF AND DUP2 MSTORE POP POP PUSH0 PUSH1 0xA0 MLOAD PUSH1 0xFF AND SUB PUSH3 0x220 JUMPI PUSH1 0x40 MLOAD PUSH32 0x4AFF5CD600000000000000000000000000000000000000000000000000000000 DUP2 MSTORE PUSH1 0x4 ADD PUSH1 0x40 MLOAD DUP1 SWAP2 SUB SWAP1 REVERT JUMPDEST POP PUSH3 0x66F JUMP JUMPDEST PUSH0 DUP1 REVERT JUMPDEST PUSH0 PUSH20 0xFFFFFFFFFFFFFFFFFFFFFFFFFFFFFFFFFFFFFFFF DUP3 AND SWAP1 POP SWAP2 SWAP1 POP JUMP JUMPDEST PUSH0 PUSH3 0x256 DUP3 PUSH3 0x22B JUMP JUMPDEST SWAP1 POP SWAP2 SWAP1 POP JUMP JUMPDEST PUSH3 0x268 DUP2 PUSH3 0x24A JUMP JUMPDEST DUP2 EQ PUSH3 0x273 JUMPI PUSH0 DUP1 REVERT JUMPDEST POP JUMP JUMPDEST PUSH0 DUP2 MLOAD SWAP1 POP PUSH3 0x286 DUP2 PUSH3 0x25D JUMP JUMPDEST SWAP3 SWAP2 POP POP JUMP JUMPDEST PUSH0 PUSH1 0x20 DUP3 DUP5 SUB SLT ISZERO PUSH3 0x2A4 JUMPI PUSH3 0x2A3 PUSH3 0x227 JUMP JUMPDEST JUMPDEST PUSH0 PUSH3 0x2B3 DUP5 DUP3 DUP6 ADD PUSH3 0x276 JUMP JUMPDEST SWAP2 POP POP SWAP3 SWAP2 POP POP JUMP JUMPDEST PUSH0 DUP2 MLOAD SWAP1 POP SWAP2 SWAP1 POP JUMP JUMPDEST PUSH32 0x4E487B7100000000000000000000000000000000000000000000000000000000 PUSH0 MSTORE PUSH1 0x41 PUSH1 0x4 MSTORE PUSH1 0x24 PUSH0 REVERT JUMPDEST PUSH32 0x4E487B7100000000000000000000000000000000000000000000000000000000 PUSH0 MSTORE PUSH1 0x22 PUSH1 0x4 MSTORE PUSH1 0x24 PUSH0 REVERT JUMPDEST PUSH0 PUSH1 0x2 DUP3 DIV SWAP1 POP PUSH1 0x1 DUP3 AND DUP1 PUSH3 0x338 JUMPI PUSH1 0x7F DUP3 AND SWAP2 POP JUMPDEST PUSH1 0x20 DUP3 LT DUP2 SUB PUSH3 0x34E JUMPI PUSH3 0x34D PUSH3 0x2F3 JUMP JUMPDEST JUMPDEST POP SWAP2 SWAP1 POP JUMP JUMPDEST PUSH0 DUP2 SWAP1 POP DUP2 PUSH0 MSTORE PUSH1 0x20 PUSH0 KECCAK256 SWAP1 POP SWAP2 SWAP1 POP JUMP JUMPDEST PUSH0 PUSH1 0x20 PUSH1 0x1F DUP4 ADD DIV SWAP1 POP SWAP2 SWAP1 POP JUMP JUMPDEST PUSH0 DUP3 DUP3 SHL SWAP1 POP SWAP3 SWAP2 POP POP JUMP JUMPDEST PUSH0 PUSH1 0x8 DUP4 MUL PUSH3 0x3B2 PUSH32 0xFFFFFFFFFFFFFFFFFFFFFFFFFFFFFFFFFFFFFFFFFFFFFFFFFFFFFFFFFFFFFFFF DUP3 PUSH3 0x375 JUMP JUMPDEST PUSH3 0x3BE DUP7 DUP4 PUSH3 0x375 JUMP JUMPDEST SWAP6 POP DUP1 NOT DUP5 AND SWAP4 POP DUP1 DUP7 AND DUP5 OR SWAP3 POP POP POP SWAP4 SWAP3 POP POP POP JUMP JUMPDEST PUSH0 DUP2 SWAP1 POP SWAP2 SWAP1 POP JUMP JUMPDEST PUSH0 DUP2 SWAP1 POP SWAP2 SWAP1 POP JUMP JUMPDEST PUSH0 PUSH3 0x408 PUSH3 0x402 PUSH3 0x3FC DUP5 PUSH3 0x3D6 JUMP JUMPDEST PUSH3 0x3DF JUMP JUMPDEST PUSH3 0x3D6 JUMP JUMPDEST SWAP1 POP SWAP2 SWAP1 POP JUMP JUMPDEST PUSH0 DUP2 SWAP1 POP SWAP2 SWAP1 POP JUMP JUMPDEST PUSH3 0x423 DUP4 PUSH3 0x3E8 JUMP JUMPDEST PUSH3 0x43B PUSH3 0x432 DUP3 PUSH3 0x40F JUMP JUMPDEST DUP5 DUP5 SLOAD PUSH3 0x381 JUMP JUMPDEST DUP3 SSTORE POP POP POP POP JUMP JUMPDEST PUSH0 SWAP1 JUMP JUMPDEST PUSH3 0x451 PUSH3 0x443 JUMP JUMPDEST PUSH3 0x45E DUP2 DUP5 DUP5 PUSH3 0x418 JUMP JUMPDEST POP POP POP JUMP JUMPDEST JUMPDEST DUP2 DUP2 LT ISZERO PUSH3 0x485 JUMPI PUSH3 0x479 PUSH0 DUP3 PUSH3 0x447 JUMP JUMPDEST PUSH1 0x1 DUP2 ADD SWAP1 POP PUSH3 0x464 JUMP JUMPDEST POP POP JUMP JUMPDEST PUSH1 0x1F DUP3 GT ISZERO PUSH3 0x4D4 JUMPI PUSH3 0x49E DUP2 PUSH3 0x354 JUMP JUMPDEST PUSH3 0x4A9 DUP5 PUSH3 0x366 JUMP JUMPDEST DUP2 ADD PUSH1 0x20 DUP6 LT ISZERO PUSH3 0x4B9 JUMPI DUP2 SWAP1 POP JUMPDEST PUSH3 0x4D1 PUSH3 0x4C8 DUP6 PUSH3 0x366 JUMP JUMPDEST DUP4 ADD DUP3 PUSH3 0x463 JUMP JUMPDEST POP POP JUMPDEST POP POP POP JUMP JUMPDEST PUSH0 DUP3 DUP3 SHR SWAP1 POP SWAP3 SWAP2 POP POP JUMP JUMPDEST PUSH0 PUSH3 0x4F6 PUSH0 NOT DUP5 PUSH1 0x8 MUL PUSH3 0x4D9 JUMP JUMPDEST NOT DUP1 DUP4 AND SWAP2 POP POP SWAP3 SWAP2 POP POP JUMP JUMPDEST PUSH0 PUSH3 0x510 DUP4 DUP4 PUSH3 0x4E5 JUMP JUMPDEST SWAP2 POP DUP3 PUSH1 0x2 MUL DUP3 OR SWAP1 POP SWAP3 SWAP2 POP POP JUMP JUMPDEST PUSH3 0x52B DUP3 PUSH3 0x2BC JUMP JUMPDEST PUSH8 0xFFFFFFFFFFFFFFFF DUP2 GT ISZERO PUSH3 0x547 JUMPI PUSH3 0x546 PUSH3 0x2C6 JUMP JUMPDEST JUMPDEST PUSH3 0x553 DUP3 SLOAD PUSH3 0x320 JUMP JUMPDEST PUSH3 0x560 DUP3 DUP3 DUP6 PUSH3 0x489 JUMP JUMPDEST PUSH0 PUSH1 0x20 SWAP1 POP PUSH1 0x1F DUP4 GT PUSH1 0x1 DUP2 EQ PUSH3 0x596 JUMPI PUSH0 DUP5 ISZERO PUSH3 0x581 JUMPI DUP3 DUP8 ADD MLOAD SWAP1 POP JUMPDEST PUSH3 0x58D DUP6 DUP3 PUSH3 0x503 JUMP JUMPDEST DUP7 SSTORE POP PUSH3 0x5FC JUMP JUMPDEST PUSH1 0x1F NOT DUP5 AND PUSH3 0x5A6 DUP7 PUSH3 0x354 JUMP JUMPDEST PUSH0 JUMPDEST DUP3 DUP2 LT ISZERO PUSH3 0x5CF JUMPI DUP5 DUP10 ADD MLOAD DUP3 SSTORE PUSH1 0x1 DUP3 ADD SWAP2 POP PUSH1 0x20 DUP6 ADD SWAP5 POP PUSH1 0x20 DUP2 ADD SWAP1 POP PUSH3 0x5A8 JUMP JUMPDEST DUP7 DUP4 LT ISZERO PUSH3 0x5EF JUMPI DUP5 DUP10 ADD MLOAD PUSH3 0x5EB PUSH1 0x1F DUP10 AND DUP3 PUSH3 0x4E5 JUMP JUMPDEST DUP4 SSTORE POP JUMPDEST PUSH1 0x1 PUSH1 0x2 DUP9 MUL ADD DUP9 SSTORE POP POP POP JUMPDEST POP POP POP POP POP POP JUMP JUMPDEST PUSH0 PUSH1 0xFF DUP3 AND SWAP1 POP SWAP2 SWAP1 POP JUMP JUMPDEST PUSH3 0x61B DUP2 PUSH3 0x604 JUMP JUMPDEST DUP2 EQ PUSH3 0x626 JUMPI PUSH0 DUP1 REVERT JUMPDEST POP JUMP JUMPDEST PUSH0 DUP2 MLOAD SWAP1 POP PUSH3 0x639 DUP2 PUSH3 0x610 JUMP JUMPDEST SWAP3 SWAP2 POP POP JUMP JUMPDEST PUSH0 PUSH1 0x20 DUP3 DUP5 SUB SLT ISZERO PUSH3 0x657 JUMPI PUSH3 0x656 PUSH3 0x227 JUMP JUMPDEST JUMPDEST PUSH0 PUSH3 0x666 DUP5 DUP3 DUP6 ADD PUSH3 0x629 JUMP JUMPDEST SWAP2 POP POP SWAP3 SWAP2 POP POP JUMP JUMPDEST PUSH1 0x80 MLOAD PUSH1 0xA0 MLOAD PUSH2 0x19E7 PUSH3 0x698 PUSH0 CODECOPY PUSH0 PUSH2 0x3AB ADD MSTORE PUSH0 DUP2 DUP2 PUSH2 0x617 ADD MSTORE PUSH2 0x6AC ADD MSTORE PUSH2 0x19E7 PUSH0 RETURN INVALID PUSH1 0x80 PUSH1 0x40 MSTORE CALLVALUE DUP1 ISZERO PUSH2 0xF JUMPI PUSH0 DUP1 REVERT JUMPDEST POP PUSH1 0x4 CALLDATASIZE LT PUSH2 0xCD JUMPI PUSH0 CALLDATALOAD PUSH1 0xE0 SHR DUP1 PUSH4 0x70A08231 GT PUSH2 0x8A JUMPI DUP1 PUSH4 0xA9059CBB GT PUSH2 0x64 JUMPI DUP1 PUSH4 0xA9059CBB EQ PUSH2 0x239 JUMPI DUP1 PUSH4 0xADC9772E EQ PUSH2 0x269 JUMPI DUP1 PUSH4 0xBE040FB0 EQ PUSH2 0x285 JUMPI DUP1 PUSH4 0xDD62ED3E EQ PUSH2 0x28F JUMPI PUSH2 0xCD JUMP JUMPDEST DUP1 PUSH4 0x70A08231 EQ PUSH2 0x1BB JUMPI DUP1 PUSH4 0x95D89B41 EQ PUSH2 0x1EB JUMPI DUP1 PUSH4 0xA457C2D7 EQ PUSH2 0x209 JUMPI PUSH2 0xCD JUMP JUMPDEST DUP1 PUSH4 0x6FDDE03 EQ PUSH2 0xD1 JUMPI DUP1 PUSH4 0x95EA7B3 EQ PUSH2 0xEF JUMPI DUP1 PUSH4 0x18160DDD EQ PUSH2 0x11F JUMPI DUP1 PUSH4 0x23B872DD EQ PUSH2 0x13D JUMPI DUP1 PUSH4 0x313CE567 EQ PUSH2 0x16D JUMPI DUP1 PUSH4 0x39509351 EQ PUSH2 0x18B JUMPI JUMPDEST PUSH0 DUP1 REVERT JUMPDEST PUSH2 0xD9 PUSH2 0x2BF JUMP JUMPDEST PUSH1 0x40 MLOAD PUSH2 0xE6 SWAP2 SWAP1 PUSH2 0x1063 JUMP JUMPDEST PUSH1 0x40 MLOAD DUP1 SWAP2 SUB SWAP1 RETURN JUMPDEST PUSH2 0x109 PUSH1 0x4 DUP1 CALLDATASIZE SUB DUP2 ADD SWAP1 PUSH2 0x104 SWAP2 SWAP1 PUSH2 0x1114 JUMP JUMPDEST PUSH2 0x34F JUMP JUMPDEST PUSH1 0x40 MLOAD PUSH2 0x116 SWAP2 SWAP1 PUSH2 0x116C JUMP JUMPDEST PUSH1 0x40 MLOAD DUP1 SWAP2 SUB SWAP1 RETURN JUMPDEST PUSH2 0x127 PUSH2 0x371 JUMP JUMPDEST PUSH1 0x40 MLOAD PUSH2 0x134 SWAP2 SWAP1 PUSH2 0x1194 JUMP JUMPDEST PUSH1 0x40 MLOAD DUP1 SWAP2 SUB SWAP1 RETURN JUMPDEST PUSH2 0x157 PUSH1 0x4 DUP1 CALLDATASIZE SUB DUP2 ADD SWAP1 PUSH2 0x152 SWAP2 SWAP1 PUSH2 0x11AD JUMP JUMPDEST PUSH2 0x37A JUMP JUMPDEST PUSH1 0x40 MLOAD PUSH2 0x164 SWAP2 SWAP1 PUSH2 0x116C JUMP JUMPDEST PUSH1 0x40 MLOAD DUP1 SWAP2 SUB SWAP1 RETURN JUMPDEST PUSH2 0x175 PUSH2 0x3A8 JUMP JUMPDEST PUSH1 0x40 MLOAD PUSH2 0x182 SWAP2 SWAP1 PUSH2 0x1218 JUMP JUMPDEST PUSH1 0x40 MLOAD DUP1 SWAP2 SUB SWAP1 RETURN JUMPDEST PUSH2 0x1A5 PUSH1 0x4 DUP1 CALLDATASIZE SUB DUP2 ADD SWAP1 PUSH2 0x1A0 SWAP2 SWAP1 PUSH2 0x1114 JUMP JUMPDEST PUSH2 0x3CF JUMP JUMPDEST PUSH1 0x40 MLOAD PUSH2 0x1B2 SWAP2 SWAP1 PUSH2 0x116C JUMP JUMPDEST PUSH1 0x40 MLOAD DUP1 SWAP2 SUB SWAP1 RETURN JUMPDEST PUSH2 0x1D5 PUSH1 0x4 DUP1 CALLDATASIZE SUB DUP2 ADD SWAP1 PUSH2 0x1D0 SWAP2 SWAP1 PUSH2 0x1231 JUMP JUMPDEST PUSH2 0x405 JUMP JUMPDEST PUSH1 0x40 MLOAD PUSH2 0x1E2 SWAP2 SWAP1 PUSH2 0x1194 JUMP JUMPDEST PUSH1 0x40 MLOAD DUP1 SWAP2 SUB SWAP1 RETURN JUMPDEST PUSH2 0x1F3 PUSH2 0x44A JUMP JUMPDEST PUSH1 0x40 MLOAD PUSH2 0x200 SWAP2 SWAP1 PUSH2 0x1063 JUMP JUMPDEST PUSH1 0x40 MLOAD DUP1 SWAP2 SUB SWAP1 RETURN JUMPDEST PUSH2 0x223 PUSH1 0x4 DUP1 CALLDATASIZE SUB DUP2 ADD SWAP1 PUSH2 0x21E SWAP2 SWAP1 PUSH2 0x1114 JUMP JUMPDEST PUSH2 0x4DA JUMP JUMPDEST PUSH1 0x40 MLOAD PUSH2 0x230 SWAP2 SWAP1 PUSH2 0x116C JUMP JUMPDEST PUSH1 0x40 MLOAD DUP1 SWAP2 SUB SWAP1 RETURN JUMPDEST PUSH2 0x253 PUSH1 0x4 DUP1 CALLDATASIZE SUB DUP2 ADD SWAP1 PUSH2 0x24E SWAP2 SWAP1 PUSH2 0x1114 JUMP JUMPDEST PUSH2 0x54F JUMP JUMPDEST PUSH1 0x40 MLOAD PUSH2 0x260 SWAP2 SWAP1 PUSH2 0x116C JUMP JUMPDEST PUSH1 0x40 MLOAD DUP1 SWAP2 SUB SWAP1 RETURN JUMPDEST PUSH2 0x283 PUSH1 0x4 DUP1 CALLDATASIZE SUB DUP2 ADD SWAP1 PUSH2 0x27E SWAP2 SWAP1 PUSH2 0x1114 JUMP JUMPDEST PUSH2 0x571 JUMP JUMPDEST STOP JUMPDEST PUSH2 0x28D PUSH2 0x660 JUMP JUMPDEST STOP JUMPDEST PUSH2 0x2A9 PUSH1 0x4 DUP1 CALLDATASIZE SUB DUP2 ADD SWAP1 PUSH2 0x2A4 SWAP2 SWAP1 PUSH2 0x125C JUMP JUMPDEST PUSH2 0x6F3 JUMP JUMPDEST PUSH1 0x40 MLOAD PUSH2 0x2B6 SWAP2 SWAP1 PUSH2 0x1194 JUMP JUMPDEST PUSH1 0x40 MLOAD DUP1 SWAP2 SUB SWAP1 RETURN JUMPDEST PUSH1 0x60 PUSH1 0x3 DUP1 SLOAD PUSH2 0x2CE SWAP1 PUSH2 0x12C7 JUMP JUMPDEST DUP1 PUSH1 0x1F ADD PUSH1 0x20 DUP1 SWAP2 DIV MUL PUSH1 0x20 ADD PUSH1 0x40 MLOAD SWAP1 DUP2 ADD PUSH1 0x40 MSTORE DUP1 SWAP3 SWAP2 SWAP1 DUP2 DUP2 MSTORE PUSH1 0x20 ADD DUP3 DUP1 SLOAD PUSH2 0x2FA SWAP1 PUSH2 0x12C7 JUMP JUMPDEST DUP1 ISZERO PUSH2 0x345 JUMPI DUP1 PUSH1 0x1F LT PUSH2 0x31C JUMPI PUSH2 0x100 DUP1 DUP4 SLOAD DIV MUL DUP4 MSTORE SWAP2 PUSH1 0x20 ADD SWAP2 PUSH2 0x345 JUMP JUMPDEST DUP3 ADD SWAP2 SWAP1 PUSH0 MSTORE PUSH1 0x20 PUSH0 KECCAK256 SWAP1 JUMPDEST DUP2 SLOAD DUP2 MSTORE SWAP1 PUSH1 0x1 ADD SWAP1 PUSH1 0x20 ADD DUP1 DUP4 GT PUSH2 0x328 JUMPI DUP3 SWAP1 SUB PUSH1 0x1F AND DUP3 ADD SWAP2 JUMPDEST POP POP POP POP POP SWAP1 POP SWAP1 JUMP JUMPDEST PUSH0 DUP1 PUSH2 0x359 PUSH2 0x775 JUMP JUMPDEST SWAP1 POP PUSH2 0x366 DUP2 DUP6 DUP6 PUSH2 0x77C JUMP JUMPDEST PUSH1 0x1 SWAP2 POP POP SWAP3 SWAP2 POP POP JUMP JUMPDEST PUSH0 PUSH1 0x2 SLOAD SWAP1 POP SWAP1 JUMP JUMPDEST PUSH0 DUP1 PUSH2 0x384 PUSH2 0x775 JUMP JUMPDEST SWAP1 POP PUSH2 0x391 DUP6 DUP3 DUP6 PUSH2 0x93F JUMP JUMPDEST PUSH2 0x39C DUP6 DUP6 DUP6 PUSH2 0x9CA JUMP JUMPDEST PUSH1 0x1 SWAP2 POP POP SWAP4 SWAP3 POP POP POP JUMP JUMPDEST PUSH0 PUSH32 0x0 SWAP1 POP SWAP1 JUMP JUMPDEST PUSH0 DUP1 PUSH2 0x3D9 PUSH2 0x775 JUMP JUMPDEST SWAP1 POP PUSH2 0x3FA DUP2 DUP6 DUP6 PUSH2 0x3EB DUP6 DUP10 PUSH2 0x6F3 JUMP JUMPDEST PUSH2 0x3F5 SWAP2 SWAP1 PUSH2 0x1324 JUMP JUMPDEST PUSH2 0x77C JUMP JUMPDEST PUSH1 0x1 SWAP2 POP POP SWAP3 SWAP2 POP POP JUMP JUMPDEST PUSH0 DUP1 PUSH0 DUP4 PUSH20 0xFFFFFFFFFFFFFFFFFFFFFFFFFFFFFFFFFFFFFFFF AND PUSH20 0xFFFFFFFFFFFFFFFFFFFFFFFFFFFFFFFFFFFFFFFF AND DUP2 MSTORE PUSH1 0x20 ADD SWAP1 DUP2 MSTORE PUSH1 0x20 ADD PUSH0 KECCAK256 SLOAD SWAP1 POP SWAP2 SWAP1 POP JUMP JUMPDEST PUSH1 0x60 PUSH1 0x4 DUP1 SLOAD PUSH2 0x459 SWAP1 PUSH2 0x12C7 JUMP JUMPDEST DUP1 PUSH1 0x1F ADD PUSH1 0x20 DUP1 SWAP2 DIV MUL PUSH1 0x20 ADD PUSH1 0x40 MLOAD SWAP1 DUP2 ADD PUSH1 0x40 MSTORE DUP1 SWAP3 SWAP2 SWAP1 DUP2 DUP2 MSTORE PUSH1 0x20 ADD DUP3 DUP1 SLOAD PUSH2 0x485 SWAP1 PUSH2 0x12C7 JUMP JUMPDEST DUP1 ISZERO PUSH2 0x4D0 JUMPI DUP1 PUSH1 0x1F LT PUSH2 0x4A7 JUMPI PUSH2 0x100 DUP1 DUP4 SLOAD DIV MUL DUP4 MSTORE SWAP2 PUSH1 0x20 ADD SWAP2 PUSH2 0x4D0 JUMP JUMPDEST DUP3 ADD SWAP2 SWAP1 PUSH0 MSTORE PUSH1 0x20 PUSH0 KECCAK256 SWAP1 JUMPDEST DUP2 SLOAD DUP2 MSTORE SWAP1 PUSH1 0x1 ADD SWAP1 PUSH1 0x20 ADD DUP1 DUP4 GT PUSH2 0x4B3 JUMPI DUP3 SWAP1 SUB PUSH1 0x1F AND DUP3 ADD SWAP2 JUMPDEST POP POP POP POP POP SWAP1 POP SWAP1 JUMP JUMPDEST PUSH0 DUP1 PUSH2 0x4E4 PUSH2 0x775 JUMP JUMPDEST SWAP1 POP PUSH0 PUSH2 0x4F1 DUP3 DUP7 PUSH2 0x6F3 JUMP JUMPDEST SWAP1 POP DUP4 DUP2 LT ISZERO PUSH2 0x536 JUMPI PUSH1 0x40 MLOAD PUSH32 0x8C379A000000000000000000000000000000000000000000000000000000000 DUP2 MSTORE PUSH1 0x4 ADD PUSH2 0x52D SWAP1 PUSH2 0x13C7 JUMP JUMPDEST PUSH1 0x40 MLOAD DUP1 SWAP2 SUB SWAP1 REVERT JUMPDEST PUSH2 0x543 DUP3 DUP7 DUP7 DUP5 SUB PUSH2 0x77C JUMP JUMPDEST PUSH1 0x1 SWAP3 POP POP POP SWAP3 SWAP2 POP POP JUMP JUMPDEST PUSH0 DUP1 PUSH2 0x559 PUSH2 0x775 JUMP JUMPDEST SWAP1 POP PUSH2 0x566 DUP2 DUP6 DUP6 PUSH2 0x9CA JUMP JUMPDEST PUSH1 0x1 SWAP2 POP POP SWAP3 SWAP2 POP POP JUMP JUMPDEST PUSH0 PUSH20 0xFFFFFFFFFFFFFFFFFFFFFFFFFFFFFFFFFFFFFFFF AND DUP3 PUSH20 0xFFFFFFFFFFFFFFFFFFFFFFFFFFFFFFFFFFFFFFFF AND SUB PUSH2 0x5D6 JUMPI PUSH1 0x40 MLOAD PUSH32 0x5566DF5C00000000000000000000000000000000000000000000000000000000 DUP2 MSTORE PUSH1 0x4 ADD PUSH1 0x40 MLOAD DUP1 SWAP2 SUB SWAP1 REVERT JUMPDEST PUSH0 DUP2 SUB PUSH2 0x60F JUMPI PUSH1 0x40 MLOAD PUSH32 0x2C5211C600000000000000000000000000000000000000000000000000000000 DUP2 MSTORE PUSH1 0x4 ADD PUSH1 0x40 MLOAD DUP1 SWAP2 SUB SWAP1 REVERT JUMPDEST PUSH2 0x65C CALLER ADDRESS DUP4 PUSH32 0x0 PUSH20 0xFFFFFFFFFFFFFFFFFFFFFFFFFFFFFFFFFFFFFFFF AND PUSH2 0xC36 SWAP1 SWAP4 SWAP3 SWAP2 SWAP1 PUSH4 0xFFFFFFFF AND JUMP JUMPDEST POP POP JUMP JUMPDEST PUSH0 PUSH2 0x66A CALLER PUSH2 0x405 JUMP JUMPDEST SWAP1 POP PUSH0 DUP2 SUB PUSH2 0x6A5 JUMPI PUSH1 0x40 MLOAD PUSH32 0x9890AF6000000000000000000000000000000000000000000000000000000000 DUP2 MSTORE PUSH1 0x4 ADD PUSH1 0x40 MLOAD DUP1 SWAP2 SUB SWAP1 REVERT JUMPDEST PUSH2 0x6F0 CALLER DUP3 PUSH32 0x0 PUSH20 0xFFFFFFFFFFFFFFFFFFFFFFFFFFFFFFFFFFFFFFFF AND PUSH2 0xCBF SWAP1 SWAP3 SWAP2 SWAP1 PUSH4 0xFFFFFFFF AND JUMP JUMPDEST POP JUMP JUMPDEST PUSH0 PUSH1 0x1 PUSH0 DUP5 PUSH20 0xFFFFFFFFFFFFFFFFFFFFFFFFFFFFFFFFFFFFFFFF AND PUSH20 0xFFFFFFFFFFFFFFFFFFFFFFFFFFFFFFFFFFFFFFFF AND DUP2 MSTORE PUSH1 0x20 ADD SWAP1 DUP2 MSTORE PUSH1 0x20 ADD PUSH0 KECCAK256 PUSH0 DUP4 PUSH20 0xFFFFFFFFFFFFFFFFFFFFFFFFFFFFFFFFFFFFFFFF AND PUSH20 0xFFFFFFFFFFFFFFFFFFFFFFFFFFFFFFFFFFFFFFFF AND DUP2 MSTORE PUSH1 0x20 ADD SWAP1 DUP2 MSTORE PUSH1 0x20 ADD PUSH0 KECCAK256 SLOAD SWAP1 POP SWAP3 SWAP2 POP POP JUMP JUMPDEST PUSH0 CALLER SWAP1 POP SWAP1 JUMP JUMPDEST PUSH0 PUSH20 0xFFFFFFFFFFFFFFFFFFFFFFFFFFFFFFFFFFFFFFFF AND DUP4 PUSH20 0xFFFFFFFFFFFFFFFFFFFFFFFFFFFFFFFFFFFFFFFF AND SUB PUSH2 0x7EA JUMPI PUSH1 0x40 MLOAD PUSH32 0x8C379A000000000000000000000000000000000000000000000000000000000 DUP2 MSTORE PUSH1 0x4 ADD PUSH2 0x7E1 SWAP1 PUSH2 0x1455 JUMP JUMPDEST PUSH1 0x40 MLOAD DUP1 SWAP2 SUB SWAP1 REVERT JUMPDEST PUSH0 PUSH20 0xFFFFFFFFFFFFFFFFFFFFFFFFFFFFFFFFFFFFFFFF AND DUP3 PUSH20 0xFFFFFFFFFFFFFFFFFFFFFFFFFFFFFFFFFFFFFFFF AND SUB PUSH2 0x858 JUMPI PUSH1 0x40 MLOAD PUSH32 0x8C379A000000000000000000000000000000000000000000000000000000000 DUP2 MSTORE PUSH1 0x4 ADD PUSH2 0x84F SWAP1 PUSH2 0x14E3 JUMP JUMPDEST PUSH1 0x40 MLOAD DUP1 SWAP2 SUB SWAP1 REVERT JUMPDEST DUP1 PUSH1 0x1 PUSH0 DUP6 PUSH20 0xFFFFFFFFFFFFFFFFFFFFFFFFFFFFFFFFFFFFFFFF AND PUSH20 0xFFFFFFFFFFFFFFFFFFFFFFFFFFFFFFFFFFFFFFFF AND DUP2 MSTORE PUSH1 0x20 ADD SWAP1 DUP2 MSTORE PUSH1 0x20 ADD PUSH0 KECCAK256 PUSH0 DUP5 PUSH20 0xFFFFFFFFFFFFFFFFFFFFFFFFFFFFFFFFFFFFFFFF AND PUSH20 0xFFFFFFFFFFFFFFFFFFFFFFFFFFFFFFFFFFFFFFFF AND DUP2 MSTORE PUSH1 0x20 ADD SWAP1 DUP2 MSTORE PUSH1 0x20 ADD PUSH0 KECCAK256 DUP2 SWAP1 SSTORE POP DUP2 PUSH20 0xFFFFFFFFFFFFFFFFFFFFFFFFFFFFFFFFFFFFFFFF AND DUP4 PUSH20 0xFFFFFFFFFFFFFFFFFFFFFFFFFFFFFFFFFFFFFFFF AND PUSH32 0x8C5BE1E5EBEC7D5BD14F71427D1E84F3DD0314C0F7B2291E5B200AC8C7C3B925 DUP4 PUSH1 0x40 MLOAD PUSH2 0x932 SWAP2 SWAP1 PUSH2 0x1194 JUMP JUMPDEST PUSH1 0x40 MLOAD DUP1 SWAP2 SUB SWAP1 LOG3 POP POP POP JUMP JUMPDEST PUSH0 PUSH2 0x94A DUP5 DUP5 PUSH2 0x6F3 JUMP JUMPDEST SWAP1 POP PUSH32 0xFFFFFFFFFFFFFFFFFFFFFFFFFFFFFFFFFFFFFFFFFFFFFFFFFFFFFFFFFFFFFFFF DUP2 EQ PUSH2 0x9C4 JUMPI DUP2 DUP2 LT ISZERO PUSH2 0x9B6 JUMPI PUSH1 0x40 MLOAD PUSH32 0x8C379A000000000000000000000000000000000000000000000000000000000 DUP2 MSTORE PUSH1 0x4 ADD PUSH2 0x9AD SWAP1 PUSH2 0x154B JUMP JUMPDEST PUSH1 0x40 MLOAD DUP1 SWAP2 SUB SWAP1 REVERT JUMPDEST PUSH2 0x9C3 DUP5 DUP5 DUP5 DUP5 SUB PUSH2 0x77C JUMP JUMPDEST JUMPDEST POP POP POP POP JUMP JUMPDEST PUSH0 PUSH20 0xFFFFFFFFFFFFFFFFFFFFFFFFFFFFFFFFFFFFFFFF AND DUP4 PUSH20 0xFFFFFFFFFFFFFFFFFFFFFFFFFFFFFFFFFFFFFFFF AND SUB PUSH2 0xA38 JUMPI PUSH1 0x40 MLOAD PUSH32 0x8C379A000000000000000000000000000000000000000000000000000000000 DUP2 MSTORE PUSH1 0x4 ADD PUSH2 0xA2F SWAP1 PUSH2 0x15D9 JUMP JUMPDEST PUSH1 0x40 MLOAD DUP1 SWAP2 SUB SWAP1 REVERT JUMPDEST PUSH0 PUSH20 0xFFFFFFFFFFFFFFFFFFFFFFFFFFFFFFFFFFFFFFFF AND DUP3 PUSH20 0xFFFFFFFFFFFFFFFFFFFFFFFFFFFFFFFFFFFFFFFF AND SUB PUSH2 0xAA6 JUMPI PUSH1 0x40 MLOAD PUSH32 0x8C379A000000000000000000000000000000000000000000000000000000000 DUP2 MSTORE PUSH1 0x4 ADD PUSH2 0xA9D SWAP1 PUSH2 0x1667 JUMP JUMPDEST PUSH1 0x40 MLOAD DUP1 SWAP2 SUB SWAP1 REVERT JUMPDEST PUSH2 0xAB1 DUP4 DUP4 DUP4 PUSH2 0xD45 JUMP JUMPDEST PUSH0 DUP1 PUSH0 DUP6 PUSH20 0xFFFFFFFFFFFFFFFFFFFFFFFFFFFFFFFFFFFFFFFF AND PUSH20 0xFFFFFFFFFFFFFFFFFFFFFFFFFFFFFFFFFFFFFFFF AND DUP2 MSTORE PUSH1 0x20 ADD SWAP1 DUP2 MSTORE PUSH1 0x20 ADD PUSH0 KECCAK256 SLOAD SWAP1 POP DUP2 DUP2 LT ISZERO PUSH2 0xB34 JUMPI PUSH1 0x40 MLOAD PUSH32 0x8C379A000000000000000000000000000000000000000000000000000000000 DUP2 MSTORE PUSH1 0x4 ADD PUSH2 0xB2B SWAP1 PUSH2 0x16F5 JUMP JUMPDEST PUSH1 0x40 MLOAD DUP1 SWAP2 SUB SWAP1 REVERT JUMPDEST DUP2 DUP2 SUB PUSH0 DUP1 DUP7 PUSH20 0xFFFFFFFFFFFFFFFFFFFFFFFFFFFFFFFFFFFFFFFF AND PUSH20 0xFFFFFFFFFFFFFFFFFFFFFFFFFFFFFFFFFFFFFFFF AND DUP2 MSTORE PUSH1 0x20 ADD SWAP1 DUP2 MSTORE PUSH1 0x20 ADD PUSH0 KECCAK256 DUP2 SWAP1 SSTORE POP DUP2 PUSH0 DUP1 DUP6 PUSH20 0xFFFFFFFFFFFFFFFFFFFFFFFFFFFFFFFFFFFFFFFF AND PUSH20 0xFFFFFFFFFFFFFFFFFFFFFFFFFFFFFFFFFFFFFFFF AND DUP2 MSTORE PUSH1 0x20 ADD SWAP1 DUP2 MSTORE PUSH1 0x20 ADD PUSH0 KECCAK256 PUSH0 DUP3 DUP3 SLOAD ADD SWAP3 POP POP DUP2 SWAP1 SSTORE POP DUP3 PUSH20 0xFFFFFFFFFFFFFFFFFFFFFFFFFFFFFFFFFFFFFFFF AND DUP5 PUSH20 0xFFFFFFFFFFFFFFFFFFFFFFFFFFFFFFFFFFFFFFFF AND PUSH32 0xDDF252AD1BE2C89B69C2B068FC378DAA952BA7F163C4A11628F55A4DF523B3EF DUP5 PUSH1 0x40 MLOAD PUSH2 0xC1D SWAP2 SWAP1 PUSH2 0x1194 JUMP JUMPDEST PUSH1 0x40 MLOAD DUP1 SWAP2 SUB SWAP1 LOG3 PUSH2 0xC30 DUP5 DUP5 DUP5 PUSH2 0xD4A JUMP JUMPDEST POP POP POP POP JUMP JUMPDEST PUSH2 0xCB9 DUP5 PUSH4 0x23B872DD PUSH1 0xE0 SHL DUP6 DUP6 DUP6 PUSH1 0x40 MLOAD PUSH1 0x24 ADD PUSH2 0xC57 SWAP4 SWAP3 SWAP2 SWAP1 PUSH2 0x1722 JUMP JUMPDEST PUSH1 0x40 MLOAD PUSH1 0x20 DUP2 DUP4 SUB SUB DUP2 MSTORE SWAP1 PUSH1 0x40 MSTORE SWAP1 PUSH28 0xFFFFFFFFFFFFFFFFFFFFFFFFFFFFFFFFFFFFFFFFFFFFFFFFFFFFFFFF NOT AND PUSH1 0x20 DUP3 ADD DUP1 MLOAD PUSH28 0xFFFFFFFFFFFFFFFFFFFFFFFFFFFFFFFFFFFFFFFFFFFFFFFFFFFFFFFF DUP4 DUP2 DUP4 AND OR DUP4 MSTORE POP POP POP POP PUSH2 0xD4F JUMP JUMPDEST POP POP POP POP JUMP JUMPDEST PUSH2 0xD40 DUP4 PUSH4 0xA9059CBB PUSH1 0xE0 SHL DUP5 DUP5 PUSH1 0x40 MLOAD PUSH1 0x24 ADD PUSH2 0xCDE SWAP3 SWAP2 SWAP1 PUSH2 0x1757 JUMP JUMPDEST PUSH1 0x40 MLOAD PUSH1 0x20 DUP2 DUP4 SUB SUB DUP2 MSTORE SWAP1 PUSH1 0x40 MSTORE SWAP1 PUSH28 0xFFFFFFFFFFFFFFFFFFFFFFFFFFFFFFFFFFFFFFFFFFFFFFFFFFFFFFFF NOT AND PUSH1 0x20 DUP3 ADD DUP1 MLOAD PUSH28 0xFFFFFFFFFFFFFFFFFFFFFFFFFFFFFFFFFFFFFFFFFFFFFFFFFFFFFFFF DUP4 DUP2 DUP4 AND OR DUP4 MSTORE POP POP POP POP PUSH2 0xD4F JUMP JUMPDEST POP POP POP JUMP JUMPDEST POP POP POP JUMP JUMPDEST POP POP POP JUMP JUMPDEST PUSH0 PUSH2 0xDB0 DUP3 PUSH1 0x40 MLOAD DUP1 PUSH1 0x40 ADD PUSH1 0x40 MSTORE DUP1 PUSH1 0x20 DUP2 MSTORE PUSH1 0x20 ADD PUSH32 0x5361666545524332303A206C6F772D6C6576656C2063616C6C206661696C6564 DUP2 MSTORE POP DUP6 PUSH20 0xFFFFFFFFFFFFFFFFFFFFFFFFFFFFFFFFFFFFFFFF AND PUSH2 0xE14 SWAP1 SWAP3 SWAP2 SWAP1 PUSH4 0xFFFFFFFF AND JUMP JUMPDEST SWAP1 POP PUSH0 DUP2 MLOAD GT ISZERO PUSH2 0xE0F JUMPI DUP1 DUP1 PUSH1 0x20 ADD SWAP1 MLOAD DUP2 ADD SWAP1 PUSH2 0xDCF SWAP2 SWAP1 PUSH2 0x17A8 JUMP JUMPDEST PUSH2 0xE0E JUMPI PUSH1 0x40 MLOAD PUSH32 0x8C379A000000000000000000000000000000000000000000000000000000000 DUP2 MSTORE PUSH1 0x4 ADD PUSH2 0xE05 SWAP1 PUSH2 0x1843 JUMP JUMPDEST PUSH1 0x40 MLOAD DUP1 SWAP2 SUB SWAP1 REVERT JUMPDEST JUMPDEST POP POP POP JUMP JUMPDEST PUSH1 0x60 PUSH2 0xE22 DUP5 DUP5 PUSH0 DUP6 PUSH2 0xE2B JUMP JUMPDEST SWAP1 POP SWAP4 SWAP3 POP POP POP JUMP JUMPDEST PUSH1 0x60 DUP3 SELFBALANCE LT ISZERO PUSH2 0xE70 JUMPI PUSH1 0x40 MLOAD PUSH32 0x8C379A000000000000000000000000000000000000000000000000000000000 DUP2 MSTORE PUSH1 0x4 ADD PUSH2 0xE67 SWAP1 PUSH2 0x18D1 JUMP JUMPDEST PUSH1 0x40 MLOAD DUP1 SWAP2 SUB SWAP1 REVERT JUMPDEST PUSH0 DUP1 DUP7 PUSH20 0xFFFFFFFFFFFFFFFFFFFFFFFFFFFFFFFFFFFFFFFF AND DUP6 DUP8 PUSH1 0x40 MLOAD PUSH2 0xE98 SWAP2 SWAP1 PUSH2 0x1933 JUMP JUMPDEST PUSH0 PUSH1 0x40 MLOAD DUP1 DUP4 SUB DUP2 DUP6 DUP8 GAS CALL SWAP3 POP POP POP RETURNDATASIZE DUP1 PUSH0 DUP2 EQ PUSH2 0xED2 JUMPI PUSH1 0x40 MLOAD SWAP2 POP PUSH1 0x1F NOT PUSH1 0x3F RETURNDATASIZE ADD AND DUP3 ADD PUSH1 0x40 MSTORE RETURNDATASIZE DUP3 MSTORE RETURNDATASIZE PUSH0 PUSH1 0x20 DUP5 ADD RETURNDATACOPY PUSH2 0xED7 JUMP JUMPDEST PUSH1 0x60 SWAP2 POP JUMPDEST POP SWAP2 POP SWAP2 POP PUSH2 0xEE8 DUP8 DUP4 DUP4 DUP8 PUSH2 0xEF4 JUMP JUMPDEST SWAP3 POP POP POP SWAP5 SWAP4 POP POP POP POP JUMP JUMPDEST PUSH1 0x60 DUP4 ISZERO PUSH2 0xF55 JUMPI PUSH0 DUP4 MLOAD SUB PUSH2 0xF4D JUMPI PUSH2 0xF0D DUP6 PUSH2 0xF68 JUMP JUMPDEST PUSH2 0xF4C JUMPI PUSH1 0x40 MLOAD PUSH32 0x8C379A000000000000000000000000000000000000000000000000000000000 DUP2 MSTORE PUSH1 0x4 ADD PUSH2 0xF43 SWAP1 PUSH2 0x1993 JUMP JUMPDEST PUSH1 0x40 MLOAD DUP1 SWAP2 SUB SWAP1 REVERT JUMPDEST JUMPDEST DUP3 SWAP1 POP PUSH2 0xF60 JUMP JUMPDEST PUSH2 0xF5F DUP4 DUP4 PUSH2 0xF8A JUMP JUMPDEST JUMPDEST SWAP5 SWAP4 POP POP POP POP JUMP JUMPDEST PUSH0 DUP1 DUP3 PUSH20 0xFFFFFFFFFFFFFFFFFFFFFFFFFFFFFFFFFFFFFFFF AND EXTCODESIZE GT SWAP1 POP SWAP2 SWAP1 POP JUMP JUMPDEST PUSH0 DUP3 MLOAD GT ISZERO PUSH2 0xF9C JUMPI DUP2 MLOAD DUP1 DUP4 PUSH1 0x20 ADD REVERT JUMPDEST DUP1 PUSH1 0x40 MLOAD PUSH32 0x8C379A000000000000000000000000000000000000000000000000000000000 DUP2 MSTORE PUSH1 0x4 ADD PUSH2 0xFD0 SWAP2 SWAP1 PUSH2 0x1063 JUMP JUMPDEST PUSH1 0x40 MLOAD DUP1 SWAP2 SUB SWAP1 REVERT JUMPDEST PUSH0 DUP2 MLOAD SWAP1 POP SWAP2 SWAP1 POP JUMP JUMPDEST PUSH0 DUP3 DUP3 MSTORE PUSH1 0x20 DUP3 ADD SWAP1 POP SWAP3 SWAP2 POP POP JUMP JUMPDEST PUSH0 JUMPDEST DUP4 DUP2 LT ISZERO PUSH2 0x1010 JUMPI DUP1 DUP3 ADD MLOAD DUP2 DUP5 ADD MSTORE PUSH1 0x20 DUP2 ADD SWAP1 POP PUSH2 0xFF5 JUMP JUMPDEST PUSH0 DUP5 DUP5 ADD MSTORE POP POP POP POP JUMP JUMPDEST PUSH0 PUSH1 0x1F NOT PUSH1 0x1F DUP4 ADD AND SWAP1 POP SWAP2 SWAP1 POP JUMP JUMPDEST PUSH0 PUSH2 0x1035 DUP3 PUSH2 0xFD9 JUMP JUMPDEST PUSH2 0x103F DUP2 DUP6 PUSH2 0xFE3 JUMP JUMPDEST SWAP4 POP PUSH2 0x104F DUP2 DUP6 PUSH1 0x20 DUP7 ADD PUSH2 0xFF3 JUMP JUMPDEST PUSH2 0x1058 DUP2 PUSH2 0x101B JUMP JUMPDEST DUP5 ADD SWAP2 POP POP SWAP3 SWAP2 POP POP JUMP JUMPDEST PUSH0 PUSH1 0x20 DUP3 ADD SWAP1 POP DUP2 DUP2 SUB PUSH0 DUP4 ADD MSTORE PUSH2 0x107B DUP2 DUP5 PUSH2 0x102B JUMP JUMPDEST SWAP1 POP SWAP3 SWAP2 POP POP JUMP JUMPDEST PUSH0 DUP1 REVERT JUMPDEST PUSH0 PUSH20 0xFFFFFFFFFFFFFFFFFFFFFFFFFFFFFFFFFFFFFFFF DUP3 AND SWAP1 POP SWAP2 SWAP1 POP JUMP JUMPDEST PUSH0 PUSH2 0x10B0 DUP3 PUSH2 0x1087 JUMP JUMPDEST SWAP1 POP SWAP2 SWAP1 POP JUMP JUMPDEST PUSH2 0x10C0 DUP2 PUSH2 0x10A6 JUMP JUMPDEST DUP2 EQ PUSH2 0x10CA JUMPI PUSH0 DUP1 REVERT JUMPDEST POP JUMP JUMPDEST PUSH0 DUP2 CALLDATALOAD SWAP1 POP PUSH2 0x10DB DUP2 PUSH2 0x10B7 JUMP JUMPDEST SWAP3 SWAP2 POP POP JUMP JUMPDEST PUSH0 DUP2 SWAP1 POP SWAP2 SWAP1 POP JUMP JUMPDEST PUSH2 0x10F3 DUP2 PUSH2 0x10E1 JUMP JUMPDEST DUP2 EQ PUSH2 0x10FD JUMPI PUSH0 DUP1 REVERT JUMPDEST POP JUMP JUMPDEST PUSH0 DUP2 CALLDATALOAD SWAP1 POP PUSH2 0x110E DUP2 PUSH2 0x10EA JUMP JUMPDEST SWAP3 SWAP2 POP POP JUMP JUMPDEST PUSH0 DUP1 PUSH1 0x40 DUP4 DUP6 SUB SLT ISZERO PUSH2 0x112A JUMPI PUSH2 0x1129 PUSH2 0x1083 JUMP JUMPDEST JUMPDEST PUSH0 PUSH2 0x1137 DUP6 DUP3 DUP7 ADD PUSH2 0x10CD JUMP JUMPDEST SWAP3 POP POP PUSH1 0x20 PUSH2 0x1148 DUP6 DUP3 DUP7 ADD PUSH2 0x1100 JUMP JUMPDEST SWAP2 POP POP SWAP3 POP SWAP3 SWAP1 POP JUMP JUMPDEST PUSH0 DUP2 ISZERO ISZERO SWAP1 POP SWAP2 SWAP1 POP JUMP JUMPDEST PUSH2 0x1166 DUP2 PUSH2 0x1152 JUMP JUMPDEST DUP3 MSTORE POP POP JUMP JUMPDEST PUSH0 PUSH1 0x20 DUP3 ADD SWAP1 POP PUSH2 0x117F PUSH0 DUP4 ADD DUP5 PUSH2 0x115D JUMP JUMPDEST SWAP3 SWAP2 POP POP JUMP JUMPDEST PUSH2 0x118E DUP2 PUSH2 0x10E1 JUMP JUMPDEST DUP3 MSTORE POP POP JUMP JUMPDEST PUSH0 PUSH1 0x20 DUP3 ADD SWAP1 POP PUSH2 0x11A7 PUSH0 DUP4 ADD DUP5 PUSH2 0x1185 JUMP JUMPDEST SWAP3 SWAP2 POP POP JUMP JUMPDEST PUSH0 DUP1 PUSH0 PUSH1 0x60 DUP5 DUP7 SUB SLT ISZERO PUSH2 0x11C4 JUMPI PUSH2 0x11C3 PUSH2 0x1083 JUMP JUMPDEST JUMPDEST PUSH0 PUSH2 0x11D1 DUP7 DUP3 DUP8 ADD PUSH2 0x10CD JUMP JUMPDEST SWAP4 POP POP PUSH1 0x20 PUSH2 0x11E2 DUP7 DUP3 DUP8 ADD PUSH2 0x10CD JUMP JUMPDEST SWAP3 POP POP PUSH1 0x40 PUSH2 0x11F3 DUP7 DUP3 DUP8 ADD PUSH2 0x1100 JUMP JUMPDEST SWAP2 POP POP SWAP3 POP SWAP3 POP SWAP3 JUMP JUMPDEST PUSH0 PUSH1 0xFF DUP3 AND SWAP1 POP SWAP2 SWAP1 POP JUMP JUMPDEST PUSH2 0x1212 DUP2 PUSH2 0x11FD JUMP JUMPDEST DUP3 MSTORE POP POP JUMP JUMPDEST PUSH0 PUSH1 0x20 DUP3 ADD SWAP1 POP PUSH2 0x122B PUSH0 DUP4 ADD DUP5 PUSH2 0x1209 JUMP JUMPDEST SWAP3 SWAP2 POP POP JUMP JUMPDEST PUSH0 PUSH1 0x20 DUP3 DUP5 SUB SLT ISZERO PUSH2 0x1246 JUMPI PUSH2 0x1245 PUSH2 0x1083 JUMP JUMPDEST JUMPDEST PUSH0 PUSH2 0x1253 DUP5 DUP3 DUP6 ADD PUSH2 0x10CD JUMP JUMPDEST SWAP2 POP POP SWAP3 SWAP2 POP POP JUMP JUMPDEST PUSH0 DUP1 PUSH1 0x40 DUP4 DUP6 SUB SLT ISZERO PUSH2 0x1272 JUMPI PUSH2 0x1271 PUSH2 0x1083 JUMP JUMPDEST JUMPDEST PUSH0 PUSH2 0x127F DUP6 DUP3 DUP7 ADD PUSH2 0x10CD JUMP JUMPDEST SWAP3 POP POP PUSH1 0x20 PUSH2 0x1290 DUP6 DUP3 DUP7 ADD PUSH2 0x10CD JUMP JUMPDEST SWAP2 POP POP SWAP3 POP SWAP3 SWAP1 POP JUMP JUMPDEST PUSH32 0x4E487B7100000000000000000000000000000000000000000000000000000000 PUSH0 MSTORE PUSH1 0x22 PUSH1 0x4 MSTORE PUSH1 0x24 PUSH0 REVERT JUMPDEST PUSH0 PUSH1 0x2 DUP3 DIV SWAP1 POP PUSH1 0x1 DUP3 AND DUP1 PUSH2 0x12DE JUMPI PUSH1 0x7F DUP3 AND SWAP2 POP JUMPDEST PUSH1 0x20 DUP3 LT DUP2 SUB PUSH2 0x12F1 JUMPI PUSH2 0x12F0 PUSH2 0x129A JUMP JUMPDEST JUMPDEST POP SWAP2 SWAP1 POP JUMP JUMPDEST PUSH32 0x4E487B7100000000000000000000000000000000000000000000000000000000 PUSH0 MSTORE PUSH1 0x11 PUSH1 0x4 MSTORE PUSH1 0x24 PUSH0 REVERT JUMPDEST PUSH0 PUSH2 0x132E DUP3 PUSH2 0x10E1 JUMP JUMPDEST SWAP2 POP PUSH2 0x1339 DUP4 PUSH2 0x10E1 JUMP JUMPDEST SWAP3 POP DUP3 DUP3 ADD SWAP1 POP DUP1 DUP3 GT ISZERO PUSH2 0x1351 JUMPI PUSH2 0x1350 PUSH2 0x12F7 JUMP JUMPDEST JUMPDEST SWAP3 SWAP2 POP POP JUMP JUMPDEST PUSH32 0x45524332303A2064656372656173656420616C6C6F77616E63652062656C6F77 PUSH0 DUP3 ADD MSTORE PUSH32 0x207A65726F000000000000000000000000000000000000000000000000000000 PUSH1 0x20 DUP3 ADD MSTORE POP JUMP JUMPDEST PUSH0 PUSH2 0x13B1 PUSH1 0x25 DUP4 PUSH2 0xFE3 JUMP JUMPDEST SWAP2 POP PUSH2 0x13BC DUP3 PUSH2 0x1357 JUMP JUMPDEST PUSH1 0x40 DUP3 ADD SWAP1 POP SWAP2 SWAP1 POP JUMP JUMPDEST PUSH0 PUSH1 0x20 DUP3 ADD SWAP1 POP DUP2 DUP2 SUB PUSH0 DUP4 ADD MSTORE PUSH2 0x13DE DUP2 PUSH2 0x13A5 JUMP JUMPDEST SWAP1 POP SWAP2 SWAP1 POP JUMP JUMPDEST PUSH32 0x45524332303A20617070726F76652066726F6D20746865207A65726F20616464 PUSH0 DUP3 ADD MSTORE PUSH32 0x7265737300000000000000000000000000000000000000000000000000000000 PUSH1 0x20 DUP3 ADD MSTORE POP JUMP JUMPDEST PUSH0 PUSH2 0x143F PUSH1 0x24 DUP4 PUSH2 0xFE3 JUMP JUMPDEST SWAP2 POP PUSH2 0x144A DUP3 PUSH2 0x13E5 JUMP JUMPDEST PUSH1 0x40 DUP3 ADD SWAP1 POP SWAP2 SWAP1 POP JUMP JUMPDEST PUSH0 PUSH1 0x20 DUP3 ADD SWAP1 POP DUP2 DUP2 SUB PUSH0 DUP4 ADD MSTORE PUSH2 0x146C DUP2 PUSH2 0x1433 JUMP JUMPDEST SWAP1 POP SWAP2 SWAP1 POP JUMP JUMPDEST PUSH32 0x45524332303A20617070726F766520746F20746865207A65726F206164647265 PUSH0 DUP3 ADD MSTORE PUSH32 0x7373000000000000000000000000000000000000000000000000000000000000 PUSH1 0x20 DUP3 ADD MSTORE POP JUMP JUMPDEST PUSH0 PUSH2 0x14CD PUSH1 0x22 DUP4 PUSH2 0xFE3 JUMP JUMPDEST SWAP2 POP PUSH2 0x14D8 DUP3 PUSH2 0x1473 JUMP JUMPDEST PUSH1 0x40 DUP3 ADD SWAP1 POP SWAP2 SWAP1 POP JUMP JUMPDEST PUSH0 PUSH1 0x20 DUP3 ADD SWAP1 POP DUP2 DUP2 SUB PUSH0 DUP4 ADD MSTORE PUSH2 0x14FA DUP2 PUSH2 0x14C1 JUMP JUMPDEST SWAP1 POP SWAP2 SWAP1 POP JUMP JUMPDEST PUSH32 0x45524332303A20696E73756666696369656E7420616C6C6F77616E6365000000 PUSH0 DUP3 ADD MSTORE POP JUMP JUMPDEST PUSH0 PUSH2 0x1535 PUSH1 0x1D DUP4 PUSH2 0xFE3 JUMP JUMPDEST SWAP2 POP PUSH2 0x1540 DUP3 PUSH2 0x1501 JUMP JUMPDEST PUSH1 0x20 DUP3 ADD SWAP1 POP SWAP2 SWAP1 POP JUMP JUMPDEST PUSH0 PUSH1 0x20 DUP3 ADD SWAP1 POP DUP2 DUP2 SUB PUSH0 DUP4 ADD MSTORE PUSH2 0x1562 DUP2 PUSH2 0x1529 JUMP JUMPDEST SWAP1 POP SWAP2 SWAP1 POP JUMP JUMPDEST PUSH32 0x45524332303A207472616E736665722066726F6D20746865207A65726F206164 PUSH0 DUP3 ADD MSTORE PUSH32 0x6472657373000000000000000000000000000000000000000000000000000000 PUSH1 0x20 DUP3 ADD MSTORE POP JUMP JUMPDEST PUSH0 PUSH2 0x15C3 PUSH1 0x25 DUP4 PUSH2 0xFE3 JUMP JUMPDEST SWAP2 POP PUSH2 0x15CE DUP3 PUSH2 0x1569 JUMP JUMPDEST PUSH1 0x40 DUP3 ADD SWAP1 POP SWAP2 SWAP1 POP JUMP JUMPDEST PUSH0 PUSH1 0x20 DUP3 ADD SWAP1 POP DUP2 DUP2 SUB PUSH0 DUP4 ADD MSTORE PUSH2 0x15F0 DUP2 PUSH2 0x15B7 JUMP JUMPDEST SWAP1 POP SWAP2 SWAP1 POP JUMP JUMPDEST PUSH32 0x45524332303A207472616E7366657220746F20746865207A65726F2061646472 PUSH0 DUP3 ADD MSTORE PUSH32 0x6573730000000000000000000000000000000000000000000000000000000000 PUSH1 0x20 DUP3 ADD MSTORE POP JUMP JUMPDEST PUSH0 PUSH2 0x1651 PUSH1 0x23 DUP4 PUSH2 0xFE3 JUMP JUMPDEST SWAP2 POP PUSH2 0x165C DUP3 PUSH2 0x15F7 JUMP JUMPDEST PUSH1 0x40 DUP3 ADD SWAP1 POP SWAP2 SWAP1 POP JUMP JUMPDEST PUSH0 PUSH1 0x20 DUP3 ADD SWAP1 POP DUP2 DUP2 SUB PUSH0 DUP4 ADD MSTORE PUSH2 0x167E DUP2 PUSH2 0x1645 JUMP JUMPDEST SWAP1 POP SWAP2 SWAP1 POP JUMP JUMPDEST PUSH32 0x45524332303A207472616E7366657220616D6F756E7420657863656564732062 PUSH0 DUP3 ADD MSTORE PUSH32 0x616C616E63650000000000000000000000000000000000000000000000000000 PUSH1 0x20 DUP3 ADD MSTORE POP JUMP JUMPDEST PUSH0 PUSH2 0x16DF PUSH1 0x26 DUP4 PUSH2 0xFE3 JUMP JUMPDEST SWAP2 POP PUSH2 0x16EA DUP3 PUSH2 0x1685 JUMP JUMPDEST PUSH1 0x40 DUP3 ADD SWAP1 POP SWAP2 SWAP1 POP JUMP JUMPDEST PUSH0 PUSH1 0x20 DUP3 ADD SWAP1 POP DUP2 DUP2 SUB PUSH0 DUP4 ADD MSTORE PUSH2 0x170C DUP2 PUSH2 0x16D3 JUMP JUMPDEST SWAP1 POP SWAP2 SWAP1 POP JUMP JUMPDEST PUSH2 0x171C DUP2 PUSH2 0x10A6 JUMP JUMPDEST DUP3 MSTORE POP POP JUMP JUMPDEST PUSH0 PUSH1 0x60 DUP3 ADD SWAP1 POP PUSH2 0x1735 PUSH0 DUP4 ADD DUP7 PUSH2 0x1713 JUMP JUMPDEST PUSH2 0x1742 PUSH1 0x20 DUP4 ADD DUP6 PUSH2 0x1713 JUMP JUMPDEST PUSH2 0x174F PUSH1 0x40 DUP4 ADD DUP5 PUSH2 0x1185 JUMP JUMPDEST SWAP5 SWAP4 POP POP POP POP JUMP JUMPDEST PUSH0 PUSH1 0x40 DUP3 ADD SWAP1 POP PUSH2 0x176A PUSH0 DUP4 ADD DUP6 PUSH2 0x1713 JUMP JUMPDEST PUSH2 0x1777 PUSH1 0x20 DUP4 ADD DUP5 PUSH2 0x1185 JUMP JUMPDEST SWAP4 SWAP3 POP POP POP JUMP JUMPDEST PUSH2 0x1787 DUP2 PUSH2 0x1152 JUMP JUMPDEST DUP2 EQ PUSH2 0x1791 JUMPI PUSH0 DUP1 REVERT JUMPDEST POP JUMP JUMPDEST PUSH0 DUP2 MLOAD SWAP1 POP PUSH2 0x17A2 DUP2 PUSH2 0x177E JUMP JUMPDEST SWAP3 SWAP2 POP POP JUMP JUMPDEST PUSH0 PUSH1 0x20 DUP3 DUP5 SUB SLT ISZERO PUSH2 0x17BD JUMPI PUSH2 0x17BC PUSH2 0x1083 JUMP JUMPDEST JUMPDEST PUSH0 PUSH2 0x17CA DUP5 DUP3 DUP6 ADD PUSH2 0x1794 JUMP JUMPDEST SWAP2 POP POP SWAP3 SWAP2 POP POP JUMP JUMPDEST PUSH32 0x5361666545524332303A204552433230206F7065726174696F6E20646964206E PUSH0 DUP3 ADD MSTORE PUSH32 0x6F74207375636365656400000000000000000000000000000000000000000000 PUSH1 0x20 DUP3 ADD MSTORE POP JUMP JUMPDEST PUSH0 PUSH2 0x182D PUSH1 0x2A DUP4 PUSH2 0xFE3 JUMP JUMPDEST SWAP2 POP PUSH2 0x1838 DUP3 PUSH2 0x17D3 JUMP JUMPDEST PUSH1 0x40 DUP3 ADD SWAP1 POP SWAP2 SWAP1 POP JUMP JUMPDEST PUSH0 PUSH1 0x20 DUP3 ADD SWAP1 POP DUP2 DUP2 SUB PUSH0 DUP4 ADD MSTORE PUSH2 0x185A DUP2 PUSH2 0x1821 JUMP JUMPDEST SWAP1 POP SWAP2 SWAP1 POP JUMP JUMPDEST PUSH32 0x416464726573733A20696E73756666696369656E742062616C616E636520666F PUSH0 DUP3 ADD MSTORE PUSH32 0x722063616C6C0000000000000000000000000000000000000000000000000000 PUSH1 0x20 DUP3 ADD MSTORE POP JUMP JUMPDEST PUSH0 PUSH2 0x18BB PUSH1 0x26 DUP4 PUSH2 0xFE3 JUMP JUMPDEST SWAP2 POP PUSH2 0x18C6 DUP3 PUSH2 0x1861 JUMP JUMPDEST PUSH1 0x40 DUP3 ADD SWAP1 POP SWAP2 SWAP1 POP JUMP JUMPDEST PUSH0 PUSH1 0x20 DUP3 ADD SWAP1 POP DUP2 DUP2 SUB PUSH0 DUP4 ADD MSTORE PUSH2 0x18E8 DUP2 PUSH2 0x18AF JUMP JUMPDEST SWAP1 POP SWAP2 SWAP1 POP JUMP JUMPDEST PUSH0 DUP2 MLOAD SWAP1 POP SWAP2 SWAP1 POP JUMP JUMPDEST PUSH0 DUP2 SWAP1 POP SWAP3 SWAP2 POP POP JUMP JUMPDEST PUSH0 PUSH2 0x190D DUP3 PUSH2 0x18EF JUMP JUMPDEST PUSH2 0x1917 DUP2 DUP6 PUSH2 0x18F9 JUMP JUMPDEST SWAP4 POP PUSH2 0x1927 DUP2 DUP6 PUSH1 0x20 DUP7 ADD PUSH2 0xFF3 JUMP JUMPDEST DUP1 DUP5 ADD SWAP2 POP POP SWAP3 SWAP2 POP POP JUMP JUMPDEST PUSH0 PUSH2 0x193E DUP3 DUP5 PUSH2 0x1903 JUMP JUMPDEST SWAP2 POP DUP2 SWAP1 POP SWAP3 SWAP2 POP POP JUMP JUMPDEST PUSH32 0x416464726573733A2063616C6C20746F206E6F6E2D636F6E7472616374000000 PUSH0 DUP3 ADD MSTORE POP JUMP JUMPDEST PUSH0 PUSH2 0x197D PUSH1 0x1D DUP4 PUSH2 0xFE3 JUMP JUMPDEST SWAP2 POP PUSH2 0x1988 DUP3 PUSH2 0x1949 JUMP JUMPDEST PUSH1 0x20 DUP3 ADD SWAP1 POP SWAP2 SWAP1 POP JUMP JUMPDEST PUSH0 PUSH1 0x20 DUP3 ADD SWAP1 POP DUP2 DUP2 SUB PUSH0 DUP4 ADD MSTORE PUSH2 0x19AA DUP2 PUSH2 0x1971 JUMP JUMPDEST SWAP1 POP SWAP2 SWAP1 POP JUMP INVALID LOG2 PUSH5 0x6970667358 0x22 SLT KECCAK256 SSTORE GAS REVERT 0xCF CALLVALUE KECCAK256 0xDB SDIV EXP PUSH9 0x97024837126BD60669 PUSH10 0x64532AD9C926C2632FE6 RETURNDATACOPY 0xCA PUSH5 0x736F6C6343 STOP ADDMOD XOR STOP CALLER "
				},
				"gasEstimates": {
					"creation": {
						"codeDepositCost": "1326200",
						"executionCost": "infinite",
						"totalCost": "infinite"
					},
					"external": {
						"allowance(address,address)": "infinite",
						"approve(address,uint256)": "infinite",
						"balanceOf(address)": "2852",
						"decimals()": "infinite",
						"decreaseAllowance(address,uint256)": "infinite",
						"increaseAllowance(address,uint256)": "infinite",
						"name()": "infinite",
						"redeem()": "infinite",
						"stake(address,uint256)": "infinite",
						"symbol()": "infinite",
						"totalSupply()": "2477",
						"transfer(address,uint256)": "infinite",
						"transferFrom(address,address,uint256)": "infinite"
					}
				},
				"methodIdentifiers": {
					"allowance(address,address)": "dd62ed3e",
					"approve(address,uint256)": "095ea7b3",
					"balanceOf(address)": "70a08231",
					"decimals()": "313ce567",
					"decreaseAllowance(address,uint256)": "a457c2d7",
					"increaseAllowance(address,uint256)": "39509351",
					"name()": "06fdde03",
					"redeem()": "be040fb0",
					"stake(address,uint256)": "adc9772e",
					"symbol()": "95d89b41",
					"totalSupply()": "18160ddd",
					"transfer(address,uint256)": "a9059cbb",
					"transferFrom(address,address,uint256)": "23b872dd"
				}
			},
			"storageLayout": {
				"storage": [
					{
						"astId": 15,
						"contract": "v2/TreasuryManagerBASE.sol:TreasuryManagerBASE",
						"label": "_balances",
						"offset": 0,
						"slot": "0",
						"type": "t_mapping(t_address,t_uint256)"
					},
					{
						"astId": 21,
						"contract": "v2/TreasuryManagerBASE.sol:TreasuryManagerBASE",
						"label": "_allowances",
						"offset": 0,
						"slot": "1",
						"type": "t_mapping(t_address,t_mapping(t_address,t_uint256))"
					},
					{
						"astId": 23,
						"contract": "v2/TreasuryManagerBASE.sol:TreasuryManagerBASE",
						"label": "_totalSupply",
						"offset": 0,
						"slot": "2",
						"type": "t_uint256"
					},
					{
						"astId": 25,
						"contract": "v2/TreasuryManagerBASE.sol:TreasuryManagerBASE",
						"label": "_name",
						"offset": 0,
						"slot": "3",
						"type": "t_string_storage"
					},
					{
						"astId": 27,
						"contract": "v2/TreasuryManagerBASE.sol:TreasuryManagerBASE",
						"label": "_symbol",
						"offset": 0,
						"slot": "4",
						"type": "t_string_storage"
					}
				],
				"types": {
					"t_address": {
						"encoding": "inplace",
						"label": "address",
						"numberOfBytes": "20"
					},
					"t_mapping(t_address,t_mapping(t_address,t_uint256))": {
						"encoding": "mapping",
						"key": "t_address",
						"label": "mapping(address => mapping(address => uint256))",
						"numberOfBytes": "32",
						"value": "t_mapping(t_address,t_uint256)"
					},
					"t_mapping(t_address,t_uint256)": {
						"encoding": "mapping",
						"key": "t_address",
						"label": "mapping(address => uint256)",
						"numberOfBytes": "32",
						"value": "t_uint256"
					},
					"t_string_storage": {
						"encoding": "bytes",
						"label": "string",
						"numberOfBytes": "32"
					},
					"t_uint256": {
						"encoding": "inplace",
						"label": "uint256",
						"numberOfBytes": "32"
					}
				}
			},
			"userdoc": {
				"kind": "user",
				"methods": {
					"constructor": {
						"notice": "Constructor initializes the contract with the usdc token address."
					}
				},
				"version": 1
			}
		}
	}
}